{
	"data": {
		"bytecode": {
			"linkReferences": {},
			"object": "608060405234801561000f575f80fd5b50335f73ffffffffffffffffffffffffffffffffffffffff168173ffffffffffffffffffffffffffffffffffffffff1603610081575f6040517f1e4fbdf70000000000000000000000000000000000000000000000000000000081526004016100789190610196565b60405180910390fd5b6100908161009660201b60201c565b506101af565b5f805f9054906101000a900473ffffffffffffffffffffffffffffffffffffffff169050815f806101000a81548173ffffffffffffffffffffffffffffffffffffffff021916908373ffffffffffffffffffffffffffffffffffffffff1602179055508173ffffffffffffffffffffffffffffffffffffffff168173ffffffffffffffffffffffffffffffffffffffff167f8be0079c531659141344cd1fd0a4f28419497f9722a3daafe3b4186f6b6457e060405160405180910390a35050565b5f73ffffffffffffffffffffffffffffffffffffffff82169050919050565b5f61018082610157565b9050919050565b61019081610176565b82525050565b5f6020820190506101a95f830184610187565b92915050565b6118e4806101bc5f395ff3fe608060405234801561000f575f80fd5b50600436106100e7575f3560e01c806366184f501161008a5780638da5cb5b116100645780638da5cb5b14610244578063bf2ea18314610262578063db43919b1461027e578063f2fde38b1461029a576100e7565b806366184f50146101ee578063700bc2411461020a578063715018a61461023a576100e7565b80633b5bcf8b116100c65780633b5bcf8b1461016a5780633bd48e4b1461019a578063513cac80146101b6578063526bc60d146101d2576100e7565b8062fdd58e146100eb5780631dd6bf091461011b57806322b6ed2614610137575b5f80fd5b61010560048036038101906101009190611133565b6102b6565b6040516101129190611180565b60405180910390f35b61013560048036038101906101309190611199565b61030c565b005b610151600480360381019061014c91906111e9565b610439565b6040516101619493929190611214565b60405180910390f35b610184600480360381019061017f9190611257565b610489565b6040516101919190611180565b60405180910390f35b6101b460048036038101906101af9190611295565b6105e4565b005b6101d060048036038101906101cb919061140f565b6106a1565b005b6101ec60048036038101906101e791906114b0565b61076c565b005b61020860048036038101906102039190611514565b610973565b005b610224600480360381019061021f9190611257565b610a74565b6040516102319190611180565b60405180910390f35b610242610b2f565b005b61024c610b42565b6040516102599190611573565b60405180910390f35b61027c60048036038101906102779190611295565b610b69565b005b610298600480360381019061029391906111e9565b610cb9565b005b6102b460048036038101906102af919061158c565b610e08565b005b5f60035f8381526020019081526020015f205f8473ffffffffffffffffffffffffffffffffffffffff1673ffffffffffffffffffffffffffffffffffffffff1681526020019081526020015f2054905092915050565b610314610e8c565b6040518061012001604052805f81526020015f81526020014281526020014281526020016001151581526020015f81526020015f67ffffffffffffffff811115610361576103606112eb565b5b60405190808252806020026020018201604052801561038f5781602001602082028036833780820191505090505b5081526020018381526020018281525060015f8581526020019081526020015f205f820151815f01556020820151816001015560408201518160020155606082015181600301556080820151816004015f6101000a81548160ff02191690831515021790555060a0820151816005015560c082015181600601908051906020019061041b92919061102f565b5060e082015181600701556101008201518160080155905050505050565b5f805f805f60015f8781526020019081526020015f209050805f015481600501546104748360050154845f0154610f1390919063ffffffff16565b83600801549450945094509450509193509193565b5f610492610e8c565b5f60015f8581526020019081526020015f2090505f6104e1670de0b6b3a76400006104d384600101546104c5888a6102b6565b610f2890919063ffffffff16565b610f3d90919063ffffffff16565b90505f61054360025f8881526020019081526020015f205f8773ffffffffffffffffffffffffffffffffffffffff1673ffffffffffffffffffffffffffffffffffffffff1681526020019081526020015f205483610f1390919063ffffffff16565b90505f8111610587576040517f08c379a000000000000000000000000000000000000000000000000000000000815260040161057e90611611565b60405180910390fd5b8160025f8881526020019081526020015f205f8773ffffffffffffffffffffffffffffffffffffffff1673ffffffffffffffffffffffffffffffffffffffff1681526020019081526020015f208190555080935050505092915050565b6105ec610e8c565b60015f8381526020019081526020015f206004015f9054906101000a900460ff1661064c576040517f08c379a000000000000000000000000000000000000000000000000000000000815260040161064390611679565b60405180910390fd5b8060015f8481526020019081526020015f2060080181905550817f8d45721c0edcd094d637f66e971ce1167f974eed315c9a31b6ce145067760acc826040516106959190611180565b60405180910390a25050565b6106a9610e8c565b5f60015f8581526020019081526020015f209050806004015f9054906101000a900460ff1661070d576040517f08c379a000000000000000000000000000000000000000000000000000000000815260040161070490611679565b60405180910390fd5b610724838260050154610f5290919063ffffffff16565b8160050181905550837f960cee7418379cb6f7889f9d98a98ebca71a5547cbe3da02e3c412f1c67fba63848460405161075e9291906116e7565b60405180910390a250505050565b610774610e8c565b801561082e576107d98260035f8781526020019081526020015f205f8673ffffffffffffffffffffffffffffffffffffffff1673ffffffffffffffffffffffffffffffffffffffff1681526020019081526020015f2054610f5290919063ffffffff16565b60035f8681526020019081526020015f205f8573ffffffffffffffffffffffffffffffffffffffff1673ffffffffffffffffffffffffffffffffffffffff1681526020019081526020015f208190555061096d565b8160035f8681526020019081526020015f205f8573ffffffffffffffffffffffffffffffffffffffff1673ffffffffffffffffffffffffffffffffffffffff1681526020019081526020015f205410156108bd576040517f08c379a00000000000000000000000000000000000000000000000000000000081526004016108b49061175f565b60405180910390fd5b61091c8260035f8781526020019081526020015f205f8673ffffffffffffffffffffffffffffffffffffffff1673ffffffffffffffffffffffffffffffffffffffff1681526020019081526020015f2054610f1390919063ffffffff16565b60035f8681526020019081526020015f205f8573ffffffffffffffffffffffffffffffffffffffff1673ffffffffffffffffffffffffffffffffffffffff1681526020019081526020015f20819055505b50505050565b61097b610e8c565b5f60015f8581526020019081526020015f209050610a1e6109c3670de0b6b3a76400006109b5846001015486610f2890919063ffffffff16565b610f3d90919063ffffffff16565b60025f8781526020019081526020015f205f8673ffffffffffffffffffffffffffffffffffffffff1673ffffffffffffffffffffffffffffffffffffffff1681526020019081526020015f2054610f5290919063ffffffff16565b60025f8681526020019081526020015f205f8573ffffffffffffffffffffffffffffffffffffffff1673ffffffffffffffffffffffffffffffffffffffff1681526020019081526020015f208190555050505050565b5f8060015f8581526020019081526020015f2090505f610ac4670de0b6b3a7640000610ab68460010154610aa8888a6102b6565b610f2890919063ffffffff16565b610f3d90919063ffffffff16565b9050610b2560025f8781526020019081526020015f205f8673ffffffffffffffffffffffffffffffffffffffff1673ffffffffffffffffffffffffffffffffffffffff1681526020019081526020015f205482610f1390919063ffffffff16565b9250505092915050565b610b37610e8c565b610b405f610f67565b565b5f805f9054906101000a900473ffffffffffffffffffffffffffffffffffffffff16905090565b610b71610e8c565b5f60015f8481526020019081526020015f209050806004015f9054906101000a900460ff16610bd5576040517f08c379a0000000000000000000000000000000000000000000000000000000008152600401610bcc90611679565b60405180910390fd5b5f610bec825f015484610f1390919063ffffffff16565b905082825f01819055505f610c288360070154610c1a670de0b6b3a764000085610f2890919063ffffffff16565b610f3d90919063ffffffff16565b9050610c41818460010154610f5290919063ffffffff16565b83600101819055504283600201819055508260060184908060018154018082558091505060019003905f5260205f20015f9091909190915055847ff94dbfcb5b95c844bd7d6995234872a96b708c97a775afa4123415b55de4ea2b85604051610caa9190611180565b60405180910390a25050505050565b5f60015f8381526020019081526020015f209050806004015f9054906101000a900460ff16610d1d576040517f08c379a0000000000000000000000000000000000000000000000000000000008152600401610d1490611679565b60405180910390fd5b5f610d68610d56670de0b6b3a7640000610d4885600701548660010154610f2890919063ffffffff16565b610f3d90919063ffffffff16565b835f0154610f1390919063ffffffff16565b90505f811115610e0357610db9610da68360070154610d98670de0b6b3a764000085610f2890919063ffffffff16565b610f3d90919063ffffffff16565b8360010154610f5290919063ffffffff16565b8260010181905550428260030181905550827f05f22a7e13278e3ae8f7a891f9212866f009e17528e63bb103ffa4a2244e0a5982604051610dfa9190611180565b60405180910390a25b505050565b610e10610e8c565b5f73ffffffffffffffffffffffffffffffffffffffff168173ffffffffffffffffffffffffffffffffffffffff1603610e80575f6040517f1e4fbdf7000000000000000000000000000000000000000000000000000000008152600401610e779190611573565b60405180910390fd5b610e8981610f67565b50565b610e94611028565b73ffffffffffffffffffffffffffffffffffffffff16610eb2610b42565b73ffffffffffffffffffffffffffffffffffffffff1614610f1157610ed5611028565b6040517f118cdaa7000000000000000000000000000000000000000000000000000000008152600401610f089190611573565b60405180910390fd5b565b5f8183610f2091906117aa565b905092915050565b5f8183610f3591906117dd565b905092915050565b5f8183610f4a919061184b565b905092915050565b5f8183610f5f919061187b565b905092915050565b5f805f9054906101000a900473ffffffffffffffffffffffffffffffffffffffff169050815f806101000a81548173ffffffffffffffffffffffffffffffffffffffff021916908373ffffffffffffffffffffffffffffffffffffffff1602179055508173ffffffffffffffffffffffffffffffffffffffff168173ffffffffffffffffffffffffffffffffffffffff167f8be0079c531659141344cd1fd0a4f28419497f9722a3daafe3b4186f6b6457e060405160405180910390a35050565b5f33905090565b828054828255905f5260205f20908101928215611069579160200282015b8281111561106857825182559160200191906001019061104d565b5b509050611076919061107a565b5090565b5b80821115611091575f815f90555060010161107b565b5090565b5f604051905090565b5f80fd5b5f80fd5b5f73ffffffffffffffffffffffffffffffffffffffff82169050919050565b5f6110cf826110a6565b9050919050565b6110df816110c5565b81146110e9575f80fd5b50565b5f813590506110fa816110d6565b92915050565b5f819050919050565b61111281611100565b811461111c575f80fd5b50565b5f8135905061112d81611109565b92915050565b5f80604083850312156111495761114861109e565b5b5f611156858286016110ec565b92505060206111678582860161111f565b9150509250929050565b61117a81611100565b82525050565b5f6020820190506111935f830184611171565b92915050565b5f805f606084860312156111b0576111af61109e565b5b5f6111bd8682870161111f565b93505060206111ce8682870161111f565b92505060406111df8682870161111f565b9150509250925092565b5f602082840312156111fe576111fd61109e565b5b5f61120b8482850161111f565b91505092915050565b5f6080820190506112275f830187611171565b6112346020830186611171565b6112416040830185611171565b61124e6060830184611171565b95945050505050565b5f806040838503121561126d5761126c61109e565b5b5f61127a8582860161111f565b925050602061128b858286016110ec565b9150509250929050565b5f80604083850312156112ab576112aa61109e565b5b5f6112b88582860161111f565b92505060206112c98582860161111f565b9150509250929050565b5f80fd5b5f80fd5b5f601f19601f8301169050919050565b7f4e487b71000000000000000000000000000000000000000000000000000000005f52604160045260245ffd5b611321826112db565b810181811067ffffffffffffffff821117156113405761133f6112eb565b5b80604052505050565b5f611352611095565b905061135e8282611318565b919050565b5f67ffffffffffffffff82111561137d5761137c6112eb565b5b611386826112db565b9050602081019050919050565b828183375f83830152505050565b5f6113b36113ae84611363565b611349565b9050828152602081018484840111156113cf576113ce6112d7565b5b6113da848285611393565b509392505050565b5f82601f8301126113f6576113f56112d3565b5b81356114068482602086016113a1565b91505092915050565b5f805f606084860312156114265761142561109e565b5b5f6114338682870161111f565b93505060206114448682870161111f565b925050604084013567ffffffffffffffff811115611465576114646110a2565b5b611471868287016113e2565b9150509250925092565b5f8115159050919050565b61148f8161147b565b8114611499575f80fd5b50565b5f813590506114aa81611486565b92915050565b5f805f80608085870312156114c8576114c761109e565b5b5f6114d58782880161111f565b94505060206114e6878288016110ec565b93505060406114f78782880161111f565b92505060606115088782880161149c565b91505092959194509250565b5f805f6060848603121561152b5761152a61109e565b5b5f6115388682870161111f565b9350506020611549868287016110ec565b925050604061155a8682870161111f565b9150509250925092565b61156d816110c5565b82525050565b5f6020820190506115865f830184611564565b92915050565b5f602082840312156115a1576115a061109e565b5b5f6115ae848285016110ec565b91505092915050565b5f82825260208201905092915050565b7f4e6f2072656e74616c20696e636f6d6520746f20636c61696d000000000000005f82015250565b5f6115fb6019836115b7565b9150611606826115c7565b602082019050919050565b5f6020820190508181035f830152611628816115ef565b9050919050565b7f50726f7065727479206973206e6f7420616374697665000000000000000000005f82015250565b5f6116636016836115b7565b915061166e8261162f565b602082019050919050565b5f6020820190508181035f83015261169081611657565b9050919050565b5f81519050919050565b8281835e5f83830152505050565b5f6116b982611697565b6116c381856115b7565b93506116d38185602086016116a1565b6116dc816112db565b840191505092915050565b5f6040820190506116fa5f830185611171565b818103602083015261170c81846116af565b90509392505050565b7f496e73756666696369656e742062616c616e63650000000000000000000000005f82015250565b5f6117496014836115b7565b915061175482611715565b602082019050919050565b5f6020820190508181035f8301526117768161173d565b9050919050565b7f4e487b71000000000000000000000000000000000000000000000000000000005f52601160045260245ffd5b5f6117b482611100565b91506117bf83611100565b92508282039050818111156117d7576117d661177d565b5b92915050565b5f6117e782611100565b91506117f283611100565b925082820261180081611100565b915082820484148315176118175761181661177d565b5b5092915050565b7f4e487b71000000000000000000000000000000000000000000000000000000005f52601260045260245ffd5b5f61185582611100565b915061186083611100565b9250826118705761186f61181e565b5b828204905092915050565b5f61188582611100565b915061189083611100565b92508282019050808211156118a8576118a761177d565b5b9291505056fea2646970667358221220ce5995dceb0eaa8bfbe45dbc2840b812039dfd5dcb9e1c8fabb92ba6716d3ed664736f6c634300081a0033",
			"opcodes": "PUSH1 0x80 PUSH1 0x40 MSTORE CALLVALUE DUP1 ISZERO PUSH2 0xF JUMPI PUSH0 DUP1 REVERT JUMPDEST POP CALLER PUSH0 PUSH20 0xFFFFFFFFFFFFFFFFFFFFFFFFFFFFFFFFFFFFFFFF AND DUP2 PUSH20 0xFFFFFFFFFFFFFFFFFFFFFFFFFFFFFFFFFFFFFFFF AND SUB PUSH2 0x81 JUMPI PUSH0 PUSH1 0x40 MLOAD PUSH32 0x1E4FBDF700000000000000000000000000000000000000000000000000000000 DUP2 MSTORE PUSH1 0x4 ADD PUSH2 0x78 SWAP2 SWAP1 PUSH2 0x196 JUMP JUMPDEST PUSH1 0x40 MLOAD DUP1 SWAP2 SUB SWAP1 REVERT JUMPDEST PUSH2 0x90 DUP2 PUSH2 0x96 PUSH1 0x20 SHL PUSH1 0x20 SHR JUMP JUMPDEST POP PUSH2 0x1AF JUMP JUMPDEST PUSH0 DUP1 PUSH0 SWAP1 SLOAD SWAP1 PUSH2 0x100 EXP SWAP1 DIV PUSH20 0xFFFFFFFFFFFFFFFFFFFFFFFFFFFFFFFFFFFFFFFF AND SWAP1 POP DUP2 PUSH0 DUP1 PUSH2 0x100 EXP DUP2 SLOAD DUP2 PUSH20 0xFFFFFFFFFFFFFFFFFFFFFFFFFFFFFFFFFFFFFFFF MUL NOT AND SWAP1 DUP4 PUSH20 0xFFFFFFFFFFFFFFFFFFFFFFFFFFFFFFFFFFFFFFFF AND MUL OR SWAP1 SSTORE POP DUP2 PUSH20 0xFFFFFFFFFFFFFFFFFFFFFFFFFFFFFFFFFFFFFFFF AND DUP2 PUSH20 0xFFFFFFFFFFFFFFFFFFFFFFFFFFFFFFFFFFFFFFFF AND PUSH32 0x8BE0079C531659141344CD1FD0A4F28419497F9722A3DAAFE3B4186F6B6457E0 PUSH1 0x40 MLOAD PUSH1 0x40 MLOAD DUP1 SWAP2 SUB SWAP1 LOG3 POP POP JUMP JUMPDEST PUSH0 PUSH20 0xFFFFFFFFFFFFFFFFFFFFFFFFFFFFFFFFFFFFFFFF DUP3 AND SWAP1 POP SWAP2 SWAP1 POP JUMP JUMPDEST PUSH0 PUSH2 0x180 DUP3 PUSH2 0x157 JUMP JUMPDEST SWAP1 POP SWAP2 SWAP1 POP JUMP JUMPDEST PUSH2 0x190 DUP2 PUSH2 0x176 JUMP JUMPDEST DUP3 MSTORE POP POP JUMP JUMPDEST PUSH0 PUSH1 0x20 DUP3 ADD SWAP1 POP PUSH2 0x1A9 PUSH0 DUP4 ADD DUP5 PUSH2 0x187 JUMP JUMPDEST SWAP3 SWAP2 POP POP JUMP JUMPDEST PUSH2 0x18E4 DUP1 PUSH2 0x1BC PUSH0 CODECOPY PUSH0 RETURN INVALID PUSH1 0x80 PUSH1 0x40 MSTORE CALLVALUE DUP1 ISZERO PUSH2 0xF JUMPI PUSH0 DUP1 REVERT JUMPDEST POP PUSH1 0x4 CALLDATASIZE LT PUSH2 0xE7 JUMPI PUSH0 CALLDATALOAD PUSH1 0xE0 SHR DUP1 PUSH4 0x66184F50 GT PUSH2 0x8A JUMPI DUP1 PUSH4 0x8DA5CB5B GT PUSH2 0x64 JUMPI DUP1 PUSH4 0x8DA5CB5B EQ PUSH2 0x244 JUMPI DUP1 PUSH4 0xBF2EA183 EQ PUSH2 0x262 JUMPI DUP1 PUSH4 0xDB43919B EQ PUSH2 0x27E JUMPI DUP1 PUSH4 0xF2FDE38B EQ PUSH2 0x29A JUMPI PUSH2 0xE7 JUMP JUMPDEST DUP1 PUSH4 0x66184F50 EQ PUSH2 0x1EE JUMPI DUP1 PUSH4 0x700BC241 EQ PUSH2 0x20A JUMPI DUP1 PUSH4 0x715018A6 EQ PUSH2 0x23A JUMPI PUSH2 0xE7 JUMP JUMPDEST DUP1 PUSH4 0x3B5BCF8B GT PUSH2 0xC6 JUMPI DUP1 PUSH4 0x3B5BCF8B EQ PUSH2 0x16A JUMPI DUP1 PUSH4 0x3BD48E4B EQ PUSH2 0x19A JUMPI DUP1 PUSH4 0x513CAC80 EQ PUSH2 0x1B6 JUMPI DUP1 PUSH4 0x526BC60D EQ PUSH2 0x1D2 JUMPI PUSH2 0xE7 JUMP JUMPDEST DUP1 PUSH3 0xFDD58E EQ PUSH2 0xEB JUMPI DUP1 PUSH4 0x1DD6BF09 EQ PUSH2 0x11B JUMPI DUP1 PUSH4 0x22B6ED26 EQ PUSH2 0x137 JUMPI JUMPDEST PUSH0 DUP1 REVERT JUMPDEST PUSH2 0x105 PUSH1 0x4 DUP1 CALLDATASIZE SUB DUP2 ADD SWAP1 PUSH2 0x100 SWAP2 SWAP1 PUSH2 0x1133 JUMP JUMPDEST PUSH2 0x2B6 JUMP JUMPDEST PUSH1 0x40 MLOAD PUSH2 0x112 SWAP2 SWAP1 PUSH2 0x1180 JUMP JUMPDEST PUSH1 0x40 MLOAD DUP1 SWAP2 SUB SWAP1 RETURN JUMPDEST PUSH2 0x135 PUSH1 0x4 DUP1 CALLDATASIZE SUB DUP2 ADD SWAP1 PUSH2 0x130 SWAP2 SWAP1 PUSH2 0x1199 JUMP JUMPDEST PUSH2 0x30C JUMP JUMPDEST STOP JUMPDEST PUSH2 0x151 PUSH1 0x4 DUP1 CALLDATASIZE SUB DUP2 ADD SWAP1 PUSH2 0x14C SWAP2 SWAP1 PUSH2 0x11E9 JUMP JUMPDEST PUSH2 0x439 JUMP JUMPDEST PUSH1 0x40 MLOAD PUSH2 0x161 SWAP5 SWAP4 SWAP3 SWAP2 SWAP1 PUSH2 0x1214 JUMP JUMPDEST PUSH1 0x40 MLOAD DUP1 SWAP2 SUB SWAP1 RETURN JUMPDEST PUSH2 0x184 PUSH1 0x4 DUP1 CALLDATASIZE SUB DUP2 ADD SWAP1 PUSH2 0x17F SWAP2 SWAP1 PUSH2 0x1257 JUMP JUMPDEST PUSH2 0x489 JUMP JUMPDEST PUSH1 0x40 MLOAD PUSH2 0x191 SWAP2 SWAP1 PUSH2 0x1180 JUMP JUMPDEST PUSH1 0x40 MLOAD DUP1 SWAP2 SUB SWAP1 RETURN JUMPDEST PUSH2 0x1B4 PUSH1 0x4 DUP1 CALLDATASIZE SUB DUP2 ADD SWAP1 PUSH2 0x1AF SWAP2 SWAP1 PUSH2 0x1295 JUMP JUMPDEST PUSH2 0x5E4 JUMP JUMPDEST STOP JUMPDEST PUSH2 0x1D0 PUSH1 0x4 DUP1 CALLDATASIZE SUB DUP2 ADD SWAP1 PUSH2 0x1CB SWAP2 SWAP1 PUSH2 0x140F JUMP JUMPDEST PUSH2 0x6A1 JUMP JUMPDEST STOP JUMPDEST PUSH2 0x1EC PUSH1 0x4 DUP1 CALLDATASIZE SUB DUP2 ADD SWAP1 PUSH2 0x1E7 SWAP2 SWAP1 PUSH2 0x14B0 JUMP JUMPDEST PUSH2 0x76C JUMP JUMPDEST STOP JUMPDEST PUSH2 0x208 PUSH1 0x4 DUP1 CALLDATASIZE SUB DUP2 ADD SWAP1 PUSH2 0x203 SWAP2 SWAP1 PUSH2 0x1514 JUMP JUMPDEST PUSH2 0x973 JUMP JUMPDEST STOP JUMPDEST PUSH2 0x224 PUSH1 0x4 DUP1 CALLDATASIZE SUB DUP2 ADD SWAP1 PUSH2 0x21F SWAP2 SWAP1 PUSH2 0x1257 JUMP JUMPDEST PUSH2 0xA74 JUMP JUMPDEST PUSH1 0x40 MLOAD PUSH2 0x231 SWAP2 SWAP1 PUSH2 0x1180 JUMP JUMPDEST PUSH1 0x40 MLOAD DUP1 SWAP2 SUB SWAP1 RETURN JUMPDEST PUSH2 0x242 PUSH2 0xB2F JUMP JUMPDEST STOP JUMPDEST PUSH2 0x24C PUSH2 0xB42 JUMP JUMPDEST PUSH1 0x40 MLOAD PUSH2 0x259 SWAP2 SWAP1 PUSH2 0x1573 JUMP JUMPDEST PUSH1 0x40 MLOAD DUP1 SWAP2 SUB SWAP1 RETURN JUMPDEST PUSH2 0x27C PUSH1 0x4 DUP1 CALLDATASIZE SUB DUP2 ADD SWAP1 PUSH2 0x277 SWAP2 SWAP1 PUSH2 0x1295 JUMP JUMPDEST PUSH2 0xB69 JUMP JUMPDEST STOP JUMPDEST PUSH2 0x298 PUSH1 0x4 DUP1 CALLDATASIZE SUB DUP2 ADD SWAP1 PUSH2 0x293 SWAP2 SWAP1 PUSH2 0x11E9 JUMP JUMPDEST PUSH2 0xCB9 JUMP JUMPDEST STOP JUMPDEST PUSH2 0x2B4 PUSH1 0x4 DUP1 CALLDATASIZE SUB DUP2 ADD SWAP1 PUSH2 0x2AF SWAP2 SWAP1 PUSH2 0x158C JUMP JUMPDEST PUSH2 0xE08 JUMP JUMPDEST STOP JUMPDEST PUSH0 PUSH1 0x3 PUSH0 DUP4 DUP2 MSTORE PUSH1 0x20 ADD SWAP1 DUP2 MSTORE PUSH1 0x20 ADD PUSH0 KECCAK256 PUSH0 DUP5 PUSH20 0xFFFFFFFFFFFFFFFFFFFFFFFFFFFFFFFFFFFFFFFF AND PUSH20 0xFFFFFFFFFFFFFFFFFFFFFFFFFFFFFFFFFFFFFFFF AND DUP2 MSTORE PUSH1 0x20 ADD SWAP1 DUP2 MSTORE PUSH1 0x20 ADD PUSH0 KECCAK256 SLOAD SWAP1 POP SWAP3 SWAP2 POP POP JUMP JUMPDEST PUSH2 0x314 PUSH2 0xE8C JUMP JUMPDEST PUSH1 0x40 MLOAD DUP1 PUSH2 0x120 ADD PUSH1 0x40 MSTORE DUP1 PUSH0 DUP2 MSTORE PUSH1 0x20 ADD PUSH0 DUP2 MSTORE PUSH1 0x20 ADD TIMESTAMP DUP2 MSTORE PUSH1 0x20 ADD TIMESTAMP DUP2 MSTORE PUSH1 0x20 ADD PUSH1 0x1 ISZERO ISZERO DUP2 MSTORE PUSH1 0x20 ADD PUSH0 DUP2 MSTORE PUSH1 0x20 ADD PUSH0 PUSH8 0xFFFFFFFFFFFFFFFF DUP2 GT ISZERO PUSH2 0x361 JUMPI PUSH2 0x360 PUSH2 0x12EB JUMP JUMPDEST JUMPDEST PUSH1 0x40 MLOAD SWAP1 DUP1 DUP3 MSTORE DUP1 PUSH1 0x20 MUL PUSH1 0x20 ADD DUP3 ADD PUSH1 0x40 MSTORE DUP1 ISZERO PUSH2 0x38F JUMPI DUP2 PUSH1 0x20 ADD PUSH1 0x20 DUP3 MUL DUP1 CALLDATASIZE DUP4 CALLDATACOPY DUP1 DUP3 ADD SWAP2 POP POP SWAP1 POP JUMPDEST POP DUP2 MSTORE PUSH1 0x20 ADD DUP4 DUP2 MSTORE PUSH1 0x20 ADD DUP3 DUP2 MSTORE POP PUSH1 0x1 PUSH0 DUP6 DUP2 MSTORE PUSH1 0x20 ADD SWAP1 DUP2 MSTORE PUSH1 0x20 ADD PUSH0 KECCAK256 PUSH0 DUP3 ADD MLOAD DUP2 PUSH0 ADD SSTORE PUSH1 0x20 DUP3 ADD MLOAD DUP2 PUSH1 0x1 ADD SSTORE PUSH1 0x40 DUP3 ADD MLOAD DUP2 PUSH1 0x2 ADD SSTORE PUSH1 0x60 DUP3 ADD MLOAD DUP2 PUSH1 0x3 ADD SSTORE PUSH1 0x80 DUP3 ADD MLOAD DUP2 PUSH1 0x4 ADD PUSH0 PUSH2 0x100 EXP DUP2 SLOAD DUP2 PUSH1 0xFF MUL NOT AND SWAP1 DUP4 ISZERO ISZERO MUL OR SWAP1 SSTORE POP PUSH1 0xA0 DUP3 ADD MLOAD DUP2 PUSH1 0x5 ADD SSTORE PUSH1 0xC0 DUP3 ADD MLOAD DUP2 PUSH1 0x6 ADD SWAP1 DUP1 MLOAD SWAP1 PUSH1 0x20 ADD SWAP1 PUSH2 0x41B SWAP3 SWAP2 SWAP1 PUSH2 0x102F JUMP JUMPDEST POP PUSH1 0xE0 DUP3 ADD MLOAD DUP2 PUSH1 0x7 ADD SSTORE PUSH2 0x100 DUP3 ADD MLOAD DUP2 PUSH1 0x8 ADD SSTORE SWAP1 POP POP POP POP POP JUMP JUMPDEST PUSH0 DUP1 PUSH0 DUP1 PUSH0 PUSH1 0x1 PUSH0 DUP8 DUP2 MSTORE PUSH1 0x20 ADD SWAP1 DUP2 MSTORE PUSH1 0x20 ADD PUSH0 KECCAK256 SWAP1 POP DUP1 PUSH0 ADD SLOAD DUP2 PUSH1 0x5 ADD SLOAD PUSH2 0x474 DUP4 PUSH1 0x5 ADD SLOAD DUP5 PUSH0 ADD SLOAD PUSH2 0xF13 SWAP1 SWAP2 SWAP1 PUSH4 0xFFFFFFFF AND JUMP JUMPDEST DUP4 PUSH1 0x8 ADD SLOAD SWAP5 POP SWAP5 POP SWAP5 POP SWAP5 POP POP SWAP2 SWAP4 POP SWAP2 SWAP4 JUMP JUMPDEST PUSH0 PUSH2 0x492 PUSH2 0xE8C JUMP JUMPDEST PUSH0 PUSH1 0x1 PUSH0 DUP6 DUP2 MSTORE PUSH1 0x20 ADD SWAP1 DUP2 MSTORE PUSH1 0x20 ADD PUSH0 KECCAK256 SWAP1 POP PUSH0 PUSH2 0x4E1 PUSH8 0xDE0B6B3A7640000 PUSH2 0x4D3 DUP5 PUSH1 0x1 ADD SLOAD PUSH2 0x4C5 DUP9 DUP11 PUSH2 0x2B6 JUMP JUMPDEST PUSH2 0xF28 SWAP1 SWAP2 SWAP1 PUSH4 0xFFFFFFFF AND JUMP JUMPDEST PUSH2 0xF3D SWAP1 SWAP2 SWAP1 PUSH4 0xFFFFFFFF AND JUMP JUMPDEST SWAP1 POP PUSH0 PUSH2 0x543 PUSH1 0x2 PUSH0 DUP9 DUP2 MSTORE PUSH1 0x20 ADD SWAP1 DUP2 MSTORE PUSH1 0x20 ADD PUSH0 KECCAK256 PUSH0 DUP8 PUSH20 0xFFFFFFFFFFFFFFFFFFFFFFFFFFFFFFFFFFFFFFFF AND PUSH20 0xFFFFFFFFFFFFFFFFFFFFFFFFFFFFFFFFFFFFFFFF AND DUP2 MSTORE PUSH1 0x20 ADD SWAP1 DUP2 MSTORE PUSH1 0x20 ADD PUSH0 KECCAK256 SLOAD DUP4 PUSH2 0xF13 SWAP1 SWAP2 SWAP1 PUSH4 0xFFFFFFFF AND JUMP JUMPDEST SWAP1 POP PUSH0 DUP2 GT PUSH2 0x587 JUMPI PUSH1 0x40 MLOAD PUSH32 0x8C379A000000000000000000000000000000000000000000000000000000000 DUP2 MSTORE PUSH1 0x4 ADD PUSH2 0x57E SWAP1 PUSH2 0x1611 JUMP JUMPDEST PUSH1 0x40 MLOAD DUP1 SWAP2 SUB SWAP1 REVERT JUMPDEST DUP2 PUSH1 0x2 PUSH0 DUP9 DUP2 MSTORE PUSH1 0x20 ADD SWAP1 DUP2 MSTORE PUSH1 0x20 ADD PUSH0 KECCAK256 PUSH0 DUP8 PUSH20 0xFFFFFFFFFFFFFFFFFFFFFFFFFFFFFFFFFFFFFFFF AND PUSH20 0xFFFFFFFFFFFFFFFFFFFFFFFFFFFFFFFFFFFFFFFF AND DUP2 MSTORE PUSH1 0x20 ADD SWAP1 DUP2 MSTORE PUSH1 0x20 ADD PUSH0 KECCAK256 DUP2 SWAP1 SSTORE POP DUP1 SWAP4 POP POP POP POP SWAP3 SWAP2 POP POP JUMP JUMPDEST PUSH2 0x5EC PUSH2 0xE8C JUMP JUMPDEST PUSH1 0x1 PUSH0 DUP4 DUP2 MSTORE PUSH1 0x20 ADD SWAP1 DUP2 MSTORE PUSH1 0x20 ADD PUSH0 KECCAK256 PUSH1 0x4 ADD PUSH0 SWAP1 SLOAD SWAP1 PUSH2 0x100 EXP SWAP1 DIV PUSH1 0xFF AND PUSH2 0x64C JUMPI PUSH1 0x40 MLOAD PUSH32 0x8C379A000000000000000000000000000000000000000000000000000000000 DUP2 MSTORE PUSH1 0x4 ADD PUSH2 0x643 SWAP1 PUSH2 0x1679 JUMP JUMPDEST PUSH1 0x40 MLOAD DUP1 SWAP2 SUB SWAP1 REVERT JUMPDEST DUP1 PUSH1 0x1 PUSH0 DUP5 DUP2 MSTORE PUSH1 0x20 ADD SWAP1 DUP2 MSTORE PUSH1 0x20 ADD PUSH0 KECCAK256 PUSH1 0x8 ADD DUP2 SWAP1 SSTORE POP DUP2 PUSH32 0x8D45721C0EDCD094D637F66E971CE1167F974EED315C9A31B6CE145067760ACC DUP3 PUSH1 0x40 MLOAD PUSH2 0x695 SWAP2 SWAP1 PUSH2 0x1180 JUMP JUMPDEST PUSH1 0x40 MLOAD DUP1 SWAP2 SUB SWAP1 LOG2 POP POP JUMP JUMPDEST PUSH2 0x6A9 PUSH2 0xE8C JUMP JUMPDEST PUSH0 PUSH1 0x1 PUSH0 DUP6 DUP2 MSTORE PUSH1 0x20 ADD SWAP1 DUP2 MSTORE PUSH1 0x20 ADD PUSH0 KECCAK256 SWAP1 POP DUP1 PUSH1 0x4 ADD PUSH0 SWAP1 SLOAD SWAP1 PUSH2 0x100 EXP SWAP1 DIV PUSH1 0xFF AND PUSH2 0x70D JUMPI PUSH1 0x40 MLOAD PUSH32 0x8C379A000000000000000000000000000000000000000000000000000000000 DUP2 MSTORE PUSH1 0x4 ADD PUSH2 0x704 SWAP1 PUSH2 0x1679 JUMP JUMPDEST PUSH1 0x40 MLOAD DUP1 SWAP2 SUB SWAP1 REVERT JUMPDEST PUSH2 0x724 DUP4 DUP3 PUSH1 0x5 ADD SLOAD PUSH2 0xF52 SWAP1 SWAP2 SWAP1 PUSH4 0xFFFFFFFF AND JUMP JUMPDEST DUP2 PUSH1 0x5 ADD DUP2 SWAP1 SSTORE POP DUP4 PUSH32 0x960CEE7418379CB6F7889F9D98A98EBCA71A5547CBE3DA02E3C412F1C67FBA63 DUP5 DUP5 PUSH1 0x40 MLOAD PUSH2 0x75E SWAP3 SWAP2 SWAP1 PUSH2 0x16E7 JUMP JUMPDEST PUSH1 0x40 MLOAD DUP1 SWAP2 SUB SWAP1 LOG2 POP POP POP POP JUMP JUMPDEST PUSH2 0x774 PUSH2 0xE8C JUMP JUMPDEST DUP1 ISZERO PUSH2 0x82E JUMPI PUSH2 0x7D9 DUP3 PUSH1 0x3 PUSH0 DUP8 DUP2 MSTORE PUSH1 0x20 ADD SWAP1 DUP2 MSTORE PUSH1 0x20 ADD PUSH0 KECCAK256 PUSH0 DUP7 PUSH20 0xFFFFFFFFFFFFFFFFFFFFFFFFFFFFFFFFFFFFFFFF AND PUSH20 0xFFFFFFFFFFFFFFFFFFFFFFFFFFFFFFFFFFFFFFFF AND DUP2 MSTORE PUSH1 0x20 ADD SWAP1 DUP2 MSTORE PUSH1 0x20 ADD PUSH0 KECCAK256 SLOAD PUSH2 0xF52 SWAP1 SWAP2 SWAP1 PUSH4 0xFFFFFFFF AND JUMP JUMPDEST PUSH1 0x3 PUSH0 DUP7 DUP2 MSTORE PUSH1 0x20 ADD SWAP1 DUP2 MSTORE PUSH1 0x20 ADD PUSH0 KECCAK256 PUSH0 DUP6 PUSH20 0xFFFFFFFFFFFFFFFFFFFFFFFFFFFFFFFFFFFFFFFF AND PUSH20 0xFFFFFFFFFFFFFFFFFFFFFFFFFFFFFFFFFFFFFFFF AND DUP2 MSTORE PUSH1 0x20 ADD SWAP1 DUP2 MSTORE PUSH1 0x20 ADD PUSH0 KECCAK256 DUP2 SWAP1 SSTORE POP PUSH2 0x96D JUMP JUMPDEST DUP2 PUSH1 0x3 PUSH0 DUP7 DUP2 MSTORE PUSH1 0x20 ADD SWAP1 DUP2 MSTORE PUSH1 0x20 ADD PUSH0 KECCAK256 PUSH0 DUP6 PUSH20 0xFFFFFFFFFFFFFFFFFFFFFFFFFFFFFFFFFFFFFFFF AND PUSH20 0xFFFFFFFFFFFFFFFFFFFFFFFFFFFFFFFFFFFFFFFF AND DUP2 MSTORE PUSH1 0x20 ADD SWAP1 DUP2 MSTORE PUSH1 0x20 ADD PUSH0 KECCAK256 SLOAD LT ISZERO PUSH2 0x8BD JUMPI PUSH1 0x40 MLOAD PUSH32 0x8C379A000000000000000000000000000000000000000000000000000000000 DUP2 MSTORE PUSH1 0x4 ADD PUSH2 0x8B4 SWAP1 PUSH2 0x175F JUMP JUMPDEST PUSH1 0x40 MLOAD DUP1 SWAP2 SUB SWAP1 REVERT JUMPDEST PUSH2 0x91C DUP3 PUSH1 0x3 PUSH0 DUP8 DUP2 MSTORE PUSH1 0x20 ADD SWAP1 DUP2 MSTORE PUSH1 0x20 ADD PUSH0 KECCAK256 PUSH0 DUP7 PUSH20 0xFFFFFFFFFFFFFFFFFFFFFFFFFFFFFFFFFFFFFFFF AND PUSH20 0xFFFFFFFFFFFFFFFFFFFFFFFFFFFFFFFFFFFFFFFF AND DUP2 MSTORE PUSH1 0x20 ADD SWAP1 DUP2 MSTORE PUSH1 0x20 ADD PUSH0 KECCAK256 SLOAD PUSH2 0xF13 SWAP1 SWAP2 SWAP1 PUSH4 0xFFFFFFFF AND JUMP JUMPDEST PUSH1 0x3 PUSH0 DUP7 DUP2 MSTORE PUSH1 0x20 ADD SWAP1 DUP2 MSTORE PUSH1 0x20 ADD PUSH0 KECCAK256 PUSH0 DUP6 PUSH20 0xFFFFFFFFFFFFFFFFFFFFFFFFFFFFFFFFFFFFFFFF AND PUSH20 0xFFFFFFFFFFFFFFFFFFFFFFFFFFFFFFFFFFFFFFFF AND DUP2 MSTORE PUSH1 0x20 ADD SWAP1 DUP2 MSTORE PUSH1 0x20 ADD PUSH0 KECCAK256 DUP2 SWAP1 SSTORE POP JUMPDEST POP POP POP POP JUMP JUMPDEST PUSH2 0x97B PUSH2 0xE8C JUMP JUMPDEST PUSH0 PUSH1 0x1 PUSH0 DUP6 DUP2 MSTORE PUSH1 0x20 ADD SWAP1 DUP2 MSTORE PUSH1 0x20 ADD PUSH0 KECCAK256 SWAP1 POP PUSH2 0xA1E PUSH2 0x9C3 PUSH8 0xDE0B6B3A7640000 PUSH2 0x9B5 DUP5 PUSH1 0x1 ADD SLOAD DUP7 PUSH2 0xF28 SWAP1 SWAP2 SWAP1 PUSH4 0xFFFFFFFF AND JUMP JUMPDEST PUSH2 0xF3D SWAP1 SWAP2 SWAP1 PUSH4 0xFFFFFFFF AND JUMP JUMPDEST PUSH1 0x2 PUSH0 DUP8 DUP2 MSTORE PUSH1 0x20 ADD SWAP1 DUP2 MSTORE PUSH1 0x20 ADD PUSH0 KECCAK256 PUSH0 DUP7 PUSH20 0xFFFFFFFFFFFFFFFFFFFFFFFFFFFFFFFFFFFFFFFF AND PUSH20 0xFFFFFFFFFFFFFFFFFFFFFFFFFFFFFFFFFFFFFFFF AND DUP2 MSTORE PUSH1 0x20 ADD SWAP1 DUP2 MSTORE PUSH1 0x20 ADD PUSH0 KECCAK256 SLOAD PUSH2 0xF52 SWAP1 SWAP2 SWAP1 PUSH4 0xFFFFFFFF AND JUMP JUMPDEST PUSH1 0x2 PUSH0 DUP7 DUP2 MSTORE PUSH1 0x20 ADD SWAP1 DUP2 MSTORE PUSH1 0x20 ADD PUSH0 KECCAK256 PUSH0 DUP6 PUSH20 0xFFFFFFFFFFFFFFFFFFFFFFFFFFFFFFFFFFFFFFFF AND PUSH20 0xFFFFFFFFFFFFFFFFFFFFFFFFFFFFFFFFFFFFFFFF AND DUP2 MSTORE PUSH1 0x20 ADD SWAP1 DUP2 MSTORE PUSH1 0x20 ADD PUSH0 KECCAK256 DUP2 SWAP1 SSTORE POP POP POP POP POP JUMP JUMPDEST PUSH0 DUP1 PUSH1 0x1 PUSH0 DUP6 DUP2 MSTORE PUSH1 0x20 ADD SWAP1 DUP2 MSTORE PUSH1 0x20 ADD PUSH0 KECCAK256 SWAP1 POP PUSH0 PUSH2 0xAC4 PUSH8 0xDE0B6B3A7640000 PUSH2 0xAB6 DUP5 PUSH1 0x1 ADD SLOAD PUSH2 0xAA8 DUP9 DUP11 PUSH2 0x2B6 JUMP JUMPDEST PUSH2 0xF28 SWAP1 SWAP2 SWAP1 PUSH4 0xFFFFFFFF AND JUMP JUMPDEST PUSH2 0xF3D SWAP1 SWAP2 SWAP1 PUSH4 0xFFFFFFFF AND JUMP JUMPDEST SWAP1 POP PUSH2 0xB25 PUSH1 0x2 PUSH0 DUP8 DUP2 MSTORE PUSH1 0x20 ADD SWAP1 DUP2 MSTORE PUSH1 0x20 ADD PUSH0 KECCAK256 PUSH0 DUP7 PUSH20 0xFFFFFFFFFFFFFFFFFFFFFFFFFFFFFFFFFFFFFFFF AND PUSH20 0xFFFFFFFFFFFFFFFFFFFFFFFFFFFFFFFFFFFFFFFF AND DUP2 MSTORE PUSH1 0x20 ADD SWAP1 DUP2 MSTORE PUSH1 0x20 ADD PUSH0 KECCAK256 SLOAD DUP3 PUSH2 0xF13 SWAP1 SWAP2 SWAP1 PUSH4 0xFFFFFFFF AND JUMP JUMPDEST SWAP3 POP POP POP SWAP3 SWAP2 POP POP JUMP JUMPDEST PUSH2 0xB37 PUSH2 0xE8C JUMP JUMPDEST PUSH2 0xB40 PUSH0 PUSH2 0xF67 JUMP JUMPDEST JUMP JUMPDEST PUSH0 DUP1 PUSH0 SWAP1 SLOAD SWAP1 PUSH2 0x100 EXP SWAP1 DIV PUSH20 0xFFFFFFFFFFFFFFFFFFFFFFFFFFFFFFFFFFFFFFFF AND SWAP1 POP SWAP1 JUMP JUMPDEST PUSH2 0xB71 PUSH2 0xE8C JUMP JUMPDEST PUSH0 PUSH1 0x1 PUSH0 DUP5 DUP2 MSTORE PUSH1 0x20 ADD SWAP1 DUP2 MSTORE PUSH1 0x20 ADD PUSH0 KECCAK256 SWAP1 POP DUP1 PUSH1 0x4 ADD PUSH0 SWAP1 SLOAD SWAP1 PUSH2 0x100 EXP SWAP1 DIV PUSH1 0xFF AND PUSH2 0xBD5 JUMPI PUSH1 0x40 MLOAD PUSH32 0x8C379A000000000000000000000000000000000000000000000000000000000 DUP2 MSTORE PUSH1 0x4 ADD PUSH2 0xBCC SWAP1 PUSH2 0x1679 JUMP JUMPDEST PUSH1 0x40 MLOAD DUP1 SWAP2 SUB SWAP1 REVERT JUMPDEST PUSH0 PUSH2 0xBEC DUP3 PUSH0 ADD SLOAD DUP5 PUSH2 0xF13 SWAP1 SWAP2 SWAP1 PUSH4 0xFFFFFFFF AND JUMP JUMPDEST SWAP1 POP DUP3 DUP3 PUSH0 ADD DUP2 SWAP1 SSTORE POP PUSH0 PUSH2 0xC28 DUP4 PUSH1 0x7 ADD SLOAD PUSH2 0xC1A PUSH8 0xDE0B6B3A7640000 DUP6 PUSH2 0xF28 SWAP1 SWAP2 SWAP1 PUSH4 0xFFFFFFFF AND JUMP JUMPDEST PUSH2 0xF3D SWAP1 SWAP2 SWAP1 PUSH4 0xFFFFFFFF AND JUMP JUMPDEST SWAP1 POP PUSH2 0xC41 DUP2 DUP5 PUSH1 0x1 ADD SLOAD PUSH2 0xF52 SWAP1 SWAP2 SWAP1 PUSH4 0xFFFFFFFF AND JUMP JUMPDEST DUP4 PUSH1 0x1 ADD DUP2 SWAP1 SSTORE POP TIMESTAMP DUP4 PUSH1 0x2 ADD DUP2 SWAP1 SSTORE POP DUP3 PUSH1 0x6 ADD DUP5 SWAP1 DUP1 PUSH1 0x1 DUP2 SLOAD ADD DUP1 DUP3 SSTORE DUP1 SWAP2 POP POP PUSH1 0x1 SWAP1 SUB SWAP1 PUSH0 MSTORE PUSH1 0x20 PUSH0 KECCAK256 ADD PUSH0 SWAP1 SWAP2 SWAP1 SWAP2 SWAP1 SWAP2 POP SSTORE DUP5 PUSH32 0xF94DBFCB5B95C844BD7D6995234872A96B708C97A775AFA4123415B55DE4EA2B DUP6 PUSH1 0x40 MLOAD PUSH2 0xCAA SWAP2 SWAP1 PUSH2 0x1180 JUMP JUMPDEST PUSH1 0x40 MLOAD DUP1 SWAP2 SUB SWAP1 LOG2 POP POP POP POP POP JUMP JUMPDEST PUSH0 PUSH1 0x1 PUSH0 DUP4 DUP2 MSTORE PUSH1 0x20 ADD SWAP1 DUP2 MSTORE PUSH1 0x20 ADD PUSH0 KECCAK256 SWAP1 POP DUP1 PUSH1 0x4 ADD PUSH0 SWAP1 SLOAD SWAP1 PUSH2 0x100 EXP SWAP1 DIV PUSH1 0xFF AND PUSH2 0xD1D JUMPI PUSH1 0x40 MLOAD PUSH32 0x8C379A000000000000000000000000000000000000000000000000000000000 DUP2 MSTORE PUSH1 0x4 ADD PUSH2 0xD14 SWAP1 PUSH2 0x1679 JUMP JUMPDEST PUSH1 0x40 MLOAD DUP1 SWAP2 SUB SWAP1 REVERT JUMPDEST PUSH0 PUSH2 0xD68 PUSH2 0xD56 PUSH8 0xDE0B6B3A7640000 PUSH2 0xD48 DUP6 PUSH1 0x7 ADD SLOAD DUP7 PUSH1 0x1 ADD SLOAD PUSH2 0xF28 SWAP1 SWAP2 SWAP1 PUSH4 0xFFFFFFFF AND JUMP JUMPDEST PUSH2 0xF3D SWAP1 SWAP2 SWAP1 PUSH4 0xFFFFFFFF AND JUMP JUMPDEST DUP4 PUSH0 ADD SLOAD PUSH2 0xF13 SWAP1 SWAP2 SWAP1 PUSH4 0xFFFFFFFF AND JUMP JUMPDEST SWAP1 POP PUSH0 DUP2 GT ISZERO PUSH2 0xE03 JUMPI PUSH2 0xDB9 PUSH2 0xDA6 DUP4 PUSH1 0x7 ADD SLOAD PUSH2 0xD98 PUSH8 0xDE0B6B3A7640000 DUP6 PUSH2 0xF28 SWAP1 SWAP2 SWAP1 PUSH4 0xFFFFFFFF AND JUMP JUMPDEST PUSH2 0xF3D SWAP1 SWAP2 SWAP1 PUSH4 0xFFFFFFFF AND JUMP JUMPDEST DUP4 PUSH1 0x1 ADD SLOAD PUSH2 0xF52 SWAP1 SWAP2 SWAP1 PUSH4 0xFFFFFFFF AND JUMP JUMPDEST DUP3 PUSH1 0x1 ADD DUP2 SWAP1 SSTORE POP TIMESTAMP DUP3 PUSH1 0x3 ADD DUP2 SWAP1 SSTORE POP DUP3 PUSH32 0x5F22A7E13278E3AE8F7A891F9212866F009E17528E63BB103FFA4A2244E0A59 DUP3 PUSH1 0x40 MLOAD PUSH2 0xDFA SWAP2 SWAP1 PUSH2 0x1180 JUMP JUMPDEST PUSH1 0x40 MLOAD DUP1 SWAP2 SUB SWAP1 LOG2 JUMPDEST POP POP POP JUMP JUMPDEST PUSH2 0xE10 PUSH2 0xE8C JUMP JUMPDEST PUSH0 PUSH20 0xFFFFFFFFFFFFFFFFFFFFFFFFFFFFFFFFFFFFFFFF AND DUP2 PUSH20 0xFFFFFFFFFFFFFFFFFFFFFFFFFFFFFFFFFFFFFFFF AND SUB PUSH2 0xE80 JUMPI PUSH0 PUSH1 0x40 MLOAD PUSH32 0x1E4FBDF700000000000000000000000000000000000000000000000000000000 DUP2 MSTORE PUSH1 0x4 ADD PUSH2 0xE77 SWAP2 SWAP1 PUSH2 0x1573 JUMP JUMPDEST PUSH1 0x40 MLOAD DUP1 SWAP2 SUB SWAP1 REVERT JUMPDEST PUSH2 0xE89 DUP2 PUSH2 0xF67 JUMP JUMPDEST POP JUMP JUMPDEST PUSH2 0xE94 PUSH2 0x1028 JUMP JUMPDEST PUSH20 0xFFFFFFFFFFFFFFFFFFFFFFFFFFFFFFFFFFFFFFFF AND PUSH2 0xEB2 PUSH2 0xB42 JUMP JUMPDEST PUSH20 0xFFFFFFFFFFFFFFFFFFFFFFFFFFFFFFFFFFFFFFFF AND EQ PUSH2 0xF11 JUMPI PUSH2 0xED5 PUSH2 0x1028 JUMP JUMPDEST PUSH1 0x40 MLOAD PUSH32 0x118CDAA700000000000000000000000000000000000000000000000000000000 DUP2 MSTORE PUSH1 0x4 ADD PUSH2 0xF08 SWAP2 SWAP1 PUSH2 0x1573 JUMP JUMPDEST PUSH1 0x40 MLOAD DUP1 SWAP2 SUB SWAP1 REVERT JUMPDEST JUMP JUMPDEST PUSH0 DUP2 DUP4 PUSH2 0xF20 SWAP2 SWAP1 PUSH2 0x17AA JUMP JUMPDEST SWAP1 POP SWAP3 SWAP2 POP POP JUMP JUMPDEST PUSH0 DUP2 DUP4 PUSH2 0xF35 SWAP2 SWAP1 PUSH2 0x17DD JUMP JUMPDEST SWAP1 POP SWAP3 SWAP2 POP POP JUMP JUMPDEST PUSH0 DUP2 DUP4 PUSH2 0xF4A SWAP2 SWAP1 PUSH2 0x184B JUMP JUMPDEST SWAP1 POP SWAP3 SWAP2 POP POP JUMP JUMPDEST PUSH0 DUP2 DUP4 PUSH2 0xF5F SWAP2 SWAP1 PUSH2 0x187B JUMP JUMPDEST SWAP1 POP SWAP3 SWAP2 POP POP JUMP JUMPDEST PUSH0 DUP1 PUSH0 SWAP1 SLOAD SWAP1 PUSH2 0x100 EXP SWAP1 DIV PUSH20 0xFFFFFFFFFFFFFFFFFFFFFFFFFFFFFFFFFFFFFFFF AND SWAP1 POP DUP2 PUSH0 DUP1 PUSH2 0x100 EXP DUP2 SLOAD DUP2 PUSH20 0xFFFFFFFFFFFFFFFFFFFFFFFFFFFFFFFFFFFFFFFF MUL NOT AND SWAP1 DUP4 PUSH20 0xFFFFFFFFFFFFFFFFFFFFFFFFFFFFFFFFFFFFFFFF AND MUL OR SWAP1 SSTORE POP DUP2 PUSH20 0xFFFFFFFFFFFFFFFFFFFFFFFFFFFFFFFFFFFFFFFF AND DUP2 PUSH20 0xFFFFFFFFFFFFFFFFFFFFFFFFFFFFFFFFFFFFFFFF AND PUSH32 0x8BE0079C531659141344CD1FD0A4F28419497F9722A3DAAFE3B4186F6B6457E0 PUSH1 0x40 MLOAD PUSH1 0x40 MLOAD DUP1 SWAP2 SUB SWAP1 LOG3 POP POP JUMP JUMPDEST PUSH0 CALLER SWAP1 POP SWAP1 JUMP JUMPDEST DUP3 DUP1 SLOAD DUP3 DUP3 SSTORE SWAP1 PUSH0 MSTORE PUSH1 0x20 PUSH0 KECCAK256 SWAP1 DUP2 ADD SWAP3 DUP3 ISZERO PUSH2 0x1069 JUMPI SWAP2 PUSH1 0x20 MUL DUP3 ADD JUMPDEST DUP3 DUP2 GT ISZERO PUSH2 0x1068 JUMPI DUP3 MLOAD DUP3 SSTORE SWAP2 PUSH1 0x20 ADD SWAP2 SWAP1 PUSH1 0x1 ADD SWAP1 PUSH2 0x104D JUMP JUMPDEST JUMPDEST POP SWAP1 POP PUSH2 0x1076 SWAP2 SWAP1 PUSH2 0x107A JUMP JUMPDEST POP SWAP1 JUMP JUMPDEST JUMPDEST DUP1 DUP3 GT ISZERO PUSH2 0x1091 JUMPI PUSH0 DUP2 PUSH0 SWAP1 SSTORE POP PUSH1 0x1 ADD PUSH2 0x107B JUMP JUMPDEST POP SWAP1 JUMP JUMPDEST PUSH0 PUSH1 0x40 MLOAD SWAP1 POP SWAP1 JUMP JUMPDEST PUSH0 DUP1 REVERT JUMPDEST PUSH0 DUP1 REVERT JUMPDEST PUSH0 PUSH20 0xFFFFFFFFFFFFFFFFFFFFFFFFFFFFFFFFFFFFFFFF DUP3 AND SWAP1 POP SWAP2 SWAP1 POP JUMP JUMPDEST PUSH0 PUSH2 0x10CF DUP3 PUSH2 0x10A6 JUMP JUMPDEST SWAP1 POP SWAP2 SWAP1 POP JUMP JUMPDEST PUSH2 0x10DF DUP2 PUSH2 0x10C5 JUMP JUMPDEST DUP2 EQ PUSH2 0x10E9 JUMPI PUSH0 DUP1 REVERT JUMPDEST POP JUMP JUMPDEST PUSH0 DUP2 CALLDATALOAD SWAP1 POP PUSH2 0x10FA DUP2 PUSH2 0x10D6 JUMP JUMPDEST SWAP3 SWAP2 POP POP JUMP JUMPDEST PUSH0 DUP2 SWAP1 POP SWAP2 SWAP1 POP JUMP JUMPDEST PUSH2 0x1112 DUP2 PUSH2 0x1100 JUMP JUMPDEST DUP2 EQ PUSH2 0x111C JUMPI PUSH0 DUP1 REVERT JUMPDEST POP JUMP JUMPDEST PUSH0 DUP2 CALLDATALOAD SWAP1 POP PUSH2 0x112D DUP2 PUSH2 0x1109 JUMP JUMPDEST SWAP3 SWAP2 POP POP JUMP JUMPDEST PUSH0 DUP1 PUSH1 0x40 DUP4 DUP6 SUB SLT ISZERO PUSH2 0x1149 JUMPI PUSH2 0x1148 PUSH2 0x109E JUMP JUMPDEST JUMPDEST PUSH0 PUSH2 0x1156 DUP6 DUP3 DUP7 ADD PUSH2 0x10EC JUMP JUMPDEST SWAP3 POP POP PUSH1 0x20 PUSH2 0x1167 DUP6 DUP3 DUP7 ADD PUSH2 0x111F JUMP JUMPDEST SWAP2 POP POP SWAP3 POP SWAP3 SWAP1 POP JUMP JUMPDEST PUSH2 0x117A DUP2 PUSH2 0x1100 JUMP JUMPDEST DUP3 MSTORE POP POP JUMP JUMPDEST PUSH0 PUSH1 0x20 DUP3 ADD SWAP1 POP PUSH2 0x1193 PUSH0 DUP4 ADD DUP5 PUSH2 0x1171 JUMP JUMPDEST SWAP3 SWAP2 POP POP JUMP JUMPDEST PUSH0 DUP1 PUSH0 PUSH1 0x60 DUP5 DUP7 SUB SLT ISZERO PUSH2 0x11B0 JUMPI PUSH2 0x11AF PUSH2 0x109E JUMP JUMPDEST JUMPDEST PUSH0 PUSH2 0x11BD DUP7 DUP3 DUP8 ADD PUSH2 0x111F JUMP JUMPDEST SWAP4 POP POP PUSH1 0x20 PUSH2 0x11CE DUP7 DUP3 DUP8 ADD PUSH2 0x111F JUMP JUMPDEST SWAP3 POP POP PUSH1 0x40 PUSH2 0x11DF DUP7 DUP3 DUP8 ADD PUSH2 0x111F JUMP JUMPDEST SWAP2 POP POP SWAP3 POP SWAP3 POP SWAP3 JUMP JUMPDEST PUSH0 PUSH1 0x20 DUP3 DUP5 SUB SLT ISZERO PUSH2 0x11FE JUMPI PUSH2 0x11FD PUSH2 0x109E JUMP JUMPDEST JUMPDEST PUSH0 PUSH2 0x120B DUP5 DUP3 DUP6 ADD PUSH2 0x111F JUMP JUMPDEST SWAP2 POP POP SWAP3 SWAP2 POP POP JUMP JUMPDEST PUSH0 PUSH1 0x80 DUP3 ADD SWAP1 POP PUSH2 0x1227 PUSH0 DUP4 ADD DUP8 PUSH2 0x1171 JUMP JUMPDEST PUSH2 0x1234 PUSH1 0x20 DUP4 ADD DUP7 PUSH2 0x1171 JUMP JUMPDEST PUSH2 0x1241 PUSH1 0x40 DUP4 ADD DUP6 PUSH2 0x1171 JUMP JUMPDEST PUSH2 0x124E PUSH1 0x60 DUP4 ADD DUP5 PUSH2 0x1171 JUMP JUMPDEST SWAP6 SWAP5 POP POP POP POP POP JUMP JUMPDEST PUSH0 DUP1 PUSH1 0x40 DUP4 DUP6 SUB SLT ISZERO PUSH2 0x126D JUMPI PUSH2 0x126C PUSH2 0x109E JUMP JUMPDEST JUMPDEST PUSH0 PUSH2 0x127A DUP6 DUP3 DUP7 ADD PUSH2 0x111F JUMP JUMPDEST SWAP3 POP POP PUSH1 0x20 PUSH2 0x128B DUP6 DUP3 DUP7 ADD PUSH2 0x10EC JUMP JUMPDEST SWAP2 POP POP SWAP3 POP SWAP3 SWAP1 POP JUMP JUMPDEST PUSH0 DUP1 PUSH1 0x40 DUP4 DUP6 SUB SLT ISZERO PUSH2 0x12AB JUMPI PUSH2 0x12AA PUSH2 0x109E JUMP JUMPDEST JUMPDEST PUSH0 PUSH2 0x12B8 DUP6 DUP3 DUP7 ADD PUSH2 0x111F JUMP JUMPDEST SWAP3 POP POP PUSH1 0x20 PUSH2 0x12C9 DUP6 DUP3 DUP7 ADD PUSH2 0x111F JUMP JUMPDEST SWAP2 POP POP SWAP3 POP SWAP3 SWAP1 POP JUMP JUMPDEST PUSH0 DUP1 REVERT JUMPDEST PUSH0 DUP1 REVERT JUMPDEST PUSH0 PUSH1 0x1F NOT PUSH1 0x1F DUP4 ADD AND SWAP1 POP SWAP2 SWAP1 POP JUMP JUMPDEST PUSH32 0x4E487B7100000000000000000000000000000000000000000000000000000000 PUSH0 MSTORE PUSH1 0x41 PUSH1 0x4 MSTORE PUSH1 0x24 PUSH0 REVERT JUMPDEST PUSH2 0x1321 DUP3 PUSH2 0x12DB JUMP JUMPDEST DUP2 ADD DUP2 DUP2 LT PUSH8 0xFFFFFFFFFFFFFFFF DUP3 GT OR ISZERO PUSH2 0x1340 JUMPI PUSH2 0x133F PUSH2 0x12EB JUMP JUMPDEST JUMPDEST DUP1 PUSH1 0x40 MSTORE POP POP POP JUMP JUMPDEST PUSH0 PUSH2 0x1352 PUSH2 0x1095 JUMP JUMPDEST SWAP1 POP PUSH2 0x135E DUP3 DUP3 PUSH2 0x1318 JUMP JUMPDEST SWAP2 SWAP1 POP JUMP JUMPDEST PUSH0 PUSH8 0xFFFFFFFFFFFFFFFF DUP3 GT ISZERO PUSH2 0x137D JUMPI PUSH2 0x137C PUSH2 0x12EB JUMP JUMPDEST JUMPDEST PUSH2 0x1386 DUP3 PUSH2 0x12DB JUMP JUMPDEST SWAP1 POP PUSH1 0x20 DUP2 ADD SWAP1 POP SWAP2 SWAP1 POP JUMP JUMPDEST DUP3 DUP2 DUP4 CALLDATACOPY PUSH0 DUP4 DUP4 ADD MSTORE POP POP POP JUMP JUMPDEST PUSH0 PUSH2 0x13B3 PUSH2 0x13AE DUP5 PUSH2 0x1363 JUMP JUMPDEST PUSH2 0x1349 JUMP JUMPDEST SWAP1 POP DUP3 DUP2 MSTORE PUSH1 0x20 DUP2 ADD DUP5 DUP5 DUP5 ADD GT ISZERO PUSH2 0x13CF JUMPI PUSH2 0x13CE PUSH2 0x12D7 JUMP JUMPDEST JUMPDEST PUSH2 0x13DA DUP5 DUP3 DUP6 PUSH2 0x1393 JUMP JUMPDEST POP SWAP4 SWAP3 POP POP POP JUMP JUMPDEST PUSH0 DUP3 PUSH1 0x1F DUP4 ADD SLT PUSH2 0x13F6 JUMPI PUSH2 0x13F5 PUSH2 0x12D3 JUMP JUMPDEST JUMPDEST DUP2 CALLDATALOAD PUSH2 0x1406 DUP5 DUP3 PUSH1 0x20 DUP7 ADD PUSH2 0x13A1 JUMP JUMPDEST SWAP2 POP POP SWAP3 SWAP2 POP POP JUMP JUMPDEST PUSH0 DUP1 PUSH0 PUSH1 0x60 DUP5 DUP7 SUB SLT ISZERO PUSH2 0x1426 JUMPI PUSH2 0x1425 PUSH2 0x109E JUMP JUMPDEST JUMPDEST PUSH0 PUSH2 0x1433 DUP7 DUP3 DUP8 ADD PUSH2 0x111F JUMP JUMPDEST SWAP4 POP POP PUSH1 0x20 PUSH2 0x1444 DUP7 DUP3 DUP8 ADD PUSH2 0x111F JUMP JUMPDEST SWAP3 POP POP PUSH1 0x40 DUP5 ADD CALLDATALOAD PUSH8 0xFFFFFFFFFFFFFFFF DUP2 GT ISZERO PUSH2 0x1465 JUMPI PUSH2 0x1464 PUSH2 0x10A2 JUMP JUMPDEST JUMPDEST PUSH2 0x1471 DUP7 DUP3 DUP8 ADD PUSH2 0x13E2 JUMP JUMPDEST SWAP2 POP POP SWAP3 POP SWAP3 POP SWAP3 JUMP JUMPDEST PUSH0 DUP2 ISZERO ISZERO SWAP1 POP SWAP2 SWAP1 POP JUMP JUMPDEST PUSH2 0x148F DUP2 PUSH2 0x147B JUMP JUMPDEST DUP2 EQ PUSH2 0x1499 JUMPI PUSH0 DUP1 REVERT JUMPDEST POP JUMP JUMPDEST PUSH0 DUP2 CALLDATALOAD SWAP1 POP PUSH2 0x14AA DUP2 PUSH2 0x1486 JUMP JUMPDEST SWAP3 SWAP2 POP POP JUMP JUMPDEST PUSH0 DUP1 PUSH0 DUP1 PUSH1 0x80 DUP6 DUP8 SUB SLT ISZERO PUSH2 0x14C8 JUMPI PUSH2 0x14C7 PUSH2 0x109E JUMP JUMPDEST JUMPDEST PUSH0 PUSH2 0x14D5 DUP8 DUP3 DUP9 ADD PUSH2 0x111F JUMP JUMPDEST SWAP5 POP POP PUSH1 0x20 PUSH2 0x14E6 DUP8 DUP3 DUP9 ADD PUSH2 0x10EC JUMP JUMPDEST SWAP4 POP POP PUSH1 0x40 PUSH2 0x14F7 DUP8 DUP3 DUP9 ADD PUSH2 0x111F JUMP JUMPDEST SWAP3 POP POP PUSH1 0x60 PUSH2 0x1508 DUP8 DUP3 DUP9 ADD PUSH2 0x149C JUMP JUMPDEST SWAP2 POP POP SWAP3 SWAP6 SWAP2 SWAP5 POP SWAP3 POP JUMP JUMPDEST PUSH0 DUP1 PUSH0 PUSH1 0x60 DUP5 DUP7 SUB SLT ISZERO PUSH2 0x152B JUMPI PUSH2 0x152A PUSH2 0x109E JUMP JUMPDEST JUMPDEST PUSH0 PUSH2 0x1538 DUP7 DUP3 DUP8 ADD PUSH2 0x111F JUMP JUMPDEST SWAP4 POP POP PUSH1 0x20 PUSH2 0x1549 DUP7 DUP3 DUP8 ADD PUSH2 0x10EC JUMP JUMPDEST SWAP3 POP POP PUSH1 0x40 PUSH2 0x155A DUP7 DUP3 DUP8 ADD PUSH2 0x111F JUMP JUMPDEST SWAP2 POP POP SWAP3 POP SWAP3 POP SWAP3 JUMP JUMPDEST PUSH2 0x156D DUP2 PUSH2 0x10C5 JUMP JUMPDEST DUP3 MSTORE POP POP JUMP JUMPDEST PUSH0 PUSH1 0x20 DUP3 ADD SWAP1 POP PUSH2 0x1586 PUSH0 DUP4 ADD DUP5 PUSH2 0x1564 JUMP JUMPDEST SWAP3 SWAP2 POP POP JUMP JUMPDEST PUSH0 PUSH1 0x20 DUP3 DUP5 SUB SLT ISZERO PUSH2 0x15A1 JUMPI PUSH2 0x15A0 PUSH2 0x109E JUMP JUMPDEST JUMPDEST PUSH0 PUSH2 0x15AE DUP5 DUP3 DUP6 ADD PUSH2 0x10EC JUMP JUMPDEST SWAP2 POP POP SWAP3 SWAP2 POP POP JUMP JUMPDEST PUSH0 DUP3 DUP3 MSTORE PUSH1 0x20 DUP3 ADD SWAP1 POP SWAP3 SWAP2 POP POP JUMP JUMPDEST PUSH32 0x4E6F2072656E74616C20696E636F6D6520746F20636C61696D00000000000000 PUSH0 DUP3 ADD MSTORE POP JUMP JUMPDEST PUSH0 PUSH2 0x15FB PUSH1 0x19 DUP4 PUSH2 0x15B7 JUMP JUMPDEST SWAP2 POP PUSH2 0x1606 DUP3 PUSH2 0x15C7 JUMP JUMPDEST PUSH1 0x20 DUP3 ADD SWAP1 POP SWAP2 SWAP1 POP JUMP JUMPDEST PUSH0 PUSH1 0x20 DUP3 ADD SWAP1 POP DUP2 DUP2 SUB PUSH0 DUP4 ADD MSTORE PUSH2 0x1628 DUP2 PUSH2 0x15EF JUMP JUMPDEST SWAP1 POP SWAP2 SWAP1 POP JUMP JUMPDEST PUSH32 0x50726F7065727479206973206E6F742061637469766500000000000000000000 PUSH0 DUP3 ADD MSTORE POP JUMP JUMPDEST PUSH0 PUSH2 0x1663 PUSH1 0x16 DUP4 PUSH2 0x15B7 JUMP JUMPDEST SWAP2 POP PUSH2 0x166E DUP3 PUSH2 0x162F JUMP JUMPDEST PUSH1 0x20 DUP3 ADD SWAP1 POP SWAP2 SWAP1 POP JUMP JUMPDEST PUSH0 PUSH1 0x20 DUP3 ADD SWAP1 POP DUP2 DUP2 SUB PUSH0 DUP4 ADD MSTORE PUSH2 0x1690 DUP2 PUSH2 0x1657 JUMP JUMPDEST SWAP1 POP SWAP2 SWAP1 POP JUMP JUMPDEST PUSH0 DUP2 MLOAD SWAP1 POP SWAP2 SWAP1 POP JUMP JUMPDEST DUP3 DUP2 DUP4 MCOPY PUSH0 DUP4 DUP4 ADD MSTORE POP POP POP JUMP JUMPDEST PUSH0 PUSH2 0x16B9 DUP3 PUSH2 0x1697 JUMP JUMPDEST PUSH2 0x16C3 DUP2 DUP6 PUSH2 0x15B7 JUMP JUMPDEST SWAP4 POP PUSH2 0x16D3 DUP2 DUP6 PUSH1 0x20 DUP7 ADD PUSH2 0x16A1 JUMP JUMPDEST PUSH2 0x16DC DUP2 PUSH2 0x12DB JUMP JUMPDEST DUP5 ADD SWAP2 POP POP SWAP3 SWAP2 POP POP JUMP JUMPDEST PUSH0 PUSH1 0x40 DUP3 ADD SWAP1 POP PUSH2 0x16FA PUSH0 DUP4 ADD DUP6 PUSH2 0x1171 JUMP JUMPDEST DUP2 DUP2 SUB PUSH1 0x20 DUP4 ADD MSTORE PUSH2 0x170C DUP2 DUP5 PUSH2 0x16AF JUMP JUMPDEST SWAP1 POP SWAP4 SWAP3 POP POP POP JUMP JUMPDEST PUSH32 0x496E73756666696369656E742062616C616E6365000000000000000000000000 PUSH0 DUP3 ADD MSTORE POP JUMP JUMPDEST PUSH0 PUSH2 0x1749 PUSH1 0x14 DUP4 PUSH2 0x15B7 JUMP JUMPDEST SWAP2 POP PUSH2 0x1754 DUP3 PUSH2 0x1715 JUMP JUMPDEST PUSH1 0x20 DUP3 ADD SWAP1 POP SWAP2 SWAP1 POP JUMP JUMPDEST PUSH0 PUSH1 0x20 DUP3 ADD SWAP1 POP DUP2 DUP2 SUB PUSH0 DUP4 ADD MSTORE PUSH2 0x1776 DUP2 PUSH2 0x173D JUMP JUMPDEST SWAP1 POP SWAP2 SWAP1 POP JUMP JUMPDEST PUSH32 0x4E487B7100000000000000000000000000000000000000000000000000000000 PUSH0 MSTORE PUSH1 0x11 PUSH1 0x4 MSTORE PUSH1 0x24 PUSH0 REVERT JUMPDEST PUSH0 PUSH2 0x17B4 DUP3 PUSH2 0x1100 JUMP JUMPDEST SWAP2 POP PUSH2 0x17BF DUP4 PUSH2 0x1100 JUMP JUMPDEST SWAP3 POP DUP3 DUP3 SUB SWAP1 POP DUP2 DUP2 GT ISZERO PUSH2 0x17D7 JUMPI PUSH2 0x17D6 PUSH2 0x177D JUMP JUMPDEST JUMPDEST SWAP3 SWAP2 POP POP JUMP JUMPDEST PUSH0 PUSH2 0x17E7 DUP3 PUSH2 0x1100 JUMP JUMPDEST SWAP2 POP PUSH2 0x17F2 DUP4 PUSH2 0x1100 JUMP JUMPDEST SWAP3 POP DUP3 DUP3 MUL PUSH2 0x1800 DUP2 PUSH2 0x1100 JUMP JUMPDEST SWAP2 POP DUP3 DUP3 DIV DUP5 EQ DUP4 ISZERO OR PUSH2 0x1817 JUMPI PUSH2 0x1816 PUSH2 0x177D JUMP JUMPDEST JUMPDEST POP SWAP3 SWAP2 POP POP JUMP JUMPDEST PUSH32 0x4E487B7100000000000000000000000000000000000000000000000000000000 PUSH0 MSTORE PUSH1 0x12 PUSH1 0x4 MSTORE PUSH1 0x24 PUSH0 REVERT JUMPDEST PUSH0 PUSH2 0x1855 DUP3 PUSH2 0x1100 JUMP JUMPDEST SWAP2 POP PUSH2 0x1860 DUP4 PUSH2 0x1100 JUMP JUMPDEST SWAP3 POP DUP3 PUSH2 0x1870 JUMPI PUSH2 0x186F PUSH2 0x181E JUMP JUMPDEST JUMPDEST DUP3 DUP3 DIV SWAP1 POP SWAP3 SWAP2 POP POP JUMP JUMPDEST PUSH0 PUSH2 0x1885 DUP3 PUSH2 0x1100 JUMP JUMPDEST SWAP2 POP PUSH2 0x1890 DUP4 PUSH2 0x1100 JUMP JUMPDEST SWAP3 POP DUP3 DUP3 ADD SWAP1 POP DUP1 DUP3 GT ISZERO PUSH2 0x18A8 JUMPI PUSH2 0x18A7 PUSH2 0x177D JUMP JUMPDEST JUMPDEST SWAP3 SWAP2 POP POP JUMP INVALID LOG2 PUSH5 0x6970667358 0x22 SLT KECCAK256 0xCE MSIZE SWAP6 0xDC 0xEB 0xE 0xAA DUP12 0xFB 0xE4 TSTORE 0xBC 0x28 BLOCKHASH 0xB8 SLT SUB SWAP14 REVERT TSTORE 0xCB SWAP15 SHR DUP16 0xAB 0xB9 0x2B 0xA6 PUSH18 0x6D3ED664736F6C634300081A003300000000 "
		},
		"gasEstimates": {
			"creation": {
				"codeDepositCost": "1274400",
				"executionCost": "infinite",
				"totalCost": "infinite"
			},
			"external": {
				"balanceOf(address,uint256)": "infinite",
				"claimRentalIncome(uint256,address)": "infinite",
				"distributeRentalIncome(uint256)": "infinite",
				"getFinancialReport(uint256)": "infinite",
				"getUnclaimedRentalIncome(uint256,address)": "infinite",
				"initializePropertyFinancials(uint256,uint256,uint256)": "infinite",
				"owner()": "2537",
				"recordExpense(uint256,uint256,string)": "infinite",
				"renounceOwnership()": "infinite",
				"transferOwnership(address)": "infinite",
				"updateCurrentValuation(uint256,uint256)": "infinite",
				"updateRentalIncome(uint256,uint256)": "infinite",
				"updateTokenBalance(uint256,address,uint256,bool)": "infinite",
				"updateUnclaimedRentalIncome(uint256,address,uint256)": "infinite"
			}
		},
		"methodIdentifiers": {
			"balanceOf(address,uint256)": "00fdd58e",
			"claimRentalIncome(uint256,address)": "3b5bcf8b",
			"distributeRentalIncome(uint256)": "db43919b",
			"getFinancialReport(uint256)": "22b6ed26",
			"getUnclaimedRentalIncome(uint256,address)": "700bc241",
			"initializePropertyFinancials(uint256,uint256,uint256)": "1dd6bf09",
			"owner()": "8da5cb5b",
			"recordExpense(uint256,uint256,string)": "513cac80",
			"renounceOwnership()": "715018a6",
			"transferOwnership(address)": "f2fde38b",
			"updateCurrentValuation(uint256,uint256)": "3bd48e4b",
			"updateRentalIncome(uint256,uint256)": "bf2ea183",
			"updateTokenBalance(uint256,address,uint256,bool)": "526bc60d",
			"updateUnclaimedRentalIncome(uint256,address,uint256)": "66184f50"
		}
	},
	"abi": [
		{
			"inputs": [],
			"stateMutability": "nonpayable",
			"type": "constructor"
		},
		{
			"inputs": [
				{
					"internalType": "address",
					"name": "owner",
					"type": "address"
				}
			],
			"name": "OwnableInvalidOwner",
			"type": "error"
		},
		{
			"inputs": [
				{
					"internalType": "address",
					"name": "account",
					"type": "address"
				}
			],
			"name": "OwnableUnauthorizedAccount",
			"type": "error"
		},
		{
			"anonymous": false,
			"inputs": [
				{
					"indexed": true,
					"internalType": "uint256",
					"name": "propertyId",
					"type": "uint256"
				},
				{
					"indexed": false,
					"internalType": "uint256",
					"name": "amount",
					"type": "uint256"
				},
				{
					"indexed": false,
					"internalType": "string",
					"name": "description",
					"type": "string"
				}
			],
			"name": "ExpenseRecorded",
			"type": "event"
		},
		{
			"anonymous": false,
			"inputs": [
				{
					"indexed": true,
					"internalType": "address",
					"name": "previousOwner",
					"type": "address"
				},
				{
					"indexed": true,
					"internalType": "address",
					"name": "newOwner",
					"type": "address"
				}
			],
			"name": "OwnershipTransferred",
			"type": "event"
		},
		{
			"anonymous": false,
			"inputs": [
				{
					"indexed": true,
					"internalType": "uint256",
					"name": "propertyId",
					"type": "uint256"
				},
				{
					"indexed": false,
					"internalType": "uint256",
					"name": "totalAmount",
					"type": "uint256"
				}
			],
			"name": "RentalIncomeDistributed",
			"type": "event"
		},
		{
			"anonymous": false,
			"inputs": [
				{
					"indexed": true,
					"internalType": "uint256",
					"name": "propertyId",
					"type": "uint256"
				},
				{
					"indexed": false,
					"internalType": "uint256",
					"name": "totalRentalIncome",
					"type": "uint256"
				}
			],
			"name": "RentalIncomeUpdated",
			"type": "event"
		},
		{
			"anonymous": false,
			"inputs": [
				{
					"indexed": true,
					"internalType": "uint256",
					"name": "propertyId",
					"type": "uint256"
				},
				{
					"indexed": false,
					"internalType": "uint256",
					"name": "newValuation",
					"type": "uint256"
				}
			],
			"name": "ValuationUpdated",
			"type": "event"
		},
		{
			"inputs": [
				{
					"internalType": "address",
					"name": "account",
					"type": "address"
				},
				{
					"internalType": "uint256",
					"name": "id",
					"type": "uint256"
				}
			],
			"name": "balanceOf",
			"outputs": [
				{
					"internalType": "uint256",
					"name": "",
					"type": "uint256"
				}
			],
			"stateMutability": "view",
			"type": "function"
		},
		{
			"inputs": [
				{
					"internalType": "uint256",
					"name": "propertyId",
					"type": "uint256"
				},
				{
					"internalType": "address",
					"name": "user",
					"type": "address"
				}
			],
			"name": "claimRentalIncome",
			"outputs": [
				{
					"internalType": "uint256",
					"name": "",
					"type": "uint256"
				}
			],
			"stateMutability": "nonpayable",
			"type": "function"
		},
		{
			"inputs": [
				{
					"internalType": "uint256",
					"name": "propertyId",
					"type": "uint256"
				}
			],
			"name": "distributeRentalIncome",
			"outputs": [],
			"stateMutability": "nonpayable",
			"type": "function"
		},
		{
			"inputs": [
				{
					"internalType": "uint256",
					"name": "propertyId",
					"type": "uint256"
				}
			],
			"name": "getFinancialReport",
			"outputs": [
				{
					"internalType": "uint256",
					"name": "totalRentalIncome",
					"type": "uint256"
				},
				{
					"internalType": "uint256",
					"name": "totalExpenses",
					"type": "uint256"
				},
				{
					"internalType": "uint256",
					"name": "netIncome",
					"type": "uint256"
				},
				{
					"internalType": "uint256",
					"name": "currentValuation",
					"type": "uint256"
				}
			],
			"stateMutability": "view",
			"type": "function"
		},
		{
			"inputs": [
				{
					"internalType": "uint256",
					"name": "propertyId",
					"type": "uint256"
				},
				{
					"internalType": "address",
					"name": "user",
					"type": "address"
				}
			],
			"name": "getUnclaimedRentalIncome",
			"outputs": [
				{
					"internalType": "uint256",
					"name": "",
					"type": "uint256"
				}
			],
			"stateMutability": "view",
			"type": "function"
		},
		{
			"inputs": [
				{
					"internalType": "uint256",
					"name": "propertyId",
					"type": "uint256"
				},
				{
					"internalType": "uint256",
					"name": "totalShares",
					"type": "uint256"
				},
				{
					"internalType": "uint256",
					"name": "initialValuation",
					"type": "uint256"
				}
			],
			"name": "initializePropertyFinancials",
			"outputs": [],
			"stateMutability": "nonpayable",
			"type": "function"
		},
		{
			"inputs": [],
			"name": "owner",
			"outputs": [
				{
					"internalType": "address",
					"name": "",
					"type": "address"
				}
			],
			"stateMutability": "view",
			"type": "function"
		},
		{
			"inputs": [
				{
					"internalType": "uint256",
					"name": "propertyId",
					"type": "uint256"
				},
				{
					"internalType": "uint256",
					"name": "amount",
					"type": "uint256"
				},
				{
					"internalType": "string",
					"name": "description",
					"type": "string"
				}
			],
			"name": "recordExpense",
			"outputs": [],
			"stateMutability": "nonpayable",
			"type": "function"
		},
		{
			"inputs": [],
			"name": "renounceOwnership",
			"outputs": [],
			"stateMutability": "nonpayable",
			"type": "function"
		},
		{
			"inputs": [
				{
					"internalType": "address",
					"name": "newOwner",
					"type": "address"
				}
			],
			"name": "transferOwnership",
			"outputs": [],
			"stateMutability": "nonpayable",
			"type": "function"
		},
		{
			"inputs": [
				{
					"internalType": "uint256",
					"name": "propertyId",
					"type": "uint256"
				},
				{
					"internalType": "uint256",
					"name": "newValuation",
					"type": "uint256"
				}
			],
			"name": "updateCurrentValuation",
			"outputs": [],
			"stateMutability": "nonpayable",
			"type": "function"
		},
		{
			"inputs": [
				{
					"internalType": "uint256",
					"name": "propertyId",
					"type": "uint256"
				},
				{
					"internalType": "uint256",
					"name": "newRentalIncome",
					"type": "uint256"
				}
			],
			"name": "updateRentalIncome",
			"outputs": [],
			"stateMutability": "nonpayable",
			"type": "function"
		},
		{
			"inputs": [
				{
					"internalType": "uint256",
					"name": "propertyId",
					"type": "uint256"
				},
				{
					"internalType": "address",
					"name": "account",
					"type": "address"
				},
				{
					"internalType": "uint256",
					"name": "amount",
					"type": "uint256"
				},
				{
					"internalType": "bool",
					"name": "isIncrease",
					"type": "bool"
				}
			],
			"name": "updateTokenBalance",
			"outputs": [],
			"stateMutability": "nonpayable",
			"type": "function"
		},
		{
			"inputs": [
				{
					"internalType": "uint256",
					"name": "propertyId",
					"type": "uint256"
				},
				{
					"internalType": "address",
					"name": "user",
					"type": "address"
				},
				{
					"internalType": "uint256",
					"name": "amount",
					"type": "uint256"
				}
			],
			"name": "updateUnclaimedRentalIncome",
			"outputs": [],
			"stateMutability": "nonpayable",
			"type": "function"
		}
	]
}