{
	"data": {
		"bytecode": {
			"linkReferences": {},
			"object": "608060405234801561000f575f80fd5b50335f73ffffffffffffffffffffffffffffffffffffffff168173ffffffffffffffffffffffffffffffffffffffff1603610081575f6040517f1e4fbdf70000000000000000000000000000000000000000000000000000000081526004016100789190610196565b60405180910390fd5b6100908161009660201b60201c565b506101af565b5f805f9054906101000a900473ffffffffffffffffffffffffffffffffffffffff169050815f806101000a81548173ffffffffffffffffffffffffffffffffffffffff021916908373ffffffffffffffffffffffffffffffffffffffff1602179055508173ffffffffffffffffffffffffffffffffffffffff168173ffffffffffffffffffffffffffffffffffffffff167f8be0079c531659141344cd1fd0a4f28419497f9722a3daafe3b4186f6b6457e060405160405180910390a35050565b5f73ffffffffffffffffffffffffffffffffffffffff82169050919050565b5f61018082610157565b9050919050565b61019081610176565b82525050565b5f6020820190506101a95f830184610187565b92915050565b6110f5806101bc5f395ff3fe608060405234801561000f575f80fd5b5060043610610060575f3560e01c8063474adb8f14610064578063715018a6146100805780638da5cb5b1461008a578063a9fabbd2146100a8578063ace417e0146100c4578063f2fde38b146100f4575b5f80fd5b61007e600480360381019061007991906107f0565b610110565b005b61008861024e565b005b610092610261565b60405161009f919061083d565b60405180910390f35b6100c260048036038101906100bd9190610992565b610288565b005b6100de60048036038101906100d99190610a95565b610528565b6040516100eb9190610acf565b60405180910390f35b61010e60048036038101906101099190610a95565b61057d565b005b610118610601565b5f60015f8473ffffffffffffffffffffffffffffffffffffffff1673ffffffffffffffffffffffffffffffffffffffff1681526020019081526020015f205f01805461016390610b15565b9050116101a5576040517f08c379a000000000000000000000000000000000000000000000000000000000815260040161019c90610b9f565b60405180910390fd5b8060015f8473ffffffffffffffffffffffffffffffffffffffff1673ffffffffffffffffffffffffffffffffffffffff1681526020019081526020015f206005015f6101000a81548160ff0219169083151502179055508173ffffffffffffffffffffffffffffffffffffffff167f7a02eb9b107b2ab713e88c3cd7ac538e5c21b689d0f1b1f22367578b28fc5d09826040516102429190610acf565b60405180910390a25050565b610256610601565b61025f5f610688565b565b5f805f9054906101000a900473ffffffffffffffffffffffffffffffffffffffff16905090565b5f8551116102cb576040517f08c379a00000000000000000000000000000000000000000000000000000000081526004016102c290610c07565b60405180910390fd5b5f84511161030e576040517f08c379a000000000000000000000000000000000000000000000000000000000815260040161030590610c6f565b60405180910390fd5b5f835111610351576040517f08c379a000000000000000000000000000000000000000000000000000000000815260040161034890610cd7565b60405180910390fd5b5f825111610394576040517f08c379a000000000000000000000000000000000000000000000000000000000815260040161038b90610d3f565b60405180910390fd5b5f8151116103d7576040517f08c379a00000000000000000000000000000000000000000000000000000000081526004016103ce90610da7565b60405180910390fd5b6040518060c001604052808681526020018581526020018481526020018381526020018281526020015f151581525060015f3373ffffffffffffffffffffffffffffffffffffffff1673ffffffffffffffffffffffffffffffffffffffff1681526020019081526020015f205f820151815f0190816104569190610f75565b50602082015181600101908161046c9190610f75565b5060408201518160020190816104829190610f75565b5060608201518160030190816104989190610f75565b5060808201518160040190816104ae9190610f75565b5060a0820151816005015f6101000a81548160ff0219169083151502179055509050503373ffffffffffffffffffffffffffffffffffffffff167f74aeb3a73c6cebe2ddfb681c384e0117cc8dd5e93900b3b1507dee33c2603841868560405161051992919061108a565b60405180910390a25050505050565b5f60015f8373ffffffffffffffffffffffffffffffffffffffff1673ffffffffffffffffffffffffffffffffffffffff1681526020019081526020015f206005015f9054906101000a900460ff169050919050565b610585610601565b5f73ffffffffffffffffffffffffffffffffffffffff168173ffffffffffffffffffffffffffffffffffffffff16036105f5575f6040517f1e4fbdf70000000000000000000000000000000000000000000000000000000081526004016105ec919061083d565b60405180910390fd5b6105fe81610688565b50565b610609610749565b73ffffffffffffffffffffffffffffffffffffffff16610627610261565b73ffffffffffffffffffffffffffffffffffffffff16146106865761064a610749565b6040517f118cdaa700000000000000000000000000000000000000000000000000000000815260040161067d919061083d565b60405180910390fd5b565b5f805f9054906101000a900473ffffffffffffffffffffffffffffffffffffffff169050815f806101000a81548173ffffffffffffffffffffffffffffffffffffffff021916908373ffffffffffffffffffffffffffffffffffffffff1602179055508173ffffffffffffffffffffffffffffffffffffffff168173ffffffffffffffffffffffffffffffffffffffff167f8be0079c531659141344cd1fd0a4f28419497f9722a3daafe3b4186f6b6457e060405160405180910390a35050565b5f33905090565b5f604051905090565b5f80fd5b5f80fd5b5f73ffffffffffffffffffffffffffffffffffffffff82169050919050565b5f61078a82610761565b9050919050565b61079a81610780565b81146107a4575f80fd5b50565b5f813590506107b581610791565b92915050565b5f8115159050919050565b6107cf816107bb565b81146107d9575f80fd5b50565b5f813590506107ea816107c6565b92915050565b5f806040838503121561080657610805610759565b5b5f610813858286016107a7565b9250506020610824858286016107dc565b9150509250929050565b61083781610780565b82525050565b5f6020820190506108505f83018461082e565b92915050565b5f80fd5b5f80fd5b5f601f19601f8301169050919050565b7f4e487b71000000000000000000000000000000000000000000000000000000005f52604160045260245ffd5b6108a48261085e565b810181811067ffffffffffffffff821117156108c3576108c261086e565b5b80604052505050565b5f6108d5610750565b90506108e1828261089b565b919050565b5f67ffffffffffffffff821115610900576108ff61086e565b5b6109098261085e565b9050602081019050919050565b828183375f83830152505050565b5f610936610931846108e6565b6108cc565b9050828152602081018484840111156109525761095161085a565b5b61095d848285610916565b509392505050565b5f82601f83011261097957610978610856565b5b8135610989848260208601610924565b91505092915050565b5f805f805f60a086880312156109ab576109aa610759565b5b5f86013567ffffffffffffffff8111156109c8576109c761075d565b5b6109d488828901610965565b955050602086013567ffffffffffffffff8111156109f5576109f461075d565b5b610a0188828901610965565b945050604086013567ffffffffffffffff811115610a2257610a2161075d565b5b610a2e88828901610965565b935050606086013567ffffffffffffffff811115610a4f57610a4e61075d565b5b610a5b88828901610965565b925050608086013567ffffffffffffffff811115610a7c57610a7b61075d565b5b610a8888828901610965565b9150509295509295909350565b5f60208284031215610aaa57610aa9610759565b5b5f610ab7848285016107a7565b91505092915050565b610ac9816107bb565b82525050565b5f602082019050610ae25f830184610ac0565b92915050565b7f4e487b71000000000000000000000000000000000000000000000000000000005f52602260045260245ffd5b5f6002820490506001821680610b2c57607f821691505b602082108103610b3f57610b3e610ae8565b5b50919050565b5f82825260208201905092915050565b7f5573657220686173206e6f74207375626d6974746564204b59430000000000005f82015250565b5f610b89601a83610b45565b9150610b9482610b55565b602082019050919050565b5f6020820190508181035f830152610bb681610b7d565b9050919050565b7f4e616d65206973207265717569726564000000000000000000000000000000005f82015250565b5f610bf1601083610b45565b9150610bfc82610bbd565b602082019050919050565b5f6020820190508181035f830152610c1e81610be5565b9050919050565b7f456d61696c2069732072657175697265640000000000000000000000000000005f82015250565b5f610c59601183610b45565b9150610c6482610c25565b602082019050919050565b5f6020820190508181035f830152610c8681610c4d565b9050919050565b7f4e6174696f6e616c6974792069732072657175697265640000000000000000005f82015250565b5f610cc1601783610b45565b9150610ccc82610c8d565b602082019050919050565b5f6020820190508181035f830152610cee81610cb5565b9050919050565b7f4944204e756d62657220697320726571756972656400000000000000000000005f82015250565b5f610d29601583610b45565b9150610d3482610cf5565b602082019050919050565b5f6020820190508181035f830152610d5681610d1d565b9050919050565b7f494420496d6167652069732072657175697265640000000000000000000000005f82015250565b5f610d91601483610b45565b9150610d9c82610d5d565b602082019050919050565b5f6020820190508181035f830152610dbe81610d85565b9050919050565b5f81519050919050565b5f819050815f5260205f209050919050565b5f6020601f8301049050919050565b5f82821b905092915050565b5f60088302610e2b7fffffffffffffffffffffffffffffffffffffffffffffffffffffffffffffffff82610df0565b610e358683610df0565b95508019841693508086168417925050509392505050565b5f819050919050565b5f819050919050565b5f610e79610e74610e6f84610e4d565b610e56565b610e4d565b9050919050565b5f819050919050565b610e9283610e5f565b610ea6610e9e82610e80565b848454610dfc565b825550505050565b5f90565b610eba610eae565b610ec5818484610e89565b505050565b5b81811015610ee857610edd5f82610eb2565b600181019050610ecb565b5050565b601f821115610f2d57610efe81610dcf565b610f0784610de1565b81016020851015610f16578190505b610f2a610f2285610de1565b830182610eca565b50505b505050565b5f82821c905092915050565b5f610f4d5f1984600802610f32565b1980831691505092915050565b5f610f658383610f3e565b9150826002028217905092915050565b610f7e82610dc5565b67ffffffffffffffff811115610f9757610f9661086e565b5b610fa18254610b15565b610fac828285610eec565b5f60209050601f831160018114610fdd575f8415610fcb578287015190505b610fd58582610f5a565b86555061103c565b601f198416610feb86610dcf565b5f5b8281101561101257848901518255600182019150602085019450602081019050610fed565b8683101561102f578489015161102b601f891682610f3e565b8355505b6001600288020188555050505b505050505050565b8281835e5f83830152505050565b5f61105c82610dc5565b6110668185610b45565b9350611076818560208601611044565b61107f8161085e565b840191505092915050565b5f6040820190508181035f8301526110a28185611052565b905081810360208301526110b68184611052565b9050939250505056fea26469706673582212209d813b5eed0959dbcd55798acf76a5fbe344969575715f6090202dd8fd9b101064736f6c634300081a0033",
			"opcodes": "PUSH1 0x80 PUSH1 0x40 MSTORE CALLVALUE DUP1 ISZERO PUSH2 0xF JUMPI PUSH0 DUP1 REVERT JUMPDEST POP CALLER PUSH0 PUSH20 0xFFFFFFFFFFFFFFFFFFFFFFFFFFFFFFFFFFFFFFFF AND DUP2 PUSH20 0xFFFFFFFFFFFFFFFFFFFFFFFFFFFFFFFFFFFFFFFF AND SUB PUSH2 0x81 JUMPI PUSH0 PUSH1 0x40 MLOAD PUSH32 0x1E4FBDF700000000000000000000000000000000000000000000000000000000 DUP2 MSTORE PUSH1 0x4 ADD PUSH2 0x78 SWAP2 SWAP1 PUSH2 0x196 JUMP JUMPDEST PUSH1 0x40 MLOAD DUP1 SWAP2 SUB SWAP1 REVERT JUMPDEST PUSH2 0x90 DUP2 PUSH2 0x96 PUSH1 0x20 SHL PUSH1 0x20 SHR JUMP JUMPDEST POP PUSH2 0x1AF JUMP JUMPDEST PUSH0 DUP1 PUSH0 SWAP1 SLOAD SWAP1 PUSH2 0x100 EXP SWAP1 DIV PUSH20 0xFFFFFFFFFFFFFFFFFFFFFFFFFFFFFFFFFFFFFFFF AND SWAP1 POP DUP2 PUSH0 DUP1 PUSH2 0x100 EXP DUP2 SLOAD DUP2 PUSH20 0xFFFFFFFFFFFFFFFFFFFFFFFFFFFFFFFFFFFFFFFF MUL NOT AND SWAP1 DUP4 PUSH20 0xFFFFFFFFFFFFFFFFFFFFFFFFFFFFFFFFFFFFFFFF AND MUL OR SWAP1 SSTORE POP DUP2 PUSH20 0xFFFFFFFFFFFFFFFFFFFFFFFFFFFFFFFFFFFFFFFF AND DUP2 PUSH20 0xFFFFFFFFFFFFFFFFFFFFFFFFFFFFFFFFFFFFFFFF AND PUSH32 0x8BE0079C531659141344CD1FD0A4F28419497F9722A3DAAFE3B4186F6B6457E0 PUSH1 0x40 MLOAD PUSH1 0x40 MLOAD DUP1 SWAP2 SUB SWAP1 LOG3 POP POP JUMP JUMPDEST PUSH0 PUSH20 0xFFFFFFFFFFFFFFFFFFFFFFFFFFFFFFFFFFFFFFFF DUP3 AND SWAP1 POP SWAP2 SWAP1 POP JUMP JUMPDEST PUSH0 PUSH2 0x180 DUP3 PUSH2 0x157 JUMP JUMPDEST SWAP1 POP SWAP2 SWAP1 POP JUMP JUMPDEST PUSH2 0x190 DUP2 PUSH2 0x176 JUMP JUMPDEST DUP3 MSTORE POP POP JUMP JUMPDEST PUSH0 PUSH1 0x20 DUP3 ADD SWAP1 POP PUSH2 0x1A9 PUSH0 DUP4 ADD DUP5 PUSH2 0x187 JUMP JUMPDEST SWAP3 SWAP2 POP POP JUMP JUMPDEST PUSH2 0x10F5 DUP1 PUSH2 0x1BC PUSH0 CODECOPY PUSH0 RETURN INVALID PUSH1 0x80 PUSH1 0x40 MSTORE CALLVALUE DUP1 ISZERO PUSH2 0xF JUMPI PUSH0 DUP1 REVERT JUMPDEST POP PUSH1 0x4 CALLDATASIZE LT PUSH2 0x60 JUMPI PUSH0 CALLDATALOAD PUSH1 0xE0 SHR DUP1 PUSH4 0x474ADB8F EQ PUSH2 0x64 JUMPI DUP1 PUSH4 0x715018A6 EQ PUSH2 0x80 JUMPI DUP1 PUSH4 0x8DA5CB5B EQ PUSH2 0x8A JUMPI DUP1 PUSH4 0xA9FABBD2 EQ PUSH2 0xA8 JUMPI DUP1 PUSH4 0xACE417E0 EQ PUSH2 0xC4 JUMPI DUP1 PUSH4 0xF2FDE38B EQ PUSH2 0xF4 JUMPI JUMPDEST PUSH0 DUP1 REVERT JUMPDEST PUSH2 0x7E PUSH1 0x4 DUP1 CALLDATASIZE SUB DUP2 ADD SWAP1 PUSH2 0x79 SWAP2 SWAP1 PUSH2 0x7F0 JUMP JUMPDEST PUSH2 0x110 JUMP JUMPDEST STOP JUMPDEST PUSH2 0x88 PUSH2 0x24E JUMP JUMPDEST STOP JUMPDEST PUSH2 0x92 PUSH2 0x261 JUMP JUMPDEST PUSH1 0x40 MLOAD PUSH2 0x9F SWAP2 SWAP1 PUSH2 0x83D JUMP JUMPDEST PUSH1 0x40 MLOAD DUP1 SWAP2 SUB SWAP1 RETURN JUMPDEST PUSH2 0xC2 PUSH1 0x4 DUP1 CALLDATASIZE SUB DUP2 ADD SWAP1 PUSH2 0xBD SWAP2 SWAP1 PUSH2 0x992 JUMP JUMPDEST PUSH2 0x288 JUMP JUMPDEST STOP JUMPDEST PUSH2 0xDE PUSH1 0x4 DUP1 CALLDATASIZE SUB DUP2 ADD SWAP1 PUSH2 0xD9 SWAP2 SWAP1 PUSH2 0xA95 JUMP JUMPDEST PUSH2 0x528 JUMP JUMPDEST PUSH1 0x40 MLOAD PUSH2 0xEB SWAP2 SWAP1 PUSH2 0xACF JUMP JUMPDEST PUSH1 0x40 MLOAD DUP1 SWAP2 SUB SWAP1 RETURN JUMPDEST PUSH2 0x10E PUSH1 0x4 DUP1 CALLDATASIZE SUB DUP2 ADD SWAP1 PUSH2 0x109 SWAP2 SWAP1 PUSH2 0xA95 JUMP JUMPDEST PUSH2 0x57D JUMP JUMPDEST STOP JUMPDEST PUSH2 0x118 PUSH2 0x601 JUMP JUMPDEST PUSH0 PUSH1 0x1 PUSH0 DUP5 PUSH20 0xFFFFFFFFFFFFFFFFFFFFFFFFFFFFFFFFFFFFFFFF AND PUSH20 0xFFFFFFFFFFFFFFFFFFFFFFFFFFFFFFFFFFFFFFFF AND DUP2 MSTORE PUSH1 0x20 ADD SWAP1 DUP2 MSTORE PUSH1 0x20 ADD PUSH0 KECCAK256 PUSH0 ADD DUP1 SLOAD PUSH2 0x163 SWAP1 PUSH2 0xB15 JUMP JUMPDEST SWAP1 POP GT PUSH2 0x1A5 JUMPI PUSH1 0x40 MLOAD PUSH32 0x8C379A000000000000000000000000000000000000000000000000000000000 DUP2 MSTORE PUSH1 0x4 ADD PUSH2 0x19C SWAP1 PUSH2 0xB9F JUMP JUMPDEST PUSH1 0x40 MLOAD DUP1 SWAP2 SUB SWAP1 REVERT JUMPDEST DUP1 PUSH1 0x1 PUSH0 DUP5 PUSH20 0xFFFFFFFFFFFFFFFFFFFFFFFFFFFFFFFFFFFFFFFF AND PUSH20 0xFFFFFFFFFFFFFFFFFFFFFFFFFFFFFFFFFFFFFFFF AND DUP2 MSTORE PUSH1 0x20 ADD SWAP1 DUP2 MSTORE PUSH1 0x20 ADD PUSH0 KECCAK256 PUSH1 0x5 ADD PUSH0 PUSH2 0x100 EXP DUP2 SLOAD DUP2 PUSH1 0xFF MUL NOT AND SWAP1 DUP4 ISZERO ISZERO MUL OR SWAP1 SSTORE POP DUP2 PUSH20 0xFFFFFFFFFFFFFFFFFFFFFFFFFFFFFFFFFFFFFFFF AND PUSH32 0x7A02EB9B107B2AB713E88C3CD7AC538E5C21B689D0F1B1F22367578B28FC5D09 DUP3 PUSH1 0x40 MLOAD PUSH2 0x242 SWAP2 SWAP1 PUSH2 0xACF JUMP JUMPDEST PUSH1 0x40 MLOAD DUP1 SWAP2 SUB SWAP1 LOG2 POP POP JUMP JUMPDEST PUSH2 0x256 PUSH2 0x601 JUMP JUMPDEST PUSH2 0x25F PUSH0 PUSH2 0x688 JUMP JUMPDEST JUMP JUMPDEST PUSH0 DUP1 PUSH0 SWAP1 SLOAD SWAP1 PUSH2 0x100 EXP SWAP1 DIV PUSH20 0xFFFFFFFFFFFFFFFFFFFFFFFFFFFFFFFFFFFFFFFF AND SWAP1 POP SWAP1 JUMP JUMPDEST PUSH0 DUP6 MLOAD GT PUSH2 0x2CB JUMPI PUSH1 0x40 MLOAD PUSH32 0x8C379A000000000000000000000000000000000000000000000000000000000 DUP2 MSTORE PUSH1 0x4 ADD PUSH2 0x2C2 SWAP1 PUSH2 0xC07 JUMP JUMPDEST PUSH1 0x40 MLOAD DUP1 SWAP2 SUB SWAP1 REVERT JUMPDEST PUSH0 DUP5 MLOAD GT PUSH2 0x30E JUMPI PUSH1 0x40 MLOAD PUSH32 0x8C379A000000000000000000000000000000000000000000000000000000000 DUP2 MSTORE PUSH1 0x4 ADD PUSH2 0x305 SWAP1 PUSH2 0xC6F JUMP JUMPDEST PUSH1 0x40 MLOAD DUP1 SWAP2 SUB SWAP1 REVERT JUMPDEST PUSH0 DUP4 MLOAD GT PUSH2 0x351 JUMPI PUSH1 0x40 MLOAD PUSH32 0x8C379A000000000000000000000000000000000000000000000000000000000 DUP2 MSTORE PUSH1 0x4 ADD PUSH2 0x348 SWAP1 PUSH2 0xCD7 JUMP JUMPDEST PUSH1 0x40 MLOAD DUP1 SWAP2 SUB SWAP1 REVERT JUMPDEST PUSH0 DUP3 MLOAD GT PUSH2 0x394 JUMPI PUSH1 0x40 MLOAD PUSH32 0x8C379A000000000000000000000000000000000000000000000000000000000 DUP2 MSTORE PUSH1 0x4 ADD PUSH2 0x38B SWAP1 PUSH2 0xD3F JUMP JUMPDEST PUSH1 0x40 MLOAD DUP1 SWAP2 SUB SWAP1 REVERT JUMPDEST PUSH0 DUP2 MLOAD GT PUSH2 0x3D7 JUMPI PUSH1 0x40 MLOAD PUSH32 0x8C379A000000000000000000000000000000000000000000000000000000000 DUP2 MSTORE PUSH1 0x4 ADD PUSH2 0x3CE SWAP1 PUSH2 0xDA7 JUMP JUMPDEST PUSH1 0x40 MLOAD DUP1 SWAP2 SUB SWAP1 REVERT JUMPDEST PUSH1 0x40 MLOAD DUP1 PUSH1 0xC0 ADD PUSH1 0x40 MSTORE DUP1 DUP7 DUP2 MSTORE PUSH1 0x20 ADD DUP6 DUP2 MSTORE PUSH1 0x20 ADD DUP5 DUP2 MSTORE PUSH1 0x20 ADD DUP4 DUP2 MSTORE PUSH1 0x20 ADD DUP3 DUP2 MSTORE PUSH1 0x20 ADD PUSH0 ISZERO ISZERO DUP2 MSTORE POP PUSH1 0x1 PUSH0 CALLER PUSH20 0xFFFFFFFFFFFFFFFFFFFFFFFFFFFFFFFFFFFFFFFF AND PUSH20 0xFFFFFFFFFFFFFFFFFFFFFFFFFFFFFFFFFFFFFFFF AND DUP2 MSTORE PUSH1 0x20 ADD SWAP1 DUP2 MSTORE PUSH1 0x20 ADD PUSH0 KECCAK256 PUSH0 DUP3 ADD MLOAD DUP2 PUSH0 ADD SWAP1 DUP2 PUSH2 0x456 SWAP2 SWAP1 PUSH2 0xF75 JUMP JUMPDEST POP PUSH1 0x20 DUP3 ADD MLOAD DUP2 PUSH1 0x1 ADD SWAP1 DUP2 PUSH2 0x46C SWAP2 SWAP1 PUSH2 0xF75 JUMP JUMPDEST POP PUSH1 0x40 DUP3 ADD MLOAD DUP2 PUSH1 0x2 ADD SWAP1 DUP2 PUSH2 0x482 SWAP2 SWAP1 PUSH2 0xF75 JUMP JUMPDEST POP PUSH1 0x60 DUP3 ADD MLOAD DUP2 PUSH1 0x3 ADD SWAP1 DUP2 PUSH2 0x498 SWAP2 SWAP1 PUSH2 0xF75 JUMP JUMPDEST POP PUSH1 0x80 DUP3 ADD MLOAD DUP2 PUSH1 0x4 ADD SWAP1 DUP2 PUSH2 0x4AE SWAP2 SWAP1 PUSH2 0xF75 JUMP JUMPDEST POP PUSH1 0xA0 DUP3 ADD MLOAD DUP2 PUSH1 0x5 ADD PUSH0 PUSH2 0x100 EXP DUP2 SLOAD DUP2 PUSH1 0xFF MUL NOT AND SWAP1 DUP4 ISZERO ISZERO MUL OR SWAP1 SSTORE POP SWAP1 POP POP CALLER PUSH20 0xFFFFFFFFFFFFFFFFFFFFFFFFFFFFFFFFFFFFFFFF AND PUSH32 0x74AEB3A73C6CEBE2DDFB681C384E0117CC8DD5E93900B3B1507DEE33C2603841 DUP7 DUP6 PUSH1 0x40 MLOAD PUSH2 0x519 SWAP3 SWAP2 SWAP1 PUSH2 0x108A JUMP JUMPDEST PUSH1 0x40 MLOAD DUP1 SWAP2 SUB SWAP1 LOG2 POP POP POP POP POP JUMP JUMPDEST PUSH0 PUSH1 0x1 PUSH0 DUP4 PUSH20 0xFFFFFFFFFFFFFFFFFFFFFFFFFFFFFFFFFFFFFFFF AND PUSH20 0xFFFFFFFFFFFFFFFFFFFFFFFFFFFFFFFFFFFFFFFF AND DUP2 MSTORE PUSH1 0x20 ADD SWAP1 DUP2 MSTORE PUSH1 0x20 ADD PUSH0 KECCAK256 PUSH1 0x5 ADD PUSH0 SWAP1 SLOAD SWAP1 PUSH2 0x100 EXP SWAP1 DIV PUSH1 0xFF AND SWAP1 POP SWAP2 SWAP1 POP JUMP JUMPDEST PUSH2 0x585 PUSH2 0x601 JUMP JUMPDEST PUSH0 PUSH20 0xFFFFFFFFFFFFFFFFFFFFFFFFFFFFFFFFFFFFFFFF AND DUP2 PUSH20 0xFFFFFFFFFFFFFFFFFFFFFFFFFFFFFFFFFFFFFFFF AND SUB PUSH2 0x5F5 JUMPI PUSH0 PUSH1 0x40 MLOAD PUSH32 0x1E4FBDF700000000000000000000000000000000000000000000000000000000 DUP2 MSTORE PUSH1 0x4 ADD PUSH2 0x5EC SWAP2 SWAP1 PUSH2 0x83D JUMP JUMPDEST PUSH1 0x40 MLOAD DUP1 SWAP2 SUB SWAP1 REVERT JUMPDEST PUSH2 0x5FE DUP2 PUSH2 0x688 JUMP JUMPDEST POP JUMP JUMPDEST PUSH2 0x609 PUSH2 0x749 JUMP JUMPDEST PUSH20 0xFFFFFFFFFFFFFFFFFFFFFFFFFFFFFFFFFFFFFFFF AND PUSH2 0x627 PUSH2 0x261 JUMP JUMPDEST PUSH20 0xFFFFFFFFFFFFFFFFFFFFFFFFFFFFFFFFFFFFFFFF AND EQ PUSH2 0x686 JUMPI PUSH2 0x64A PUSH2 0x749 JUMP JUMPDEST PUSH1 0x40 MLOAD PUSH32 0x118CDAA700000000000000000000000000000000000000000000000000000000 DUP2 MSTORE PUSH1 0x4 ADD PUSH2 0x67D SWAP2 SWAP1 PUSH2 0x83D JUMP JUMPDEST PUSH1 0x40 MLOAD DUP1 SWAP2 SUB SWAP1 REVERT JUMPDEST JUMP JUMPDEST PUSH0 DUP1 PUSH0 SWAP1 SLOAD SWAP1 PUSH2 0x100 EXP SWAP1 DIV PUSH20 0xFFFFFFFFFFFFFFFFFFFFFFFFFFFFFFFFFFFFFFFF AND SWAP1 POP DUP2 PUSH0 DUP1 PUSH2 0x100 EXP DUP2 SLOAD DUP2 PUSH20 0xFFFFFFFFFFFFFFFFFFFFFFFFFFFFFFFFFFFFFFFF MUL NOT AND SWAP1 DUP4 PUSH20 0xFFFFFFFFFFFFFFFFFFFFFFFFFFFFFFFFFFFFFFFF AND MUL OR SWAP1 SSTORE POP DUP2 PUSH20 0xFFFFFFFFFFFFFFFFFFFFFFFFFFFFFFFFFFFFFFFF AND DUP2 PUSH20 0xFFFFFFFFFFFFFFFFFFFFFFFFFFFFFFFFFFFFFFFF AND PUSH32 0x8BE0079C531659141344CD1FD0A4F28419497F9722A3DAAFE3B4186F6B6457E0 PUSH1 0x40 MLOAD PUSH1 0x40 MLOAD DUP1 SWAP2 SUB SWAP1 LOG3 POP POP JUMP JUMPDEST PUSH0 CALLER SWAP1 POP SWAP1 JUMP JUMPDEST PUSH0 PUSH1 0x40 MLOAD SWAP1 POP SWAP1 JUMP JUMPDEST PUSH0 DUP1 REVERT JUMPDEST PUSH0 DUP1 REVERT JUMPDEST PUSH0 PUSH20 0xFFFFFFFFFFFFFFFFFFFFFFFFFFFFFFFFFFFFFFFF DUP3 AND SWAP1 POP SWAP2 SWAP1 POP JUMP JUMPDEST PUSH0 PUSH2 0x78A DUP3 PUSH2 0x761 JUMP JUMPDEST SWAP1 POP SWAP2 SWAP1 POP JUMP JUMPDEST PUSH2 0x79A DUP2 PUSH2 0x780 JUMP JUMPDEST DUP2 EQ PUSH2 0x7A4 JUMPI PUSH0 DUP1 REVERT JUMPDEST POP JUMP JUMPDEST PUSH0 DUP2 CALLDATALOAD SWAP1 POP PUSH2 0x7B5 DUP2 PUSH2 0x791 JUMP JUMPDEST SWAP3 SWAP2 POP POP JUMP JUMPDEST PUSH0 DUP2 ISZERO ISZERO SWAP1 POP SWAP2 SWAP1 POP JUMP JUMPDEST PUSH2 0x7CF DUP2 PUSH2 0x7BB JUMP JUMPDEST DUP2 EQ PUSH2 0x7D9 JUMPI PUSH0 DUP1 REVERT JUMPDEST POP JUMP JUMPDEST PUSH0 DUP2 CALLDATALOAD SWAP1 POP PUSH2 0x7EA DUP2 PUSH2 0x7C6 JUMP JUMPDEST SWAP3 SWAP2 POP POP JUMP JUMPDEST PUSH0 DUP1 PUSH1 0x40 DUP4 DUP6 SUB SLT ISZERO PUSH2 0x806 JUMPI PUSH2 0x805 PUSH2 0x759 JUMP JUMPDEST JUMPDEST PUSH0 PUSH2 0x813 DUP6 DUP3 DUP7 ADD PUSH2 0x7A7 JUMP JUMPDEST SWAP3 POP POP PUSH1 0x20 PUSH2 0x824 DUP6 DUP3 DUP7 ADD PUSH2 0x7DC JUMP JUMPDEST SWAP2 POP POP SWAP3 POP SWAP3 SWAP1 POP JUMP JUMPDEST PUSH2 0x837 DUP2 PUSH2 0x780 JUMP JUMPDEST DUP3 MSTORE POP POP JUMP JUMPDEST PUSH0 PUSH1 0x20 DUP3 ADD SWAP1 POP PUSH2 0x850 PUSH0 DUP4 ADD DUP5 PUSH2 0x82E JUMP JUMPDEST SWAP3 SWAP2 POP POP JUMP JUMPDEST PUSH0 DUP1 REVERT JUMPDEST PUSH0 DUP1 REVERT JUMPDEST PUSH0 PUSH1 0x1F NOT PUSH1 0x1F DUP4 ADD AND SWAP1 POP SWAP2 SWAP1 POP JUMP JUMPDEST PUSH32 0x4E487B7100000000000000000000000000000000000000000000000000000000 PUSH0 MSTORE PUSH1 0x41 PUSH1 0x4 MSTORE PUSH1 0x24 PUSH0 REVERT JUMPDEST PUSH2 0x8A4 DUP3 PUSH2 0x85E JUMP JUMPDEST DUP2 ADD DUP2 DUP2 LT PUSH8 0xFFFFFFFFFFFFFFFF DUP3 GT OR ISZERO PUSH2 0x8C3 JUMPI PUSH2 0x8C2 PUSH2 0x86E JUMP JUMPDEST JUMPDEST DUP1 PUSH1 0x40 MSTORE POP POP POP JUMP JUMPDEST PUSH0 PUSH2 0x8D5 PUSH2 0x750 JUMP JUMPDEST SWAP1 POP PUSH2 0x8E1 DUP3 DUP3 PUSH2 0x89B JUMP JUMPDEST SWAP2 SWAP1 POP JUMP JUMPDEST PUSH0 PUSH8 0xFFFFFFFFFFFFFFFF DUP3 GT ISZERO PUSH2 0x900 JUMPI PUSH2 0x8FF PUSH2 0x86E JUMP JUMPDEST JUMPDEST PUSH2 0x909 DUP3 PUSH2 0x85E JUMP JUMPDEST SWAP1 POP PUSH1 0x20 DUP2 ADD SWAP1 POP SWAP2 SWAP1 POP JUMP JUMPDEST DUP3 DUP2 DUP4 CALLDATACOPY PUSH0 DUP4 DUP4 ADD MSTORE POP POP POP JUMP JUMPDEST PUSH0 PUSH2 0x936 PUSH2 0x931 DUP5 PUSH2 0x8E6 JUMP JUMPDEST PUSH2 0x8CC JUMP JUMPDEST SWAP1 POP DUP3 DUP2 MSTORE PUSH1 0x20 DUP2 ADD DUP5 DUP5 DUP5 ADD GT ISZERO PUSH2 0x952 JUMPI PUSH2 0x951 PUSH2 0x85A JUMP JUMPDEST JUMPDEST PUSH2 0x95D DUP5 DUP3 DUP6 PUSH2 0x916 JUMP JUMPDEST POP SWAP4 SWAP3 POP POP POP JUMP JUMPDEST PUSH0 DUP3 PUSH1 0x1F DUP4 ADD SLT PUSH2 0x979 JUMPI PUSH2 0x978 PUSH2 0x856 JUMP JUMPDEST JUMPDEST DUP2 CALLDATALOAD PUSH2 0x989 DUP5 DUP3 PUSH1 0x20 DUP7 ADD PUSH2 0x924 JUMP JUMPDEST SWAP2 POP POP SWAP3 SWAP2 POP POP JUMP JUMPDEST PUSH0 DUP1 PUSH0 DUP1 PUSH0 PUSH1 0xA0 DUP7 DUP9 SUB SLT ISZERO PUSH2 0x9AB JUMPI PUSH2 0x9AA PUSH2 0x759 JUMP JUMPDEST JUMPDEST PUSH0 DUP7 ADD CALLDATALOAD PUSH8 0xFFFFFFFFFFFFFFFF DUP2 GT ISZERO PUSH2 0x9C8 JUMPI PUSH2 0x9C7 PUSH2 0x75D JUMP JUMPDEST JUMPDEST PUSH2 0x9D4 DUP9 DUP3 DUP10 ADD PUSH2 0x965 JUMP JUMPDEST SWAP6 POP POP PUSH1 0x20 DUP7 ADD CALLDATALOAD PUSH8 0xFFFFFFFFFFFFFFFF DUP2 GT ISZERO PUSH2 0x9F5 JUMPI PUSH2 0x9F4 PUSH2 0x75D JUMP JUMPDEST JUMPDEST PUSH2 0xA01 DUP9 DUP3 DUP10 ADD PUSH2 0x965 JUMP JUMPDEST SWAP5 POP POP PUSH1 0x40 DUP7 ADD CALLDATALOAD PUSH8 0xFFFFFFFFFFFFFFFF DUP2 GT ISZERO PUSH2 0xA22 JUMPI PUSH2 0xA21 PUSH2 0x75D JUMP JUMPDEST JUMPDEST PUSH2 0xA2E DUP9 DUP3 DUP10 ADD PUSH2 0x965 JUMP JUMPDEST SWAP4 POP POP PUSH1 0x60 DUP7 ADD CALLDATALOAD PUSH8 0xFFFFFFFFFFFFFFFF DUP2 GT ISZERO PUSH2 0xA4F JUMPI PUSH2 0xA4E PUSH2 0x75D JUMP JUMPDEST JUMPDEST PUSH2 0xA5B DUP9 DUP3 DUP10 ADD PUSH2 0x965 JUMP JUMPDEST SWAP3 POP POP PUSH1 0x80 DUP7 ADD CALLDATALOAD PUSH8 0xFFFFFFFFFFFFFFFF DUP2 GT ISZERO PUSH2 0xA7C JUMPI PUSH2 0xA7B PUSH2 0x75D JUMP JUMPDEST JUMPDEST PUSH2 0xA88 DUP9 DUP3 DUP10 ADD PUSH2 0x965 JUMP JUMPDEST SWAP2 POP POP SWAP3 SWAP6 POP SWAP3 SWAP6 SWAP1 SWAP4 POP JUMP JUMPDEST PUSH0 PUSH1 0x20 DUP3 DUP5 SUB SLT ISZERO PUSH2 0xAAA JUMPI PUSH2 0xAA9 PUSH2 0x759 JUMP JUMPDEST JUMPDEST PUSH0 PUSH2 0xAB7 DUP5 DUP3 DUP6 ADD PUSH2 0x7A7 JUMP JUMPDEST SWAP2 POP POP SWAP3 SWAP2 POP POP JUMP JUMPDEST PUSH2 0xAC9 DUP2 PUSH2 0x7BB JUMP JUMPDEST DUP3 MSTORE POP POP JUMP JUMPDEST PUSH0 PUSH1 0x20 DUP3 ADD SWAP1 POP PUSH2 0xAE2 PUSH0 DUP4 ADD DUP5 PUSH2 0xAC0 JUMP JUMPDEST SWAP3 SWAP2 POP POP JUMP JUMPDEST PUSH32 0x4E487B7100000000000000000000000000000000000000000000000000000000 PUSH0 MSTORE PUSH1 0x22 PUSH1 0x4 MSTORE PUSH1 0x24 PUSH0 REVERT JUMPDEST PUSH0 PUSH1 0x2 DUP3 DIV SWAP1 POP PUSH1 0x1 DUP3 AND DUP1 PUSH2 0xB2C JUMPI PUSH1 0x7F DUP3 AND SWAP2 POP JUMPDEST PUSH1 0x20 DUP3 LT DUP2 SUB PUSH2 0xB3F JUMPI PUSH2 0xB3E PUSH2 0xAE8 JUMP JUMPDEST JUMPDEST POP SWAP2 SWAP1 POP JUMP JUMPDEST PUSH0 DUP3 DUP3 MSTORE PUSH1 0x20 DUP3 ADD SWAP1 POP SWAP3 SWAP2 POP POP JUMP JUMPDEST PUSH32 0x5573657220686173206E6F74207375626D6974746564204B5943000000000000 PUSH0 DUP3 ADD MSTORE POP JUMP JUMPDEST PUSH0 PUSH2 0xB89 PUSH1 0x1A DUP4 PUSH2 0xB45 JUMP JUMPDEST SWAP2 POP PUSH2 0xB94 DUP3 PUSH2 0xB55 JUMP JUMPDEST PUSH1 0x20 DUP3 ADD SWAP1 POP SWAP2 SWAP1 POP JUMP JUMPDEST PUSH0 PUSH1 0x20 DUP3 ADD SWAP1 POP DUP2 DUP2 SUB PUSH0 DUP4 ADD MSTORE PUSH2 0xBB6 DUP2 PUSH2 0xB7D JUMP JUMPDEST SWAP1 POP SWAP2 SWAP1 POP JUMP JUMPDEST PUSH32 0x4E616D6520697320726571756972656400000000000000000000000000000000 PUSH0 DUP3 ADD MSTORE POP JUMP JUMPDEST PUSH0 PUSH2 0xBF1 PUSH1 0x10 DUP4 PUSH2 0xB45 JUMP JUMPDEST SWAP2 POP PUSH2 0xBFC DUP3 PUSH2 0xBBD JUMP JUMPDEST PUSH1 0x20 DUP3 ADD SWAP1 POP SWAP2 SWAP1 POP JUMP JUMPDEST PUSH0 PUSH1 0x20 DUP3 ADD SWAP1 POP DUP2 DUP2 SUB PUSH0 DUP4 ADD MSTORE PUSH2 0xC1E DUP2 PUSH2 0xBE5 JUMP JUMPDEST SWAP1 POP SWAP2 SWAP1 POP JUMP JUMPDEST PUSH32 0x456D61696C206973207265717569726564000000000000000000000000000000 PUSH0 DUP3 ADD MSTORE POP JUMP JUMPDEST PUSH0 PUSH2 0xC59 PUSH1 0x11 DUP4 PUSH2 0xB45 JUMP JUMPDEST SWAP2 POP PUSH2 0xC64 DUP3 PUSH2 0xC25 JUMP JUMPDEST PUSH1 0x20 DUP3 ADD SWAP1 POP SWAP2 SWAP1 POP JUMP JUMPDEST PUSH0 PUSH1 0x20 DUP3 ADD SWAP1 POP DUP2 DUP2 SUB PUSH0 DUP4 ADD MSTORE PUSH2 0xC86 DUP2 PUSH2 0xC4D JUMP JUMPDEST SWAP1 POP SWAP2 SWAP1 POP JUMP JUMPDEST PUSH32 0x4E6174696F6E616C697479206973207265717569726564000000000000000000 PUSH0 DUP3 ADD MSTORE POP JUMP JUMPDEST PUSH0 PUSH2 0xCC1 PUSH1 0x17 DUP4 PUSH2 0xB45 JUMP JUMPDEST SWAP2 POP PUSH2 0xCCC DUP3 PUSH2 0xC8D JUMP JUMPDEST PUSH1 0x20 DUP3 ADD SWAP1 POP SWAP2 SWAP1 POP JUMP JUMPDEST PUSH0 PUSH1 0x20 DUP3 ADD SWAP1 POP DUP2 DUP2 SUB PUSH0 DUP4 ADD MSTORE PUSH2 0xCEE DUP2 PUSH2 0xCB5 JUMP JUMPDEST SWAP1 POP SWAP2 SWAP1 POP JUMP JUMPDEST PUSH32 0x4944204E756D6265722069732072657175697265640000000000000000000000 PUSH0 DUP3 ADD MSTORE POP JUMP JUMPDEST PUSH0 PUSH2 0xD29 PUSH1 0x15 DUP4 PUSH2 0xB45 JUMP JUMPDEST SWAP2 POP PUSH2 0xD34 DUP3 PUSH2 0xCF5 JUMP JUMPDEST PUSH1 0x20 DUP3 ADD SWAP1 POP SWAP2 SWAP1 POP JUMP JUMPDEST PUSH0 PUSH1 0x20 DUP3 ADD SWAP1 POP DUP2 DUP2 SUB PUSH0 DUP4 ADD MSTORE PUSH2 0xD56 DUP2 PUSH2 0xD1D JUMP JUMPDEST SWAP1 POP SWAP2 SWAP1 POP JUMP JUMPDEST PUSH32 0x494420496D616765206973207265717569726564000000000000000000000000 PUSH0 DUP3 ADD MSTORE POP JUMP JUMPDEST PUSH0 PUSH2 0xD91 PUSH1 0x14 DUP4 PUSH2 0xB45 JUMP JUMPDEST SWAP2 POP PUSH2 0xD9C DUP3 PUSH2 0xD5D JUMP JUMPDEST PUSH1 0x20 DUP3 ADD SWAP1 POP SWAP2 SWAP1 POP JUMP JUMPDEST PUSH0 PUSH1 0x20 DUP3 ADD SWAP1 POP DUP2 DUP2 SUB PUSH0 DUP4 ADD MSTORE PUSH2 0xDBE DUP2 PUSH2 0xD85 JUMP JUMPDEST SWAP1 POP SWAP2 SWAP1 POP JUMP JUMPDEST PUSH0 DUP2 MLOAD SWAP1 POP SWAP2 SWAP1 POP JUMP JUMPDEST PUSH0 DUP2 SWAP1 POP DUP2 PUSH0 MSTORE PUSH1 0x20 PUSH0 KECCAK256 SWAP1 POP SWAP2 SWAP1 POP JUMP JUMPDEST PUSH0 PUSH1 0x20 PUSH1 0x1F DUP4 ADD DIV SWAP1 POP SWAP2 SWAP1 POP JUMP JUMPDEST PUSH0 DUP3 DUP3 SHL SWAP1 POP SWAP3 SWAP2 POP POP JUMP JUMPDEST PUSH0 PUSH1 0x8 DUP4 MUL PUSH2 0xE2B PUSH32 0xFFFFFFFFFFFFFFFFFFFFFFFFFFFFFFFFFFFFFFFFFFFFFFFFFFFFFFFFFFFFFFFF DUP3 PUSH2 0xDF0 JUMP JUMPDEST PUSH2 0xE35 DUP7 DUP4 PUSH2 0xDF0 JUMP JUMPDEST SWAP6 POP DUP1 NOT DUP5 AND SWAP4 POP DUP1 DUP7 AND DUP5 OR SWAP3 POP POP POP SWAP4 SWAP3 POP POP POP JUMP JUMPDEST PUSH0 DUP2 SWAP1 POP SWAP2 SWAP1 POP JUMP JUMPDEST PUSH0 DUP2 SWAP1 POP SWAP2 SWAP1 POP JUMP JUMPDEST PUSH0 PUSH2 0xE79 PUSH2 0xE74 PUSH2 0xE6F DUP5 PUSH2 0xE4D JUMP JUMPDEST PUSH2 0xE56 JUMP JUMPDEST PUSH2 0xE4D JUMP JUMPDEST SWAP1 POP SWAP2 SWAP1 POP JUMP JUMPDEST PUSH0 DUP2 SWAP1 POP SWAP2 SWAP1 POP JUMP JUMPDEST PUSH2 0xE92 DUP4 PUSH2 0xE5F JUMP JUMPDEST PUSH2 0xEA6 PUSH2 0xE9E DUP3 PUSH2 0xE80 JUMP JUMPDEST DUP5 DUP5 SLOAD PUSH2 0xDFC JUMP JUMPDEST DUP3 SSTORE POP POP POP POP JUMP JUMPDEST PUSH0 SWAP1 JUMP JUMPDEST PUSH2 0xEBA PUSH2 0xEAE JUMP JUMPDEST PUSH2 0xEC5 DUP2 DUP5 DUP5 PUSH2 0xE89 JUMP JUMPDEST POP POP POP JUMP JUMPDEST JUMPDEST DUP2 DUP2 LT ISZERO PUSH2 0xEE8 JUMPI PUSH2 0xEDD PUSH0 DUP3 PUSH2 0xEB2 JUMP JUMPDEST PUSH1 0x1 DUP2 ADD SWAP1 POP PUSH2 0xECB JUMP JUMPDEST POP POP JUMP JUMPDEST PUSH1 0x1F DUP3 GT ISZERO PUSH2 0xF2D JUMPI PUSH2 0xEFE DUP2 PUSH2 0xDCF JUMP JUMPDEST PUSH2 0xF07 DUP5 PUSH2 0xDE1 JUMP JUMPDEST DUP2 ADD PUSH1 0x20 DUP6 LT ISZERO PUSH2 0xF16 JUMPI DUP2 SWAP1 POP JUMPDEST PUSH2 0xF2A PUSH2 0xF22 DUP6 PUSH2 0xDE1 JUMP JUMPDEST DUP4 ADD DUP3 PUSH2 0xECA JUMP JUMPDEST POP POP JUMPDEST POP POP POP JUMP JUMPDEST PUSH0 DUP3 DUP3 SHR SWAP1 POP SWAP3 SWAP2 POP POP JUMP JUMPDEST PUSH0 PUSH2 0xF4D PUSH0 NOT DUP5 PUSH1 0x8 MUL PUSH2 0xF32 JUMP JUMPDEST NOT DUP1 DUP4 AND SWAP2 POP POP SWAP3 SWAP2 POP POP JUMP JUMPDEST PUSH0 PUSH2 0xF65 DUP4 DUP4 PUSH2 0xF3E JUMP JUMPDEST SWAP2 POP DUP3 PUSH1 0x2 MUL DUP3 OR SWAP1 POP SWAP3 SWAP2 POP POP JUMP JUMPDEST PUSH2 0xF7E DUP3 PUSH2 0xDC5 JUMP JUMPDEST PUSH8 0xFFFFFFFFFFFFFFFF DUP2 GT ISZERO PUSH2 0xF97 JUMPI PUSH2 0xF96 PUSH2 0x86E JUMP JUMPDEST JUMPDEST PUSH2 0xFA1 DUP3 SLOAD PUSH2 0xB15 JUMP JUMPDEST PUSH2 0xFAC DUP3 DUP3 DUP6 PUSH2 0xEEC JUMP JUMPDEST PUSH0 PUSH1 0x20 SWAP1 POP PUSH1 0x1F DUP4 GT PUSH1 0x1 DUP2 EQ PUSH2 0xFDD JUMPI PUSH0 DUP5 ISZERO PUSH2 0xFCB JUMPI DUP3 DUP8 ADD MLOAD SWAP1 POP JUMPDEST PUSH2 0xFD5 DUP6 DUP3 PUSH2 0xF5A JUMP JUMPDEST DUP7 SSTORE POP PUSH2 0x103C JUMP JUMPDEST PUSH1 0x1F NOT DUP5 AND PUSH2 0xFEB DUP7 PUSH2 0xDCF JUMP JUMPDEST PUSH0 JUMPDEST DUP3 DUP2 LT ISZERO PUSH2 0x1012 JUMPI DUP5 DUP10 ADD MLOAD DUP3 SSTORE PUSH1 0x1 DUP3 ADD SWAP2 POP PUSH1 0x20 DUP6 ADD SWAP5 POP PUSH1 0x20 DUP2 ADD SWAP1 POP PUSH2 0xFED JUMP JUMPDEST DUP7 DUP4 LT ISZERO PUSH2 0x102F JUMPI DUP5 DUP10 ADD MLOAD PUSH2 0x102B PUSH1 0x1F DUP10 AND DUP3 PUSH2 0xF3E JUMP JUMPDEST DUP4 SSTORE POP JUMPDEST PUSH1 0x1 PUSH1 0x2 DUP9 MUL ADD DUP9 SSTORE POP POP POP JUMPDEST POP POP POP POP POP POP JUMP JUMPDEST DUP3 DUP2 DUP4 MCOPY PUSH0 DUP4 DUP4 ADD MSTORE POP POP POP JUMP JUMPDEST PUSH0 PUSH2 0x105C DUP3 PUSH2 0xDC5 JUMP JUMPDEST PUSH2 0x1066 DUP2 DUP6 PUSH2 0xB45 JUMP JUMPDEST SWAP4 POP PUSH2 0x1076 DUP2 DUP6 PUSH1 0x20 DUP7 ADD PUSH2 0x1044 JUMP JUMPDEST PUSH2 0x107F DUP2 PUSH2 0x85E JUMP JUMPDEST DUP5 ADD SWAP2 POP POP SWAP3 SWAP2 POP POP JUMP JUMPDEST PUSH0 PUSH1 0x40 DUP3 ADD SWAP1 POP DUP2 DUP2 SUB PUSH0 DUP4 ADD MSTORE PUSH2 0x10A2 DUP2 DUP6 PUSH2 0x1052 JUMP JUMPDEST SWAP1 POP DUP2 DUP2 SUB PUSH1 0x20 DUP4 ADD MSTORE PUSH2 0x10B6 DUP2 DUP5 PUSH2 0x1052 JUMP JUMPDEST SWAP1 POP SWAP4 SWAP3 POP POP POP JUMP INVALID LOG2 PUSH5 0x6970667358 0x22 SLT KECCAK256 SWAP14 DUP2 EXTCODESIZE MCOPY 0xED MULMOD MSIZE 0xDB 0xCD SSTORE PUSH26 0x8ACF76A5FBE344969575715F6090202DD8FD9B101064736F6C63 NUMBER STOP ADDMOD BYTE STOP CALLER "
		},
		"gasEstimates": {
			"creation": {
				"codeDepositCost": "868200",
				"executionCost": "infinite",
				"totalCost": "infinite"
			},
			"external": {
				"isUserVerified(address)": "2942",
				"owner()": "2537",
				"renounceOwnership()": "infinite",
				"submitKYC(string,string,string,string,string)": "infinite",
				"transferOwnership(address)": "infinite",
				"verifyKYC(address,bool)": "infinite"
			}
		},
		"methodIdentifiers": {
			"isUserVerified(address)": "ace417e0",
			"owner()": "8da5cb5b",
			"renounceOwnership()": "715018a6",
			"submitKYC(string,string,string,string,string)": "a9fabbd2",
			"transferOwnership(address)": "f2fde38b",
			"verifyKYC(address,bool)": "474adb8f"
		}
	},
	"abi": [
		{
			"inputs": [],
			"stateMutability": "nonpayable",
			"type": "constructor"
		},
		{
			"inputs": [
				{
					"internalType": "address",
					"name": "owner",
					"type": "address"
				}
			],
			"name": "OwnableInvalidOwner",
			"type": "error"
		},
		{
			"inputs": [
				{
					"internalType": "address",
					"name": "account",
					"type": "address"
				}
			],
			"name": "OwnableUnauthorizedAccount",
			"type": "error"
		},
		{
			"anonymous": false,
			"inputs": [
				{
					"indexed": true,
					"internalType": "address",
					"name": "user",
					"type": "address"
				},
				{
					"indexed": false,
					"internalType": "string",
					"name": "name",
					"type": "string"
				},
				{
					"indexed": false,
					"internalType": "string",
					"name": "nationality",
					"type": "string"
				}
			],
			"name": "KYCSubmitted",
			"type": "event"
		},
		{
			"anonymous": false,
			"inputs": [
				{
					"indexed": true,
					"internalType": "address",
					"name": "user",
					"type": "address"
				},
				{
					"indexed": false,
					"internalType": "bool",
					"name": "isVerified",
					"type": "bool"
				}
			],
			"name": "KYCVerified",
			"type": "event"
		},
		{
			"anonymous": false,
			"inputs": [
				{
					"indexed": true,
					"internalType": "address",
					"name": "previousOwner",
					"type": "address"
				},
				{
					"indexed": true,
					"internalType": "address",
					"name": "newOwner",
					"type": "address"
				}
			],
			"name": "OwnershipTransferred",
			"type": "event"
		},
		{
			"inputs": [
				{
					"internalType": "address",
					"name": "user",
					"type": "address"
				}
			],
			"name": "isUserVerified",
			"outputs": [
				{
					"internalType": "bool",
					"name": "",
					"type": "bool"
				}
			],
			"stateMutability": "view",
			"type": "function"
		},
		{
			"inputs": [],
			"name": "owner",
			"outputs": [
				{
					"internalType": "address",
					"name": "",
					"type": "address"
				}
			],
			"stateMutability": "view",
			"type": "function"
		},
		{
			"inputs": [],
			"name": "renounceOwnership",
			"outputs": [],
			"stateMutability": "nonpayable",
			"type": "function"
		},
		{
			"inputs": [
				{
					"internalType": "string",
					"name": "name",
					"type": "string"
				},
				{
					"internalType": "string",
					"name": "email",
					"type": "string"
				},
				{
					"internalType": "string",
					"name": "nationality",
					"type": "string"
				},
				{
					"internalType": "string",
					"name": "idNumber",
					"type": "string"
				},
				{
					"internalType": "string",
					"name": "idImage",
					"type": "string"
				}
			],
			"name": "submitKYC",
			"outputs": [],
			"stateMutability": "nonpayable",
			"type": "function"
		},
		{
			"inputs": [
				{
					"internalType": "address",
					"name": "newOwner",
					"type": "address"
				}
			],
			"name": "transferOwnership",
			"outputs": [],
			"stateMutability": "nonpayable",
			"type": "function"
		},
		{
			"inputs": [
				{
					"internalType": "address",
					"name": "user",
					"type": "address"
				},
				{
					"internalType": "bool",
					"name": "status",
					"type": "bool"
				}
			],
			"name": "verifyKYC",
			"outputs": [],
			"stateMutability": "nonpayable",
			"type": "function"
		}
	]
}