{
	"data": {
		"bytecode": {
			"linkReferences": {},
			"object": "608060405234801561000f575f80fd5b50604051612e5e380380612e5e8339818101604052810190610031919061020b565b8060405180602001604052805f815250610050816100d760201b60201c565b505f73ffffffffffffffffffffffffffffffffffffffff168173ffffffffffffffffffffffffffffffffffffffff16036100c1575f6040517f1e4fbdf70000000000000000000000000000000000000000000000000000000081526004016100b89190610245565b60405180910390fd5b6100d0816100ea60201b60201c565b5050610567565b80600290816100e69190610498565b5050565b5f60035f9054906101000a900473ffffffffffffffffffffffffffffffffffffffff1690508160035f6101000a81548173ffffffffffffffffffffffffffffffffffffffff021916908373ffffffffffffffffffffffffffffffffffffffff1602179055508173ffffffffffffffffffffffffffffffffffffffff168173ffffffffffffffffffffffffffffffffffffffff167f8be0079c531659141344cd1fd0a4f28419497f9722a3daafe3b4186f6b6457e060405160405180910390a35050565b5f80fd5b5f73ffffffffffffffffffffffffffffffffffffffff82169050919050565b5f6101da826101b1565b9050919050565b6101ea816101d0565b81146101f4575f80fd5b50565b5f81519050610205816101e1565b92915050565b5f602082840312156102205761021f6101ad565b5b5f61022d848285016101f7565b91505092915050565b61023f816101d0565b82525050565b5f6020820190506102585f830184610236565b92915050565b5f81519050919050565b7f4e487b71000000000000000000000000000000000000000000000000000000005f52604160045260245ffd5b7f4e487b71000000000000000000000000000000000000000000000000000000005f52602260045260245ffd5b5f60028204905060018216806102d957607f821691505b6020821081036102ec576102eb610295565b5b50919050565b5f819050815f5260205f209050919050565b5f6020601f8301049050919050565b5f82821b905092915050565b5f6008830261034e7fffffffffffffffffffffffffffffffffffffffffffffffffffffffffffffffff82610313565b6103588683610313565b95508019841693508086168417925050509392505050565b5f819050919050565b5f819050919050565b5f61039c61039761039284610370565b610379565b610370565b9050919050565b5f819050919050565b6103b583610382565b6103c96103c1826103a3565b84845461031f565b825550505050565b5f90565b6103dd6103d1565b6103e88184846103ac565b505050565b5b8181101561040b576104005f826103d5565b6001810190506103ee565b5050565b601f82111561045057610421816102f2565b61042a84610304565b81016020851015610439578190505b61044d61044585610304565b8301826103ed565b50505b505050565b5f82821c905092915050565b5f6104705f1984600802610455565b1980831691505092915050565b5f6104888383610461565b9150826002028217905092915050565b6104a18261025e565b67ffffffffffffffff8111156104ba576104b9610268565b5b6104c482546102c2565b6104cf82828561040f565b5f60209050601f831160018114610500575f84156104ee578287015190505b6104f8858261047d565b86555061055f565b601f19841661050e866102f2565b5f5b8281101561053557848901518255600182019150602085019450602081019050610510565b86831015610552578489015161054e601f891682610461565b8355505b6001600288020188555050505b505050505050565b6128ea806105745f395ff3fe608060405234801561000f575f80fd5b5060043610610113575f3560e01c8063715018a6116100a0578063a22cb4651161006f578063a22cb46514610313578063ac9b6bc41461032f578063e985e9c51461035f578063f242432a1461038f578063f2fde38b146103ab57610113565b8063715018a6146102b35780637bbfd9ed146102bd5780638da5cb5b146102d95780639b7c4b4b146102f757610113565b80632eb2c2d6116100e75780632eb2c2d6146101d757806332cdcff8146101f35780634e1273f41461022357806355a24d3b146102535780636e3190771461028357610113565b8062fdd58e1461011757806301ffc9a71461014757806306dfdb2d146101775780630e89341c146101a7575b5f80fd5b610131600480360381019061012c919061199d565b6103c7565b60405161013e91906119ea565b60405180910390f35b610161600480360381019061015c9190611a58565b61041c565b60405161016e9190611a9d565b60405180910390f35b610191600480360381019061018c9190611ab6565b6104fd565b60405161019e91906119ea565b60405180910390f35b6101c160048036038101906101bc9190611ab6565b610517565b6040516101ce9190611b51565b60405180910390f35b6101f160048036038101906101ec9190611d61565b6105b8565b005b61020d60048036038101906102089190611ab6565b61065f565b60405161021a91906119ea565b60405180910390f35b61023d60048036038101906102389190611eec565b610674565b60405161024a9190612019565b60405180910390f35b61026d600480360381019061026891906120d7565b61077b565b60405161027a91906119ea565b60405180910390f35b61029d60048036038101906102989190611ab6565b61081c565b6040516102aa91906119ea565b60405180910390f35b6102bb610831565b005b6102d760048036038101906102d29190612143565b610844565b005b6102e16108af565b6040516102ee9190612190565b60405180910390f35b610311600480360381019061030c9190612143565b6108d7565b005b61032d600480360381019061032891906121d3565b610931565b005b61034960048036038101906103449190611ab6565b610947565b60405161035691906119ea565b60405180910390f35b61037960048036038101906103749190612211565b610961565b6040516103869190611a9d565b60405180910390f35b6103a960048036038101906103a4919061224f565b6109ef565b005b6103c560048036038101906103c091906122e2565b610a96565b005b5f805f8381526020019081526020015f205f8473ffffffffffffffffffffffffffffffffffffffff1673ffffffffffffffffffffffffffffffffffffffff1681526020019081526020015f2054905092915050565b5f7fd9b67a26000000000000000000000000000000000000000000000000000000007bffffffffffffffffffffffffffffffffffffffffffffffffffffffff1916827bffffffffffffffffffffffffffffffffffffffffffffffffffffffff191614806104e657507f0e89341c000000000000000000000000000000000000000000000000000000007bffffffffffffffffffffffffffffffffffffffffffffffffffffffff1916827bffffffffffffffffffffffffffffffffffffffffffffffffffffffff1916145b806104f657506104f582610b1a565b5b9050919050565b5f60065f8381526020019081526020015f20549050919050565b606060055f8381526020019081526020015f2080546105359061233a565b80601f01602080910402602001604051908101604052809291908181526020018280546105619061233a565b80156105ac5780601f10610583576101008083540402835291602001916105ac565b820191905f5260205f20905b81548152906001019060200180831161058f57829003601f168201915b50505050509050919050565b5f6105c1610b83565b90508073ffffffffffffffffffffffffffffffffffffffff168673ffffffffffffffffffffffffffffffffffffffff161415801561060657506106048682610961565b155b1561064a5780866040517fe237d92200000000000000000000000000000000000000000000000000000000815260040161064192919061236a565b60405180910390fd5b6106578686868686610b8a565b505050505050565b6007602052805f5260405f205f915090505481565b606081518351146106c057815183516040517f5b0599910000000000000000000000000000000000000000000000000000000081526004016106b7929190612391565b60405180910390fd5b5f835167ffffffffffffffff8111156106dc576106db611b75565b5b60405190808252806020026020018201604052801561070a5781602001602082028036833780820191505090505b5090505f5b84518110156107705761074661072e8287610c7e90919063ffffffff16565b6107418387610c9190919063ffffffff16565b6103c7565b828281518110610759576107586123b8565b5b60200260200101818152505080600101905061070f565b508091505092915050565b5f610784610ca4565b61078e6004610d2b565b5f6107996004610d3f565b90506107b533828660405180602001604052805f815250610d4b565b6107bf8186610de0565b8260065f8381526020019081526020015f2081905550807f0619177337325f2035f1286340ae066d525900d5906cc94f895375afffa19da1868686604051610809939291906123e5565b60405180910390a2809150509392505050565b6006602052805f5260405f205f915090505481565b610839610ca4565b6108425f610e03565b565b61084c610ca4565b8060075f8481526020019081526020015f205f82825461086c919061244e565b92505081905550817f7c4fcc0416fde9be2a0d84bf5d8523240aff2d42765c7bb965e4864f2cca9d63826040516108a391906119ea565b60405180910390a25050565b5f60035f9054906101000a900473ffffffffffffffffffffffffffffffffffffffff16905090565b6108df610ca4565b8060065f8481526020019081526020015f2081905550817f38feca60919cb6c50d2bda77cc786b4121a0ab59fdcbccad58c37f0bc84869e98260405161092591906119ea565b60405180910390a25050565b61094361093c610b83565b8383610ec6565b5050565b5f60075f8381526020019081526020015f20549050919050565b5f60015f8473ffffffffffffffffffffffffffffffffffffffff1673ffffffffffffffffffffffffffffffffffffffff1681526020019081526020015f205f8373ffffffffffffffffffffffffffffffffffffffff1673ffffffffffffffffffffffffffffffffffffffff1681526020019081526020015f205f9054906101000a900460ff16905092915050565b5f6109f8610b83565b90508073ffffffffffffffffffffffffffffffffffffffff168673ffffffffffffffffffffffffffffffffffffffff1614158015610a3d5750610a3b8682610961565b155b15610a815780866040517fe237d922000000000000000000000000000000000000000000000000000000008152600401610a7892919061236a565b60405180910390fd5b610a8e868686868661102f565b505050505050565b610a9e610ca4565b5f73ffffffffffffffffffffffffffffffffffffffff168173ffffffffffffffffffffffffffffffffffffffff1603610b0e575f6040517f1e4fbdf7000000000000000000000000000000000000000000000000000000008152600401610b059190612190565b60405180910390fd5b610b1781610e03565b50565b5f7f01ffc9a7000000000000000000000000000000000000000000000000000000007bffffffffffffffffffffffffffffffffffffffffffffffffffffffff1916827bffffffffffffffffffffffffffffffffffffffffffffffffffffffff1916149050919050565b5f33905090565b5f73ffffffffffffffffffffffffffffffffffffffff168473ffffffffffffffffffffffffffffffffffffffff1603610bfa575f6040517f57f447ce000000000000000000000000000000000000000000000000000000008152600401610bf19190612190565b60405180910390fd5b5f73ffffffffffffffffffffffffffffffffffffffff168573ffffffffffffffffffffffffffffffffffffffff1603610c6a575f6040517f01a83514000000000000000000000000000000000000000000000000000000008152600401610c619190612190565b60405180910390fd5b610c778585858585611135565b5050505050565b5f60208202602084010151905092915050565b5f60208202602084010151905092915050565b610cac610b83565b73ffffffffffffffffffffffffffffffffffffffff16610cca6108af565b73ffffffffffffffffffffffffffffffffffffffff1614610d2957610ced610b83565b6040517f118cdaa7000000000000000000000000000000000000000000000000000000008152600401610d209190612190565b60405180910390fd5b565b6001815f015f828254019250508190555050565b5f815f01549050919050565b5f73ffffffffffffffffffffffffffffffffffffffff168473ffffffffffffffffffffffffffffffffffffffff1603610dbb575f6040517f57f447ce000000000000000000000000000000000000000000000000000000008152600401610db29190612190565b60405180910390fd5b5f80610dc785856111e1565b91509150610dd85f87848487611135565b505050505050565b8060055f8481526020019081526020015f209081610dfe919061261e565b505050565b5f60035f9054906101000a900473ffffffffffffffffffffffffffffffffffffffff1690508160035f6101000a81548173ffffffffffffffffffffffffffffffffffffffff021916908373ffffffffffffffffffffffffffffffffffffffff1602179055508173ffffffffffffffffffffffffffffffffffffffff168173ffffffffffffffffffffffffffffffffffffffff167f8be0079c531659141344cd1fd0a4f28419497f9722a3daafe3b4186f6b6457e060405160405180910390a35050565b5f73ffffffffffffffffffffffffffffffffffffffff168273ffffffffffffffffffffffffffffffffffffffff1603610f36575f6040517fced3e100000000000000000000000000000000000000000000000000000000008152600401610f2d9190612190565b60405180910390fd5b8060015f8573ffffffffffffffffffffffffffffffffffffffff1673ffffffffffffffffffffffffffffffffffffffff1681526020019081526020015f205f8473ffffffffffffffffffffffffffffffffffffffff1673ffffffffffffffffffffffffffffffffffffffff1681526020019081526020015f205f6101000a81548160ff0219169083151502179055508173ffffffffffffffffffffffffffffffffffffffff168373ffffffffffffffffffffffffffffffffffffffff167f17307eab39ab6107e8899845ad3d59bd9653f200f220920489ca2b5937696c31836040516110229190611a9d565b60405180910390a3505050565b5f73ffffffffffffffffffffffffffffffffffffffff168473ffffffffffffffffffffffffffffffffffffffff160361109f575f6040517f57f447ce0000000000000000000000000000000000000000000000000000000081526004016110969190612190565b60405180910390fd5b5f73ffffffffffffffffffffffffffffffffffffffff168573ffffffffffffffffffffffffffffffffffffffff160361110f575f6040517f01a835140000000000000000000000000000000000000000000000000000000081526004016111069190612190565b60405180910390fd5b5f8061111b85856111e1565b9150915061112c8787848487611135565b50505050505050565b61114185858585611211565b5f73ffffffffffffffffffffffffffffffffffffffff168473ffffffffffffffffffffffffffffffffffffffff16146111da575f61117d610b83565b905060018451036111c9575f61119c5f86610c9190919063ffffffff16565b90505f6111b25f86610c9190919063ffffffff16565b90506111c28389898585896115a1565b50506111d8565b6111d7818787878787611750565b5b505b5050505050565b60608060405191506001825283602083015260408201905060018152826020820152604081016040529250929050565b805182511461125b57815181516040517f5b059991000000000000000000000000000000000000000000000000000000008152600401611252929190612391565b60405180910390fd5b5f611264610b83565b90505f5b8351811015611460575f6112858286610c9190919063ffffffff16565b90505f61129b8386610c9190919063ffffffff16565b90505f73ffffffffffffffffffffffffffffffffffffffff168873ffffffffffffffffffffffffffffffffffffffff16146113be575f805f8481526020019081526020015f205f8a73ffffffffffffffffffffffffffffffffffffffff1673ffffffffffffffffffffffffffffffffffffffff1681526020019081526020015f205490508181101561136a57888183856040517f03dee4c500000000000000000000000000000000000000000000000000000000815260040161136194939291906126ed565b60405180910390fd5b8181035f808581526020019081526020015f205f8b73ffffffffffffffffffffffffffffffffffffffff1673ffffffffffffffffffffffffffffffffffffffff1681526020019081526020015f2081905550505b5f73ffffffffffffffffffffffffffffffffffffffff168773ffffffffffffffffffffffffffffffffffffffff161461145357805f808481526020019081526020015f205f8973ffffffffffffffffffffffffffffffffffffffff1673ffffffffffffffffffffffffffffffffffffffff1681526020019081526020015f205f82825461144b919061244e565b925050819055505b5050806001019050611268565b50600183510361151b575f61147e5f85610c9190919063ffffffff16565b90505f6114945f85610c9190919063ffffffff16565b90508573ffffffffffffffffffffffffffffffffffffffff168773ffffffffffffffffffffffffffffffffffffffff168473ffffffffffffffffffffffffffffffffffffffff167fc3d58168c5ae7397731d063d5bbf3d657854427343f4c083240f7aacaa2d0f62858560405161150c929190612391565b60405180910390a4505061159a565b8373ffffffffffffffffffffffffffffffffffffffff168573ffffffffffffffffffffffffffffffffffffffff168273ffffffffffffffffffffffffffffffffffffffff167f4a39dc06d4c0dbc64b70af90fd698a233a518aa5d07e595d983b8c0526c8f7fb8686604051611591929190612730565b60405180910390a45b5050505050565b5f8473ffffffffffffffffffffffffffffffffffffffff163b1115611748578373ffffffffffffffffffffffffffffffffffffffff1663f23a6e6187878686866040518663ffffffff1660e01b81526004016116019594939291906127b7565b6020604051808303815f875af192505050801561163c57506040513d601f19601f820116820180604052508101906116399190612823565b60015b6116bd573d805f811461166a576040519150601f19603f3d011682016040523d82523d5f602084013e61166f565b606091505b505f8151036116b557846040517f57f447ce0000000000000000000000000000000000000000000000000000000081526004016116ac9190612190565b60405180910390fd5b805181602001fd5b63f23a6e6160e01b7bffffffffffffffffffffffffffffffffffffffffffffffffffffffff1916817bffffffffffffffffffffffffffffffffffffffffffffffffffffffff19161461174657846040517f57f447ce00000000000000000000000000000000000000000000000000000000815260040161173d9190612190565b60405180910390fd5b505b505050505050565b5f8473ffffffffffffffffffffffffffffffffffffffff163b11156118f7578373ffffffffffffffffffffffffffffffffffffffff1663bc197c8187878686866040518663ffffffff1660e01b81526004016117b095949392919061284e565b6020604051808303815f875af19250505080156117eb57506040513d601f19601f820116820180604052508101906117e89190612823565b60015b61186c573d805f8114611819576040519150601f19603f3d011682016040523d82523d5f602084013e61181e565b606091505b505f81510361186457846040517f57f447ce00000000000000000000000000000000000000000000000000000000815260040161185b9190612190565b60405180910390fd5b805181602001fd5b63bc197c8160e01b7bffffffffffffffffffffffffffffffffffffffffffffffffffffffff1916817bffffffffffffffffffffffffffffffffffffffffffffffffffffffff1916146118f557846040517f57f447ce0000000000000000000000000000000000000000000000000000000081526004016118ec9190612190565b60405180910390fd5b505b505050505050565b5f604051905090565b5f80fd5b5f80fd5b5f73ffffffffffffffffffffffffffffffffffffffff82169050919050565b5f61193982611910565b9050919050565b6119498161192f565b8114611953575f80fd5b50565b5f8135905061196481611940565b92915050565b5f819050919050565b61197c8161196a565b8114611986575f80fd5b50565b5f8135905061199781611973565b92915050565b5f80604083850312156119b3576119b2611908565b5b5f6119c085828601611956565b92505060206119d185828601611989565b9150509250929050565b6119e48161196a565b82525050565b5f6020820190506119fd5f8301846119db565b92915050565b5f7fffffffff0000000000000000000000000000000000000000000000000000000082169050919050565b611a3781611a03565b8114611a41575f80fd5b50565b5f81359050611a5281611a2e565b92915050565b5f60208284031215611a6d57611a6c611908565b5b5f611a7a84828501611a44565b91505092915050565b5f8115159050919050565b611a9781611a83565b82525050565b5f602082019050611ab05f830184611a8e565b92915050565b5f60208284031215611acb57611aca611908565b5b5f611ad884828501611989565b91505092915050565b5f81519050919050565b5f82825260208201905092915050565b8281835e5f83830152505050565b5f601f19601f8301169050919050565b5f611b2382611ae1565b611b2d8185611aeb565b9350611b3d818560208601611afb565b611b4681611b09565b840191505092915050565b5f6020820190508181035f830152611b698184611b19565b905092915050565b5f80fd5b7f4e487b71000000000000000000000000000000000000000000000000000000005f52604160045260245ffd5b611bab82611b09565b810181811067ffffffffffffffff82111715611bca57611bc9611b75565b5b80604052505050565b5f611bdc6118ff565b9050611be88282611ba2565b919050565b5f67ffffffffffffffff821115611c0757611c06611b75565b5b602082029050602081019050919050565b5f80fd5b5f611c2e611c2984611bed565b611bd3565b90508083825260208201905060208402830185811115611c5157611c50611c18565b5b835b81811015611c7a5780611c668882611989565b845260208401935050602081019050611c53565b5050509392505050565b5f82601f830112611c9857611c97611b71565b5b8135611ca8848260208601611c1c565b91505092915050565b5f80fd5b5f67ffffffffffffffff821115611ccf57611cce611b75565b5b611cd882611b09565b9050602081019050919050565b828183375f83830152505050565b5f611d05611d0084611cb5565b611bd3565b905082815260208101848484011115611d2157611d20611cb1565b5b611d2c848285611ce5565b509392505050565b5f82601f830112611d4857611d47611b71565b5b8135611d58848260208601611cf3565b91505092915050565b5f805f805f60a08688031215611d7a57611d79611908565b5b5f611d8788828901611956565b9550506020611d9888828901611956565b945050604086013567ffffffffffffffff811115611db957611db861190c565b5b611dc588828901611c84565b935050606086013567ffffffffffffffff811115611de657611de561190c565b5b611df288828901611c84565b925050608086013567ffffffffffffffff811115611e1357611e1261190c565b5b611e1f88828901611d34565b9150509295509295909350565b5f67ffffffffffffffff821115611e4657611e45611b75565b5b602082029050602081019050919050565b5f611e69611e6484611e2c565b611bd3565b90508083825260208201905060208402830185811115611e8c57611e8b611c18565b5b835b81811015611eb55780611ea18882611956565b845260208401935050602081019050611e8e565b5050509392505050565b5f82601f830112611ed357611ed2611b71565b5b8135611ee3848260208601611e57565b91505092915050565b5f8060408385031215611f0257611f01611908565b5b5f83013567ffffffffffffffff811115611f1f57611f1e61190c565b5b611f2b85828601611ebf565b925050602083013567ffffffffffffffff811115611f4c57611f4b61190c565b5b611f5885828601611c84565b9150509250929050565b5f81519050919050565b5f82825260208201905092915050565b5f819050602082019050919050565b611f948161196a565b82525050565b5f611fa58383611f8b565b60208301905092915050565b5f602082019050919050565b5f611fc782611f62565b611fd18185611f6c565b9350611fdc83611f7c565b805f5b8381101561200c578151611ff38882611f9a565b9750611ffe83611fb1565b925050600181019050611fdf565b5085935050505092915050565b5f6020820190508181035f8301526120318184611fbd565b905092915050565b5f67ffffffffffffffff82111561205357612052611b75565b5b61205c82611b09565b9050602081019050919050565b5f61207b61207684612039565b611bd3565b90508281526020810184848401111561209757612096611cb1565b5b6120a2848285611ce5565b509392505050565b5f82601f8301126120be576120bd611b71565b5b81356120ce848260208601612069565b91505092915050565b5f805f606084860312156120ee576120ed611908565b5b5f84013567ffffffffffffffff81111561210b5761210a61190c565b5b612117868287016120aa565b935050602061212886828701611989565b925050604061213986828701611989565b9150509250925092565b5f806040838503121561215957612158611908565b5b5f61216685828601611989565b925050602061217785828601611989565b9150509250929050565b61218a8161192f565b82525050565b5f6020820190506121a35f830184612181565b92915050565b6121b281611a83565b81146121bc575f80fd5b50565b5f813590506121cd816121a9565b92915050565b5f80604083850312156121e9576121e8611908565b5b5f6121f685828601611956565b9250506020612207858286016121bf565b9150509250929050565b5f806040838503121561222757612226611908565b5b5f61223485828601611956565b925050602061224585828601611956565b9150509250929050565b5f805f805f60a0868803121561226857612267611908565b5b5f61227588828901611956565b955050602061228688828901611956565b945050604061229788828901611989565b93505060606122a888828901611989565b925050608086013567ffffffffffffffff8111156122c9576122c861190c565b5b6122d588828901611d34565b9150509295509295909350565b5f602082840312156122f7576122f6611908565b5b5f61230484828501611956565b91505092915050565b7f4e487b71000000000000000000000000000000000000000000000000000000005f52602260045260245ffd5b5f600282049050600182168061235157607f821691505b6020821081036123645761236361230d565b5b50919050565b5f60408201905061237d5f830185612181565b61238a6020830184612181565b9392505050565b5f6040820190506123a45f8301856119db565b6123b160208301846119db565b9392505050565b7f4e487b71000000000000000000000000000000000000000000000000000000005f52603260045260245ffd5b5f6060820190508181035f8301526123fd8186611b19565b905061240c60208301856119db565b61241960408301846119db565b949350505050565b7f4e487b71000000000000000000000000000000000000000000000000000000005f52601160045260245ffd5b5f6124588261196a565b91506124638361196a565b925082820190508082111561247b5761247a612421565b5b92915050565b5f819050815f5260205f209050919050565b5f6020601f8301049050919050565b5f82821b905092915050565b5f600883026124dd7fffffffffffffffffffffffffffffffffffffffffffffffffffffffffffffffff826124a2565b6124e786836124a2565b95508019841693508086168417925050509392505050565b5f819050919050565b5f61252261251d6125188461196a565b6124ff565b61196a565b9050919050565b5f819050919050565b61253b83612508565b61254f61254782612529565b8484546124ae565b825550505050565b5f90565b612563612557565b61256e818484612532565b505050565b5b81811015612591576125865f8261255b565b600181019050612574565b5050565b601f8211156125d6576125a781612481565b6125b084612493565b810160208510156125bf578190505b6125d36125cb85612493565b830182612573565b50505b505050565b5f82821c905092915050565b5f6125f65f19846008026125db565b1980831691505092915050565b5f61260e83836125e7565b9150826002028217905092915050565b61262782611ae1565b67ffffffffffffffff8111156126405761263f611b75565b5b61264a825461233a565b612655828285612595565b5f60209050601f831160018114612686575f8415612674578287015190505b61267e8582612603565b8655506126e5565b601f19841661269486612481565b5f5b828110156126bb57848901518255600182019150602085019450602081019050612696565b868310156126d857848901516126d4601f8916826125e7565b8355505b6001600288020188555050505b505050505050565b5f6080820190506127005f830187612181565b61270d60208301866119db565b61271a60408301856119db565b61272760608301846119db565b95945050505050565b5f6040820190508181035f8301526127488185611fbd565b9050818103602083015261275c8184611fbd565b90509392505050565b5f81519050919050565b5f82825260208201905092915050565b5f61278982612765565b612793818561276f565b93506127a3818560208601611afb565b6127ac81611b09565b840191505092915050565b5f60a0820190506127ca5f830188612181565b6127d76020830187612181565b6127e460408301866119db565b6127f160608301856119db565b8181036080830152612803818461277f565b90509695505050505050565b5f8151905061281d81611a2e565b92915050565b5f6020828403121561283857612837611908565b5b5f6128458482850161280f565b91505092915050565b5f60a0820190506128615f830188612181565b61286e6020830187612181565b81810360408301526128808186611fbd565b905081810360608301526128948185611fbd565b905081810360808301526128a8818461277f565b9050969550505050505056fea2646970667358221220289c66dde1dfea1e3581875d3cd6bbca8147129a512ce9fcfddccd033823218764736f6c634300081a0033",
			"opcodes": "PUSH1 0x80 PUSH1 0x40 MSTORE CALLVALUE DUP1 ISZERO PUSH2 0xF JUMPI PUSH0 DUP1 REVERT JUMPDEST POP PUSH1 0x40 MLOAD PUSH2 0x2E5E CODESIZE SUB DUP1 PUSH2 0x2E5E DUP4 CODECOPY DUP2 DUP2 ADD PUSH1 0x40 MSTORE DUP2 ADD SWAP1 PUSH2 0x31 SWAP2 SWAP1 PUSH2 0x20B JUMP JUMPDEST DUP1 PUSH1 0x40 MLOAD DUP1 PUSH1 0x20 ADD PUSH1 0x40 MSTORE DUP1 PUSH0 DUP2 MSTORE POP PUSH2 0x50 DUP2 PUSH2 0xD7 PUSH1 0x20 SHL PUSH1 0x20 SHR JUMP JUMPDEST POP PUSH0 PUSH20 0xFFFFFFFFFFFFFFFFFFFFFFFFFFFFFFFFFFFFFFFF AND DUP2 PUSH20 0xFFFFFFFFFFFFFFFFFFFFFFFFFFFFFFFFFFFFFFFF AND SUB PUSH2 0xC1 JUMPI PUSH0 PUSH1 0x40 MLOAD PUSH32 0x1E4FBDF700000000000000000000000000000000000000000000000000000000 DUP2 MSTORE PUSH1 0x4 ADD PUSH2 0xB8 SWAP2 SWAP1 PUSH2 0x245 JUMP JUMPDEST PUSH1 0x40 MLOAD DUP1 SWAP2 SUB SWAP1 REVERT JUMPDEST PUSH2 0xD0 DUP2 PUSH2 0xEA PUSH1 0x20 SHL PUSH1 0x20 SHR JUMP JUMPDEST POP POP PUSH2 0x567 JUMP JUMPDEST DUP1 PUSH1 0x2 SWAP1 DUP2 PUSH2 0xE6 SWAP2 SWAP1 PUSH2 0x498 JUMP JUMPDEST POP POP JUMP JUMPDEST PUSH0 PUSH1 0x3 PUSH0 SWAP1 SLOAD SWAP1 PUSH2 0x100 EXP SWAP1 DIV PUSH20 0xFFFFFFFFFFFFFFFFFFFFFFFFFFFFFFFFFFFFFFFF AND SWAP1 POP DUP2 PUSH1 0x3 PUSH0 PUSH2 0x100 EXP DUP2 SLOAD DUP2 PUSH20 0xFFFFFFFFFFFFFFFFFFFFFFFFFFFFFFFFFFFFFFFF MUL NOT AND SWAP1 DUP4 PUSH20 0xFFFFFFFFFFFFFFFFFFFFFFFFFFFFFFFFFFFFFFFF AND MUL OR SWAP1 SSTORE POP DUP2 PUSH20 0xFFFFFFFFFFFFFFFFFFFFFFFFFFFFFFFFFFFFFFFF AND DUP2 PUSH20 0xFFFFFFFFFFFFFFFFFFFFFFFFFFFFFFFFFFFFFFFF AND PUSH32 0x8BE0079C531659141344CD1FD0A4F28419497F9722A3DAAFE3B4186F6B6457E0 PUSH1 0x40 MLOAD PUSH1 0x40 MLOAD DUP1 SWAP2 SUB SWAP1 LOG3 POP POP JUMP JUMPDEST PUSH0 DUP1 REVERT JUMPDEST PUSH0 PUSH20 0xFFFFFFFFFFFFFFFFFFFFFFFFFFFFFFFFFFFFFFFF DUP3 AND SWAP1 POP SWAP2 SWAP1 POP JUMP JUMPDEST PUSH0 PUSH2 0x1DA DUP3 PUSH2 0x1B1 JUMP JUMPDEST SWAP1 POP SWAP2 SWAP1 POP JUMP JUMPDEST PUSH2 0x1EA DUP2 PUSH2 0x1D0 JUMP JUMPDEST DUP2 EQ PUSH2 0x1F4 JUMPI PUSH0 DUP1 REVERT JUMPDEST POP JUMP JUMPDEST PUSH0 DUP2 MLOAD SWAP1 POP PUSH2 0x205 DUP2 PUSH2 0x1E1 JUMP JUMPDEST SWAP3 SWAP2 POP POP JUMP JUMPDEST PUSH0 PUSH1 0x20 DUP3 DUP5 SUB SLT ISZERO PUSH2 0x220 JUMPI PUSH2 0x21F PUSH2 0x1AD JUMP JUMPDEST JUMPDEST PUSH0 PUSH2 0x22D DUP5 DUP3 DUP6 ADD PUSH2 0x1F7 JUMP JUMPDEST SWAP2 POP POP SWAP3 SWAP2 POP POP JUMP JUMPDEST PUSH2 0x23F DUP2 PUSH2 0x1D0 JUMP JUMPDEST DUP3 MSTORE POP POP JUMP JUMPDEST PUSH0 PUSH1 0x20 DUP3 ADD SWAP1 POP PUSH2 0x258 PUSH0 DUP4 ADD DUP5 PUSH2 0x236 JUMP JUMPDEST SWAP3 SWAP2 POP POP JUMP JUMPDEST PUSH0 DUP2 MLOAD SWAP1 POP SWAP2 SWAP1 POP JUMP JUMPDEST PUSH32 0x4E487B7100000000000000000000000000000000000000000000000000000000 PUSH0 MSTORE PUSH1 0x41 PUSH1 0x4 MSTORE PUSH1 0x24 PUSH0 REVERT JUMPDEST PUSH32 0x4E487B7100000000000000000000000000000000000000000000000000000000 PUSH0 MSTORE PUSH1 0x22 PUSH1 0x4 MSTORE PUSH1 0x24 PUSH0 REVERT JUMPDEST PUSH0 PUSH1 0x2 DUP3 DIV SWAP1 POP PUSH1 0x1 DUP3 AND DUP1 PUSH2 0x2D9 JUMPI PUSH1 0x7F DUP3 AND SWAP2 POP JUMPDEST PUSH1 0x20 DUP3 LT DUP2 SUB PUSH2 0x2EC JUMPI PUSH2 0x2EB PUSH2 0x295 JUMP JUMPDEST JUMPDEST POP SWAP2 SWAP1 POP JUMP JUMPDEST PUSH0 DUP2 SWAP1 POP DUP2 PUSH0 MSTORE PUSH1 0x20 PUSH0 KECCAK256 SWAP1 POP SWAP2 SWAP1 POP JUMP JUMPDEST PUSH0 PUSH1 0x20 PUSH1 0x1F DUP4 ADD DIV SWAP1 POP SWAP2 SWAP1 POP JUMP JUMPDEST PUSH0 DUP3 DUP3 SHL SWAP1 POP SWAP3 SWAP2 POP POP JUMP JUMPDEST PUSH0 PUSH1 0x8 DUP4 MUL PUSH2 0x34E PUSH32 0xFFFFFFFFFFFFFFFFFFFFFFFFFFFFFFFFFFFFFFFFFFFFFFFFFFFFFFFFFFFFFFFF DUP3 PUSH2 0x313 JUMP JUMPDEST PUSH2 0x358 DUP7 DUP4 PUSH2 0x313 JUMP JUMPDEST SWAP6 POP DUP1 NOT DUP5 AND SWAP4 POP DUP1 DUP7 AND DUP5 OR SWAP3 POP POP POP SWAP4 SWAP3 POP POP POP JUMP JUMPDEST PUSH0 DUP2 SWAP1 POP SWAP2 SWAP1 POP JUMP JUMPDEST PUSH0 DUP2 SWAP1 POP SWAP2 SWAP1 POP JUMP JUMPDEST PUSH0 PUSH2 0x39C PUSH2 0x397 PUSH2 0x392 DUP5 PUSH2 0x370 JUMP JUMPDEST PUSH2 0x379 JUMP JUMPDEST PUSH2 0x370 JUMP JUMPDEST SWAP1 POP SWAP2 SWAP1 POP JUMP JUMPDEST PUSH0 DUP2 SWAP1 POP SWAP2 SWAP1 POP JUMP JUMPDEST PUSH2 0x3B5 DUP4 PUSH2 0x382 JUMP JUMPDEST PUSH2 0x3C9 PUSH2 0x3C1 DUP3 PUSH2 0x3A3 JUMP JUMPDEST DUP5 DUP5 SLOAD PUSH2 0x31F JUMP JUMPDEST DUP3 SSTORE POP POP POP POP JUMP JUMPDEST PUSH0 SWAP1 JUMP JUMPDEST PUSH2 0x3DD PUSH2 0x3D1 JUMP JUMPDEST PUSH2 0x3E8 DUP2 DUP5 DUP5 PUSH2 0x3AC JUMP JUMPDEST POP POP POP JUMP JUMPDEST JUMPDEST DUP2 DUP2 LT ISZERO PUSH2 0x40B JUMPI PUSH2 0x400 PUSH0 DUP3 PUSH2 0x3D5 JUMP JUMPDEST PUSH1 0x1 DUP2 ADD SWAP1 POP PUSH2 0x3EE JUMP JUMPDEST POP POP JUMP JUMPDEST PUSH1 0x1F DUP3 GT ISZERO PUSH2 0x450 JUMPI PUSH2 0x421 DUP2 PUSH2 0x2F2 JUMP JUMPDEST PUSH2 0x42A DUP5 PUSH2 0x304 JUMP JUMPDEST DUP2 ADD PUSH1 0x20 DUP6 LT ISZERO PUSH2 0x439 JUMPI DUP2 SWAP1 POP JUMPDEST PUSH2 0x44D PUSH2 0x445 DUP6 PUSH2 0x304 JUMP JUMPDEST DUP4 ADD DUP3 PUSH2 0x3ED JUMP JUMPDEST POP POP JUMPDEST POP POP POP JUMP JUMPDEST PUSH0 DUP3 DUP3 SHR SWAP1 POP SWAP3 SWAP2 POP POP JUMP JUMPDEST PUSH0 PUSH2 0x470 PUSH0 NOT DUP5 PUSH1 0x8 MUL PUSH2 0x455 JUMP JUMPDEST NOT DUP1 DUP4 AND SWAP2 POP POP SWAP3 SWAP2 POP POP JUMP JUMPDEST PUSH0 PUSH2 0x488 DUP4 DUP4 PUSH2 0x461 JUMP JUMPDEST SWAP2 POP DUP3 PUSH1 0x2 MUL DUP3 OR SWAP1 POP SWAP3 SWAP2 POP POP JUMP JUMPDEST PUSH2 0x4A1 DUP3 PUSH2 0x25E JUMP JUMPDEST PUSH8 0xFFFFFFFFFFFFFFFF DUP2 GT ISZERO PUSH2 0x4BA JUMPI PUSH2 0x4B9 PUSH2 0x268 JUMP JUMPDEST JUMPDEST PUSH2 0x4C4 DUP3 SLOAD PUSH2 0x2C2 JUMP JUMPDEST PUSH2 0x4CF DUP3 DUP3 DUP6 PUSH2 0x40F JUMP JUMPDEST PUSH0 PUSH1 0x20 SWAP1 POP PUSH1 0x1F DUP4 GT PUSH1 0x1 DUP2 EQ PUSH2 0x500 JUMPI PUSH0 DUP5 ISZERO PUSH2 0x4EE JUMPI DUP3 DUP8 ADD MLOAD SWAP1 POP JUMPDEST PUSH2 0x4F8 DUP6 DUP3 PUSH2 0x47D JUMP JUMPDEST DUP7 SSTORE POP PUSH2 0x55F JUMP JUMPDEST PUSH1 0x1F NOT DUP5 AND PUSH2 0x50E DUP7 PUSH2 0x2F2 JUMP JUMPDEST PUSH0 JUMPDEST DUP3 DUP2 LT ISZERO PUSH2 0x535 JUMPI DUP5 DUP10 ADD MLOAD DUP3 SSTORE PUSH1 0x1 DUP3 ADD SWAP2 POP PUSH1 0x20 DUP6 ADD SWAP5 POP PUSH1 0x20 DUP2 ADD SWAP1 POP PUSH2 0x510 JUMP JUMPDEST DUP7 DUP4 LT ISZERO PUSH2 0x552 JUMPI DUP5 DUP10 ADD MLOAD PUSH2 0x54E PUSH1 0x1F DUP10 AND DUP3 PUSH2 0x461 JUMP JUMPDEST DUP4 SSTORE POP JUMPDEST PUSH1 0x1 PUSH1 0x2 DUP9 MUL ADD DUP9 SSTORE POP POP POP JUMPDEST POP POP POP POP POP POP JUMP JUMPDEST PUSH2 0x28EA DUP1 PUSH2 0x574 PUSH0 CODECOPY PUSH0 RETURN INVALID PUSH1 0x80 PUSH1 0x40 MSTORE CALLVALUE DUP1 ISZERO PUSH2 0xF JUMPI PUSH0 DUP1 REVERT JUMPDEST POP PUSH1 0x4 CALLDATASIZE LT PUSH2 0x113 JUMPI PUSH0 CALLDATALOAD PUSH1 0xE0 SHR DUP1 PUSH4 0x715018A6 GT PUSH2 0xA0 JUMPI DUP1 PUSH4 0xA22CB465 GT PUSH2 0x6F JUMPI DUP1 PUSH4 0xA22CB465 EQ PUSH2 0x313 JUMPI DUP1 PUSH4 0xAC9B6BC4 EQ PUSH2 0x32F JUMPI DUP1 PUSH4 0xE985E9C5 EQ PUSH2 0x35F JUMPI DUP1 PUSH4 0xF242432A EQ PUSH2 0x38F JUMPI DUP1 PUSH4 0xF2FDE38B EQ PUSH2 0x3AB JUMPI PUSH2 0x113 JUMP JUMPDEST DUP1 PUSH4 0x715018A6 EQ PUSH2 0x2B3 JUMPI DUP1 PUSH4 0x7BBFD9ED EQ PUSH2 0x2BD JUMPI DUP1 PUSH4 0x8DA5CB5B EQ PUSH2 0x2D9 JUMPI DUP1 PUSH4 0x9B7C4B4B EQ PUSH2 0x2F7 JUMPI PUSH2 0x113 JUMP JUMPDEST DUP1 PUSH4 0x2EB2C2D6 GT PUSH2 0xE7 JUMPI DUP1 PUSH4 0x2EB2C2D6 EQ PUSH2 0x1D7 JUMPI DUP1 PUSH4 0x32CDCFF8 EQ PUSH2 0x1F3 JUMPI DUP1 PUSH4 0x4E1273F4 EQ PUSH2 0x223 JUMPI DUP1 PUSH4 0x55A24D3B EQ PUSH2 0x253 JUMPI DUP1 PUSH4 0x6E319077 EQ PUSH2 0x283 JUMPI PUSH2 0x113 JUMP JUMPDEST DUP1 PUSH3 0xFDD58E EQ PUSH2 0x117 JUMPI DUP1 PUSH4 0x1FFC9A7 EQ PUSH2 0x147 JUMPI DUP1 PUSH4 0x6DFDB2D EQ PUSH2 0x177 JUMPI DUP1 PUSH4 0xE89341C EQ PUSH2 0x1A7 JUMPI JUMPDEST PUSH0 DUP1 REVERT JUMPDEST PUSH2 0x131 PUSH1 0x4 DUP1 CALLDATASIZE SUB DUP2 ADD SWAP1 PUSH2 0x12C SWAP2 SWAP1 PUSH2 0x199D JUMP JUMPDEST PUSH2 0x3C7 JUMP JUMPDEST PUSH1 0x40 MLOAD PUSH2 0x13E SWAP2 SWAP1 PUSH2 0x19EA JUMP JUMPDEST PUSH1 0x40 MLOAD DUP1 SWAP2 SUB SWAP1 RETURN JUMPDEST PUSH2 0x161 PUSH1 0x4 DUP1 CALLDATASIZE SUB DUP2 ADD SWAP1 PUSH2 0x15C SWAP2 SWAP1 PUSH2 0x1A58 JUMP JUMPDEST PUSH2 0x41C JUMP JUMPDEST PUSH1 0x40 MLOAD PUSH2 0x16E SWAP2 SWAP1 PUSH2 0x1A9D JUMP JUMPDEST PUSH1 0x40 MLOAD DUP1 SWAP2 SUB SWAP1 RETURN JUMPDEST PUSH2 0x191 PUSH1 0x4 DUP1 CALLDATASIZE SUB DUP2 ADD SWAP1 PUSH2 0x18C SWAP2 SWAP1 PUSH2 0x1AB6 JUMP JUMPDEST PUSH2 0x4FD JUMP JUMPDEST PUSH1 0x40 MLOAD PUSH2 0x19E SWAP2 SWAP1 PUSH2 0x19EA JUMP JUMPDEST PUSH1 0x40 MLOAD DUP1 SWAP2 SUB SWAP1 RETURN JUMPDEST PUSH2 0x1C1 PUSH1 0x4 DUP1 CALLDATASIZE SUB DUP2 ADD SWAP1 PUSH2 0x1BC SWAP2 SWAP1 PUSH2 0x1AB6 JUMP JUMPDEST PUSH2 0x517 JUMP JUMPDEST PUSH1 0x40 MLOAD PUSH2 0x1CE SWAP2 SWAP1 PUSH2 0x1B51 JUMP JUMPDEST PUSH1 0x40 MLOAD DUP1 SWAP2 SUB SWAP1 RETURN JUMPDEST PUSH2 0x1F1 PUSH1 0x4 DUP1 CALLDATASIZE SUB DUP2 ADD SWAP1 PUSH2 0x1EC SWAP2 SWAP1 PUSH2 0x1D61 JUMP JUMPDEST PUSH2 0x5B8 JUMP JUMPDEST STOP JUMPDEST PUSH2 0x20D PUSH1 0x4 DUP1 CALLDATASIZE SUB DUP2 ADD SWAP1 PUSH2 0x208 SWAP2 SWAP1 PUSH2 0x1AB6 JUMP JUMPDEST PUSH2 0x65F JUMP JUMPDEST PUSH1 0x40 MLOAD PUSH2 0x21A SWAP2 SWAP1 PUSH2 0x19EA JUMP JUMPDEST PUSH1 0x40 MLOAD DUP1 SWAP2 SUB SWAP1 RETURN JUMPDEST PUSH2 0x23D PUSH1 0x4 DUP1 CALLDATASIZE SUB DUP2 ADD SWAP1 PUSH2 0x238 SWAP2 SWAP1 PUSH2 0x1EEC JUMP JUMPDEST PUSH2 0x674 JUMP JUMPDEST PUSH1 0x40 MLOAD PUSH2 0x24A SWAP2 SWAP1 PUSH2 0x2019 JUMP JUMPDEST PUSH1 0x40 MLOAD DUP1 SWAP2 SUB SWAP1 RETURN JUMPDEST PUSH2 0x26D PUSH1 0x4 DUP1 CALLDATASIZE SUB DUP2 ADD SWAP1 PUSH2 0x268 SWAP2 SWAP1 PUSH2 0x20D7 JUMP JUMPDEST PUSH2 0x77B JUMP JUMPDEST PUSH1 0x40 MLOAD PUSH2 0x27A SWAP2 SWAP1 PUSH2 0x19EA JUMP JUMPDEST PUSH1 0x40 MLOAD DUP1 SWAP2 SUB SWAP1 RETURN JUMPDEST PUSH2 0x29D PUSH1 0x4 DUP1 CALLDATASIZE SUB DUP2 ADD SWAP1 PUSH2 0x298 SWAP2 SWAP1 PUSH2 0x1AB6 JUMP JUMPDEST PUSH2 0x81C JUMP JUMPDEST PUSH1 0x40 MLOAD PUSH2 0x2AA SWAP2 SWAP1 PUSH2 0x19EA JUMP JUMPDEST PUSH1 0x40 MLOAD DUP1 SWAP2 SUB SWAP1 RETURN JUMPDEST PUSH2 0x2BB PUSH2 0x831 JUMP JUMPDEST STOP JUMPDEST PUSH2 0x2D7 PUSH1 0x4 DUP1 CALLDATASIZE SUB DUP2 ADD SWAP1 PUSH2 0x2D2 SWAP2 SWAP1 PUSH2 0x2143 JUMP JUMPDEST PUSH2 0x844 JUMP JUMPDEST STOP JUMPDEST PUSH2 0x2E1 PUSH2 0x8AF JUMP JUMPDEST PUSH1 0x40 MLOAD PUSH2 0x2EE SWAP2 SWAP1 PUSH2 0x2190 JUMP JUMPDEST PUSH1 0x40 MLOAD DUP1 SWAP2 SUB SWAP1 RETURN JUMPDEST PUSH2 0x311 PUSH1 0x4 DUP1 CALLDATASIZE SUB DUP2 ADD SWAP1 PUSH2 0x30C SWAP2 SWAP1 PUSH2 0x2143 JUMP JUMPDEST PUSH2 0x8D7 JUMP JUMPDEST STOP JUMPDEST PUSH2 0x32D PUSH1 0x4 DUP1 CALLDATASIZE SUB DUP2 ADD SWAP1 PUSH2 0x328 SWAP2 SWAP1 PUSH2 0x21D3 JUMP JUMPDEST PUSH2 0x931 JUMP JUMPDEST STOP JUMPDEST PUSH2 0x349 PUSH1 0x4 DUP1 CALLDATASIZE SUB DUP2 ADD SWAP1 PUSH2 0x344 SWAP2 SWAP1 PUSH2 0x1AB6 JUMP JUMPDEST PUSH2 0x947 JUMP JUMPDEST PUSH1 0x40 MLOAD PUSH2 0x356 SWAP2 SWAP1 PUSH2 0x19EA JUMP JUMPDEST PUSH1 0x40 MLOAD DUP1 SWAP2 SUB SWAP1 RETURN JUMPDEST PUSH2 0x379 PUSH1 0x4 DUP1 CALLDATASIZE SUB DUP2 ADD SWAP1 PUSH2 0x374 SWAP2 SWAP1 PUSH2 0x2211 JUMP JUMPDEST PUSH2 0x961 JUMP JUMPDEST PUSH1 0x40 MLOAD PUSH2 0x386 SWAP2 SWAP1 PUSH2 0x1A9D JUMP JUMPDEST PUSH1 0x40 MLOAD DUP1 SWAP2 SUB SWAP1 RETURN JUMPDEST PUSH2 0x3A9 PUSH1 0x4 DUP1 CALLDATASIZE SUB DUP2 ADD SWAP1 PUSH2 0x3A4 SWAP2 SWAP1 PUSH2 0x224F JUMP JUMPDEST PUSH2 0x9EF JUMP JUMPDEST STOP JUMPDEST PUSH2 0x3C5 PUSH1 0x4 DUP1 CALLDATASIZE SUB DUP2 ADD SWAP1 PUSH2 0x3C0 SWAP2 SWAP1 PUSH2 0x22E2 JUMP JUMPDEST PUSH2 0xA96 JUMP JUMPDEST STOP JUMPDEST PUSH0 DUP1 PUSH0 DUP4 DUP2 MSTORE PUSH1 0x20 ADD SWAP1 DUP2 MSTORE PUSH1 0x20 ADD PUSH0 KECCAK256 PUSH0 DUP5 PUSH20 0xFFFFFFFFFFFFFFFFFFFFFFFFFFFFFFFFFFFFFFFF AND PUSH20 0xFFFFFFFFFFFFFFFFFFFFFFFFFFFFFFFFFFFFFFFF AND DUP2 MSTORE PUSH1 0x20 ADD SWAP1 DUP2 MSTORE PUSH1 0x20 ADD PUSH0 KECCAK256 SLOAD SWAP1 POP SWAP3 SWAP2 POP POP JUMP JUMPDEST PUSH0 PUSH32 0xD9B67A2600000000000000000000000000000000000000000000000000000000 PUSH28 0xFFFFFFFFFFFFFFFFFFFFFFFFFFFFFFFFFFFFFFFFFFFFFFFFFFFFFFFF NOT AND DUP3 PUSH28 0xFFFFFFFFFFFFFFFFFFFFFFFFFFFFFFFFFFFFFFFFFFFFFFFFFFFFFFFF NOT AND EQ DUP1 PUSH2 0x4E6 JUMPI POP PUSH32 0xE89341C00000000000000000000000000000000000000000000000000000000 PUSH28 0xFFFFFFFFFFFFFFFFFFFFFFFFFFFFFFFFFFFFFFFFFFFFFFFFFFFFFFFF NOT AND DUP3 PUSH28 0xFFFFFFFFFFFFFFFFFFFFFFFFFFFFFFFFFFFFFFFFFFFFFFFFFFFFFFFF NOT AND EQ JUMPDEST DUP1 PUSH2 0x4F6 JUMPI POP PUSH2 0x4F5 DUP3 PUSH2 0xB1A JUMP JUMPDEST JUMPDEST SWAP1 POP SWAP2 SWAP1 POP JUMP JUMPDEST PUSH0 PUSH1 0x6 PUSH0 DUP4 DUP2 MSTORE PUSH1 0x20 ADD SWAP1 DUP2 MSTORE PUSH1 0x20 ADD PUSH0 KECCAK256 SLOAD SWAP1 POP SWAP2 SWAP1 POP JUMP JUMPDEST PUSH1 0x60 PUSH1 0x5 PUSH0 DUP4 DUP2 MSTORE PUSH1 0x20 ADD SWAP1 DUP2 MSTORE PUSH1 0x20 ADD PUSH0 KECCAK256 DUP1 SLOAD PUSH2 0x535 SWAP1 PUSH2 0x233A JUMP JUMPDEST DUP1 PUSH1 0x1F ADD PUSH1 0x20 DUP1 SWAP2 DIV MUL PUSH1 0x20 ADD PUSH1 0x40 MLOAD SWAP1 DUP2 ADD PUSH1 0x40 MSTORE DUP1 SWAP3 SWAP2 SWAP1 DUP2 DUP2 MSTORE PUSH1 0x20 ADD DUP3 DUP1 SLOAD PUSH2 0x561 SWAP1 PUSH2 0x233A JUMP JUMPDEST DUP1 ISZERO PUSH2 0x5AC JUMPI DUP1 PUSH1 0x1F LT PUSH2 0x583 JUMPI PUSH2 0x100 DUP1 DUP4 SLOAD DIV MUL DUP4 MSTORE SWAP2 PUSH1 0x20 ADD SWAP2 PUSH2 0x5AC JUMP JUMPDEST DUP3 ADD SWAP2 SWAP1 PUSH0 MSTORE PUSH1 0x20 PUSH0 KECCAK256 SWAP1 JUMPDEST DUP2 SLOAD DUP2 MSTORE SWAP1 PUSH1 0x1 ADD SWAP1 PUSH1 0x20 ADD DUP1 DUP4 GT PUSH2 0x58F JUMPI DUP3 SWAP1 SUB PUSH1 0x1F AND DUP3 ADD SWAP2 JUMPDEST POP POP POP POP POP SWAP1 POP SWAP2 SWAP1 POP JUMP JUMPDEST PUSH0 PUSH2 0x5C1 PUSH2 0xB83 JUMP JUMPDEST SWAP1 POP DUP1 PUSH20 0xFFFFFFFFFFFFFFFFFFFFFFFFFFFFFFFFFFFFFFFF AND DUP7 PUSH20 0xFFFFFFFFFFFFFFFFFFFFFFFFFFFFFFFFFFFFFFFF AND EQ ISZERO DUP1 ISZERO PUSH2 0x606 JUMPI POP PUSH2 0x604 DUP7 DUP3 PUSH2 0x961 JUMP JUMPDEST ISZERO JUMPDEST ISZERO PUSH2 0x64A JUMPI DUP1 DUP7 PUSH1 0x40 MLOAD PUSH32 0xE237D92200000000000000000000000000000000000000000000000000000000 DUP2 MSTORE PUSH1 0x4 ADD PUSH2 0x641 SWAP3 SWAP2 SWAP1 PUSH2 0x236A JUMP JUMPDEST PUSH1 0x40 MLOAD DUP1 SWAP2 SUB SWAP1 REVERT JUMPDEST PUSH2 0x657 DUP7 DUP7 DUP7 DUP7 DUP7 PUSH2 0xB8A JUMP JUMPDEST POP POP POP POP POP POP JUMP JUMPDEST PUSH1 0x7 PUSH1 0x20 MSTORE DUP1 PUSH0 MSTORE PUSH1 0x40 PUSH0 KECCAK256 PUSH0 SWAP2 POP SWAP1 POP SLOAD DUP2 JUMP JUMPDEST PUSH1 0x60 DUP2 MLOAD DUP4 MLOAD EQ PUSH2 0x6C0 JUMPI DUP2 MLOAD DUP4 MLOAD PUSH1 0x40 MLOAD PUSH32 0x5B05999100000000000000000000000000000000000000000000000000000000 DUP2 MSTORE PUSH1 0x4 ADD PUSH2 0x6B7 SWAP3 SWAP2 SWAP1 PUSH2 0x2391 JUMP JUMPDEST PUSH1 0x40 MLOAD DUP1 SWAP2 SUB SWAP1 REVERT JUMPDEST PUSH0 DUP4 MLOAD PUSH8 0xFFFFFFFFFFFFFFFF DUP2 GT ISZERO PUSH2 0x6DC JUMPI PUSH2 0x6DB PUSH2 0x1B75 JUMP JUMPDEST JUMPDEST PUSH1 0x40 MLOAD SWAP1 DUP1 DUP3 MSTORE DUP1 PUSH1 0x20 MUL PUSH1 0x20 ADD DUP3 ADD PUSH1 0x40 MSTORE DUP1 ISZERO PUSH2 0x70A JUMPI DUP2 PUSH1 0x20 ADD PUSH1 0x20 DUP3 MUL DUP1 CALLDATASIZE DUP4 CALLDATACOPY DUP1 DUP3 ADD SWAP2 POP POP SWAP1 POP JUMPDEST POP SWAP1 POP PUSH0 JUMPDEST DUP5 MLOAD DUP2 LT ISZERO PUSH2 0x770 JUMPI PUSH2 0x746 PUSH2 0x72E DUP3 DUP8 PUSH2 0xC7E SWAP1 SWAP2 SWAP1 PUSH4 0xFFFFFFFF AND JUMP JUMPDEST PUSH2 0x741 DUP4 DUP8 PUSH2 0xC91 SWAP1 SWAP2 SWAP1 PUSH4 0xFFFFFFFF AND JUMP JUMPDEST PUSH2 0x3C7 JUMP JUMPDEST DUP3 DUP3 DUP2 MLOAD DUP2 LT PUSH2 0x759 JUMPI PUSH2 0x758 PUSH2 0x23B8 JUMP JUMPDEST JUMPDEST PUSH1 0x20 MUL PUSH1 0x20 ADD ADD DUP2 DUP2 MSTORE POP POP DUP1 PUSH1 0x1 ADD SWAP1 POP PUSH2 0x70F JUMP JUMPDEST POP DUP1 SWAP2 POP POP SWAP3 SWAP2 POP POP JUMP JUMPDEST PUSH0 PUSH2 0x784 PUSH2 0xCA4 JUMP JUMPDEST PUSH2 0x78E PUSH1 0x4 PUSH2 0xD2B JUMP JUMPDEST PUSH0 PUSH2 0x799 PUSH1 0x4 PUSH2 0xD3F JUMP JUMPDEST SWAP1 POP PUSH2 0x7B5 CALLER DUP3 DUP7 PUSH1 0x40 MLOAD DUP1 PUSH1 0x20 ADD PUSH1 0x40 MSTORE DUP1 PUSH0 DUP2 MSTORE POP PUSH2 0xD4B JUMP JUMPDEST PUSH2 0x7BF DUP2 DUP7 PUSH2 0xDE0 JUMP JUMPDEST DUP3 PUSH1 0x6 PUSH0 DUP4 DUP2 MSTORE PUSH1 0x20 ADD SWAP1 DUP2 MSTORE PUSH1 0x20 ADD PUSH0 KECCAK256 DUP2 SWAP1 SSTORE POP DUP1 PUSH32 0x619177337325F2035F1286340AE066D525900D5906CC94F895375AFFFA19DA1 DUP7 DUP7 DUP7 PUSH1 0x40 MLOAD PUSH2 0x809 SWAP4 SWAP3 SWAP2 SWAP1 PUSH2 0x23E5 JUMP JUMPDEST PUSH1 0x40 MLOAD DUP1 SWAP2 SUB SWAP1 LOG2 DUP1 SWAP2 POP POP SWAP4 SWAP3 POP POP POP JUMP JUMPDEST PUSH1 0x6 PUSH1 0x20 MSTORE DUP1 PUSH0 MSTORE PUSH1 0x40 PUSH0 KECCAK256 PUSH0 SWAP2 POP SWAP1 POP SLOAD DUP2 JUMP JUMPDEST PUSH2 0x839 PUSH2 0xCA4 JUMP JUMPDEST PUSH2 0x842 PUSH0 PUSH2 0xE03 JUMP JUMPDEST JUMP JUMPDEST PUSH2 0x84C PUSH2 0xCA4 JUMP JUMPDEST DUP1 PUSH1 0x7 PUSH0 DUP5 DUP2 MSTORE PUSH1 0x20 ADD SWAP1 DUP2 MSTORE PUSH1 0x20 ADD PUSH0 KECCAK256 PUSH0 DUP3 DUP3 SLOAD PUSH2 0x86C SWAP2 SWAP1 PUSH2 0x244E JUMP JUMPDEST SWAP3 POP POP DUP2 SWAP1 SSTORE POP DUP2 PUSH32 0x7C4FCC0416FDE9BE2A0D84BF5D8523240AFF2D42765C7BB965E4864F2CCA9D63 DUP3 PUSH1 0x40 MLOAD PUSH2 0x8A3 SWAP2 SWAP1 PUSH2 0x19EA JUMP JUMPDEST PUSH1 0x40 MLOAD DUP1 SWAP2 SUB SWAP1 LOG2 POP POP JUMP JUMPDEST PUSH0 PUSH1 0x3 PUSH0 SWAP1 SLOAD SWAP1 PUSH2 0x100 EXP SWAP1 DIV PUSH20 0xFFFFFFFFFFFFFFFFFFFFFFFFFFFFFFFFFFFFFFFF AND SWAP1 POP SWAP1 JUMP JUMPDEST PUSH2 0x8DF PUSH2 0xCA4 JUMP JUMPDEST DUP1 PUSH1 0x6 PUSH0 DUP5 DUP2 MSTORE PUSH1 0x20 ADD SWAP1 DUP2 MSTORE PUSH1 0x20 ADD PUSH0 KECCAK256 DUP2 SWAP1 SSTORE POP DUP2 PUSH32 0x38FECA60919CB6C50D2BDA77CC786B4121A0AB59FDCBCCAD58C37F0BC84869E9 DUP3 PUSH1 0x40 MLOAD PUSH2 0x925 SWAP2 SWAP1 PUSH2 0x19EA JUMP JUMPDEST PUSH1 0x40 MLOAD DUP1 SWAP2 SUB SWAP1 LOG2 POP POP JUMP JUMPDEST PUSH2 0x943 PUSH2 0x93C PUSH2 0xB83 JUMP JUMPDEST DUP4 DUP4 PUSH2 0xEC6 JUMP JUMPDEST POP POP JUMP JUMPDEST PUSH0 PUSH1 0x7 PUSH0 DUP4 DUP2 MSTORE PUSH1 0x20 ADD SWAP1 DUP2 MSTORE PUSH1 0x20 ADD PUSH0 KECCAK256 SLOAD SWAP1 POP SWAP2 SWAP1 POP JUMP JUMPDEST PUSH0 PUSH1 0x1 PUSH0 DUP5 PUSH20 0xFFFFFFFFFFFFFFFFFFFFFFFFFFFFFFFFFFFFFFFF AND PUSH20 0xFFFFFFFFFFFFFFFFFFFFFFFFFFFFFFFFFFFFFFFF AND DUP2 MSTORE PUSH1 0x20 ADD SWAP1 DUP2 MSTORE PUSH1 0x20 ADD PUSH0 KECCAK256 PUSH0 DUP4 PUSH20 0xFFFFFFFFFFFFFFFFFFFFFFFFFFFFFFFFFFFFFFFF AND PUSH20 0xFFFFFFFFFFFFFFFFFFFFFFFFFFFFFFFFFFFFFFFF AND DUP2 MSTORE PUSH1 0x20 ADD SWAP1 DUP2 MSTORE PUSH1 0x20 ADD PUSH0 KECCAK256 PUSH0 SWAP1 SLOAD SWAP1 PUSH2 0x100 EXP SWAP1 DIV PUSH1 0xFF AND SWAP1 POP SWAP3 SWAP2 POP POP JUMP JUMPDEST PUSH0 PUSH2 0x9F8 PUSH2 0xB83 JUMP JUMPDEST SWAP1 POP DUP1 PUSH20 0xFFFFFFFFFFFFFFFFFFFFFFFFFFFFFFFFFFFFFFFF AND DUP7 PUSH20 0xFFFFFFFFFFFFFFFFFFFFFFFFFFFFFFFFFFFFFFFF AND EQ ISZERO DUP1 ISZERO PUSH2 0xA3D JUMPI POP PUSH2 0xA3B DUP7 DUP3 PUSH2 0x961 JUMP JUMPDEST ISZERO JUMPDEST ISZERO PUSH2 0xA81 JUMPI DUP1 DUP7 PUSH1 0x40 MLOAD PUSH32 0xE237D92200000000000000000000000000000000000000000000000000000000 DUP2 MSTORE PUSH1 0x4 ADD PUSH2 0xA78 SWAP3 SWAP2 SWAP1 PUSH2 0x236A JUMP JUMPDEST PUSH1 0x40 MLOAD DUP1 SWAP2 SUB SWAP1 REVERT JUMPDEST PUSH2 0xA8E DUP7 DUP7 DUP7 DUP7 DUP7 PUSH2 0x102F JUMP JUMPDEST POP POP POP POP POP POP JUMP JUMPDEST PUSH2 0xA9E PUSH2 0xCA4 JUMP JUMPDEST PUSH0 PUSH20 0xFFFFFFFFFFFFFFFFFFFFFFFFFFFFFFFFFFFFFFFF AND DUP2 PUSH20 0xFFFFFFFFFFFFFFFFFFFFFFFFFFFFFFFFFFFFFFFF AND SUB PUSH2 0xB0E JUMPI PUSH0 PUSH1 0x40 MLOAD PUSH32 0x1E4FBDF700000000000000000000000000000000000000000000000000000000 DUP2 MSTORE PUSH1 0x4 ADD PUSH2 0xB05 SWAP2 SWAP1 PUSH2 0x2190 JUMP JUMPDEST PUSH1 0x40 MLOAD DUP1 SWAP2 SUB SWAP1 REVERT JUMPDEST PUSH2 0xB17 DUP2 PUSH2 0xE03 JUMP JUMPDEST POP JUMP JUMPDEST PUSH0 PUSH32 0x1FFC9A700000000000000000000000000000000000000000000000000000000 PUSH28 0xFFFFFFFFFFFFFFFFFFFFFFFFFFFFFFFFFFFFFFFFFFFFFFFFFFFFFFFF NOT AND DUP3 PUSH28 0xFFFFFFFFFFFFFFFFFFFFFFFFFFFFFFFFFFFFFFFFFFFFFFFFFFFFFFFF NOT AND EQ SWAP1 POP SWAP2 SWAP1 POP JUMP JUMPDEST PUSH0 CALLER SWAP1 POP SWAP1 JUMP JUMPDEST PUSH0 PUSH20 0xFFFFFFFFFFFFFFFFFFFFFFFFFFFFFFFFFFFFFFFF AND DUP5 PUSH20 0xFFFFFFFFFFFFFFFFFFFFFFFFFFFFFFFFFFFFFFFF AND SUB PUSH2 0xBFA JUMPI PUSH0 PUSH1 0x40 MLOAD PUSH32 0x57F447CE00000000000000000000000000000000000000000000000000000000 DUP2 MSTORE PUSH1 0x4 ADD PUSH2 0xBF1 SWAP2 SWAP1 PUSH2 0x2190 JUMP JUMPDEST PUSH1 0x40 MLOAD DUP1 SWAP2 SUB SWAP1 REVERT JUMPDEST PUSH0 PUSH20 0xFFFFFFFFFFFFFFFFFFFFFFFFFFFFFFFFFFFFFFFF AND DUP6 PUSH20 0xFFFFFFFFFFFFFFFFFFFFFFFFFFFFFFFFFFFFFFFF AND SUB PUSH2 0xC6A JUMPI PUSH0 PUSH1 0x40 MLOAD PUSH32 0x1A8351400000000000000000000000000000000000000000000000000000000 DUP2 MSTORE PUSH1 0x4 ADD PUSH2 0xC61 SWAP2 SWAP1 PUSH2 0x2190 JUMP JUMPDEST PUSH1 0x40 MLOAD DUP1 SWAP2 SUB SWAP1 REVERT JUMPDEST PUSH2 0xC77 DUP6 DUP6 DUP6 DUP6 DUP6 PUSH2 0x1135 JUMP JUMPDEST POP POP POP POP POP JUMP JUMPDEST PUSH0 PUSH1 0x20 DUP3 MUL PUSH1 0x20 DUP5 ADD ADD MLOAD SWAP1 POP SWAP3 SWAP2 POP POP JUMP JUMPDEST PUSH0 PUSH1 0x20 DUP3 MUL PUSH1 0x20 DUP5 ADD ADD MLOAD SWAP1 POP SWAP3 SWAP2 POP POP JUMP JUMPDEST PUSH2 0xCAC PUSH2 0xB83 JUMP JUMPDEST PUSH20 0xFFFFFFFFFFFFFFFFFFFFFFFFFFFFFFFFFFFFFFFF AND PUSH2 0xCCA PUSH2 0x8AF JUMP JUMPDEST PUSH20 0xFFFFFFFFFFFFFFFFFFFFFFFFFFFFFFFFFFFFFFFF AND EQ PUSH2 0xD29 JUMPI PUSH2 0xCED PUSH2 0xB83 JUMP JUMPDEST PUSH1 0x40 MLOAD PUSH32 0x118CDAA700000000000000000000000000000000000000000000000000000000 DUP2 MSTORE PUSH1 0x4 ADD PUSH2 0xD20 SWAP2 SWAP1 PUSH2 0x2190 JUMP JUMPDEST PUSH1 0x40 MLOAD DUP1 SWAP2 SUB SWAP1 REVERT JUMPDEST JUMP JUMPDEST PUSH1 0x1 DUP2 PUSH0 ADD PUSH0 DUP3 DUP3 SLOAD ADD SWAP3 POP POP DUP2 SWAP1 SSTORE POP POP JUMP JUMPDEST PUSH0 DUP2 PUSH0 ADD SLOAD SWAP1 POP SWAP2 SWAP1 POP JUMP JUMPDEST PUSH0 PUSH20 0xFFFFFFFFFFFFFFFFFFFFFFFFFFFFFFFFFFFFFFFF AND DUP5 PUSH20 0xFFFFFFFFFFFFFFFFFFFFFFFFFFFFFFFFFFFFFFFF AND SUB PUSH2 0xDBB JUMPI PUSH0 PUSH1 0x40 MLOAD PUSH32 0x57F447CE00000000000000000000000000000000000000000000000000000000 DUP2 MSTORE PUSH1 0x4 ADD PUSH2 0xDB2 SWAP2 SWAP1 PUSH2 0x2190 JUMP JUMPDEST PUSH1 0x40 MLOAD DUP1 SWAP2 SUB SWAP1 REVERT JUMPDEST PUSH0 DUP1 PUSH2 0xDC7 DUP6 DUP6 PUSH2 0x11E1 JUMP JUMPDEST SWAP2 POP SWAP2 POP PUSH2 0xDD8 PUSH0 DUP8 DUP5 DUP5 DUP8 PUSH2 0x1135 JUMP JUMPDEST POP POP POP POP POP POP JUMP JUMPDEST DUP1 PUSH1 0x5 PUSH0 DUP5 DUP2 MSTORE PUSH1 0x20 ADD SWAP1 DUP2 MSTORE PUSH1 0x20 ADD PUSH0 KECCAK256 SWAP1 DUP2 PUSH2 0xDFE SWAP2 SWAP1 PUSH2 0x261E JUMP JUMPDEST POP POP POP JUMP JUMPDEST PUSH0 PUSH1 0x3 PUSH0 SWAP1 SLOAD SWAP1 PUSH2 0x100 EXP SWAP1 DIV PUSH20 0xFFFFFFFFFFFFFFFFFFFFFFFFFFFFFFFFFFFFFFFF AND SWAP1 POP DUP2 PUSH1 0x3 PUSH0 PUSH2 0x100 EXP DUP2 SLOAD DUP2 PUSH20 0xFFFFFFFFFFFFFFFFFFFFFFFFFFFFFFFFFFFFFFFF MUL NOT AND SWAP1 DUP4 PUSH20 0xFFFFFFFFFFFFFFFFFFFFFFFFFFFFFFFFFFFFFFFF AND MUL OR SWAP1 SSTORE POP DUP2 PUSH20 0xFFFFFFFFFFFFFFFFFFFFFFFFFFFFFFFFFFFFFFFF AND DUP2 PUSH20 0xFFFFFFFFFFFFFFFFFFFFFFFFFFFFFFFFFFFFFFFF AND PUSH32 0x8BE0079C531659141344CD1FD0A4F28419497F9722A3DAAFE3B4186F6B6457E0 PUSH1 0x40 MLOAD PUSH1 0x40 MLOAD DUP1 SWAP2 SUB SWAP1 LOG3 POP POP JUMP JUMPDEST PUSH0 PUSH20 0xFFFFFFFFFFFFFFFFFFFFFFFFFFFFFFFFFFFFFFFF AND DUP3 PUSH20 0xFFFFFFFFFFFFFFFFFFFFFFFFFFFFFFFFFFFFFFFF AND SUB PUSH2 0xF36 JUMPI PUSH0 PUSH1 0x40 MLOAD PUSH32 0xCED3E10000000000000000000000000000000000000000000000000000000000 DUP2 MSTORE PUSH1 0x4 ADD PUSH2 0xF2D SWAP2 SWAP1 PUSH2 0x2190 JUMP JUMPDEST PUSH1 0x40 MLOAD DUP1 SWAP2 SUB SWAP1 REVERT JUMPDEST DUP1 PUSH1 0x1 PUSH0 DUP6 PUSH20 0xFFFFFFFFFFFFFFFFFFFFFFFFFFFFFFFFFFFFFFFF AND PUSH20 0xFFFFFFFFFFFFFFFFFFFFFFFFFFFFFFFFFFFFFFFF AND DUP2 MSTORE PUSH1 0x20 ADD SWAP1 DUP2 MSTORE PUSH1 0x20 ADD PUSH0 KECCAK256 PUSH0 DUP5 PUSH20 0xFFFFFFFFFFFFFFFFFFFFFFFFFFFFFFFFFFFFFFFF AND PUSH20 0xFFFFFFFFFFFFFFFFFFFFFFFFFFFFFFFFFFFFFFFF AND DUP2 MSTORE PUSH1 0x20 ADD SWAP1 DUP2 MSTORE PUSH1 0x20 ADD PUSH0 KECCAK256 PUSH0 PUSH2 0x100 EXP DUP2 SLOAD DUP2 PUSH1 0xFF MUL NOT AND SWAP1 DUP4 ISZERO ISZERO MUL OR SWAP1 SSTORE POP DUP2 PUSH20 0xFFFFFFFFFFFFFFFFFFFFFFFFFFFFFFFFFFFFFFFF AND DUP4 PUSH20 0xFFFFFFFFFFFFFFFFFFFFFFFFFFFFFFFFFFFFFFFF AND PUSH32 0x17307EAB39AB6107E8899845AD3D59BD9653F200F220920489CA2B5937696C31 DUP4 PUSH1 0x40 MLOAD PUSH2 0x1022 SWAP2 SWAP1 PUSH2 0x1A9D JUMP JUMPDEST PUSH1 0x40 MLOAD DUP1 SWAP2 SUB SWAP1 LOG3 POP POP POP JUMP JUMPDEST PUSH0 PUSH20 0xFFFFFFFFFFFFFFFFFFFFFFFFFFFFFFFFFFFFFFFF AND DUP5 PUSH20 0xFFFFFFFFFFFFFFFFFFFFFFFFFFFFFFFFFFFFFFFF AND SUB PUSH2 0x109F JUMPI PUSH0 PUSH1 0x40 MLOAD PUSH32 0x57F447CE00000000000000000000000000000000000000000000000000000000 DUP2 MSTORE PUSH1 0x4 ADD PUSH2 0x1096 SWAP2 SWAP1 PUSH2 0x2190 JUMP JUMPDEST PUSH1 0x40 MLOAD DUP1 SWAP2 SUB SWAP1 REVERT JUMPDEST PUSH0 PUSH20 0xFFFFFFFFFFFFFFFFFFFFFFFFFFFFFFFFFFFFFFFF AND DUP6 PUSH20 0xFFFFFFFFFFFFFFFFFFFFFFFFFFFFFFFFFFFFFFFF AND SUB PUSH2 0x110F JUMPI PUSH0 PUSH1 0x40 MLOAD PUSH32 0x1A8351400000000000000000000000000000000000000000000000000000000 DUP2 MSTORE PUSH1 0x4 ADD PUSH2 0x1106 SWAP2 SWAP1 PUSH2 0x2190 JUMP JUMPDEST PUSH1 0x40 MLOAD DUP1 SWAP2 SUB SWAP1 REVERT JUMPDEST PUSH0 DUP1 PUSH2 0x111B DUP6 DUP6 PUSH2 0x11E1 JUMP JUMPDEST SWAP2 POP SWAP2 POP PUSH2 0x112C DUP8 DUP8 DUP5 DUP5 DUP8 PUSH2 0x1135 JUMP JUMPDEST POP POP POP POP POP POP POP JUMP JUMPDEST PUSH2 0x1141 DUP6 DUP6 DUP6 DUP6 PUSH2 0x1211 JUMP JUMPDEST PUSH0 PUSH20 0xFFFFFFFFFFFFFFFFFFFFFFFFFFFFFFFFFFFFFFFF AND DUP5 PUSH20 0xFFFFFFFFFFFFFFFFFFFFFFFFFFFFFFFFFFFFFFFF AND EQ PUSH2 0x11DA JUMPI PUSH0 PUSH2 0x117D PUSH2 0xB83 JUMP JUMPDEST SWAP1 POP PUSH1 0x1 DUP5 MLOAD SUB PUSH2 0x11C9 JUMPI PUSH0 PUSH2 0x119C PUSH0 DUP7 PUSH2 0xC91 SWAP1 SWAP2 SWAP1 PUSH4 0xFFFFFFFF AND JUMP JUMPDEST SWAP1 POP PUSH0 PUSH2 0x11B2 PUSH0 DUP7 PUSH2 0xC91 SWAP1 SWAP2 SWAP1 PUSH4 0xFFFFFFFF AND JUMP JUMPDEST SWAP1 POP PUSH2 0x11C2 DUP4 DUP10 DUP10 DUP6 DUP6 DUP10 PUSH2 0x15A1 JUMP JUMPDEST POP POP PUSH2 0x11D8 JUMP JUMPDEST PUSH2 0x11D7 DUP2 DUP8 DUP8 DUP8 DUP8 DUP8 PUSH2 0x1750 JUMP JUMPDEST JUMPDEST POP JUMPDEST POP POP POP POP POP JUMP JUMPDEST PUSH1 0x60 DUP1 PUSH1 0x40 MLOAD SWAP2 POP PUSH1 0x1 DUP3 MSTORE DUP4 PUSH1 0x20 DUP4 ADD MSTORE PUSH1 0x40 DUP3 ADD SWAP1 POP PUSH1 0x1 DUP2 MSTORE DUP3 PUSH1 0x20 DUP3 ADD MSTORE PUSH1 0x40 DUP2 ADD PUSH1 0x40 MSTORE SWAP3 POP SWAP3 SWAP1 POP JUMP JUMPDEST DUP1 MLOAD DUP3 MLOAD EQ PUSH2 0x125B JUMPI DUP2 MLOAD DUP2 MLOAD PUSH1 0x40 MLOAD PUSH32 0x5B05999100000000000000000000000000000000000000000000000000000000 DUP2 MSTORE PUSH1 0x4 ADD PUSH2 0x1252 SWAP3 SWAP2 SWAP1 PUSH2 0x2391 JUMP JUMPDEST PUSH1 0x40 MLOAD DUP1 SWAP2 SUB SWAP1 REVERT JUMPDEST PUSH0 PUSH2 0x1264 PUSH2 0xB83 JUMP JUMPDEST SWAP1 POP PUSH0 JUMPDEST DUP4 MLOAD DUP2 LT ISZERO PUSH2 0x1460 JUMPI PUSH0 PUSH2 0x1285 DUP3 DUP7 PUSH2 0xC91 SWAP1 SWAP2 SWAP1 PUSH4 0xFFFFFFFF AND JUMP JUMPDEST SWAP1 POP PUSH0 PUSH2 0x129B DUP4 DUP7 PUSH2 0xC91 SWAP1 SWAP2 SWAP1 PUSH4 0xFFFFFFFF AND JUMP JUMPDEST SWAP1 POP PUSH0 PUSH20 0xFFFFFFFFFFFFFFFFFFFFFFFFFFFFFFFFFFFFFFFF AND DUP9 PUSH20 0xFFFFFFFFFFFFFFFFFFFFFFFFFFFFFFFFFFFFFFFF AND EQ PUSH2 0x13BE JUMPI PUSH0 DUP1 PUSH0 DUP5 DUP2 MSTORE PUSH1 0x20 ADD SWAP1 DUP2 MSTORE PUSH1 0x20 ADD PUSH0 KECCAK256 PUSH0 DUP11 PUSH20 0xFFFFFFFFFFFFFFFFFFFFFFFFFFFFFFFFFFFFFFFF AND PUSH20 0xFFFFFFFFFFFFFFFFFFFFFFFFFFFFFFFFFFFFFFFF AND DUP2 MSTORE PUSH1 0x20 ADD SWAP1 DUP2 MSTORE PUSH1 0x20 ADD PUSH0 KECCAK256 SLOAD SWAP1 POP DUP2 DUP2 LT ISZERO PUSH2 0x136A JUMPI DUP9 DUP2 DUP4 DUP6 PUSH1 0x40 MLOAD PUSH32 0x3DEE4C500000000000000000000000000000000000000000000000000000000 DUP2 MSTORE PUSH1 0x4 ADD PUSH2 0x1361 SWAP5 SWAP4 SWAP3 SWAP2 SWAP1 PUSH2 0x26ED JUMP JUMPDEST PUSH1 0x40 MLOAD DUP1 SWAP2 SUB SWAP1 REVERT JUMPDEST DUP2 DUP2 SUB PUSH0 DUP1 DUP6 DUP2 MSTORE PUSH1 0x20 ADD SWAP1 DUP2 MSTORE PUSH1 0x20 ADD PUSH0 KECCAK256 PUSH0 DUP12 PUSH20 0xFFFFFFFFFFFFFFFFFFFFFFFFFFFFFFFFFFFFFFFF AND PUSH20 0xFFFFFFFFFFFFFFFFFFFFFFFFFFFFFFFFFFFFFFFF AND DUP2 MSTORE PUSH1 0x20 ADD SWAP1 DUP2 MSTORE PUSH1 0x20 ADD PUSH0 KECCAK256 DUP2 SWAP1 SSTORE POP POP JUMPDEST PUSH0 PUSH20 0xFFFFFFFFFFFFFFFFFFFFFFFFFFFFFFFFFFFFFFFF AND DUP8 PUSH20 0xFFFFFFFFFFFFFFFFFFFFFFFFFFFFFFFFFFFFFFFF AND EQ PUSH2 0x1453 JUMPI DUP1 PUSH0 DUP1 DUP5 DUP2 MSTORE PUSH1 0x20 ADD SWAP1 DUP2 MSTORE PUSH1 0x20 ADD PUSH0 KECCAK256 PUSH0 DUP10 PUSH20 0xFFFFFFFFFFFFFFFFFFFFFFFFFFFFFFFFFFFFFFFF AND PUSH20 0xFFFFFFFFFFFFFFFFFFFFFFFFFFFFFFFFFFFFFFFF AND DUP2 MSTORE PUSH1 0x20 ADD SWAP1 DUP2 MSTORE PUSH1 0x20 ADD PUSH0 KECCAK256 PUSH0 DUP3 DUP3 SLOAD PUSH2 0x144B SWAP2 SWAP1 PUSH2 0x244E JUMP JUMPDEST SWAP3 POP POP DUP2 SWAP1 SSTORE POP JUMPDEST POP POP DUP1 PUSH1 0x1 ADD SWAP1 POP PUSH2 0x1268 JUMP JUMPDEST POP PUSH1 0x1 DUP4 MLOAD SUB PUSH2 0x151B JUMPI PUSH0 PUSH2 0x147E PUSH0 DUP6 PUSH2 0xC91 SWAP1 SWAP2 SWAP1 PUSH4 0xFFFFFFFF AND JUMP JUMPDEST SWAP1 POP PUSH0 PUSH2 0x1494 PUSH0 DUP6 PUSH2 0xC91 SWAP1 SWAP2 SWAP1 PUSH4 0xFFFFFFFF AND JUMP JUMPDEST SWAP1 POP DUP6 PUSH20 0xFFFFFFFFFFFFFFFFFFFFFFFFFFFFFFFFFFFFFFFF AND DUP8 PUSH20 0xFFFFFFFFFFFFFFFFFFFFFFFFFFFFFFFFFFFFFFFF AND DUP5 PUSH20 0xFFFFFFFFFFFFFFFFFFFFFFFFFFFFFFFFFFFFFFFF AND PUSH32 0xC3D58168C5AE7397731D063D5BBF3D657854427343F4C083240F7AACAA2D0F62 DUP6 DUP6 PUSH1 0x40 MLOAD PUSH2 0x150C SWAP3 SWAP2 SWAP1 PUSH2 0x2391 JUMP JUMPDEST PUSH1 0x40 MLOAD DUP1 SWAP2 SUB SWAP1 LOG4 POP POP PUSH2 0x159A JUMP JUMPDEST DUP4 PUSH20 0xFFFFFFFFFFFFFFFFFFFFFFFFFFFFFFFFFFFFFFFF AND DUP6 PUSH20 0xFFFFFFFFFFFFFFFFFFFFFFFFFFFFFFFFFFFFFFFF AND DUP3 PUSH20 0xFFFFFFFFFFFFFFFFFFFFFFFFFFFFFFFFFFFFFFFF AND PUSH32 0x4A39DC06D4C0DBC64B70AF90FD698A233A518AA5D07E595D983B8C0526C8F7FB DUP7 DUP7 PUSH1 0x40 MLOAD PUSH2 0x1591 SWAP3 SWAP2 SWAP1 PUSH2 0x2730 JUMP JUMPDEST PUSH1 0x40 MLOAD DUP1 SWAP2 SUB SWAP1 LOG4 JUMPDEST POP POP POP POP POP JUMP JUMPDEST PUSH0 DUP5 PUSH20 0xFFFFFFFFFFFFFFFFFFFFFFFFFFFFFFFFFFFFFFFF AND EXTCODESIZE GT ISZERO PUSH2 0x1748 JUMPI DUP4 PUSH20 0xFFFFFFFFFFFFFFFFFFFFFFFFFFFFFFFFFFFFFFFF AND PUSH4 0xF23A6E61 DUP8 DUP8 DUP7 DUP7 DUP7 PUSH1 0x40 MLOAD DUP7 PUSH4 0xFFFFFFFF AND PUSH1 0xE0 SHL DUP2 MSTORE PUSH1 0x4 ADD PUSH2 0x1601 SWAP6 SWAP5 SWAP4 SWAP3 SWAP2 SWAP1 PUSH2 0x27B7 JUMP JUMPDEST PUSH1 0x20 PUSH1 0x40 MLOAD DUP1 DUP4 SUB DUP2 PUSH0 DUP8 GAS CALL SWAP3 POP POP POP DUP1 ISZERO PUSH2 0x163C JUMPI POP PUSH1 0x40 MLOAD RETURNDATASIZE PUSH1 0x1F NOT PUSH1 0x1F DUP3 ADD AND DUP3 ADD DUP1 PUSH1 0x40 MSTORE POP DUP2 ADD SWAP1 PUSH2 0x1639 SWAP2 SWAP1 PUSH2 0x2823 JUMP JUMPDEST PUSH1 0x1 JUMPDEST PUSH2 0x16BD JUMPI RETURNDATASIZE DUP1 PUSH0 DUP2 EQ PUSH2 0x166A JUMPI PUSH1 0x40 MLOAD SWAP2 POP PUSH1 0x1F NOT PUSH1 0x3F RETURNDATASIZE ADD AND DUP3 ADD PUSH1 0x40 MSTORE RETURNDATASIZE DUP3 MSTORE RETURNDATASIZE PUSH0 PUSH1 0x20 DUP5 ADD RETURNDATACOPY PUSH2 0x166F JUMP JUMPDEST PUSH1 0x60 SWAP2 POP JUMPDEST POP PUSH0 DUP2 MLOAD SUB PUSH2 0x16B5 JUMPI DUP5 PUSH1 0x40 MLOAD PUSH32 0x57F447CE00000000000000000000000000000000000000000000000000000000 DUP2 MSTORE PUSH1 0x4 ADD PUSH2 0x16AC SWAP2 SWAP1 PUSH2 0x2190 JUMP JUMPDEST PUSH1 0x40 MLOAD DUP1 SWAP2 SUB SWAP1 REVERT JUMPDEST DUP1 MLOAD DUP2 PUSH1 0x20 ADD REVERT JUMPDEST PUSH4 0xF23A6E61 PUSH1 0xE0 SHL PUSH28 0xFFFFFFFFFFFFFFFFFFFFFFFFFFFFFFFFFFFFFFFFFFFFFFFFFFFFFFFF NOT AND DUP2 PUSH28 0xFFFFFFFFFFFFFFFFFFFFFFFFFFFFFFFFFFFFFFFFFFFFFFFFFFFFFFFF NOT AND EQ PUSH2 0x1746 JUMPI DUP5 PUSH1 0x40 MLOAD PUSH32 0x57F447CE00000000000000000000000000000000000000000000000000000000 DUP2 MSTORE PUSH1 0x4 ADD PUSH2 0x173D SWAP2 SWAP1 PUSH2 0x2190 JUMP JUMPDEST PUSH1 0x40 MLOAD DUP1 SWAP2 SUB SWAP1 REVERT JUMPDEST POP JUMPDEST POP POP POP POP POP POP JUMP JUMPDEST PUSH0 DUP5 PUSH20 0xFFFFFFFFFFFFFFFFFFFFFFFFFFFFFFFFFFFFFFFF AND EXTCODESIZE GT ISZERO PUSH2 0x18F7 JUMPI DUP4 PUSH20 0xFFFFFFFFFFFFFFFFFFFFFFFFFFFFFFFFFFFFFFFF AND PUSH4 0xBC197C81 DUP8 DUP8 DUP7 DUP7 DUP7 PUSH1 0x40 MLOAD DUP7 PUSH4 0xFFFFFFFF AND PUSH1 0xE0 SHL DUP2 MSTORE PUSH1 0x4 ADD PUSH2 0x17B0 SWAP6 SWAP5 SWAP4 SWAP3 SWAP2 SWAP1 PUSH2 0x284E JUMP JUMPDEST PUSH1 0x20 PUSH1 0x40 MLOAD DUP1 DUP4 SUB DUP2 PUSH0 DUP8 GAS CALL SWAP3 POP POP POP DUP1 ISZERO PUSH2 0x17EB JUMPI POP PUSH1 0x40 MLOAD RETURNDATASIZE PUSH1 0x1F NOT PUSH1 0x1F DUP3 ADD AND DUP3 ADD DUP1 PUSH1 0x40 MSTORE POP DUP2 ADD SWAP1 PUSH2 0x17E8 SWAP2 SWAP1 PUSH2 0x2823 JUMP JUMPDEST PUSH1 0x1 JUMPDEST PUSH2 0x186C JUMPI RETURNDATASIZE DUP1 PUSH0 DUP2 EQ PUSH2 0x1819 JUMPI PUSH1 0x40 MLOAD SWAP2 POP PUSH1 0x1F NOT PUSH1 0x3F RETURNDATASIZE ADD AND DUP3 ADD PUSH1 0x40 MSTORE RETURNDATASIZE DUP3 MSTORE RETURNDATASIZE PUSH0 PUSH1 0x20 DUP5 ADD RETURNDATACOPY PUSH2 0x181E JUMP JUMPDEST PUSH1 0x60 SWAP2 POP JUMPDEST POP PUSH0 DUP2 MLOAD SUB PUSH2 0x1864 JUMPI DUP5 PUSH1 0x40 MLOAD PUSH32 0x57F447CE00000000000000000000000000000000000000000000000000000000 DUP2 MSTORE PUSH1 0x4 ADD PUSH2 0x185B SWAP2 SWAP1 PUSH2 0x2190 JUMP JUMPDEST PUSH1 0x40 MLOAD DUP1 SWAP2 SUB SWAP1 REVERT JUMPDEST DUP1 MLOAD DUP2 PUSH1 0x20 ADD REVERT JUMPDEST PUSH4 0xBC197C81 PUSH1 0xE0 SHL PUSH28 0xFFFFFFFFFFFFFFFFFFFFFFFFFFFFFFFFFFFFFFFFFFFFFFFFFFFFFFFF NOT AND DUP2 PUSH28 0xFFFFFFFFFFFFFFFFFFFFFFFFFFFFFFFFFFFFFFFFFFFFFFFFFFFFFFFF NOT AND EQ PUSH2 0x18F5 JUMPI DUP5 PUSH1 0x40 MLOAD PUSH32 0x57F447CE00000000000000000000000000000000000000000000000000000000 DUP2 MSTORE PUSH1 0x4 ADD PUSH2 0x18EC SWAP2 SWAP1 PUSH2 0x2190 JUMP JUMPDEST PUSH1 0x40 MLOAD DUP1 SWAP2 SUB SWAP1 REVERT JUMPDEST POP JUMPDEST POP POP POP POP POP POP JUMP JUMPDEST PUSH0 PUSH1 0x40 MLOAD SWAP1 POP SWAP1 JUMP JUMPDEST PUSH0 DUP1 REVERT JUMPDEST PUSH0 DUP1 REVERT JUMPDEST PUSH0 PUSH20 0xFFFFFFFFFFFFFFFFFFFFFFFFFFFFFFFFFFFFFFFF DUP3 AND SWAP1 POP SWAP2 SWAP1 POP JUMP JUMPDEST PUSH0 PUSH2 0x1939 DUP3 PUSH2 0x1910 JUMP JUMPDEST SWAP1 POP SWAP2 SWAP1 POP JUMP JUMPDEST PUSH2 0x1949 DUP2 PUSH2 0x192F JUMP JUMPDEST DUP2 EQ PUSH2 0x1953 JUMPI PUSH0 DUP1 REVERT JUMPDEST POP JUMP JUMPDEST PUSH0 DUP2 CALLDATALOAD SWAP1 POP PUSH2 0x1964 DUP2 PUSH2 0x1940 JUMP JUMPDEST SWAP3 SWAP2 POP POP JUMP JUMPDEST PUSH0 DUP2 SWAP1 POP SWAP2 SWAP1 POP JUMP JUMPDEST PUSH2 0x197C DUP2 PUSH2 0x196A JUMP JUMPDEST DUP2 EQ PUSH2 0x1986 JUMPI PUSH0 DUP1 REVERT JUMPDEST POP JUMP JUMPDEST PUSH0 DUP2 CALLDATALOAD SWAP1 POP PUSH2 0x1997 DUP2 PUSH2 0x1973 JUMP JUMPDEST SWAP3 SWAP2 POP POP JUMP JUMPDEST PUSH0 DUP1 PUSH1 0x40 DUP4 DUP6 SUB SLT ISZERO PUSH2 0x19B3 JUMPI PUSH2 0x19B2 PUSH2 0x1908 JUMP JUMPDEST JUMPDEST PUSH0 PUSH2 0x19C0 DUP6 DUP3 DUP7 ADD PUSH2 0x1956 JUMP JUMPDEST SWAP3 POP POP PUSH1 0x20 PUSH2 0x19D1 DUP6 DUP3 DUP7 ADD PUSH2 0x1989 JUMP JUMPDEST SWAP2 POP POP SWAP3 POP SWAP3 SWAP1 POP JUMP JUMPDEST PUSH2 0x19E4 DUP2 PUSH2 0x196A JUMP JUMPDEST DUP3 MSTORE POP POP JUMP JUMPDEST PUSH0 PUSH1 0x20 DUP3 ADD SWAP1 POP PUSH2 0x19FD PUSH0 DUP4 ADD DUP5 PUSH2 0x19DB JUMP JUMPDEST SWAP3 SWAP2 POP POP JUMP JUMPDEST PUSH0 PUSH32 0xFFFFFFFF00000000000000000000000000000000000000000000000000000000 DUP3 AND SWAP1 POP SWAP2 SWAP1 POP JUMP JUMPDEST PUSH2 0x1A37 DUP2 PUSH2 0x1A03 JUMP JUMPDEST DUP2 EQ PUSH2 0x1A41 JUMPI PUSH0 DUP1 REVERT JUMPDEST POP JUMP JUMPDEST PUSH0 DUP2 CALLDATALOAD SWAP1 POP PUSH2 0x1A52 DUP2 PUSH2 0x1A2E JUMP JUMPDEST SWAP3 SWAP2 POP POP JUMP JUMPDEST PUSH0 PUSH1 0x20 DUP3 DUP5 SUB SLT ISZERO PUSH2 0x1A6D JUMPI PUSH2 0x1A6C PUSH2 0x1908 JUMP JUMPDEST JUMPDEST PUSH0 PUSH2 0x1A7A DUP5 DUP3 DUP6 ADD PUSH2 0x1A44 JUMP JUMPDEST SWAP2 POP POP SWAP3 SWAP2 POP POP JUMP JUMPDEST PUSH0 DUP2 ISZERO ISZERO SWAP1 POP SWAP2 SWAP1 POP JUMP JUMPDEST PUSH2 0x1A97 DUP2 PUSH2 0x1A83 JUMP JUMPDEST DUP3 MSTORE POP POP JUMP JUMPDEST PUSH0 PUSH1 0x20 DUP3 ADD SWAP1 POP PUSH2 0x1AB0 PUSH0 DUP4 ADD DUP5 PUSH2 0x1A8E JUMP JUMPDEST SWAP3 SWAP2 POP POP JUMP JUMPDEST PUSH0 PUSH1 0x20 DUP3 DUP5 SUB SLT ISZERO PUSH2 0x1ACB JUMPI PUSH2 0x1ACA PUSH2 0x1908 JUMP JUMPDEST JUMPDEST PUSH0 PUSH2 0x1AD8 DUP5 DUP3 DUP6 ADD PUSH2 0x1989 JUMP JUMPDEST SWAP2 POP POP SWAP3 SWAP2 POP POP JUMP JUMPDEST PUSH0 DUP2 MLOAD SWAP1 POP SWAP2 SWAP1 POP JUMP JUMPDEST PUSH0 DUP3 DUP3 MSTORE PUSH1 0x20 DUP3 ADD SWAP1 POP SWAP3 SWAP2 POP POP JUMP JUMPDEST DUP3 DUP2 DUP4 MCOPY PUSH0 DUP4 DUP4 ADD MSTORE POP POP POP JUMP JUMPDEST PUSH0 PUSH1 0x1F NOT PUSH1 0x1F DUP4 ADD AND SWAP1 POP SWAP2 SWAP1 POP JUMP JUMPDEST PUSH0 PUSH2 0x1B23 DUP3 PUSH2 0x1AE1 JUMP JUMPDEST PUSH2 0x1B2D DUP2 DUP6 PUSH2 0x1AEB JUMP JUMPDEST SWAP4 POP PUSH2 0x1B3D DUP2 DUP6 PUSH1 0x20 DUP7 ADD PUSH2 0x1AFB JUMP JUMPDEST PUSH2 0x1B46 DUP2 PUSH2 0x1B09 JUMP JUMPDEST DUP5 ADD SWAP2 POP POP SWAP3 SWAP2 POP POP JUMP JUMPDEST PUSH0 PUSH1 0x20 DUP3 ADD SWAP1 POP DUP2 DUP2 SUB PUSH0 DUP4 ADD MSTORE PUSH2 0x1B69 DUP2 DUP5 PUSH2 0x1B19 JUMP JUMPDEST SWAP1 POP SWAP3 SWAP2 POP POP JUMP JUMPDEST PUSH0 DUP1 REVERT JUMPDEST PUSH32 0x4E487B7100000000000000000000000000000000000000000000000000000000 PUSH0 MSTORE PUSH1 0x41 PUSH1 0x4 MSTORE PUSH1 0x24 PUSH0 REVERT JUMPDEST PUSH2 0x1BAB DUP3 PUSH2 0x1B09 JUMP JUMPDEST DUP2 ADD DUP2 DUP2 LT PUSH8 0xFFFFFFFFFFFFFFFF DUP3 GT OR ISZERO PUSH2 0x1BCA JUMPI PUSH2 0x1BC9 PUSH2 0x1B75 JUMP JUMPDEST JUMPDEST DUP1 PUSH1 0x40 MSTORE POP POP POP JUMP JUMPDEST PUSH0 PUSH2 0x1BDC PUSH2 0x18FF JUMP JUMPDEST SWAP1 POP PUSH2 0x1BE8 DUP3 DUP3 PUSH2 0x1BA2 JUMP JUMPDEST SWAP2 SWAP1 POP JUMP JUMPDEST PUSH0 PUSH8 0xFFFFFFFFFFFFFFFF DUP3 GT ISZERO PUSH2 0x1C07 JUMPI PUSH2 0x1C06 PUSH2 0x1B75 JUMP JUMPDEST JUMPDEST PUSH1 0x20 DUP3 MUL SWAP1 POP PUSH1 0x20 DUP2 ADD SWAP1 POP SWAP2 SWAP1 POP JUMP JUMPDEST PUSH0 DUP1 REVERT JUMPDEST PUSH0 PUSH2 0x1C2E PUSH2 0x1C29 DUP5 PUSH2 0x1BED JUMP JUMPDEST PUSH2 0x1BD3 JUMP JUMPDEST SWAP1 POP DUP1 DUP4 DUP3 MSTORE PUSH1 0x20 DUP3 ADD SWAP1 POP PUSH1 0x20 DUP5 MUL DUP4 ADD DUP6 DUP2 GT ISZERO PUSH2 0x1C51 JUMPI PUSH2 0x1C50 PUSH2 0x1C18 JUMP JUMPDEST JUMPDEST DUP4 JUMPDEST DUP2 DUP2 LT ISZERO PUSH2 0x1C7A JUMPI DUP1 PUSH2 0x1C66 DUP9 DUP3 PUSH2 0x1989 JUMP JUMPDEST DUP5 MSTORE PUSH1 0x20 DUP5 ADD SWAP4 POP POP PUSH1 0x20 DUP2 ADD SWAP1 POP PUSH2 0x1C53 JUMP JUMPDEST POP POP POP SWAP4 SWAP3 POP POP POP JUMP JUMPDEST PUSH0 DUP3 PUSH1 0x1F DUP4 ADD SLT PUSH2 0x1C98 JUMPI PUSH2 0x1C97 PUSH2 0x1B71 JUMP JUMPDEST JUMPDEST DUP2 CALLDATALOAD PUSH2 0x1CA8 DUP5 DUP3 PUSH1 0x20 DUP7 ADD PUSH2 0x1C1C JUMP JUMPDEST SWAP2 POP POP SWAP3 SWAP2 POP POP JUMP JUMPDEST PUSH0 DUP1 REVERT JUMPDEST PUSH0 PUSH8 0xFFFFFFFFFFFFFFFF DUP3 GT ISZERO PUSH2 0x1CCF JUMPI PUSH2 0x1CCE PUSH2 0x1B75 JUMP JUMPDEST JUMPDEST PUSH2 0x1CD8 DUP3 PUSH2 0x1B09 JUMP JUMPDEST SWAP1 POP PUSH1 0x20 DUP2 ADD SWAP1 POP SWAP2 SWAP1 POP JUMP JUMPDEST DUP3 DUP2 DUP4 CALLDATACOPY PUSH0 DUP4 DUP4 ADD MSTORE POP POP POP JUMP JUMPDEST PUSH0 PUSH2 0x1D05 PUSH2 0x1D00 DUP5 PUSH2 0x1CB5 JUMP JUMPDEST PUSH2 0x1BD3 JUMP JUMPDEST SWAP1 POP DUP3 DUP2 MSTORE PUSH1 0x20 DUP2 ADD DUP5 DUP5 DUP5 ADD GT ISZERO PUSH2 0x1D21 JUMPI PUSH2 0x1D20 PUSH2 0x1CB1 JUMP JUMPDEST JUMPDEST PUSH2 0x1D2C DUP5 DUP3 DUP6 PUSH2 0x1CE5 JUMP JUMPDEST POP SWAP4 SWAP3 POP POP POP JUMP JUMPDEST PUSH0 DUP3 PUSH1 0x1F DUP4 ADD SLT PUSH2 0x1D48 JUMPI PUSH2 0x1D47 PUSH2 0x1B71 JUMP JUMPDEST JUMPDEST DUP2 CALLDATALOAD PUSH2 0x1D58 DUP5 DUP3 PUSH1 0x20 DUP7 ADD PUSH2 0x1CF3 JUMP JUMPDEST SWAP2 POP POP SWAP3 SWAP2 POP POP JUMP JUMPDEST PUSH0 DUP1 PUSH0 DUP1 PUSH0 PUSH1 0xA0 DUP7 DUP9 SUB SLT ISZERO PUSH2 0x1D7A JUMPI PUSH2 0x1D79 PUSH2 0x1908 JUMP JUMPDEST JUMPDEST PUSH0 PUSH2 0x1D87 DUP9 DUP3 DUP10 ADD PUSH2 0x1956 JUMP JUMPDEST SWAP6 POP POP PUSH1 0x20 PUSH2 0x1D98 DUP9 DUP3 DUP10 ADD PUSH2 0x1956 JUMP JUMPDEST SWAP5 POP POP PUSH1 0x40 DUP7 ADD CALLDATALOAD PUSH8 0xFFFFFFFFFFFFFFFF DUP2 GT ISZERO PUSH2 0x1DB9 JUMPI PUSH2 0x1DB8 PUSH2 0x190C JUMP JUMPDEST JUMPDEST PUSH2 0x1DC5 DUP9 DUP3 DUP10 ADD PUSH2 0x1C84 JUMP JUMPDEST SWAP4 POP POP PUSH1 0x60 DUP7 ADD CALLDATALOAD PUSH8 0xFFFFFFFFFFFFFFFF DUP2 GT ISZERO PUSH2 0x1DE6 JUMPI PUSH2 0x1DE5 PUSH2 0x190C JUMP JUMPDEST JUMPDEST PUSH2 0x1DF2 DUP9 DUP3 DUP10 ADD PUSH2 0x1C84 JUMP JUMPDEST SWAP3 POP POP PUSH1 0x80 DUP7 ADD CALLDATALOAD PUSH8 0xFFFFFFFFFFFFFFFF DUP2 GT ISZERO PUSH2 0x1E13 JUMPI PUSH2 0x1E12 PUSH2 0x190C JUMP JUMPDEST JUMPDEST PUSH2 0x1E1F DUP9 DUP3 DUP10 ADD PUSH2 0x1D34 JUMP JUMPDEST SWAP2 POP POP SWAP3 SWAP6 POP SWAP3 SWAP6 SWAP1 SWAP4 POP JUMP JUMPDEST PUSH0 PUSH8 0xFFFFFFFFFFFFFFFF DUP3 GT ISZERO PUSH2 0x1E46 JUMPI PUSH2 0x1E45 PUSH2 0x1B75 JUMP JUMPDEST JUMPDEST PUSH1 0x20 DUP3 MUL SWAP1 POP PUSH1 0x20 DUP2 ADD SWAP1 POP SWAP2 SWAP1 POP JUMP JUMPDEST PUSH0 PUSH2 0x1E69 PUSH2 0x1E64 DUP5 PUSH2 0x1E2C JUMP JUMPDEST PUSH2 0x1BD3 JUMP JUMPDEST SWAP1 POP DUP1 DUP4 DUP3 MSTORE PUSH1 0x20 DUP3 ADD SWAP1 POP PUSH1 0x20 DUP5 MUL DUP4 ADD DUP6 DUP2 GT ISZERO PUSH2 0x1E8C JUMPI PUSH2 0x1E8B PUSH2 0x1C18 JUMP JUMPDEST JUMPDEST DUP4 JUMPDEST DUP2 DUP2 LT ISZERO PUSH2 0x1EB5 JUMPI DUP1 PUSH2 0x1EA1 DUP9 DUP3 PUSH2 0x1956 JUMP JUMPDEST DUP5 MSTORE PUSH1 0x20 DUP5 ADD SWAP4 POP POP PUSH1 0x20 DUP2 ADD SWAP1 POP PUSH2 0x1E8E JUMP JUMPDEST POP POP POP SWAP4 SWAP3 POP POP POP JUMP JUMPDEST PUSH0 DUP3 PUSH1 0x1F DUP4 ADD SLT PUSH2 0x1ED3 JUMPI PUSH2 0x1ED2 PUSH2 0x1B71 JUMP JUMPDEST JUMPDEST DUP2 CALLDATALOAD PUSH2 0x1EE3 DUP5 DUP3 PUSH1 0x20 DUP7 ADD PUSH2 0x1E57 JUMP JUMPDEST SWAP2 POP POP SWAP3 SWAP2 POP POP JUMP JUMPDEST PUSH0 DUP1 PUSH1 0x40 DUP4 DUP6 SUB SLT ISZERO PUSH2 0x1F02 JUMPI PUSH2 0x1F01 PUSH2 0x1908 JUMP JUMPDEST JUMPDEST PUSH0 DUP4 ADD CALLDATALOAD PUSH8 0xFFFFFFFFFFFFFFFF DUP2 GT ISZERO PUSH2 0x1F1F JUMPI PUSH2 0x1F1E PUSH2 0x190C JUMP JUMPDEST JUMPDEST PUSH2 0x1F2B DUP6 DUP3 DUP7 ADD PUSH2 0x1EBF JUMP JUMPDEST SWAP3 POP POP PUSH1 0x20 DUP4 ADD CALLDATALOAD PUSH8 0xFFFFFFFFFFFFFFFF DUP2 GT ISZERO PUSH2 0x1F4C JUMPI PUSH2 0x1F4B PUSH2 0x190C JUMP JUMPDEST JUMPDEST PUSH2 0x1F58 DUP6 DUP3 DUP7 ADD PUSH2 0x1C84 JUMP JUMPDEST SWAP2 POP POP SWAP3 POP SWAP3 SWAP1 POP JUMP JUMPDEST PUSH0 DUP2 MLOAD SWAP1 POP SWAP2 SWAP1 POP JUMP JUMPDEST PUSH0 DUP3 DUP3 MSTORE PUSH1 0x20 DUP3 ADD SWAP1 POP SWAP3 SWAP2 POP POP JUMP JUMPDEST PUSH0 DUP2 SWAP1 POP PUSH1 0x20 DUP3 ADD SWAP1 POP SWAP2 SWAP1 POP JUMP JUMPDEST PUSH2 0x1F94 DUP2 PUSH2 0x196A JUMP JUMPDEST DUP3 MSTORE POP POP JUMP JUMPDEST PUSH0 PUSH2 0x1FA5 DUP4 DUP4 PUSH2 0x1F8B JUMP JUMPDEST PUSH1 0x20 DUP4 ADD SWAP1 POP SWAP3 SWAP2 POP POP JUMP JUMPDEST PUSH0 PUSH1 0x20 DUP3 ADD SWAP1 POP SWAP2 SWAP1 POP JUMP JUMPDEST PUSH0 PUSH2 0x1FC7 DUP3 PUSH2 0x1F62 JUMP JUMPDEST PUSH2 0x1FD1 DUP2 DUP6 PUSH2 0x1F6C JUMP JUMPDEST SWAP4 POP PUSH2 0x1FDC DUP4 PUSH2 0x1F7C JUMP JUMPDEST DUP1 PUSH0 JUMPDEST DUP4 DUP2 LT ISZERO PUSH2 0x200C JUMPI DUP2 MLOAD PUSH2 0x1FF3 DUP9 DUP3 PUSH2 0x1F9A JUMP JUMPDEST SWAP8 POP PUSH2 0x1FFE DUP4 PUSH2 0x1FB1 JUMP JUMPDEST SWAP3 POP POP PUSH1 0x1 DUP2 ADD SWAP1 POP PUSH2 0x1FDF JUMP JUMPDEST POP DUP6 SWAP4 POP POP POP POP SWAP3 SWAP2 POP POP JUMP JUMPDEST PUSH0 PUSH1 0x20 DUP3 ADD SWAP1 POP DUP2 DUP2 SUB PUSH0 DUP4 ADD MSTORE PUSH2 0x2031 DUP2 DUP5 PUSH2 0x1FBD JUMP JUMPDEST SWAP1 POP SWAP3 SWAP2 POP POP JUMP JUMPDEST PUSH0 PUSH8 0xFFFFFFFFFFFFFFFF DUP3 GT ISZERO PUSH2 0x2053 JUMPI PUSH2 0x2052 PUSH2 0x1B75 JUMP JUMPDEST JUMPDEST PUSH2 0x205C DUP3 PUSH2 0x1B09 JUMP JUMPDEST SWAP1 POP PUSH1 0x20 DUP2 ADD SWAP1 POP SWAP2 SWAP1 POP JUMP JUMPDEST PUSH0 PUSH2 0x207B PUSH2 0x2076 DUP5 PUSH2 0x2039 JUMP JUMPDEST PUSH2 0x1BD3 JUMP JUMPDEST SWAP1 POP DUP3 DUP2 MSTORE PUSH1 0x20 DUP2 ADD DUP5 DUP5 DUP5 ADD GT ISZERO PUSH2 0x2097 JUMPI PUSH2 0x2096 PUSH2 0x1CB1 JUMP JUMPDEST JUMPDEST PUSH2 0x20A2 DUP5 DUP3 DUP6 PUSH2 0x1CE5 JUMP JUMPDEST POP SWAP4 SWAP3 POP POP POP JUMP JUMPDEST PUSH0 DUP3 PUSH1 0x1F DUP4 ADD SLT PUSH2 0x20BE JUMPI PUSH2 0x20BD PUSH2 0x1B71 JUMP JUMPDEST JUMPDEST DUP2 CALLDATALOAD PUSH2 0x20CE DUP5 DUP3 PUSH1 0x20 DUP7 ADD PUSH2 0x2069 JUMP JUMPDEST SWAP2 POP POP SWAP3 SWAP2 POP POP JUMP JUMPDEST PUSH0 DUP1 PUSH0 PUSH1 0x60 DUP5 DUP7 SUB SLT ISZERO PUSH2 0x20EE JUMPI PUSH2 0x20ED PUSH2 0x1908 JUMP JUMPDEST JUMPDEST PUSH0 DUP5 ADD CALLDATALOAD PUSH8 0xFFFFFFFFFFFFFFFF DUP2 GT ISZERO PUSH2 0x210B JUMPI PUSH2 0x210A PUSH2 0x190C JUMP JUMPDEST JUMPDEST PUSH2 0x2117 DUP7 DUP3 DUP8 ADD PUSH2 0x20AA JUMP JUMPDEST SWAP4 POP POP PUSH1 0x20 PUSH2 0x2128 DUP7 DUP3 DUP8 ADD PUSH2 0x1989 JUMP JUMPDEST SWAP3 POP POP PUSH1 0x40 PUSH2 0x2139 DUP7 DUP3 DUP8 ADD PUSH2 0x1989 JUMP JUMPDEST SWAP2 POP POP SWAP3 POP SWAP3 POP SWAP3 JUMP JUMPDEST PUSH0 DUP1 PUSH1 0x40 DUP4 DUP6 SUB SLT ISZERO PUSH2 0x2159 JUMPI PUSH2 0x2158 PUSH2 0x1908 JUMP JUMPDEST JUMPDEST PUSH0 PUSH2 0x2166 DUP6 DUP3 DUP7 ADD PUSH2 0x1989 JUMP JUMPDEST SWAP3 POP POP PUSH1 0x20 PUSH2 0x2177 DUP6 DUP3 DUP7 ADD PUSH2 0x1989 JUMP JUMPDEST SWAP2 POP POP SWAP3 POP SWAP3 SWAP1 POP JUMP JUMPDEST PUSH2 0x218A DUP2 PUSH2 0x192F JUMP JUMPDEST DUP3 MSTORE POP POP JUMP JUMPDEST PUSH0 PUSH1 0x20 DUP3 ADD SWAP1 POP PUSH2 0x21A3 PUSH0 DUP4 ADD DUP5 PUSH2 0x2181 JUMP JUMPDEST SWAP3 SWAP2 POP POP JUMP JUMPDEST PUSH2 0x21B2 DUP2 PUSH2 0x1A83 JUMP JUMPDEST DUP2 EQ PUSH2 0x21BC JUMPI PUSH0 DUP1 REVERT JUMPDEST POP JUMP JUMPDEST PUSH0 DUP2 CALLDATALOAD SWAP1 POP PUSH2 0x21CD DUP2 PUSH2 0x21A9 JUMP JUMPDEST SWAP3 SWAP2 POP POP JUMP JUMPDEST PUSH0 DUP1 PUSH1 0x40 DUP4 DUP6 SUB SLT ISZERO PUSH2 0x21E9 JUMPI PUSH2 0x21E8 PUSH2 0x1908 JUMP JUMPDEST JUMPDEST PUSH0 PUSH2 0x21F6 DUP6 DUP3 DUP7 ADD PUSH2 0x1956 JUMP JUMPDEST SWAP3 POP POP PUSH1 0x20 PUSH2 0x2207 DUP6 DUP3 DUP7 ADD PUSH2 0x21BF JUMP JUMPDEST SWAP2 POP POP SWAP3 POP SWAP3 SWAP1 POP JUMP JUMPDEST PUSH0 DUP1 PUSH1 0x40 DUP4 DUP6 SUB SLT ISZERO PUSH2 0x2227 JUMPI PUSH2 0x2226 PUSH2 0x1908 JUMP JUMPDEST JUMPDEST PUSH0 PUSH2 0x2234 DUP6 DUP3 DUP7 ADD PUSH2 0x1956 JUMP JUMPDEST SWAP3 POP POP PUSH1 0x20 PUSH2 0x2245 DUP6 DUP3 DUP7 ADD PUSH2 0x1956 JUMP JUMPDEST SWAP2 POP POP SWAP3 POP SWAP3 SWAP1 POP JUMP JUMPDEST PUSH0 DUP1 PUSH0 DUP1 PUSH0 PUSH1 0xA0 DUP7 DUP9 SUB SLT ISZERO PUSH2 0x2268 JUMPI PUSH2 0x2267 PUSH2 0x1908 JUMP JUMPDEST JUMPDEST PUSH0 PUSH2 0x2275 DUP9 DUP3 DUP10 ADD PUSH2 0x1956 JUMP JUMPDEST SWAP6 POP POP PUSH1 0x20 PUSH2 0x2286 DUP9 DUP3 DUP10 ADD PUSH2 0x1956 JUMP JUMPDEST SWAP5 POP POP PUSH1 0x40 PUSH2 0x2297 DUP9 DUP3 DUP10 ADD PUSH2 0x1989 JUMP JUMPDEST SWAP4 POP POP PUSH1 0x60 PUSH2 0x22A8 DUP9 DUP3 DUP10 ADD PUSH2 0x1989 JUMP JUMPDEST SWAP3 POP POP PUSH1 0x80 DUP7 ADD CALLDATALOAD PUSH8 0xFFFFFFFFFFFFFFFF DUP2 GT ISZERO PUSH2 0x22C9 JUMPI PUSH2 0x22C8 PUSH2 0x190C JUMP JUMPDEST JUMPDEST PUSH2 0x22D5 DUP9 DUP3 DUP10 ADD PUSH2 0x1D34 JUMP JUMPDEST SWAP2 POP POP SWAP3 SWAP6 POP SWAP3 SWAP6 SWAP1 SWAP4 POP JUMP JUMPDEST PUSH0 PUSH1 0x20 DUP3 DUP5 SUB SLT ISZERO PUSH2 0x22F7 JUMPI PUSH2 0x22F6 PUSH2 0x1908 JUMP JUMPDEST JUMPDEST PUSH0 PUSH2 0x2304 DUP5 DUP3 DUP6 ADD PUSH2 0x1956 JUMP JUMPDEST SWAP2 POP POP SWAP3 SWAP2 POP POP JUMP JUMPDEST PUSH32 0x4E487B7100000000000000000000000000000000000000000000000000000000 PUSH0 MSTORE PUSH1 0x22 PUSH1 0x4 MSTORE PUSH1 0x24 PUSH0 REVERT JUMPDEST PUSH0 PUSH1 0x2 DUP3 DIV SWAP1 POP PUSH1 0x1 DUP3 AND DUP1 PUSH2 0x2351 JUMPI PUSH1 0x7F DUP3 AND SWAP2 POP JUMPDEST PUSH1 0x20 DUP3 LT DUP2 SUB PUSH2 0x2364 JUMPI PUSH2 0x2363 PUSH2 0x230D JUMP JUMPDEST JUMPDEST POP SWAP2 SWAP1 POP JUMP JUMPDEST PUSH0 PUSH1 0x40 DUP3 ADD SWAP1 POP PUSH2 0x237D PUSH0 DUP4 ADD DUP6 PUSH2 0x2181 JUMP JUMPDEST PUSH2 0x238A PUSH1 0x20 DUP4 ADD DUP5 PUSH2 0x2181 JUMP JUMPDEST SWAP4 SWAP3 POP POP POP JUMP JUMPDEST PUSH0 PUSH1 0x40 DUP3 ADD SWAP1 POP PUSH2 0x23A4 PUSH0 DUP4 ADD DUP6 PUSH2 0x19DB JUMP JUMPDEST PUSH2 0x23B1 PUSH1 0x20 DUP4 ADD DUP5 PUSH2 0x19DB JUMP JUMPDEST SWAP4 SWAP3 POP POP POP JUMP JUMPDEST PUSH32 0x4E487B7100000000000000000000000000000000000000000000000000000000 PUSH0 MSTORE PUSH1 0x32 PUSH1 0x4 MSTORE PUSH1 0x24 PUSH0 REVERT JUMPDEST PUSH0 PUSH1 0x60 DUP3 ADD SWAP1 POP DUP2 DUP2 SUB PUSH0 DUP4 ADD MSTORE PUSH2 0x23FD DUP2 DUP7 PUSH2 0x1B19 JUMP JUMPDEST SWAP1 POP PUSH2 0x240C PUSH1 0x20 DUP4 ADD DUP6 PUSH2 0x19DB JUMP JUMPDEST PUSH2 0x2419 PUSH1 0x40 DUP4 ADD DUP5 PUSH2 0x19DB JUMP JUMPDEST SWAP5 SWAP4 POP POP POP POP JUMP JUMPDEST PUSH32 0x4E487B7100000000000000000000000000000000000000000000000000000000 PUSH0 MSTORE PUSH1 0x11 PUSH1 0x4 MSTORE PUSH1 0x24 PUSH0 REVERT JUMPDEST PUSH0 PUSH2 0x2458 DUP3 PUSH2 0x196A JUMP JUMPDEST SWAP2 POP PUSH2 0x2463 DUP4 PUSH2 0x196A JUMP JUMPDEST SWAP3 POP DUP3 DUP3 ADD SWAP1 POP DUP1 DUP3 GT ISZERO PUSH2 0x247B JUMPI PUSH2 0x247A PUSH2 0x2421 JUMP JUMPDEST JUMPDEST SWAP3 SWAP2 POP POP JUMP JUMPDEST PUSH0 DUP2 SWAP1 POP DUP2 PUSH0 MSTORE PUSH1 0x20 PUSH0 KECCAK256 SWAP1 POP SWAP2 SWAP1 POP JUMP JUMPDEST PUSH0 PUSH1 0x20 PUSH1 0x1F DUP4 ADD DIV SWAP1 POP SWAP2 SWAP1 POP JUMP JUMPDEST PUSH0 DUP3 DUP3 SHL SWAP1 POP SWAP3 SWAP2 POP POP JUMP JUMPDEST PUSH0 PUSH1 0x8 DUP4 MUL PUSH2 0x24DD PUSH32 0xFFFFFFFFFFFFFFFFFFFFFFFFFFFFFFFFFFFFFFFFFFFFFFFFFFFFFFFFFFFFFFFF DUP3 PUSH2 0x24A2 JUMP JUMPDEST PUSH2 0x24E7 DUP7 DUP4 PUSH2 0x24A2 JUMP JUMPDEST SWAP6 POP DUP1 NOT DUP5 AND SWAP4 POP DUP1 DUP7 AND DUP5 OR SWAP3 POP POP POP SWAP4 SWAP3 POP POP POP JUMP JUMPDEST PUSH0 DUP2 SWAP1 POP SWAP2 SWAP1 POP JUMP JUMPDEST PUSH0 PUSH2 0x2522 PUSH2 0x251D PUSH2 0x2518 DUP5 PUSH2 0x196A JUMP JUMPDEST PUSH2 0x24FF JUMP JUMPDEST PUSH2 0x196A JUMP JUMPDEST SWAP1 POP SWAP2 SWAP1 POP JUMP JUMPDEST PUSH0 DUP2 SWAP1 POP SWAP2 SWAP1 POP JUMP JUMPDEST PUSH2 0x253B DUP4 PUSH2 0x2508 JUMP JUMPDEST PUSH2 0x254F PUSH2 0x2547 DUP3 PUSH2 0x2529 JUMP JUMPDEST DUP5 DUP5 SLOAD PUSH2 0x24AE JUMP JUMPDEST DUP3 SSTORE POP POP POP POP JUMP JUMPDEST PUSH0 SWAP1 JUMP JUMPDEST PUSH2 0x2563 PUSH2 0x2557 JUMP JUMPDEST PUSH2 0x256E DUP2 DUP5 DUP5 PUSH2 0x2532 JUMP JUMPDEST POP POP POP JUMP JUMPDEST JUMPDEST DUP2 DUP2 LT ISZERO PUSH2 0x2591 JUMPI PUSH2 0x2586 PUSH0 DUP3 PUSH2 0x255B JUMP JUMPDEST PUSH1 0x1 DUP2 ADD SWAP1 POP PUSH2 0x2574 JUMP JUMPDEST POP POP JUMP JUMPDEST PUSH1 0x1F DUP3 GT ISZERO PUSH2 0x25D6 JUMPI PUSH2 0x25A7 DUP2 PUSH2 0x2481 JUMP JUMPDEST PUSH2 0x25B0 DUP5 PUSH2 0x2493 JUMP JUMPDEST DUP2 ADD PUSH1 0x20 DUP6 LT ISZERO PUSH2 0x25BF JUMPI DUP2 SWAP1 POP JUMPDEST PUSH2 0x25D3 PUSH2 0x25CB DUP6 PUSH2 0x2493 JUMP JUMPDEST DUP4 ADD DUP3 PUSH2 0x2573 JUMP JUMPDEST POP POP JUMPDEST POP POP POP JUMP JUMPDEST PUSH0 DUP3 DUP3 SHR SWAP1 POP SWAP3 SWAP2 POP POP JUMP JUMPDEST PUSH0 PUSH2 0x25F6 PUSH0 NOT DUP5 PUSH1 0x8 MUL PUSH2 0x25DB JUMP JUMPDEST NOT DUP1 DUP4 AND SWAP2 POP POP SWAP3 SWAP2 POP POP JUMP JUMPDEST PUSH0 PUSH2 0x260E DUP4 DUP4 PUSH2 0x25E7 JUMP JUMPDEST SWAP2 POP DUP3 PUSH1 0x2 MUL DUP3 OR SWAP1 POP SWAP3 SWAP2 POP POP JUMP JUMPDEST PUSH2 0x2627 DUP3 PUSH2 0x1AE1 JUMP JUMPDEST PUSH8 0xFFFFFFFFFFFFFFFF DUP2 GT ISZERO PUSH2 0x2640 JUMPI PUSH2 0x263F PUSH2 0x1B75 JUMP JUMPDEST JUMPDEST PUSH2 0x264A DUP3 SLOAD PUSH2 0x233A JUMP JUMPDEST PUSH2 0x2655 DUP3 DUP3 DUP6 PUSH2 0x2595 JUMP JUMPDEST PUSH0 PUSH1 0x20 SWAP1 POP PUSH1 0x1F DUP4 GT PUSH1 0x1 DUP2 EQ PUSH2 0x2686 JUMPI PUSH0 DUP5 ISZERO PUSH2 0x2674 JUMPI DUP3 DUP8 ADD MLOAD SWAP1 POP JUMPDEST PUSH2 0x267E DUP6 DUP3 PUSH2 0x2603 JUMP JUMPDEST DUP7 SSTORE POP PUSH2 0x26E5 JUMP JUMPDEST PUSH1 0x1F NOT DUP5 AND PUSH2 0x2694 DUP7 PUSH2 0x2481 JUMP JUMPDEST PUSH0 JUMPDEST DUP3 DUP2 LT ISZERO PUSH2 0x26BB JUMPI DUP5 DUP10 ADD MLOAD DUP3 SSTORE PUSH1 0x1 DUP3 ADD SWAP2 POP PUSH1 0x20 DUP6 ADD SWAP5 POP PUSH1 0x20 DUP2 ADD SWAP1 POP PUSH2 0x2696 JUMP JUMPDEST DUP7 DUP4 LT ISZERO PUSH2 0x26D8 JUMPI DUP5 DUP10 ADD MLOAD PUSH2 0x26D4 PUSH1 0x1F DUP10 AND DUP3 PUSH2 0x25E7 JUMP JUMPDEST DUP4 SSTORE POP JUMPDEST PUSH1 0x1 PUSH1 0x2 DUP9 MUL ADD DUP9 SSTORE POP POP POP JUMPDEST POP POP POP POP POP POP JUMP JUMPDEST PUSH0 PUSH1 0x80 DUP3 ADD SWAP1 POP PUSH2 0x2700 PUSH0 DUP4 ADD DUP8 PUSH2 0x2181 JUMP JUMPDEST PUSH2 0x270D PUSH1 0x20 DUP4 ADD DUP7 PUSH2 0x19DB JUMP JUMPDEST PUSH2 0x271A PUSH1 0x40 DUP4 ADD DUP6 PUSH2 0x19DB JUMP JUMPDEST PUSH2 0x2727 PUSH1 0x60 DUP4 ADD DUP5 PUSH2 0x19DB JUMP JUMPDEST SWAP6 SWAP5 POP POP POP POP POP JUMP JUMPDEST PUSH0 PUSH1 0x40 DUP3 ADD SWAP1 POP DUP2 DUP2 SUB PUSH0 DUP4 ADD MSTORE PUSH2 0x2748 DUP2 DUP6 PUSH2 0x1FBD JUMP JUMPDEST SWAP1 POP DUP2 DUP2 SUB PUSH1 0x20 DUP4 ADD MSTORE PUSH2 0x275C DUP2 DUP5 PUSH2 0x1FBD JUMP JUMPDEST SWAP1 POP SWAP4 SWAP3 POP POP POP JUMP JUMPDEST PUSH0 DUP2 MLOAD SWAP1 POP SWAP2 SWAP1 POP JUMP JUMPDEST PUSH0 DUP3 DUP3 MSTORE PUSH1 0x20 DUP3 ADD SWAP1 POP SWAP3 SWAP2 POP POP JUMP JUMPDEST PUSH0 PUSH2 0x2789 DUP3 PUSH2 0x2765 JUMP JUMPDEST PUSH2 0x2793 DUP2 DUP6 PUSH2 0x276F JUMP JUMPDEST SWAP4 POP PUSH2 0x27A3 DUP2 DUP6 PUSH1 0x20 DUP7 ADD PUSH2 0x1AFB JUMP JUMPDEST PUSH2 0x27AC DUP2 PUSH2 0x1B09 JUMP JUMPDEST DUP5 ADD SWAP2 POP POP SWAP3 SWAP2 POP POP JUMP JUMPDEST PUSH0 PUSH1 0xA0 DUP3 ADD SWAP1 POP PUSH2 0x27CA PUSH0 DUP4 ADD DUP9 PUSH2 0x2181 JUMP JUMPDEST PUSH2 0x27D7 PUSH1 0x20 DUP4 ADD DUP8 PUSH2 0x2181 JUMP JUMPDEST PUSH2 0x27E4 PUSH1 0x40 DUP4 ADD DUP7 PUSH2 0x19DB JUMP JUMPDEST PUSH2 0x27F1 PUSH1 0x60 DUP4 ADD DUP6 PUSH2 0x19DB JUMP JUMPDEST DUP2 DUP2 SUB PUSH1 0x80 DUP4 ADD MSTORE PUSH2 0x2803 DUP2 DUP5 PUSH2 0x277F JUMP JUMPDEST SWAP1 POP SWAP7 SWAP6 POP POP POP POP POP POP JUMP JUMPDEST PUSH0 DUP2 MLOAD SWAP1 POP PUSH2 0x281D DUP2 PUSH2 0x1A2E JUMP JUMPDEST SWAP3 SWAP2 POP POP JUMP JUMPDEST PUSH0 PUSH1 0x20 DUP3 DUP5 SUB SLT ISZERO PUSH2 0x2838 JUMPI PUSH2 0x2837 PUSH2 0x1908 JUMP JUMPDEST JUMPDEST PUSH0 PUSH2 0x2845 DUP5 DUP3 DUP6 ADD PUSH2 0x280F JUMP JUMPDEST SWAP2 POP POP SWAP3 SWAP2 POP POP JUMP JUMPDEST PUSH0 PUSH1 0xA0 DUP3 ADD SWAP1 POP PUSH2 0x2861 PUSH0 DUP4 ADD DUP9 PUSH2 0x2181 JUMP JUMPDEST PUSH2 0x286E PUSH1 0x20 DUP4 ADD DUP8 PUSH2 0x2181 JUMP JUMPDEST DUP2 DUP2 SUB PUSH1 0x40 DUP4 ADD MSTORE PUSH2 0x2880 DUP2 DUP7 PUSH2 0x1FBD JUMP JUMPDEST SWAP1 POP DUP2 DUP2 SUB PUSH1 0x60 DUP4 ADD MSTORE PUSH2 0x2894 DUP2 DUP6 PUSH2 0x1FBD JUMP JUMPDEST SWAP1 POP DUP2 DUP2 SUB PUSH1 0x80 DUP4 ADD MSTORE PUSH2 0x28A8 DUP2 DUP5 PUSH2 0x277F JUMP JUMPDEST SWAP1 POP SWAP7 SWAP6 POP POP POP POP POP POP JUMP INVALID LOG2 PUSH5 0x6970667358 0x22 SLT KECCAK256 0x28 SWAP13 PUSH7 0xDDE1DFEA1E3581 DUP8 TSTORE EXTCODECOPY 0xD6 0xBB 0xCA DUP2 SELFBALANCE SLT SWAP11 MLOAD 0x2C 0xE9 0xFC REVERT 0xDC 0xCD SUB CODESIZE 0x23 0x21 DUP8 PUSH5 0x736F6C6343 STOP ADDMOD BYTE STOP CALLER "
		},
		"gasEstimates": {
			"creation": {
				"codeDepositCost": "2094800",
				"executionCost": "infinite",
				"totalCost": "infinite"
			},
			"external": {
				"balanceOf(address,uint256)": "infinite",
				"balanceOfBatch(address[],uint256[])": "infinite",
				"getPropertyValue(uint256)": "infinite",
				"getRentalIncome(uint256)": "infinite",
				"isApprovedForAll(address,address)": "infinite",
				"owner()": "2582",
				"propertyValues(uint256)": "infinite",
				"recordRentalIncome(uint256,uint256)": "infinite",
				"renounceOwnership()": "infinite",
				"rentalIncomes(uint256)": "infinite",
				"safeBatchTransferFrom(address,address,uint256[],uint256[],bytes)": "infinite",
				"safeTransferFrom(address,address,uint256,uint256,bytes)": "infinite",
				"setApprovalForAll(address,bool)": "infinite",
				"supportsInterface(bytes4)": "809",
				"tokenizeProperty(string,uint256,uint256)": "infinite",
				"transferOwnership(address)": "infinite",
				"updatePropertyValue(uint256,uint256)": "infinite",
				"uri(uint256)": "infinite"
			},
			"internal": {
				"_setTokenURI(uint256,string memory)": "infinite"
			}
		},
		"methodIdentifiers": {
			"balanceOf(address,uint256)": "00fdd58e",
			"balanceOfBatch(address[],uint256[])": "4e1273f4",
			"getPropertyValue(uint256)": "06dfdb2d",
			"getRentalIncome(uint256)": "ac9b6bc4",
			"isApprovedForAll(address,address)": "e985e9c5",
			"owner()": "8da5cb5b",
			"propertyValues(uint256)": "6e319077",
			"recordRentalIncome(uint256,uint256)": "7bbfd9ed",
			"renounceOwnership()": "715018a6",
			"rentalIncomes(uint256)": "32cdcff8",
			"safeBatchTransferFrom(address,address,uint256[],uint256[],bytes)": "2eb2c2d6",
			"safeTransferFrom(address,address,uint256,uint256,bytes)": "f242432a",
			"setApprovalForAll(address,bool)": "a22cb465",
			"supportsInterface(bytes4)": "01ffc9a7",
			"tokenizeProperty(string,uint256,uint256)": "55a24d3b",
			"transferOwnership(address)": "f2fde38b",
			"updatePropertyValue(uint256,uint256)": "9b7c4b4b",
			"uri(uint256)": "0e89341c"
		}
	},
	"abi": [
		{
			"inputs": [
				{
					"internalType": "address",
					"name": "initialOwner",
					"type": "address"
				}
			],
			"stateMutability": "nonpayable",
			"type": "constructor"
		},
		{
			"inputs": [
				{
					"internalType": "address",
					"name": "sender",
					"type": "address"
				},
				{
					"internalType": "uint256",
					"name": "balance",
					"type": "uint256"
				},
				{
					"internalType": "uint256",
					"name": "needed",
					"type": "uint256"
				},
				{
					"internalType": "uint256",
					"name": "tokenId",
					"type": "uint256"
				}
			],
			"name": "ERC1155InsufficientBalance",
			"type": "error"
		},
		{
			"inputs": [
				{
					"internalType": "address",
					"name": "approver",
					"type": "address"
				}
			],
			"name": "ERC1155InvalidApprover",
			"type": "error"
		},
		{
			"inputs": [
				{
					"internalType": "uint256",
					"name": "idsLength",
					"type": "uint256"
				},
				{
					"internalType": "uint256",
					"name": "valuesLength",
					"type": "uint256"
				}
			],
			"name": "ERC1155InvalidArrayLength",
			"type": "error"
		},
		{
			"inputs": [
				{
					"internalType": "address",
					"name": "operator",
					"type": "address"
				}
			],
			"name": "ERC1155InvalidOperator",
			"type": "error"
		},
		{
			"inputs": [
				{
					"internalType": "address",
					"name": "receiver",
					"type": "address"
				}
			],
			"name": "ERC1155InvalidReceiver",
			"type": "error"
		},
		{
			"inputs": [
				{
					"internalType": "address",
					"name": "sender",
					"type": "address"
				}
			],
			"name": "ERC1155InvalidSender",
			"type": "error"
		},
		{
			"inputs": [
				{
					"internalType": "address",
					"name": "operator",
					"type": "address"
				},
				{
					"internalType": "address",
					"name": "owner",
					"type": "address"
				}
			],
			"name": "ERC1155MissingApprovalForAll",
			"type": "error"
		},
		{
			"inputs": [
				{
					"internalType": "address",
					"name": "owner",
					"type": "address"
				}
			],
			"name": "OwnableInvalidOwner",
			"type": "error"
		},
		{
			"inputs": [
				{
					"internalType": "address",
					"name": "account",
					"type": "address"
				}
			],
			"name": "OwnableUnauthorizedAccount",
			"type": "error"
		},
		{
			"anonymous": false,
			"inputs": [
				{
					"indexed": true,
					"internalType": "address",
					"name": "account",
					"type": "address"
				},
				{
					"indexed": true,
					"internalType": "address",
					"name": "operator",
					"type": "address"
				},
				{
					"indexed": false,
					"internalType": "bool",
					"name": "approved",
					"type": "bool"
				}
			],
			"name": "ApprovalForAll",
			"type": "event"
		},
		{
			"anonymous": false,
			"inputs": [
				{
					"indexed": true,
					"internalType": "address",
					"name": "previousOwner",
					"type": "address"
				},
				{
					"indexed": true,
					"internalType": "address",
					"name": "newOwner",
					"type": "address"
				}
			],
			"name": "OwnershipTransferred",
			"type": "event"
		},
		{
			"anonymous": false,
			"inputs": [
				{
					"indexed": true,
					"internalType": "uint256",
					"name": "tokenId",
					"type": "uint256"
				},
				{
					"indexed": false,
					"internalType": "string",
					"name": "tokenURI",
					"type": "string"
				},
				{
					"indexed": false,
					"internalType": "uint256",
					"name": "totalShares",
					"type": "uint256"
				},
				{
					"indexed": false,
					"internalType": "uint256",
					"name": "propertyValue",
					"type": "uint256"
				}
			],
			"name": "PropertyTokenized",
			"type": "event"
		},
		{
			"anonymous": false,
			"inputs": [
				{
					"indexed": true,
					"internalType": "uint256",
					"name": "tokenId",
					"type": "uint256"
				},
				{
					"indexed": false,
					"internalType": "uint256",
					"name": "newValue",
					"type": "uint256"
				}
			],
			"name": "PropertyValueUpdated",
			"type": "event"
		},
		{
			"anonymous": false,
			"inputs": [
				{
					"indexed": true,
					"internalType": "uint256",
					"name": "tokenId",
					"type": "uint256"
				},
				{
					"indexed": false,
					"internalType": "uint256",
					"name": "amount",
					"type": "uint256"
				}
			],
			"name": "RentalIncomeRecorded",
			"type": "event"
		},
		{
			"anonymous": false,
			"inputs": [
				{
					"indexed": true,
					"internalType": "address",
					"name": "operator",
					"type": "address"
				},
				{
					"indexed": true,
					"internalType": "address",
					"name": "from",
					"type": "address"
				},
				{
					"indexed": true,
					"internalType": "address",
					"name": "to",
					"type": "address"
				},
				{
					"indexed": false,
					"internalType": "uint256[]",
					"name": "ids",
					"type": "uint256[]"
				},
				{
					"indexed": false,
					"internalType": "uint256[]",
					"name": "values",
					"type": "uint256[]"
				}
			],
			"name": "TransferBatch",
			"type": "event"
		},
		{
			"anonymous": false,
			"inputs": [
				{
					"indexed": true,
					"internalType": "address",
					"name": "operator",
					"type": "address"
				},
				{
					"indexed": true,
					"internalType": "address",
					"name": "from",
					"type": "address"
				},
				{
					"indexed": true,
					"internalType": "address",
					"name": "to",
					"type": "address"
				},
				{
					"indexed": false,
					"internalType": "uint256",
					"name": "id",
					"type": "uint256"
				},
				{
					"indexed": false,
					"internalType": "uint256",
					"name": "value",
					"type": "uint256"
				}
			],
			"name": "TransferSingle",
			"type": "event"
		},
		{
			"anonymous": false,
			"inputs": [
				{
					"indexed": false,
					"internalType": "string",
					"name": "value",
					"type": "string"
				},
				{
					"indexed": true,
					"internalType": "uint256",
					"name": "id",
					"type": "uint256"
				}
			],
			"name": "URI",
			"type": "event"
		},
		{
			"inputs": [
				{
					"internalType": "address",
					"name": "account",
					"type": "address"
				},
				{
					"internalType": "uint256",
					"name": "id",
					"type": "uint256"
				}
			],
			"name": "balanceOf",
			"outputs": [
				{
					"internalType": "uint256",
					"name": "",
					"type": "uint256"
				}
			],
			"stateMutability": "view",
			"type": "function"
		},
		{
			"inputs": [
				{
					"internalType": "address[]",
					"name": "accounts",
					"type": "address[]"
				},
				{
					"internalType": "uint256[]",
					"name": "ids",
					"type": "uint256[]"
				}
			],
			"name": "balanceOfBatch",
			"outputs": [
				{
					"internalType": "uint256[]",
					"name": "",
					"type": "uint256[]"
				}
			],
			"stateMutability": "view",
			"type": "function"
		},
		{
			"inputs": [
				{
					"internalType": "uint256",
					"name": "tokenId",
					"type": "uint256"
				}
			],
			"name": "getPropertyValue",
			"outputs": [
				{
					"internalType": "uint256",
					"name": "",
					"type": "uint256"
				}
			],
			"stateMutability": "view",
			"type": "function"
		},
		{
			"inputs": [
				{
					"internalType": "uint256",
					"name": "tokenId",
					"type": "uint256"
				}
			],
			"name": "getRentalIncome",
			"outputs": [
				{
					"internalType": "uint256",
					"name": "",
					"type": "uint256"
				}
			],
			"stateMutability": "view",
			"type": "function"
		},
		{
			"inputs": [
				{
					"internalType": "address",
					"name": "account",
					"type": "address"
				},
				{
					"internalType": "address",
					"name": "operator",
					"type": "address"
				}
			],
			"name": "isApprovedForAll",
			"outputs": [
				{
					"internalType": "bool",
					"name": "",
					"type": "bool"
				}
			],
			"stateMutability": "view",
			"type": "function"
		},
		{
			"inputs": [],
			"name": "owner",
			"outputs": [
				{
					"internalType": "address",
					"name": "",
					"type": "address"
				}
			],
			"stateMutability": "view",
			"type": "function"
		},
		{
			"inputs": [
				{
					"internalType": "uint256",
					"name": "",
					"type": "uint256"
				}
			],
			"name": "propertyValues",
			"outputs": [
				{
					"internalType": "uint256",
					"name": "",
					"type": "uint256"
				}
			],
			"stateMutability": "view",
			"type": "function"
		},
		{
			"inputs": [
				{
					"internalType": "uint256",
					"name": "tokenId",
					"type": "uint256"
				},
				{
					"internalType": "uint256",
					"name": "amount",
					"type": "uint256"
				}
			],
			"name": "recordRentalIncome",
			"outputs": [],
			"stateMutability": "nonpayable",
			"type": "function"
		},
		{
			"inputs": [],
			"name": "renounceOwnership",
			"outputs": [],
			"stateMutability": "nonpayable",
			"type": "function"
		},
		{
			"inputs": [
				{
					"internalType": "uint256",
					"name": "",
					"type": "uint256"
				}
			],
			"name": "rentalIncomes",
			"outputs": [
				{
					"internalType": "uint256",
					"name": "",
					"type": "uint256"
				}
			],
			"stateMutability": "view",
			"type": "function"
		},
		{
			"inputs": [
				{
					"internalType": "address",
					"name": "from",
					"type": "address"
				},
				{
					"internalType": "address",
					"name": "to",
					"type": "address"
				},
				{
					"internalType": "uint256[]",
					"name": "ids",
					"type": "uint256[]"
				},
				{
					"internalType": "uint256[]",
					"name": "values",
					"type": "uint256[]"
				},
				{
					"internalType": "bytes",
					"name": "data",
					"type": "bytes"
				}
			],
			"name": "safeBatchTransferFrom",
			"outputs": [],
			"stateMutability": "nonpayable",
			"type": "function"
		},
		{
			"inputs": [
				{
					"internalType": "address",
					"name": "from",
					"type": "address"
				},
				{
					"internalType": "address",
					"name": "to",
					"type": "address"
				},
				{
					"internalType": "uint256",
					"name": "id",
					"type": "uint256"
				},
				{
					"internalType": "uint256",
					"name": "value",
					"type": "uint256"
				},
				{
					"internalType": "bytes",
					"name": "data",
					"type": "bytes"
				}
			],
			"name": "safeTransferFrom",
			"outputs": [],
			"stateMutability": "nonpayable",
			"type": "function"
		},
		{
			"inputs": [
				{
					"internalType": "address",
					"name": "operator",
					"type": "address"
				},
				{
					"internalType": "bool",
					"name": "approved",
					"type": "bool"
				}
			],
			"name": "setApprovalForAll",
			"outputs": [],
			"stateMutability": "nonpayable",
			"type": "function"
		},
		{
			"inputs": [
				{
					"internalType": "bytes4",
					"name": "interfaceId",
					"type": "bytes4"
				}
			],
			"name": "supportsInterface",
			"outputs": [
				{
					"internalType": "bool",
					"name": "",
					"type": "bool"
				}
			],
			"stateMutability": "view",
			"type": "function"
		},
		{
			"inputs": [
				{
					"internalType": "string",
					"name": "tokenURI",
					"type": "string"
				},
				{
					"internalType": "uint256",
					"name": "totalShares",
					"type": "uint256"
				},
				{
					"internalType": "uint256",
					"name": "propertyValue",
					"type": "uint256"
				}
			],
			"name": "tokenizeProperty",
			"outputs": [
				{
					"internalType": "uint256",
					"name": "",
					"type": "uint256"
				}
			],
			"stateMutability": "nonpayable",
			"type": "function"
		},
		{
			"inputs": [
				{
					"internalType": "address",
					"name": "newOwner",
					"type": "address"
				}
			],
			"name": "transferOwnership",
			"outputs": [],
			"stateMutability": "nonpayable",
			"type": "function"
		},
		{
			"inputs": [
				{
					"internalType": "uint256",
					"name": "tokenId",
					"type": "uint256"
				},
				{
					"internalType": "uint256",
					"name": "newValue",
					"type": "uint256"
				}
			],
			"name": "updatePropertyValue",
			"outputs": [],
			"stateMutability": "nonpayable",
			"type": "function"
		},
		{
			"inputs": [
				{
					"internalType": "uint256",
					"name": "tokenId",
					"type": "uint256"
				}
			],
			"name": "uri",
			"outputs": [
				{
					"internalType": "string",
					"name": "",
					"type": "string"
				}
			],
			"stateMutability": "view",
			"type": "function"
		}
	]
}