{
	"data": {
		"bytecode": {
			"linkReferences": {},
			"object": "60806040526001600355348015610014575f5ffd5b50335f73ffffffffffffffffffffffffffffffffffffffff168173ffffffffffffffffffffffffffffffffffffffff1603610086575f6040517f1e4fbdf700000000000000000000000000000000000000000000000000000000815260040161007d919061019b565b60405180910390fd5b6100958161009b60201b60201c565b506101b4565b5f5f5f9054906101000a900473ffffffffffffffffffffffffffffffffffffffff169050815f5f6101000a81548173ffffffffffffffffffffffffffffffffffffffff021916908373ffffffffffffffffffffffffffffffffffffffff1602179055508173ffffffffffffffffffffffffffffffffffffffff168173ffffffffffffffffffffffffffffffffffffffff167f8be0079c531659141344cd1fd0a4f28419497f9722a3daafe3b4186f6b6457e060405160405180910390a35050565b5f73ffffffffffffffffffffffffffffffffffffffff82169050919050565b5f6101858261015c565b9050919050565b6101958161017b565b82525050565b5f6020820190506101ae5f83018461018c565b92915050565b61136f806101c15f395ff3fe608060405234801561000f575f5ffd5b5060043610610091575f3560e01c8063715018a611610064578063715018a614610133578063846814b41461013d5780638da5cb5b1461016d5780639b8c549a1461018b578063f2fde38b146101bb57610091565b806332b2b9341461009557806338206125146100c657806340f0a055146100e2578063416e4f4814610117575b5f5ffd5b6100af60048036038101906100aa9190610952565b6101d7565b6040516100bd92919061099f565b60405180910390f35b6100e060048036038101906100db9190610952565b610227565b005b6100fc60048036038101906100f791906109c6565b61024c565b60405161010e96959493929190610a7b565b60405180910390f35b610131600480360381019061012c9190610952565b6103b8565b005b61013b6103fd565b005b61015760048036038101906101529190610cf6565b610410565b6040516101649190610e03565b60405180910390f35b6101756105b8565b6040516101829190610e5b565b60405180910390f35b6101a560048036038101906101a09190610952565b6105df565b6040516101b29190610e03565b60405180910390f35b6101d560048036038101906101d09190610e9e565b61062a565b005b5f5f5f60015f8681526020019081526020015f2090505f6102058260050154866106ae90919063ffffffff16565b90508060025f8881526020019081526020015f20549350935050509250929050565b61022f6106c3565b8060015f8481526020019081526020015f20600701819055505050565b6060805f5f5f5f5f60015f8981526020019081526020015f209050805f018160010182600401548360050154846009015f9054906101000a900460ff1685600a015485805461029a90610ef6565b80601f01602080910402602001604051908101604052809291908181526020018280546102c690610ef6565b80156103115780601f106102e857610100808354040283529160200191610311565b820191905f5260205f20905b8154815290600101906020018083116102f457829003601f168201915b5050505050955084805461032490610ef6565b80601f016020809104026020016040519081016040528092919081815260200182805461035090610ef6565b801561039b5780601f106103725761010080835404028352916020019161039b565b820191905f5260205f20905b81548152906001019060200180831161037e57829003601f168201915b505050505094509650965096509650965096505091939550919395565b6103c06106c3565b6103e48160025f8581526020019081526020015f205461074a90919063ffffffff16565b60025f8481526020019081526020015f20819055505050565b6104056106c3565b61040e5f61075f565b565b5f6104196106c3565b5f60035490506040518061016001604052808a81526020018981526020018881526020018781526020018681526020018581526020018481526020018481526020014281526020015f151581526020015f81525060015f8381526020019081526020015f205f820151815f01908161049191906110c6565b5060208201518160010190816104a791906110c6565b5060408201518160020190816104bd91906110c6565b5060608201518160030190805190602001906104da92919061083c565b506080820151816004015560a0820151816005015560c0820151816006015560e082015181600701556101008201518160080155610120820151816009015f6101000a81548160ff02191690831515021790555061014082015181600a01559050508460025f8381526020019081526020015f2081905550807ff995299d6b78bab4559102318b5c60fb5ada990cf028f135a648875091233a9b8a8a88888860405161058a959493929190611195565b60405180910390a260035f8154809291906105a490611221565b919050555080915050979650505050505050565b5f5f5f9054906101000a900473ffffffffffffffffffffffffffffffffffffffff16905090565b5f5f60015f8581526020019081526020015f20905061062181600401546106138360070154866106ae90919063ffffffff16565b61082090919063ffffffff16565b91505092915050565b6106326106c3565b5f73ffffffffffffffffffffffffffffffffffffffff168173ffffffffffffffffffffffffffffffffffffffff16036106a2575f6040517f1e4fbdf70000000000000000000000000000000000000000000000000000000081526004016106999190610e5b565b60405180910390fd5b6106ab8161075f565b50565b5f81836106bb9190611268565b905092915050565b6106cb610835565b73ffffffffffffffffffffffffffffffffffffffff166106e96105b8565b73ffffffffffffffffffffffffffffffffffffffff16146107485761070c610835565b6040517f118cdaa700000000000000000000000000000000000000000000000000000000815260040161073f9190610e5b565b60405180910390fd5b565b5f818361075791906112a9565b905092915050565b5f5f5f9054906101000a900473ffffffffffffffffffffffffffffffffffffffff169050815f5f6101000a81548173ffffffffffffffffffffffffffffffffffffffff021916908373ffffffffffffffffffffffffffffffffffffffff1602179055508173ffffffffffffffffffffffffffffffffffffffff168173ffffffffffffffffffffffffffffffffffffffff167f8be0079c531659141344cd1fd0a4f28419497f9722a3daafe3b4186f6b6457e060405160405180910390a35050565b5f818361082d9190611309565b905092915050565b5f33905090565b828054828255905f5260205f20908101928215610882579160200282015b8281111561088157825182908161087191906110c6565b509160200191906001019061085a565b5b50905061088f9190610893565b5090565b5b808211156108b2575f81816108a991906108b6565b50600101610894565b5090565b5080546108c290610ef6565b5f825580601f106108d357506108f0565b601f0160209004905f5260205f20908101906108ef91906108f3565b5b50565b5b8082111561090a575f815f9055506001016108f4565b5090565b5f604051905090565b5f5ffd5b5f5ffd5b5f819050919050565b6109318161091f565b811461093b575f5ffd5b50565b5f8135905061094c81610928565b92915050565b5f5f6040838503121561096857610967610917565b5b5f6109758582860161093e565b92505060206109868582860161093e565b9150509250929050565b6109998161091f565b82525050565b5f6040820190506109b25f830185610990565b6109bf6020830184610990565b9392505050565b5f602082840312156109db576109da610917565b5b5f6109e88482850161093e565b91505092915050565b5f81519050919050565b5f82825260208201905092915050565b8281835e5f83830152505050565b5f601f19601f8301169050919050565b5f610a33826109f1565b610a3d81856109fb565b9350610a4d818560208601610a0b565b610a5681610a19565b840191505092915050565b5f8115159050919050565b610a7581610a61565b82525050565b5f60c0820190508181035f830152610a938189610a29565b90508181036020830152610aa78188610a29565b9050610ab66040830187610990565b610ac36060830186610990565b610ad06080830185610a6c565b610add60a0830184610990565b979650505050505050565b5f5ffd5b5f5ffd5b7f4e487b71000000000000000000000000000000000000000000000000000000005f52604160045260245ffd5b610b2682610a19565b810181811067ffffffffffffffff82111715610b4557610b44610af0565b5b80604052505050565b5f610b5761090e565b9050610b638282610b1d565b919050565b5f67ffffffffffffffff821115610b8257610b81610af0565b5b610b8b82610a19565b9050602081019050919050565b828183375f83830152505050565b5f610bb8610bb384610b68565b610b4e565b905082815260208101848484011115610bd457610bd3610aec565b5b610bdf848285610b98565b509392505050565b5f82601f830112610bfb57610bfa610ae8565b5b8135610c0b848260208601610ba6565b91505092915050565b5f67ffffffffffffffff821115610c2e57610c2d610af0565b5b602082029050602081019050919050565b5f5ffd5b5f610c55610c5084610c14565b610b4e565b90508083825260208201905060208402830185811115610c7857610c77610c3f565b5b835b81811015610cbf57803567ffffffffffffffff811115610c9d57610c9c610ae8565b5b808601610caa8982610be7565b85526020850194505050602081019050610c7a565b5050509392505050565b5f82601f830112610cdd57610cdc610ae8565b5b8135610ced848260208601610c43565b91505092915050565b5f5f5f5f5f5f5f60e0888a031215610d1157610d10610917565b5b5f88013567ffffffffffffffff811115610d2e57610d2d61091b565b5b610d3a8a828b01610be7565b975050602088013567ffffffffffffffff811115610d5b57610d5a61091b565b5b610d678a828b01610be7565b965050604088013567ffffffffffffffff811115610d8857610d8761091b565b5b610d948a828b01610be7565b955050606088013567ffffffffffffffff811115610db557610db461091b565b5b610dc18a828b01610cc9565b9450506080610dd28a828b0161093e565b93505060a0610de38a828b0161093e565b92505060c0610df48a828b0161093e565b91505092959891949750929550565b5f602082019050610e165f830184610990565b92915050565b5f73ffffffffffffffffffffffffffffffffffffffff82169050919050565b5f610e4582610e1c565b9050919050565b610e5581610e3b565b82525050565b5f602082019050610e6e5f830184610e4c565b92915050565b610e7d81610e3b565b8114610e87575f5ffd5b50565b5f81359050610e9881610e74565b92915050565b5f60208284031215610eb357610eb2610917565b5b5f610ec084828501610e8a565b91505092915050565b7f4e487b71000000000000000000000000000000000000000000000000000000005f52602260045260245ffd5b5f6002820490506001821680610f0d57607f821691505b602082108103610f2057610f1f610ec9565b5b50919050565b5f819050815f5260205f209050919050565b5f6020601f8301049050919050565b5f82821b905092915050565b5f60088302610f827fffffffffffffffffffffffffffffffffffffffffffffffffffffffffffffffff82610f47565b610f8c8683610f47565b95508019841693508086168417925050509392505050565b5f819050919050565b5f610fc7610fc2610fbd8461091f565b610fa4565b61091f565b9050919050565b5f819050919050565b610fe083610fad565b610ff4610fec82610fce565b848454610f53565b825550505050565b5f5f905090565b61100b610ffc565b611016818484610fd7565b505050565b5b818110156110395761102e5f82611003565b60018101905061101c565b5050565b601f82111561107e5761104f81610f26565b61105884610f38565b81016020851015611067578190505b61107b61107385610f38565b83018261101b565b50505b505050565b5f82821c905092915050565b5f61109e5f1984600802611083565b1980831691505092915050565b5f6110b6838361108f565b9150826002028217905092915050565b6110cf826109f1565b67ffffffffffffffff8111156110e8576110e7610af0565b5b6110f28254610ef6565b6110fd82828561103d565b5f60209050601f83116001811461112e575f841561111c578287015190505b61112685826110ab565b86555061118d565b601f19841661113c86610f26565b5f5b828110156111635784890151825560018201915060208501945060208101905061113e565b86831015611180578489015161117c601f89168261108f565b8355505b6001600288020188555050505b505050505050565b5f60a0820190508181035f8301526111ad8188610a29565b905081810360208301526111c18187610a29565b90506111d06040830186610990565b6111dd6060830185610990565b6111ea6080830184610990565b9695505050505050565b7f4e487b71000000000000000000000000000000000000000000000000000000005f52601160045260245ffd5b5f61122b8261091f565b91507fffffffffffffffffffffffffffffffffffffffffffffffffffffffffffffffff820361125d5761125c6111f4565b5b600182019050919050565b5f6112728261091f565b915061127d8361091f565b925082820261128b8161091f565b915082820484148315176112a2576112a16111f4565b5b5092915050565b5f6112b38261091f565b91506112be8361091f565b92508282039050818111156112d6576112d56111f4565b5b92915050565b7f4e487b71000000000000000000000000000000000000000000000000000000005f52601260045260245ffd5b5f6113138261091f565b915061131e8361091f565b92508261132e5761132d6112dc565b5b82820490509291505056fea26469706673582212208e55fd8acb93eebe044767650ed9ab8f67e5a63b42b6599ea30db0b63cdf226c64736f6c634300081d0033",
			"opcodes": "PUSH1 0x80 PUSH1 0x40 MSTORE PUSH1 0x1 PUSH1 0x3 SSTORE CALLVALUE DUP1 ISZERO PUSH2 0x14 JUMPI PUSH0 PUSH0 REVERT JUMPDEST POP CALLER PUSH0 PUSH20 0xFFFFFFFFFFFFFFFFFFFFFFFFFFFFFFFFFFFFFFFF AND DUP2 PUSH20 0xFFFFFFFFFFFFFFFFFFFFFFFFFFFFFFFFFFFFFFFF AND SUB PUSH2 0x86 JUMPI PUSH0 PUSH1 0x40 MLOAD PUSH32 0x1E4FBDF700000000000000000000000000000000000000000000000000000000 DUP2 MSTORE PUSH1 0x4 ADD PUSH2 0x7D SWAP2 SWAP1 PUSH2 0x19B JUMP JUMPDEST PUSH1 0x40 MLOAD DUP1 SWAP2 SUB SWAP1 REVERT JUMPDEST PUSH2 0x95 DUP2 PUSH2 0x9B PUSH1 0x20 SHL PUSH1 0x20 SHR JUMP JUMPDEST POP PUSH2 0x1B4 JUMP JUMPDEST PUSH0 PUSH0 PUSH0 SWAP1 SLOAD SWAP1 PUSH2 0x100 EXP SWAP1 DIV PUSH20 0xFFFFFFFFFFFFFFFFFFFFFFFFFFFFFFFFFFFFFFFF AND SWAP1 POP DUP2 PUSH0 PUSH0 PUSH2 0x100 EXP DUP2 SLOAD DUP2 PUSH20 0xFFFFFFFFFFFFFFFFFFFFFFFFFFFFFFFFFFFFFFFF MUL NOT AND SWAP1 DUP4 PUSH20 0xFFFFFFFFFFFFFFFFFFFFFFFFFFFFFFFFFFFFFFFF AND MUL OR SWAP1 SSTORE POP DUP2 PUSH20 0xFFFFFFFFFFFFFFFFFFFFFFFFFFFFFFFFFFFFFFFF AND DUP2 PUSH20 0xFFFFFFFFFFFFFFFFFFFFFFFFFFFFFFFFFFFFFFFF AND PUSH32 0x8BE0079C531659141344CD1FD0A4F28419497F9722A3DAAFE3B4186F6B6457E0 PUSH1 0x40 MLOAD PUSH1 0x40 MLOAD DUP1 SWAP2 SUB SWAP1 LOG3 POP POP JUMP JUMPDEST PUSH0 PUSH20 0xFFFFFFFFFFFFFFFFFFFFFFFFFFFFFFFFFFFFFFFF DUP3 AND SWAP1 POP SWAP2 SWAP1 POP JUMP JUMPDEST PUSH0 PUSH2 0x185 DUP3 PUSH2 0x15C JUMP JUMPDEST SWAP1 POP SWAP2 SWAP1 POP JUMP JUMPDEST PUSH2 0x195 DUP2 PUSH2 0x17B JUMP JUMPDEST DUP3 MSTORE POP POP JUMP JUMPDEST PUSH0 PUSH1 0x20 DUP3 ADD SWAP1 POP PUSH2 0x1AE PUSH0 DUP4 ADD DUP5 PUSH2 0x18C JUMP JUMPDEST SWAP3 SWAP2 POP POP JUMP JUMPDEST PUSH2 0x136F DUP1 PUSH2 0x1C1 PUSH0 CODECOPY PUSH0 RETURN INVALID PUSH1 0x80 PUSH1 0x40 MSTORE CALLVALUE DUP1 ISZERO PUSH2 0xF JUMPI PUSH0 PUSH0 REVERT JUMPDEST POP PUSH1 0x4 CALLDATASIZE LT PUSH2 0x91 JUMPI PUSH0 CALLDATALOAD PUSH1 0xE0 SHR DUP1 PUSH4 0x715018A6 GT PUSH2 0x64 JUMPI DUP1 PUSH4 0x715018A6 EQ PUSH2 0x133 JUMPI DUP1 PUSH4 0x846814B4 EQ PUSH2 0x13D JUMPI DUP1 PUSH4 0x8DA5CB5B EQ PUSH2 0x16D JUMPI DUP1 PUSH4 0x9B8C549A EQ PUSH2 0x18B JUMPI DUP1 PUSH4 0xF2FDE38B EQ PUSH2 0x1BB JUMPI PUSH2 0x91 JUMP JUMPDEST DUP1 PUSH4 0x32B2B934 EQ PUSH2 0x95 JUMPI DUP1 PUSH4 0x38206125 EQ PUSH2 0xC6 JUMPI DUP1 PUSH4 0x40F0A055 EQ PUSH2 0xE2 JUMPI DUP1 PUSH4 0x416E4F48 EQ PUSH2 0x117 JUMPI JUMPDEST PUSH0 PUSH0 REVERT JUMPDEST PUSH2 0xAF PUSH1 0x4 DUP1 CALLDATASIZE SUB DUP2 ADD SWAP1 PUSH2 0xAA SWAP2 SWAP1 PUSH2 0x952 JUMP JUMPDEST PUSH2 0x1D7 JUMP JUMPDEST PUSH1 0x40 MLOAD PUSH2 0xBD SWAP3 SWAP2 SWAP1 PUSH2 0x99F JUMP JUMPDEST PUSH1 0x40 MLOAD DUP1 SWAP2 SUB SWAP1 RETURN JUMPDEST PUSH2 0xE0 PUSH1 0x4 DUP1 CALLDATASIZE SUB DUP2 ADD SWAP1 PUSH2 0xDB SWAP2 SWAP1 PUSH2 0x952 JUMP JUMPDEST PUSH2 0x227 JUMP JUMPDEST STOP JUMPDEST PUSH2 0xFC PUSH1 0x4 DUP1 CALLDATASIZE SUB DUP2 ADD SWAP1 PUSH2 0xF7 SWAP2 SWAP1 PUSH2 0x9C6 JUMP JUMPDEST PUSH2 0x24C JUMP JUMPDEST PUSH1 0x40 MLOAD PUSH2 0x10E SWAP7 SWAP6 SWAP5 SWAP4 SWAP3 SWAP2 SWAP1 PUSH2 0xA7B JUMP JUMPDEST PUSH1 0x40 MLOAD DUP1 SWAP2 SUB SWAP1 RETURN JUMPDEST PUSH2 0x131 PUSH1 0x4 DUP1 CALLDATASIZE SUB DUP2 ADD SWAP1 PUSH2 0x12C SWAP2 SWAP1 PUSH2 0x952 JUMP JUMPDEST PUSH2 0x3B8 JUMP JUMPDEST STOP JUMPDEST PUSH2 0x13B PUSH2 0x3FD JUMP JUMPDEST STOP JUMPDEST PUSH2 0x157 PUSH1 0x4 DUP1 CALLDATASIZE SUB DUP2 ADD SWAP1 PUSH2 0x152 SWAP2 SWAP1 PUSH2 0xCF6 JUMP JUMPDEST PUSH2 0x410 JUMP JUMPDEST PUSH1 0x40 MLOAD PUSH2 0x164 SWAP2 SWAP1 PUSH2 0xE03 JUMP JUMPDEST PUSH1 0x40 MLOAD DUP1 SWAP2 SUB SWAP1 RETURN JUMPDEST PUSH2 0x175 PUSH2 0x5B8 JUMP JUMPDEST PUSH1 0x40 MLOAD PUSH2 0x182 SWAP2 SWAP1 PUSH2 0xE5B JUMP JUMPDEST PUSH1 0x40 MLOAD DUP1 SWAP2 SUB SWAP1 RETURN JUMPDEST PUSH2 0x1A5 PUSH1 0x4 DUP1 CALLDATASIZE SUB DUP2 ADD SWAP1 PUSH2 0x1A0 SWAP2 SWAP1 PUSH2 0x952 JUMP JUMPDEST PUSH2 0x5DF JUMP JUMPDEST PUSH1 0x40 MLOAD PUSH2 0x1B2 SWAP2 SWAP1 PUSH2 0xE03 JUMP JUMPDEST PUSH1 0x40 MLOAD DUP1 SWAP2 SUB SWAP1 RETURN JUMPDEST PUSH2 0x1D5 PUSH1 0x4 DUP1 CALLDATASIZE SUB DUP2 ADD SWAP1 PUSH2 0x1D0 SWAP2 SWAP1 PUSH2 0xE9E JUMP JUMPDEST PUSH2 0x62A JUMP JUMPDEST STOP JUMPDEST PUSH0 PUSH0 PUSH0 PUSH1 0x1 PUSH0 DUP7 DUP2 MSTORE PUSH1 0x20 ADD SWAP1 DUP2 MSTORE PUSH1 0x20 ADD PUSH0 KECCAK256 SWAP1 POP PUSH0 PUSH2 0x205 DUP3 PUSH1 0x5 ADD SLOAD DUP7 PUSH2 0x6AE SWAP1 SWAP2 SWAP1 PUSH4 0xFFFFFFFF AND JUMP JUMPDEST SWAP1 POP DUP1 PUSH1 0x2 PUSH0 DUP9 DUP2 MSTORE PUSH1 0x20 ADD SWAP1 DUP2 MSTORE PUSH1 0x20 ADD PUSH0 KECCAK256 SLOAD SWAP4 POP SWAP4 POP POP POP SWAP3 POP SWAP3 SWAP1 POP JUMP JUMPDEST PUSH2 0x22F PUSH2 0x6C3 JUMP JUMPDEST DUP1 PUSH1 0x1 PUSH0 DUP5 DUP2 MSTORE PUSH1 0x20 ADD SWAP1 DUP2 MSTORE PUSH1 0x20 ADD PUSH0 KECCAK256 PUSH1 0x7 ADD DUP2 SWAP1 SSTORE POP POP POP JUMP JUMPDEST PUSH1 0x60 DUP1 PUSH0 PUSH0 PUSH0 PUSH0 PUSH0 PUSH1 0x1 PUSH0 DUP10 DUP2 MSTORE PUSH1 0x20 ADD SWAP1 DUP2 MSTORE PUSH1 0x20 ADD PUSH0 KECCAK256 SWAP1 POP DUP1 PUSH0 ADD DUP2 PUSH1 0x1 ADD DUP3 PUSH1 0x4 ADD SLOAD DUP4 PUSH1 0x5 ADD SLOAD DUP5 PUSH1 0x9 ADD PUSH0 SWAP1 SLOAD SWAP1 PUSH2 0x100 EXP SWAP1 DIV PUSH1 0xFF AND DUP6 PUSH1 0xA ADD SLOAD DUP6 DUP1 SLOAD PUSH2 0x29A SWAP1 PUSH2 0xEF6 JUMP JUMPDEST DUP1 PUSH1 0x1F ADD PUSH1 0x20 DUP1 SWAP2 DIV MUL PUSH1 0x20 ADD PUSH1 0x40 MLOAD SWAP1 DUP2 ADD PUSH1 0x40 MSTORE DUP1 SWAP3 SWAP2 SWAP1 DUP2 DUP2 MSTORE PUSH1 0x20 ADD DUP3 DUP1 SLOAD PUSH2 0x2C6 SWAP1 PUSH2 0xEF6 JUMP JUMPDEST DUP1 ISZERO PUSH2 0x311 JUMPI DUP1 PUSH1 0x1F LT PUSH2 0x2E8 JUMPI PUSH2 0x100 DUP1 DUP4 SLOAD DIV MUL DUP4 MSTORE SWAP2 PUSH1 0x20 ADD SWAP2 PUSH2 0x311 JUMP JUMPDEST DUP3 ADD SWAP2 SWAP1 PUSH0 MSTORE PUSH1 0x20 PUSH0 KECCAK256 SWAP1 JUMPDEST DUP2 SLOAD DUP2 MSTORE SWAP1 PUSH1 0x1 ADD SWAP1 PUSH1 0x20 ADD DUP1 DUP4 GT PUSH2 0x2F4 JUMPI DUP3 SWAP1 SUB PUSH1 0x1F AND DUP3 ADD SWAP2 JUMPDEST POP POP POP POP POP SWAP6 POP DUP5 DUP1 SLOAD PUSH2 0x324 SWAP1 PUSH2 0xEF6 JUMP JUMPDEST DUP1 PUSH1 0x1F ADD PUSH1 0x20 DUP1 SWAP2 DIV MUL PUSH1 0x20 ADD PUSH1 0x40 MLOAD SWAP1 DUP2 ADD PUSH1 0x40 MSTORE DUP1 SWAP3 SWAP2 SWAP1 DUP2 DUP2 MSTORE PUSH1 0x20 ADD DUP3 DUP1 SLOAD PUSH2 0x350 SWAP1 PUSH2 0xEF6 JUMP JUMPDEST DUP1 ISZERO PUSH2 0x39B JUMPI DUP1 PUSH1 0x1F LT PUSH2 0x372 JUMPI PUSH2 0x100 DUP1 DUP4 SLOAD DIV MUL DUP4 MSTORE SWAP2 PUSH1 0x20 ADD SWAP2 PUSH2 0x39B JUMP JUMPDEST DUP3 ADD SWAP2 SWAP1 PUSH0 MSTORE PUSH1 0x20 PUSH0 KECCAK256 SWAP1 JUMPDEST DUP2 SLOAD DUP2 MSTORE SWAP1 PUSH1 0x1 ADD SWAP1 PUSH1 0x20 ADD DUP1 DUP4 GT PUSH2 0x37E JUMPI DUP3 SWAP1 SUB PUSH1 0x1F AND DUP3 ADD SWAP2 JUMPDEST POP POP POP POP POP SWAP5 POP SWAP7 POP SWAP7 POP SWAP7 POP SWAP7 POP SWAP7 POP SWAP7 POP POP SWAP2 SWAP4 SWAP6 POP SWAP2 SWAP4 SWAP6 JUMP JUMPDEST PUSH2 0x3C0 PUSH2 0x6C3 JUMP JUMPDEST PUSH2 0x3E4 DUP2 PUSH1 0x2 PUSH0 DUP6 DUP2 MSTORE PUSH1 0x20 ADD SWAP1 DUP2 MSTORE PUSH1 0x20 ADD PUSH0 KECCAK256 SLOAD PUSH2 0x74A SWAP1 SWAP2 SWAP1 PUSH4 0xFFFFFFFF AND JUMP JUMPDEST PUSH1 0x2 PUSH0 DUP5 DUP2 MSTORE PUSH1 0x20 ADD SWAP1 DUP2 MSTORE PUSH1 0x20 ADD PUSH0 KECCAK256 DUP2 SWAP1 SSTORE POP POP POP JUMP JUMPDEST PUSH2 0x405 PUSH2 0x6C3 JUMP JUMPDEST PUSH2 0x40E PUSH0 PUSH2 0x75F JUMP JUMPDEST JUMP JUMPDEST PUSH0 PUSH2 0x419 PUSH2 0x6C3 JUMP JUMPDEST PUSH0 PUSH1 0x3 SLOAD SWAP1 POP PUSH1 0x40 MLOAD DUP1 PUSH2 0x160 ADD PUSH1 0x40 MSTORE DUP1 DUP11 DUP2 MSTORE PUSH1 0x20 ADD DUP10 DUP2 MSTORE PUSH1 0x20 ADD DUP9 DUP2 MSTORE PUSH1 0x20 ADD DUP8 DUP2 MSTORE PUSH1 0x20 ADD DUP7 DUP2 MSTORE PUSH1 0x20 ADD DUP6 DUP2 MSTORE PUSH1 0x20 ADD DUP5 DUP2 MSTORE PUSH1 0x20 ADD DUP5 DUP2 MSTORE PUSH1 0x20 ADD TIMESTAMP DUP2 MSTORE PUSH1 0x20 ADD PUSH0 ISZERO ISZERO DUP2 MSTORE PUSH1 0x20 ADD PUSH0 DUP2 MSTORE POP PUSH1 0x1 PUSH0 DUP4 DUP2 MSTORE PUSH1 0x20 ADD SWAP1 DUP2 MSTORE PUSH1 0x20 ADD PUSH0 KECCAK256 PUSH0 DUP3 ADD MLOAD DUP2 PUSH0 ADD SWAP1 DUP2 PUSH2 0x491 SWAP2 SWAP1 PUSH2 0x10C6 JUMP JUMPDEST POP PUSH1 0x20 DUP3 ADD MLOAD DUP2 PUSH1 0x1 ADD SWAP1 DUP2 PUSH2 0x4A7 SWAP2 SWAP1 PUSH2 0x10C6 JUMP JUMPDEST POP PUSH1 0x40 DUP3 ADD MLOAD DUP2 PUSH1 0x2 ADD SWAP1 DUP2 PUSH2 0x4BD SWAP2 SWAP1 PUSH2 0x10C6 JUMP JUMPDEST POP PUSH1 0x60 DUP3 ADD MLOAD DUP2 PUSH1 0x3 ADD SWAP1 DUP1 MLOAD SWAP1 PUSH1 0x20 ADD SWAP1 PUSH2 0x4DA SWAP3 SWAP2 SWAP1 PUSH2 0x83C JUMP JUMPDEST POP PUSH1 0x80 DUP3 ADD MLOAD DUP2 PUSH1 0x4 ADD SSTORE PUSH1 0xA0 DUP3 ADD MLOAD DUP2 PUSH1 0x5 ADD SSTORE PUSH1 0xC0 DUP3 ADD MLOAD DUP2 PUSH1 0x6 ADD SSTORE PUSH1 0xE0 DUP3 ADD MLOAD DUP2 PUSH1 0x7 ADD SSTORE PUSH2 0x100 DUP3 ADD MLOAD DUP2 PUSH1 0x8 ADD SSTORE PUSH2 0x120 DUP3 ADD MLOAD DUP2 PUSH1 0x9 ADD PUSH0 PUSH2 0x100 EXP DUP2 SLOAD DUP2 PUSH1 0xFF MUL NOT AND SWAP1 DUP4 ISZERO ISZERO MUL OR SWAP1 SSTORE POP PUSH2 0x140 DUP3 ADD MLOAD DUP2 PUSH1 0xA ADD SSTORE SWAP1 POP POP DUP5 PUSH1 0x2 PUSH0 DUP4 DUP2 MSTORE PUSH1 0x20 ADD SWAP1 DUP2 MSTORE PUSH1 0x20 ADD PUSH0 KECCAK256 DUP2 SWAP1 SSTORE POP DUP1 PUSH32 0xF995299D6B78BAB4559102318B5C60FB5ADA990CF028F135A648875091233A9B DUP11 DUP11 DUP9 DUP9 DUP9 PUSH1 0x40 MLOAD PUSH2 0x58A SWAP6 SWAP5 SWAP4 SWAP3 SWAP2 SWAP1 PUSH2 0x1195 JUMP JUMPDEST PUSH1 0x40 MLOAD DUP1 SWAP2 SUB SWAP1 LOG2 PUSH1 0x3 PUSH0 DUP2 SLOAD DUP1 SWAP3 SWAP2 SWAP1 PUSH2 0x5A4 SWAP1 PUSH2 0x1221 JUMP JUMPDEST SWAP2 SWAP1 POP SSTORE POP DUP1 SWAP2 POP POP SWAP8 SWAP7 POP POP POP POP POP POP POP JUMP JUMPDEST PUSH0 PUSH0 PUSH0 SWAP1 SLOAD SWAP1 PUSH2 0x100 EXP SWAP1 DIV PUSH20 0xFFFFFFFFFFFFFFFFFFFFFFFFFFFFFFFFFFFFFFFF AND SWAP1 POP SWAP1 JUMP JUMPDEST PUSH0 PUSH0 PUSH1 0x1 PUSH0 DUP6 DUP2 MSTORE PUSH1 0x20 ADD SWAP1 DUP2 MSTORE PUSH1 0x20 ADD PUSH0 KECCAK256 SWAP1 POP PUSH2 0x621 DUP2 PUSH1 0x4 ADD SLOAD PUSH2 0x613 DUP4 PUSH1 0x7 ADD SLOAD DUP7 PUSH2 0x6AE SWAP1 SWAP2 SWAP1 PUSH4 0xFFFFFFFF AND JUMP JUMPDEST PUSH2 0x820 SWAP1 SWAP2 SWAP1 PUSH4 0xFFFFFFFF AND JUMP JUMPDEST SWAP2 POP POP SWAP3 SWAP2 POP POP JUMP JUMPDEST PUSH2 0x632 PUSH2 0x6C3 JUMP JUMPDEST PUSH0 PUSH20 0xFFFFFFFFFFFFFFFFFFFFFFFFFFFFFFFFFFFFFFFF AND DUP2 PUSH20 0xFFFFFFFFFFFFFFFFFFFFFFFFFFFFFFFFFFFFFFFF AND SUB PUSH2 0x6A2 JUMPI PUSH0 PUSH1 0x40 MLOAD PUSH32 0x1E4FBDF700000000000000000000000000000000000000000000000000000000 DUP2 MSTORE PUSH1 0x4 ADD PUSH2 0x699 SWAP2 SWAP1 PUSH2 0xE5B JUMP JUMPDEST PUSH1 0x40 MLOAD DUP1 SWAP2 SUB SWAP1 REVERT JUMPDEST PUSH2 0x6AB DUP2 PUSH2 0x75F JUMP JUMPDEST POP JUMP JUMPDEST PUSH0 DUP2 DUP4 PUSH2 0x6BB SWAP2 SWAP1 PUSH2 0x1268 JUMP JUMPDEST SWAP1 POP SWAP3 SWAP2 POP POP JUMP JUMPDEST PUSH2 0x6CB PUSH2 0x835 JUMP JUMPDEST PUSH20 0xFFFFFFFFFFFFFFFFFFFFFFFFFFFFFFFFFFFFFFFF AND PUSH2 0x6E9 PUSH2 0x5B8 JUMP JUMPDEST PUSH20 0xFFFFFFFFFFFFFFFFFFFFFFFFFFFFFFFFFFFFFFFF AND EQ PUSH2 0x748 JUMPI PUSH2 0x70C PUSH2 0x835 JUMP JUMPDEST PUSH1 0x40 MLOAD PUSH32 0x118CDAA700000000000000000000000000000000000000000000000000000000 DUP2 MSTORE PUSH1 0x4 ADD PUSH2 0x73F SWAP2 SWAP1 PUSH2 0xE5B JUMP JUMPDEST PUSH1 0x40 MLOAD DUP1 SWAP2 SUB SWAP1 REVERT JUMPDEST JUMP JUMPDEST PUSH0 DUP2 DUP4 PUSH2 0x757 SWAP2 SWAP1 PUSH2 0x12A9 JUMP JUMPDEST SWAP1 POP SWAP3 SWAP2 POP POP JUMP JUMPDEST PUSH0 PUSH0 PUSH0 SWAP1 SLOAD SWAP1 PUSH2 0x100 EXP SWAP1 DIV PUSH20 0xFFFFFFFFFFFFFFFFFFFFFFFFFFFFFFFFFFFFFFFF AND SWAP1 POP DUP2 PUSH0 PUSH0 PUSH2 0x100 EXP DUP2 SLOAD DUP2 PUSH20 0xFFFFFFFFFFFFFFFFFFFFFFFFFFFFFFFFFFFFFFFF MUL NOT AND SWAP1 DUP4 PUSH20 0xFFFFFFFFFFFFFFFFFFFFFFFFFFFFFFFFFFFFFFFF AND MUL OR SWAP1 SSTORE POP DUP2 PUSH20 0xFFFFFFFFFFFFFFFFFFFFFFFFFFFFFFFFFFFFFFFF AND DUP2 PUSH20 0xFFFFFFFFFFFFFFFFFFFFFFFFFFFFFFFFFFFFFFFF AND PUSH32 0x8BE0079C531659141344CD1FD0A4F28419497F9722A3DAAFE3B4186F6B6457E0 PUSH1 0x40 MLOAD PUSH1 0x40 MLOAD DUP1 SWAP2 SUB SWAP1 LOG3 POP POP JUMP JUMPDEST PUSH0 DUP2 DUP4 PUSH2 0x82D SWAP2 SWAP1 PUSH2 0x1309 JUMP JUMPDEST SWAP1 POP SWAP3 SWAP2 POP POP JUMP JUMPDEST PUSH0 CALLER SWAP1 POP SWAP1 JUMP JUMPDEST DUP3 DUP1 SLOAD DUP3 DUP3 SSTORE SWAP1 PUSH0 MSTORE PUSH1 0x20 PUSH0 KECCAK256 SWAP1 DUP2 ADD SWAP3 DUP3 ISZERO PUSH2 0x882 JUMPI SWAP2 PUSH1 0x20 MUL DUP3 ADD JUMPDEST DUP3 DUP2 GT ISZERO PUSH2 0x881 JUMPI DUP3 MLOAD DUP3 SWAP1 DUP2 PUSH2 0x871 SWAP2 SWAP1 PUSH2 0x10C6 JUMP JUMPDEST POP SWAP2 PUSH1 0x20 ADD SWAP2 SWAP1 PUSH1 0x1 ADD SWAP1 PUSH2 0x85A JUMP JUMPDEST JUMPDEST POP SWAP1 POP PUSH2 0x88F SWAP2 SWAP1 PUSH2 0x893 JUMP JUMPDEST POP SWAP1 JUMP JUMPDEST JUMPDEST DUP1 DUP3 GT ISZERO PUSH2 0x8B2 JUMPI PUSH0 DUP2 DUP2 PUSH2 0x8A9 SWAP2 SWAP1 PUSH2 0x8B6 JUMP JUMPDEST POP PUSH1 0x1 ADD PUSH2 0x894 JUMP JUMPDEST POP SWAP1 JUMP JUMPDEST POP DUP1 SLOAD PUSH2 0x8C2 SWAP1 PUSH2 0xEF6 JUMP JUMPDEST PUSH0 DUP3 SSTORE DUP1 PUSH1 0x1F LT PUSH2 0x8D3 JUMPI POP PUSH2 0x8F0 JUMP JUMPDEST PUSH1 0x1F ADD PUSH1 0x20 SWAP1 DIV SWAP1 PUSH0 MSTORE PUSH1 0x20 PUSH0 KECCAK256 SWAP1 DUP2 ADD SWAP1 PUSH2 0x8EF SWAP2 SWAP1 PUSH2 0x8F3 JUMP JUMPDEST JUMPDEST POP JUMP JUMPDEST JUMPDEST DUP1 DUP3 GT ISZERO PUSH2 0x90A JUMPI PUSH0 DUP2 PUSH0 SWAP1 SSTORE POP PUSH1 0x1 ADD PUSH2 0x8F4 JUMP JUMPDEST POP SWAP1 JUMP JUMPDEST PUSH0 PUSH1 0x40 MLOAD SWAP1 POP SWAP1 JUMP JUMPDEST PUSH0 PUSH0 REVERT JUMPDEST PUSH0 PUSH0 REVERT JUMPDEST PUSH0 DUP2 SWAP1 POP SWAP2 SWAP1 POP JUMP JUMPDEST PUSH2 0x931 DUP2 PUSH2 0x91F JUMP JUMPDEST DUP2 EQ PUSH2 0x93B JUMPI PUSH0 PUSH0 REVERT JUMPDEST POP JUMP JUMPDEST PUSH0 DUP2 CALLDATALOAD SWAP1 POP PUSH2 0x94C DUP2 PUSH2 0x928 JUMP JUMPDEST SWAP3 SWAP2 POP POP JUMP JUMPDEST PUSH0 PUSH0 PUSH1 0x40 DUP4 DUP6 SUB SLT ISZERO PUSH2 0x968 JUMPI PUSH2 0x967 PUSH2 0x917 JUMP JUMPDEST JUMPDEST PUSH0 PUSH2 0x975 DUP6 DUP3 DUP7 ADD PUSH2 0x93E JUMP JUMPDEST SWAP3 POP POP PUSH1 0x20 PUSH2 0x986 DUP6 DUP3 DUP7 ADD PUSH2 0x93E JUMP JUMPDEST SWAP2 POP POP SWAP3 POP SWAP3 SWAP1 POP JUMP JUMPDEST PUSH2 0x999 DUP2 PUSH2 0x91F JUMP JUMPDEST DUP3 MSTORE POP POP JUMP JUMPDEST PUSH0 PUSH1 0x40 DUP3 ADD SWAP1 POP PUSH2 0x9B2 PUSH0 DUP4 ADD DUP6 PUSH2 0x990 JUMP JUMPDEST PUSH2 0x9BF PUSH1 0x20 DUP4 ADD DUP5 PUSH2 0x990 JUMP JUMPDEST SWAP4 SWAP3 POP POP POP JUMP JUMPDEST PUSH0 PUSH1 0x20 DUP3 DUP5 SUB SLT ISZERO PUSH2 0x9DB JUMPI PUSH2 0x9DA PUSH2 0x917 JUMP JUMPDEST JUMPDEST PUSH0 PUSH2 0x9E8 DUP5 DUP3 DUP6 ADD PUSH2 0x93E JUMP JUMPDEST SWAP2 POP POP SWAP3 SWAP2 POP POP JUMP JUMPDEST PUSH0 DUP2 MLOAD SWAP1 POP SWAP2 SWAP1 POP JUMP JUMPDEST PUSH0 DUP3 DUP3 MSTORE PUSH1 0x20 DUP3 ADD SWAP1 POP SWAP3 SWAP2 POP POP JUMP JUMPDEST DUP3 DUP2 DUP4 MCOPY PUSH0 DUP4 DUP4 ADD MSTORE POP POP POP JUMP JUMPDEST PUSH0 PUSH1 0x1F NOT PUSH1 0x1F DUP4 ADD AND SWAP1 POP SWAP2 SWAP1 POP JUMP JUMPDEST PUSH0 PUSH2 0xA33 DUP3 PUSH2 0x9F1 JUMP JUMPDEST PUSH2 0xA3D DUP2 DUP6 PUSH2 0x9FB JUMP JUMPDEST SWAP4 POP PUSH2 0xA4D DUP2 DUP6 PUSH1 0x20 DUP7 ADD PUSH2 0xA0B JUMP JUMPDEST PUSH2 0xA56 DUP2 PUSH2 0xA19 JUMP JUMPDEST DUP5 ADD SWAP2 POP POP SWAP3 SWAP2 POP POP JUMP JUMPDEST PUSH0 DUP2 ISZERO ISZERO SWAP1 POP SWAP2 SWAP1 POP JUMP JUMPDEST PUSH2 0xA75 DUP2 PUSH2 0xA61 JUMP JUMPDEST DUP3 MSTORE POP POP JUMP JUMPDEST PUSH0 PUSH1 0xC0 DUP3 ADD SWAP1 POP DUP2 DUP2 SUB PUSH0 DUP4 ADD MSTORE PUSH2 0xA93 DUP2 DUP10 PUSH2 0xA29 JUMP JUMPDEST SWAP1 POP DUP2 DUP2 SUB PUSH1 0x20 DUP4 ADD MSTORE PUSH2 0xAA7 DUP2 DUP9 PUSH2 0xA29 JUMP JUMPDEST SWAP1 POP PUSH2 0xAB6 PUSH1 0x40 DUP4 ADD DUP8 PUSH2 0x990 JUMP JUMPDEST PUSH2 0xAC3 PUSH1 0x60 DUP4 ADD DUP7 PUSH2 0x990 JUMP JUMPDEST PUSH2 0xAD0 PUSH1 0x80 DUP4 ADD DUP6 PUSH2 0xA6C JUMP JUMPDEST PUSH2 0xADD PUSH1 0xA0 DUP4 ADD DUP5 PUSH2 0x990 JUMP JUMPDEST SWAP8 SWAP7 POP POP POP POP POP POP POP JUMP JUMPDEST PUSH0 PUSH0 REVERT JUMPDEST PUSH0 PUSH0 REVERT JUMPDEST PUSH32 0x4E487B7100000000000000000000000000000000000000000000000000000000 PUSH0 MSTORE PUSH1 0x41 PUSH1 0x4 MSTORE PUSH1 0x24 PUSH0 REVERT JUMPDEST PUSH2 0xB26 DUP3 PUSH2 0xA19 JUMP JUMPDEST DUP2 ADD DUP2 DUP2 LT PUSH8 0xFFFFFFFFFFFFFFFF DUP3 GT OR ISZERO PUSH2 0xB45 JUMPI PUSH2 0xB44 PUSH2 0xAF0 JUMP JUMPDEST JUMPDEST DUP1 PUSH1 0x40 MSTORE POP POP POP JUMP JUMPDEST PUSH0 PUSH2 0xB57 PUSH2 0x90E JUMP JUMPDEST SWAP1 POP PUSH2 0xB63 DUP3 DUP3 PUSH2 0xB1D JUMP JUMPDEST SWAP2 SWAP1 POP JUMP JUMPDEST PUSH0 PUSH8 0xFFFFFFFFFFFFFFFF DUP3 GT ISZERO PUSH2 0xB82 JUMPI PUSH2 0xB81 PUSH2 0xAF0 JUMP JUMPDEST JUMPDEST PUSH2 0xB8B DUP3 PUSH2 0xA19 JUMP JUMPDEST SWAP1 POP PUSH1 0x20 DUP2 ADD SWAP1 POP SWAP2 SWAP1 POP JUMP JUMPDEST DUP3 DUP2 DUP4 CALLDATACOPY PUSH0 DUP4 DUP4 ADD MSTORE POP POP POP JUMP JUMPDEST PUSH0 PUSH2 0xBB8 PUSH2 0xBB3 DUP5 PUSH2 0xB68 JUMP JUMPDEST PUSH2 0xB4E JUMP JUMPDEST SWAP1 POP DUP3 DUP2 MSTORE PUSH1 0x20 DUP2 ADD DUP5 DUP5 DUP5 ADD GT ISZERO PUSH2 0xBD4 JUMPI PUSH2 0xBD3 PUSH2 0xAEC JUMP JUMPDEST JUMPDEST PUSH2 0xBDF DUP5 DUP3 DUP6 PUSH2 0xB98 JUMP JUMPDEST POP SWAP4 SWAP3 POP POP POP JUMP JUMPDEST PUSH0 DUP3 PUSH1 0x1F DUP4 ADD SLT PUSH2 0xBFB JUMPI PUSH2 0xBFA PUSH2 0xAE8 JUMP JUMPDEST JUMPDEST DUP2 CALLDATALOAD PUSH2 0xC0B DUP5 DUP3 PUSH1 0x20 DUP7 ADD PUSH2 0xBA6 JUMP JUMPDEST SWAP2 POP POP SWAP3 SWAP2 POP POP JUMP JUMPDEST PUSH0 PUSH8 0xFFFFFFFFFFFFFFFF DUP3 GT ISZERO PUSH2 0xC2E JUMPI PUSH2 0xC2D PUSH2 0xAF0 JUMP JUMPDEST JUMPDEST PUSH1 0x20 DUP3 MUL SWAP1 POP PUSH1 0x20 DUP2 ADD SWAP1 POP SWAP2 SWAP1 POP JUMP JUMPDEST PUSH0 PUSH0 REVERT JUMPDEST PUSH0 PUSH2 0xC55 PUSH2 0xC50 DUP5 PUSH2 0xC14 JUMP JUMPDEST PUSH2 0xB4E JUMP JUMPDEST SWAP1 POP DUP1 DUP4 DUP3 MSTORE PUSH1 0x20 DUP3 ADD SWAP1 POP PUSH1 0x20 DUP5 MUL DUP4 ADD DUP6 DUP2 GT ISZERO PUSH2 0xC78 JUMPI PUSH2 0xC77 PUSH2 0xC3F JUMP JUMPDEST JUMPDEST DUP4 JUMPDEST DUP2 DUP2 LT ISZERO PUSH2 0xCBF JUMPI DUP1 CALLDATALOAD PUSH8 0xFFFFFFFFFFFFFFFF DUP2 GT ISZERO PUSH2 0xC9D JUMPI PUSH2 0xC9C PUSH2 0xAE8 JUMP JUMPDEST JUMPDEST DUP1 DUP7 ADD PUSH2 0xCAA DUP10 DUP3 PUSH2 0xBE7 JUMP JUMPDEST DUP6 MSTORE PUSH1 0x20 DUP6 ADD SWAP5 POP POP POP PUSH1 0x20 DUP2 ADD SWAP1 POP PUSH2 0xC7A JUMP JUMPDEST POP POP POP SWAP4 SWAP3 POP POP POP JUMP JUMPDEST PUSH0 DUP3 PUSH1 0x1F DUP4 ADD SLT PUSH2 0xCDD JUMPI PUSH2 0xCDC PUSH2 0xAE8 JUMP JUMPDEST JUMPDEST DUP2 CALLDATALOAD PUSH2 0xCED DUP5 DUP3 PUSH1 0x20 DUP7 ADD PUSH2 0xC43 JUMP JUMPDEST SWAP2 POP POP SWAP3 SWAP2 POP POP JUMP JUMPDEST PUSH0 PUSH0 PUSH0 PUSH0 PUSH0 PUSH0 PUSH0 PUSH1 0xE0 DUP9 DUP11 SUB SLT ISZERO PUSH2 0xD11 JUMPI PUSH2 0xD10 PUSH2 0x917 JUMP JUMPDEST JUMPDEST PUSH0 DUP9 ADD CALLDATALOAD PUSH8 0xFFFFFFFFFFFFFFFF DUP2 GT ISZERO PUSH2 0xD2E JUMPI PUSH2 0xD2D PUSH2 0x91B JUMP JUMPDEST JUMPDEST PUSH2 0xD3A DUP11 DUP3 DUP12 ADD PUSH2 0xBE7 JUMP JUMPDEST SWAP8 POP POP PUSH1 0x20 DUP9 ADD CALLDATALOAD PUSH8 0xFFFFFFFFFFFFFFFF DUP2 GT ISZERO PUSH2 0xD5B JUMPI PUSH2 0xD5A PUSH2 0x91B JUMP JUMPDEST JUMPDEST PUSH2 0xD67 DUP11 DUP3 DUP12 ADD PUSH2 0xBE7 JUMP JUMPDEST SWAP7 POP POP PUSH1 0x40 DUP9 ADD CALLDATALOAD PUSH8 0xFFFFFFFFFFFFFFFF DUP2 GT ISZERO PUSH2 0xD88 JUMPI PUSH2 0xD87 PUSH2 0x91B JUMP JUMPDEST JUMPDEST PUSH2 0xD94 DUP11 DUP3 DUP12 ADD PUSH2 0xBE7 JUMP JUMPDEST SWAP6 POP POP PUSH1 0x60 DUP9 ADD CALLDATALOAD PUSH8 0xFFFFFFFFFFFFFFFF DUP2 GT ISZERO PUSH2 0xDB5 JUMPI PUSH2 0xDB4 PUSH2 0x91B JUMP JUMPDEST JUMPDEST PUSH2 0xDC1 DUP11 DUP3 DUP12 ADD PUSH2 0xCC9 JUMP JUMPDEST SWAP5 POP POP PUSH1 0x80 PUSH2 0xDD2 DUP11 DUP3 DUP12 ADD PUSH2 0x93E JUMP JUMPDEST SWAP4 POP POP PUSH1 0xA0 PUSH2 0xDE3 DUP11 DUP3 DUP12 ADD PUSH2 0x93E JUMP JUMPDEST SWAP3 POP POP PUSH1 0xC0 PUSH2 0xDF4 DUP11 DUP3 DUP12 ADD PUSH2 0x93E JUMP JUMPDEST SWAP2 POP POP SWAP3 SWAP6 SWAP9 SWAP2 SWAP5 SWAP8 POP SWAP3 SWAP6 POP JUMP JUMPDEST PUSH0 PUSH1 0x20 DUP3 ADD SWAP1 POP PUSH2 0xE16 PUSH0 DUP4 ADD DUP5 PUSH2 0x990 JUMP JUMPDEST SWAP3 SWAP2 POP POP JUMP JUMPDEST PUSH0 PUSH20 0xFFFFFFFFFFFFFFFFFFFFFFFFFFFFFFFFFFFFFFFF DUP3 AND SWAP1 POP SWAP2 SWAP1 POP JUMP JUMPDEST PUSH0 PUSH2 0xE45 DUP3 PUSH2 0xE1C JUMP JUMPDEST SWAP1 POP SWAP2 SWAP1 POP JUMP JUMPDEST PUSH2 0xE55 DUP2 PUSH2 0xE3B JUMP JUMPDEST DUP3 MSTORE POP POP JUMP JUMPDEST PUSH0 PUSH1 0x20 DUP3 ADD SWAP1 POP PUSH2 0xE6E PUSH0 DUP4 ADD DUP5 PUSH2 0xE4C JUMP JUMPDEST SWAP3 SWAP2 POP POP JUMP JUMPDEST PUSH2 0xE7D DUP2 PUSH2 0xE3B JUMP JUMPDEST DUP2 EQ PUSH2 0xE87 JUMPI PUSH0 PUSH0 REVERT JUMPDEST POP JUMP JUMPDEST PUSH0 DUP2 CALLDATALOAD SWAP1 POP PUSH2 0xE98 DUP2 PUSH2 0xE74 JUMP JUMPDEST SWAP3 SWAP2 POP POP JUMP JUMPDEST PUSH0 PUSH1 0x20 DUP3 DUP5 SUB SLT ISZERO PUSH2 0xEB3 JUMPI PUSH2 0xEB2 PUSH2 0x917 JUMP JUMPDEST JUMPDEST PUSH0 PUSH2 0xEC0 DUP5 DUP3 DUP6 ADD PUSH2 0xE8A JUMP JUMPDEST SWAP2 POP POP SWAP3 SWAP2 POP POP JUMP JUMPDEST PUSH32 0x4E487B7100000000000000000000000000000000000000000000000000000000 PUSH0 MSTORE PUSH1 0x22 PUSH1 0x4 MSTORE PUSH1 0x24 PUSH0 REVERT JUMPDEST PUSH0 PUSH1 0x2 DUP3 DIV SWAP1 POP PUSH1 0x1 DUP3 AND DUP1 PUSH2 0xF0D JUMPI PUSH1 0x7F DUP3 AND SWAP2 POP JUMPDEST PUSH1 0x20 DUP3 LT DUP2 SUB PUSH2 0xF20 JUMPI PUSH2 0xF1F PUSH2 0xEC9 JUMP JUMPDEST JUMPDEST POP SWAP2 SWAP1 POP JUMP JUMPDEST PUSH0 DUP2 SWAP1 POP DUP2 PUSH0 MSTORE PUSH1 0x20 PUSH0 KECCAK256 SWAP1 POP SWAP2 SWAP1 POP JUMP JUMPDEST PUSH0 PUSH1 0x20 PUSH1 0x1F DUP4 ADD DIV SWAP1 POP SWAP2 SWAP1 POP JUMP JUMPDEST PUSH0 DUP3 DUP3 SHL SWAP1 POP SWAP3 SWAP2 POP POP JUMP JUMPDEST PUSH0 PUSH1 0x8 DUP4 MUL PUSH2 0xF82 PUSH32 0xFFFFFFFFFFFFFFFFFFFFFFFFFFFFFFFFFFFFFFFFFFFFFFFFFFFFFFFFFFFFFFFF DUP3 PUSH2 0xF47 JUMP JUMPDEST PUSH2 0xF8C DUP7 DUP4 PUSH2 0xF47 JUMP JUMPDEST SWAP6 POP DUP1 NOT DUP5 AND SWAP4 POP DUP1 DUP7 AND DUP5 OR SWAP3 POP POP POP SWAP4 SWAP3 POP POP POP JUMP JUMPDEST PUSH0 DUP2 SWAP1 POP SWAP2 SWAP1 POP JUMP JUMPDEST PUSH0 PUSH2 0xFC7 PUSH2 0xFC2 PUSH2 0xFBD DUP5 PUSH2 0x91F JUMP JUMPDEST PUSH2 0xFA4 JUMP JUMPDEST PUSH2 0x91F JUMP JUMPDEST SWAP1 POP SWAP2 SWAP1 POP JUMP JUMPDEST PUSH0 DUP2 SWAP1 POP SWAP2 SWAP1 POP JUMP JUMPDEST PUSH2 0xFE0 DUP4 PUSH2 0xFAD JUMP JUMPDEST PUSH2 0xFF4 PUSH2 0xFEC DUP3 PUSH2 0xFCE JUMP JUMPDEST DUP5 DUP5 SLOAD PUSH2 0xF53 JUMP JUMPDEST DUP3 SSTORE POP POP POP POP JUMP JUMPDEST PUSH0 PUSH0 SWAP1 POP SWAP1 JUMP JUMPDEST PUSH2 0x100B PUSH2 0xFFC JUMP JUMPDEST PUSH2 0x1016 DUP2 DUP5 DUP5 PUSH2 0xFD7 JUMP JUMPDEST POP POP POP JUMP JUMPDEST JUMPDEST DUP2 DUP2 LT ISZERO PUSH2 0x1039 JUMPI PUSH2 0x102E PUSH0 DUP3 PUSH2 0x1003 JUMP JUMPDEST PUSH1 0x1 DUP2 ADD SWAP1 POP PUSH2 0x101C JUMP JUMPDEST POP POP JUMP JUMPDEST PUSH1 0x1F DUP3 GT ISZERO PUSH2 0x107E JUMPI PUSH2 0x104F DUP2 PUSH2 0xF26 JUMP JUMPDEST PUSH2 0x1058 DUP5 PUSH2 0xF38 JUMP JUMPDEST DUP2 ADD PUSH1 0x20 DUP6 LT ISZERO PUSH2 0x1067 JUMPI DUP2 SWAP1 POP JUMPDEST PUSH2 0x107B PUSH2 0x1073 DUP6 PUSH2 0xF38 JUMP JUMPDEST DUP4 ADD DUP3 PUSH2 0x101B JUMP JUMPDEST POP POP JUMPDEST POP POP POP JUMP JUMPDEST PUSH0 DUP3 DUP3 SHR SWAP1 POP SWAP3 SWAP2 POP POP JUMP JUMPDEST PUSH0 PUSH2 0x109E PUSH0 NOT DUP5 PUSH1 0x8 MUL PUSH2 0x1083 JUMP JUMPDEST NOT DUP1 DUP4 AND SWAP2 POP POP SWAP3 SWAP2 POP POP JUMP JUMPDEST PUSH0 PUSH2 0x10B6 DUP4 DUP4 PUSH2 0x108F JUMP JUMPDEST SWAP2 POP DUP3 PUSH1 0x2 MUL DUP3 OR SWAP1 POP SWAP3 SWAP2 POP POP JUMP JUMPDEST PUSH2 0x10CF DUP3 PUSH2 0x9F1 JUMP JUMPDEST PUSH8 0xFFFFFFFFFFFFFFFF DUP2 GT ISZERO PUSH2 0x10E8 JUMPI PUSH2 0x10E7 PUSH2 0xAF0 JUMP JUMPDEST JUMPDEST PUSH2 0x10F2 DUP3 SLOAD PUSH2 0xEF6 JUMP JUMPDEST PUSH2 0x10FD DUP3 DUP3 DUP6 PUSH2 0x103D JUMP JUMPDEST PUSH0 PUSH1 0x20 SWAP1 POP PUSH1 0x1F DUP4 GT PUSH1 0x1 DUP2 EQ PUSH2 0x112E JUMPI PUSH0 DUP5 ISZERO PUSH2 0x111C JUMPI DUP3 DUP8 ADD MLOAD SWAP1 POP JUMPDEST PUSH2 0x1126 DUP6 DUP3 PUSH2 0x10AB JUMP JUMPDEST DUP7 SSTORE POP PUSH2 0x118D JUMP JUMPDEST PUSH1 0x1F NOT DUP5 AND PUSH2 0x113C DUP7 PUSH2 0xF26 JUMP JUMPDEST PUSH0 JUMPDEST DUP3 DUP2 LT ISZERO PUSH2 0x1163 JUMPI DUP5 DUP10 ADD MLOAD DUP3 SSTORE PUSH1 0x1 DUP3 ADD SWAP2 POP PUSH1 0x20 DUP6 ADD SWAP5 POP PUSH1 0x20 DUP2 ADD SWAP1 POP PUSH2 0x113E JUMP JUMPDEST DUP7 DUP4 LT ISZERO PUSH2 0x1180 JUMPI DUP5 DUP10 ADD MLOAD PUSH2 0x117C PUSH1 0x1F DUP10 AND DUP3 PUSH2 0x108F JUMP JUMPDEST DUP4 SSTORE POP JUMPDEST PUSH1 0x1 PUSH1 0x2 DUP9 MUL ADD DUP9 SSTORE POP POP POP JUMPDEST POP POP POP POP POP POP JUMP JUMPDEST PUSH0 PUSH1 0xA0 DUP3 ADD SWAP1 POP DUP2 DUP2 SUB PUSH0 DUP4 ADD MSTORE PUSH2 0x11AD DUP2 DUP9 PUSH2 0xA29 JUMP JUMPDEST SWAP1 POP DUP2 DUP2 SUB PUSH1 0x20 DUP4 ADD MSTORE PUSH2 0x11C1 DUP2 DUP8 PUSH2 0xA29 JUMP JUMPDEST SWAP1 POP PUSH2 0x11D0 PUSH1 0x40 DUP4 ADD DUP7 PUSH2 0x990 JUMP JUMPDEST PUSH2 0x11DD PUSH1 0x60 DUP4 ADD DUP6 PUSH2 0x990 JUMP JUMPDEST PUSH2 0x11EA PUSH1 0x80 DUP4 ADD DUP5 PUSH2 0x990 JUMP JUMPDEST SWAP7 SWAP6 POP POP POP POP POP POP JUMP JUMPDEST PUSH32 0x4E487B7100000000000000000000000000000000000000000000000000000000 PUSH0 MSTORE PUSH1 0x11 PUSH1 0x4 MSTORE PUSH1 0x24 PUSH0 REVERT JUMPDEST PUSH0 PUSH2 0x122B DUP3 PUSH2 0x91F JUMP JUMPDEST SWAP2 POP PUSH32 0xFFFFFFFFFFFFFFFFFFFFFFFFFFFFFFFFFFFFFFFFFFFFFFFFFFFFFFFFFFFFFFFF DUP3 SUB PUSH2 0x125D JUMPI PUSH2 0x125C PUSH2 0x11F4 JUMP JUMPDEST JUMPDEST PUSH1 0x1 DUP3 ADD SWAP1 POP SWAP2 SWAP1 POP JUMP JUMPDEST PUSH0 PUSH2 0x1272 DUP3 PUSH2 0x91F JUMP JUMPDEST SWAP2 POP PUSH2 0x127D DUP4 PUSH2 0x91F JUMP JUMPDEST SWAP3 POP DUP3 DUP3 MUL PUSH2 0x128B DUP2 PUSH2 0x91F JUMP JUMPDEST SWAP2 POP DUP3 DUP3 DIV DUP5 EQ DUP4 ISZERO OR PUSH2 0x12A2 JUMPI PUSH2 0x12A1 PUSH2 0x11F4 JUMP JUMPDEST JUMPDEST POP SWAP3 SWAP2 POP POP JUMP JUMPDEST PUSH0 PUSH2 0x12B3 DUP3 PUSH2 0x91F JUMP JUMPDEST SWAP2 POP PUSH2 0x12BE DUP4 PUSH2 0x91F JUMP JUMPDEST SWAP3 POP DUP3 DUP3 SUB SWAP1 POP DUP2 DUP2 GT ISZERO PUSH2 0x12D6 JUMPI PUSH2 0x12D5 PUSH2 0x11F4 JUMP JUMPDEST JUMPDEST SWAP3 SWAP2 POP POP JUMP JUMPDEST PUSH32 0x4E487B7100000000000000000000000000000000000000000000000000000000 PUSH0 MSTORE PUSH1 0x12 PUSH1 0x4 MSTORE PUSH1 0x24 PUSH0 REVERT JUMPDEST PUSH0 PUSH2 0x1313 DUP3 PUSH2 0x91F JUMP JUMPDEST SWAP2 POP PUSH2 0x131E DUP4 PUSH2 0x91F JUMP JUMPDEST SWAP3 POP DUP3 PUSH2 0x132E JUMPI PUSH2 0x132D PUSH2 0x12DC JUMP JUMPDEST JUMPDEST DUP3 DUP3 DIV SWAP1 POP SWAP3 SWAP2 POP POP JUMP INVALID LOG2 PUSH5 0x6970667358 0x22 SLT KECCAK256 DUP15 SSTORE REVERT DUP11 0xCB SWAP4 RETURNCONTRACT 0xBE DIV SELFBALANCE PUSH8 0x650ED9AB8F67E5A6 EXTCODESIZE TIMESTAMP 0xB6 MSIZE SWAP15 LOG3 0xD 0xB0 0xB6 EXTCODECOPY 0xDF 0x22 PUSH13 0x64736F6C634300081D00330000 "
		},
		"gasEstimates": {
			"creation": {
				"codeDepositCost": "995000",
				"executionCost": "infinite",
				"totalCost": "infinite"
			},
			"external": {
				"calculateLiquidationPrice(uint256,uint256)": "infinite",
				"calculatePurchase(uint256,uint256)": "infinite",
				"createProperty(string,string,string,string[],uint256,uint256,uint256)": "infinite",
				"getPropertyInfo(uint256)": "infinite",
				"owner()": "2558",
				"renounceOwnership()": "infinite",
				"transferOwnership(address)": "infinite",
				"updateAvailableShares(uint256,uint256)": "infinite",
				"updatePropertyValuation(uint256,uint256)": "infinite"
			}
		},
		"methodIdentifiers": {
			"calculateLiquidationPrice(uint256,uint256)": "9b8c549a",
			"calculatePurchase(uint256,uint256)": "32b2b934",
			"createProperty(string,string,string,string[],uint256,uint256,uint256)": "846814b4",
			"getPropertyInfo(uint256)": "40f0a055",
			"owner()": "8da5cb5b",
			"renounceOwnership()": "715018a6",
			"transferOwnership(address)": "f2fde38b",
			"updateAvailableShares(uint256,uint256)": "416e4f48",
			"updatePropertyValuation(uint256,uint256)": "38206125"
		}
	},
	"abi": [
		{
			"inputs": [],
			"stateMutability": "nonpayable",
			"type": "constructor"
		},
		{
			"inputs": [
				{
					"internalType": "address",
					"name": "owner",
					"type": "address"
				}
			],
			"name": "OwnableInvalidOwner",
			"type": "error"
		},
		{
			"inputs": [
				{
					"internalType": "address",
					"name": "account",
					"type": "address"
				}
			],
			"name": "OwnableUnauthorizedAccount",
			"type": "error"
		},
		{
			"anonymous": false,
			"inputs": [
				{
					"indexed": true,
					"internalType": "address",
					"name": "previousOwner",
					"type": "address"
				},
				{
					"indexed": true,
					"internalType": "address",
					"name": "newOwner",
					"type": "address"
				}
			],
			"name": "OwnershipTransferred",
			"type": "event"
		},
		{
			"anonymous": false,
			"inputs": [
				{
					"indexed": true,
					"internalType": "uint256",
					"name": "propertyId",
					"type": "uint256"
				},
				{
					"indexed": false,
					"internalType": "string",
					"name": "name",
					"type": "string"
				},
				{
					"indexed": false,
					"internalType": "string",
					"name": "location",
					"type": "string"
				},
				{
					"indexed": false,
					"internalType": "uint256",
					"name": "totalShares",
					"type": "uint256"
				},
				{
					"indexed": false,
					"internalType": "uint256",
					"name": "pricePerShare",
					"type": "uint256"
				},
				{
					"indexed": false,
					"internalType": "uint256",
					"name": "initialValuation",
					"type": "uint256"
				}
			],
			"name": "PropertyTokenized",
			"type": "event"
		},
		{
			"inputs": [
				{
					"internalType": "uint256",
					"name": "propertyId",
					"type": "uint256"
				},
				{
					"internalType": "uint256",
					"name": "amount",
					"type": "uint256"
				}
			],
			"name": "calculateLiquidationPrice",
			"outputs": [
				{
					"internalType": "uint256",
					"name": "",
					"type": "uint256"
				}
			],
			"stateMutability": "view",
			"type": "function"
		},
		{
			"inputs": [
				{
					"internalType": "uint256",
					"name": "propertyId",
					"type": "uint256"
				},
				{
					"internalType": "uint256",
					"name": "amount",
					"type": "uint256"
				}
			],
			"name": "calculatePurchase",
			"outputs": [
				{
					"internalType": "uint256",
					"name": "",
					"type": "uint256"
				},
				{
					"internalType": "uint256",
					"name": "",
					"type": "uint256"
				}
			],
			"stateMutability": "view",
			"type": "function"
		},
		{
			"inputs": [
				{
					"internalType": "string",
					"name": "name",
					"type": "string"
				},
				{
					"internalType": "string",
					"name": "location",
					"type": "string"
				},
				{
					"internalType": "string",
					"name": "description",
					"type": "string"
				},
				{
					"internalType": "string[]",
					"name": "imageUrls",
					"type": "string[]"
				},
				{
					"internalType": "uint256",
					"name": "totalShares",
					"type": "uint256"
				},
				{
					"internalType": "uint256",
					"name": "pricePerShare",
					"type": "uint256"
				},
				{
					"internalType": "uint256",
					"name": "initialValuation",
					"type": "uint256"
				}
			],
			"name": "createProperty",
			"outputs": [
				{
					"internalType": "uint256",
					"name": "",
					"type": "uint256"
				}
			],
			"stateMutability": "nonpayable",
			"type": "function"
		},
		{
			"inputs": [
				{
					"internalType": "uint256",
					"name": "propertyId",
					"type": "uint256"
				}
			],
			"name": "getPropertyInfo",
			"outputs": [
				{
					"internalType": "string",
					"name": "name",
					"type": "string"
				},
				{
					"internalType": "string",
					"name": "location",
					"type": "string"
				},
				{
					"internalType": "uint256",
					"name": "totalShares",
					"type": "uint256"
				},
				{
					"internalType": "uint256",
					"name": "pricePerShare",
					"type": "uint256"
				},
				{
					"internalType": "bool",
					"name": "isForSale",
					"type": "bool"
				},
				{
					"internalType": "uint256",
					"name": "salePrice",
					"type": "uint256"
				}
			],
			"stateMutability": "view",
			"type": "function"
		},
		{
			"inputs": [],
			"name": "owner",
			"outputs": [
				{
					"internalType": "address",
					"name": "",
					"type": "address"
				}
			],
			"stateMutability": "view",
			"type": "function"
		},
		{
			"inputs": [],
			"name": "renounceOwnership",
			"outputs": [],
			"stateMutability": "nonpayable",
			"type": "function"
		},
		{
			"inputs": [
				{
					"internalType": "address",
					"name": "newOwner",
					"type": "address"
				}
			],
			"name": "transferOwnership",
			"outputs": [],
			"stateMutability": "nonpayable",
			"type": "function"
		},
		{
			"inputs": [
				{
					"internalType": "uint256",
					"name": "propertyId",
					"type": "uint256"
				},
				{
					"internalType": "uint256",
					"name": "amount",
					"type": "uint256"
				}
			],
			"name": "updateAvailableShares",
			"outputs": [],
			"stateMutability": "nonpayable",
			"type": "function"
		},
		{
			"inputs": [
				{
					"internalType": "uint256",
					"name": "propertyId",
					"type": "uint256"
				},
				{
					"internalType": "uint256",
					"name": "newValuation",
					"type": "uint256"
				}
			],
			"name": "updatePropertyValuation",
			"outputs": [],
			"stateMutability": "nonpayable",
			"type": "function"
		}
	]
}