{
	"data": {
		"bytecode": {
			"linkReferences": {},
			"object": "608060405234801561000f575f80fd5b506040516118f43803806118f4833981810160405281019061003191906101d7565b805f73ffffffffffffffffffffffffffffffffffffffff168173ffffffffffffffffffffffffffffffffffffffff16036100a2575f6040517f1e4fbdf70000000000000000000000000000000000000000000000000000000081526004016100999190610211565b60405180910390fd5b6100b1816100b860201b60201c565b505061022a565b5f805f9054906101000a900473ffffffffffffffffffffffffffffffffffffffff169050815f806101000a81548173ffffffffffffffffffffffffffffffffffffffff021916908373ffffffffffffffffffffffffffffffffffffffff1602179055508173ffffffffffffffffffffffffffffffffffffffff168173ffffffffffffffffffffffffffffffffffffffff167f8be0079c531659141344cd1fd0a4f28419497f9722a3daafe3b4186f6b6457e060405160405180910390a35050565b5f80fd5b5f73ffffffffffffffffffffffffffffffffffffffff82169050919050565b5f6101a68261017d565b9050919050565b6101b68161019c565b81146101c0575f80fd5b50565b5f815190506101d1816101ad565b92915050565b5f602082840312156101ec576101eb610179565b5b5f6101f9848285016101c3565b91505092915050565b61020b8161019c565b82525050565b5f6020820190506102245f830184610202565b92915050565b6116bd806102375f395ff3fe608060405234801561000f575f80fd5b50600436106100cd575f3560e01c80638da5cb5b1161008a578063ace417e011610064578063ace417e0146101fd578063e35fe3661461022d578063f2fde38b1461025d578063f7b1080814610279576100cd565b80638da5cb5b146101935780639b7c4b4b146101b1578063a4803061146101cd576100cd565b806307192622146100d157806332665ffb146101015780633e819558146101355780634212a8ae146101515780634d8131201461016d578063715018a614610189575b5f80fd5b6100eb60048036038101906100e69190610d5c565b6102ad565b6040516100f89190610da1565b60405180910390f35b61011b60048036038101906101169190610d5c565b6102d6565b60405161012c959493929190610e78565b60405180910390f35b61014f600480360381019061014a9190611050565b61044b565b005b61016b60048036038101906101669190610d5c565b610632565b005b610187600480360381019061018291906110e3565b6106eb565b005b61019161078e565b005b61019b6107a1565b6040516101a8919061110e565b60405180910390f35b6101cb60048036038101906101c69190611127565b6107c8565b005b6101e760048036038101906101e29190611165565b6109b0565b6040516101f49190610da1565b60405180910390f35b610217600480360381019061021291906110e3565b6109e5565b6040516102249190610da1565b60405180910390f35b610247600480360381019061024291906110e3565b610a37565b6040516102549190610da1565b60405180910390f35b610277600480360381019061027291906110e3565b610a54565b005b610293600480360381019061028e9190610d5c565b610ad8565b6040516102a4959493929190610e78565b60405180910390f35b5f60015f8381526020019081526020015f206002015f9054906101000a900460ff169050919050565b60605f805f805f60015f8881526020019081526020015f206040518060a00160405290815f82018054610308906111d9565b80601f0160208091040260200160405190810160405280929190818152602001828054610334906111d9565b801561037f5780601f106103565761010080835404028352916020019161037f565b820191905f5260205f20905b81548152906001019060200180831161036257829003601f168201915b5050505050815260200160018201548152602001600282015f9054906101000a900460ff161515151581526020016002820160019054906101000a900473ffffffffffffffffffffffffffffffffffffffff1673ffffffffffffffffffffffffffffffffffffffff1673ffffffffffffffffffffffffffffffffffffffff1681526020016002820160159054906101000a900460ff1615151515815250509050805f01518160200151826040015183606001518460800151955095509550955095505091939590929450565b610453610bc9565b6002846040516104639190611243565b90815260200160405180910390205f9054906101000a900460ff16156104be576040517f08c379a00000000000000000000000000000000000000000000000000000000081526004016104b5906112a3565b60405180910390fd5b6040518060a001604052808581526020018481526020015f151581526020018373ffffffffffffffffffffffffffffffffffffffff16815260200182151581525060015f8781526020019081526020015f205f820151815f019081610523919061145e565b50602082015181600101556040820151816002015f6101000a81548160ff02191690831515021790555060608201518160020160016101000a81548173ffffffffffffffffffffffffffffffffffffffff021916908373ffffffffffffffffffffffffffffffffffffffff16021790555060808201518160020160156101000a81548160ff02191690831515021790555090505060016002856040516105c99190611243565b90815260200160405180910390205f6101000a81548160ff021916908315150217905550847f70061553c9b2c3764557738c603533c5fc2ed7f5d1d0650da37fc2ff30b479d685858585604051610623949392919061152d565b60405180910390a25050505050565b61063a610bc9565b5f60015f8381526020019081526020015f206001015403610690576040517f08c379a0000000000000000000000000000000000000000000000000000000008152600401610687906115c1565b60405180910390fd5b6001805f8381526020019081526020015f206002015f6101000a81548160ff021916908315150217905550807f251541517e7fdfbb2cb6b8c70a4fdaa5055dd01495174bcb394e5c6934ae634160405160405180910390a250565b6106f3610bc9565b600160035f8373ffffffffffffffffffffffffffffffffffffffff1673ffffffffffffffffffffffffffffffffffffffff1681526020019081526020015f205f6101000a81548160ff0219169083151502179055508073ffffffffffffffffffffffffffffffffffffffff167fa6625d2d26e786e2f473111bea4b2fcdbbf1863d883a2359989ce3a103d2972a60405160405180910390a250565b610796610bc9565b61079f5f610c50565b565b5f805f9054906101000a900473ffffffffffffffffffffffffffffffffffffffff16905090565b6107d0610bc9565b60015f8381526020019081526020015f206002015f9054906101000a900460ff16610830576040517f08c379a000000000000000000000000000000000000000000000000000000000815260040161082790611629565b60405180910390fd5b8060015f8481526020019081526020015f206001018190555060015f8381526020019081526020015f2060020160159054906101000a900460ff161561090f5760015f8381526020019081526020015f2060020160019054906101000a900473ffffffffffffffffffffffffffffffffffffffff1673ffffffffffffffffffffffffffffffffffffffff1663e20993bc826040518263ffffffff1660e01b81526004016108dd9190611647565b5f604051808303815f87803b1580156108f4575f80fd5b505af1158015610906573d5f803e3d5ffd5b505050506109ac565b60015f8381526020019081526020015f2060020160019054906101000a900473ffffffffffffffffffffffffffffffffffffffff1673ffffffffffffffffffffffffffffffffffffffff16639b7c4b4b83836040518363ffffffff1660e01b815260040161097e929190611660565b5f604051808303815f87803b158015610995575f80fd5b505af11580156109a7573d5f803e3d5ffd5b505050505b5050565b6002818051602081018201805184825260208301602085012081835280955050505050505f915054906101000a900460ff1681565b5f60035f8373ffffffffffffffffffffffffffffffffffffffff1673ffffffffffffffffffffffffffffffffffffffff1681526020019081526020015f205f9054906101000a900460ff169050919050565b6003602052805f5260405f205f915054906101000a900460ff1681565b610a5c610bc9565b5f73ffffffffffffffffffffffffffffffffffffffff168173ffffffffffffffffffffffffffffffffffffffff1603610acc575f6040517f1e4fbdf7000000000000000000000000000000000000000000000000000000008152600401610ac3919061110e565b60405180910390fd5b610ad581610c50565b50565b6001602052805f5260405f205f91509050805f018054610af7906111d9565b80601f0160208091040260200160405190810160405280929190818152602001828054610b23906111d9565b8015610b6e5780601f10610b4557610100808354040283529160200191610b6e565b820191905f5260205f20905b815481529060010190602001808311610b5157829003601f168201915b505050505090806001015490806002015f9054906101000a900460ff16908060020160019054906101000a900473ffffffffffffffffffffffffffffffffffffffff16908060020160159054906101000a900460ff16905085565b610bd1610d11565b73ffffffffffffffffffffffffffffffffffffffff16610bef6107a1565b73ffffffffffffffffffffffffffffffffffffffff1614610c4e57610c12610d11565b6040517f118cdaa7000000000000000000000000000000000000000000000000000000008152600401610c45919061110e565b60405180910390fd5b565b5f805f9054906101000a900473ffffffffffffffffffffffffffffffffffffffff169050815f806101000a81548173ffffffffffffffffffffffffffffffffffffffff021916908373ffffffffffffffffffffffffffffffffffffffff1602179055508173ffffffffffffffffffffffffffffffffffffffff168173ffffffffffffffffffffffffffffffffffffffff167f8be0079c531659141344cd1fd0a4f28419497f9722a3daafe3b4186f6b6457e060405160405180910390a35050565b5f33905090565b5f604051905090565b5f80fd5b5f80fd5b5f819050919050565b610d3b81610d29565b8114610d45575f80fd5b50565b5f81359050610d5681610d32565b92915050565b5f60208284031215610d7157610d70610d21565b5b5f610d7e84828501610d48565b91505092915050565b5f8115159050919050565b610d9b81610d87565b82525050565b5f602082019050610db45f830184610d92565b92915050565b5f81519050919050565b5f82825260208201905092915050565b8281835e5f83830152505050565b5f601f19601f8301169050919050565b5f610dfc82610dba565b610e068185610dc4565b9350610e16818560208601610dd4565b610e1f81610de2565b840191505092915050565b610e3381610d29565b82525050565b5f73ffffffffffffffffffffffffffffffffffffffff82169050919050565b5f610e6282610e39565b9050919050565b610e7281610e58565b82525050565b5f60a0820190508181035f830152610e908188610df2565b9050610e9f6020830187610e2a565b610eac6040830186610d92565b610eb96060830185610e69565b610ec66080830184610d92565b9695505050505050565b5f80fd5b5f80fd5b7f4e487b71000000000000000000000000000000000000000000000000000000005f52604160045260245ffd5b610f0e82610de2565b810181811067ffffffffffffffff82111715610f2d57610f2c610ed8565b5b80604052505050565b5f610f3f610d18565b9050610f4b8282610f05565b919050565b5f67ffffffffffffffff821115610f6a57610f69610ed8565b5b610f7382610de2565b9050602081019050919050565b828183375f83830152505050565b5f610fa0610f9b84610f50565b610f36565b905082815260208101848484011115610fbc57610fbb610ed4565b5b610fc7848285610f80565b509392505050565b5f82601f830112610fe357610fe2610ed0565b5b8135610ff3848260208601610f8e565b91505092915050565b61100581610e58565b811461100f575f80fd5b50565b5f8135905061102081610ffc565b92915050565b61102f81610d87565b8114611039575f80fd5b50565b5f8135905061104a81611026565b92915050565b5f805f805f60a0868803121561106957611068610d21565b5b5f61107688828901610d48565b955050602086013567ffffffffffffffff81111561109757611096610d25565b5b6110a388828901610fcf565b94505060406110b488828901610d48565b93505060606110c588828901611012565b92505060806110d68882890161103c565b9150509295509295909350565b5f602082840312156110f8576110f7610d21565b5b5f61110584828501611012565b91505092915050565b5f6020820190506111215f830184610e69565b92915050565b5f806040838503121561113d5761113c610d21565b5b5f61114a85828601610d48565b925050602061115b85828601610d48565b9150509250929050565b5f6020828403121561117a57611179610d21565b5b5f82013567ffffffffffffffff81111561119757611196610d25565b5b6111a384828501610fcf565b91505092915050565b7f4e487b71000000000000000000000000000000000000000000000000000000005f52602260045260245ffd5b5f60028204905060018216806111f057607f821691505b602082108103611203576112026111ac565b5b50919050565b5f81905092915050565b5f61121d82610dba565b6112278185611209565b9350611237818560208601610dd4565b80840191505092915050565b5f61124e8284611213565b915081905092915050565b7f50726f706572747920616c7265616479207265676973746572656400000000005f82015250565b5f61128d601b83610dc4565b915061129882611259565b602082019050919050565b5f6020820190508181035f8301526112ba81611281565b9050919050565b5f819050815f5260205f209050919050565b5f6020601f8301049050919050565b5f82821b905092915050565b5f6008830261131d7fffffffffffffffffffffffffffffffffffffffffffffffffffffffffffffffff826112e2565b61132786836112e2565b95508019841693508086168417925050509392505050565b5f819050919050565b5f61136261135d61135884610d29565b61133f565b610d29565b9050919050565b5f819050919050565b61137b83611348565b61138f61138782611369565b8484546112ee565b825550505050565b5f90565b6113a3611397565b6113ae818484611372565b505050565b5b818110156113d1576113c65f8261139b565b6001810190506113b4565b5050565b601f821115611416576113e7816112c1565b6113f0846112d3565b810160208510156113ff578190505b61141361140b856112d3565b8301826113b3565b50505b505050565b5f82821c905092915050565b5f6114365f198460080261141b565b1980831691505092915050565b5f61144e8383611427565b9150826002028217905092915050565b61146782610dba565b67ffffffffffffffff8111156114805761147f610ed8565b5b61148a82546111d9565b6114958282856113d5565b5f60209050601f8311600181146114c6575f84156114b4578287015190505b6114be8582611443565b865550611525565b601f1984166114d4866112c1565b5f5b828110156114fb578489015182556001820191506020850194506020810190506114d6565b868310156115185784890151611514601f891682611427565b8355505b6001600288020188555050505b505050505050565b5f6080820190508181035f8301526115458187610df2565b90506115546020830186610e2a565b6115616040830185610e69565b61156e6060830184610d92565b95945050505050565b7f50726f706572747920646f6573206e6f742065786973740000000000000000005f82015250565b5f6115ab601783610dc4565b91506115b682611577565b602082019050919050565b5f6020820190508181035f8301526115d88161159f565b9050919050565b7f50726f7065727479206e6f7420766572696669656400000000000000000000005f82015250565b5f611613601583610dc4565b915061161e826115df565b602082019050919050565b5f6020820190508181035f83015261164081611607565b9050919050565b5f60208201905061165a5f830184610e2a565b92915050565b5f6040820190506116735f830185610e2a565b6116806020830184610e2a565b939250505056fea26469706673582212209ddb79d16c34ce3652d2ce74c193c3b539d69a7eba38b1a85a861de8d7424af564736f6c634300081a0033",
			"opcodes": "PUSH1 0x80 PUSH1 0x40 MSTORE CALLVALUE DUP1 ISZERO PUSH2 0xF JUMPI PUSH0 DUP1 REVERT JUMPDEST POP PUSH1 0x40 MLOAD PUSH2 0x18F4 CODESIZE SUB DUP1 PUSH2 0x18F4 DUP4 CODECOPY DUP2 DUP2 ADD PUSH1 0x40 MSTORE DUP2 ADD SWAP1 PUSH2 0x31 SWAP2 SWAP1 PUSH2 0x1D7 JUMP JUMPDEST DUP1 PUSH0 PUSH20 0xFFFFFFFFFFFFFFFFFFFFFFFFFFFFFFFFFFFFFFFF AND DUP2 PUSH20 0xFFFFFFFFFFFFFFFFFFFFFFFFFFFFFFFFFFFFFFFF AND SUB PUSH2 0xA2 JUMPI PUSH0 PUSH1 0x40 MLOAD PUSH32 0x1E4FBDF700000000000000000000000000000000000000000000000000000000 DUP2 MSTORE PUSH1 0x4 ADD PUSH2 0x99 SWAP2 SWAP1 PUSH2 0x211 JUMP JUMPDEST PUSH1 0x40 MLOAD DUP1 SWAP2 SUB SWAP1 REVERT JUMPDEST PUSH2 0xB1 DUP2 PUSH2 0xB8 PUSH1 0x20 SHL PUSH1 0x20 SHR JUMP JUMPDEST POP POP PUSH2 0x22A JUMP JUMPDEST PUSH0 DUP1 PUSH0 SWAP1 SLOAD SWAP1 PUSH2 0x100 EXP SWAP1 DIV PUSH20 0xFFFFFFFFFFFFFFFFFFFFFFFFFFFFFFFFFFFFFFFF AND SWAP1 POP DUP2 PUSH0 DUP1 PUSH2 0x100 EXP DUP2 SLOAD DUP2 PUSH20 0xFFFFFFFFFFFFFFFFFFFFFFFFFFFFFFFFFFFFFFFF MUL NOT AND SWAP1 DUP4 PUSH20 0xFFFFFFFFFFFFFFFFFFFFFFFFFFFFFFFFFFFFFFFF AND MUL OR SWAP1 SSTORE POP DUP2 PUSH20 0xFFFFFFFFFFFFFFFFFFFFFFFFFFFFFFFFFFFFFFFF AND DUP2 PUSH20 0xFFFFFFFFFFFFFFFFFFFFFFFFFFFFFFFFFFFFFFFF AND PUSH32 0x8BE0079C531659141344CD1FD0A4F28419497F9722A3DAAFE3B4186F6B6457E0 PUSH1 0x40 MLOAD PUSH1 0x40 MLOAD DUP1 SWAP2 SUB SWAP1 LOG3 POP POP JUMP JUMPDEST PUSH0 DUP1 REVERT JUMPDEST PUSH0 PUSH20 0xFFFFFFFFFFFFFFFFFFFFFFFFFFFFFFFFFFFFFFFF DUP3 AND SWAP1 POP SWAP2 SWAP1 POP JUMP JUMPDEST PUSH0 PUSH2 0x1A6 DUP3 PUSH2 0x17D JUMP JUMPDEST SWAP1 POP SWAP2 SWAP1 POP JUMP JUMPDEST PUSH2 0x1B6 DUP2 PUSH2 0x19C JUMP JUMPDEST DUP2 EQ PUSH2 0x1C0 JUMPI PUSH0 DUP1 REVERT JUMPDEST POP JUMP JUMPDEST PUSH0 DUP2 MLOAD SWAP1 POP PUSH2 0x1D1 DUP2 PUSH2 0x1AD JUMP JUMPDEST SWAP3 SWAP2 POP POP JUMP JUMPDEST PUSH0 PUSH1 0x20 DUP3 DUP5 SUB SLT ISZERO PUSH2 0x1EC JUMPI PUSH2 0x1EB PUSH2 0x179 JUMP JUMPDEST JUMPDEST PUSH0 PUSH2 0x1F9 DUP5 DUP3 DUP6 ADD PUSH2 0x1C3 JUMP JUMPDEST SWAP2 POP POP SWAP3 SWAP2 POP POP JUMP JUMPDEST PUSH2 0x20B DUP2 PUSH2 0x19C JUMP JUMPDEST DUP3 MSTORE POP POP JUMP JUMPDEST PUSH0 PUSH1 0x20 DUP3 ADD SWAP1 POP PUSH2 0x224 PUSH0 DUP4 ADD DUP5 PUSH2 0x202 JUMP JUMPDEST SWAP3 SWAP2 POP POP JUMP JUMPDEST PUSH2 0x16BD DUP1 PUSH2 0x237 PUSH0 CODECOPY PUSH0 RETURN INVALID PUSH1 0x80 PUSH1 0x40 MSTORE CALLVALUE DUP1 ISZERO PUSH2 0xF JUMPI PUSH0 DUP1 REVERT JUMPDEST POP PUSH1 0x4 CALLDATASIZE LT PUSH2 0xCD JUMPI PUSH0 CALLDATALOAD PUSH1 0xE0 SHR DUP1 PUSH4 0x8DA5CB5B GT PUSH2 0x8A JUMPI DUP1 PUSH4 0xACE417E0 GT PUSH2 0x64 JUMPI DUP1 PUSH4 0xACE417E0 EQ PUSH2 0x1FD JUMPI DUP1 PUSH4 0xE35FE366 EQ PUSH2 0x22D JUMPI DUP1 PUSH4 0xF2FDE38B EQ PUSH2 0x25D JUMPI DUP1 PUSH4 0xF7B10808 EQ PUSH2 0x279 JUMPI PUSH2 0xCD JUMP JUMPDEST DUP1 PUSH4 0x8DA5CB5B EQ PUSH2 0x193 JUMPI DUP1 PUSH4 0x9B7C4B4B EQ PUSH2 0x1B1 JUMPI DUP1 PUSH4 0xA4803061 EQ PUSH2 0x1CD JUMPI PUSH2 0xCD JUMP JUMPDEST DUP1 PUSH4 0x7192622 EQ PUSH2 0xD1 JUMPI DUP1 PUSH4 0x32665FFB EQ PUSH2 0x101 JUMPI DUP1 PUSH4 0x3E819558 EQ PUSH2 0x135 JUMPI DUP1 PUSH4 0x4212A8AE EQ PUSH2 0x151 JUMPI DUP1 PUSH4 0x4D813120 EQ PUSH2 0x16D JUMPI DUP1 PUSH4 0x715018A6 EQ PUSH2 0x189 JUMPI JUMPDEST PUSH0 DUP1 REVERT JUMPDEST PUSH2 0xEB PUSH1 0x4 DUP1 CALLDATASIZE SUB DUP2 ADD SWAP1 PUSH2 0xE6 SWAP2 SWAP1 PUSH2 0xD5C JUMP JUMPDEST PUSH2 0x2AD JUMP JUMPDEST PUSH1 0x40 MLOAD PUSH2 0xF8 SWAP2 SWAP1 PUSH2 0xDA1 JUMP JUMPDEST PUSH1 0x40 MLOAD DUP1 SWAP2 SUB SWAP1 RETURN JUMPDEST PUSH2 0x11B PUSH1 0x4 DUP1 CALLDATASIZE SUB DUP2 ADD SWAP1 PUSH2 0x116 SWAP2 SWAP1 PUSH2 0xD5C JUMP JUMPDEST PUSH2 0x2D6 JUMP JUMPDEST PUSH1 0x40 MLOAD PUSH2 0x12C SWAP6 SWAP5 SWAP4 SWAP3 SWAP2 SWAP1 PUSH2 0xE78 JUMP JUMPDEST PUSH1 0x40 MLOAD DUP1 SWAP2 SUB SWAP1 RETURN JUMPDEST PUSH2 0x14F PUSH1 0x4 DUP1 CALLDATASIZE SUB DUP2 ADD SWAP1 PUSH2 0x14A SWAP2 SWAP1 PUSH2 0x1050 JUMP JUMPDEST PUSH2 0x44B JUMP JUMPDEST STOP JUMPDEST PUSH2 0x16B PUSH1 0x4 DUP1 CALLDATASIZE SUB DUP2 ADD SWAP1 PUSH2 0x166 SWAP2 SWAP1 PUSH2 0xD5C JUMP JUMPDEST PUSH2 0x632 JUMP JUMPDEST STOP JUMPDEST PUSH2 0x187 PUSH1 0x4 DUP1 CALLDATASIZE SUB DUP2 ADD SWAP1 PUSH2 0x182 SWAP2 SWAP1 PUSH2 0x10E3 JUMP JUMPDEST PUSH2 0x6EB JUMP JUMPDEST STOP JUMPDEST PUSH2 0x191 PUSH2 0x78E JUMP JUMPDEST STOP JUMPDEST PUSH2 0x19B PUSH2 0x7A1 JUMP JUMPDEST PUSH1 0x40 MLOAD PUSH2 0x1A8 SWAP2 SWAP1 PUSH2 0x110E JUMP JUMPDEST PUSH1 0x40 MLOAD DUP1 SWAP2 SUB SWAP1 RETURN JUMPDEST PUSH2 0x1CB PUSH1 0x4 DUP1 CALLDATASIZE SUB DUP2 ADD SWAP1 PUSH2 0x1C6 SWAP2 SWAP1 PUSH2 0x1127 JUMP JUMPDEST PUSH2 0x7C8 JUMP JUMPDEST STOP JUMPDEST PUSH2 0x1E7 PUSH1 0x4 DUP1 CALLDATASIZE SUB DUP2 ADD SWAP1 PUSH2 0x1E2 SWAP2 SWAP1 PUSH2 0x1165 JUMP JUMPDEST PUSH2 0x9B0 JUMP JUMPDEST PUSH1 0x40 MLOAD PUSH2 0x1F4 SWAP2 SWAP1 PUSH2 0xDA1 JUMP JUMPDEST PUSH1 0x40 MLOAD DUP1 SWAP2 SUB SWAP1 RETURN JUMPDEST PUSH2 0x217 PUSH1 0x4 DUP1 CALLDATASIZE SUB DUP2 ADD SWAP1 PUSH2 0x212 SWAP2 SWAP1 PUSH2 0x10E3 JUMP JUMPDEST PUSH2 0x9E5 JUMP JUMPDEST PUSH1 0x40 MLOAD PUSH2 0x224 SWAP2 SWAP1 PUSH2 0xDA1 JUMP JUMPDEST PUSH1 0x40 MLOAD DUP1 SWAP2 SUB SWAP1 RETURN JUMPDEST PUSH2 0x247 PUSH1 0x4 DUP1 CALLDATASIZE SUB DUP2 ADD SWAP1 PUSH2 0x242 SWAP2 SWAP1 PUSH2 0x10E3 JUMP JUMPDEST PUSH2 0xA37 JUMP JUMPDEST PUSH1 0x40 MLOAD PUSH2 0x254 SWAP2 SWAP1 PUSH2 0xDA1 JUMP JUMPDEST PUSH1 0x40 MLOAD DUP1 SWAP2 SUB SWAP1 RETURN JUMPDEST PUSH2 0x277 PUSH1 0x4 DUP1 CALLDATASIZE SUB DUP2 ADD SWAP1 PUSH2 0x272 SWAP2 SWAP1 PUSH2 0x10E3 JUMP JUMPDEST PUSH2 0xA54 JUMP JUMPDEST STOP JUMPDEST PUSH2 0x293 PUSH1 0x4 DUP1 CALLDATASIZE SUB DUP2 ADD SWAP1 PUSH2 0x28E SWAP2 SWAP1 PUSH2 0xD5C JUMP JUMPDEST PUSH2 0xAD8 JUMP JUMPDEST PUSH1 0x40 MLOAD PUSH2 0x2A4 SWAP6 SWAP5 SWAP4 SWAP3 SWAP2 SWAP1 PUSH2 0xE78 JUMP JUMPDEST PUSH1 0x40 MLOAD DUP1 SWAP2 SUB SWAP1 RETURN JUMPDEST PUSH0 PUSH1 0x1 PUSH0 DUP4 DUP2 MSTORE PUSH1 0x20 ADD SWAP1 DUP2 MSTORE PUSH1 0x20 ADD PUSH0 KECCAK256 PUSH1 0x2 ADD PUSH0 SWAP1 SLOAD SWAP1 PUSH2 0x100 EXP SWAP1 DIV PUSH1 0xFF AND SWAP1 POP SWAP2 SWAP1 POP JUMP JUMPDEST PUSH1 0x60 PUSH0 DUP1 PUSH0 DUP1 PUSH0 PUSH1 0x1 PUSH0 DUP9 DUP2 MSTORE PUSH1 0x20 ADD SWAP1 DUP2 MSTORE PUSH1 0x20 ADD PUSH0 KECCAK256 PUSH1 0x40 MLOAD DUP1 PUSH1 0xA0 ADD PUSH1 0x40 MSTORE SWAP1 DUP2 PUSH0 DUP3 ADD DUP1 SLOAD PUSH2 0x308 SWAP1 PUSH2 0x11D9 JUMP JUMPDEST DUP1 PUSH1 0x1F ADD PUSH1 0x20 DUP1 SWAP2 DIV MUL PUSH1 0x20 ADD PUSH1 0x40 MLOAD SWAP1 DUP2 ADD PUSH1 0x40 MSTORE DUP1 SWAP3 SWAP2 SWAP1 DUP2 DUP2 MSTORE PUSH1 0x20 ADD DUP3 DUP1 SLOAD PUSH2 0x334 SWAP1 PUSH2 0x11D9 JUMP JUMPDEST DUP1 ISZERO PUSH2 0x37F JUMPI DUP1 PUSH1 0x1F LT PUSH2 0x356 JUMPI PUSH2 0x100 DUP1 DUP4 SLOAD DIV MUL DUP4 MSTORE SWAP2 PUSH1 0x20 ADD SWAP2 PUSH2 0x37F JUMP JUMPDEST DUP3 ADD SWAP2 SWAP1 PUSH0 MSTORE PUSH1 0x20 PUSH0 KECCAK256 SWAP1 JUMPDEST DUP2 SLOAD DUP2 MSTORE SWAP1 PUSH1 0x1 ADD SWAP1 PUSH1 0x20 ADD DUP1 DUP4 GT PUSH2 0x362 JUMPI DUP3 SWAP1 SUB PUSH1 0x1F AND DUP3 ADD SWAP2 JUMPDEST POP POP POP POP POP DUP2 MSTORE PUSH1 0x20 ADD PUSH1 0x1 DUP3 ADD SLOAD DUP2 MSTORE PUSH1 0x20 ADD PUSH1 0x2 DUP3 ADD PUSH0 SWAP1 SLOAD SWAP1 PUSH2 0x100 EXP SWAP1 DIV PUSH1 0xFF AND ISZERO ISZERO ISZERO ISZERO DUP2 MSTORE PUSH1 0x20 ADD PUSH1 0x2 DUP3 ADD PUSH1 0x1 SWAP1 SLOAD SWAP1 PUSH2 0x100 EXP SWAP1 DIV PUSH20 0xFFFFFFFFFFFFFFFFFFFFFFFFFFFFFFFFFFFFFFFF AND PUSH20 0xFFFFFFFFFFFFFFFFFFFFFFFFFFFFFFFFFFFFFFFF AND PUSH20 0xFFFFFFFFFFFFFFFFFFFFFFFFFFFFFFFFFFFFFFFF AND DUP2 MSTORE PUSH1 0x20 ADD PUSH1 0x2 DUP3 ADD PUSH1 0x15 SWAP1 SLOAD SWAP1 PUSH2 0x100 EXP SWAP1 DIV PUSH1 0xFF AND ISZERO ISZERO ISZERO ISZERO DUP2 MSTORE POP POP SWAP1 POP DUP1 PUSH0 ADD MLOAD DUP2 PUSH1 0x20 ADD MLOAD DUP3 PUSH1 0x40 ADD MLOAD DUP4 PUSH1 0x60 ADD MLOAD DUP5 PUSH1 0x80 ADD MLOAD SWAP6 POP SWAP6 POP SWAP6 POP SWAP6 POP SWAP6 POP POP SWAP2 SWAP4 SWAP6 SWAP1 SWAP3 SWAP5 POP JUMP JUMPDEST PUSH2 0x453 PUSH2 0xBC9 JUMP JUMPDEST PUSH1 0x2 DUP5 PUSH1 0x40 MLOAD PUSH2 0x463 SWAP2 SWAP1 PUSH2 0x1243 JUMP JUMPDEST SWAP1 DUP2 MSTORE PUSH1 0x20 ADD PUSH1 0x40 MLOAD DUP1 SWAP2 SUB SWAP1 KECCAK256 PUSH0 SWAP1 SLOAD SWAP1 PUSH2 0x100 EXP SWAP1 DIV PUSH1 0xFF AND ISZERO PUSH2 0x4BE JUMPI PUSH1 0x40 MLOAD PUSH32 0x8C379A000000000000000000000000000000000000000000000000000000000 DUP2 MSTORE PUSH1 0x4 ADD PUSH2 0x4B5 SWAP1 PUSH2 0x12A3 JUMP JUMPDEST PUSH1 0x40 MLOAD DUP1 SWAP2 SUB SWAP1 REVERT JUMPDEST PUSH1 0x40 MLOAD DUP1 PUSH1 0xA0 ADD PUSH1 0x40 MSTORE DUP1 DUP6 DUP2 MSTORE PUSH1 0x20 ADD DUP5 DUP2 MSTORE PUSH1 0x20 ADD PUSH0 ISZERO ISZERO DUP2 MSTORE PUSH1 0x20 ADD DUP4 PUSH20 0xFFFFFFFFFFFFFFFFFFFFFFFFFFFFFFFFFFFFFFFF AND DUP2 MSTORE PUSH1 0x20 ADD DUP3 ISZERO ISZERO DUP2 MSTORE POP PUSH1 0x1 PUSH0 DUP8 DUP2 MSTORE PUSH1 0x20 ADD SWAP1 DUP2 MSTORE PUSH1 0x20 ADD PUSH0 KECCAK256 PUSH0 DUP3 ADD MLOAD DUP2 PUSH0 ADD SWAP1 DUP2 PUSH2 0x523 SWAP2 SWAP1 PUSH2 0x145E JUMP JUMPDEST POP PUSH1 0x20 DUP3 ADD MLOAD DUP2 PUSH1 0x1 ADD SSTORE PUSH1 0x40 DUP3 ADD MLOAD DUP2 PUSH1 0x2 ADD PUSH0 PUSH2 0x100 EXP DUP2 SLOAD DUP2 PUSH1 0xFF MUL NOT AND SWAP1 DUP4 ISZERO ISZERO MUL OR SWAP1 SSTORE POP PUSH1 0x60 DUP3 ADD MLOAD DUP2 PUSH1 0x2 ADD PUSH1 0x1 PUSH2 0x100 EXP DUP2 SLOAD DUP2 PUSH20 0xFFFFFFFFFFFFFFFFFFFFFFFFFFFFFFFFFFFFFFFF MUL NOT AND SWAP1 DUP4 PUSH20 0xFFFFFFFFFFFFFFFFFFFFFFFFFFFFFFFFFFFFFFFF AND MUL OR SWAP1 SSTORE POP PUSH1 0x80 DUP3 ADD MLOAD DUP2 PUSH1 0x2 ADD PUSH1 0x15 PUSH2 0x100 EXP DUP2 SLOAD DUP2 PUSH1 0xFF MUL NOT AND SWAP1 DUP4 ISZERO ISZERO MUL OR SWAP1 SSTORE POP SWAP1 POP POP PUSH1 0x1 PUSH1 0x2 DUP6 PUSH1 0x40 MLOAD PUSH2 0x5C9 SWAP2 SWAP1 PUSH2 0x1243 JUMP JUMPDEST SWAP1 DUP2 MSTORE PUSH1 0x20 ADD PUSH1 0x40 MLOAD DUP1 SWAP2 SUB SWAP1 KECCAK256 PUSH0 PUSH2 0x100 EXP DUP2 SLOAD DUP2 PUSH1 0xFF MUL NOT AND SWAP1 DUP4 ISZERO ISZERO MUL OR SWAP1 SSTORE POP DUP5 PUSH32 0x70061553C9B2C3764557738C603533C5FC2ED7F5D1D0650DA37FC2FF30B479D6 DUP6 DUP6 DUP6 DUP6 PUSH1 0x40 MLOAD PUSH2 0x623 SWAP5 SWAP4 SWAP3 SWAP2 SWAP1 PUSH2 0x152D JUMP JUMPDEST PUSH1 0x40 MLOAD DUP1 SWAP2 SUB SWAP1 LOG2 POP POP POP POP POP JUMP JUMPDEST PUSH2 0x63A PUSH2 0xBC9 JUMP JUMPDEST PUSH0 PUSH1 0x1 PUSH0 DUP4 DUP2 MSTORE PUSH1 0x20 ADD SWAP1 DUP2 MSTORE PUSH1 0x20 ADD PUSH0 KECCAK256 PUSH1 0x1 ADD SLOAD SUB PUSH2 0x690 JUMPI PUSH1 0x40 MLOAD PUSH32 0x8C379A000000000000000000000000000000000000000000000000000000000 DUP2 MSTORE PUSH1 0x4 ADD PUSH2 0x687 SWAP1 PUSH2 0x15C1 JUMP JUMPDEST PUSH1 0x40 MLOAD DUP1 SWAP2 SUB SWAP1 REVERT JUMPDEST PUSH1 0x1 DUP1 PUSH0 DUP4 DUP2 MSTORE PUSH1 0x20 ADD SWAP1 DUP2 MSTORE PUSH1 0x20 ADD PUSH0 KECCAK256 PUSH1 0x2 ADD PUSH0 PUSH2 0x100 EXP DUP2 SLOAD DUP2 PUSH1 0xFF MUL NOT AND SWAP1 DUP4 ISZERO ISZERO MUL OR SWAP1 SSTORE POP DUP1 PUSH32 0x251541517E7FDFBB2CB6B8C70A4FDAA5055DD01495174BCB394E5C6934AE6341 PUSH1 0x40 MLOAD PUSH1 0x40 MLOAD DUP1 SWAP2 SUB SWAP1 LOG2 POP JUMP JUMPDEST PUSH2 0x6F3 PUSH2 0xBC9 JUMP JUMPDEST PUSH1 0x1 PUSH1 0x3 PUSH0 DUP4 PUSH20 0xFFFFFFFFFFFFFFFFFFFFFFFFFFFFFFFFFFFFFFFF AND PUSH20 0xFFFFFFFFFFFFFFFFFFFFFFFFFFFFFFFFFFFFFFFF AND DUP2 MSTORE PUSH1 0x20 ADD SWAP1 DUP2 MSTORE PUSH1 0x20 ADD PUSH0 KECCAK256 PUSH0 PUSH2 0x100 EXP DUP2 SLOAD DUP2 PUSH1 0xFF MUL NOT AND SWAP1 DUP4 ISZERO ISZERO MUL OR SWAP1 SSTORE POP DUP1 PUSH20 0xFFFFFFFFFFFFFFFFFFFFFFFFFFFFFFFFFFFFFFFF AND PUSH32 0xA6625D2D26E786E2F473111BEA4B2FCDBBF1863D883A2359989CE3A103D2972A PUSH1 0x40 MLOAD PUSH1 0x40 MLOAD DUP1 SWAP2 SUB SWAP1 LOG2 POP JUMP JUMPDEST PUSH2 0x796 PUSH2 0xBC9 JUMP JUMPDEST PUSH2 0x79F PUSH0 PUSH2 0xC50 JUMP JUMPDEST JUMP JUMPDEST PUSH0 DUP1 PUSH0 SWAP1 SLOAD SWAP1 PUSH2 0x100 EXP SWAP1 DIV PUSH20 0xFFFFFFFFFFFFFFFFFFFFFFFFFFFFFFFFFFFFFFFF AND SWAP1 POP SWAP1 JUMP JUMPDEST PUSH2 0x7D0 PUSH2 0xBC9 JUMP JUMPDEST PUSH1 0x1 PUSH0 DUP4 DUP2 MSTORE PUSH1 0x20 ADD SWAP1 DUP2 MSTORE PUSH1 0x20 ADD PUSH0 KECCAK256 PUSH1 0x2 ADD PUSH0 SWAP1 SLOAD SWAP1 PUSH2 0x100 EXP SWAP1 DIV PUSH1 0xFF AND PUSH2 0x830 JUMPI PUSH1 0x40 MLOAD PUSH32 0x8C379A000000000000000000000000000000000000000000000000000000000 DUP2 MSTORE PUSH1 0x4 ADD PUSH2 0x827 SWAP1 PUSH2 0x1629 JUMP JUMPDEST PUSH1 0x40 MLOAD DUP1 SWAP2 SUB SWAP1 REVERT JUMPDEST DUP1 PUSH1 0x1 PUSH0 DUP5 DUP2 MSTORE PUSH1 0x20 ADD SWAP1 DUP2 MSTORE PUSH1 0x20 ADD PUSH0 KECCAK256 PUSH1 0x1 ADD DUP2 SWAP1 SSTORE POP PUSH1 0x1 PUSH0 DUP4 DUP2 MSTORE PUSH1 0x20 ADD SWAP1 DUP2 MSTORE PUSH1 0x20 ADD PUSH0 KECCAK256 PUSH1 0x2 ADD PUSH1 0x15 SWAP1 SLOAD SWAP1 PUSH2 0x100 EXP SWAP1 DIV PUSH1 0xFF AND ISZERO PUSH2 0x90F JUMPI PUSH1 0x1 PUSH0 DUP4 DUP2 MSTORE PUSH1 0x20 ADD SWAP1 DUP2 MSTORE PUSH1 0x20 ADD PUSH0 KECCAK256 PUSH1 0x2 ADD PUSH1 0x1 SWAP1 SLOAD SWAP1 PUSH2 0x100 EXP SWAP1 DIV PUSH20 0xFFFFFFFFFFFFFFFFFFFFFFFFFFFFFFFFFFFFFFFF AND PUSH20 0xFFFFFFFFFFFFFFFFFFFFFFFFFFFFFFFFFFFFFFFF AND PUSH4 0xE20993BC DUP3 PUSH1 0x40 MLOAD DUP3 PUSH4 0xFFFFFFFF AND PUSH1 0xE0 SHL DUP2 MSTORE PUSH1 0x4 ADD PUSH2 0x8DD SWAP2 SWAP1 PUSH2 0x1647 JUMP JUMPDEST PUSH0 PUSH1 0x40 MLOAD DUP1 DUP4 SUB DUP2 PUSH0 DUP8 DUP1 EXTCODESIZE ISZERO DUP1 ISZERO PUSH2 0x8F4 JUMPI PUSH0 DUP1 REVERT JUMPDEST POP GAS CALL ISZERO DUP1 ISZERO PUSH2 0x906 JUMPI RETURNDATASIZE PUSH0 DUP1 RETURNDATACOPY RETURNDATASIZE PUSH0 REVERT JUMPDEST POP POP POP POP PUSH2 0x9AC JUMP JUMPDEST PUSH1 0x1 PUSH0 DUP4 DUP2 MSTORE PUSH1 0x20 ADD SWAP1 DUP2 MSTORE PUSH1 0x20 ADD PUSH0 KECCAK256 PUSH1 0x2 ADD PUSH1 0x1 SWAP1 SLOAD SWAP1 PUSH2 0x100 EXP SWAP1 DIV PUSH20 0xFFFFFFFFFFFFFFFFFFFFFFFFFFFFFFFFFFFFFFFF AND PUSH20 0xFFFFFFFFFFFFFFFFFFFFFFFFFFFFFFFFFFFFFFFF AND PUSH4 0x9B7C4B4B DUP4 DUP4 PUSH1 0x40 MLOAD DUP4 PUSH4 0xFFFFFFFF AND PUSH1 0xE0 SHL DUP2 MSTORE PUSH1 0x4 ADD PUSH2 0x97E SWAP3 SWAP2 SWAP1 PUSH2 0x1660 JUMP JUMPDEST PUSH0 PUSH1 0x40 MLOAD DUP1 DUP4 SUB DUP2 PUSH0 DUP8 DUP1 EXTCODESIZE ISZERO DUP1 ISZERO PUSH2 0x995 JUMPI PUSH0 DUP1 REVERT JUMPDEST POP GAS CALL ISZERO DUP1 ISZERO PUSH2 0x9A7 JUMPI RETURNDATASIZE PUSH0 DUP1 RETURNDATACOPY RETURNDATASIZE PUSH0 REVERT JUMPDEST POP POP POP POP JUMPDEST POP POP JUMP JUMPDEST PUSH1 0x2 DUP2 DUP1 MLOAD PUSH1 0x20 DUP2 ADD DUP3 ADD DUP1 MLOAD DUP5 DUP3 MSTORE PUSH1 0x20 DUP4 ADD PUSH1 0x20 DUP6 ADD KECCAK256 DUP2 DUP4 MSTORE DUP1 SWAP6 POP POP POP POP POP POP PUSH0 SWAP2 POP SLOAD SWAP1 PUSH2 0x100 EXP SWAP1 DIV PUSH1 0xFF AND DUP2 JUMP JUMPDEST PUSH0 PUSH1 0x3 PUSH0 DUP4 PUSH20 0xFFFFFFFFFFFFFFFFFFFFFFFFFFFFFFFFFFFFFFFF AND PUSH20 0xFFFFFFFFFFFFFFFFFFFFFFFFFFFFFFFFFFFFFFFF AND DUP2 MSTORE PUSH1 0x20 ADD SWAP1 DUP2 MSTORE PUSH1 0x20 ADD PUSH0 KECCAK256 PUSH0 SWAP1 SLOAD SWAP1 PUSH2 0x100 EXP SWAP1 DIV PUSH1 0xFF AND SWAP1 POP SWAP2 SWAP1 POP JUMP JUMPDEST PUSH1 0x3 PUSH1 0x20 MSTORE DUP1 PUSH0 MSTORE PUSH1 0x40 PUSH0 KECCAK256 PUSH0 SWAP2 POP SLOAD SWAP1 PUSH2 0x100 EXP SWAP1 DIV PUSH1 0xFF AND DUP2 JUMP JUMPDEST PUSH2 0xA5C PUSH2 0xBC9 JUMP JUMPDEST PUSH0 PUSH20 0xFFFFFFFFFFFFFFFFFFFFFFFFFFFFFFFFFFFFFFFF AND DUP2 PUSH20 0xFFFFFFFFFFFFFFFFFFFFFFFFFFFFFFFFFFFFFFFF AND SUB PUSH2 0xACC JUMPI PUSH0 PUSH1 0x40 MLOAD PUSH32 0x1E4FBDF700000000000000000000000000000000000000000000000000000000 DUP2 MSTORE PUSH1 0x4 ADD PUSH2 0xAC3 SWAP2 SWAP1 PUSH2 0x110E JUMP JUMPDEST PUSH1 0x40 MLOAD DUP1 SWAP2 SUB SWAP1 REVERT JUMPDEST PUSH2 0xAD5 DUP2 PUSH2 0xC50 JUMP JUMPDEST POP JUMP JUMPDEST PUSH1 0x1 PUSH1 0x20 MSTORE DUP1 PUSH0 MSTORE PUSH1 0x40 PUSH0 KECCAK256 PUSH0 SWAP2 POP SWAP1 POP DUP1 PUSH0 ADD DUP1 SLOAD PUSH2 0xAF7 SWAP1 PUSH2 0x11D9 JUMP JUMPDEST DUP1 PUSH1 0x1F ADD PUSH1 0x20 DUP1 SWAP2 DIV MUL PUSH1 0x20 ADD PUSH1 0x40 MLOAD SWAP1 DUP2 ADD PUSH1 0x40 MSTORE DUP1 SWAP3 SWAP2 SWAP1 DUP2 DUP2 MSTORE PUSH1 0x20 ADD DUP3 DUP1 SLOAD PUSH2 0xB23 SWAP1 PUSH2 0x11D9 JUMP JUMPDEST DUP1 ISZERO PUSH2 0xB6E JUMPI DUP1 PUSH1 0x1F LT PUSH2 0xB45 JUMPI PUSH2 0x100 DUP1 DUP4 SLOAD DIV MUL DUP4 MSTORE SWAP2 PUSH1 0x20 ADD SWAP2 PUSH2 0xB6E JUMP JUMPDEST DUP3 ADD SWAP2 SWAP1 PUSH0 MSTORE PUSH1 0x20 PUSH0 KECCAK256 SWAP1 JUMPDEST DUP2 SLOAD DUP2 MSTORE SWAP1 PUSH1 0x1 ADD SWAP1 PUSH1 0x20 ADD DUP1 DUP4 GT PUSH2 0xB51 JUMPI DUP3 SWAP1 SUB PUSH1 0x1F AND DUP3 ADD SWAP2 JUMPDEST POP POP POP POP POP SWAP1 DUP1 PUSH1 0x1 ADD SLOAD SWAP1 DUP1 PUSH1 0x2 ADD PUSH0 SWAP1 SLOAD SWAP1 PUSH2 0x100 EXP SWAP1 DIV PUSH1 0xFF AND SWAP1 DUP1 PUSH1 0x2 ADD PUSH1 0x1 SWAP1 SLOAD SWAP1 PUSH2 0x100 EXP SWAP1 DIV PUSH20 0xFFFFFFFFFFFFFFFFFFFFFFFFFFFFFFFFFFFFFFFF AND SWAP1 DUP1 PUSH1 0x2 ADD PUSH1 0x15 SWAP1 SLOAD SWAP1 PUSH2 0x100 EXP SWAP1 DIV PUSH1 0xFF AND SWAP1 POP DUP6 JUMP JUMPDEST PUSH2 0xBD1 PUSH2 0xD11 JUMP JUMPDEST PUSH20 0xFFFFFFFFFFFFFFFFFFFFFFFFFFFFFFFFFFFFFFFF AND PUSH2 0xBEF PUSH2 0x7A1 JUMP JUMPDEST PUSH20 0xFFFFFFFFFFFFFFFFFFFFFFFFFFFFFFFFFFFFFFFF AND EQ PUSH2 0xC4E JUMPI PUSH2 0xC12 PUSH2 0xD11 JUMP JUMPDEST PUSH1 0x40 MLOAD PUSH32 0x118CDAA700000000000000000000000000000000000000000000000000000000 DUP2 MSTORE PUSH1 0x4 ADD PUSH2 0xC45 SWAP2 SWAP1 PUSH2 0x110E JUMP JUMPDEST PUSH1 0x40 MLOAD DUP1 SWAP2 SUB SWAP1 REVERT JUMPDEST JUMP JUMPDEST PUSH0 DUP1 PUSH0 SWAP1 SLOAD SWAP1 PUSH2 0x100 EXP SWAP1 DIV PUSH20 0xFFFFFFFFFFFFFFFFFFFFFFFFFFFFFFFFFFFFFFFF AND SWAP1 POP DUP2 PUSH0 DUP1 PUSH2 0x100 EXP DUP2 SLOAD DUP2 PUSH20 0xFFFFFFFFFFFFFFFFFFFFFFFFFFFFFFFFFFFFFFFF MUL NOT AND SWAP1 DUP4 PUSH20 0xFFFFFFFFFFFFFFFFFFFFFFFFFFFFFFFFFFFFFFFF AND MUL OR SWAP1 SSTORE POP DUP2 PUSH20 0xFFFFFFFFFFFFFFFFFFFFFFFFFFFFFFFFFFFFFFFF AND DUP2 PUSH20 0xFFFFFFFFFFFFFFFFFFFFFFFFFFFFFFFFFFFFFFFF AND PUSH32 0x8BE0079C531659141344CD1FD0A4F28419497F9722A3DAAFE3B4186F6B6457E0 PUSH1 0x40 MLOAD PUSH1 0x40 MLOAD DUP1 SWAP2 SUB SWAP1 LOG3 POP POP JUMP JUMPDEST PUSH0 CALLER SWAP1 POP SWAP1 JUMP JUMPDEST PUSH0 PUSH1 0x40 MLOAD SWAP1 POP SWAP1 JUMP JUMPDEST PUSH0 DUP1 REVERT JUMPDEST PUSH0 DUP1 REVERT JUMPDEST PUSH0 DUP2 SWAP1 POP SWAP2 SWAP1 POP JUMP JUMPDEST PUSH2 0xD3B DUP2 PUSH2 0xD29 JUMP JUMPDEST DUP2 EQ PUSH2 0xD45 JUMPI PUSH0 DUP1 REVERT JUMPDEST POP JUMP JUMPDEST PUSH0 DUP2 CALLDATALOAD SWAP1 POP PUSH2 0xD56 DUP2 PUSH2 0xD32 JUMP JUMPDEST SWAP3 SWAP2 POP POP JUMP JUMPDEST PUSH0 PUSH1 0x20 DUP3 DUP5 SUB SLT ISZERO PUSH2 0xD71 JUMPI PUSH2 0xD70 PUSH2 0xD21 JUMP JUMPDEST JUMPDEST PUSH0 PUSH2 0xD7E DUP5 DUP3 DUP6 ADD PUSH2 0xD48 JUMP JUMPDEST SWAP2 POP POP SWAP3 SWAP2 POP POP JUMP JUMPDEST PUSH0 DUP2 ISZERO ISZERO SWAP1 POP SWAP2 SWAP1 POP JUMP JUMPDEST PUSH2 0xD9B DUP2 PUSH2 0xD87 JUMP JUMPDEST DUP3 MSTORE POP POP JUMP JUMPDEST PUSH0 PUSH1 0x20 DUP3 ADD SWAP1 POP PUSH2 0xDB4 PUSH0 DUP4 ADD DUP5 PUSH2 0xD92 JUMP JUMPDEST SWAP3 SWAP2 POP POP JUMP JUMPDEST PUSH0 DUP2 MLOAD SWAP1 POP SWAP2 SWAP1 POP JUMP JUMPDEST PUSH0 DUP3 DUP3 MSTORE PUSH1 0x20 DUP3 ADD SWAP1 POP SWAP3 SWAP2 POP POP JUMP JUMPDEST DUP3 DUP2 DUP4 MCOPY PUSH0 DUP4 DUP4 ADD MSTORE POP POP POP JUMP JUMPDEST PUSH0 PUSH1 0x1F NOT PUSH1 0x1F DUP4 ADD AND SWAP1 POP SWAP2 SWAP1 POP JUMP JUMPDEST PUSH0 PUSH2 0xDFC DUP3 PUSH2 0xDBA JUMP JUMPDEST PUSH2 0xE06 DUP2 DUP6 PUSH2 0xDC4 JUMP JUMPDEST SWAP4 POP PUSH2 0xE16 DUP2 DUP6 PUSH1 0x20 DUP7 ADD PUSH2 0xDD4 JUMP JUMPDEST PUSH2 0xE1F DUP2 PUSH2 0xDE2 JUMP JUMPDEST DUP5 ADD SWAP2 POP POP SWAP3 SWAP2 POP POP JUMP JUMPDEST PUSH2 0xE33 DUP2 PUSH2 0xD29 JUMP JUMPDEST DUP3 MSTORE POP POP JUMP JUMPDEST PUSH0 PUSH20 0xFFFFFFFFFFFFFFFFFFFFFFFFFFFFFFFFFFFFFFFF DUP3 AND SWAP1 POP SWAP2 SWAP1 POP JUMP JUMPDEST PUSH0 PUSH2 0xE62 DUP3 PUSH2 0xE39 JUMP JUMPDEST SWAP1 POP SWAP2 SWAP1 POP JUMP JUMPDEST PUSH2 0xE72 DUP2 PUSH2 0xE58 JUMP JUMPDEST DUP3 MSTORE POP POP JUMP JUMPDEST PUSH0 PUSH1 0xA0 DUP3 ADD SWAP1 POP DUP2 DUP2 SUB PUSH0 DUP4 ADD MSTORE PUSH2 0xE90 DUP2 DUP9 PUSH2 0xDF2 JUMP JUMPDEST SWAP1 POP PUSH2 0xE9F PUSH1 0x20 DUP4 ADD DUP8 PUSH2 0xE2A JUMP JUMPDEST PUSH2 0xEAC PUSH1 0x40 DUP4 ADD DUP7 PUSH2 0xD92 JUMP JUMPDEST PUSH2 0xEB9 PUSH1 0x60 DUP4 ADD DUP6 PUSH2 0xE69 JUMP JUMPDEST PUSH2 0xEC6 PUSH1 0x80 DUP4 ADD DUP5 PUSH2 0xD92 JUMP JUMPDEST SWAP7 SWAP6 POP POP POP POP POP POP JUMP JUMPDEST PUSH0 DUP1 REVERT JUMPDEST PUSH0 DUP1 REVERT JUMPDEST PUSH32 0x4E487B7100000000000000000000000000000000000000000000000000000000 PUSH0 MSTORE PUSH1 0x41 PUSH1 0x4 MSTORE PUSH1 0x24 PUSH0 REVERT JUMPDEST PUSH2 0xF0E DUP3 PUSH2 0xDE2 JUMP JUMPDEST DUP2 ADD DUP2 DUP2 LT PUSH8 0xFFFFFFFFFFFFFFFF DUP3 GT OR ISZERO PUSH2 0xF2D JUMPI PUSH2 0xF2C PUSH2 0xED8 JUMP JUMPDEST JUMPDEST DUP1 PUSH1 0x40 MSTORE POP POP POP JUMP JUMPDEST PUSH0 PUSH2 0xF3F PUSH2 0xD18 JUMP JUMPDEST SWAP1 POP PUSH2 0xF4B DUP3 DUP3 PUSH2 0xF05 JUMP JUMPDEST SWAP2 SWAP1 POP JUMP JUMPDEST PUSH0 PUSH8 0xFFFFFFFFFFFFFFFF DUP3 GT ISZERO PUSH2 0xF6A JUMPI PUSH2 0xF69 PUSH2 0xED8 JUMP JUMPDEST JUMPDEST PUSH2 0xF73 DUP3 PUSH2 0xDE2 JUMP JUMPDEST SWAP1 POP PUSH1 0x20 DUP2 ADD SWAP1 POP SWAP2 SWAP1 POP JUMP JUMPDEST DUP3 DUP2 DUP4 CALLDATACOPY PUSH0 DUP4 DUP4 ADD MSTORE POP POP POP JUMP JUMPDEST PUSH0 PUSH2 0xFA0 PUSH2 0xF9B DUP5 PUSH2 0xF50 JUMP JUMPDEST PUSH2 0xF36 JUMP JUMPDEST SWAP1 POP DUP3 DUP2 MSTORE PUSH1 0x20 DUP2 ADD DUP5 DUP5 DUP5 ADD GT ISZERO PUSH2 0xFBC JUMPI PUSH2 0xFBB PUSH2 0xED4 JUMP JUMPDEST JUMPDEST PUSH2 0xFC7 DUP5 DUP3 DUP6 PUSH2 0xF80 JUMP JUMPDEST POP SWAP4 SWAP3 POP POP POP JUMP JUMPDEST PUSH0 DUP3 PUSH1 0x1F DUP4 ADD SLT PUSH2 0xFE3 JUMPI PUSH2 0xFE2 PUSH2 0xED0 JUMP JUMPDEST JUMPDEST DUP2 CALLDATALOAD PUSH2 0xFF3 DUP5 DUP3 PUSH1 0x20 DUP7 ADD PUSH2 0xF8E JUMP JUMPDEST SWAP2 POP POP SWAP3 SWAP2 POP POP JUMP JUMPDEST PUSH2 0x1005 DUP2 PUSH2 0xE58 JUMP JUMPDEST DUP2 EQ PUSH2 0x100F JUMPI PUSH0 DUP1 REVERT JUMPDEST POP JUMP JUMPDEST PUSH0 DUP2 CALLDATALOAD SWAP1 POP PUSH2 0x1020 DUP2 PUSH2 0xFFC JUMP JUMPDEST SWAP3 SWAP2 POP POP JUMP JUMPDEST PUSH2 0x102F DUP2 PUSH2 0xD87 JUMP JUMPDEST DUP2 EQ PUSH2 0x1039 JUMPI PUSH0 DUP1 REVERT JUMPDEST POP JUMP JUMPDEST PUSH0 DUP2 CALLDATALOAD SWAP1 POP PUSH2 0x104A DUP2 PUSH2 0x1026 JUMP JUMPDEST SWAP3 SWAP2 POP POP JUMP JUMPDEST PUSH0 DUP1 PUSH0 DUP1 PUSH0 PUSH1 0xA0 DUP7 DUP9 SUB SLT ISZERO PUSH2 0x1069 JUMPI PUSH2 0x1068 PUSH2 0xD21 JUMP JUMPDEST JUMPDEST PUSH0 PUSH2 0x1076 DUP9 DUP3 DUP10 ADD PUSH2 0xD48 JUMP JUMPDEST SWAP6 POP POP PUSH1 0x20 DUP7 ADD CALLDATALOAD PUSH8 0xFFFFFFFFFFFFFFFF DUP2 GT ISZERO PUSH2 0x1097 JUMPI PUSH2 0x1096 PUSH2 0xD25 JUMP JUMPDEST JUMPDEST PUSH2 0x10A3 DUP9 DUP3 DUP10 ADD PUSH2 0xFCF JUMP JUMPDEST SWAP5 POP POP PUSH1 0x40 PUSH2 0x10B4 DUP9 DUP3 DUP10 ADD PUSH2 0xD48 JUMP JUMPDEST SWAP4 POP POP PUSH1 0x60 PUSH2 0x10C5 DUP9 DUP3 DUP10 ADD PUSH2 0x1012 JUMP JUMPDEST SWAP3 POP POP PUSH1 0x80 PUSH2 0x10D6 DUP9 DUP3 DUP10 ADD PUSH2 0x103C JUMP JUMPDEST SWAP2 POP POP SWAP3 SWAP6 POP SWAP3 SWAP6 SWAP1 SWAP4 POP JUMP JUMPDEST PUSH0 PUSH1 0x20 DUP3 DUP5 SUB SLT ISZERO PUSH2 0x10F8 JUMPI PUSH2 0x10F7 PUSH2 0xD21 JUMP JUMPDEST JUMPDEST PUSH0 PUSH2 0x1105 DUP5 DUP3 DUP6 ADD PUSH2 0x1012 JUMP JUMPDEST SWAP2 POP POP SWAP3 SWAP2 POP POP JUMP JUMPDEST PUSH0 PUSH1 0x20 DUP3 ADD SWAP1 POP PUSH2 0x1121 PUSH0 DUP4 ADD DUP5 PUSH2 0xE69 JUMP JUMPDEST SWAP3 SWAP2 POP POP JUMP JUMPDEST PUSH0 DUP1 PUSH1 0x40 DUP4 DUP6 SUB SLT ISZERO PUSH2 0x113D JUMPI PUSH2 0x113C PUSH2 0xD21 JUMP JUMPDEST JUMPDEST PUSH0 PUSH2 0x114A DUP6 DUP3 DUP7 ADD PUSH2 0xD48 JUMP JUMPDEST SWAP3 POP POP PUSH1 0x20 PUSH2 0x115B DUP6 DUP3 DUP7 ADD PUSH2 0xD48 JUMP JUMPDEST SWAP2 POP POP SWAP3 POP SWAP3 SWAP1 POP JUMP JUMPDEST PUSH0 PUSH1 0x20 DUP3 DUP5 SUB SLT ISZERO PUSH2 0x117A JUMPI PUSH2 0x1179 PUSH2 0xD21 JUMP JUMPDEST JUMPDEST PUSH0 DUP3 ADD CALLDATALOAD PUSH8 0xFFFFFFFFFFFFFFFF DUP2 GT ISZERO PUSH2 0x1197 JUMPI PUSH2 0x1196 PUSH2 0xD25 JUMP JUMPDEST JUMPDEST PUSH2 0x11A3 DUP5 DUP3 DUP6 ADD PUSH2 0xFCF JUMP JUMPDEST SWAP2 POP POP SWAP3 SWAP2 POP POP JUMP JUMPDEST PUSH32 0x4E487B7100000000000000000000000000000000000000000000000000000000 PUSH0 MSTORE PUSH1 0x22 PUSH1 0x4 MSTORE PUSH1 0x24 PUSH0 REVERT JUMPDEST PUSH0 PUSH1 0x2 DUP3 DIV SWAP1 POP PUSH1 0x1 DUP3 AND DUP1 PUSH2 0x11F0 JUMPI PUSH1 0x7F DUP3 AND SWAP2 POP JUMPDEST PUSH1 0x20 DUP3 LT DUP2 SUB PUSH2 0x1203 JUMPI PUSH2 0x1202 PUSH2 0x11AC JUMP JUMPDEST JUMPDEST POP SWAP2 SWAP1 POP JUMP JUMPDEST PUSH0 DUP2 SWAP1 POP SWAP3 SWAP2 POP POP JUMP JUMPDEST PUSH0 PUSH2 0x121D DUP3 PUSH2 0xDBA JUMP JUMPDEST PUSH2 0x1227 DUP2 DUP6 PUSH2 0x1209 JUMP JUMPDEST SWAP4 POP PUSH2 0x1237 DUP2 DUP6 PUSH1 0x20 DUP7 ADD PUSH2 0xDD4 JUMP JUMPDEST DUP1 DUP5 ADD SWAP2 POP POP SWAP3 SWAP2 POP POP JUMP JUMPDEST PUSH0 PUSH2 0x124E DUP3 DUP5 PUSH2 0x1213 JUMP JUMPDEST SWAP2 POP DUP2 SWAP1 POP SWAP3 SWAP2 POP POP JUMP JUMPDEST PUSH32 0x50726F706572747920616C726561647920726567697374657265640000000000 PUSH0 DUP3 ADD MSTORE POP JUMP JUMPDEST PUSH0 PUSH2 0x128D PUSH1 0x1B DUP4 PUSH2 0xDC4 JUMP JUMPDEST SWAP2 POP PUSH2 0x1298 DUP3 PUSH2 0x1259 JUMP JUMPDEST PUSH1 0x20 DUP3 ADD SWAP1 POP SWAP2 SWAP1 POP JUMP JUMPDEST PUSH0 PUSH1 0x20 DUP3 ADD SWAP1 POP DUP2 DUP2 SUB PUSH0 DUP4 ADD MSTORE PUSH2 0x12BA DUP2 PUSH2 0x1281 JUMP JUMPDEST SWAP1 POP SWAP2 SWAP1 POP JUMP JUMPDEST PUSH0 DUP2 SWAP1 POP DUP2 PUSH0 MSTORE PUSH1 0x20 PUSH0 KECCAK256 SWAP1 POP SWAP2 SWAP1 POP JUMP JUMPDEST PUSH0 PUSH1 0x20 PUSH1 0x1F DUP4 ADD DIV SWAP1 POP SWAP2 SWAP1 POP JUMP JUMPDEST PUSH0 DUP3 DUP3 SHL SWAP1 POP SWAP3 SWAP2 POP POP JUMP JUMPDEST PUSH0 PUSH1 0x8 DUP4 MUL PUSH2 0x131D PUSH32 0xFFFFFFFFFFFFFFFFFFFFFFFFFFFFFFFFFFFFFFFFFFFFFFFFFFFFFFFFFFFFFFFF DUP3 PUSH2 0x12E2 JUMP JUMPDEST PUSH2 0x1327 DUP7 DUP4 PUSH2 0x12E2 JUMP JUMPDEST SWAP6 POP DUP1 NOT DUP5 AND SWAP4 POP DUP1 DUP7 AND DUP5 OR SWAP3 POP POP POP SWAP4 SWAP3 POP POP POP JUMP JUMPDEST PUSH0 DUP2 SWAP1 POP SWAP2 SWAP1 POP JUMP JUMPDEST PUSH0 PUSH2 0x1362 PUSH2 0x135D PUSH2 0x1358 DUP5 PUSH2 0xD29 JUMP JUMPDEST PUSH2 0x133F JUMP JUMPDEST PUSH2 0xD29 JUMP JUMPDEST SWAP1 POP SWAP2 SWAP1 POP JUMP JUMPDEST PUSH0 DUP2 SWAP1 POP SWAP2 SWAP1 POP JUMP JUMPDEST PUSH2 0x137B DUP4 PUSH2 0x1348 JUMP JUMPDEST PUSH2 0x138F PUSH2 0x1387 DUP3 PUSH2 0x1369 JUMP JUMPDEST DUP5 DUP5 SLOAD PUSH2 0x12EE JUMP JUMPDEST DUP3 SSTORE POP POP POP POP JUMP JUMPDEST PUSH0 SWAP1 JUMP JUMPDEST PUSH2 0x13A3 PUSH2 0x1397 JUMP JUMPDEST PUSH2 0x13AE DUP2 DUP5 DUP5 PUSH2 0x1372 JUMP JUMPDEST POP POP POP JUMP JUMPDEST JUMPDEST DUP2 DUP2 LT ISZERO PUSH2 0x13D1 JUMPI PUSH2 0x13C6 PUSH0 DUP3 PUSH2 0x139B JUMP JUMPDEST PUSH1 0x1 DUP2 ADD SWAP1 POP PUSH2 0x13B4 JUMP JUMPDEST POP POP JUMP JUMPDEST PUSH1 0x1F DUP3 GT ISZERO PUSH2 0x1416 JUMPI PUSH2 0x13E7 DUP2 PUSH2 0x12C1 JUMP JUMPDEST PUSH2 0x13F0 DUP5 PUSH2 0x12D3 JUMP JUMPDEST DUP2 ADD PUSH1 0x20 DUP6 LT ISZERO PUSH2 0x13FF JUMPI DUP2 SWAP1 POP JUMPDEST PUSH2 0x1413 PUSH2 0x140B DUP6 PUSH2 0x12D3 JUMP JUMPDEST DUP4 ADD DUP3 PUSH2 0x13B3 JUMP JUMPDEST POP POP JUMPDEST POP POP POP JUMP JUMPDEST PUSH0 DUP3 DUP3 SHR SWAP1 POP SWAP3 SWAP2 POP POP JUMP JUMPDEST PUSH0 PUSH2 0x1436 PUSH0 NOT DUP5 PUSH1 0x8 MUL PUSH2 0x141B JUMP JUMPDEST NOT DUP1 DUP4 AND SWAP2 POP POP SWAP3 SWAP2 POP POP JUMP JUMPDEST PUSH0 PUSH2 0x144E DUP4 DUP4 PUSH2 0x1427 JUMP JUMPDEST SWAP2 POP DUP3 PUSH1 0x2 MUL DUP3 OR SWAP1 POP SWAP3 SWAP2 POP POP JUMP JUMPDEST PUSH2 0x1467 DUP3 PUSH2 0xDBA JUMP JUMPDEST PUSH8 0xFFFFFFFFFFFFFFFF DUP2 GT ISZERO PUSH2 0x1480 JUMPI PUSH2 0x147F PUSH2 0xED8 JUMP JUMPDEST JUMPDEST PUSH2 0x148A DUP3 SLOAD PUSH2 0x11D9 JUMP JUMPDEST PUSH2 0x1495 DUP3 DUP3 DUP6 PUSH2 0x13D5 JUMP JUMPDEST PUSH0 PUSH1 0x20 SWAP1 POP PUSH1 0x1F DUP4 GT PUSH1 0x1 DUP2 EQ PUSH2 0x14C6 JUMPI PUSH0 DUP5 ISZERO PUSH2 0x14B4 JUMPI DUP3 DUP8 ADD MLOAD SWAP1 POP JUMPDEST PUSH2 0x14BE DUP6 DUP3 PUSH2 0x1443 JUMP JUMPDEST DUP7 SSTORE POP PUSH2 0x1525 JUMP JUMPDEST PUSH1 0x1F NOT DUP5 AND PUSH2 0x14D4 DUP7 PUSH2 0x12C1 JUMP JUMPDEST PUSH0 JUMPDEST DUP3 DUP2 LT ISZERO PUSH2 0x14FB JUMPI DUP5 DUP10 ADD MLOAD DUP3 SSTORE PUSH1 0x1 DUP3 ADD SWAP2 POP PUSH1 0x20 DUP6 ADD SWAP5 POP PUSH1 0x20 DUP2 ADD SWAP1 POP PUSH2 0x14D6 JUMP JUMPDEST DUP7 DUP4 LT ISZERO PUSH2 0x1518 JUMPI DUP5 DUP10 ADD MLOAD PUSH2 0x1514 PUSH1 0x1F DUP10 AND DUP3 PUSH2 0x1427 JUMP JUMPDEST DUP4 SSTORE POP JUMPDEST PUSH1 0x1 PUSH1 0x2 DUP9 MUL ADD DUP9 SSTORE POP POP POP JUMPDEST POP POP POP POP POP POP JUMP JUMPDEST PUSH0 PUSH1 0x80 DUP3 ADD SWAP1 POP DUP2 DUP2 SUB PUSH0 DUP4 ADD MSTORE PUSH2 0x1545 DUP2 DUP8 PUSH2 0xDF2 JUMP JUMPDEST SWAP1 POP PUSH2 0x1554 PUSH1 0x20 DUP4 ADD DUP7 PUSH2 0xE2A JUMP JUMPDEST PUSH2 0x1561 PUSH1 0x40 DUP4 ADD DUP6 PUSH2 0xE69 JUMP JUMPDEST PUSH2 0x156E PUSH1 0x60 DUP4 ADD DUP5 PUSH2 0xD92 JUMP JUMPDEST SWAP6 SWAP5 POP POP POP POP POP JUMP JUMPDEST PUSH32 0x50726F706572747920646F6573206E6F74206578697374000000000000000000 PUSH0 DUP3 ADD MSTORE POP JUMP JUMPDEST PUSH0 PUSH2 0x15AB PUSH1 0x17 DUP4 PUSH2 0xDC4 JUMP JUMPDEST SWAP2 POP PUSH2 0x15B6 DUP3 PUSH2 0x1577 JUMP JUMPDEST PUSH1 0x20 DUP3 ADD SWAP1 POP SWAP2 SWAP1 POP JUMP JUMPDEST PUSH0 PUSH1 0x20 DUP3 ADD SWAP1 POP DUP2 DUP2 SUB PUSH0 DUP4 ADD MSTORE PUSH2 0x15D8 DUP2 PUSH2 0x159F JUMP JUMPDEST SWAP1 POP SWAP2 SWAP1 POP JUMP JUMPDEST PUSH32 0x50726F7065727479206E6F742076657269666965640000000000000000000000 PUSH0 DUP3 ADD MSTORE POP JUMP JUMPDEST PUSH0 PUSH2 0x1613 PUSH1 0x15 DUP4 PUSH2 0xDC4 JUMP JUMPDEST SWAP2 POP PUSH2 0x161E DUP3 PUSH2 0x15DF JUMP JUMPDEST PUSH1 0x20 DUP3 ADD SWAP1 POP SWAP2 SWAP1 POP JUMP JUMPDEST PUSH0 PUSH1 0x20 DUP3 ADD SWAP1 POP DUP2 DUP2 SUB PUSH0 DUP4 ADD MSTORE PUSH2 0x1640 DUP2 PUSH2 0x1607 JUMP JUMPDEST SWAP1 POP SWAP2 SWAP1 POP JUMP JUMPDEST PUSH0 PUSH1 0x20 DUP3 ADD SWAP1 POP PUSH2 0x165A PUSH0 DUP4 ADD DUP5 PUSH2 0xE2A JUMP JUMPDEST SWAP3 SWAP2 POP POP JUMP JUMPDEST PUSH0 PUSH1 0x40 DUP3 ADD SWAP1 POP PUSH2 0x1673 PUSH0 DUP4 ADD DUP6 PUSH2 0xE2A JUMP JUMPDEST PUSH2 0x1680 PUSH1 0x20 DUP4 ADD DUP5 PUSH2 0xE2A JUMP JUMPDEST SWAP4 SWAP3 POP POP POP JUMP INVALID LOG2 PUSH5 0x6970667358 0x22 SLT KECCAK256 SWAP14 0xDB PUSH26 0xD16C34CE3652D2CE74C193C3B539D69A7EBA38B1A85A861DE8D7 TIMESTAMP BLOBBASEFEE CREATE2 PUSH5 0x736F6C6343 STOP ADDMOD BYTE STOP CALLER "
		},
		"gasEstimates": {
			"creation": {
				"codeDepositCost": "1164200",
				"executionCost": "infinite",
				"totalCost": "infinite"
			},
			"external": {
				"getProperty(uint256)": "infinite",
				"isPropertyVerified(uint256)": "2817",
				"isUserVerified(address)": "2892",
				"owner()": "2538",
				"properties(uint256)": "infinite",
				"registerProperty(uint256,string,uint256,address,bool)": "infinite",
				"registeredLocations(string)": "infinite",
				"renounceOwnership()": "infinite",
				"transferOwnership(address)": "infinite",
				"updatePropertyValue(uint256,uint256)": "infinite",
				"verifiedUsers(address)": "2877",
				"verifyProperty(uint256)": "infinite",
				"verifyUser(address)": "infinite"
			}
		},
		"methodIdentifiers": {
			"getProperty(uint256)": "32665ffb",
			"isPropertyVerified(uint256)": "07192622",
			"isUserVerified(address)": "ace417e0",
			"owner()": "8da5cb5b",
			"properties(uint256)": "f7b10808",
			"registerProperty(uint256,string,uint256,address,bool)": "3e819558",
			"registeredLocations(string)": "a4803061",
			"renounceOwnership()": "715018a6",
			"transferOwnership(address)": "f2fde38b",
			"updatePropertyValue(uint256,uint256)": "9b7c4b4b",
			"verifiedUsers(address)": "e35fe366",
			"verifyProperty(uint256)": "4212a8ae",
			"verifyUser(address)": "4d813120"
		}
	},
	"abi": [
		{
			"inputs": [
				{
					"internalType": "address",
					"name": "initialOwner",
					"type": "address"
				}
			],
			"stateMutability": "nonpayable",
			"type": "constructor"
		},
		{
			"inputs": [
				{
					"internalType": "address",
					"name": "owner",
					"type": "address"
				}
			],
			"name": "OwnableInvalidOwner",
			"type": "error"
		},
		{
			"inputs": [
				{
					"internalType": "address",
					"name": "account",
					"type": "address"
				}
			],
			"name": "OwnableUnauthorizedAccount",
			"type": "error"
		},
		{
			"anonymous": false,
			"inputs": [
				{
					"indexed": true,
					"internalType": "address",
					"name": "previousOwner",
					"type": "address"
				},
				{
					"indexed": true,
					"internalType": "address",
					"name": "newOwner",
					"type": "address"
				}
			],
			"name": "OwnershipTransferred",
			"type": "event"
		},
		{
			"anonymous": false,
			"inputs": [
				{
					"indexed": true,
					"internalType": "uint256",
					"name": "propertyId",
					"type": "uint256"
				},
				{
					"indexed": false,
					"internalType": "string",
					"name": "location",
					"type": "string"
				},
				{
					"indexed": false,
					"internalType": "uint256",
					"name": "value",
					"type": "uint256"
				},
				{
					"indexed": false,
					"internalType": "address",
					"name": "tokenAddress",
					"type": "address"
				},
				{
					"indexed": false,
					"internalType": "bool",
					"name": "isERC20",
					"type": "bool"
				}
			],
			"name": "PropertyRegistered",
			"type": "event"
		},
		{
			"anonymous": false,
			"inputs": [
				{
					"indexed": true,
					"internalType": "uint256",
					"name": "propertyId",
					"type": "uint256"
				}
			],
			"name": "PropertyVerified",
			"type": "event"
		},
		{
			"anonymous": false,
			"inputs": [
				{
					"indexed": true,
					"internalType": "address",
					"name": "user",
					"type": "address"
				}
			],
			"name": "UserVerified",
			"type": "event"
		},
		{
			"inputs": [
				{
					"internalType": "uint256",
					"name": "propertyId",
					"type": "uint256"
				}
			],
			"name": "getProperty",
			"outputs": [
				{
					"internalType": "string",
					"name": "location",
					"type": "string"
				},
				{
					"internalType": "uint256",
					"name": "value",
					"type": "uint256"
				},
				{
					"internalType": "bool",
					"name": "isVerified",
					"type": "bool"
				},
				{
					"internalType": "address",
					"name": "tokenAddress",
					"type": "address"
				},
				{
					"internalType": "bool",
					"name": "isERC20",
					"type": "bool"
				}
			],
			"stateMutability": "view",
			"type": "function"
		},
		{
			"inputs": [
				{
					"internalType": "uint256",
					"name": "propertyId",
					"type": "uint256"
				}
			],
			"name": "isPropertyVerified",
			"outputs": [
				{
					"internalType": "bool",
					"name": "",
					"type": "bool"
				}
			],
			"stateMutability": "view",
			"type": "function"
		},
		{
			"inputs": [
				{
					"internalType": "address",
					"name": "user",
					"type": "address"
				}
			],
			"name": "isUserVerified",
			"outputs": [
				{
					"internalType": "bool",
					"name": "",
					"type": "bool"
				}
			],
			"stateMutability": "view",
			"type": "function"
		},
		{
			"inputs": [],
			"name": "owner",
			"outputs": [
				{
					"internalType": "address",
					"name": "",
					"type": "address"
				}
			],
			"stateMutability": "view",
			"type": "function"
		},
		{
			"inputs": [
				{
					"internalType": "uint256",
					"name": "",
					"type": "uint256"
				}
			],
			"name": "properties",
			"outputs": [
				{
					"internalType": "string",
					"name": "location",
					"type": "string"
				},
				{
					"internalType": "uint256",
					"name": "value",
					"type": "uint256"
				},
				{
					"internalType": "bool",
					"name": "isVerified",
					"type": "bool"
				},
				{
					"internalType": "address",
					"name": "tokenAddress",
					"type": "address"
				},
				{
					"internalType": "bool",
					"name": "isERC20",
					"type": "bool"
				}
			],
			"stateMutability": "view",
			"type": "function"
		},
		{
			"inputs": [
				{
					"internalType": "uint256",
					"name": "propertyId",
					"type": "uint256"
				},
				{
					"internalType": "string",
					"name": "location",
					"type": "string"
				},
				{
					"internalType": "uint256",
					"name": "value",
					"type": "uint256"
				},
				{
					"internalType": "address",
					"name": "tokenAddress",
					"type": "address"
				},
				{
					"internalType": "bool",
					"name": "isERC20",
					"type": "bool"
				}
			],
			"name": "registerProperty",
			"outputs": [],
			"stateMutability": "nonpayable",
			"type": "function"
		},
		{
			"inputs": [
				{
					"internalType": "string",
					"name": "",
					"type": "string"
				}
			],
			"name": "registeredLocations",
			"outputs": [
				{
					"internalType": "bool",
					"name": "",
					"type": "bool"
				}
			],
			"stateMutability": "view",
			"type": "function"
		},
		{
			"inputs": [],
			"name": "renounceOwnership",
			"outputs": [],
			"stateMutability": "nonpayable",
			"type": "function"
		},
		{
			"inputs": [
				{
					"internalType": "address",
					"name": "newOwner",
					"type": "address"
				}
			],
			"name": "transferOwnership",
			"outputs": [],
			"stateMutability": "nonpayable",
			"type": "function"
		},
		{
			"inputs": [
				{
					"internalType": "uint256",
					"name": "propertyId",
					"type": "uint256"
				},
				{
					"internalType": "uint256",
					"name": "newValue",
					"type": "uint256"
				}
			],
			"name": "updatePropertyValue",
			"outputs": [],
			"stateMutability": "nonpayable",
			"type": "function"
		},
		{
			"inputs": [
				{
					"internalType": "address",
					"name": "",
					"type": "address"
				}
			],
			"name": "verifiedUsers",
			"outputs": [
				{
					"internalType": "bool",
					"name": "",
					"type": "bool"
				}
			],
			"stateMutability": "view",
			"type": "function"
		},
		{
			"inputs": [
				{
					"internalType": "uint256",
					"name": "propertyId",
					"type": "uint256"
				}
			],
			"name": "verifyProperty",
			"outputs": [],
			"stateMutability": "nonpayable",
			"type": "function"
		},
		{
			"inputs": [
				{
					"internalType": "address",
					"name": "user",
					"type": "address"
				}
			],
			"name": "verifyUser",
			"outputs": [],
			"stateMutability": "nonpayable",
			"type": "function"
		}
	]
}