{
	"Contract/FinancialManager.sol": {
		"FinancialManager": {
			"abi": [
				{
					"inputs": [],
					"stateMutability": "nonpayable",
					"type": "constructor"
				},
				{
					"inputs": [
						{
							"internalType": "address",
							"name": "owner",
							"type": "address"
						}
					],
					"name": "OwnableInvalidOwner",
					"type": "error"
				},
				{
					"inputs": [
						{
							"internalType": "address",
							"name": "account",
							"type": "address"
						}
					],
					"name": "OwnableUnauthorizedAccount",
					"type": "error"
				},
				{
					"anonymous": false,
					"inputs": [
						{
							"indexed": true,
							"internalType": "uint256",
							"name": "propertyId",
							"type": "uint256"
						},
						{
							"indexed": false,
							"internalType": "uint256",
							"name": "amount",
							"type": "uint256"
						},
						{
							"indexed": false,
							"internalType": "string",
							"name": "description",
							"type": "string"
						}
					],
					"name": "ExpenseRecorded",
					"type": "event"
				},
				{
					"anonymous": false,
					"inputs": [
						{
							"indexed": true,
							"internalType": "address",
							"name": "previousOwner",
							"type": "address"
						},
						{
							"indexed": true,
							"internalType": "address",
							"name": "newOwner",
							"type": "address"
						}
					],
					"name": "OwnershipTransferred",
					"type": "event"
				},
				{
					"anonymous": false,
					"inputs": [
						{
							"indexed": true,
							"internalType": "uint256",
							"name": "propertyId",
							"type": "uint256"
						},
						{
							"indexed": false,
							"internalType": "uint256",
							"name": "totalAmount",
							"type": "uint256"
						}
					],
					"name": "RentalIncomeDistributed",
					"type": "event"
				},
				{
					"anonymous": false,
					"inputs": [
						{
							"indexed": true,
							"internalType": "uint256",
							"name": "propertyId",
							"type": "uint256"
						},
						{
							"indexed": false,
							"internalType": "uint256",
							"name": "totalRentalIncome",
							"type": "uint256"
						}
					],
					"name": "RentalIncomeUpdated",
					"type": "event"
				},
				{
					"anonymous": false,
					"inputs": [
						{
							"indexed": true,
							"internalType": "uint256",
							"name": "propertyId",
							"type": "uint256"
						},
						{
							"indexed": false,
							"internalType": "uint256",
							"name": "newValuation",
							"type": "uint256"
						}
					],
					"name": "ValuationUpdated",
					"type": "event"
				},
				{
					"inputs": [
						{
							"internalType": "address",
							"name": "account",
							"type": "address"
						},
						{
							"internalType": "uint256",
							"name": "id",
							"type": "uint256"
						}
					],
					"name": "balanceOf",
					"outputs": [
						{
							"internalType": "uint256",
							"name": "",
							"type": "uint256"
						}
					],
					"stateMutability": "view",
					"type": "function"
				},
				{
					"inputs": [
						{
							"internalType": "uint256",
							"name": "propertyId",
							"type": "uint256"
						},
						{
							"internalType": "address",
							"name": "user",
							"type": "address"
						}
					],
					"name": "claimRentalIncome",
					"outputs": [
						{
							"internalType": "uint256",
							"name": "",
							"type": "uint256"
						}
					],
					"stateMutability": "nonpayable",
					"type": "function"
				},
				{
					"inputs": [
						{
							"internalType": "uint256",
							"name": "propertyId",
							"type": "uint256"
						}
					],
					"name": "distributeRentalIncome",
					"outputs": [],
					"stateMutability": "nonpayable",
					"type": "function"
				},
				{
					"inputs": [
						{
							"internalType": "uint256",
							"name": "propertyId",
							"type": "uint256"
						}
					],
					"name": "getFinancialReport",
					"outputs": [
						{
							"internalType": "uint256",
							"name": "totalRentalIncome",
							"type": "uint256"
						},
						{
							"internalType": "uint256",
							"name": "totalExpenses",
							"type": "uint256"
						},
						{
							"internalType": "uint256",
							"name": "netIncome",
							"type": "uint256"
						},
						{
							"internalType": "uint256",
							"name": "currentValuation",
							"type": "uint256"
						}
					],
					"stateMutability": "view",
					"type": "function"
				},
				{
					"inputs": [
						{
							"internalType": "uint256",
							"name": "propertyId",
							"type": "uint256"
						},
						{
							"internalType": "address",
							"name": "user",
							"type": "address"
						}
					],
					"name": "getUnclaimedRentalIncome",
					"outputs": [
						{
							"internalType": "uint256",
							"name": "",
							"type": "uint256"
						}
					],
					"stateMutability": "view",
					"type": "function"
				},
				{
					"inputs": [
						{
							"internalType": "uint256",
							"name": "propertyId",
							"type": "uint256"
						},
						{
							"internalType": "uint256",
							"name": "totalShares",
							"type": "uint256"
						},
						{
							"internalType": "uint256",
							"name": "initialValuation",
							"type": "uint256"
						}
					],
					"name": "initializePropertyFinancials",
					"outputs": [],
					"stateMutability": "nonpayable",
					"type": "function"
				},
				{
					"inputs": [],
					"name": "owner",
					"outputs": [
						{
							"internalType": "address",
							"name": "",
							"type": "address"
						}
					],
					"stateMutability": "view",
					"type": "function"
				},
				{
					"inputs": [
						{
							"internalType": "uint256",
							"name": "propertyId",
							"type": "uint256"
						},
						{
							"internalType": "uint256",
							"name": "amount",
							"type": "uint256"
						},
						{
							"internalType": "string",
							"name": "description",
							"type": "string"
						}
					],
					"name": "recordExpense",
					"outputs": [],
					"stateMutability": "nonpayable",
					"type": "function"
				},
				{
					"inputs": [],
					"name": "renounceOwnership",
					"outputs": [],
					"stateMutability": "nonpayable",
					"type": "function"
				},
				{
					"inputs": [
						{
							"internalType": "address",
							"name": "newOwner",
							"type": "address"
						}
					],
					"name": "transferOwnership",
					"outputs": [],
					"stateMutability": "nonpayable",
					"type": "function"
				},
				{
					"inputs": [
						{
							"internalType": "uint256",
							"name": "propertyId",
							"type": "uint256"
						},
						{
							"internalType": "uint256",
							"name": "newValuation",
							"type": "uint256"
						}
					],
					"name": "updateCurrentValuation",
					"outputs": [],
					"stateMutability": "nonpayable",
					"type": "function"
				},
				{
					"inputs": [
						{
							"internalType": "uint256",
							"name": "propertyId",
							"type": "uint256"
						},
						{
							"internalType": "uint256",
							"name": "newRentalIncome",
							"type": "uint256"
						}
					],
					"name": "updateRentalIncome",
					"outputs": [],
					"stateMutability": "nonpayable",
					"type": "function"
				},
				{
					"inputs": [
						{
							"internalType": "uint256",
							"name": "propertyId",
							"type": "uint256"
						},
						{
							"internalType": "address",
							"name": "account",
							"type": "address"
						},
						{
							"internalType": "uint256",
							"name": "amount",
							"type": "uint256"
						},
						{
							"internalType": "bool",
							"name": "isIncrease",
							"type": "bool"
						}
					],
					"name": "updateTokenBalance",
					"outputs": [],
					"stateMutability": "nonpayable",
					"type": "function"
				},
				{
					"inputs": [
						{
							"internalType": "uint256",
							"name": "propertyId",
							"type": "uint256"
						},
						{
							"internalType": "address",
							"name": "user",
							"type": "address"
						},
						{
							"internalType": "uint256",
							"name": "amount",
							"type": "uint256"
						}
					],
					"name": "updateUnclaimedRentalIncome",
					"outputs": [],
					"stateMutability": "nonpayable",
					"type": "function"
				}
			],
			"devdoc": {
				"errors": {
					"OwnableInvalidOwner(address)": [
						{
							"details": "The owner is not a valid owner account. (eg. `address(0)`)"
						}
					],
					"OwnableUnauthorizedAccount(address)": [
						{
							"details": "The caller account is not authorized to perform an operation."
						}
					]
				},
				"kind": "dev",
				"methods": {
					"owner()": {
						"details": "Returns the address of the current owner."
					},
					"renounceOwnership()": {
						"details": "Leaves the contract without owner. It will not be possible to call `onlyOwner` functions. Can only be called by the current owner. NOTE: Renouncing ownership will leave the contract without an owner, thereby disabling any functionality that is only available to the owner."
					},
					"transferOwnership(address)": {
						"details": "Transfers ownership of the contract to a new account (`newOwner`). Can only be called by the current owner."
					}
				},
				"version": 1
			},
			"evm": {
				"assembly": "    /* \"Contract/FinancialManager.sol\":176:6735  contract FinancialManager is Ownable {... */\n  mstore(0x40, 0x80)\n    /* \"Contract/FinancialManager.sol\":1251:1287  constructor() Ownable(msg.sender) {} */\n  callvalue\n  dup1\n  iszero\n  tag_1\n  jumpi\n  revert(0x00, 0x00)\ntag_1:\n  pop\n    /* \"Contract/FinancialManager.sol\":1273:1283  msg.sender */\n  caller\n    /* \"@openzeppelin/contracts/access/Ownable.sol\":1297:1298  0 */\n  0x00\n    /* \"@openzeppelin/contracts/access/Ownable.sol\":1273:1299  initialOwner == address(0) */\n  0xffffffffffffffffffffffffffffffffffffffff\n  and\n    /* \"@openzeppelin/contracts/access/Ownable.sol\":1273:1285  initialOwner */\n  dup2\n    /* \"@openzeppelin/contracts/access/Ownable.sol\":1273:1299  initialOwner == address(0) */\n  0xffffffffffffffffffffffffffffffffffffffff\n  and\n  sub\n    /* \"@openzeppelin/contracts/access/Ownable.sol\":1269:1364  if (initialOwner == address(0)) {... */\n  tag_5\n  jumpi\n    /* \"@openzeppelin/contracts/access/Ownable.sol\":1350:1351  0 */\n  0x00\n    /* \"@openzeppelin/contracts/access/Ownable.sol\":1322:1353  OwnableInvalidOwner(address(0)) */\n  mload(0x40)\n  0x1e4fbdf700000000000000000000000000000000000000000000000000000000\n  dup2\n  mstore\n  0x04\n  add\n  tag_6\n  swap2\n  swap1\n  tag_7\n  jump\t// in\ntag_6:\n  mload(0x40)\n  dup1\n  swap2\n  sub\n  swap1\n  revert\n    /* \"@openzeppelin/contracts/access/Ownable.sol\":1269:1364  if (initialOwner == address(0)) {... */\ntag_5:\n    /* \"@openzeppelin/contracts/access/Ownable.sol\":1373:1405  _transferOwnership(initialOwner) */\n  tag_8\n    /* \"@openzeppelin/contracts/access/Ownable.sol\":1392:1404  initialOwner */\n  dup2\n    /* \"@openzeppelin/contracts/access/Ownable.sol\":1373:1391  _transferOwnership */\n  shl(0x20, tag_9)\n    /* \"@openzeppelin/contracts/access/Ownable.sol\":1373:1405  _transferOwnership(initialOwner) */\n  0x20\n  shr\n  jump\t// in\ntag_8:\n    /* \"@openzeppelin/contracts/access/Ownable.sol\":1225:1412  constructor(address initialOwner) {... */\n  pop\n    /* \"Contract/FinancialManager.sol\":176:6735  contract FinancialManager is Ownable {... */\n  jump(tag_11)\n    /* \"@openzeppelin/contracts/access/Ownable.sol\":2912:3099  function _transferOwnership(address newOwner) internal virtual {... */\ntag_9:\n    /* \"@openzeppelin/contracts/access/Ownable.sol\":2985:3001  address oldOwner */\n  0x00\n    /* \"@openzeppelin/contracts/access/Ownable.sol\":3004:3010  _owner */\n  0x00\n  0x00\n  swap1\n  sload\n  swap1\n  0x0100\n  exp\n  swap1\n  div\n  0xffffffffffffffffffffffffffffffffffffffff\n  and\n    /* \"@openzeppelin/contracts/access/Ownable.sol\":2985:3010  address oldOwner = _owner */\n  swap1\n  pop\n    /* \"@openzeppelin/contracts/access/Ownable.sol\":3029:3037  newOwner */\n  dup2\n    /* \"@openzeppelin/contracts/access/Ownable.sol\":3020:3026  _owner */\n  0x00\n  0x00\n    /* \"@openzeppelin/contracts/access/Ownable.sol\":3020:3037  _owner = newOwner */\n  0x0100\n  exp\n  dup2\n  sload\n  dup2\n  0xffffffffffffffffffffffffffffffffffffffff\n  mul\n  not\n  and\n  swap1\n  dup4\n  0xffffffffffffffffffffffffffffffffffffffff\n  and\n  mul\n  or\n  swap1\n  sstore\n  pop\n    /* \"@openzeppelin/contracts/access/Ownable.sol\":3083:3091  newOwner */\n  dup2\n    /* \"@openzeppelin/contracts/access/Ownable.sol\":3052:3092  OwnershipTransferred(oldOwner, newOwner) */\n  0xffffffffffffffffffffffffffffffffffffffff\n  and\n    /* \"@openzeppelin/contracts/access/Ownable.sol\":3073:3081  oldOwner */\n  dup2\n    /* \"@openzeppelin/contracts/access/Ownable.sol\":3052:3092  OwnershipTransferred(oldOwner, newOwner) */\n  0xffffffffffffffffffffffffffffffffffffffff\n  and\n  0x8be0079c531659141344cd1fd0a4f28419497f9722a3daafe3b4186f6b6457e0\n  mload(0x40)\n  mload(0x40)\n  dup1\n  swap2\n  sub\n  swap1\n  log3\n    /* \"@openzeppelin/contracts/access/Ownable.sol\":2975:3099  {... */\n  pop\n    /* \"@openzeppelin/contracts/access/Ownable.sol\":2912:3099  function _transferOwnership(address newOwner) internal virtual {... */\n  pop\n  jump\t// out\n    /* \"#utility.yul\":7:133   */\ntag_13:\n    /* \"#utility.yul\":44:51   */\n  0x00\n    /* \"#utility.yul\":84:126   */\n  0xffffffffffffffffffffffffffffffffffffffff\n    /* \"#utility.yul\":77:82   */\n  dup3\n    /* \"#utility.yul\":73:127   */\n  and\n    /* \"#utility.yul\":62:127   */\n  swap1\n  pop\n    /* \"#utility.yul\":7:133   */\n  swap2\n  swap1\n  pop\n  jump\t// out\n    /* \"#utility.yul\":139:235   */\ntag_14:\n    /* \"#utility.yul\":176:183   */\n  0x00\n    /* \"#utility.yul\":205:229   */\n  tag_19\n    /* \"#utility.yul\":223:228   */\n  dup3\n    /* \"#utility.yul\":205:229   */\n  tag_13\n  jump\t// in\ntag_19:\n    /* \"#utility.yul\":194:229   */\n  swap1\n  pop\n    /* \"#utility.yul\":139:235   */\n  swap2\n  swap1\n  pop\n  jump\t// out\n    /* \"#utility.yul\":241:359   */\ntag_15:\n    /* \"#utility.yul\":328:352   */\n  tag_21\n    /* \"#utility.yul\":346:351   */\n  dup2\n    /* \"#utility.yul\":328:352   */\n  tag_14\n  jump\t// in\ntag_21:\n    /* \"#utility.yul\":323:326   */\n  dup3\n    /* \"#utility.yul\":316:353   */\n  mstore\n    /* \"#utility.yul\":241:359   */\n  pop\n  pop\n  jump\t// out\n    /* \"#utility.yul\":365:587   */\ntag_7:\n    /* \"#utility.yul\":458:462   */\n  0x00\n    /* \"#utility.yul\":496:498   */\n  0x20\n    /* \"#utility.yul\":485:494   */\n  dup3\n    /* \"#utility.yul\":481:499   */\n  add\n    /* \"#utility.yul\":473:499   */\n  swap1\n  pop\n    /* \"#utility.yul\":509:580   */\n  tag_23\n    /* \"#utility.yul\":577:578   */\n  0x00\n    /* \"#utility.yul\":566:575   */\n  dup4\n    /* \"#utility.yul\":562:579   */\n  add\n    /* \"#utility.yul\":553:559   */\n  dup5\n    /* \"#utility.yul\":509:580   */\n  tag_15\n  jump\t// in\ntag_23:\n    /* \"#utility.yul\":365:587   */\n  swap3\n  swap2\n  pop\n  pop\n  jump\t// out\n    /* \"Contract/FinancialManager.sol\":176:6735  contract FinancialManager is Ownable {... */\ntag_11:\n  dataSize(sub_0)\n  dup1\n  dataOffset(sub_0)\n  0x00\n  codecopy\n  0x00\n  return\nstop\n\nsub_0: assembly {\n        /* \"Contract/FinancialManager.sol\":176:6735  contract FinancialManager is Ownable {... */\n      mstore(0x40, 0x80)\n      callvalue\n      dup1\n      iszero\n      tag_1\n      jumpi\n      revert(0x00, 0x00)\n    tag_1:\n      pop\n      jumpi(tag_2, lt(calldatasize, 0x04))\n      shr(0xe0, calldataload(0x00))\n      dup1\n      0x66184f50\n      gt\n      tag_17\n      jumpi\n      dup1\n      0x8da5cb5b\n      gt\n      tag_18\n      jumpi\n      dup1\n      0x8da5cb5b\n      eq\n      tag_13\n      jumpi\n      dup1\n      0xbf2ea183\n      eq\n      tag_14\n      jumpi\n      dup1\n      0xdb43919b\n      eq\n      tag_15\n      jumpi\n      dup1\n      0xf2fde38b\n      eq\n      tag_16\n      jumpi\n      jump(tag_2)\n    tag_18:\n      dup1\n      0x66184f50\n      eq\n      tag_10\n      jumpi\n      dup1\n      0x700bc241\n      eq\n      tag_11\n      jumpi\n      dup1\n      0x715018a6\n      eq\n      tag_12\n      jumpi\n      jump(tag_2)\n    tag_17:\n      dup1\n      0x3b5bcf8b\n      gt\n      tag_19\n      jumpi\n      dup1\n      0x3b5bcf8b\n      eq\n      tag_6\n      jumpi\n      dup1\n      0x3bd48e4b\n      eq\n      tag_7\n      jumpi\n      dup1\n      0x513cac80\n      eq\n      tag_8\n      jumpi\n      dup1\n      0x526bc60d\n      eq\n      tag_9\n      jumpi\n      jump(tag_2)\n    tag_19:\n      dup1\n      0xfdd58e\n      eq\n      tag_3\n      jumpi\n      dup1\n      0x1dd6bf09\n      eq\n      tag_4\n      jumpi\n      dup1\n      0x22b6ed26\n      eq\n      tag_5\n      jumpi\n    tag_2:\n      revert(0x00, 0x00)\n        /* \"Contract/FinancialManager.sol\":6276:6407  function balanceOf(address account, uint256 id) public view returns (uint256) {... */\n    tag_3:\n      tag_20\n      0x04\n      dup1\n      calldatasize\n      sub\n      dup2\n      add\n      swap1\n      tag_21\n      swap2\n      swap1\n      tag_22\n      jump\t// in\n    tag_21:\n      tag_23\n      jump\t// in\n    tag_20:\n      mload(0x40)\n      tag_24\n      swap2\n      swap1\n      tag_25\n      jump\t// in\n    tag_24:\n      mload(0x40)\n      dup1\n      swap2\n      sub\n      swap1\n      return\n        /* \"Contract/FinancialManager.sol\":1295:1879  function initializePropertyFinancials(uint256 propertyId, uint256 totalShares, uint256 initialValuation) public onlyOwner {... */\n    tag_4:\n      tag_26\n      0x04\n      dup1\n      calldatasize\n      sub\n      dup2\n      add\n      swap1\n      tag_27\n      swap2\n      swap1\n      tag_28\n      jump\t// in\n    tag_27:\n      tag_29\n      jump\t// in\n    tag_26:\n      stop\n        /* \"Contract/FinancialManager.sol\":5172:5695  function getFinancialReport(uint256 propertyId) public view returns (... */\n    tag_5:\n      tag_30\n      0x04\n      dup1\n      calldatasize\n      sub\n      dup2\n      add\n      swap1\n      tag_31\n      swap2\n      swap1\n      tag_32\n      jump\t// in\n    tag_31:\n      tag_33\n      jump\t// in\n    tag_30:\n      mload(0x40)\n      tag_34\n      swap5\n      swap4\n      swap3\n      swap2\n      swap1\n      tag_35\n      jump\t// in\n    tag_34:\n      mload(0x40)\n      dup1\n      swap2\n      sub\n      swap1\n      return\n        /* \"Contract/FinancialManager.sol\":3823:4380  function claimRentalIncome(uint256 propertyId, address user) public onlyOwner returns (uint256) {... */\n    tag_6:\n      tag_36\n      0x04\n      dup1\n      calldatasize\n      sub\n      dup2\n      add\n      swap1\n      tag_37\n      swap2\n      swap1\n      tag_38\n      jump\t// in\n    tag_37:\n      tag_39\n      jump\t// in\n    tag_36:\n      mload(0x40)\n      tag_40\n      swap2\n      swap1\n      tag_25\n      jump\t// in\n    tag_40:\n      mload(0x40)\n      dup1\n      swap2\n      sub\n      swap1\n      return\n        /* \"Contract/FinancialManager.sol\":6415:6732  function updateCurrentValuation(uint256 propertyId, uint256 newValuation) public onlyOwner {... */\n    tag_7:\n      tag_41\n      0x04\n      dup1\n      calldatasize\n      sub\n      dup2\n      add\n      swap1\n      tag_42\n      swap2\n      swap1\n      tag_43\n      jump\t// in\n    tag_42:\n      tag_44\n      jump\t// in\n    tag_41:\n      stop\n        /* \"Contract/FinancialManager.sol\":4766:5164  function recordExpense(uint256 propertyId, uint256 amount, string memory description) public onlyOwner {... */\n    tag_8:\n      tag_45\n      0x04\n      dup1\n      calldatasize\n      sub\n      dup2\n      add\n      swap1\n      tag_46\n      swap2\n      swap1\n      tag_47\n      jump\t// in\n    tag_46:\n      tag_48\n      jump\t// in\n    tag_45:\n      stop\n        /* \"Contract/FinancialManager.sol\":5758:6230  function updateTokenBalance(uint256 propertyId, address account, uint256 amount, bool isIncrease) public onlyOwner {... */\n    tag_9:\n      tag_49\n      0x04\n      dup1\n      calldatasize\n      sub\n      dup2\n      add\n      swap1\n      tag_50\n      swap2\n      swap1\n      tag_51\n      jump\t// in\n    tag_50:\n      tag_52\n      jump\t// in\n    tag_49:\n      stop\n        /* \"Contract/FinancialManager.sol\":3438:3809  function updateUnclaimedRentalIncome(uint256 propertyId, address user, uint256 amount) public onlyOwner {... */\n    tag_10:\n      tag_53\n      0x04\n      dup1\n      calldatasize\n      sub\n      dup2\n      add\n      swap1\n      tag_54\n      swap2\n      swap1\n      tag_55\n      jump\t// in\n    tag_54:\n      tag_56\n      jump\t// in\n    tag_53:\n      stop\n        /* \"Contract/FinancialManager.sol\":4388:4758  function getUnclaimedRentalIncome(uint256 propertyId, address user) public view returns (uint256) {... */\n    tag_11:\n      tag_57\n      0x04\n      dup1\n      calldatasize\n      sub\n      dup2\n      add\n      swap1\n      tag_58\n      swap2\n      swap1\n      tag_38\n      jump\t// in\n    tag_58:\n      tag_59\n      jump\t// in\n    tag_57:\n      mload(0x40)\n      tag_60\n      swap2\n      swap1\n      tag_25\n      jump\t// in\n    tag_60:\n      mload(0x40)\n      dup1\n      swap2\n      sub\n      swap1\n      return\n        /* \"@openzeppelin/contracts/access/Ownable.sol\":2293:2394  function renounceOwnership() public virtual onlyOwner {... */\n    tag_12:\n      tag_61\n      tag_62\n      jump\t// in\n    tag_61:\n      stop\n        /* \"@openzeppelin/contracts/access/Ownable.sol\":1638:1723  function owner() public view virtual returns (address) {... */\n    tag_13:\n      tag_63\n      tag_64\n      jump\t// in\n    tag_63:\n      mload(0x40)\n      tag_65\n      swap2\n      swap1\n      tag_66\n      jump\t// in\n    tag_65:\n      mload(0x40)\n      dup1\n      swap2\n      sub\n      swap1\n      return\n        /* \"Contract/FinancialManager.sol\":1893:2659  function updateRentalIncome(uint256 propertyId, uint256 newRentalIncome) public onlyOwner {... */\n    tag_14:\n      tag_67\n      0x04\n      dup1\n      calldatasize\n      sub\n      dup2\n      add\n      swap1\n      tag_68\n      swap2\n      swap1\n      tag_43\n      jump\t// in\n    tag_68:\n      tag_69\n      jump\t// in\n    tag_67:\n      stop\n        /* \"Contract/FinancialManager.sol\":2673:3424  function distributeRentalIncome(uint256 propertyId) public {... */\n    tag_15:\n      tag_70\n      0x04\n      dup1\n      calldatasize\n      sub\n      dup2\n      add\n      swap1\n      tag_71\n      swap2\n      swap1\n      tag_32\n      jump\t// in\n    tag_71:\n      tag_72\n      jump\t// in\n    tag_70:\n      stop\n        /* \"@openzeppelin/contracts/access/Ownable.sol\":2543:2758  function transferOwnership(address newOwner) public virtual onlyOwner {... */\n    tag_16:\n      tag_73\n      0x04\n      dup1\n      calldatasize\n      sub\n      dup2\n      add\n      swap1\n      tag_74\n      swap2\n      swap1\n      tag_75\n      jump\t// in\n    tag_74:\n      tag_76\n      jump\t// in\n    tag_73:\n      stop\n        /* \"Contract/FinancialManager.sol\":6276:6407  function balanceOf(address account, uint256 id) public view returns (uint256) {... */\n    tag_23:\n        /* \"Contract/FinancialManager.sol\":6345:6352  uint256 */\n      0x00\n        /* \"Contract/FinancialManager.sol\":6372:6386  _tokenBalances */\n      0x03\n        /* \"Contract/FinancialManager.sol\":6372:6390  _tokenBalances[id] */\n      0x00\n        /* \"Contract/FinancialManager.sol\":6387:6389  id */\n      dup4\n        /* \"Contract/FinancialManager.sol\":6372:6390  _tokenBalances[id] */\n      dup2\n      mstore\n      0x20\n      add\n      swap1\n      dup2\n      mstore\n      0x20\n      add\n      0x00\n      keccak256\n        /* \"Contract/FinancialManager.sol\":6372:6399  _tokenBalances[id][account] */\n      0x00\n        /* \"Contract/FinancialManager.sol\":6391:6398  account */\n      dup5\n        /* \"Contract/FinancialManager.sol\":6372:6399  _tokenBalances[id][account] */\n      0xffffffffffffffffffffffffffffffffffffffff\n      and\n      0xffffffffffffffffffffffffffffffffffffffff\n      and\n      dup2\n      mstore\n      0x20\n      add\n      swap1\n      dup2\n      mstore\n      0x20\n      add\n      0x00\n      keccak256\n      sload\n        /* \"Contract/FinancialManager.sol\":6365:6399  return _tokenBalances[id][account] */\n      swap1\n      pop\n        /* \"Contract/FinancialManager.sol\":6276:6407  function balanceOf(address account, uint256 id) public view returns (uint256) {... */\n      swap3\n      swap2\n      pop\n      pop\n      jump\t// out\n        /* \"Contract/FinancialManager.sol\":1295:1879  function initializePropertyFinancials(uint256 propertyId, uint256 totalShares, uint256 initialValuation) public onlyOwner {... */\n    tag_29:\n        /* \"@openzeppelin/contracts/access/Ownable.sol\":1531:1544  _checkOwner() */\n      tag_79\n        /* \"@openzeppelin/contracts/access/Ownable.sol\":1531:1542  _checkOwner */\n      tag_80\n        /* \"@openzeppelin/contracts/access/Ownable.sol\":1531:1544  _checkOwner() */\n      jump\t// in\n    tag_79:\n        /* \"Contract/FinancialManager.sol\":1462:1871  PropertyFinancials({... */\n      mload(0x40)\n      dup1\n      0x0120\n      add\n      0x40\n      mstore\n      dup1\n        /* \"Contract/FinancialManager.sol\":1515:1516  0 */\n      0x00\n        /* \"Contract/FinancialManager.sol\":1462:1871  PropertyFinancials({... */\n      dup2\n      mstore\n      0x20\n      add\n        /* \"Contract/FinancialManager.sol\":1553:1554  0 */\n      0x00\n        /* \"Contract/FinancialManager.sol\":1462:1871  PropertyFinancials({... */\n      dup2\n      mstore\n      0x20\n      add\n        /* \"Contract/FinancialManager.sol\":1587:1602  block.timestamp */\n      timestamp\n        /* \"Contract/FinancialManager.sol\":1462:1871  PropertyFinancials({... */\n      dup2\n      mstore\n      0x20\n      add\n        /* \"Contract/FinancialManager.sol\":1644:1659  block.timestamp */\n      timestamp\n        /* \"Contract/FinancialManager.sol\":1462:1871  PropertyFinancials({... */\n      dup2\n      mstore\n      0x20\n      add\n        /* \"Contract/FinancialManager.sol\":1684:1688  true */\n      0x01\n        /* \"Contract/FinancialManager.sol\":1462:1871  PropertyFinancials({... */\n      iszero\n      iszero\n      dup2\n      mstore\n      0x20\n      add\n        /* \"Contract/FinancialManager.sol\":1718:1719  0 */\n      0x00\n        /* \"Contract/FinancialManager.sol\":1462:1871  PropertyFinancials({... */\n      dup2\n      mstore\n      0x20\n      add\n        /* \"Contract/FinancialManager.sol\":1769:1770  0 */\n      0x00\n        /* \"Contract/FinancialManager.sol\":1755:1771  new uint256[](0) */\n      0xffffffffffffffff\n      dup2\n      gt\n      iszero\n      tag_82\n      jumpi\n      tag_83\n      tag_84\n      jump\t// in\n    tag_83:\n    tag_82:\n      mload(0x40)\n      swap1\n      dup1\n      dup3\n      mstore\n      dup1\n      0x20\n      mul\n      0x20\n      add\n      dup3\n      add\n      0x40\n      mstore\n      dup1\n      iszero\n      tag_85\n      jumpi\n      dup2\n      0x20\n      add\n      0x20\n      dup3\n      mul\n      dup1\n      calldatasize\n      dup4\n      calldatacopy\n      dup1\n      dup3\n      add\n      swap2\n      pop\n      pop\n      swap1\n      pop\n    tag_85:\n      pop\n        /* \"Contract/FinancialManager.sol\":1462:1871  PropertyFinancials({... */\n      dup2\n      mstore\n      0x20\n      add\n        /* \"Contract/FinancialManager.sol\":1799:1810  totalShares */\n      dup4\n        /* \"Contract/FinancialManager.sol\":1462:1871  PropertyFinancials({... */\n      dup2\n      mstore\n      0x20\n      add\n        /* \"Contract/FinancialManager.sol\":1843:1859  initialValuation */\n      dup3\n        /* \"Contract/FinancialManager.sol\":1462:1871  PropertyFinancials({... */\n      dup2\n      mstore\n      pop\n        /* \"Contract/FinancialManager.sol\":1428:1447  _propertyFinancials */\n      0x01\n        /* \"Contract/FinancialManager.sol\":1428:1459  _propertyFinancials[propertyId] */\n      0x00\n        /* \"Contract/FinancialManager.sol\":1448:1458  propertyId */\n      dup6\n        /* \"Contract/FinancialManager.sol\":1428:1459  _propertyFinancials[propertyId] */\n      dup2\n      mstore\n      0x20\n      add\n      swap1\n      dup2\n      mstore\n      0x20\n      add\n      0x00\n      keccak256\n        /* \"Contract/FinancialManager.sol\":1428:1871  _propertyFinancials[propertyId] = PropertyFinancials({... */\n      0x00\n      dup3\n      add\n      mload\n      dup2\n      0x00\n      add\n      sstore\n      0x20\n      dup3\n      add\n      mload\n      dup2\n      0x01\n      add\n      sstore\n      0x40\n      dup3\n      add\n      mload\n      dup2\n      0x02\n      add\n      sstore\n      0x60\n      dup3\n      add\n      mload\n      dup2\n      0x03\n      add\n      sstore\n      0x80\n      dup3\n      add\n      mload\n      dup2\n      0x04\n      add\n      exp(0x0100, 0x00)\n      dup2\n      sload\n      dup2\n      0xff\n      mul\n      not\n      and\n      swap1\n      dup4\n      iszero\n      iszero\n      mul\n      or\n      swap1\n      sstore\n      pop\n      0xa0\n      dup3\n      add\n      mload\n      dup2\n      0x05\n      add\n      sstore\n      0xc0\n      dup3\n      add\n      mload\n      dup2\n      0x06\n      add\n      swap1\n      dup1\n      mload\n      swap1\n      0x20\n      add\n      swap1\n      tag_86\n      swap3\n      swap2\n      swap1\n      tag_87\n      jump\t// in\n    tag_86:\n      pop\n      0xe0\n      dup3\n      add\n      mload\n      dup2\n      0x07\n      add\n      sstore\n      0x0100\n      dup3\n      add\n      mload\n      dup2\n      0x08\n      add\n      sstore\n      swap1\n      pop\n      pop\n        /* \"Contract/FinancialManager.sol\":1295:1879  function initializePropertyFinancials(uint256 propertyId, uint256 totalShares, uint256 initialValuation) public onlyOwner {... */\n      pop\n      pop\n      pop\n      jump\t// out\n        /* \"Contract/FinancialManager.sol\":5172:5695  function getFinancialReport(uint256 propertyId) public view returns (... */\n    tag_33:\n        /* \"Contract/FinancialManager.sol\":5251:5276  uint256 totalRentalIncome */\n      0x00\n        /* \"Contract/FinancialManager.sol\":5287:5308  uint256 totalExpenses */\n      0x00\n        /* \"Contract/FinancialManager.sol\":5319:5336  uint256 netIncome */\n      0x00\n        /* \"Contract/FinancialManager.sol\":5347:5371  uint256 currentValuation */\n      0x00\n        /* \"Contract/FinancialManager.sol\":5390:5427  PropertyFinancials storage financials */\n      0x00\n        /* \"Contract/FinancialManager.sol\":5430:5449  _propertyFinancials */\n      0x01\n        /* \"Contract/FinancialManager.sol\":5430:5461  _propertyFinancials[propertyId] */\n      0x00\n        /* \"Contract/FinancialManager.sol\":5450:5460  propertyId */\n      dup8\n        /* \"Contract/FinancialManager.sol\":5430:5461  _propertyFinancials[propertyId] */\n      dup2\n      mstore\n      0x20\n      add\n      swap1\n      dup2\n      mstore\n      0x20\n      add\n      0x00\n      keccak256\n        /* \"Contract/FinancialManager.sol\":5390:5461  PropertyFinancials storage financials = _propertyFinancials[propertyId] */\n      swap1\n      pop\n        /* \"Contract/FinancialManager.sol\":5494:5504  financials */\n      dup1\n        /* \"Contract/FinancialManager.sol\":5494:5522  financials.totalRentalIncome */\n      0x00\n      add\n      sload\n        /* \"Contract/FinancialManager.sol\":5537:5547  financials */\n      dup2\n        /* \"Contract/FinancialManager.sol\":5537:5561  financials.totalExpenses */\n      0x05\n      add\n      sload\n        /* \"Contract/FinancialManager.sol\":5576:5634  financials.totalRentalIncome.sub(financials.totalExpenses) */\n      tag_89\n        /* \"Contract/FinancialManager.sol\":5609:5619  financials */\n      dup4\n        /* \"Contract/FinancialManager.sol\":5609:5633  financials.totalExpenses */\n      0x05\n      add\n      sload\n        /* \"Contract/FinancialManager.sol\":5576:5586  financials */\n      dup5\n        /* \"Contract/FinancialManager.sol\":5576:5604  financials.totalRentalIncome */\n      0x00\n      add\n      sload\n        /* \"Contract/FinancialManager.sol\":5576:5608  financials.totalRentalIncome.sub */\n      tag_90\n      swap1\n        /* \"Contract/FinancialManager.sol\":5576:5634  financials.totalRentalIncome.sub(financials.totalExpenses) */\n      swap2\n      swap1\n      0xffffffff\n      and\n      jump\t// in\n    tag_89:\n        /* \"Contract/FinancialManager.sol\":5649:5659  financials */\n      dup4\n        /* \"Contract/FinancialManager.sol\":5649:5676  financials.currentValuation */\n      0x08\n      add\n      sload\n        /* \"Contract/FinancialManager.sol\":5472:5687  return (... */\n      swap5\n      pop\n      swap5\n      pop\n      swap5\n      pop\n      swap5\n      pop\n      pop\n        /* \"Contract/FinancialManager.sol\":5172:5695  function getFinancialReport(uint256 propertyId) public view returns (... */\n      swap2\n      swap4\n      pop\n      swap2\n      swap4\n      jump\t// out\n        /* \"Contract/FinancialManager.sol\":3823:4380  function claimRentalIncome(uint256 propertyId, address user) public onlyOwner returns (uint256) {... */\n    tag_39:\n        /* \"Contract/FinancialManager.sol\":3910:3917  uint256 */\n      0x00\n        /* \"@openzeppelin/contracts/access/Ownable.sol\":1531:1544  _checkOwner() */\n      tag_92\n        /* \"@openzeppelin/contracts/access/Ownable.sol\":1531:1542  _checkOwner */\n      tag_80\n        /* \"@openzeppelin/contracts/access/Ownable.sol\":1531:1544  _checkOwner() */\n      jump\t// in\n    tag_92:\n        /* \"Contract/FinancialManager.sol\":3930:3967  PropertyFinancials storage financials */\n      0x00\n        /* \"Contract/FinancialManager.sol\":3970:3989  _propertyFinancials */\n      0x01\n        /* \"Contract/FinancialManager.sol\":3970:4001  _propertyFinancials[propertyId] */\n      0x00\n        /* \"Contract/FinancialManager.sol\":3990:4000  propertyId */\n      dup6\n        /* \"Contract/FinancialManager.sol\":3970:4001  _propertyFinancials[propertyId] */\n      dup2\n      mstore\n      0x20\n      add\n      swap1\n      dup2\n      mstore\n      0x20\n      add\n      0x00\n      keccak256\n        /* \"Contract/FinancialManager.sol\":3930:4001  PropertyFinancials storage financials = _propertyFinancials[propertyId] */\n      swap1\n      pop\n        /* \"Contract/FinancialManager.sol\":4012:4031  uint256 totalIncome */\n      0x00\n        /* \"Contract/FinancialManager.sol\":4034:4108  balanceOf(user, propertyId).mul(financials.rentalIncomePerShare).div(1e18) */\n      tag_94\n        /* \"Contract/FinancialManager.sol\":4103:4107  1e18 */\n      0x0de0b6b3a7640000\n        /* \"Contract/FinancialManager.sol\":4034:4098  balanceOf(user, propertyId).mul(financials.rentalIncomePerShare) */\n      tag_95\n        /* \"Contract/FinancialManager.sol\":4066:4076  financials */\n      dup5\n        /* \"Contract/FinancialManager.sol\":4066:4097  financials.rentalIncomePerShare */\n      0x01\n      add\n      sload\n        /* \"Contract/FinancialManager.sol\":4034:4061  balanceOf(user, propertyId) */\n      tag_96\n        /* \"Contract/FinancialManager.sol\":4044:4048  user */\n      dup9\n        /* \"Contract/FinancialManager.sol\":4050:4060  propertyId */\n      dup11\n        /* \"Contract/FinancialManager.sol\":4034:4043  balanceOf */\n      tag_23\n        /* \"Contract/FinancialManager.sol\":4034:4061  balanceOf(user, propertyId) */\n      jump\t// in\n    tag_96:\n        /* \"Contract/FinancialManager.sol\":4034:4065  balanceOf(user, propertyId).mul */\n      tag_97\n      swap1\n        /* \"Contract/FinancialManager.sol\":4034:4098  balanceOf(user, propertyId).mul(financials.rentalIncomePerShare) */\n      swap2\n      swap1\n      0xffffffff\n      and\n      jump\t// in\n    tag_95:\n        /* \"Contract/FinancialManager.sol\":4034:4102  balanceOf(user, propertyId).mul(financials.rentalIncomePerShare).div */\n      tag_98\n      swap1\n        /* \"Contract/FinancialManager.sol\":4034:4108  balanceOf(user, propertyId).mul(financials.rentalIncomePerShare).div(1e18) */\n      swap2\n      swap1\n      0xffffffff\n      and\n      jump\t// in\n    tag_94:\n        /* \"Contract/FinancialManager.sol\":4012:4108  uint256 totalIncome = balanceOf(user, propertyId).mul(financials.rentalIncomePerShare).div(1e18) */\n      swap1\n      pop\n        /* \"Contract/FinancialManager.sol\":4119:4142  uint256 unclaimedIncome */\n      0x00\n        /* \"Contract/FinancialManager.sol\":4145:4202  totalIncome.sub(_unclaimedRentalIncome[propertyId][user]) */\n      tag_99\n        /* \"Contract/FinancialManager.sol\":4161:4183  _unclaimedRentalIncome */\n      0x02\n        /* \"Contract/FinancialManager.sol\":4161:4195  _unclaimedRentalIncome[propertyId] */\n      0x00\n        /* \"Contract/FinancialManager.sol\":4184:4194  propertyId */\n      dup9\n        /* \"Contract/FinancialManager.sol\":4161:4195  _unclaimedRentalIncome[propertyId] */\n      dup2\n      mstore\n      0x20\n      add\n      swap1\n      dup2\n      mstore\n      0x20\n      add\n      0x00\n      keccak256\n        /* \"Contract/FinancialManager.sol\":4161:4201  _unclaimedRentalIncome[propertyId][user] */\n      0x00\n        /* \"Contract/FinancialManager.sol\":4196:4200  user */\n      dup8\n        /* \"Contract/FinancialManager.sol\":4161:4201  _unclaimedRentalIncome[propertyId][user] */\n      0xffffffffffffffffffffffffffffffffffffffff\n      and\n      0xffffffffffffffffffffffffffffffffffffffff\n      and\n      dup2\n      mstore\n      0x20\n      add\n      swap1\n      dup2\n      mstore\n      0x20\n      add\n      0x00\n      keccak256\n      sload\n        /* \"Contract/FinancialManager.sol\":4145:4156  totalIncome */\n      dup4\n        /* \"Contract/FinancialManager.sol\":4145:4160  totalIncome.sub */\n      tag_90\n      swap1\n        /* \"Contract/FinancialManager.sol\":4145:4202  totalIncome.sub(_unclaimedRentalIncome[propertyId][user]) */\n      swap2\n      swap1\n      0xffffffff\n      and\n      jump\t// in\n    tag_99:\n        /* \"Contract/FinancialManager.sol\":4119:4202  uint256 unclaimedIncome = totalIncome.sub(_unclaimedRentalIncome[propertyId][user]) */\n      swap1\n      pop\n        /* \"Contract/FinancialManager.sol\":4241:4242  0 */\n      0x00\n        /* \"Contract/FinancialManager.sol\":4223:4238  unclaimedIncome */\n      dup2\n        /* \"Contract/FinancialManager.sol\":4223:4242  unclaimedIncome > 0 */\n      gt\n        /* \"Contract/FinancialManager.sol\":4215:4272  require(unclaimedIncome > 0, \"No rental income to claim\") */\n      tag_100\n      jumpi\n      mload(0x40)\n      0x08c379a000000000000000000000000000000000000000000000000000000000\n      dup2\n      mstore\n      0x04\n      add\n      tag_101\n      swap1\n      tag_102\n      jump\t// in\n    tag_101:\n      mload(0x40)\n      dup1\n      swap2\n      sub\n      swap1\n      revert\n    tag_100:\n        /* \"Contract/FinancialManager.sol\":4328:4339  totalIncome */\n      dup2\n        /* \"Contract/FinancialManager.sol\":4285:4307  _unclaimedRentalIncome */\n      0x02\n        /* \"Contract/FinancialManager.sol\":4285:4319  _unclaimedRentalIncome[propertyId] */\n      0x00\n        /* \"Contract/FinancialManager.sol\":4308:4318  propertyId */\n      dup9\n        /* \"Contract/FinancialManager.sol\":4285:4319  _unclaimedRentalIncome[propertyId] */\n      dup2\n      mstore\n      0x20\n      add\n      swap1\n      dup2\n      mstore\n      0x20\n      add\n      0x00\n      keccak256\n        /* \"Contract/FinancialManager.sol\":4285:4325  _unclaimedRentalIncome[propertyId][user] */\n      0x00\n        /* \"Contract/FinancialManager.sol\":4320:4324  user */\n      dup8\n        /* \"Contract/FinancialManager.sol\":4285:4325  _unclaimedRentalIncome[propertyId][user] */\n      0xffffffffffffffffffffffffffffffffffffffff\n      and\n      0xffffffffffffffffffffffffffffffffffffffff\n      and\n      dup2\n      mstore\n      0x20\n      add\n      swap1\n      dup2\n      mstore\n      0x20\n      add\n      0x00\n      keccak256\n        /* \"Contract/FinancialManager.sol\":4285:4339  _unclaimedRentalIncome[propertyId][user] = totalIncome */\n      dup2\n      swap1\n      sstore\n      pop\n        /* \"Contract/FinancialManager.sol\":4357:4372  unclaimedIncome */\n      dup1\n        /* \"Contract/FinancialManager.sol\":4350:4372  return unclaimedIncome */\n      swap4\n      pop\n      pop\n      pop\n      pop\n        /* \"Contract/FinancialManager.sol\":3823:4380  function claimRentalIncome(uint256 propertyId, address user) public onlyOwner returns (uint256) {... */\n      swap3\n      swap2\n      pop\n      pop\n      jump\t// out\n        /* \"Contract/FinancialManager.sol\":6415:6732  function updateCurrentValuation(uint256 propertyId, uint256 newValuation) public onlyOwner {... */\n    tag_44:\n        /* \"@openzeppelin/contracts/access/Ownable.sol\":1531:1544  _checkOwner() */\n      tag_104\n        /* \"@openzeppelin/contracts/access/Ownable.sol\":1531:1542  _checkOwner */\n      tag_80\n        /* \"@openzeppelin/contracts/access/Ownable.sol\":1531:1544  _checkOwner() */\n      jump\t// in\n    tag_104:\n        /* \"Contract/FinancialManager.sol\":6525:6544  _propertyFinancials */\n      0x01\n        /* \"Contract/FinancialManager.sol\":6525:6556  _propertyFinancials[propertyId] */\n      0x00\n        /* \"Contract/FinancialManager.sol\":6545:6555  propertyId */\n      dup4\n        /* \"Contract/FinancialManager.sol\":6525:6556  _propertyFinancials[propertyId] */\n      dup2\n      mstore\n      0x20\n      add\n      swap1\n      dup2\n      mstore\n      0x20\n      add\n      0x00\n      keccak256\n        /* \"Contract/FinancialManager.sol\":6525:6565  _propertyFinancials[propertyId].isActive */\n      0x04\n      add\n      0x00\n      swap1\n      sload\n      swap1\n      0x0100\n      exp\n      swap1\n      div\n      0xff\n      and\n        /* \"Contract/FinancialManager.sol\":6517:6592  require(_propertyFinancials[propertyId].isActive, \"Property is not active\") */\n      tag_106\n      jumpi\n      mload(0x40)\n      0x08c379a000000000000000000000000000000000000000000000000000000000\n      dup2\n      mstore\n      0x04\n      add\n      tag_107\n      swap1\n      tag_108\n      jump\t// in\n    tag_107:\n      mload(0x40)\n      dup1\n      swap2\n      sub\n      swap1\n      revert\n    tag_106:\n        /* \"Contract/FinancialManager.sol\":6654:6666  newValuation */\n      dup1\n        /* \"Contract/FinancialManager.sol\":6603:6622  _propertyFinancials */\n      0x01\n        /* \"Contract/FinancialManager.sol\":6603:6634  _propertyFinancials[propertyId] */\n      0x00\n        /* \"Contract/FinancialManager.sol\":6623:6633  propertyId */\n      dup5\n        /* \"Contract/FinancialManager.sol\":6603:6634  _propertyFinancials[propertyId] */\n      dup2\n      mstore\n      0x20\n      add\n      swap1\n      dup2\n      mstore\n      0x20\n      add\n      0x00\n      keccak256\n        /* \"Contract/FinancialManager.sol\":6603:6651  _propertyFinancials[propertyId].currentValuation */\n      0x08\n      add\n        /* \"Contract/FinancialManager.sol\":6603:6666  _propertyFinancials[propertyId].currentValuation = newValuation */\n      dup2\n      swap1\n      sstore\n      pop\n        /* \"Contract/FinancialManager.sol\":6699:6709  propertyId */\n      dup2\n        /* \"Contract/FinancialManager.sol\":6682:6724  ValuationUpdated(propertyId, newValuation) */\n      0x8d45721c0edcd094d637f66e971ce1167f974eed315c9a31b6ce145067760acc\n        /* \"Contract/FinancialManager.sol\":6711:6723  newValuation */\n      dup3\n        /* \"Contract/FinancialManager.sol\":6682:6724  ValuationUpdated(propertyId, newValuation) */\n      mload(0x40)\n      tag_109\n      swap2\n      swap1\n      tag_25\n      jump\t// in\n    tag_109:\n      mload(0x40)\n      dup1\n      swap2\n      sub\n      swap1\n      log2\n        /* \"Contract/FinancialManager.sol\":6415:6732  function updateCurrentValuation(uint256 propertyId, uint256 newValuation) public onlyOwner {... */\n      pop\n      pop\n      jump\t// out\n        /* \"Contract/FinancialManager.sol\":4766:5164  function recordExpense(uint256 propertyId, uint256 amount, string memory description) public onlyOwner {... */\n    tag_48:\n        /* \"@openzeppelin/contracts/access/Ownable.sol\":1531:1544  _checkOwner() */\n      tag_111\n        /* \"@openzeppelin/contracts/access/Ownable.sol\":1531:1542  _checkOwner */\n      tag_80\n        /* \"@openzeppelin/contracts/access/Ownable.sol\":1531:1544  _checkOwner() */\n      jump\t// in\n    tag_111:\n        /* \"Contract/FinancialManager.sol\":4880:4917  PropertyFinancials storage financials */\n      0x00\n        /* \"Contract/FinancialManager.sol\":4920:4939  _propertyFinancials */\n      0x01\n        /* \"Contract/FinancialManager.sol\":4920:4951  _propertyFinancials[propertyId] */\n      0x00\n        /* \"Contract/FinancialManager.sol\":4940:4950  propertyId */\n      dup6\n        /* \"Contract/FinancialManager.sol\":4920:4951  _propertyFinancials[propertyId] */\n      dup2\n      mstore\n      0x20\n      add\n      swap1\n      dup2\n      mstore\n      0x20\n      add\n      0x00\n      keccak256\n        /* \"Contract/FinancialManager.sol\":4880:4951  PropertyFinancials storage financials = _propertyFinancials[propertyId] */\n      swap1\n      pop\n        /* \"Contract/FinancialManager.sol\":4970:4980  financials */\n      dup1\n        /* \"Contract/FinancialManager.sol\":4970:4989  financials.isActive */\n      0x04\n      add\n      0x00\n      swap1\n      sload\n      swap1\n      0x0100\n      exp\n      swap1\n      div\n      0xff\n      and\n        /* \"Contract/FinancialManager.sol\":4962:5016  require(financials.isActive, \"Property is not active\") */\n      tag_113\n      jumpi\n      mload(0x40)\n      0x08c379a000000000000000000000000000000000000000000000000000000000\n      dup2\n      mstore\n      0x04\n      add\n      tag_114\n      swap1\n      tag_108\n      jump\t// in\n    tag_114:\n      mload(0x40)\n      dup1\n      swap2\n      sub\n      swap1\n      revert\n    tag_113:\n        /* \"Contract/FinancialManager.sol\":5056:5092  financials.totalExpenses.add(amount) */\n      tag_115\n        /* \"Contract/FinancialManager.sol\":5085:5091  amount */\n      dup4\n        /* \"Contract/FinancialManager.sol\":5056:5066  financials */\n      dup3\n        /* \"Contract/FinancialManager.sol\":5056:5080  financials.totalExpenses */\n      0x05\n      add\n      sload\n        /* \"Contract/FinancialManager.sol\":5056:5084  financials.totalExpenses.add */\n      tag_116\n      swap1\n        /* \"Contract/FinancialManager.sol\":5056:5092  financials.totalExpenses.add(amount) */\n      swap2\n      swap1\n      0xffffffff\n      and\n      jump\t// in\n    tag_115:\n        /* \"Contract/FinancialManager.sol\":5029:5039  financials */\n      dup2\n        /* \"Contract/FinancialManager.sol\":5029:5053  financials.totalExpenses */\n      0x05\n      add\n        /* \"Contract/FinancialManager.sol\":5029:5092  financials.totalExpenses = financials.totalExpenses.add(amount) */\n      dup2\n      swap1\n      sstore\n      pop\n        /* \"Contract/FinancialManager.sol\":5124:5134  propertyId */\n      dup4\n        /* \"Contract/FinancialManager.sol\":5108:5156  ExpenseRecorded(propertyId, amount, description) */\n      0x960cee7418379cb6f7889f9d98a98ebca71a5547cbe3da02e3c412f1c67fba63\n        /* \"Contract/FinancialManager.sol\":5136:5142  amount */\n      dup5\n        /* \"Contract/FinancialManager.sol\":5144:5155  description */\n      dup5\n        /* \"Contract/FinancialManager.sol\":5108:5156  ExpenseRecorded(propertyId, amount, description) */\n      mload(0x40)\n      tag_117\n      swap3\n      swap2\n      swap1\n      tag_118\n      jump\t// in\n    tag_117:\n      mload(0x40)\n      dup1\n      swap2\n      sub\n      swap1\n      log2\n        /* \"Contract/FinancialManager.sol\":4869:5164  {... */\n      pop\n        /* \"Contract/FinancialManager.sol\":4766:5164  function recordExpense(uint256 propertyId, uint256 amount, string memory description) public onlyOwner {... */\n      pop\n      pop\n      pop\n      jump\t// out\n        /* \"Contract/FinancialManager.sol\":5758:6230  function updateTokenBalance(uint256 propertyId, address account, uint256 amount, bool isIncrease) public onlyOwner {... */\n    tag_52:\n        /* \"@openzeppelin/contracts/access/Ownable.sol\":1531:1544  _checkOwner() */\n      tag_120\n        /* \"@openzeppelin/contracts/access/Ownable.sol\":1531:1542  _checkOwner */\n      tag_80\n        /* \"@openzeppelin/contracts/access/Ownable.sol\":1531:1544  _checkOwner() */\n      jump\t// in\n    tag_120:\n        /* \"Contract/FinancialManager.sol\":5888:5898  isIncrease */\n      dup1\n        /* \"Contract/FinancialManager.sol\":5884:6223  if (isIncrease) {... */\n      iszero\n      tag_122\n      jumpi\n        /* \"Contract/FinancialManager.sol\":5953:6000  _tokenBalances[propertyId][account].add(amount) */\n      tag_123\n        /* \"Contract/FinancialManager.sol\":5993:5999  amount */\n      dup3\n        /* \"Contract/FinancialManager.sol\":5953:5967  _tokenBalances */\n      0x03\n        /* \"Contract/FinancialManager.sol\":5953:5979  _tokenBalances[propertyId] */\n      0x00\n        /* \"Contract/FinancialManager.sol\":5968:5978  propertyId */\n      dup8\n        /* \"Contract/FinancialManager.sol\":5953:5979  _tokenBalances[propertyId] */\n      dup2\n      mstore\n      0x20\n      add\n      swap1\n      dup2\n      mstore\n      0x20\n      add\n      0x00\n      keccak256\n        /* \"Contract/FinancialManager.sol\":5953:5988  _tokenBalances[propertyId][account] */\n      0x00\n        /* \"Contract/FinancialManager.sol\":5980:5987  account */\n      dup7\n        /* \"Contract/FinancialManager.sol\":5953:5988  _tokenBalances[propertyId][account] */\n      0xffffffffffffffffffffffffffffffffffffffff\n      and\n      0xffffffffffffffffffffffffffffffffffffffff\n      and\n      dup2\n      mstore\n      0x20\n      add\n      swap1\n      dup2\n      mstore\n      0x20\n      add\n      0x00\n      keccak256\n      sload\n        /* \"Contract/FinancialManager.sol\":5953:5992  _tokenBalances[propertyId][account].add */\n      tag_116\n      swap1\n        /* \"Contract/FinancialManager.sol\":5953:6000  _tokenBalances[propertyId][account].add(amount) */\n      swap2\n      swap1\n      0xffffffff\n      and\n      jump\t// in\n    tag_123:\n        /* \"Contract/FinancialManager.sol\":5915:5929  _tokenBalances */\n      0x03\n        /* \"Contract/FinancialManager.sol\":5915:5941  _tokenBalances[propertyId] */\n      0x00\n        /* \"Contract/FinancialManager.sol\":5930:5940  propertyId */\n      dup7\n        /* \"Contract/FinancialManager.sol\":5915:5941  _tokenBalances[propertyId] */\n      dup2\n      mstore\n      0x20\n      add\n      swap1\n      dup2\n      mstore\n      0x20\n      add\n      0x00\n      keccak256\n        /* \"Contract/FinancialManager.sol\":5915:5950  _tokenBalances[propertyId][account] */\n      0x00\n        /* \"Contract/FinancialManager.sol\":5942:5949  account */\n      dup6\n        /* \"Contract/FinancialManager.sol\":5915:5950  _tokenBalances[propertyId][account] */\n      0xffffffffffffffffffffffffffffffffffffffff\n      and\n      0xffffffffffffffffffffffffffffffffffffffff\n      and\n      dup2\n      mstore\n      0x20\n      add\n      swap1\n      dup2\n      mstore\n      0x20\n      add\n      0x00\n      keccak256\n        /* \"Contract/FinancialManager.sol\":5915:6000  _tokenBalances[propertyId][account] = _tokenBalances[propertyId][account].add(amount) */\n      dup2\n      swap1\n      sstore\n      pop\n        /* \"Contract/FinancialManager.sol\":5884:6223  if (isIncrease) {... */\n      jump(tag_124)\n    tag_122:\n        /* \"Contract/FinancialManager.sol\":6080:6086  amount */\n      dup2\n        /* \"Contract/FinancialManager.sol\":6041:6055  _tokenBalances */\n      0x03\n        /* \"Contract/FinancialManager.sol\":6041:6067  _tokenBalances[propertyId] */\n      0x00\n        /* \"Contract/FinancialManager.sol\":6056:6066  propertyId */\n      dup7\n        /* \"Contract/FinancialManager.sol\":6041:6067  _tokenBalances[propertyId] */\n      dup2\n      mstore\n      0x20\n      add\n      swap1\n      dup2\n      mstore\n      0x20\n      add\n      0x00\n      keccak256\n        /* \"Contract/FinancialManager.sol\":6041:6076  _tokenBalances[propertyId][account] */\n      0x00\n        /* \"Contract/FinancialManager.sol\":6068:6075  account */\n      dup6\n        /* \"Contract/FinancialManager.sol\":6041:6076  _tokenBalances[propertyId][account] */\n      0xffffffffffffffffffffffffffffffffffffffff\n      and\n      0xffffffffffffffffffffffffffffffffffffffff\n      and\n      dup2\n      mstore\n      0x20\n      add\n      swap1\n      dup2\n      mstore\n      0x20\n      add\n      0x00\n      keccak256\n      sload\n        /* \"Contract/FinancialManager.sol\":6041:6086  _tokenBalances[propertyId][account] >= amount */\n      lt\n      iszero\n        /* \"Contract/FinancialManager.sol\":6033:6111  require(_tokenBalances[propertyId][account] >= amount, \"Insufficient balance\") */\n      tag_125\n      jumpi\n      mload(0x40)\n      0x08c379a000000000000000000000000000000000000000000000000000000000\n      dup2\n      mstore\n      0x04\n      add\n      tag_126\n      swap1\n      tag_127\n      jump\t// in\n    tag_126:\n      mload(0x40)\n      dup1\n      swap2\n      sub\n      swap1\n      revert\n    tag_125:\n        /* \"Contract/FinancialManager.sol\":6164:6211  _tokenBalances[propertyId][account].sub(amount) */\n      tag_128\n        /* \"Contract/FinancialManager.sol\":6204:6210  amount */\n      dup3\n        /* \"Contract/FinancialManager.sol\":6164:6178  _tokenBalances */\n      0x03\n        /* \"Contract/FinancialManager.sol\":6164:6190  _tokenBalances[propertyId] */\n      0x00\n        /* \"Contract/FinancialManager.sol\":6179:6189  propertyId */\n      dup8\n        /* \"Contract/FinancialManager.sol\":6164:6190  _tokenBalances[propertyId] */\n      dup2\n      mstore\n      0x20\n      add\n      swap1\n      dup2\n      mstore\n      0x20\n      add\n      0x00\n      keccak256\n        /* \"Contract/FinancialManager.sol\":6164:6199  _tokenBalances[propertyId][account] */\n      0x00\n        /* \"Contract/FinancialManager.sol\":6191:6198  account */\n      dup7\n        /* \"Contract/FinancialManager.sol\":6164:6199  _tokenBalances[propertyId][account] */\n      0xffffffffffffffffffffffffffffffffffffffff\n      and\n      0xffffffffffffffffffffffffffffffffffffffff\n      and\n      dup2\n      mstore\n      0x20\n      add\n      swap1\n      dup2\n      mstore\n      0x20\n      add\n      0x00\n      keccak256\n      sload\n        /* \"Contract/FinancialManager.sol\":6164:6203  _tokenBalances[propertyId][account].sub */\n      tag_90\n      swap1\n        /* \"Contract/FinancialManager.sol\":6164:6211  _tokenBalances[propertyId][account].sub(amount) */\n      swap2\n      swap1\n      0xffffffff\n      and\n      jump\t// in\n    tag_128:\n        /* \"Contract/FinancialManager.sol\":6126:6140  _tokenBalances */\n      0x03\n        /* \"Contract/FinancialManager.sol\":6126:6152  _tokenBalances[propertyId] */\n      0x00\n        /* \"Contract/FinancialManager.sol\":6141:6151  propertyId */\n      dup7\n        /* \"Contract/FinancialManager.sol\":6126:6152  _tokenBalances[propertyId] */\n      dup2\n      mstore\n      0x20\n      add\n      swap1\n      dup2\n      mstore\n      0x20\n      add\n      0x00\n      keccak256\n        /* \"Contract/FinancialManager.sol\":6126:6161  _tokenBalances[propertyId][account] */\n      0x00\n        /* \"Contract/FinancialManager.sol\":6153:6160  account */\n      dup6\n        /* \"Contract/FinancialManager.sol\":6126:6161  _tokenBalances[propertyId][account] */\n      0xffffffffffffffffffffffffffffffffffffffff\n      and\n      0xffffffffffffffffffffffffffffffffffffffff\n      and\n      dup2\n      mstore\n      0x20\n      add\n      swap1\n      dup2\n      mstore\n      0x20\n      add\n      0x00\n      keccak256\n        /* \"Contract/FinancialManager.sol\":6126:6211  _tokenBalances[propertyId][account] = _tokenBalances[propertyId][account].sub(amount) */\n      dup2\n      swap1\n      sstore\n      pop\n        /* \"Contract/FinancialManager.sol\":5884:6223  if (isIncrease) {... */\n    tag_124:\n        /* \"Contract/FinancialManager.sol\":5758:6230  function updateTokenBalance(uint256 propertyId, address account, uint256 amount, bool isIncrease) public onlyOwner {... */\n      pop\n      pop\n      pop\n      pop\n      jump\t// out\n        /* \"Contract/FinancialManager.sol\":3438:3809  function updateUnclaimedRentalIncome(uint256 propertyId, address user, uint256 amount) public onlyOwner {... */\n    tag_56:\n        /* \"@openzeppelin/contracts/access/Ownable.sol\":1531:1544  _checkOwner() */\n      tag_130\n        /* \"@openzeppelin/contracts/access/Ownable.sol\":1531:1542  _checkOwner */\n      tag_80\n        /* \"@openzeppelin/contracts/access/Ownable.sol\":1531:1544  _checkOwner() */\n      jump\t// in\n    tag_130:\n        /* \"Contract/FinancialManager.sol\":3553:3590  PropertyFinancials storage financials */\n      0x00\n        /* \"Contract/FinancialManager.sol\":3593:3612  _propertyFinancials */\n      0x01\n        /* \"Contract/FinancialManager.sol\":3593:3624  _propertyFinancials[propertyId] */\n      0x00\n        /* \"Contract/FinancialManager.sol\":3613:3623  propertyId */\n      dup6\n        /* \"Contract/FinancialManager.sol\":3593:3624  _propertyFinancials[propertyId] */\n      dup2\n      mstore\n      0x20\n      add\n      swap1\n      dup2\n      mstore\n      0x20\n      add\n      0x00\n      keccak256\n        /* \"Contract/FinancialManager.sol\":3553:3624  PropertyFinancials storage financials = _propertyFinancials[propertyId] */\n      swap1\n      pop\n        /* \"Contract/FinancialManager.sol\":3678:3801  _unclaimedRentalIncome[propertyId][user].add(... */\n      tag_132\n        /* \"Contract/FinancialManager.sol\":3737:3790  amount.mul(financials.rentalIncomePerShare).div(1e18) */\n      tag_133\n        /* \"Contract/FinancialManager.sol\":3785:3789  1e18 */\n      0x0de0b6b3a7640000\n        /* \"Contract/FinancialManager.sol\":3737:3780  amount.mul(financials.rentalIncomePerShare) */\n      tag_134\n        /* \"Contract/FinancialManager.sol\":3748:3758  financials */\n      dup5\n        /* \"Contract/FinancialManager.sol\":3748:3779  financials.rentalIncomePerShare */\n      0x01\n      add\n      sload\n        /* \"Contract/FinancialManager.sol\":3737:3743  amount */\n      dup7\n        /* \"Contract/FinancialManager.sol\":3737:3747  amount.mul */\n      tag_97\n      swap1\n        /* \"Contract/FinancialManager.sol\":3737:3780  amount.mul(financials.rentalIncomePerShare) */\n      swap2\n      swap1\n      0xffffffff\n      and\n      jump\t// in\n    tag_134:\n        /* \"Contract/FinancialManager.sol\":3737:3784  amount.mul(financials.rentalIncomePerShare).div */\n      tag_98\n      swap1\n        /* \"Contract/FinancialManager.sol\":3737:3790  amount.mul(financials.rentalIncomePerShare).div(1e18) */\n      swap2\n      swap1\n      0xffffffff\n      and\n      jump\t// in\n    tag_133:\n        /* \"Contract/FinancialManager.sol\":3678:3700  _unclaimedRentalIncome */\n      0x02\n        /* \"Contract/FinancialManager.sol\":3678:3712  _unclaimedRentalIncome[propertyId] */\n      0x00\n        /* \"Contract/FinancialManager.sol\":3701:3711  propertyId */\n      dup8\n        /* \"Contract/FinancialManager.sol\":3678:3712  _unclaimedRentalIncome[propertyId] */\n      dup2\n      mstore\n      0x20\n      add\n      swap1\n      dup2\n      mstore\n      0x20\n      add\n      0x00\n      keccak256\n        /* \"Contract/FinancialManager.sol\":3678:3718  _unclaimedRentalIncome[propertyId][user] */\n      0x00\n        /* \"Contract/FinancialManager.sol\":3713:3717  user */\n      dup7\n        /* \"Contract/FinancialManager.sol\":3678:3718  _unclaimedRentalIncome[propertyId][user] */\n      0xffffffffffffffffffffffffffffffffffffffff\n      and\n      0xffffffffffffffffffffffffffffffffffffffff\n      and\n      dup2\n      mstore\n      0x20\n      add\n      swap1\n      dup2\n      mstore\n      0x20\n      add\n      0x00\n      keccak256\n      sload\n        /* \"Contract/FinancialManager.sol\":3678:3722  _unclaimedRentalIncome[propertyId][user].add */\n      tag_116\n      swap1\n        /* \"Contract/FinancialManager.sol\":3678:3801  _unclaimedRentalIncome[propertyId][user].add(... */\n      swap2\n      swap1\n      0xffffffff\n      and\n      jump\t// in\n    tag_132:\n        /* \"Contract/FinancialManager.sol\":3635:3657  _unclaimedRentalIncome */\n      0x02\n        /* \"Contract/FinancialManager.sol\":3635:3669  _unclaimedRentalIncome[propertyId] */\n      0x00\n        /* \"Contract/FinancialManager.sol\":3658:3668  propertyId */\n      dup7\n        /* \"Contract/FinancialManager.sol\":3635:3669  _unclaimedRentalIncome[propertyId] */\n      dup2\n      mstore\n      0x20\n      add\n      swap1\n      dup2\n      mstore\n      0x20\n      add\n      0x00\n      keccak256\n        /* \"Contract/FinancialManager.sol\":3635:3675  _unclaimedRentalIncome[propertyId][user] */\n      0x00\n        /* \"Contract/FinancialManager.sol\":3670:3674  user */\n      dup6\n        /* \"Contract/FinancialManager.sol\":3635:3675  _unclaimedRentalIncome[propertyId][user] */\n      0xffffffffffffffffffffffffffffffffffffffff\n      and\n      0xffffffffffffffffffffffffffffffffffffffff\n      and\n      dup2\n      mstore\n      0x20\n      add\n      swap1\n      dup2\n      mstore\n      0x20\n      add\n      0x00\n      keccak256\n        /* \"Contract/FinancialManager.sol\":3635:3801  _unclaimedRentalIncome[propertyId][user] = _unclaimedRentalIncome[propertyId][user].add(... */\n      dup2\n      swap1\n      sstore\n      pop\n        /* \"Contract/FinancialManager.sol\":3542:3809  {... */\n      pop\n        /* \"Contract/FinancialManager.sol\":3438:3809  function updateUnclaimedRentalIncome(uint256 propertyId, address user, uint256 amount) public onlyOwner {... */\n      pop\n      pop\n      pop\n      jump\t// out\n        /* \"Contract/FinancialManager.sol\":4388:4758  function getUnclaimedRentalIncome(uint256 propertyId, address user) public view returns (uint256) {... */\n    tag_59:\n        /* \"Contract/FinancialManager.sol\":4477:4484  uint256 */\n      0x00\n        /* \"Contract/FinancialManager.sol\":4497:4534  PropertyFinancials storage financials */\n      0x00\n        /* \"Contract/FinancialManager.sol\":4537:4556  _propertyFinancials */\n      0x01\n        /* \"Contract/FinancialManager.sol\":4537:4568  _propertyFinancials[propertyId] */\n      0x00\n        /* \"Contract/FinancialManager.sol\":4557:4567  propertyId */\n      dup6\n        /* \"Contract/FinancialManager.sol\":4537:4568  _propertyFinancials[propertyId] */\n      dup2\n      mstore\n      0x20\n      add\n      swap1\n      dup2\n      mstore\n      0x20\n      add\n      0x00\n      keccak256\n        /* \"Contract/FinancialManager.sol\":4497:4568  PropertyFinancials storage financials = _propertyFinancials[propertyId] */\n      swap1\n      pop\n        /* \"Contract/FinancialManager.sol\":4579:4598  uint256 totalIncome */\n      0x00\n        /* \"Contract/FinancialManager.sol\":4601:4675  balanceOf(user, propertyId).mul(financials.rentalIncomePerShare).div(1e18) */\n      tag_136\n        /* \"Contract/FinancialManager.sol\":4670:4674  1e18 */\n      0x0de0b6b3a7640000\n        /* \"Contract/FinancialManager.sol\":4601:4665  balanceOf(user, propertyId).mul(financials.rentalIncomePerShare) */\n      tag_137\n        /* \"Contract/FinancialManager.sol\":4633:4643  financials */\n      dup5\n        /* \"Contract/FinancialManager.sol\":4633:4664  financials.rentalIncomePerShare */\n      0x01\n      add\n      sload\n        /* \"Contract/FinancialManager.sol\":4601:4628  balanceOf(user, propertyId) */\n      tag_138\n        /* \"Contract/FinancialManager.sol\":4611:4615  user */\n      dup9\n        /* \"Contract/FinancialManager.sol\":4617:4627  propertyId */\n      dup11\n        /* \"Contract/FinancialManager.sol\":4601:4610  balanceOf */\n      tag_23\n        /* \"Contract/FinancialManager.sol\":4601:4628  balanceOf(user, propertyId) */\n      jump\t// in\n    tag_138:\n        /* \"Contract/FinancialManager.sol\":4601:4632  balanceOf(user, propertyId).mul */\n      tag_97\n      swap1\n        /* \"Contract/FinancialManager.sol\":4601:4665  balanceOf(user, propertyId).mul(financials.rentalIncomePerShare) */\n      swap2\n      swap1\n      0xffffffff\n      and\n      jump\t// in\n    tag_137:\n        /* \"Contract/FinancialManager.sol\":4601:4669  balanceOf(user, propertyId).mul(financials.rentalIncomePerShare).div */\n      tag_98\n      swap1\n        /* \"Contract/FinancialManager.sol\":4601:4675  balanceOf(user, propertyId).mul(financials.rentalIncomePerShare).div(1e18) */\n      swap2\n      swap1\n      0xffffffff\n      and\n      jump\t// in\n    tag_136:\n        /* \"Contract/FinancialManager.sol\":4579:4675  uint256 totalIncome = balanceOf(user, propertyId).mul(financials.rentalIncomePerShare).div(1e18) */\n      swap1\n      pop\n        /* \"Contract/FinancialManager.sol\":4693:4750  totalIncome.sub(_unclaimedRentalIncome[propertyId][user]) */\n      tag_139\n        /* \"Contract/FinancialManager.sol\":4709:4731  _unclaimedRentalIncome */\n      0x02\n        /* \"Contract/FinancialManager.sol\":4709:4743  _unclaimedRentalIncome[propertyId] */\n      0x00\n        /* \"Contract/FinancialManager.sol\":4732:4742  propertyId */\n      dup8\n        /* \"Contract/FinancialManager.sol\":4709:4743  _unclaimedRentalIncome[propertyId] */\n      dup2\n      mstore\n      0x20\n      add\n      swap1\n      dup2\n      mstore\n      0x20\n      add\n      0x00\n      keccak256\n        /* \"Contract/FinancialManager.sol\":4709:4749  _unclaimedRentalIncome[propertyId][user] */\n      0x00\n        /* \"Contract/FinancialManager.sol\":4744:4748  user */\n      dup7\n        /* \"Contract/FinancialManager.sol\":4709:4749  _unclaimedRentalIncome[propertyId][user] */\n      0xffffffffffffffffffffffffffffffffffffffff\n      and\n      0xffffffffffffffffffffffffffffffffffffffff\n      and\n      dup2\n      mstore\n      0x20\n      add\n      swap1\n      dup2\n      mstore\n      0x20\n      add\n      0x00\n      keccak256\n      sload\n        /* \"Contract/FinancialManager.sol\":4693:4704  totalIncome */\n      dup3\n        /* \"Contract/FinancialManager.sol\":4693:4708  totalIncome.sub */\n      tag_90\n      swap1\n        /* \"Contract/FinancialManager.sol\":4693:4750  totalIncome.sub(_unclaimedRentalIncome[propertyId][user]) */\n      swap2\n      swap1\n      0xffffffff\n      and\n      jump\t// in\n    tag_139:\n        /* \"Contract/FinancialManager.sol\":4686:4750  return totalIncome.sub(_unclaimedRentalIncome[propertyId][user]) */\n      swap3\n      pop\n      pop\n      pop\n        /* \"Contract/FinancialManager.sol\":4388:4758  function getUnclaimedRentalIncome(uint256 propertyId, address user) public view returns (uint256) {... */\n      swap3\n      swap2\n      pop\n      pop\n      jump\t// out\n        /* \"@openzeppelin/contracts/access/Ownable.sol\":2293:2394  function renounceOwnership() public virtual onlyOwner {... */\n    tag_62:\n        /* \"@openzeppelin/contracts/access/Ownable.sol\":1531:1544  _checkOwner() */\n      tag_141\n        /* \"@openzeppelin/contracts/access/Ownable.sol\":1531:1542  _checkOwner */\n      tag_80\n        /* \"@openzeppelin/contracts/access/Ownable.sol\":1531:1544  _checkOwner() */\n      jump\t// in\n    tag_141:\n        /* \"@openzeppelin/contracts/access/Ownable.sol\":2357:2387  _transferOwnership(address(0)) */\n      tag_143\n        /* \"@openzeppelin/contracts/access/Ownable.sol\":2384:2385  0 */\n      0x00\n        /* \"@openzeppelin/contracts/access/Ownable.sol\":2357:2375  _transferOwnership */\n      tag_144\n        /* \"@openzeppelin/contracts/access/Ownable.sol\":2357:2387  _transferOwnership(address(0)) */\n      jump\t// in\n    tag_143:\n        /* \"@openzeppelin/contracts/access/Ownable.sol\":2293:2394  function renounceOwnership() public virtual onlyOwner {... */\n      jump\t// out\n        /* \"@openzeppelin/contracts/access/Ownable.sol\":1638:1723  function owner() public view virtual returns (address) {... */\n    tag_64:\n        /* \"@openzeppelin/contracts/access/Ownable.sol\":1684:1691  address */\n      0x00\n        /* \"@openzeppelin/contracts/access/Ownable.sol\":1710:1716  _owner */\n      0x00\n      0x00\n      swap1\n      sload\n      swap1\n      0x0100\n      exp\n      swap1\n      div\n      0xffffffffffffffffffffffffffffffffffffffff\n      and\n        /* \"@openzeppelin/contracts/access/Ownable.sol\":1703:1716  return _owner */\n      swap1\n      pop\n        /* \"@openzeppelin/contracts/access/Ownable.sol\":1638:1723  function owner() public view virtual returns (address) {... */\n      swap1\n      jump\t// out\n        /* \"Contract/FinancialManager.sol\":1893:2659  function updateRentalIncome(uint256 propertyId, uint256 newRentalIncome) public onlyOwner {... */\n    tag_69:\n        /* \"@openzeppelin/contracts/access/Ownable.sol\":1531:1544  _checkOwner() */\n      tag_147\n        /* \"@openzeppelin/contracts/access/Ownable.sol\":1531:1542  _checkOwner */\n      tag_80\n        /* \"@openzeppelin/contracts/access/Ownable.sol\":1531:1544  _checkOwner() */\n      jump\t// in\n    tag_147:\n        /* \"Contract/FinancialManager.sol\":1994:2031  PropertyFinancials storage financials */\n      0x00\n        /* \"Contract/FinancialManager.sol\":2034:2053  _propertyFinancials */\n      0x01\n        /* \"Contract/FinancialManager.sol\":2034:2065  _propertyFinancials[propertyId] */\n      0x00\n        /* \"Contract/FinancialManager.sol\":2054:2064  propertyId */\n      dup5\n        /* \"Contract/FinancialManager.sol\":2034:2065  _propertyFinancials[propertyId] */\n      dup2\n      mstore\n      0x20\n      add\n      swap1\n      dup2\n      mstore\n      0x20\n      add\n      0x00\n      keccak256\n        /* \"Contract/FinancialManager.sol\":1994:2065  PropertyFinancials storage financials = _propertyFinancials[propertyId] */\n      swap1\n      pop\n        /* \"Contract/FinancialManager.sol\":2084:2094  financials */\n      dup1\n        /* \"Contract/FinancialManager.sol\":2084:2103  financials.isActive */\n      0x04\n      add\n      0x00\n      swap1\n      sload\n      swap1\n      0x0100\n      exp\n      swap1\n      div\n      0xff\n      and\n        /* \"Contract/FinancialManager.sol\":2076:2130  require(financials.isActive, \"Property is not active\") */\n      tag_149\n      jumpi\n      mload(0x40)\n      0x08c379a000000000000000000000000000000000000000000000000000000000\n      dup2\n      mstore\n      0x04\n      add\n      tag_150\n      swap1\n      tag_108\n      jump\t// in\n    tag_150:\n      mload(0x40)\n      dup1\n      swap2\n      sub\n      swap1\n      revert\n    tag_149:\n        /* \"Contract/FinancialManager.sol\":2143:2165  uint256 rentalIncrease */\n      0x00\n        /* \"Contract/FinancialManager.sol\":2168:2217  newRentalIncome.sub(financials.totalRentalIncome) */\n      tag_151\n        /* \"Contract/FinancialManager.sol\":2188:2198  financials */\n      dup3\n        /* \"Contract/FinancialManager.sol\":2188:2216  financials.totalRentalIncome */\n      0x00\n      add\n      sload\n        /* \"Contract/FinancialManager.sol\":2168:2183  newRentalIncome */\n      dup5\n        /* \"Contract/FinancialManager.sol\":2168:2187  newRentalIncome.sub */\n      tag_90\n      swap1\n        /* \"Contract/FinancialManager.sol\":2168:2217  newRentalIncome.sub(financials.totalRentalIncome) */\n      swap2\n      swap1\n      0xffffffff\n      and\n      jump\t// in\n    tag_151:\n        /* \"Contract/FinancialManager.sol\":2143:2217  uint256 rentalIncrease = newRentalIncome.sub(financials.totalRentalIncome) */\n      swap1\n      pop\n        /* \"Contract/FinancialManager.sol\":2259:2274  newRentalIncome */\n      dup3\n        /* \"Contract/FinancialManager.sol\":2228:2238  financials */\n      dup3\n        /* \"Contract/FinancialManager.sol\":2228:2256  financials.totalRentalIncome */\n      0x00\n      add\n        /* \"Contract/FinancialManager.sol\":2228:2274  financials.totalRentalIncome = newRentalIncome */\n      dup2\n      swap1\n      sstore\n      pop\n        /* \"Contract/FinancialManager.sol\":2287:2311  uint256 increasePerShare */\n      0x00\n        /* \"Contract/FinancialManager.sol\":2314:2366  rentalIncrease.mul(1e18).div(financials.totalShares) */\n      tag_152\n        /* \"Contract/FinancialManager.sol\":2343:2353  financials */\n      dup4\n        /* \"Contract/FinancialManager.sol\":2343:2365  financials.totalShares */\n      0x07\n      add\n      sload\n        /* \"Contract/FinancialManager.sol\":2314:2338  rentalIncrease.mul(1e18) */\n      tag_153\n        /* \"Contract/FinancialManager.sol\":2333:2337  1e18 */\n      0x0de0b6b3a7640000\n        /* \"Contract/FinancialManager.sol\":2314:2328  rentalIncrease */\n      dup6\n        /* \"Contract/FinancialManager.sol\":2314:2332  rentalIncrease.mul */\n      tag_97\n      swap1\n        /* \"Contract/FinancialManager.sol\":2314:2338  rentalIncrease.mul(1e18) */\n      swap2\n      swap1\n      0xffffffff\n      and\n      jump\t// in\n    tag_153:\n        /* \"Contract/FinancialManager.sol\":2314:2342  rentalIncrease.mul(1e18).div */\n      tag_98\n      swap1\n        /* \"Contract/FinancialManager.sol\":2314:2366  rentalIncrease.mul(1e18).div(financials.totalShares) */\n      swap2\n      swap1\n      0xffffffff\n      and\n      jump\t// in\n    tag_152:\n        /* \"Contract/FinancialManager.sol\":2287:2366  uint256 increasePerShare = rentalIncrease.mul(1e18).div(financials.totalShares) */\n      swap1\n      pop\n        /* \"Contract/FinancialManager.sol\":2411:2464  financials.rentalIncomePerShare.add(increasePerShare) */\n      tag_154\n        /* \"Contract/FinancialManager.sol\":2447:2463  increasePerShare */\n      dup2\n        /* \"Contract/FinancialManager.sol\":2411:2421  financials */\n      dup5\n        /* \"Contract/FinancialManager.sol\":2411:2442  financials.rentalIncomePerShare */\n      0x01\n      add\n      sload\n        /* \"Contract/FinancialManager.sol\":2411:2446  financials.rentalIncomePerShare.add */\n      tag_116\n      swap1\n        /* \"Contract/FinancialManager.sol\":2411:2464  financials.rentalIncomePerShare.add(increasePerShare) */\n      swap2\n      swap1\n      0xffffffff\n      and\n      jump\t// in\n    tag_154:\n        /* \"Contract/FinancialManager.sol\":2377:2387  financials */\n      dup4\n        /* \"Contract/FinancialManager.sol\":2377:2408  financials.rentalIncomePerShare */\n      0x01\n      add\n        /* \"Contract/FinancialManager.sol\":2377:2464  financials.rentalIncomePerShare = financials.rentalIncomePerShare.add(increasePerShare) */\n      dup2\n      swap1\n      sstore\n      pop\n        /* \"Contract/FinancialManager.sol\":2507:2522  block.timestamp */\n      timestamp\n        /* \"Contract/FinancialManager.sol\":2477:2487  financials */\n      dup4\n        /* \"Contract/FinancialManager.sol\":2477:2504  financials.lastRentalUpdate */\n      0x02\n      add\n        /* \"Contract/FinancialManager.sol\":2477:2522  financials.lastRentalUpdate = block.timestamp */\n      dup2\n      swap1\n      sstore\n      pop\n        /* \"Contract/FinancialManager.sol\":2533:2543  financials */\n      dup3\n        /* \"Contract/FinancialManager.sol\":2533:2563  financials.monthlyRentalIncome */\n      0x06\n      add\n        /* \"Contract/FinancialManager.sol\":2569:2584  newRentalIncome */\n      dup5\n        /* \"Contract/FinancialManager.sol\":2533:2585  financials.monthlyRentalIncome.push(newRentalIncome) */\n      swap1\n      dup1\n      0x01\n      dup2\n      sload\n      add\n      dup1\n      dup3\n      sstore\n      dup1\n      swap2\n      pop\n      pop\n      0x01\n      swap1\n      sub\n      swap1\n      0x00\n      mstore\n      keccak256(0x00, 0x20)\n      add\n      0x00\n      swap1\n      swap2\n      swap1\n      swap2\n      swap1\n      swap2\n      pop\n      sstore\n        /* \"Contract/FinancialManager.sol\":2623:2633  propertyId */\n      dup5\n        /* \"Contract/FinancialManager.sol\":2603:2651  RentalIncomeUpdated(propertyId, newRentalIncome) */\n      0xf94dbfcb5b95c844bd7d6995234872a96b708c97a775afa4123415b55de4ea2b\n        /* \"Contract/FinancialManager.sol\":2635:2650  newRentalIncome */\n      dup6\n        /* \"Contract/FinancialManager.sol\":2603:2651  RentalIncomeUpdated(propertyId, newRentalIncome) */\n      mload(0x40)\n      tag_156\n      swap2\n      swap1\n      tag_25\n      jump\t// in\n    tag_156:\n      mload(0x40)\n      dup1\n      swap2\n      sub\n      swap1\n      log2\n        /* \"Contract/FinancialManager.sol\":1983:2659  {... */\n      pop\n      pop\n      pop\n        /* \"Contract/FinancialManager.sol\":1893:2659  function updateRentalIncome(uint256 propertyId, uint256 newRentalIncome) public onlyOwner {... */\n      pop\n      pop\n      jump\t// out\n        /* \"Contract/FinancialManager.sol\":2673:3424  function distributeRentalIncome(uint256 propertyId) public {... */\n    tag_72:\n        /* \"Contract/FinancialManager.sol\":2743:2780  PropertyFinancials storage financials */\n      0x00\n        /* \"Contract/FinancialManager.sol\":2783:2802  _propertyFinancials */\n      0x01\n        /* \"Contract/FinancialManager.sol\":2783:2814  _propertyFinancials[propertyId] */\n      0x00\n        /* \"Contract/FinancialManager.sol\":2803:2813  propertyId */\n      dup4\n        /* \"Contract/FinancialManager.sol\":2783:2814  _propertyFinancials[propertyId] */\n      dup2\n      mstore\n      0x20\n      add\n      swap1\n      dup2\n      mstore\n      0x20\n      add\n      0x00\n      keccak256\n        /* \"Contract/FinancialManager.sol\":2743:2814  PropertyFinancials storage financials = _propertyFinancials[propertyId] */\n      swap1\n      pop\n        /* \"Contract/FinancialManager.sol\":2833:2843  financials */\n      dup1\n        /* \"Contract/FinancialManager.sol\":2833:2852  financials.isActive */\n      0x04\n      add\n      0x00\n      swap1\n      sload\n      swap1\n      0x0100\n      exp\n      swap1\n      div\n      0xff\n      and\n        /* \"Contract/FinancialManager.sol\":2825:2879  require(financials.isActive, \"Property is not active\") */\n      tag_158\n      jumpi\n      mload(0x40)\n      0x08c379a000000000000000000000000000000000000000000000000000000000\n      dup2\n      mstore\n      0x04\n      add\n      tag_159\n      swap1\n      tag_108\n      jump\t// in\n    tag_159:\n      mload(0x40)\n      dup1\n      swap2\n      sub\n      swap1\n      revert\n    tag_158:\n        /* \"Contract/FinancialManager.sol\":2892:2917  uint256 totalDistribution */\n      0x00\n        /* \"Contract/FinancialManager.sol\":2920:3047  financials.totalRentalIncome.sub(... */\n      tag_160\n        /* \"Contract/FinancialManager.sol\":2967:3036  financials.rentalIncomePerShare.mul(financials.totalShares).div(1e18) */\n      tag_161\n        /* \"Contract/FinancialManager.sol\":3031:3035  1e18 */\n      0x0de0b6b3a7640000\n        /* \"Contract/FinancialManager.sol\":2967:3026  financials.rentalIncomePerShare.mul(financials.totalShares) */\n      tag_162\n        /* \"Contract/FinancialManager.sol\":3003:3013  financials */\n      dup6\n        /* \"Contract/FinancialManager.sol\":3003:3025  financials.totalShares */\n      0x07\n      add\n      sload\n        /* \"Contract/FinancialManager.sol\":2967:2977  financials */\n      dup7\n        /* \"Contract/FinancialManager.sol\":2967:2998  financials.rentalIncomePerShare */\n      0x01\n      add\n      sload\n        /* \"Contract/FinancialManager.sol\":2967:3002  financials.rentalIncomePerShare.mul */\n      tag_97\n      swap1\n        /* \"Contract/FinancialManager.sol\":2967:3026  financials.rentalIncomePerShare.mul(financials.totalShares) */\n      swap2\n      swap1\n      0xffffffff\n      and\n      jump\t// in\n    tag_162:\n        /* \"Contract/FinancialManager.sol\":2967:3030  financials.rentalIncomePerShare.mul(financials.totalShares).div */\n      tag_98\n      swap1\n        /* \"Contract/FinancialManager.sol\":2967:3036  financials.rentalIncomePerShare.mul(financials.totalShares).div(1e18) */\n      swap2\n      swap1\n      0xffffffff\n      and\n      jump\t// in\n    tag_161:\n        /* \"Contract/FinancialManager.sol\":2920:2930  financials */\n      dup4\n        /* \"Contract/FinancialManager.sol\":2920:2948  financials.totalRentalIncome */\n      0x00\n      add\n      sload\n        /* \"Contract/FinancialManager.sol\":2920:2952  financials.totalRentalIncome.sub */\n      tag_90\n      swap1\n        /* \"Contract/FinancialManager.sol\":2920:3047  financials.totalRentalIncome.sub(... */\n      swap2\n      swap1\n      0xffffffff\n      and\n      jump\t// in\n    tag_160:\n        /* \"Contract/FinancialManager.sol\":2892:3047  uint256 totalDistribution = financials.totalRentalIncome.sub(... */\n      swap1\n      pop\n        /* \"Contract/FinancialManager.sol\":3082:3083  0 */\n      0x00\n        /* \"Contract/FinancialManager.sol\":3062:3079  totalDistribution */\n      dup2\n        /* \"Contract/FinancialManager.sol\":3062:3083  totalDistribution > 0 */\n      gt\n        /* \"Contract/FinancialManager.sol\":3058:3417  if (totalDistribution > 0) {... */\n      iszero\n      tag_163\n      jumpi\n        /* \"Contract/FinancialManager.sol\":3134:3258  financials.rentalIncomePerShare.add(... */\n      tag_164\n        /* \"Contract/FinancialManager.sol\":3188:3243  totalDistribution.mul(1e18).div(financials.totalShares) */\n      tag_165\n        /* \"Contract/FinancialManager.sol\":3220:3230  financials */\n      dup4\n        /* \"Contract/FinancialManager.sol\":3220:3242  financials.totalShares */\n      0x07\n      add\n      sload\n        /* \"Contract/FinancialManager.sol\":3188:3215  totalDistribution.mul(1e18) */\n      tag_166\n        /* \"Contract/FinancialManager.sol\":3210:3214  1e18 */\n      0x0de0b6b3a7640000\n        /* \"Contract/FinancialManager.sol\":3188:3205  totalDistribution */\n      dup6\n        /* \"Contract/FinancialManager.sol\":3188:3209  totalDistribution.mul */\n      tag_97\n      swap1\n        /* \"Contract/FinancialManager.sol\":3188:3215  totalDistribution.mul(1e18) */\n      swap2\n      swap1\n      0xffffffff\n      and\n      jump\t// in\n    tag_166:\n        /* \"Contract/FinancialManager.sol\":3188:3219  totalDistribution.mul(1e18).div */\n      tag_98\n      swap1\n        /* \"Contract/FinancialManager.sol\":3188:3243  totalDistribution.mul(1e18).div(financials.totalShares) */\n      swap2\n      swap1\n      0xffffffff\n      and\n      jump\t// in\n    tag_165:\n        /* \"Contract/FinancialManager.sol\":3134:3144  financials */\n      dup4\n        /* \"Contract/FinancialManager.sol\":3134:3165  financials.rentalIncomePerShare */\n      0x01\n      add\n      sload\n        /* \"Contract/FinancialManager.sol\":3134:3169  financials.rentalIncomePerShare.add */\n      tag_116\n      swap1\n        /* \"Contract/FinancialManager.sol\":3134:3258  financials.rentalIncomePerShare.add(... */\n      swap2\n      swap1\n      0xffffffff\n      and\n      jump\t// in\n    tag_164:\n        /* \"Contract/FinancialManager.sol\":3100:3110  financials */\n      dup3\n        /* \"Contract/FinancialManager.sol\":3100:3131  financials.rentalIncomePerShare */\n      0x01\n      add\n        /* \"Contract/FinancialManager.sol\":3100:3258  financials.rentalIncomePerShare = financials.rentalIncomePerShare.add(... */\n      dup2\n      swap1\n      sstore\n      pop\n        /* \"Contract/FinancialManager.sol\":3314:3329  block.timestamp */\n      timestamp\n        /* \"Contract/FinancialManager.sol\":3275:3285  financials */\n      dup3\n        /* \"Contract/FinancialManager.sol\":3275:3311  financials.lastDistributionTimestamp */\n      0x03\n      add\n        /* \"Contract/FinancialManager.sol\":3275:3329  financials.lastDistributionTimestamp = block.timestamp */\n      dup2\n      swap1\n      sstore\n      pop\n        /* \"Contract/FinancialManager.sol\":3375:3385  propertyId */\n      dup3\n        /* \"Contract/FinancialManager.sol\":3351:3405  RentalIncomeDistributed(propertyId, totalDistribution) */\n      0x05f22a7e13278e3ae8f7a891f9212866f009e17528e63bb103ffa4a2244e0a59\n        /* \"Contract/FinancialManager.sol\":3387:3404  totalDistribution */\n      dup3\n        /* \"Contract/FinancialManager.sol\":3351:3405  RentalIncomeDistributed(propertyId, totalDistribution) */\n      mload(0x40)\n      tag_167\n      swap2\n      swap1\n      tag_25\n      jump\t// in\n    tag_167:\n      mload(0x40)\n      dup1\n      swap2\n      sub\n      swap1\n      log2\n        /* \"Contract/FinancialManager.sol\":3058:3417  if (totalDistribution > 0) {... */\n    tag_163:\n        /* \"Contract/FinancialManager.sol\":2732:3424  {... */\n      pop\n      pop\n        /* \"Contract/FinancialManager.sol\":2673:3424  function distributeRentalIncome(uint256 propertyId) public {... */\n      pop\n      jump\t// out\n        /* \"@openzeppelin/contracts/access/Ownable.sol\":2543:2758  function transferOwnership(address newOwner) public virtual onlyOwner {... */\n    tag_76:\n        /* \"@openzeppelin/contracts/access/Ownable.sol\":1531:1544  _checkOwner() */\n      tag_169\n        /* \"@openzeppelin/contracts/access/Ownable.sol\":1531:1542  _checkOwner */\n      tag_80\n        /* \"@openzeppelin/contracts/access/Ownable.sol\":1531:1544  _checkOwner() */\n      jump\t// in\n    tag_169:\n        /* \"@openzeppelin/contracts/access/Ownable.sol\":2647:2648  0 */\n      0x00\n        /* \"@openzeppelin/contracts/access/Ownable.sol\":2627:2649  newOwner == address(0) */\n      0xffffffffffffffffffffffffffffffffffffffff\n      and\n        /* \"@openzeppelin/contracts/access/Ownable.sol\":2627:2635  newOwner */\n      dup2\n        /* \"@openzeppelin/contracts/access/Ownable.sol\":2627:2649  newOwner == address(0) */\n      0xffffffffffffffffffffffffffffffffffffffff\n      and\n      sub\n        /* \"@openzeppelin/contracts/access/Ownable.sol\":2623:2714  if (newOwner == address(0)) {... */\n      tag_171\n      jumpi\n        /* \"@openzeppelin/contracts/access/Ownable.sol\":2700:2701  0 */\n      0x00\n        /* \"@openzeppelin/contracts/access/Ownable.sol\":2672:2703  OwnableInvalidOwner(address(0)) */\n      mload(0x40)\n      0x1e4fbdf700000000000000000000000000000000000000000000000000000000\n      dup2\n      mstore\n      0x04\n      add\n      tag_172\n      swap2\n      swap1\n      tag_66\n      jump\t// in\n    tag_172:\n      mload(0x40)\n      dup1\n      swap2\n      sub\n      swap1\n      revert\n        /* \"@openzeppelin/contracts/access/Ownable.sol\":2623:2714  if (newOwner == address(0)) {... */\n    tag_171:\n        /* \"@openzeppelin/contracts/access/Ownable.sol\":2723:2751  _transferOwnership(newOwner) */\n      tag_173\n        /* \"@openzeppelin/contracts/access/Ownable.sol\":2742:2750  newOwner */\n      dup2\n        /* \"@openzeppelin/contracts/access/Ownable.sol\":2723:2741  _transferOwnership */\n      tag_144\n        /* \"@openzeppelin/contracts/access/Ownable.sol\":2723:2751  _transferOwnership(newOwner) */\n      jump\t// in\n    tag_173:\n        /* \"@openzeppelin/contracts/access/Ownable.sol\":2543:2758  function transferOwnership(address newOwner) public virtual onlyOwner {... */\n      pop\n      jump\t// out\n        /* \"@openzeppelin/contracts/access/Ownable.sol\":1796:1958  function _checkOwner() internal view virtual {... */\n    tag_80:\n        /* \"@openzeppelin/contracts/access/Ownable.sol\":1866:1878  _msgSender() */\n      tag_175\n        /* \"@openzeppelin/contracts/access/Ownable.sol\":1866:1876  _msgSender */\n      tag_176\n        /* \"@openzeppelin/contracts/access/Ownable.sol\":1866:1878  _msgSender() */\n      jump\t// in\n    tag_175:\n        /* \"@openzeppelin/contracts/access/Ownable.sol\":1855:1878  owner() != _msgSender() */\n      0xffffffffffffffffffffffffffffffffffffffff\n      and\n        /* \"@openzeppelin/contracts/access/Ownable.sol\":1855:1862  owner() */\n      tag_177\n        /* \"@openzeppelin/contracts/access/Ownable.sol\":1855:1860  owner */\n      tag_64\n        /* \"@openzeppelin/contracts/access/Ownable.sol\":1855:1862  owner() */\n      jump\t// in\n    tag_177:\n        /* \"@openzeppelin/contracts/access/Ownable.sol\":1855:1878  owner() != _msgSender() */\n      0xffffffffffffffffffffffffffffffffffffffff\n      and\n      eq\n        /* \"@openzeppelin/contracts/access/Ownable.sol\":1851:1952  if (owner() != _msgSender()) {... */\n      tag_178\n      jumpi\n        /* \"@openzeppelin/contracts/access/Ownable.sol\":1928:1940  _msgSender() */\n      tag_179\n        /* \"@openzeppelin/contracts/access/Ownable.sol\":1928:1938  _msgSender */\n      tag_176\n        /* \"@openzeppelin/contracts/access/Ownable.sol\":1928:1940  _msgSender() */\n      jump\t// in\n    tag_179:\n        /* \"@openzeppelin/contracts/access/Ownable.sol\":1901:1941  OwnableUnauthorizedAccount(_msgSender()) */\n      mload(0x40)\n      0x118cdaa700000000000000000000000000000000000000000000000000000000\n      dup2\n      mstore\n      0x04\n      add\n      tag_180\n      swap2\n      swap1\n      tag_66\n      jump\t// in\n    tag_180:\n      mload(0x40)\n      dup1\n      swap2\n      sub\n      swap1\n      revert\n        /* \"@openzeppelin/contracts/access/Ownable.sol\":1851:1952  if (owner() != _msgSender()) {... */\n    tag_178:\n        /* \"@openzeppelin/contracts/access/Ownable.sol\":1796:1958  function _checkOwner() internal view virtual {... */\n      jump\t// out\n        /* \"@openzeppelin/contracts/utils/math/SafeMath.sol\":3122:3218  function sub(uint256 a, uint256 b) internal pure returns (uint256) {... */\n    tag_90:\n        /* \"@openzeppelin/contracts/utils/math/SafeMath.sol\":3180:3187  uint256 */\n      0x00\n        /* \"@openzeppelin/contracts/utils/math/SafeMath.sol\":3210:3211  b */\n      dup2\n        /* \"@openzeppelin/contracts/utils/math/SafeMath.sol\":3206:3207  a */\n      dup4\n        /* \"@openzeppelin/contracts/utils/math/SafeMath.sol\":3206:3211  a - b */\n      tag_182\n      swap2\n      swap1\n      tag_183\n      jump\t// in\n    tag_182:\n        /* \"@openzeppelin/contracts/utils/math/SafeMath.sol\":3199:3211  return a - b */\n      swap1\n      pop\n        /* \"@openzeppelin/contracts/utils/math/SafeMath.sol\":3122:3218  function sub(uint256 a, uint256 b) internal pure returns (uint256) {... */\n      swap3\n      swap2\n      pop\n      pop\n      jump\t// out\n        /* \"@openzeppelin/contracts/utils/math/SafeMath.sol\":3465:3561  function mul(uint256 a, uint256 b) internal pure returns (uint256) {... */\n    tag_97:\n        /* \"@openzeppelin/contracts/utils/math/SafeMath.sol\":3523:3530  uint256 */\n      0x00\n        /* \"@openzeppelin/contracts/utils/math/SafeMath.sol\":3553:3554  b */\n      dup2\n        /* \"@openzeppelin/contracts/utils/math/SafeMath.sol\":3549:3550  a */\n      dup4\n        /* \"@openzeppelin/contracts/utils/math/SafeMath.sol\":3549:3554  a * b */\n      tag_185\n      swap2\n      swap1\n      tag_186\n      jump\t// in\n    tag_185:\n        /* \"@openzeppelin/contracts/utils/math/SafeMath.sol\":3542:3554  return a * b */\n      swap1\n      pop\n        /* \"@openzeppelin/contracts/utils/math/SafeMath.sol\":3465:3561  function mul(uint256 a, uint256 b) internal pure returns (uint256) {... */\n      swap3\n      swap2\n      pop\n      pop\n      jump\t// out\n        /* \"@openzeppelin/contracts/utils/math/SafeMath.sol\":3850:3946  function div(uint256 a, uint256 b) internal pure returns (uint256) {... */\n    tag_98:\n        /* \"@openzeppelin/contracts/utils/math/SafeMath.sol\":3908:3915  uint256 */\n      0x00\n        /* \"@openzeppelin/contracts/utils/math/SafeMath.sol\":3938:3939  b */\n      dup2\n        /* \"@openzeppelin/contracts/utils/math/SafeMath.sol\":3934:3935  a */\n      dup4\n        /* \"@openzeppelin/contracts/utils/math/SafeMath.sol\":3934:3939  a / b */\n      tag_188\n      swap2\n      swap1\n      tag_189\n      jump\t// in\n    tag_188:\n        /* \"@openzeppelin/contracts/utils/math/SafeMath.sol\":3927:3939  return a / b */\n      swap1\n      pop\n        /* \"@openzeppelin/contracts/utils/math/SafeMath.sol\":3850:3946  function div(uint256 a, uint256 b) internal pure returns (uint256) {... */\n      swap3\n      swap2\n      pop\n      pop\n      jump\t// out\n        /* \"@openzeppelin/contracts/utils/math/SafeMath.sol\":2755:2851  function add(uint256 a, uint256 b) internal pure returns (uint256) {... */\n    tag_116:\n        /* \"@openzeppelin/contracts/utils/math/SafeMath.sol\":2813:2820  uint256 */\n      0x00\n        /* \"@openzeppelin/contracts/utils/math/SafeMath.sol\":2843:2844  b */\n      dup2\n        /* \"@openzeppelin/contracts/utils/math/SafeMath.sol\":2839:2840  a */\n      dup4\n        /* \"@openzeppelin/contracts/utils/math/SafeMath.sol\":2839:2844  a + b */\n      tag_191\n      swap2\n      swap1\n      tag_192\n      jump\t// in\n    tag_191:\n        /* \"@openzeppelin/contracts/utils/math/SafeMath.sol\":2832:2844  return a + b */\n      swap1\n      pop\n        /* \"@openzeppelin/contracts/utils/math/SafeMath.sol\":2755:2851  function add(uint256 a, uint256 b) internal pure returns (uint256) {... */\n      swap3\n      swap2\n      pop\n      pop\n      jump\t// out\n        /* \"@openzeppelin/contracts/access/Ownable.sol\":2912:3099  function _transferOwnership(address newOwner) internal virtual {... */\n    tag_144:\n        /* \"@openzeppelin/contracts/access/Ownable.sol\":2985:3001  address oldOwner */\n      0x00\n        /* \"@openzeppelin/contracts/access/Ownable.sol\":3004:3010  _owner */\n      0x00\n      0x00\n      swap1\n      sload\n      swap1\n      0x0100\n      exp\n      swap1\n      div\n      0xffffffffffffffffffffffffffffffffffffffff\n      and\n        /* \"@openzeppelin/contracts/access/Ownable.sol\":2985:3010  address oldOwner = _owner */\n      swap1\n      pop\n        /* \"@openzeppelin/contracts/access/Ownable.sol\":3029:3037  newOwner */\n      dup2\n        /* \"@openzeppelin/contracts/access/Ownable.sol\":3020:3026  _owner */\n      0x00\n      0x00\n        /* \"@openzeppelin/contracts/access/Ownable.sol\":3020:3037  _owner = newOwner */\n      0x0100\n      exp\n      dup2\n      sload\n      dup2\n      0xffffffffffffffffffffffffffffffffffffffff\n      mul\n      not\n      and\n      swap1\n      dup4\n      0xffffffffffffffffffffffffffffffffffffffff\n      and\n      mul\n      or\n      swap1\n      sstore\n      pop\n        /* \"@openzeppelin/contracts/access/Ownable.sol\":3083:3091  newOwner */\n      dup2\n        /* \"@openzeppelin/contracts/access/Ownable.sol\":3052:3092  OwnershipTransferred(oldOwner, newOwner) */\n      0xffffffffffffffffffffffffffffffffffffffff\n      and\n        /* \"@openzeppelin/contracts/access/Ownable.sol\":3073:3081  oldOwner */\n      dup2\n        /* \"@openzeppelin/contracts/access/Ownable.sol\":3052:3092  OwnershipTransferred(oldOwner, newOwner) */\n      0xffffffffffffffffffffffffffffffffffffffff\n      and\n      0x8be0079c531659141344cd1fd0a4f28419497f9722a3daafe3b4186f6b6457e0\n      mload(0x40)\n      mload(0x40)\n      dup1\n      swap2\n      sub\n      swap1\n      log3\n        /* \"@openzeppelin/contracts/access/Ownable.sol\":2975:3099  {... */\n      pop\n        /* \"@openzeppelin/contracts/access/Ownable.sol\":2912:3099  function _transferOwnership(address newOwner) internal virtual {... */\n      pop\n      jump\t// out\n        /* \"@openzeppelin/contracts/utils/Context.sol\":656:752  function _msgSender() internal view virtual returns (address) {... */\n    tag_176:\n        /* \"@openzeppelin/contracts/utils/Context.sol\":709:716  address */\n      0x00\n        /* \"@openzeppelin/contracts/utils/Context.sol\":735:745  msg.sender */\n      caller\n        /* \"@openzeppelin/contracts/utils/Context.sol\":728:745  return msg.sender */\n      swap1\n      pop\n        /* \"@openzeppelin/contracts/utils/Context.sol\":656:752  function _msgSender() internal view virtual returns (address) {... */\n      swap1\n      jump\t// out\n    tag_87:\n      dup3\n      dup1\n      sload\n      dup3\n      dup3\n      sstore\n      swap1\n      0x00\n      mstore\n      keccak256(0x00, 0x20)\n      swap1\n      dup2\n      add\n      swap3\n      dup3\n      iszero\n      tag_195\n      jumpi\n      swap2\n      0x20\n      mul\n      dup3\n      add\n    tag_196:\n      dup3\n      dup2\n      gt\n      iszero\n      tag_197\n      jumpi\n      dup3\n      mload\n      dup3\n      sstore\n      swap2\n      0x20\n      add\n      swap2\n      swap1\n      0x01\n      add\n      swap1\n      jump(tag_196)\n    tag_197:\n    tag_195:\n      pop\n      swap1\n      pop\n      tag_198\n      swap2\n      swap1\n      tag_199\n      jump\t// in\n    tag_198:\n      pop\n      swap1\n      jump\t// out\n    tag_199:\n    tag_200:\n      dup1\n      dup3\n      gt\n      iszero\n      tag_201\n      jumpi\n      0x00\n      dup2\n      0x00\n      swap1\n      sstore\n      pop\n      0x01\n      add\n      jump(tag_200)\n    tag_201:\n      pop\n      swap1\n      jump\t// out\n        /* \"#utility.yul\":7:82   */\n    tag_202:\n        /* \"#utility.yul\":40:46   */\n      0x00\n        /* \"#utility.yul\":73:75   */\n      0x40\n        /* \"#utility.yul\":67:76   */\n      mload\n        /* \"#utility.yul\":57:76   */\n      swap1\n      pop\n        /* \"#utility.yul\":7:82   */\n      swap1\n      jump\t// out\n        /* \"#utility.yul\":88:205   */\n    tag_203:\n        /* \"#utility.yul\":197:198   */\n      0x00\n        /* \"#utility.yul\":194:195   */\n      0x00\n        /* \"#utility.yul\":187:199   */\n      revert\n        /* \"#utility.yul\":211:328   */\n    tag_204:\n        /* \"#utility.yul\":320:321   */\n      0x00\n        /* \"#utility.yul\":317:318   */\n      0x00\n        /* \"#utility.yul\":310:322   */\n      revert\n        /* \"#utility.yul\":334:460   */\n    tag_205:\n        /* \"#utility.yul\":371:378   */\n      0x00\n        /* \"#utility.yul\":411:453   */\n      0xffffffffffffffffffffffffffffffffffffffff\n        /* \"#utility.yul\":404:409   */\n      dup3\n        /* \"#utility.yul\":400:454   */\n      and\n        /* \"#utility.yul\":389:454   */\n      swap1\n      pop\n        /* \"#utility.yul\":334:460   */\n      swap2\n      swap1\n      pop\n      jump\t// out\n        /* \"#utility.yul\":466:562   */\n    tag_206:\n        /* \"#utility.yul\":503:510   */\n      0x00\n        /* \"#utility.yul\":532:556   */\n      tag_244\n        /* \"#utility.yul\":550:555   */\n      dup3\n        /* \"#utility.yul\":532:556   */\n      tag_205\n      jump\t// in\n    tag_244:\n        /* \"#utility.yul\":521:556   */\n      swap1\n      pop\n        /* \"#utility.yul\":466:562   */\n      swap2\n      swap1\n      pop\n      jump\t// out\n        /* \"#utility.yul\":568:690   */\n    tag_207:\n        /* \"#utility.yul\":641:665   */\n      tag_246\n        /* \"#utility.yul\":659:664   */\n      dup2\n        /* \"#utility.yul\":641:665   */\n      tag_206\n      jump\t// in\n    tag_246:\n        /* \"#utility.yul\":634:639   */\n      dup2\n        /* \"#utility.yul\":631:666   */\n      eq\n        /* \"#utility.yul\":621:684   */\n      tag_247\n      jumpi\n        /* \"#utility.yul\":680:681   */\n      0x00\n        /* \"#utility.yul\":677:678   */\n      0x00\n        /* \"#utility.yul\":670:682   */\n      revert\n        /* \"#utility.yul\":621:684   */\n    tag_247:\n        /* \"#utility.yul\":568:690   */\n      pop\n      jump\t// out\n        /* \"#utility.yul\":696:835   */\n    tag_208:\n        /* \"#utility.yul\":742:747   */\n      0x00\n        /* \"#utility.yul\":780:786   */\n      dup2\n        /* \"#utility.yul\":767:787   */\n      calldataload\n        /* \"#utility.yul\":758:787   */\n      swap1\n      pop\n        /* \"#utility.yul\":796:829   */\n      tag_249\n        /* \"#utility.yul\":823:828   */\n      dup2\n        /* \"#utility.yul\":796:829   */\n      tag_207\n      jump\t// in\n    tag_249:\n        /* \"#utility.yul\":696:835   */\n      swap3\n      swap2\n      pop\n      pop\n      jump\t// out\n        /* \"#utility.yul\":841:918   */\n    tag_209:\n        /* \"#utility.yul\":878:885   */\n      0x00\n        /* \"#utility.yul\":907:912   */\n      dup2\n        /* \"#utility.yul\":896:912   */\n      swap1\n      pop\n        /* \"#utility.yul\":841:918   */\n      swap2\n      swap1\n      pop\n      jump\t// out\n        /* \"#utility.yul\":924:1046   */\n    tag_210:\n        /* \"#utility.yul\":997:1021   */\n      tag_252\n        /* \"#utility.yul\":1015:1020   */\n      dup2\n        /* \"#utility.yul\":997:1021   */\n      tag_209\n      jump\t// in\n    tag_252:\n        /* \"#utility.yul\":990:995   */\n      dup2\n        /* \"#utility.yul\":987:1022   */\n      eq\n        /* \"#utility.yul\":977:1040   */\n      tag_253\n      jumpi\n        /* \"#utility.yul\":1036:1037   */\n      0x00\n        /* \"#utility.yul\":1033:1034   */\n      0x00\n        /* \"#utility.yul\":1026:1038   */\n      revert\n        /* \"#utility.yul\":977:1040   */\n    tag_253:\n        /* \"#utility.yul\":924:1046   */\n      pop\n      jump\t// out\n        /* \"#utility.yul\":1052:1191   */\n    tag_211:\n        /* \"#utility.yul\":1098:1103   */\n      0x00\n        /* \"#utility.yul\":1136:1142   */\n      dup2\n        /* \"#utility.yul\":1123:1143   */\n      calldataload\n        /* \"#utility.yul\":1114:1143   */\n      swap1\n      pop\n        /* \"#utility.yul\":1152:1185   */\n      tag_255\n        /* \"#utility.yul\":1179:1184   */\n      dup2\n        /* \"#utility.yul\":1152:1185   */\n      tag_210\n      jump\t// in\n    tag_255:\n        /* \"#utility.yul\":1052:1191   */\n      swap3\n      swap2\n      pop\n      pop\n      jump\t// out\n        /* \"#utility.yul\":1197:1671   */\n    tag_22:\n        /* \"#utility.yul\":1265:1271   */\n      0x00\n        /* \"#utility.yul\":1273:1279   */\n      0x00\n        /* \"#utility.yul\":1322:1324   */\n      0x40\n        /* \"#utility.yul\":1310:1319   */\n      dup4\n        /* \"#utility.yul\":1301:1308   */\n      dup6\n        /* \"#utility.yul\":1297:1320   */\n      sub\n        /* \"#utility.yul\":1293:1325   */\n      slt\n        /* \"#utility.yul\":1290:1409   */\n      iszero\n      tag_257\n      jumpi\n        /* \"#utility.yul\":1328:1407   */\n      tag_258\n      tag_203\n      jump\t// in\n    tag_258:\n        /* \"#utility.yul\":1290:1409   */\n    tag_257:\n        /* \"#utility.yul\":1448:1449   */\n      0x00\n        /* \"#utility.yul\":1473:1526   */\n      tag_259\n        /* \"#utility.yul\":1518:1525   */\n      dup6\n        /* \"#utility.yul\":1509:1515   */\n      dup3\n        /* \"#utility.yul\":1498:1507   */\n      dup7\n        /* \"#utility.yul\":1494:1516   */\n      add\n        /* \"#utility.yul\":1473:1526   */\n      tag_208\n      jump\t// in\n    tag_259:\n        /* \"#utility.yul\":1463:1526   */\n      swap3\n      pop\n        /* \"#utility.yul\":1419:1536   */\n      pop\n        /* \"#utility.yul\":1575:1577   */\n      0x20\n        /* \"#utility.yul\":1601:1654   */\n      tag_260\n        /* \"#utility.yul\":1646:1653   */\n      dup6\n        /* \"#utility.yul\":1637:1643   */\n      dup3\n        /* \"#utility.yul\":1626:1635   */\n      dup7\n        /* \"#utility.yul\":1622:1644   */\n      add\n        /* \"#utility.yul\":1601:1654   */\n      tag_211\n      jump\t// in\n    tag_260:\n        /* \"#utility.yul\":1591:1654   */\n      swap2\n      pop\n        /* \"#utility.yul\":1546:1664   */\n      pop\n        /* \"#utility.yul\":1197:1671   */\n      swap3\n      pop\n      swap3\n      swap1\n      pop\n      jump\t// out\n        /* \"#utility.yul\":1677:1795   */\n    tag_212:\n        /* \"#utility.yul\":1764:1788   */\n      tag_262\n        /* \"#utility.yul\":1782:1787   */\n      dup2\n        /* \"#utility.yul\":1764:1788   */\n      tag_209\n      jump\t// in\n    tag_262:\n        /* \"#utility.yul\":1759:1762   */\n      dup3\n        /* \"#utility.yul\":1752:1789   */\n      mstore\n        /* \"#utility.yul\":1677:1795   */\n      pop\n      pop\n      jump\t// out\n        /* \"#utility.yul\":1801:2023   */\n    tag_25:\n        /* \"#utility.yul\":1894:1898   */\n      0x00\n        /* \"#utility.yul\":1932:1934   */\n      0x20\n        /* \"#utility.yul\":1921:1930   */\n      dup3\n        /* \"#utility.yul\":1917:1935   */\n      add\n        /* \"#utility.yul\":1909:1935   */\n      swap1\n      pop\n        /* \"#utility.yul\":1945:2016   */\n      tag_264\n        /* \"#utility.yul\":2013:2014   */\n      0x00\n        /* \"#utility.yul\":2002:2011   */\n      dup4\n        /* \"#utility.yul\":1998:2015   */\n      add\n        /* \"#utility.yul\":1989:1995   */\n      dup5\n        /* \"#utility.yul\":1945:2016   */\n      tag_212\n      jump\t// in\n    tag_264:\n        /* \"#utility.yul\":1801:2023   */\n      swap3\n      swap2\n      pop\n      pop\n      jump\t// out\n        /* \"#utility.yul\":2029:2648   */\n    tag_28:\n        /* \"#utility.yul\":2106:2112   */\n      0x00\n        /* \"#utility.yul\":2114:2120   */\n      0x00\n        /* \"#utility.yul\":2122:2128   */\n      0x00\n        /* \"#utility.yul\":2171:2173   */\n      0x60\n        /* \"#utility.yul\":2159:2168   */\n      dup5\n        /* \"#utility.yul\":2150:2157   */\n      dup7\n        /* \"#utility.yul\":2146:2169   */\n      sub\n        /* \"#utility.yul\":2142:2174   */\n      slt\n        /* \"#utility.yul\":2139:2258   */\n      iszero\n      tag_266\n      jumpi\n        /* \"#utility.yul\":2177:2256   */\n      tag_267\n      tag_203\n      jump\t// in\n    tag_267:\n        /* \"#utility.yul\":2139:2258   */\n    tag_266:\n        /* \"#utility.yul\":2297:2298   */\n      0x00\n        /* \"#utility.yul\":2322:2375   */\n      tag_268\n        /* \"#utility.yul\":2367:2374   */\n      dup7\n        /* \"#utility.yul\":2358:2364   */\n      dup3\n        /* \"#utility.yul\":2347:2356   */\n      dup8\n        /* \"#utility.yul\":2343:2365   */\n      add\n        /* \"#utility.yul\":2322:2375   */\n      tag_211\n      jump\t// in\n    tag_268:\n        /* \"#utility.yul\":2312:2375   */\n      swap4\n      pop\n        /* \"#utility.yul\":2268:2385   */\n      pop\n        /* \"#utility.yul\":2424:2426   */\n      0x20\n        /* \"#utility.yul\":2450:2503   */\n      tag_269\n        /* \"#utility.yul\":2495:2502   */\n      dup7\n        /* \"#utility.yul\":2486:2492   */\n      dup3\n        /* \"#utility.yul\":2475:2484   */\n      dup8\n        /* \"#utility.yul\":2471:2493   */\n      add\n        /* \"#utility.yul\":2450:2503   */\n      tag_211\n      jump\t// in\n    tag_269:\n        /* \"#utility.yul\":2440:2503   */\n      swap3\n      pop\n        /* \"#utility.yul\":2395:2513   */\n      pop\n        /* \"#utility.yul\":2552:2554   */\n      0x40\n        /* \"#utility.yul\":2578:2631   */\n      tag_270\n        /* \"#utility.yul\":2623:2630   */\n      dup7\n        /* \"#utility.yul\":2614:2620   */\n      dup3\n        /* \"#utility.yul\":2603:2612   */\n      dup8\n        /* \"#utility.yul\":2599:2621   */\n      add\n        /* \"#utility.yul\":2578:2631   */\n      tag_211\n      jump\t// in\n    tag_270:\n        /* \"#utility.yul\":2568:2631   */\n      swap2\n      pop\n        /* \"#utility.yul\":2523:2641   */\n      pop\n        /* \"#utility.yul\":2029:2648   */\n      swap3\n      pop\n      swap3\n      pop\n      swap3\n      jump\t// out\n        /* \"#utility.yul\":2654:2983   */\n    tag_32:\n        /* \"#utility.yul\":2713:2719   */\n      0x00\n        /* \"#utility.yul\":2762:2764   */\n      0x20\n        /* \"#utility.yul\":2750:2759   */\n      dup3\n        /* \"#utility.yul\":2741:2748   */\n      dup5\n        /* \"#utility.yul\":2737:2760   */\n      sub\n        /* \"#utility.yul\":2733:2765   */\n      slt\n        /* \"#utility.yul\":2730:2849   */\n      iszero\n      tag_272\n      jumpi\n        /* \"#utility.yul\":2768:2847   */\n      tag_273\n      tag_203\n      jump\t// in\n    tag_273:\n        /* \"#utility.yul\":2730:2849   */\n    tag_272:\n        /* \"#utility.yul\":2888:2889   */\n      0x00\n        /* \"#utility.yul\":2913:2966   */\n      tag_274\n        /* \"#utility.yul\":2958:2965   */\n      dup5\n        /* \"#utility.yul\":2949:2955   */\n      dup3\n        /* \"#utility.yul\":2938:2947   */\n      dup6\n        /* \"#utility.yul\":2934:2956   */\n      add\n        /* \"#utility.yul\":2913:2966   */\n      tag_211\n      jump\t// in\n    tag_274:\n        /* \"#utility.yul\":2903:2966   */\n      swap2\n      pop\n        /* \"#utility.yul\":2859:2976   */\n      pop\n        /* \"#utility.yul\":2654:2983   */\n      swap3\n      swap2\n      pop\n      pop\n      jump\t// out\n        /* \"#utility.yul\":2989:3542   */\n    tag_35:\n        /* \"#utility.yul\":3166:3170   */\n      0x00\n        /* \"#utility.yul\":3204:3207   */\n      0x80\n        /* \"#utility.yul\":3193:3202   */\n      dup3\n        /* \"#utility.yul\":3189:3208   */\n      add\n        /* \"#utility.yul\":3181:3208   */\n      swap1\n      pop\n        /* \"#utility.yul\":3218:3289   */\n      tag_276\n        /* \"#utility.yul\":3286:3287   */\n      0x00\n        /* \"#utility.yul\":3275:3284   */\n      dup4\n        /* \"#utility.yul\":3271:3288   */\n      add\n        /* \"#utility.yul\":3262:3268   */\n      dup8\n        /* \"#utility.yul\":3218:3289   */\n      tag_212\n      jump\t// in\n    tag_276:\n        /* \"#utility.yul\":3299:3371   */\n      tag_277\n        /* \"#utility.yul\":3367:3369   */\n      0x20\n        /* \"#utility.yul\":3356:3365   */\n      dup4\n        /* \"#utility.yul\":3352:3370   */\n      add\n        /* \"#utility.yul\":3343:3349   */\n      dup7\n        /* \"#utility.yul\":3299:3371   */\n      tag_212\n      jump\t// in\n    tag_277:\n        /* \"#utility.yul\":3381:3453   */\n      tag_278\n        /* \"#utility.yul\":3449:3451   */\n      0x40\n        /* \"#utility.yul\":3438:3447   */\n      dup4\n        /* \"#utility.yul\":3434:3452   */\n      add\n        /* \"#utility.yul\":3425:3431   */\n      dup6\n        /* \"#utility.yul\":3381:3453   */\n      tag_212\n      jump\t// in\n    tag_278:\n        /* \"#utility.yul\":3463:3535   */\n      tag_279\n        /* \"#utility.yul\":3531:3533   */\n      0x60\n        /* \"#utility.yul\":3520:3529   */\n      dup4\n        /* \"#utility.yul\":3516:3534   */\n      add\n        /* \"#utility.yul\":3507:3513   */\n      dup5\n        /* \"#utility.yul\":3463:3535   */\n      tag_212\n      jump\t// in\n    tag_279:\n        /* \"#utility.yul\":2989:3542   */\n      swap6\n      swap5\n      pop\n      pop\n      pop\n      pop\n      pop\n      jump\t// out\n        /* \"#utility.yul\":3548:4022   */\n    tag_38:\n        /* \"#utility.yul\":3616:3622   */\n      0x00\n        /* \"#utility.yul\":3624:3630   */\n      0x00\n        /* \"#utility.yul\":3673:3675   */\n      0x40\n        /* \"#utility.yul\":3661:3670   */\n      dup4\n        /* \"#utility.yul\":3652:3659   */\n      dup6\n        /* \"#utility.yul\":3648:3671   */\n      sub\n        /* \"#utility.yul\":3644:3676   */\n      slt\n        /* \"#utility.yul\":3641:3760   */\n      iszero\n      tag_281\n      jumpi\n        /* \"#utility.yul\":3679:3758   */\n      tag_282\n      tag_203\n      jump\t// in\n    tag_282:\n        /* \"#utility.yul\":3641:3760   */\n    tag_281:\n        /* \"#utility.yul\":3799:3800   */\n      0x00\n        /* \"#utility.yul\":3824:3877   */\n      tag_283\n        /* \"#utility.yul\":3869:3876   */\n      dup6\n        /* \"#utility.yul\":3860:3866   */\n      dup3\n        /* \"#utility.yul\":3849:3858   */\n      dup7\n        /* \"#utility.yul\":3845:3867   */\n      add\n        /* \"#utility.yul\":3824:3877   */\n      tag_211\n      jump\t// in\n    tag_283:\n        /* \"#utility.yul\":3814:3877   */\n      swap3\n      pop\n        /* \"#utility.yul\":3770:3887   */\n      pop\n        /* \"#utility.yul\":3926:3928   */\n      0x20\n        /* \"#utility.yul\":3952:4005   */\n      tag_284\n        /* \"#utility.yul\":3997:4004   */\n      dup6\n        /* \"#utility.yul\":3988:3994   */\n      dup3\n        /* \"#utility.yul\":3977:3986   */\n      dup7\n        /* \"#utility.yul\":3973:3995   */\n      add\n        /* \"#utility.yul\":3952:4005   */\n      tag_208\n      jump\t// in\n    tag_284:\n        /* \"#utility.yul\":3942:4005   */\n      swap2\n      pop\n        /* \"#utility.yul\":3897:4015   */\n      pop\n        /* \"#utility.yul\":3548:4022   */\n      swap3\n      pop\n      swap3\n      swap1\n      pop\n      jump\t// out\n        /* \"#utility.yul\":4028:4502   */\n    tag_43:\n        /* \"#utility.yul\":4096:4102   */\n      0x00\n        /* \"#utility.yul\":4104:4110   */\n      0x00\n        /* \"#utility.yul\":4153:4155   */\n      0x40\n        /* \"#utility.yul\":4141:4150   */\n      dup4\n        /* \"#utility.yul\":4132:4139   */\n      dup6\n        /* \"#utility.yul\":4128:4151   */\n      sub\n        /* \"#utility.yul\":4124:4156   */\n      slt\n        /* \"#utility.yul\":4121:4240   */\n      iszero\n      tag_286\n      jumpi\n        /* \"#utility.yul\":4159:4238   */\n      tag_287\n      tag_203\n      jump\t// in\n    tag_287:\n        /* \"#utility.yul\":4121:4240   */\n    tag_286:\n        /* \"#utility.yul\":4279:4280   */\n      0x00\n        /* \"#utility.yul\":4304:4357   */\n      tag_288\n        /* \"#utility.yul\":4349:4356   */\n      dup6\n        /* \"#utility.yul\":4340:4346   */\n      dup3\n        /* \"#utility.yul\":4329:4338   */\n      dup7\n        /* \"#utility.yul\":4325:4347   */\n      add\n        /* \"#utility.yul\":4304:4357   */\n      tag_211\n      jump\t// in\n    tag_288:\n        /* \"#utility.yul\":4294:4357   */\n      swap3\n      pop\n        /* \"#utility.yul\":4250:4367   */\n      pop\n        /* \"#utility.yul\":4406:4408   */\n      0x20\n        /* \"#utility.yul\":4432:4485   */\n      tag_289\n        /* \"#utility.yul\":4477:4484   */\n      dup6\n        /* \"#utility.yul\":4468:4474   */\n      dup3\n        /* \"#utility.yul\":4457:4466   */\n      dup7\n        /* \"#utility.yul\":4453:4475   */\n      add\n        /* \"#utility.yul\":4432:4485   */\n      tag_211\n      jump\t// in\n    tag_289:\n        /* \"#utility.yul\":4422:4485   */\n      swap2\n      pop\n        /* \"#utility.yul\":4377:4495   */\n      pop\n        /* \"#utility.yul\":4028:4502   */\n      swap3\n      pop\n      swap3\n      swap1\n      pop\n      jump\t// out\n        /* \"#utility.yul\":4508:4625   */\n    tag_213:\n        /* \"#utility.yul\":4617:4618   */\n      0x00\n        /* \"#utility.yul\":4614:4615   */\n      0x00\n        /* \"#utility.yul\":4607:4619   */\n      revert\n        /* \"#utility.yul\":4631:4748   */\n    tag_214:\n        /* \"#utility.yul\":4740:4741   */\n      0x00\n        /* \"#utility.yul\":4737:4738   */\n      0x00\n        /* \"#utility.yul\":4730:4742   */\n      revert\n        /* \"#utility.yul\":4754:4856   */\n    tag_215:\n        /* \"#utility.yul\":4795:4801   */\n      0x00\n        /* \"#utility.yul\":4846:4848   */\n      0x1f\n        /* \"#utility.yul\":4842:4849   */\n      not\n        /* \"#utility.yul\":4837:4839   */\n      0x1f\n        /* \"#utility.yul\":4830:4835   */\n      dup4\n        /* \"#utility.yul\":4826:4840   */\n      add\n        /* \"#utility.yul\":4822:4850   */\n      and\n        /* \"#utility.yul\":4812:4850   */\n      swap1\n      pop\n        /* \"#utility.yul\":4754:4856   */\n      swap2\n      swap1\n      pop\n      jump\t// out\n        /* \"#utility.yul\":4862:5042   */\n    tag_84:\n        /* \"#utility.yul\":4910:4987   */\n      0x4e487b7100000000000000000000000000000000000000000000000000000000\n        /* \"#utility.yul\":4907:4908   */\n      0x00\n        /* \"#utility.yul\":4900:4988   */\n      mstore\n        /* \"#utility.yul\":5007:5011   */\n      0x41\n        /* \"#utility.yul\":5004:5005   */\n      0x04\n        /* \"#utility.yul\":4997:5012   */\n      mstore\n        /* \"#utility.yul\":5031:5035   */\n      0x24\n        /* \"#utility.yul\":5028:5029   */\n      0x00\n        /* \"#utility.yul\":5021:5036   */\n      revert\n        /* \"#utility.yul\":5048:5329   */\n    tag_216:\n        /* \"#utility.yul\":5131:5158   */\n      tag_295\n        /* \"#utility.yul\":5153:5157   */\n      dup3\n        /* \"#utility.yul\":5131:5158   */\n      tag_215\n      jump\t// in\n    tag_295:\n        /* \"#utility.yul\":5123:5129   */\n      dup2\n        /* \"#utility.yul\":5119:5159   */\n      add\n        /* \"#utility.yul\":5261:5267   */\n      dup2\n        /* \"#utility.yul\":5249:5259   */\n      dup2\n        /* \"#utility.yul\":5246:5268   */\n      lt\n        /* \"#utility.yul\":5225:5243   */\n      0xffffffffffffffff\n        /* \"#utility.yul\":5213:5223   */\n      dup3\n        /* \"#utility.yul\":5210:5244   */\n      gt\n        /* \"#utility.yul\":5207:5269   */\n      or\n        /* \"#utility.yul\":5204:5292   */\n      iszero\n      tag_296\n      jumpi\n        /* \"#utility.yul\":5272:5290   */\n      tag_297\n      tag_84\n      jump\t// in\n    tag_297:\n        /* \"#utility.yul\":5204:5292   */\n    tag_296:\n        /* \"#utility.yul\":5312:5322   */\n      dup1\n        /* \"#utility.yul\":5308:5310   */\n      0x40\n        /* \"#utility.yul\":5301:5323   */\n      mstore\n        /* \"#utility.yul\":5091:5329   */\n      pop\n        /* \"#utility.yul\":5048:5329   */\n      pop\n      pop\n      jump\t// out\n        /* \"#utility.yul\":5335:5464   */\n    tag_217:\n        /* \"#utility.yul\":5369:5375   */\n      0x00\n        /* \"#utility.yul\":5396:5416   */\n      tag_299\n      tag_202\n      jump\t// in\n    tag_299:\n        /* \"#utility.yul\":5386:5416   */\n      swap1\n      pop\n        /* \"#utility.yul\":5425:5458   */\n      tag_300\n        /* \"#utility.yul\":5453:5457   */\n      dup3\n        /* \"#utility.yul\":5445:5451   */\n      dup3\n        /* \"#utility.yul\":5425:5458   */\n      tag_216\n      jump\t// in\n    tag_300:\n        /* \"#utility.yul\":5335:5464   */\n      swap2\n      swap1\n      pop\n      jump\t// out\n        /* \"#utility.yul\":5470:5778   */\n    tag_218:\n        /* \"#utility.yul\":5532:5536   */\n      0x00\n        /* \"#utility.yul\":5622:5640   */\n      0xffffffffffffffff\n        /* \"#utility.yul\":5614:5620   */\n      dup3\n        /* \"#utility.yul\":5611:5641   */\n      gt\n        /* \"#utility.yul\":5608:5664   */\n      iszero\n      tag_302\n      jumpi\n        /* \"#utility.yul\":5644:5662   */\n      tag_303\n      tag_84\n      jump\t// in\n    tag_303:\n        /* \"#utility.yul\":5608:5664   */\n    tag_302:\n        /* \"#utility.yul\":5682:5711   */\n      tag_304\n        /* \"#utility.yul\":5704:5710   */\n      dup3\n        /* \"#utility.yul\":5682:5711   */\n      tag_215\n      jump\t// in\n    tag_304:\n        /* \"#utility.yul\":5674:5711   */\n      swap1\n      pop\n        /* \"#utility.yul\":5766:5770   */\n      0x20\n        /* \"#utility.yul\":5760:5764   */\n      dup2\n        /* \"#utility.yul\":5756:5771   */\n      add\n        /* \"#utility.yul\":5748:5771   */\n      swap1\n      pop\n        /* \"#utility.yul\":5470:5778   */\n      swap2\n      swap1\n      pop\n      jump\t// out\n        /* \"#utility.yul\":5784:5932   */\n    tag_219:\n        /* \"#utility.yul\":5882:5888   */\n      dup3\n        /* \"#utility.yul\":5877:5880   */\n      dup2\n        /* \"#utility.yul\":5872:5875   */\n      dup4\n        /* \"#utility.yul\":5859:5889   */\n      calldatacopy\n        /* \"#utility.yul\":5923:5924   */\n      0x00\n        /* \"#utility.yul\":5914:5920   */\n      dup4\n        /* \"#utility.yul\":5909:5912   */\n      dup4\n        /* \"#utility.yul\":5905:5921   */\n      add\n        /* \"#utility.yul\":5898:5925   */\n      mstore\n        /* \"#utility.yul\":5784:5932   */\n      pop\n      pop\n      pop\n      jump\t// out\n        /* \"#utility.yul\":5938:6363   */\n    tag_220:\n        /* \"#utility.yul\":6016:6021   */\n      0x00\n        /* \"#utility.yul\":6041:6107   */\n      tag_307\n        /* \"#utility.yul\":6057:6106   */\n      tag_308\n        /* \"#utility.yul\":6099:6105   */\n      dup5\n        /* \"#utility.yul\":6057:6106   */\n      tag_218\n      jump\t// in\n    tag_308:\n        /* \"#utility.yul\":6041:6107   */\n      tag_217\n      jump\t// in\n    tag_307:\n        /* \"#utility.yul\":6032:6107   */\n      swap1\n      pop\n        /* \"#utility.yul\":6130:6136   */\n      dup3\n        /* \"#utility.yul\":6123:6128   */\n      dup2\n        /* \"#utility.yul\":6116:6137   */\n      mstore\n        /* \"#utility.yul\":6168:6172   */\n      0x20\n        /* \"#utility.yul\":6161:6166   */\n      dup2\n        /* \"#utility.yul\":6157:6173   */\n      add\n        /* \"#utility.yul\":6206:6209   */\n      dup5\n        /* \"#utility.yul\":6197:6203   */\n      dup5\n        /* \"#utility.yul\":6192:6195   */\n      dup5\n        /* \"#utility.yul\":6188:6204   */\n      add\n        /* \"#utility.yul\":6185:6210   */\n      gt\n        /* \"#utility.yul\":6182:6294   */\n      iszero\n      tag_309\n      jumpi\n        /* \"#utility.yul\":6213:6292   */\n      tag_310\n      tag_214\n      jump\t// in\n    tag_310:\n        /* \"#utility.yul\":6182:6294   */\n    tag_309:\n        /* \"#utility.yul\":6303:6357   */\n      tag_311\n        /* \"#utility.yul\":6350:6356   */\n      dup5\n        /* \"#utility.yul\":6345:6348   */\n      dup3\n        /* \"#utility.yul\":6340:6343   */\n      dup6\n        /* \"#utility.yul\":6303:6357   */\n      tag_219\n      jump\t// in\n    tag_311:\n        /* \"#utility.yul\":6022:6363   */\n      pop\n        /* \"#utility.yul\":5938:6363   */\n      swap4\n      swap3\n      pop\n      pop\n      pop\n      jump\t// out\n        /* \"#utility.yul\":6383:6723   */\n    tag_221:\n        /* \"#utility.yul\":6439:6444   */\n      0x00\n        /* \"#utility.yul\":6488:6491   */\n      dup3\n        /* \"#utility.yul\":6481:6485   */\n      0x1f\n        /* \"#utility.yul\":6473:6479   */\n      dup4\n        /* \"#utility.yul\":6469:6486   */\n      add\n        /* \"#utility.yul\":6465:6492   */\n      slt\n        /* \"#utility.yul\":6455:6577   */\n      tag_313\n      jumpi\n        /* \"#utility.yul\":6496:6575   */\n      tag_314\n      tag_213\n      jump\t// in\n    tag_314:\n        /* \"#utility.yul\":6455:6577   */\n    tag_313:\n        /* \"#utility.yul\":6613:6619   */\n      dup2\n        /* \"#utility.yul\":6600:6620   */\n      calldataload\n        /* \"#utility.yul\":6638:6717   */\n      tag_315\n        /* \"#utility.yul\":6713:6716   */\n      dup5\n        /* \"#utility.yul\":6705:6711   */\n      dup3\n        /* \"#utility.yul\":6698:6702   */\n      0x20\n        /* \"#utility.yul\":6690:6696   */\n      dup7\n        /* \"#utility.yul\":6686:6703   */\n      add\n        /* \"#utility.yul\":6638:6717   */\n      tag_220\n      jump\t// in\n    tag_315:\n        /* \"#utility.yul\":6629:6717   */\n      swap2\n      pop\n        /* \"#utility.yul\":6445:6723   */\n      pop\n        /* \"#utility.yul\":6383:6723   */\n      swap3\n      swap2\n      pop\n      pop\n      jump\t// out\n        /* \"#utility.yul\":6729:7528   */\n    tag_47:\n        /* \"#utility.yul\":6816:6822   */\n      0x00\n        /* \"#utility.yul\":6824:6830   */\n      0x00\n        /* \"#utility.yul\":6832:6838   */\n      0x00\n        /* \"#utility.yul\":6881:6883   */\n      0x60\n        /* \"#utility.yul\":6869:6878   */\n      dup5\n        /* \"#utility.yul\":6860:6867   */\n      dup7\n        /* \"#utility.yul\":6856:6879   */\n      sub\n        /* \"#utility.yul\":6852:6884   */\n      slt\n        /* \"#utility.yul\":6849:6968   */\n      iszero\n      tag_317\n      jumpi\n        /* \"#utility.yul\":6887:6966   */\n      tag_318\n      tag_203\n      jump\t// in\n    tag_318:\n        /* \"#utility.yul\":6849:6968   */\n    tag_317:\n        /* \"#utility.yul\":7007:7008   */\n      0x00\n        /* \"#utility.yul\":7032:7085   */\n      tag_319\n        /* \"#utility.yul\":7077:7084   */\n      dup7\n        /* \"#utility.yul\":7068:7074   */\n      dup3\n        /* \"#utility.yul\":7057:7066   */\n      dup8\n        /* \"#utility.yul\":7053:7075   */\n      add\n        /* \"#utility.yul\":7032:7085   */\n      tag_211\n      jump\t// in\n    tag_319:\n        /* \"#utility.yul\":7022:7085   */\n      swap4\n      pop\n        /* \"#utility.yul\":6978:7095   */\n      pop\n        /* \"#utility.yul\":7134:7136   */\n      0x20\n        /* \"#utility.yul\":7160:7213   */\n      tag_320\n        /* \"#utility.yul\":7205:7212   */\n      dup7\n        /* \"#utility.yul\":7196:7202   */\n      dup3\n        /* \"#utility.yul\":7185:7194   */\n      dup8\n        /* \"#utility.yul\":7181:7203   */\n      add\n        /* \"#utility.yul\":7160:7213   */\n      tag_211\n      jump\t// in\n    tag_320:\n        /* \"#utility.yul\":7150:7213   */\n      swap3\n      pop\n        /* \"#utility.yul\":7105:7223   */\n      pop\n        /* \"#utility.yul\":7290:7292   */\n      0x40\n        /* \"#utility.yul\":7279:7288   */\n      dup5\n        /* \"#utility.yul\":7275:7293   */\n      add\n        /* \"#utility.yul\":7262:7294   */\n      calldataload\n        /* \"#utility.yul\":7321:7339   */\n      0xffffffffffffffff\n        /* \"#utility.yul\":7313:7319   */\n      dup2\n        /* \"#utility.yul\":7310:7340   */\n      gt\n        /* \"#utility.yul\":7307:7424   */\n      iszero\n      tag_321\n      jumpi\n        /* \"#utility.yul\":7343:7422   */\n      tag_322\n      tag_204\n      jump\t// in\n    tag_322:\n        /* \"#utility.yul\":7307:7424   */\n    tag_321:\n        /* \"#utility.yul\":7448:7511   */\n      tag_323\n        /* \"#utility.yul\":7503:7510   */\n      dup7\n        /* \"#utility.yul\":7494:7500   */\n      dup3\n        /* \"#utility.yul\":7483:7492   */\n      dup8\n        /* \"#utility.yul\":7479:7501   */\n      add\n        /* \"#utility.yul\":7448:7511   */\n      tag_221\n      jump\t// in\n    tag_323:\n        /* \"#utility.yul\":7438:7511   */\n      swap2\n      pop\n        /* \"#utility.yul\":7233:7521   */\n      pop\n        /* \"#utility.yul\":6729:7528   */\n      swap3\n      pop\n      swap3\n      pop\n      swap3\n      jump\t// out\n        /* \"#utility.yul\":7534:7624   */\n    tag_222:\n        /* \"#utility.yul\":7568:7575   */\n      0x00\n        /* \"#utility.yul\":7611:7616   */\n      dup2\n        /* \"#utility.yul\":7604:7617   */\n      iszero\n        /* \"#utility.yul\":7597:7618   */\n      iszero\n        /* \"#utility.yul\":7586:7618   */\n      swap1\n      pop\n        /* \"#utility.yul\":7534:7624   */\n      swap2\n      swap1\n      pop\n      jump\t// out\n        /* \"#utility.yul\":7630:7746   */\n    tag_223:\n        /* \"#utility.yul\":7700:7721   */\n      tag_326\n        /* \"#utility.yul\":7715:7720   */\n      dup2\n        /* \"#utility.yul\":7700:7721   */\n      tag_222\n      jump\t// in\n    tag_326:\n        /* \"#utility.yul\":7693:7698   */\n      dup2\n        /* \"#utility.yul\":7690:7722   */\n      eq\n        /* \"#utility.yul\":7680:7740   */\n      tag_327\n      jumpi\n        /* \"#utility.yul\":7736:7737   */\n      0x00\n        /* \"#utility.yul\":7733:7734   */\n      0x00\n        /* \"#utility.yul\":7726:7738   */\n      revert\n        /* \"#utility.yul\":7680:7740   */\n    tag_327:\n        /* \"#utility.yul\":7630:7746   */\n      pop\n      jump\t// out\n        /* \"#utility.yul\":7752:7885   */\n    tag_224:\n        /* \"#utility.yul\":7795:7800   */\n      0x00\n        /* \"#utility.yul\":7833:7839   */\n      dup2\n        /* \"#utility.yul\":7820:7840   */\n      calldataload\n        /* \"#utility.yul\":7811:7840   */\n      swap1\n      pop\n        /* \"#utility.yul\":7849:7879   */\n      tag_329\n        /* \"#utility.yul\":7873:7878   */\n      dup2\n        /* \"#utility.yul\":7849:7879   */\n      tag_223\n      jump\t// in\n    tag_329:\n        /* \"#utility.yul\":7752:7885   */\n      swap3\n      swap2\n      pop\n      pop\n      jump\t// out\n        /* \"#utility.yul\":7891:8650   */\n    tag_51:\n        /* \"#utility.yul\":7974:7980   */\n      0x00\n        /* \"#utility.yul\":7982:7988   */\n      0x00\n        /* \"#utility.yul\":7990:7996   */\n      0x00\n        /* \"#utility.yul\":7998:8004   */\n      0x00\n        /* \"#utility.yul\":8047:8050   */\n      0x80\n        /* \"#utility.yul\":8035:8044   */\n      dup6\n        /* \"#utility.yul\":8026:8033   */\n      dup8\n        /* \"#utility.yul\":8022:8045   */\n      sub\n        /* \"#utility.yul\":8018:8051   */\n      slt\n        /* \"#utility.yul\":8015:8135   */\n      iszero\n      tag_331\n      jumpi\n        /* \"#utility.yul\":8054:8133   */\n      tag_332\n      tag_203\n      jump\t// in\n    tag_332:\n        /* \"#utility.yul\":8015:8135   */\n    tag_331:\n        /* \"#utility.yul\":8174:8175   */\n      0x00\n        /* \"#utility.yul\":8199:8252   */\n      tag_333\n        /* \"#utility.yul\":8244:8251   */\n      dup8\n        /* \"#utility.yul\":8235:8241   */\n      dup3\n        /* \"#utility.yul\":8224:8233   */\n      dup9\n        /* \"#utility.yul\":8220:8242   */\n      add\n        /* \"#utility.yul\":8199:8252   */\n      tag_211\n      jump\t// in\n    tag_333:\n        /* \"#utility.yul\":8189:8252   */\n      swap5\n      pop\n        /* \"#utility.yul\":8145:8262   */\n      pop\n        /* \"#utility.yul\":8301:8303   */\n      0x20\n        /* \"#utility.yul\":8327:8380   */\n      tag_334\n        /* \"#utility.yul\":8372:8379   */\n      dup8\n        /* \"#utility.yul\":8363:8369   */\n      dup3\n        /* \"#utility.yul\":8352:8361   */\n      dup9\n        /* \"#utility.yul\":8348:8370   */\n      add\n        /* \"#utility.yul\":8327:8380   */\n      tag_208\n      jump\t// in\n    tag_334:\n        /* \"#utility.yul\":8317:8380   */\n      swap4\n      pop\n        /* \"#utility.yul\":8272:8390   */\n      pop\n        /* \"#utility.yul\":8429:8431   */\n      0x40\n        /* \"#utility.yul\":8455:8508   */\n      tag_335\n        /* \"#utility.yul\":8500:8507   */\n      dup8\n        /* \"#utility.yul\":8491:8497   */\n      dup3\n        /* \"#utility.yul\":8480:8489   */\n      dup9\n        /* \"#utility.yul\":8476:8498   */\n      add\n        /* \"#utility.yul\":8455:8508   */\n      tag_211\n      jump\t// in\n    tag_335:\n        /* \"#utility.yul\":8445:8508   */\n      swap3\n      pop\n        /* \"#utility.yul\":8400:8518   */\n      pop\n        /* \"#utility.yul\":8557:8559   */\n      0x60\n        /* \"#utility.yul\":8583:8633   */\n      tag_336\n        /* \"#utility.yul\":8625:8632   */\n      dup8\n        /* \"#utility.yul\":8616:8622   */\n      dup3\n        /* \"#utility.yul\":8605:8614   */\n      dup9\n        /* \"#utility.yul\":8601:8623   */\n      add\n        /* \"#utility.yul\":8583:8633   */\n      tag_224\n      jump\t// in\n    tag_336:\n        /* \"#utility.yul\":8573:8633   */\n      swap2\n      pop\n        /* \"#utility.yul\":8528:8643   */\n      pop\n        /* \"#utility.yul\":7891:8650   */\n      swap3\n      swap6\n      swap2\n      swap5\n      pop\n      swap3\n      pop\n      jump\t// out\n        /* \"#utility.yul\":8656:9275   */\n    tag_55:\n        /* \"#utility.yul\":8733:8739   */\n      0x00\n        /* \"#utility.yul\":8741:8747   */\n      0x00\n        /* \"#utility.yul\":8749:8755   */\n      0x00\n        /* \"#utility.yul\":8798:8800   */\n      0x60\n        /* \"#utility.yul\":8786:8795   */\n      dup5\n        /* \"#utility.yul\":8777:8784   */\n      dup7\n        /* \"#utility.yul\":8773:8796   */\n      sub\n        /* \"#utility.yul\":8769:8801   */\n      slt\n        /* \"#utility.yul\":8766:8885   */\n      iszero\n      tag_338\n      jumpi\n        /* \"#utility.yul\":8804:8883   */\n      tag_339\n      tag_203\n      jump\t// in\n    tag_339:\n        /* \"#utility.yul\":8766:8885   */\n    tag_338:\n        /* \"#utility.yul\":8924:8925   */\n      0x00\n        /* \"#utility.yul\":8949:9002   */\n      tag_340\n        /* \"#utility.yul\":8994:9001   */\n      dup7\n        /* \"#utility.yul\":8985:8991   */\n      dup3\n        /* \"#utility.yul\":8974:8983   */\n      dup8\n        /* \"#utility.yul\":8970:8992   */\n      add\n        /* \"#utility.yul\":8949:9002   */\n      tag_211\n      jump\t// in\n    tag_340:\n        /* \"#utility.yul\":8939:9002   */\n      swap4\n      pop\n        /* \"#utility.yul\":8895:9012   */\n      pop\n        /* \"#utility.yul\":9051:9053   */\n      0x20\n        /* \"#utility.yul\":9077:9130   */\n      tag_341\n        /* \"#utility.yul\":9122:9129   */\n      dup7\n        /* \"#utility.yul\":9113:9119   */\n      dup3\n        /* \"#utility.yul\":9102:9111   */\n      dup8\n        /* \"#utility.yul\":9098:9120   */\n      add\n        /* \"#utility.yul\":9077:9130   */\n      tag_208\n      jump\t// in\n    tag_341:\n        /* \"#utility.yul\":9067:9130   */\n      swap3\n      pop\n        /* \"#utility.yul\":9022:9140   */\n      pop\n        /* \"#utility.yul\":9179:9181   */\n      0x40\n        /* \"#utility.yul\":9205:9258   */\n      tag_342\n        /* \"#utility.yul\":9250:9257   */\n      dup7\n        /* \"#utility.yul\":9241:9247   */\n      dup3\n        /* \"#utility.yul\":9230:9239   */\n      dup8\n        /* \"#utility.yul\":9226:9248   */\n      add\n        /* \"#utility.yul\":9205:9258   */\n      tag_211\n      jump\t// in\n    tag_342:\n        /* \"#utility.yul\":9195:9258   */\n      swap2\n      pop\n        /* \"#utility.yul\":9150:9268   */\n      pop\n        /* \"#utility.yul\":8656:9275   */\n      swap3\n      pop\n      swap3\n      pop\n      swap3\n      jump\t// out\n        /* \"#utility.yul\":9281:9399   */\n    tag_225:\n        /* \"#utility.yul\":9368:9392   */\n      tag_344\n        /* \"#utility.yul\":9386:9391   */\n      dup2\n        /* \"#utility.yul\":9368:9392   */\n      tag_206\n      jump\t// in\n    tag_344:\n        /* \"#utility.yul\":9363:9366   */\n      dup3\n        /* \"#utility.yul\":9356:9393   */\n      mstore\n        /* \"#utility.yul\":9281:9399   */\n      pop\n      pop\n      jump\t// out\n        /* \"#utility.yul\":9405:9627   */\n    tag_66:\n        /* \"#utility.yul\":9498:9502   */\n      0x00\n        /* \"#utility.yul\":9536:9538   */\n      0x20\n        /* \"#utility.yul\":9525:9534   */\n      dup3\n        /* \"#utility.yul\":9521:9539   */\n      add\n        /* \"#utility.yul\":9513:9539   */\n      swap1\n      pop\n        /* \"#utility.yul\":9549:9620   */\n      tag_346\n        /* \"#utility.yul\":9617:9618   */\n      0x00\n        /* \"#utility.yul\":9606:9615   */\n      dup4\n        /* \"#utility.yul\":9602:9619   */\n      add\n        /* \"#utility.yul\":9593:9599   */\n      dup5\n        /* \"#utility.yul\":9549:9620   */\n      tag_225\n      jump\t// in\n    tag_346:\n        /* \"#utility.yul\":9405:9627   */\n      swap3\n      swap2\n      pop\n      pop\n      jump\t// out\n        /* \"#utility.yul\":9633:9962   */\n    tag_75:\n        /* \"#utility.yul\":9692:9698   */\n      0x00\n        /* \"#utility.yul\":9741:9743   */\n      0x20\n        /* \"#utility.yul\":9729:9738   */\n      dup3\n        /* \"#utility.yul\":9720:9727   */\n      dup5\n        /* \"#utility.yul\":9716:9739   */\n      sub\n        /* \"#utility.yul\":9712:9744   */\n      slt\n        /* \"#utility.yul\":9709:9828   */\n      iszero\n      tag_348\n      jumpi\n        /* \"#utility.yul\":9747:9826   */\n      tag_349\n      tag_203\n      jump\t// in\n    tag_349:\n        /* \"#utility.yul\":9709:9828   */\n    tag_348:\n        /* \"#utility.yul\":9867:9868   */\n      0x00\n        /* \"#utility.yul\":9892:9945   */\n      tag_350\n        /* \"#utility.yul\":9937:9944   */\n      dup5\n        /* \"#utility.yul\":9928:9934   */\n      dup3\n        /* \"#utility.yul\":9917:9926   */\n      dup6\n        /* \"#utility.yul\":9913:9935   */\n      add\n        /* \"#utility.yul\":9892:9945   */\n      tag_208\n      jump\t// in\n    tag_350:\n        /* \"#utility.yul\":9882:9945   */\n      swap2\n      pop\n        /* \"#utility.yul\":9838:9955   */\n      pop\n        /* \"#utility.yul\":9633:9962   */\n      swap3\n      swap2\n      pop\n      pop\n      jump\t// out\n        /* \"#utility.yul\":9968:10137   */\n    tag_226:\n        /* \"#utility.yul\":10052:10063   */\n      0x00\n        /* \"#utility.yul\":10086:10092   */\n      dup3\n        /* \"#utility.yul\":10081:10084   */\n      dup3\n        /* \"#utility.yul\":10074:10093   */\n      mstore\n        /* \"#utility.yul\":10126:10130   */\n      0x20\n        /* \"#utility.yul\":10121:10124   */\n      dup3\n        /* \"#utility.yul\":10117:10131   */\n      add\n        /* \"#utility.yul\":10102:10131   */\n      swap1\n      pop\n        /* \"#utility.yul\":9968:10137   */\n      swap3\n      swap2\n      pop\n      pop\n      jump\t// out\n        /* \"#utility.yul\":10143:10318   */\n    tag_227:\n        /* \"#utility.yul\":10283:10310   */\n      0x4e6f2072656e74616c20696e636f6d6520746f20636c61696d00000000000000\n        /* \"#utility.yul\":10279:10280   */\n      0x00\n        /* \"#utility.yul\":10271:10277   */\n      dup3\n        /* \"#utility.yul\":10267:10281   */\n      add\n        /* \"#utility.yul\":10260:10311   */\n      mstore\n        /* \"#utility.yul\":10143:10318   */\n      pop\n      jump\t// out\n        /* \"#utility.yul\":10324:10690   */\n    tag_228:\n        /* \"#utility.yul\":10466:10469   */\n      0x00\n        /* \"#utility.yul\":10487:10554   */\n      tag_354\n        /* \"#utility.yul\":10551:10553   */\n      0x19\n        /* \"#utility.yul\":10546:10549   */\n      dup4\n        /* \"#utility.yul\":10487:10554   */\n      tag_226\n      jump\t// in\n    tag_354:\n        /* \"#utility.yul\":10480:10554   */\n      swap2\n      pop\n        /* \"#utility.yul\":10563:10656   */\n      tag_355\n        /* \"#utility.yul\":10652:10655   */\n      dup3\n        /* \"#utility.yul\":10563:10656   */\n      tag_227\n      jump\t// in\n    tag_355:\n        /* \"#utility.yul\":10681:10683   */\n      0x20\n        /* \"#utility.yul\":10676:10679   */\n      dup3\n        /* \"#utility.yul\":10672:10684   */\n      add\n        /* \"#utility.yul\":10665:10684   */\n      swap1\n      pop\n        /* \"#utility.yul\":10324:10690   */\n      swap2\n      swap1\n      pop\n      jump\t// out\n        /* \"#utility.yul\":10696:11115   */\n    tag_102:\n        /* \"#utility.yul\":10862:10866   */\n      0x00\n        /* \"#utility.yul\":10900:10902   */\n      0x20\n        /* \"#utility.yul\":10889:10898   */\n      dup3\n        /* \"#utility.yul\":10885:10903   */\n      add\n        /* \"#utility.yul\":10877:10903   */\n      swap1\n      pop\n        /* \"#utility.yul\":10949:10958   */\n      dup2\n        /* \"#utility.yul\":10943:10947   */\n      dup2\n        /* \"#utility.yul\":10939:10959   */\n      sub\n        /* \"#utility.yul\":10935:10936   */\n      0x00\n        /* \"#utility.yul\":10924:10933   */\n      dup4\n        /* \"#utility.yul\":10920:10937   */\n      add\n        /* \"#utility.yul\":10913:10960   */\n      mstore\n        /* \"#utility.yul\":10977:11108   */\n      tag_357\n        /* \"#utility.yul\":11103:11107   */\n      dup2\n        /* \"#utility.yul\":10977:11108   */\n      tag_228\n      jump\t// in\n    tag_357:\n        /* \"#utility.yul\":10969:11108   */\n      swap1\n      pop\n        /* \"#utility.yul\":10696:11115   */\n      swap2\n      swap1\n      pop\n      jump\t// out\n        /* \"#utility.yul\":11121:11293   */\n    tag_229:\n        /* \"#utility.yul\":11261:11285   */\n      0x50726f7065727479206973206e6f742061637469766500000000000000000000\n        /* \"#utility.yul\":11257:11258   */\n      0x00\n        /* \"#utility.yul\":11249:11255   */\n      dup3\n        /* \"#utility.yul\":11245:11259   */\n      add\n        /* \"#utility.yul\":11238:11286   */\n      mstore\n        /* \"#utility.yul\":11121:11293   */\n      pop\n      jump\t// out\n        /* \"#utility.yul\":11299:11665   */\n    tag_230:\n        /* \"#utility.yul\":11441:11444   */\n      0x00\n        /* \"#utility.yul\":11462:11529   */\n      tag_360\n        /* \"#utility.yul\":11526:11528   */\n      0x16\n        /* \"#utility.yul\":11521:11524   */\n      dup4\n        /* \"#utility.yul\":11462:11529   */\n      tag_226\n      jump\t// in\n    tag_360:\n        /* \"#utility.yul\":11455:11529   */\n      swap2\n      pop\n        /* \"#utility.yul\":11538:11631   */\n      tag_361\n        /* \"#utility.yul\":11627:11630   */\n      dup3\n        /* \"#utility.yul\":11538:11631   */\n      tag_229\n      jump\t// in\n    tag_361:\n        /* \"#utility.yul\":11656:11658   */\n      0x20\n        /* \"#utility.yul\":11651:11654   */\n      dup3\n        /* \"#utility.yul\":11647:11659   */\n      add\n        /* \"#utility.yul\":11640:11659   */\n      swap1\n      pop\n        /* \"#utility.yul\":11299:11665   */\n      swap2\n      swap1\n      pop\n      jump\t// out\n        /* \"#utility.yul\":11671:12090   */\n    tag_108:\n        /* \"#utility.yul\":11837:11841   */\n      0x00\n        /* \"#utility.yul\":11875:11877   */\n      0x20\n        /* \"#utility.yul\":11864:11873   */\n      dup3\n        /* \"#utility.yul\":11860:11878   */\n      add\n        /* \"#utility.yul\":11852:11878   */\n      swap1\n      pop\n        /* \"#utility.yul\":11924:11933   */\n      dup2\n        /* \"#utility.yul\":11918:11922   */\n      dup2\n        /* \"#utility.yul\":11914:11934   */\n      sub\n        /* \"#utility.yul\":11910:11911   */\n      0x00\n        /* \"#utility.yul\":11899:11908   */\n      dup4\n        /* \"#utility.yul\":11895:11912   */\n      add\n        /* \"#utility.yul\":11888:11935   */\n      mstore\n        /* \"#utility.yul\":11952:12083   */\n      tag_363\n        /* \"#utility.yul\":12078:12082   */\n      dup2\n        /* \"#utility.yul\":11952:12083   */\n      tag_230\n      jump\t// in\n    tag_363:\n        /* \"#utility.yul\":11944:12083   */\n      swap1\n      pop\n        /* \"#utility.yul\":11671:12090   */\n      swap2\n      swap1\n      pop\n      jump\t// out\n        /* \"#utility.yul\":12096:12195   */\n    tag_231:\n        /* \"#utility.yul\":12148:12154   */\n      0x00\n        /* \"#utility.yul\":12182:12187   */\n      dup2\n        /* \"#utility.yul\":12176:12188   */\n      mload\n        /* \"#utility.yul\":12166:12188   */\n      swap1\n      pop\n        /* \"#utility.yul\":12096:12195   */\n      swap2\n      swap1\n      pop\n      jump\t// out\n        /* \"#utility.yul\":12201:12340   */\n    tag_232:\n        /* \"#utility.yul\":12290:12296   */\n      dup3\n        /* \"#utility.yul\":12285:12288   */\n      dup2\n        /* \"#utility.yul\":12280:12283   */\n      dup4\n        /* \"#utility.yul\":12274:12297   */\n      mcopy\n        /* \"#utility.yul\":12331:12332   */\n      0x00\n        /* \"#utility.yul\":12322:12328   */\n      dup4\n        /* \"#utility.yul\":12317:12320   */\n      dup4\n        /* \"#utility.yul\":12313:12329   */\n      add\n        /* \"#utility.yul\":12306:12333   */\n      mstore\n        /* \"#utility.yul\":12201:12340   */\n      pop\n      pop\n      pop\n      jump\t// out\n        /* \"#utility.yul\":12346:12723   */\n    tag_233:\n        /* \"#utility.yul\":12434:12437   */\n      0x00\n        /* \"#utility.yul\":12462:12501   */\n      tag_367\n        /* \"#utility.yul\":12495:12500   */\n      dup3\n        /* \"#utility.yul\":12462:12501   */\n      tag_231\n      jump\t// in\n    tag_367:\n        /* \"#utility.yul\":12517:12588   */\n      tag_368\n        /* \"#utility.yul\":12581:12587   */\n      dup2\n        /* \"#utility.yul\":12576:12579   */\n      dup6\n        /* \"#utility.yul\":12517:12588   */\n      tag_226\n      jump\t// in\n    tag_368:\n        /* \"#utility.yul\":12510:12588   */\n      swap4\n      pop\n        /* \"#utility.yul\":12597:12662   */\n      tag_369\n        /* \"#utility.yul\":12655:12661   */\n      dup2\n        /* \"#utility.yul\":12650:12653   */\n      dup6\n        /* \"#utility.yul\":12643:12647   */\n      0x20\n        /* \"#utility.yul\":12636:12641   */\n      dup7\n        /* \"#utility.yul\":12632:12648   */\n      add\n        /* \"#utility.yul\":12597:12662   */\n      tag_232\n      jump\t// in\n    tag_369:\n        /* \"#utility.yul\":12687:12716   */\n      tag_370\n        /* \"#utility.yul\":12709:12715   */\n      dup2\n        /* \"#utility.yul\":12687:12716   */\n      tag_215\n      jump\t// in\n    tag_370:\n        /* \"#utility.yul\":12682:12685   */\n      dup5\n        /* \"#utility.yul\":12678:12717   */\n      add\n        /* \"#utility.yul\":12671:12717   */\n      swap2\n      pop\n        /* \"#utility.yul\":12438:12723   */\n      pop\n        /* \"#utility.yul\":12346:12723   */\n      swap3\n      swap2\n      pop\n      pop\n      jump\t// out\n        /* \"#utility.yul\":12729:13152   */\n    tag_118:\n        /* \"#utility.yul\":12870:12874   */\n      0x00\n        /* \"#utility.yul\":12908:12910   */\n      0x40\n        /* \"#utility.yul\":12897:12906   */\n      dup3\n        /* \"#utility.yul\":12893:12911   */\n      add\n        /* \"#utility.yul\":12885:12911   */\n      swap1\n      pop\n        /* \"#utility.yul\":12921:12992   */\n      tag_372\n        /* \"#utility.yul\":12989:12990   */\n      0x00\n        /* \"#utility.yul\":12978:12987   */\n      dup4\n        /* \"#utility.yul\":12974:12991   */\n      add\n        /* \"#utility.yul\":12965:12971   */\n      dup6\n        /* \"#utility.yul\":12921:12992   */\n      tag_212\n      jump\t// in\n    tag_372:\n        /* \"#utility.yul\":13039:13048   */\n      dup2\n        /* \"#utility.yul\":13033:13037   */\n      dup2\n        /* \"#utility.yul\":13029:13049   */\n      sub\n        /* \"#utility.yul\":13024:13026   */\n      0x20\n        /* \"#utility.yul\":13013:13022   */\n      dup4\n        /* \"#utility.yul\":13009:13027   */\n      add\n        /* \"#utility.yul\":13002:13050   */\n      mstore\n        /* \"#utility.yul\":13067:13145   */\n      tag_373\n        /* \"#utility.yul\":13140:13144   */\n      dup2\n        /* \"#utility.yul\":13131:13137   */\n      dup5\n        /* \"#utility.yul\":13067:13145   */\n      tag_233\n      jump\t// in\n    tag_373:\n        /* \"#utility.yul\":13059:13145   */\n      swap1\n      pop\n        /* \"#utility.yul\":12729:13152   */\n      swap4\n      swap3\n      pop\n      pop\n      pop\n      jump\t// out\n        /* \"#utility.yul\":13158:13328   */\n    tag_234:\n        /* \"#utility.yul\":13298:13320   */\n      0x496e73756666696369656e742062616c616e6365000000000000000000000000\n        /* \"#utility.yul\":13294:13295   */\n      0x00\n        /* \"#utility.yul\":13286:13292   */\n      dup3\n        /* \"#utility.yul\":13282:13296   */\n      add\n        /* \"#utility.yul\":13275:13321   */\n      mstore\n        /* \"#utility.yul\":13158:13328   */\n      pop\n      jump\t// out\n        /* \"#utility.yul\":13334:13700   */\n    tag_235:\n        /* \"#utility.yul\":13476:13479   */\n      0x00\n        /* \"#utility.yul\":13497:13564   */\n      tag_376\n        /* \"#utility.yul\":13561:13563   */\n      0x14\n        /* \"#utility.yul\":13556:13559   */\n      dup4\n        /* \"#utility.yul\":13497:13564   */\n      tag_226\n      jump\t// in\n    tag_376:\n        /* \"#utility.yul\":13490:13564   */\n      swap2\n      pop\n        /* \"#utility.yul\":13573:13666   */\n      tag_377\n        /* \"#utility.yul\":13662:13665   */\n      dup3\n        /* \"#utility.yul\":13573:13666   */\n      tag_234\n      jump\t// in\n    tag_377:\n        /* \"#utility.yul\":13691:13693   */\n      0x20\n        /* \"#utility.yul\":13686:13689   */\n      dup3\n        /* \"#utility.yul\":13682:13694   */\n      add\n        /* \"#utility.yul\":13675:13694   */\n      swap1\n      pop\n        /* \"#utility.yul\":13334:13700   */\n      swap2\n      swap1\n      pop\n      jump\t// out\n        /* \"#utility.yul\":13706:14125   */\n    tag_127:\n        /* \"#utility.yul\":13872:13876   */\n      0x00\n        /* \"#utility.yul\":13910:13912   */\n      0x20\n        /* \"#utility.yul\":13899:13908   */\n      dup3\n        /* \"#utility.yul\":13895:13913   */\n      add\n        /* \"#utility.yul\":13887:13913   */\n      swap1\n      pop\n        /* \"#utility.yul\":13959:13968   */\n      dup2\n        /* \"#utility.yul\":13953:13957   */\n      dup2\n        /* \"#utility.yul\":13949:13969   */\n      sub\n        /* \"#utility.yul\":13945:13946   */\n      0x00\n        /* \"#utility.yul\":13934:13943   */\n      dup4\n        /* \"#utility.yul\":13930:13947   */\n      add\n        /* \"#utility.yul\":13923:13970   */\n      mstore\n        /* \"#utility.yul\":13987:14118   */\n      tag_379\n        /* \"#utility.yul\":14113:14117   */\n      dup2\n        /* \"#utility.yul\":13987:14118   */\n      tag_235\n      jump\t// in\n    tag_379:\n        /* \"#utility.yul\":13979:14118   */\n      swap1\n      pop\n        /* \"#utility.yul\":13706:14125   */\n      swap2\n      swap1\n      pop\n      jump\t// out\n        /* \"#utility.yul\":14131:14311   */\n    tag_236:\n        /* \"#utility.yul\":14179:14256   */\n      0x4e487b7100000000000000000000000000000000000000000000000000000000\n        /* \"#utility.yul\":14176:14177   */\n      0x00\n        /* \"#utility.yul\":14169:14257   */\n      mstore\n        /* \"#utility.yul\":14276:14280   */\n      0x11\n        /* \"#utility.yul\":14273:14274   */\n      0x04\n        /* \"#utility.yul\":14266:14281   */\n      mstore\n        /* \"#utility.yul\":14300:14304   */\n      0x24\n        /* \"#utility.yul\":14297:14298   */\n      0x00\n        /* \"#utility.yul\":14290:14305   */\n      revert\n        /* \"#utility.yul\":14317:14511   */\n    tag_183:\n        /* \"#utility.yul\":14357:14361   */\n      0x00\n        /* \"#utility.yul\":14377:14397   */\n      tag_382\n        /* \"#utility.yul\":14395:14396   */\n      dup3\n        /* \"#utility.yul\":14377:14397   */\n      tag_209\n      jump\t// in\n    tag_382:\n        /* \"#utility.yul\":14372:14397   */\n      swap2\n      pop\n        /* \"#utility.yul\":14411:14431   */\n      tag_383\n        /* \"#utility.yul\":14429:14430   */\n      dup4\n        /* \"#utility.yul\":14411:14431   */\n      tag_209\n      jump\t// in\n    tag_383:\n        /* \"#utility.yul\":14406:14431   */\n      swap3\n      pop\n        /* \"#utility.yul\":14455:14456   */\n      dup3\n        /* \"#utility.yul\":14452:14453   */\n      dup3\n        /* \"#utility.yul\":14448:14457   */\n      sub\n        /* \"#utility.yul\":14440:14457   */\n      swap1\n      pop\n        /* \"#utility.yul\":14479:14480   */\n      dup2\n        /* \"#utility.yul\":14473:14477   */\n      dup2\n        /* \"#utility.yul\":14470:14481   */\n      gt\n        /* \"#utility.yul\":14467:14504   */\n      iszero\n      tag_384\n      jumpi\n        /* \"#utility.yul\":14484:14502   */\n      tag_385\n      tag_236\n      jump\t// in\n    tag_385:\n        /* \"#utility.yul\":14467:14504   */\n    tag_384:\n        /* \"#utility.yul\":14317:14511   */\n      swap3\n      swap2\n      pop\n      pop\n      jump\t// out\n        /* \"#utility.yul\":14517:14927   */\n    tag_186:\n        /* \"#utility.yul\":14557:14564   */\n      0x00\n        /* \"#utility.yul\":14580:14600   */\n      tag_387\n        /* \"#utility.yul\":14598:14599   */\n      dup3\n        /* \"#utility.yul\":14580:14600   */\n      tag_209\n      jump\t// in\n    tag_387:\n        /* \"#utility.yul\":14575:14600   */\n      swap2\n      pop\n        /* \"#utility.yul\":14614:14634   */\n      tag_388\n        /* \"#utility.yul\":14632:14633   */\n      dup4\n        /* \"#utility.yul\":14614:14634   */\n      tag_209\n      jump\t// in\n    tag_388:\n        /* \"#utility.yul\":14609:14634   */\n      swap3\n      pop\n        /* \"#utility.yul\":14669:14670   */\n      dup3\n        /* \"#utility.yul\":14666:14667   */\n      dup3\n        /* \"#utility.yul\":14662:14671   */\n      mul\n        /* \"#utility.yul\":14691:14721   */\n      tag_389\n        /* \"#utility.yul\":14709:14720   */\n      dup2\n        /* \"#utility.yul\":14691:14721   */\n      tag_209\n      jump\t// in\n    tag_389:\n        /* \"#utility.yul\":14680:14721   */\n      swap2\n      pop\n        /* \"#utility.yul\":14870:14871   */\n      dup3\n        /* \"#utility.yul\":14861:14868   */\n      dup3\n        /* \"#utility.yul\":14857:14872   */\n      div\n        /* \"#utility.yul\":14854:14855   */\n      dup5\n        /* \"#utility.yul\":14851:14873   */\n      eq\n        /* \"#utility.yul\":14831:14832   */\n      dup4\n        /* \"#utility.yul\":14824:14833   */\n      iszero\n        /* \"#utility.yul\":14804:14887   */\n      or\n        /* \"#utility.yul\":14781:14920   */\n      tag_390\n      jumpi\n        /* \"#utility.yul\":14900:14918   */\n      tag_391\n      tag_236\n      jump\t// in\n    tag_391:\n        /* \"#utility.yul\":14781:14920   */\n    tag_390:\n        /* \"#utility.yul\":14565:14927   */\n      pop\n        /* \"#utility.yul\":14517:14927   */\n      swap3\n      swap2\n      pop\n      pop\n      jump\t// out\n        /* \"#utility.yul\":14933:15113   */\n    tag_237:\n        /* \"#utility.yul\":14981:15058   */\n      0x4e487b7100000000000000000000000000000000000000000000000000000000\n        /* \"#utility.yul\":14978:14979   */\n      0x00\n        /* \"#utility.yul\":14971:15059   */\n      mstore\n        /* \"#utility.yul\":15078:15082   */\n      0x12\n        /* \"#utility.yul\":15075:15076   */\n      0x04\n        /* \"#utility.yul\":15068:15083   */\n      mstore\n        /* \"#utility.yul\":15102:15106   */\n      0x24\n        /* \"#utility.yul\":15099:15100   */\n      0x00\n        /* \"#utility.yul\":15092:15107   */\n      revert\n        /* \"#utility.yul\":15119:15304   */\n    tag_189:\n        /* \"#utility.yul\":15159:15160   */\n      0x00\n        /* \"#utility.yul\":15176:15196   */\n      tag_394\n        /* \"#utility.yul\":15194:15195   */\n      dup3\n        /* \"#utility.yul\":15176:15196   */\n      tag_209\n      jump\t// in\n    tag_394:\n        /* \"#utility.yul\":15171:15196   */\n      swap2\n      pop\n        /* \"#utility.yul\":15210:15230   */\n      tag_395\n        /* \"#utility.yul\":15228:15229   */\n      dup4\n        /* \"#utility.yul\":15210:15230   */\n      tag_209\n      jump\t// in\n    tag_395:\n        /* \"#utility.yul\":15205:15230   */\n      swap3\n      pop\n        /* \"#utility.yul\":15249:15250   */\n      dup3\n        /* \"#utility.yul\":15239:15274   */\n      tag_396\n      jumpi\n        /* \"#utility.yul\":15254:15272   */\n      tag_397\n      tag_237\n      jump\t// in\n    tag_397:\n        /* \"#utility.yul\":15239:15274   */\n    tag_396:\n        /* \"#utility.yul\":15296:15297   */\n      dup3\n        /* \"#utility.yul\":15293:15294   */\n      dup3\n        /* \"#utility.yul\":15289:15298   */\n      div\n        /* \"#utility.yul\":15284:15298   */\n      swap1\n      pop\n        /* \"#utility.yul\":15119:15304   */\n      swap3\n      swap2\n      pop\n      pop\n      jump\t// out\n        /* \"#utility.yul\":15310:15501   */\n    tag_192:\n        /* \"#utility.yul\":15350:15353   */\n      0x00\n        /* \"#utility.yul\":15369:15389   */\n      tag_399\n        /* \"#utility.yul\":15387:15388   */\n      dup3\n        /* \"#utility.yul\":15369:15389   */\n      tag_209\n      jump\t// in\n    tag_399:\n        /* \"#utility.yul\":15364:15389   */\n      swap2\n      pop\n        /* \"#utility.yul\":15403:15423   */\n      tag_400\n        /* \"#utility.yul\":15421:15422   */\n      dup4\n        /* \"#utility.yul\":15403:15423   */\n      tag_209\n      jump\t// in\n    tag_400:\n        /* \"#utility.yul\":15398:15423   */\n      swap3\n      pop\n        /* \"#utility.yul\":15446:15447   */\n      dup3\n        /* \"#utility.yul\":15443:15444   */\n      dup3\n        /* \"#utility.yul\":15439:15448   */\n      add\n        /* \"#utility.yul\":15432:15448   */\n      swap1\n      pop\n        /* \"#utility.yul\":15467:15470   */\n      dup1\n        /* \"#utility.yul\":15464:15465   */\n      dup3\n        /* \"#utility.yul\":15461:15471   */\n      gt\n        /* \"#utility.yul\":15458:15494   */\n      iszero\n      tag_401\n      jumpi\n        /* \"#utility.yul\":15474:15492   */\n      tag_402\n      tag_236\n      jump\t// in\n    tag_402:\n        /* \"#utility.yul\":15458:15494   */\n    tag_401:\n        /* \"#utility.yul\":15310:15501   */\n      swap3\n      swap2\n      pop\n      pop\n      jump\t// out\n\n    auxdata: 0xa264697066735822122064641ccbd144d997061d7438c3a16148c0eb0660efa7149e8345b7c9cfdc5cb864736f6c634300081c0033\n}\n",
				"bytecode": {
					"linkReferences": {},
					"object": "608060405234801561000f575f5ffd5b50335f73ffffffffffffffffffffffffffffffffffffffff168173ffffffffffffffffffffffffffffffffffffffff1603610081575f6040517f1e4fbdf70000000000000000000000000000000000000000000000000000000081526004016100789190610196565b60405180910390fd5b6100908161009660201b60201c565b506101af565b5f5f5f9054906101000a900473ffffffffffffffffffffffffffffffffffffffff169050815f5f6101000a81548173ffffffffffffffffffffffffffffffffffffffff021916908373ffffffffffffffffffffffffffffffffffffffff1602179055508173ffffffffffffffffffffffffffffffffffffffff168173ffffffffffffffffffffffffffffffffffffffff167f8be0079c531659141344cd1fd0a4f28419497f9722a3daafe3b4186f6b6457e060405160405180910390a35050565b5f73ffffffffffffffffffffffffffffffffffffffff82169050919050565b5f61018082610157565b9050919050565b61019081610176565b82525050565b5f6020820190506101a95f830184610187565b92915050565b6118e4806101bc5f395ff3fe608060405234801561000f575f5ffd5b50600436106100e7575f3560e01c806366184f501161008a5780638da5cb5b116100645780638da5cb5b14610244578063bf2ea18314610262578063db43919b1461027e578063f2fde38b1461029a576100e7565b806366184f50146101ee578063700bc2411461020a578063715018a61461023a576100e7565b80633b5bcf8b116100c65780633b5bcf8b1461016a5780633bd48e4b1461019a578063513cac80146101b6578063526bc60d146101d2576100e7565b8062fdd58e146100eb5780631dd6bf091461011b57806322b6ed2614610137575b5f5ffd5b61010560048036038101906101009190611133565b6102b6565b6040516101129190611180565b60405180910390f35b61013560048036038101906101309190611199565b61030c565b005b610151600480360381019061014c91906111e9565b610439565b6040516101619493929190611214565b60405180910390f35b610184600480360381019061017f9190611257565b610489565b6040516101919190611180565b60405180910390f35b6101b460048036038101906101af9190611295565b6105e4565b005b6101d060048036038101906101cb919061140f565b6106a1565b005b6101ec60048036038101906101e791906114b0565b61076c565b005b61020860048036038101906102039190611514565b610973565b005b610224600480360381019061021f9190611257565b610a74565b6040516102319190611180565b60405180910390f35b610242610b2f565b005b61024c610b42565b6040516102599190611573565b60405180910390f35b61027c60048036038101906102779190611295565b610b69565b005b610298600480360381019061029391906111e9565b610cb9565b005b6102b460048036038101906102af919061158c565b610e08565b005b5f60035f8381526020019081526020015f205f8473ffffffffffffffffffffffffffffffffffffffff1673ffffffffffffffffffffffffffffffffffffffff1681526020019081526020015f2054905092915050565b610314610e8c565b6040518061012001604052805f81526020015f81526020014281526020014281526020016001151581526020015f81526020015f67ffffffffffffffff811115610361576103606112eb565b5b60405190808252806020026020018201604052801561038f5781602001602082028036833780820191505090505b5081526020018381526020018281525060015f8581526020019081526020015f205f820151815f01556020820151816001015560408201518160020155606082015181600301556080820151816004015f6101000a81548160ff02191690831515021790555060a0820151816005015560c082015181600601908051906020019061041b92919061102f565b5060e082015181600701556101008201518160080155905050505050565b5f5f5f5f5f60015f8781526020019081526020015f209050805f015481600501546104748360050154845f0154610f1390919063ffffffff16565b83600801549450945094509450509193509193565b5f610492610e8c565b5f60015f8581526020019081526020015f2090505f6104e1670de0b6b3a76400006104d384600101546104c5888a6102b6565b610f2890919063ffffffff16565b610f3d90919063ffffffff16565b90505f61054360025f8881526020019081526020015f205f8773ffffffffffffffffffffffffffffffffffffffff1673ffffffffffffffffffffffffffffffffffffffff1681526020019081526020015f205483610f1390919063ffffffff16565b90505f8111610587576040517f08c379a000000000000000000000000000000000000000000000000000000000815260040161057e90611611565b60405180910390fd5b8160025f8881526020019081526020015f205f8773ffffffffffffffffffffffffffffffffffffffff1673ffffffffffffffffffffffffffffffffffffffff1681526020019081526020015f208190555080935050505092915050565b6105ec610e8c565b60015f8381526020019081526020015f206004015f9054906101000a900460ff1661064c576040517f08c379a000000000000000000000000000000000000000000000000000000000815260040161064390611679565b60405180910390fd5b8060015f8481526020019081526020015f2060080181905550817f8d45721c0edcd094d637f66e971ce1167f974eed315c9a31b6ce145067760acc826040516106959190611180565b60405180910390a25050565b6106a9610e8c565b5f60015f8581526020019081526020015f209050806004015f9054906101000a900460ff1661070d576040517f08c379a000000000000000000000000000000000000000000000000000000000815260040161070490611679565b60405180910390fd5b610724838260050154610f5290919063ffffffff16565b8160050181905550837f960cee7418379cb6f7889f9d98a98ebca71a5547cbe3da02e3c412f1c67fba63848460405161075e9291906116e7565b60405180910390a250505050565b610774610e8c565b801561082e576107d98260035f8781526020019081526020015f205f8673ffffffffffffffffffffffffffffffffffffffff1673ffffffffffffffffffffffffffffffffffffffff1681526020019081526020015f2054610f5290919063ffffffff16565b60035f8681526020019081526020015f205f8573ffffffffffffffffffffffffffffffffffffffff1673ffffffffffffffffffffffffffffffffffffffff1681526020019081526020015f208190555061096d565b8160035f8681526020019081526020015f205f8573ffffffffffffffffffffffffffffffffffffffff1673ffffffffffffffffffffffffffffffffffffffff1681526020019081526020015f205410156108bd576040517f08c379a00000000000000000000000000000000000000000000000000000000081526004016108b49061175f565b60405180910390fd5b61091c8260035f8781526020019081526020015f205f8673ffffffffffffffffffffffffffffffffffffffff1673ffffffffffffffffffffffffffffffffffffffff1681526020019081526020015f2054610f1390919063ffffffff16565b60035f8681526020019081526020015f205f8573ffffffffffffffffffffffffffffffffffffffff1673ffffffffffffffffffffffffffffffffffffffff1681526020019081526020015f20819055505b50505050565b61097b610e8c565b5f60015f8581526020019081526020015f209050610a1e6109c3670de0b6b3a76400006109b5846001015486610f2890919063ffffffff16565b610f3d90919063ffffffff16565b60025f8781526020019081526020015f205f8673ffffffffffffffffffffffffffffffffffffffff1673ffffffffffffffffffffffffffffffffffffffff1681526020019081526020015f2054610f5290919063ffffffff16565b60025f8681526020019081526020015f205f8573ffffffffffffffffffffffffffffffffffffffff1673ffffffffffffffffffffffffffffffffffffffff1681526020019081526020015f208190555050505050565b5f5f60015f8581526020019081526020015f2090505f610ac4670de0b6b3a7640000610ab68460010154610aa8888a6102b6565b610f2890919063ffffffff16565b610f3d90919063ffffffff16565b9050610b2560025f8781526020019081526020015f205f8673ffffffffffffffffffffffffffffffffffffffff1673ffffffffffffffffffffffffffffffffffffffff1681526020019081526020015f205482610f1390919063ffffffff16565b9250505092915050565b610b37610e8c565b610b405f610f67565b565b5f5f5f9054906101000a900473ffffffffffffffffffffffffffffffffffffffff16905090565b610b71610e8c565b5f60015f8481526020019081526020015f209050806004015f9054906101000a900460ff16610bd5576040517f08c379a0000000000000000000000000000000000000000000000000000000008152600401610bcc90611679565b60405180910390fd5b5f610bec825f015484610f1390919063ffffffff16565b905082825f01819055505f610c288360070154610c1a670de0b6b3a764000085610f2890919063ffffffff16565b610f3d90919063ffffffff16565b9050610c41818460010154610f5290919063ffffffff16565b83600101819055504283600201819055508260060184908060018154018082558091505060019003905f5260205f20015f9091909190915055847ff94dbfcb5b95c844bd7d6995234872a96b708c97a775afa4123415b55de4ea2b85604051610caa9190611180565b60405180910390a25050505050565b5f60015f8381526020019081526020015f209050806004015f9054906101000a900460ff16610d1d576040517f08c379a0000000000000000000000000000000000000000000000000000000008152600401610d1490611679565b60405180910390fd5b5f610d68610d56670de0b6b3a7640000610d4885600701548660010154610f2890919063ffffffff16565b610f3d90919063ffffffff16565b835f0154610f1390919063ffffffff16565b90505f811115610e0357610db9610da68360070154610d98670de0b6b3a764000085610f2890919063ffffffff16565b610f3d90919063ffffffff16565b8360010154610f5290919063ffffffff16565b8260010181905550428260030181905550827f05f22a7e13278e3ae8f7a891f9212866f009e17528e63bb103ffa4a2244e0a5982604051610dfa9190611180565b60405180910390a25b505050565b610e10610e8c565b5f73ffffffffffffffffffffffffffffffffffffffff168173ffffffffffffffffffffffffffffffffffffffff1603610e80575f6040517f1e4fbdf7000000000000000000000000000000000000000000000000000000008152600401610e779190611573565b60405180910390fd5b610e8981610f67565b50565b610e94611028565b73ffffffffffffffffffffffffffffffffffffffff16610eb2610b42565b73ffffffffffffffffffffffffffffffffffffffff1614610f1157610ed5611028565b6040517f118cdaa7000000000000000000000000000000000000000000000000000000008152600401610f089190611573565b60405180910390fd5b565b5f8183610f2091906117aa565b905092915050565b5f8183610f3591906117dd565b905092915050565b5f8183610f4a919061184b565b905092915050565b5f8183610f5f919061187b565b905092915050565b5f5f5f9054906101000a900473ffffffffffffffffffffffffffffffffffffffff169050815f5f6101000a81548173ffffffffffffffffffffffffffffffffffffffff021916908373ffffffffffffffffffffffffffffffffffffffff1602179055508173ffffffffffffffffffffffffffffffffffffffff168173ffffffffffffffffffffffffffffffffffffffff167f8be0079c531659141344cd1fd0a4f28419497f9722a3daafe3b4186f6b6457e060405160405180910390a35050565b5f33905090565b828054828255905f5260205f20908101928215611069579160200282015b8281111561106857825182559160200191906001019061104d565b5b509050611076919061107a565b5090565b5b80821115611091575f815f90555060010161107b565b5090565b5f604051905090565b5f5ffd5b5f5ffd5b5f73ffffffffffffffffffffffffffffffffffffffff82169050919050565b5f6110cf826110a6565b9050919050565b6110df816110c5565b81146110e9575f5ffd5b50565b5f813590506110fa816110d6565b92915050565b5f819050919050565b61111281611100565b811461111c575f5ffd5b50565b5f8135905061112d81611109565b92915050565b5f5f604083850312156111495761114861109e565b5b5f611156858286016110ec565b92505060206111678582860161111f565b9150509250929050565b61117a81611100565b82525050565b5f6020820190506111935f830184611171565b92915050565b5f5f5f606084860312156111b0576111af61109e565b5b5f6111bd8682870161111f565b93505060206111ce8682870161111f565b92505060406111df8682870161111f565b9150509250925092565b5f602082840312156111fe576111fd61109e565b5b5f61120b8482850161111f565b91505092915050565b5f6080820190506112275f830187611171565b6112346020830186611171565b6112416040830185611171565b61124e6060830184611171565b95945050505050565b5f5f6040838503121561126d5761126c61109e565b5b5f61127a8582860161111f565b925050602061128b858286016110ec565b9150509250929050565b5f5f604083850312156112ab576112aa61109e565b5b5f6112b88582860161111f565b92505060206112c98582860161111f565b9150509250929050565b5f5ffd5b5f5ffd5b5f601f19601f8301169050919050565b7f4e487b71000000000000000000000000000000000000000000000000000000005f52604160045260245ffd5b611321826112db565b810181811067ffffffffffffffff821117156113405761133f6112eb565b5b80604052505050565b5f611352611095565b905061135e8282611318565b919050565b5f67ffffffffffffffff82111561137d5761137c6112eb565b5b611386826112db565b9050602081019050919050565b828183375f83830152505050565b5f6113b36113ae84611363565b611349565b9050828152602081018484840111156113cf576113ce6112d7565b5b6113da848285611393565b509392505050565b5f82601f8301126113f6576113f56112d3565b5b81356114068482602086016113a1565b91505092915050565b5f5f5f606084860312156114265761142561109e565b5b5f6114338682870161111f565b93505060206114448682870161111f565b925050604084013567ffffffffffffffff811115611465576114646110a2565b5b611471868287016113e2565b9150509250925092565b5f8115159050919050565b61148f8161147b565b8114611499575f5ffd5b50565b5f813590506114aa81611486565b92915050565b5f5f5f5f608085870312156114c8576114c761109e565b5b5f6114d58782880161111f565b94505060206114e6878288016110ec565b93505060406114f78782880161111f565b92505060606115088782880161149c565b91505092959194509250565b5f5f5f6060848603121561152b5761152a61109e565b5b5f6115388682870161111f565b9350506020611549868287016110ec565b925050604061155a8682870161111f565b9150509250925092565b61156d816110c5565b82525050565b5f6020820190506115865f830184611564565b92915050565b5f602082840312156115a1576115a061109e565b5b5f6115ae848285016110ec565b91505092915050565b5f82825260208201905092915050565b7f4e6f2072656e74616c20696e636f6d6520746f20636c61696d000000000000005f82015250565b5f6115fb6019836115b7565b9150611606826115c7565b602082019050919050565b5f6020820190508181035f830152611628816115ef565b9050919050565b7f50726f7065727479206973206e6f7420616374697665000000000000000000005f82015250565b5f6116636016836115b7565b915061166e8261162f565b602082019050919050565b5f6020820190508181035f83015261169081611657565b9050919050565b5f81519050919050565b8281835e5f83830152505050565b5f6116b982611697565b6116c381856115b7565b93506116d38185602086016116a1565b6116dc816112db565b840191505092915050565b5f6040820190506116fa5f830185611171565b818103602083015261170c81846116af565b90509392505050565b7f496e73756666696369656e742062616c616e63650000000000000000000000005f82015250565b5f6117496014836115b7565b915061175482611715565b602082019050919050565b5f6020820190508181035f8301526117768161173d565b9050919050565b7f4e487b71000000000000000000000000000000000000000000000000000000005f52601160045260245ffd5b5f6117b482611100565b91506117bf83611100565b92508282039050818111156117d7576117d661177d565b5b92915050565b5f6117e782611100565b91506117f283611100565b925082820261180081611100565b915082820484148315176118175761181661177d565b5b5092915050565b7f4e487b71000000000000000000000000000000000000000000000000000000005f52601260045260245ffd5b5f61185582611100565b915061186083611100565b9250826118705761186f61181e565b5b828204905092915050565b5f61188582611100565b915061189083611100565b92508282019050808211156118a8576118a761177d565b5b9291505056fea264697066735822122064641ccbd144d997061d7438c3a16148c0eb0660efa7149e8345b7c9cfdc5cb864736f6c634300081c0033",
					"opcodes": "PUSH1 0x80 PUSH1 0x40 MSTORE CALLVALUE DUP1 ISZERO PUSH2 0xF JUMPI PUSH0 PUSH0 REVERT JUMPDEST POP CALLER PUSH0 PUSH20 0xFFFFFFFFFFFFFFFFFFFFFFFFFFFFFFFFFFFFFFFF AND DUP2 PUSH20 0xFFFFFFFFFFFFFFFFFFFFFFFFFFFFFFFFFFFFFFFF AND SUB PUSH2 0x81 JUMPI PUSH0 PUSH1 0x40 MLOAD PUSH32 0x1E4FBDF700000000000000000000000000000000000000000000000000000000 DUP2 MSTORE PUSH1 0x4 ADD PUSH2 0x78 SWAP2 SWAP1 PUSH2 0x196 JUMP JUMPDEST PUSH1 0x40 MLOAD DUP1 SWAP2 SUB SWAP1 REVERT JUMPDEST PUSH2 0x90 DUP2 PUSH2 0x96 PUSH1 0x20 SHL PUSH1 0x20 SHR JUMP JUMPDEST POP PUSH2 0x1AF JUMP JUMPDEST PUSH0 PUSH0 PUSH0 SWAP1 SLOAD SWAP1 PUSH2 0x100 EXP SWAP1 DIV PUSH20 0xFFFFFFFFFFFFFFFFFFFFFFFFFFFFFFFFFFFFFFFF AND SWAP1 POP DUP2 PUSH0 PUSH0 PUSH2 0x100 EXP DUP2 SLOAD DUP2 PUSH20 0xFFFFFFFFFFFFFFFFFFFFFFFFFFFFFFFFFFFFFFFF MUL NOT AND SWAP1 DUP4 PUSH20 0xFFFFFFFFFFFFFFFFFFFFFFFFFFFFFFFFFFFFFFFF AND MUL OR SWAP1 SSTORE POP DUP2 PUSH20 0xFFFFFFFFFFFFFFFFFFFFFFFFFFFFFFFFFFFFFFFF AND DUP2 PUSH20 0xFFFFFFFFFFFFFFFFFFFFFFFFFFFFFFFFFFFFFFFF AND PUSH32 0x8BE0079C531659141344CD1FD0A4F28419497F9722A3DAAFE3B4186F6B6457E0 PUSH1 0x40 MLOAD PUSH1 0x40 MLOAD DUP1 SWAP2 SUB SWAP1 LOG3 POP POP JUMP JUMPDEST PUSH0 PUSH20 0xFFFFFFFFFFFFFFFFFFFFFFFFFFFFFFFFFFFFFFFF DUP3 AND SWAP1 POP SWAP2 SWAP1 POP JUMP JUMPDEST PUSH0 PUSH2 0x180 DUP3 PUSH2 0x157 JUMP JUMPDEST SWAP1 POP SWAP2 SWAP1 POP JUMP JUMPDEST PUSH2 0x190 DUP2 PUSH2 0x176 JUMP JUMPDEST DUP3 MSTORE POP POP JUMP JUMPDEST PUSH0 PUSH1 0x20 DUP3 ADD SWAP1 POP PUSH2 0x1A9 PUSH0 DUP4 ADD DUP5 PUSH2 0x187 JUMP JUMPDEST SWAP3 SWAP2 POP POP JUMP JUMPDEST PUSH2 0x18E4 DUP1 PUSH2 0x1BC PUSH0 CODECOPY PUSH0 RETURN INVALID PUSH1 0x80 PUSH1 0x40 MSTORE CALLVALUE DUP1 ISZERO PUSH2 0xF JUMPI PUSH0 PUSH0 REVERT JUMPDEST POP PUSH1 0x4 CALLDATASIZE LT PUSH2 0xE7 JUMPI PUSH0 CALLDATALOAD PUSH1 0xE0 SHR DUP1 PUSH4 0x66184F50 GT PUSH2 0x8A JUMPI DUP1 PUSH4 0x8DA5CB5B GT PUSH2 0x64 JUMPI DUP1 PUSH4 0x8DA5CB5B EQ PUSH2 0x244 JUMPI DUP1 PUSH4 0xBF2EA183 EQ PUSH2 0x262 JUMPI DUP1 PUSH4 0xDB43919B EQ PUSH2 0x27E JUMPI DUP1 PUSH4 0xF2FDE38B EQ PUSH2 0x29A JUMPI PUSH2 0xE7 JUMP JUMPDEST DUP1 PUSH4 0x66184F50 EQ PUSH2 0x1EE JUMPI DUP1 PUSH4 0x700BC241 EQ PUSH2 0x20A JUMPI DUP1 PUSH4 0x715018A6 EQ PUSH2 0x23A JUMPI PUSH2 0xE7 JUMP JUMPDEST DUP1 PUSH4 0x3B5BCF8B GT PUSH2 0xC6 JUMPI DUP1 PUSH4 0x3B5BCF8B EQ PUSH2 0x16A JUMPI DUP1 PUSH4 0x3BD48E4B EQ PUSH2 0x19A JUMPI DUP1 PUSH4 0x513CAC80 EQ PUSH2 0x1B6 JUMPI DUP1 PUSH4 0x526BC60D EQ PUSH2 0x1D2 JUMPI PUSH2 0xE7 JUMP JUMPDEST DUP1 PUSH3 0xFDD58E EQ PUSH2 0xEB JUMPI DUP1 PUSH4 0x1DD6BF09 EQ PUSH2 0x11B JUMPI DUP1 PUSH4 0x22B6ED26 EQ PUSH2 0x137 JUMPI JUMPDEST PUSH0 PUSH0 REVERT JUMPDEST PUSH2 0x105 PUSH1 0x4 DUP1 CALLDATASIZE SUB DUP2 ADD SWAP1 PUSH2 0x100 SWAP2 SWAP1 PUSH2 0x1133 JUMP JUMPDEST PUSH2 0x2B6 JUMP JUMPDEST PUSH1 0x40 MLOAD PUSH2 0x112 SWAP2 SWAP1 PUSH2 0x1180 JUMP JUMPDEST PUSH1 0x40 MLOAD DUP1 SWAP2 SUB SWAP1 RETURN JUMPDEST PUSH2 0x135 PUSH1 0x4 DUP1 CALLDATASIZE SUB DUP2 ADD SWAP1 PUSH2 0x130 SWAP2 SWAP1 PUSH2 0x1199 JUMP JUMPDEST PUSH2 0x30C JUMP JUMPDEST STOP JUMPDEST PUSH2 0x151 PUSH1 0x4 DUP1 CALLDATASIZE SUB DUP2 ADD SWAP1 PUSH2 0x14C SWAP2 SWAP1 PUSH2 0x11E9 JUMP JUMPDEST PUSH2 0x439 JUMP JUMPDEST PUSH1 0x40 MLOAD PUSH2 0x161 SWAP5 SWAP4 SWAP3 SWAP2 SWAP1 PUSH2 0x1214 JUMP JUMPDEST PUSH1 0x40 MLOAD DUP1 SWAP2 SUB SWAP1 RETURN JUMPDEST PUSH2 0x184 PUSH1 0x4 DUP1 CALLDATASIZE SUB DUP2 ADD SWAP1 PUSH2 0x17F SWAP2 SWAP1 PUSH2 0x1257 JUMP JUMPDEST PUSH2 0x489 JUMP JUMPDEST PUSH1 0x40 MLOAD PUSH2 0x191 SWAP2 SWAP1 PUSH2 0x1180 JUMP JUMPDEST PUSH1 0x40 MLOAD DUP1 SWAP2 SUB SWAP1 RETURN JUMPDEST PUSH2 0x1B4 PUSH1 0x4 DUP1 CALLDATASIZE SUB DUP2 ADD SWAP1 PUSH2 0x1AF SWAP2 SWAP1 PUSH2 0x1295 JUMP JUMPDEST PUSH2 0x5E4 JUMP JUMPDEST STOP JUMPDEST PUSH2 0x1D0 PUSH1 0x4 DUP1 CALLDATASIZE SUB DUP2 ADD SWAP1 PUSH2 0x1CB SWAP2 SWAP1 PUSH2 0x140F JUMP JUMPDEST PUSH2 0x6A1 JUMP JUMPDEST STOP JUMPDEST PUSH2 0x1EC PUSH1 0x4 DUP1 CALLDATASIZE SUB DUP2 ADD SWAP1 PUSH2 0x1E7 SWAP2 SWAP1 PUSH2 0x14B0 JUMP JUMPDEST PUSH2 0x76C JUMP JUMPDEST STOP JUMPDEST PUSH2 0x208 PUSH1 0x4 DUP1 CALLDATASIZE SUB DUP2 ADD SWAP1 PUSH2 0x203 SWAP2 SWAP1 PUSH2 0x1514 JUMP JUMPDEST PUSH2 0x973 JUMP JUMPDEST STOP JUMPDEST PUSH2 0x224 PUSH1 0x4 DUP1 CALLDATASIZE SUB DUP2 ADD SWAP1 PUSH2 0x21F SWAP2 SWAP1 PUSH2 0x1257 JUMP JUMPDEST PUSH2 0xA74 JUMP JUMPDEST PUSH1 0x40 MLOAD PUSH2 0x231 SWAP2 SWAP1 PUSH2 0x1180 JUMP JUMPDEST PUSH1 0x40 MLOAD DUP1 SWAP2 SUB SWAP1 RETURN JUMPDEST PUSH2 0x242 PUSH2 0xB2F JUMP JUMPDEST STOP JUMPDEST PUSH2 0x24C PUSH2 0xB42 JUMP JUMPDEST PUSH1 0x40 MLOAD PUSH2 0x259 SWAP2 SWAP1 PUSH2 0x1573 JUMP JUMPDEST PUSH1 0x40 MLOAD DUP1 SWAP2 SUB SWAP1 RETURN JUMPDEST PUSH2 0x27C PUSH1 0x4 DUP1 CALLDATASIZE SUB DUP2 ADD SWAP1 PUSH2 0x277 SWAP2 SWAP1 PUSH2 0x1295 JUMP JUMPDEST PUSH2 0xB69 JUMP JUMPDEST STOP JUMPDEST PUSH2 0x298 PUSH1 0x4 DUP1 CALLDATASIZE SUB DUP2 ADD SWAP1 PUSH2 0x293 SWAP2 SWAP1 PUSH2 0x11E9 JUMP JUMPDEST PUSH2 0xCB9 JUMP JUMPDEST STOP JUMPDEST PUSH2 0x2B4 PUSH1 0x4 DUP1 CALLDATASIZE SUB DUP2 ADD SWAP1 PUSH2 0x2AF SWAP2 SWAP1 PUSH2 0x158C JUMP JUMPDEST PUSH2 0xE08 JUMP JUMPDEST STOP JUMPDEST PUSH0 PUSH1 0x3 PUSH0 DUP4 DUP2 MSTORE PUSH1 0x20 ADD SWAP1 DUP2 MSTORE PUSH1 0x20 ADD PUSH0 KECCAK256 PUSH0 DUP5 PUSH20 0xFFFFFFFFFFFFFFFFFFFFFFFFFFFFFFFFFFFFFFFF AND PUSH20 0xFFFFFFFFFFFFFFFFFFFFFFFFFFFFFFFFFFFFFFFF AND DUP2 MSTORE PUSH1 0x20 ADD SWAP1 DUP2 MSTORE PUSH1 0x20 ADD PUSH0 KECCAK256 SLOAD SWAP1 POP SWAP3 SWAP2 POP POP JUMP JUMPDEST PUSH2 0x314 PUSH2 0xE8C JUMP JUMPDEST PUSH1 0x40 MLOAD DUP1 PUSH2 0x120 ADD PUSH1 0x40 MSTORE DUP1 PUSH0 DUP2 MSTORE PUSH1 0x20 ADD PUSH0 DUP2 MSTORE PUSH1 0x20 ADD TIMESTAMP DUP2 MSTORE PUSH1 0x20 ADD TIMESTAMP DUP2 MSTORE PUSH1 0x20 ADD PUSH1 0x1 ISZERO ISZERO DUP2 MSTORE PUSH1 0x20 ADD PUSH0 DUP2 MSTORE PUSH1 0x20 ADD PUSH0 PUSH8 0xFFFFFFFFFFFFFFFF DUP2 GT ISZERO PUSH2 0x361 JUMPI PUSH2 0x360 PUSH2 0x12EB JUMP JUMPDEST JUMPDEST PUSH1 0x40 MLOAD SWAP1 DUP1 DUP3 MSTORE DUP1 PUSH1 0x20 MUL PUSH1 0x20 ADD DUP3 ADD PUSH1 0x40 MSTORE DUP1 ISZERO PUSH2 0x38F JUMPI DUP2 PUSH1 0x20 ADD PUSH1 0x20 DUP3 MUL DUP1 CALLDATASIZE DUP4 CALLDATACOPY DUP1 DUP3 ADD SWAP2 POP POP SWAP1 POP JUMPDEST POP DUP2 MSTORE PUSH1 0x20 ADD DUP4 DUP2 MSTORE PUSH1 0x20 ADD DUP3 DUP2 MSTORE POP PUSH1 0x1 PUSH0 DUP6 DUP2 MSTORE PUSH1 0x20 ADD SWAP1 DUP2 MSTORE PUSH1 0x20 ADD PUSH0 KECCAK256 PUSH0 DUP3 ADD MLOAD DUP2 PUSH0 ADD SSTORE PUSH1 0x20 DUP3 ADD MLOAD DUP2 PUSH1 0x1 ADD SSTORE PUSH1 0x40 DUP3 ADD MLOAD DUP2 PUSH1 0x2 ADD SSTORE PUSH1 0x60 DUP3 ADD MLOAD DUP2 PUSH1 0x3 ADD SSTORE PUSH1 0x80 DUP3 ADD MLOAD DUP2 PUSH1 0x4 ADD PUSH0 PUSH2 0x100 EXP DUP2 SLOAD DUP2 PUSH1 0xFF MUL NOT AND SWAP1 DUP4 ISZERO ISZERO MUL OR SWAP1 SSTORE POP PUSH1 0xA0 DUP3 ADD MLOAD DUP2 PUSH1 0x5 ADD SSTORE PUSH1 0xC0 DUP3 ADD MLOAD DUP2 PUSH1 0x6 ADD SWAP1 DUP1 MLOAD SWAP1 PUSH1 0x20 ADD SWAP1 PUSH2 0x41B SWAP3 SWAP2 SWAP1 PUSH2 0x102F JUMP JUMPDEST POP PUSH1 0xE0 DUP3 ADD MLOAD DUP2 PUSH1 0x7 ADD SSTORE PUSH2 0x100 DUP3 ADD MLOAD DUP2 PUSH1 0x8 ADD SSTORE SWAP1 POP POP POP POP POP JUMP JUMPDEST PUSH0 PUSH0 PUSH0 PUSH0 PUSH0 PUSH1 0x1 PUSH0 DUP8 DUP2 MSTORE PUSH1 0x20 ADD SWAP1 DUP2 MSTORE PUSH1 0x20 ADD PUSH0 KECCAK256 SWAP1 POP DUP1 PUSH0 ADD SLOAD DUP2 PUSH1 0x5 ADD SLOAD PUSH2 0x474 DUP4 PUSH1 0x5 ADD SLOAD DUP5 PUSH0 ADD SLOAD PUSH2 0xF13 SWAP1 SWAP2 SWAP1 PUSH4 0xFFFFFFFF AND JUMP JUMPDEST DUP4 PUSH1 0x8 ADD SLOAD SWAP5 POP SWAP5 POP SWAP5 POP SWAP5 POP POP SWAP2 SWAP4 POP SWAP2 SWAP4 JUMP JUMPDEST PUSH0 PUSH2 0x492 PUSH2 0xE8C JUMP JUMPDEST PUSH0 PUSH1 0x1 PUSH0 DUP6 DUP2 MSTORE PUSH1 0x20 ADD SWAP1 DUP2 MSTORE PUSH1 0x20 ADD PUSH0 KECCAK256 SWAP1 POP PUSH0 PUSH2 0x4E1 PUSH8 0xDE0B6B3A7640000 PUSH2 0x4D3 DUP5 PUSH1 0x1 ADD SLOAD PUSH2 0x4C5 DUP9 DUP11 PUSH2 0x2B6 JUMP JUMPDEST PUSH2 0xF28 SWAP1 SWAP2 SWAP1 PUSH4 0xFFFFFFFF AND JUMP JUMPDEST PUSH2 0xF3D SWAP1 SWAP2 SWAP1 PUSH4 0xFFFFFFFF AND JUMP JUMPDEST SWAP1 POP PUSH0 PUSH2 0x543 PUSH1 0x2 PUSH0 DUP9 DUP2 MSTORE PUSH1 0x20 ADD SWAP1 DUP2 MSTORE PUSH1 0x20 ADD PUSH0 KECCAK256 PUSH0 DUP8 PUSH20 0xFFFFFFFFFFFFFFFFFFFFFFFFFFFFFFFFFFFFFFFF AND PUSH20 0xFFFFFFFFFFFFFFFFFFFFFFFFFFFFFFFFFFFFFFFF AND DUP2 MSTORE PUSH1 0x20 ADD SWAP1 DUP2 MSTORE PUSH1 0x20 ADD PUSH0 KECCAK256 SLOAD DUP4 PUSH2 0xF13 SWAP1 SWAP2 SWAP1 PUSH4 0xFFFFFFFF AND JUMP JUMPDEST SWAP1 POP PUSH0 DUP2 GT PUSH2 0x587 JUMPI PUSH1 0x40 MLOAD PUSH32 0x8C379A000000000000000000000000000000000000000000000000000000000 DUP2 MSTORE PUSH1 0x4 ADD PUSH2 0x57E SWAP1 PUSH2 0x1611 JUMP JUMPDEST PUSH1 0x40 MLOAD DUP1 SWAP2 SUB SWAP1 REVERT JUMPDEST DUP2 PUSH1 0x2 PUSH0 DUP9 DUP2 MSTORE PUSH1 0x20 ADD SWAP1 DUP2 MSTORE PUSH1 0x20 ADD PUSH0 KECCAK256 PUSH0 DUP8 PUSH20 0xFFFFFFFFFFFFFFFFFFFFFFFFFFFFFFFFFFFFFFFF AND PUSH20 0xFFFFFFFFFFFFFFFFFFFFFFFFFFFFFFFFFFFFFFFF AND DUP2 MSTORE PUSH1 0x20 ADD SWAP1 DUP2 MSTORE PUSH1 0x20 ADD PUSH0 KECCAK256 DUP2 SWAP1 SSTORE POP DUP1 SWAP4 POP POP POP POP SWAP3 SWAP2 POP POP JUMP JUMPDEST PUSH2 0x5EC PUSH2 0xE8C JUMP JUMPDEST PUSH1 0x1 PUSH0 DUP4 DUP2 MSTORE PUSH1 0x20 ADD SWAP1 DUP2 MSTORE PUSH1 0x20 ADD PUSH0 KECCAK256 PUSH1 0x4 ADD PUSH0 SWAP1 SLOAD SWAP1 PUSH2 0x100 EXP SWAP1 DIV PUSH1 0xFF AND PUSH2 0x64C JUMPI PUSH1 0x40 MLOAD PUSH32 0x8C379A000000000000000000000000000000000000000000000000000000000 DUP2 MSTORE PUSH1 0x4 ADD PUSH2 0x643 SWAP1 PUSH2 0x1679 JUMP JUMPDEST PUSH1 0x40 MLOAD DUP1 SWAP2 SUB SWAP1 REVERT JUMPDEST DUP1 PUSH1 0x1 PUSH0 DUP5 DUP2 MSTORE PUSH1 0x20 ADD SWAP1 DUP2 MSTORE PUSH1 0x20 ADD PUSH0 KECCAK256 PUSH1 0x8 ADD DUP2 SWAP1 SSTORE POP DUP2 PUSH32 0x8D45721C0EDCD094D637F66E971CE1167F974EED315C9A31B6CE145067760ACC DUP3 PUSH1 0x40 MLOAD PUSH2 0x695 SWAP2 SWAP1 PUSH2 0x1180 JUMP JUMPDEST PUSH1 0x40 MLOAD DUP1 SWAP2 SUB SWAP1 LOG2 POP POP JUMP JUMPDEST PUSH2 0x6A9 PUSH2 0xE8C JUMP JUMPDEST PUSH0 PUSH1 0x1 PUSH0 DUP6 DUP2 MSTORE PUSH1 0x20 ADD SWAP1 DUP2 MSTORE PUSH1 0x20 ADD PUSH0 KECCAK256 SWAP1 POP DUP1 PUSH1 0x4 ADD PUSH0 SWAP1 SLOAD SWAP1 PUSH2 0x100 EXP SWAP1 DIV PUSH1 0xFF AND PUSH2 0x70D JUMPI PUSH1 0x40 MLOAD PUSH32 0x8C379A000000000000000000000000000000000000000000000000000000000 DUP2 MSTORE PUSH1 0x4 ADD PUSH2 0x704 SWAP1 PUSH2 0x1679 JUMP JUMPDEST PUSH1 0x40 MLOAD DUP1 SWAP2 SUB SWAP1 REVERT JUMPDEST PUSH2 0x724 DUP4 DUP3 PUSH1 0x5 ADD SLOAD PUSH2 0xF52 SWAP1 SWAP2 SWAP1 PUSH4 0xFFFFFFFF AND JUMP JUMPDEST DUP2 PUSH1 0x5 ADD DUP2 SWAP1 SSTORE POP DUP4 PUSH32 0x960CEE7418379CB6F7889F9D98A98EBCA71A5547CBE3DA02E3C412F1C67FBA63 DUP5 DUP5 PUSH1 0x40 MLOAD PUSH2 0x75E SWAP3 SWAP2 SWAP1 PUSH2 0x16E7 JUMP JUMPDEST PUSH1 0x40 MLOAD DUP1 SWAP2 SUB SWAP1 LOG2 POP POP POP POP JUMP JUMPDEST PUSH2 0x774 PUSH2 0xE8C JUMP JUMPDEST DUP1 ISZERO PUSH2 0x82E JUMPI PUSH2 0x7D9 DUP3 PUSH1 0x3 PUSH0 DUP8 DUP2 MSTORE PUSH1 0x20 ADD SWAP1 DUP2 MSTORE PUSH1 0x20 ADD PUSH0 KECCAK256 PUSH0 DUP7 PUSH20 0xFFFFFFFFFFFFFFFFFFFFFFFFFFFFFFFFFFFFFFFF AND PUSH20 0xFFFFFFFFFFFFFFFFFFFFFFFFFFFFFFFFFFFFFFFF AND DUP2 MSTORE PUSH1 0x20 ADD SWAP1 DUP2 MSTORE PUSH1 0x20 ADD PUSH0 KECCAK256 SLOAD PUSH2 0xF52 SWAP1 SWAP2 SWAP1 PUSH4 0xFFFFFFFF AND JUMP JUMPDEST PUSH1 0x3 PUSH0 DUP7 DUP2 MSTORE PUSH1 0x20 ADD SWAP1 DUP2 MSTORE PUSH1 0x20 ADD PUSH0 KECCAK256 PUSH0 DUP6 PUSH20 0xFFFFFFFFFFFFFFFFFFFFFFFFFFFFFFFFFFFFFFFF AND PUSH20 0xFFFFFFFFFFFFFFFFFFFFFFFFFFFFFFFFFFFFFFFF AND DUP2 MSTORE PUSH1 0x20 ADD SWAP1 DUP2 MSTORE PUSH1 0x20 ADD PUSH0 KECCAK256 DUP2 SWAP1 SSTORE POP PUSH2 0x96D JUMP JUMPDEST DUP2 PUSH1 0x3 PUSH0 DUP7 DUP2 MSTORE PUSH1 0x20 ADD SWAP1 DUP2 MSTORE PUSH1 0x20 ADD PUSH0 KECCAK256 PUSH0 DUP6 PUSH20 0xFFFFFFFFFFFFFFFFFFFFFFFFFFFFFFFFFFFFFFFF AND PUSH20 0xFFFFFFFFFFFFFFFFFFFFFFFFFFFFFFFFFFFFFFFF AND DUP2 MSTORE PUSH1 0x20 ADD SWAP1 DUP2 MSTORE PUSH1 0x20 ADD PUSH0 KECCAK256 SLOAD LT ISZERO PUSH2 0x8BD JUMPI PUSH1 0x40 MLOAD PUSH32 0x8C379A000000000000000000000000000000000000000000000000000000000 DUP2 MSTORE PUSH1 0x4 ADD PUSH2 0x8B4 SWAP1 PUSH2 0x175F JUMP JUMPDEST PUSH1 0x40 MLOAD DUP1 SWAP2 SUB SWAP1 REVERT JUMPDEST PUSH2 0x91C DUP3 PUSH1 0x3 PUSH0 DUP8 DUP2 MSTORE PUSH1 0x20 ADD SWAP1 DUP2 MSTORE PUSH1 0x20 ADD PUSH0 KECCAK256 PUSH0 DUP7 PUSH20 0xFFFFFFFFFFFFFFFFFFFFFFFFFFFFFFFFFFFFFFFF AND PUSH20 0xFFFFFFFFFFFFFFFFFFFFFFFFFFFFFFFFFFFFFFFF AND DUP2 MSTORE PUSH1 0x20 ADD SWAP1 DUP2 MSTORE PUSH1 0x20 ADD PUSH0 KECCAK256 SLOAD PUSH2 0xF13 SWAP1 SWAP2 SWAP1 PUSH4 0xFFFFFFFF AND JUMP JUMPDEST PUSH1 0x3 PUSH0 DUP7 DUP2 MSTORE PUSH1 0x20 ADD SWAP1 DUP2 MSTORE PUSH1 0x20 ADD PUSH0 KECCAK256 PUSH0 DUP6 PUSH20 0xFFFFFFFFFFFFFFFFFFFFFFFFFFFFFFFFFFFFFFFF AND PUSH20 0xFFFFFFFFFFFFFFFFFFFFFFFFFFFFFFFFFFFFFFFF AND DUP2 MSTORE PUSH1 0x20 ADD SWAP1 DUP2 MSTORE PUSH1 0x20 ADD PUSH0 KECCAK256 DUP2 SWAP1 SSTORE POP JUMPDEST POP POP POP POP JUMP JUMPDEST PUSH2 0x97B PUSH2 0xE8C JUMP JUMPDEST PUSH0 PUSH1 0x1 PUSH0 DUP6 DUP2 MSTORE PUSH1 0x20 ADD SWAP1 DUP2 MSTORE PUSH1 0x20 ADD PUSH0 KECCAK256 SWAP1 POP PUSH2 0xA1E PUSH2 0x9C3 PUSH8 0xDE0B6B3A7640000 PUSH2 0x9B5 DUP5 PUSH1 0x1 ADD SLOAD DUP7 PUSH2 0xF28 SWAP1 SWAP2 SWAP1 PUSH4 0xFFFFFFFF AND JUMP JUMPDEST PUSH2 0xF3D SWAP1 SWAP2 SWAP1 PUSH4 0xFFFFFFFF AND JUMP JUMPDEST PUSH1 0x2 PUSH0 DUP8 DUP2 MSTORE PUSH1 0x20 ADD SWAP1 DUP2 MSTORE PUSH1 0x20 ADD PUSH0 KECCAK256 PUSH0 DUP7 PUSH20 0xFFFFFFFFFFFFFFFFFFFFFFFFFFFFFFFFFFFFFFFF AND PUSH20 0xFFFFFFFFFFFFFFFFFFFFFFFFFFFFFFFFFFFFFFFF AND DUP2 MSTORE PUSH1 0x20 ADD SWAP1 DUP2 MSTORE PUSH1 0x20 ADD PUSH0 KECCAK256 SLOAD PUSH2 0xF52 SWAP1 SWAP2 SWAP1 PUSH4 0xFFFFFFFF AND JUMP JUMPDEST PUSH1 0x2 PUSH0 DUP7 DUP2 MSTORE PUSH1 0x20 ADD SWAP1 DUP2 MSTORE PUSH1 0x20 ADD PUSH0 KECCAK256 PUSH0 DUP6 PUSH20 0xFFFFFFFFFFFFFFFFFFFFFFFFFFFFFFFFFFFFFFFF AND PUSH20 0xFFFFFFFFFFFFFFFFFFFFFFFFFFFFFFFFFFFFFFFF AND DUP2 MSTORE PUSH1 0x20 ADD SWAP1 DUP2 MSTORE PUSH1 0x20 ADD PUSH0 KECCAK256 DUP2 SWAP1 SSTORE POP POP POP POP POP JUMP JUMPDEST PUSH0 PUSH0 PUSH1 0x1 PUSH0 DUP6 DUP2 MSTORE PUSH1 0x20 ADD SWAP1 DUP2 MSTORE PUSH1 0x20 ADD PUSH0 KECCAK256 SWAP1 POP PUSH0 PUSH2 0xAC4 PUSH8 0xDE0B6B3A7640000 PUSH2 0xAB6 DUP5 PUSH1 0x1 ADD SLOAD PUSH2 0xAA8 DUP9 DUP11 PUSH2 0x2B6 JUMP JUMPDEST PUSH2 0xF28 SWAP1 SWAP2 SWAP1 PUSH4 0xFFFFFFFF AND JUMP JUMPDEST PUSH2 0xF3D SWAP1 SWAP2 SWAP1 PUSH4 0xFFFFFFFF AND JUMP JUMPDEST SWAP1 POP PUSH2 0xB25 PUSH1 0x2 PUSH0 DUP8 DUP2 MSTORE PUSH1 0x20 ADD SWAP1 DUP2 MSTORE PUSH1 0x20 ADD PUSH0 KECCAK256 PUSH0 DUP7 PUSH20 0xFFFFFFFFFFFFFFFFFFFFFFFFFFFFFFFFFFFFFFFF AND PUSH20 0xFFFFFFFFFFFFFFFFFFFFFFFFFFFFFFFFFFFFFFFF AND DUP2 MSTORE PUSH1 0x20 ADD SWAP1 DUP2 MSTORE PUSH1 0x20 ADD PUSH0 KECCAK256 SLOAD DUP3 PUSH2 0xF13 SWAP1 SWAP2 SWAP1 PUSH4 0xFFFFFFFF AND JUMP JUMPDEST SWAP3 POP POP POP SWAP3 SWAP2 POP POP JUMP JUMPDEST PUSH2 0xB37 PUSH2 0xE8C JUMP JUMPDEST PUSH2 0xB40 PUSH0 PUSH2 0xF67 JUMP JUMPDEST JUMP JUMPDEST PUSH0 PUSH0 PUSH0 SWAP1 SLOAD SWAP1 PUSH2 0x100 EXP SWAP1 DIV PUSH20 0xFFFFFFFFFFFFFFFFFFFFFFFFFFFFFFFFFFFFFFFF AND SWAP1 POP SWAP1 JUMP JUMPDEST PUSH2 0xB71 PUSH2 0xE8C JUMP JUMPDEST PUSH0 PUSH1 0x1 PUSH0 DUP5 DUP2 MSTORE PUSH1 0x20 ADD SWAP1 DUP2 MSTORE PUSH1 0x20 ADD PUSH0 KECCAK256 SWAP1 POP DUP1 PUSH1 0x4 ADD PUSH0 SWAP1 SLOAD SWAP1 PUSH2 0x100 EXP SWAP1 DIV PUSH1 0xFF AND PUSH2 0xBD5 JUMPI PUSH1 0x40 MLOAD PUSH32 0x8C379A000000000000000000000000000000000000000000000000000000000 DUP2 MSTORE PUSH1 0x4 ADD PUSH2 0xBCC SWAP1 PUSH2 0x1679 JUMP JUMPDEST PUSH1 0x40 MLOAD DUP1 SWAP2 SUB SWAP1 REVERT JUMPDEST PUSH0 PUSH2 0xBEC DUP3 PUSH0 ADD SLOAD DUP5 PUSH2 0xF13 SWAP1 SWAP2 SWAP1 PUSH4 0xFFFFFFFF AND JUMP JUMPDEST SWAP1 POP DUP3 DUP3 PUSH0 ADD DUP2 SWAP1 SSTORE POP PUSH0 PUSH2 0xC28 DUP4 PUSH1 0x7 ADD SLOAD PUSH2 0xC1A PUSH8 0xDE0B6B3A7640000 DUP6 PUSH2 0xF28 SWAP1 SWAP2 SWAP1 PUSH4 0xFFFFFFFF AND JUMP JUMPDEST PUSH2 0xF3D SWAP1 SWAP2 SWAP1 PUSH4 0xFFFFFFFF AND JUMP JUMPDEST SWAP1 POP PUSH2 0xC41 DUP2 DUP5 PUSH1 0x1 ADD SLOAD PUSH2 0xF52 SWAP1 SWAP2 SWAP1 PUSH4 0xFFFFFFFF AND JUMP JUMPDEST DUP4 PUSH1 0x1 ADD DUP2 SWAP1 SSTORE POP TIMESTAMP DUP4 PUSH1 0x2 ADD DUP2 SWAP1 SSTORE POP DUP3 PUSH1 0x6 ADD DUP5 SWAP1 DUP1 PUSH1 0x1 DUP2 SLOAD ADD DUP1 DUP3 SSTORE DUP1 SWAP2 POP POP PUSH1 0x1 SWAP1 SUB SWAP1 PUSH0 MSTORE PUSH1 0x20 PUSH0 KECCAK256 ADD PUSH0 SWAP1 SWAP2 SWAP1 SWAP2 SWAP1 SWAP2 POP SSTORE DUP5 PUSH32 0xF94DBFCB5B95C844BD7D6995234872A96B708C97A775AFA4123415B55DE4EA2B DUP6 PUSH1 0x40 MLOAD PUSH2 0xCAA SWAP2 SWAP1 PUSH2 0x1180 JUMP JUMPDEST PUSH1 0x40 MLOAD DUP1 SWAP2 SUB SWAP1 LOG2 POP POP POP POP POP JUMP JUMPDEST PUSH0 PUSH1 0x1 PUSH0 DUP4 DUP2 MSTORE PUSH1 0x20 ADD SWAP1 DUP2 MSTORE PUSH1 0x20 ADD PUSH0 KECCAK256 SWAP1 POP DUP1 PUSH1 0x4 ADD PUSH0 SWAP1 SLOAD SWAP1 PUSH2 0x100 EXP SWAP1 DIV PUSH1 0xFF AND PUSH2 0xD1D JUMPI PUSH1 0x40 MLOAD PUSH32 0x8C379A000000000000000000000000000000000000000000000000000000000 DUP2 MSTORE PUSH1 0x4 ADD PUSH2 0xD14 SWAP1 PUSH2 0x1679 JUMP JUMPDEST PUSH1 0x40 MLOAD DUP1 SWAP2 SUB SWAP1 REVERT JUMPDEST PUSH0 PUSH2 0xD68 PUSH2 0xD56 PUSH8 0xDE0B6B3A7640000 PUSH2 0xD48 DUP6 PUSH1 0x7 ADD SLOAD DUP7 PUSH1 0x1 ADD SLOAD PUSH2 0xF28 SWAP1 SWAP2 SWAP1 PUSH4 0xFFFFFFFF AND JUMP JUMPDEST PUSH2 0xF3D SWAP1 SWAP2 SWAP1 PUSH4 0xFFFFFFFF AND JUMP JUMPDEST DUP4 PUSH0 ADD SLOAD PUSH2 0xF13 SWAP1 SWAP2 SWAP1 PUSH4 0xFFFFFFFF AND JUMP JUMPDEST SWAP1 POP PUSH0 DUP2 GT ISZERO PUSH2 0xE03 JUMPI PUSH2 0xDB9 PUSH2 0xDA6 DUP4 PUSH1 0x7 ADD SLOAD PUSH2 0xD98 PUSH8 0xDE0B6B3A7640000 DUP6 PUSH2 0xF28 SWAP1 SWAP2 SWAP1 PUSH4 0xFFFFFFFF AND JUMP JUMPDEST PUSH2 0xF3D SWAP1 SWAP2 SWAP1 PUSH4 0xFFFFFFFF AND JUMP JUMPDEST DUP4 PUSH1 0x1 ADD SLOAD PUSH2 0xF52 SWAP1 SWAP2 SWAP1 PUSH4 0xFFFFFFFF AND JUMP JUMPDEST DUP3 PUSH1 0x1 ADD DUP2 SWAP1 SSTORE POP TIMESTAMP DUP3 PUSH1 0x3 ADD DUP2 SWAP1 SSTORE POP DUP3 PUSH32 0x5F22A7E13278E3AE8F7A891F9212866F009E17528E63BB103FFA4A2244E0A59 DUP3 PUSH1 0x40 MLOAD PUSH2 0xDFA SWAP2 SWAP1 PUSH2 0x1180 JUMP JUMPDEST PUSH1 0x40 MLOAD DUP1 SWAP2 SUB SWAP1 LOG2 JUMPDEST POP POP POP JUMP JUMPDEST PUSH2 0xE10 PUSH2 0xE8C JUMP JUMPDEST PUSH0 PUSH20 0xFFFFFFFFFFFFFFFFFFFFFFFFFFFFFFFFFFFFFFFF AND DUP2 PUSH20 0xFFFFFFFFFFFFFFFFFFFFFFFFFFFFFFFFFFFFFFFF AND SUB PUSH2 0xE80 JUMPI PUSH0 PUSH1 0x40 MLOAD PUSH32 0x1E4FBDF700000000000000000000000000000000000000000000000000000000 DUP2 MSTORE PUSH1 0x4 ADD PUSH2 0xE77 SWAP2 SWAP1 PUSH2 0x1573 JUMP JUMPDEST PUSH1 0x40 MLOAD DUP1 SWAP2 SUB SWAP1 REVERT JUMPDEST PUSH2 0xE89 DUP2 PUSH2 0xF67 JUMP JUMPDEST POP JUMP JUMPDEST PUSH2 0xE94 PUSH2 0x1028 JUMP JUMPDEST PUSH20 0xFFFFFFFFFFFFFFFFFFFFFFFFFFFFFFFFFFFFFFFF AND PUSH2 0xEB2 PUSH2 0xB42 JUMP JUMPDEST PUSH20 0xFFFFFFFFFFFFFFFFFFFFFFFFFFFFFFFFFFFFFFFF AND EQ PUSH2 0xF11 JUMPI PUSH2 0xED5 PUSH2 0x1028 JUMP JUMPDEST PUSH1 0x40 MLOAD PUSH32 0x118CDAA700000000000000000000000000000000000000000000000000000000 DUP2 MSTORE PUSH1 0x4 ADD PUSH2 0xF08 SWAP2 SWAP1 PUSH2 0x1573 JUMP JUMPDEST PUSH1 0x40 MLOAD DUP1 SWAP2 SUB SWAP1 REVERT JUMPDEST JUMP JUMPDEST PUSH0 DUP2 DUP4 PUSH2 0xF20 SWAP2 SWAP1 PUSH2 0x17AA JUMP JUMPDEST SWAP1 POP SWAP3 SWAP2 POP POP JUMP JUMPDEST PUSH0 DUP2 DUP4 PUSH2 0xF35 SWAP2 SWAP1 PUSH2 0x17DD JUMP JUMPDEST SWAP1 POP SWAP3 SWAP2 POP POP JUMP JUMPDEST PUSH0 DUP2 DUP4 PUSH2 0xF4A SWAP2 SWAP1 PUSH2 0x184B JUMP JUMPDEST SWAP1 POP SWAP3 SWAP2 POP POP JUMP JUMPDEST PUSH0 DUP2 DUP4 PUSH2 0xF5F SWAP2 SWAP1 PUSH2 0x187B JUMP JUMPDEST SWAP1 POP SWAP3 SWAP2 POP POP JUMP JUMPDEST PUSH0 PUSH0 PUSH0 SWAP1 SLOAD SWAP1 PUSH2 0x100 EXP SWAP1 DIV PUSH20 0xFFFFFFFFFFFFFFFFFFFFFFFFFFFFFFFFFFFFFFFF AND SWAP1 POP DUP2 PUSH0 PUSH0 PUSH2 0x100 EXP DUP2 SLOAD DUP2 PUSH20 0xFFFFFFFFFFFFFFFFFFFFFFFFFFFFFFFFFFFFFFFF MUL NOT AND SWAP1 DUP4 PUSH20 0xFFFFFFFFFFFFFFFFFFFFFFFFFFFFFFFFFFFFFFFF AND MUL OR SWAP1 SSTORE POP DUP2 PUSH20 0xFFFFFFFFFFFFFFFFFFFFFFFFFFFFFFFFFFFFFFFF AND DUP2 PUSH20 0xFFFFFFFFFFFFFFFFFFFFFFFFFFFFFFFFFFFFFFFF AND PUSH32 0x8BE0079C531659141344CD1FD0A4F28419497F9722A3DAAFE3B4186F6B6457E0 PUSH1 0x40 MLOAD PUSH1 0x40 MLOAD DUP1 SWAP2 SUB SWAP1 LOG3 POP POP JUMP JUMPDEST PUSH0 CALLER SWAP1 POP SWAP1 JUMP JUMPDEST DUP3 DUP1 SLOAD DUP3 DUP3 SSTORE SWAP1 PUSH0 MSTORE PUSH1 0x20 PUSH0 KECCAK256 SWAP1 DUP2 ADD SWAP3 DUP3 ISZERO PUSH2 0x1069 JUMPI SWAP2 PUSH1 0x20 MUL DUP3 ADD JUMPDEST DUP3 DUP2 GT ISZERO PUSH2 0x1068 JUMPI DUP3 MLOAD DUP3 SSTORE SWAP2 PUSH1 0x20 ADD SWAP2 SWAP1 PUSH1 0x1 ADD SWAP1 PUSH2 0x104D JUMP JUMPDEST JUMPDEST POP SWAP1 POP PUSH2 0x1076 SWAP2 SWAP1 PUSH2 0x107A JUMP JUMPDEST POP SWAP1 JUMP JUMPDEST JUMPDEST DUP1 DUP3 GT ISZERO PUSH2 0x1091 JUMPI PUSH0 DUP2 PUSH0 SWAP1 SSTORE POP PUSH1 0x1 ADD PUSH2 0x107B JUMP JUMPDEST POP SWAP1 JUMP JUMPDEST PUSH0 PUSH1 0x40 MLOAD SWAP1 POP SWAP1 JUMP JUMPDEST PUSH0 PUSH0 REVERT JUMPDEST PUSH0 PUSH0 REVERT JUMPDEST PUSH0 PUSH20 0xFFFFFFFFFFFFFFFFFFFFFFFFFFFFFFFFFFFFFFFF DUP3 AND SWAP1 POP SWAP2 SWAP1 POP JUMP JUMPDEST PUSH0 PUSH2 0x10CF DUP3 PUSH2 0x10A6 JUMP JUMPDEST SWAP1 POP SWAP2 SWAP1 POP JUMP JUMPDEST PUSH2 0x10DF DUP2 PUSH2 0x10C5 JUMP JUMPDEST DUP2 EQ PUSH2 0x10E9 JUMPI PUSH0 PUSH0 REVERT JUMPDEST POP JUMP JUMPDEST PUSH0 DUP2 CALLDATALOAD SWAP1 POP PUSH2 0x10FA DUP2 PUSH2 0x10D6 JUMP JUMPDEST SWAP3 SWAP2 POP POP JUMP JUMPDEST PUSH0 DUP2 SWAP1 POP SWAP2 SWAP1 POP JUMP JUMPDEST PUSH2 0x1112 DUP2 PUSH2 0x1100 JUMP JUMPDEST DUP2 EQ PUSH2 0x111C JUMPI PUSH0 PUSH0 REVERT JUMPDEST POP JUMP JUMPDEST PUSH0 DUP2 CALLDATALOAD SWAP1 POP PUSH2 0x112D DUP2 PUSH2 0x1109 JUMP JUMPDEST SWAP3 SWAP2 POP POP JUMP JUMPDEST PUSH0 PUSH0 PUSH1 0x40 DUP4 DUP6 SUB SLT ISZERO PUSH2 0x1149 JUMPI PUSH2 0x1148 PUSH2 0x109E JUMP JUMPDEST JUMPDEST PUSH0 PUSH2 0x1156 DUP6 DUP3 DUP7 ADD PUSH2 0x10EC JUMP JUMPDEST SWAP3 POP POP PUSH1 0x20 PUSH2 0x1167 DUP6 DUP3 DUP7 ADD PUSH2 0x111F JUMP JUMPDEST SWAP2 POP POP SWAP3 POP SWAP3 SWAP1 POP JUMP JUMPDEST PUSH2 0x117A DUP2 PUSH2 0x1100 JUMP JUMPDEST DUP3 MSTORE POP POP JUMP JUMPDEST PUSH0 PUSH1 0x20 DUP3 ADD SWAP1 POP PUSH2 0x1193 PUSH0 DUP4 ADD DUP5 PUSH2 0x1171 JUMP JUMPDEST SWAP3 SWAP2 POP POP JUMP JUMPDEST PUSH0 PUSH0 PUSH0 PUSH1 0x60 DUP5 DUP7 SUB SLT ISZERO PUSH2 0x11B0 JUMPI PUSH2 0x11AF PUSH2 0x109E JUMP JUMPDEST JUMPDEST PUSH0 PUSH2 0x11BD DUP7 DUP3 DUP8 ADD PUSH2 0x111F JUMP JUMPDEST SWAP4 POP POP PUSH1 0x20 PUSH2 0x11CE DUP7 DUP3 DUP8 ADD PUSH2 0x111F JUMP JUMPDEST SWAP3 POP POP PUSH1 0x40 PUSH2 0x11DF DUP7 DUP3 DUP8 ADD PUSH2 0x111F JUMP JUMPDEST SWAP2 POP POP SWAP3 POP SWAP3 POP SWAP3 JUMP JUMPDEST PUSH0 PUSH1 0x20 DUP3 DUP5 SUB SLT ISZERO PUSH2 0x11FE JUMPI PUSH2 0x11FD PUSH2 0x109E JUMP JUMPDEST JUMPDEST PUSH0 PUSH2 0x120B DUP5 DUP3 DUP6 ADD PUSH2 0x111F JUMP JUMPDEST SWAP2 POP POP SWAP3 SWAP2 POP POP JUMP JUMPDEST PUSH0 PUSH1 0x80 DUP3 ADD SWAP1 POP PUSH2 0x1227 PUSH0 DUP4 ADD DUP8 PUSH2 0x1171 JUMP JUMPDEST PUSH2 0x1234 PUSH1 0x20 DUP4 ADD DUP7 PUSH2 0x1171 JUMP JUMPDEST PUSH2 0x1241 PUSH1 0x40 DUP4 ADD DUP6 PUSH2 0x1171 JUMP JUMPDEST PUSH2 0x124E PUSH1 0x60 DUP4 ADD DUP5 PUSH2 0x1171 JUMP JUMPDEST SWAP6 SWAP5 POP POP POP POP POP JUMP JUMPDEST PUSH0 PUSH0 PUSH1 0x40 DUP4 DUP6 SUB SLT ISZERO PUSH2 0x126D JUMPI PUSH2 0x126C PUSH2 0x109E JUMP JUMPDEST JUMPDEST PUSH0 PUSH2 0x127A DUP6 DUP3 DUP7 ADD PUSH2 0x111F JUMP JUMPDEST SWAP3 POP POP PUSH1 0x20 PUSH2 0x128B DUP6 DUP3 DUP7 ADD PUSH2 0x10EC JUMP JUMPDEST SWAP2 POP POP SWAP3 POP SWAP3 SWAP1 POP JUMP JUMPDEST PUSH0 PUSH0 PUSH1 0x40 DUP4 DUP6 SUB SLT ISZERO PUSH2 0x12AB JUMPI PUSH2 0x12AA PUSH2 0x109E JUMP JUMPDEST JUMPDEST PUSH0 PUSH2 0x12B8 DUP6 DUP3 DUP7 ADD PUSH2 0x111F JUMP JUMPDEST SWAP3 POP POP PUSH1 0x20 PUSH2 0x12C9 DUP6 DUP3 DUP7 ADD PUSH2 0x111F JUMP JUMPDEST SWAP2 POP POP SWAP3 POP SWAP3 SWAP1 POP JUMP JUMPDEST PUSH0 PUSH0 REVERT JUMPDEST PUSH0 PUSH0 REVERT JUMPDEST PUSH0 PUSH1 0x1F NOT PUSH1 0x1F DUP4 ADD AND SWAP1 POP SWAP2 SWAP1 POP JUMP JUMPDEST PUSH32 0x4E487B7100000000000000000000000000000000000000000000000000000000 PUSH0 MSTORE PUSH1 0x41 PUSH1 0x4 MSTORE PUSH1 0x24 PUSH0 REVERT JUMPDEST PUSH2 0x1321 DUP3 PUSH2 0x12DB JUMP JUMPDEST DUP2 ADD DUP2 DUP2 LT PUSH8 0xFFFFFFFFFFFFFFFF DUP3 GT OR ISZERO PUSH2 0x1340 JUMPI PUSH2 0x133F PUSH2 0x12EB JUMP JUMPDEST JUMPDEST DUP1 PUSH1 0x40 MSTORE POP POP POP JUMP JUMPDEST PUSH0 PUSH2 0x1352 PUSH2 0x1095 JUMP JUMPDEST SWAP1 POP PUSH2 0x135E DUP3 DUP3 PUSH2 0x1318 JUMP JUMPDEST SWAP2 SWAP1 POP JUMP JUMPDEST PUSH0 PUSH8 0xFFFFFFFFFFFFFFFF DUP3 GT ISZERO PUSH2 0x137D JUMPI PUSH2 0x137C PUSH2 0x12EB JUMP JUMPDEST JUMPDEST PUSH2 0x1386 DUP3 PUSH2 0x12DB JUMP JUMPDEST SWAP1 POP PUSH1 0x20 DUP2 ADD SWAP1 POP SWAP2 SWAP1 POP JUMP JUMPDEST DUP3 DUP2 DUP4 CALLDATACOPY PUSH0 DUP4 DUP4 ADD MSTORE POP POP POP JUMP JUMPDEST PUSH0 PUSH2 0x13B3 PUSH2 0x13AE DUP5 PUSH2 0x1363 JUMP JUMPDEST PUSH2 0x1349 JUMP JUMPDEST SWAP1 POP DUP3 DUP2 MSTORE PUSH1 0x20 DUP2 ADD DUP5 DUP5 DUP5 ADD GT ISZERO PUSH2 0x13CF JUMPI PUSH2 0x13CE PUSH2 0x12D7 JUMP JUMPDEST JUMPDEST PUSH2 0x13DA DUP5 DUP3 DUP6 PUSH2 0x1393 JUMP JUMPDEST POP SWAP4 SWAP3 POP POP POP JUMP JUMPDEST PUSH0 DUP3 PUSH1 0x1F DUP4 ADD SLT PUSH2 0x13F6 JUMPI PUSH2 0x13F5 PUSH2 0x12D3 JUMP JUMPDEST JUMPDEST DUP2 CALLDATALOAD PUSH2 0x1406 DUP5 DUP3 PUSH1 0x20 DUP7 ADD PUSH2 0x13A1 JUMP JUMPDEST SWAP2 POP POP SWAP3 SWAP2 POP POP JUMP JUMPDEST PUSH0 PUSH0 PUSH0 PUSH1 0x60 DUP5 DUP7 SUB SLT ISZERO PUSH2 0x1426 JUMPI PUSH2 0x1425 PUSH2 0x109E JUMP JUMPDEST JUMPDEST PUSH0 PUSH2 0x1433 DUP7 DUP3 DUP8 ADD PUSH2 0x111F JUMP JUMPDEST SWAP4 POP POP PUSH1 0x20 PUSH2 0x1444 DUP7 DUP3 DUP8 ADD PUSH2 0x111F JUMP JUMPDEST SWAP3 POP POP PUSH1 0x40 DUP5 ADD CALLDATALOAD PUSH8 0xFFFFFFFFFFFFFFFF DUP2 GT ISZERO PUSH2 0x1465 JUMPI PUSH2 0x1464 PUSH2 0x10A2 JUMP JUMPDEST JUMPDEST PUSH2 0x1471 DUP7 DUP3 DUP8 ADD PUSH2 0x13E2 JUMP JUMPDEST SWAP2 POP POP SWAP3 POP SWAP3 POP SWAP3 JUMP JUMPDEST PUSH0 DUP2 ISZERO ISZERO SWAP1 POP SWAP2 SWAP1 POP JUMP JUMPDEST PUSH2 0x148F DUP2 PUSH2 0x147B JUMP JUMPDEST DUP2 EQ PUSH2 0x1499 JUMPI PUSH0 PUSH0 REVERT JUMPDEST POP JUMP JUMPDEST PUSH0 DUP2 CALLDATALOAD SWAP1 POP PUSH2 0x14AA DUP2 PUSH2 0x1486 JUMP JUMPDEST SWAP3 SWAP2 POP POP JUMP JUMPDEST PUSH0 PUSH0 PUSH0 PUSH0 PUSH1 0x80 DUP6 DUP8 SUB SLT ISZERO PUSH2 0x14C8 JUMPI PUSH2 0x14C7 PUSH2 0x109E JUMP JUMPDEST JUMPDEST PUSH0 PUSH2 0x14D5 DUP8 DUP3 DUP9 ADD PUSH2 0x111F JUMP JUMPDEST SWAP5 POP POP PUSH1 0x20 PUSH2 0x14E6 DUP8 DUP3 DUP9 ADD PUSH2 0x10EC JUMP JUMPDEST SWAP4 POP POP PUSH1 0x40 PUSH2 0x14F7 DUP8 DUP3 DUP9 ADD PUSH2 0x111F JUMP JUMPDEST SWAP3 POP POP PUSH1 0x60 PUSH2 0x1508 DUP8 DUP3 DUP9 ADD PUSH2 0x149C JUMP JUMPDEST SWAP2 POP POP SWAP3 SWAP6 SWAP2 SWAP5 POP SWAP3 POP JUMP JUMPDEST PUSH0 PUSH0 PUSH0 PUSH1 0x60 DUP5 DUP7 SUB SLT ISZERO PUSH2 0x152B JUMPI PUSH2 0x152A PUSH2 0x109E JUMP JUMPDEST JUMPDEST PUSH0 PUSH2 0x1538 DUP7 DUP3 DUP8 ADD PUSH2 0x111F JUMP JUMPDEST SWAP4 POP POP PUSH1 0x20 PUSH2 0x1549 DUP7 DUP3 DUP8 ADD PUSH2 0x10EC JUMP JUMPDEST SWAP3 POP POP PUSH1 0x40 PUSH2 0x155A DUP7 DUP3 DUP8 ADD PUSH2 0x111F JUMP JUMPDEST SWAP2 POP POP SWAP3 POP SWAP3 POP SWAP3 JUMP JUMPDEST PUSH2 0x156D DUP2 PUSH2 0x10C5 JUMP JUMPDEST DUP3 MSTORE POP POP JUMP JUMPDEST PUSH0 PUSH1 0x20 DUP3 ADD SWAP1 POP PUSH2 0x1586 PUSH0 DUP4 ADD DUP5 PUSH2 0x1564 JUMP JUMPDEST SWAP3 SWAP2 POP POP JUMP JUMPDEST PUSH0 PUSH1 0x20 DUP3 DUP5 SUB SLT ISZERO PUSH2 0x15A1 JUMPI PUSH2 0x15A0 PUSH2 0x109E JUMP JUMPDEST JUMPDEST PUSH0 PUSH2 0x15AE DUP5 DUP3 DUP6 ADD PUSH2 0x10EC JUMP JUMPDEST SWAP2 POP POP SWAP3 SWAP2 POP POP JUMP JUMPDEST PUSH0 DUP3 DUP3 MSTORE PUSH1 0x20 DUP3 ADD SWAP1 POP SWAP3 SWAP2 POP POP JUMP JUMPDEST PUSH32 0x4E6F2072656E74616C20696E636F6D6520746F20636C61696D00000000000000 PUSH0 DUP3 ADD MSTORE POP JUMP JUMPDEST PUSH0 PUSH2 0x15FB PUSH1 0x19 DUP4 PUSH2 0x15B7 JUMP JUMPDEST SWAP2 POP PUSH2 0x1606 DUP3 PUSH2 0x15C7 JUMP JUMPDEST PUSH1 0x20 DUP3 ADD SWAP1 POP SWAP2 SWAP1 POP JUMP JUMPDEST PUSH0 PUSH1 0x20 DUP3 ADD SWAP1 POP DUP2 DUP2 SUB PUSH0 DUP4 ADD MSTORE PUSH2 0x1628 DUP2 PUSH2 0x15EF JUMP JUMPDEST SWAP1 POP SWAP2 SWAP1 POP JUMP JUMPDEST PUSH32 0x50726F7065727479206973206E6F742061637469766500000000000000000000 PUSH0 DUP3 ADD MSTORE POP JUMP JUMPDEST PUSH0 PUSH2 0x1663 PUSH1 0x16 DUP4 PUSH2 0x15B7 JUMP JUMPDEST SWAP2 POP PUSH2 0x166E DUP3 PUSH2 0x162F JUMP JUMPDEST PUSH1 0x20 DUP3 ADD SWAP1 POP SWAP2 SWAP1 POP JUMP JUMPDEST PUSH0 PUSH1 0x20 DUP3 ADD SWAP1 POP DUP2 DUP2 SUB PUSH0 DUP4 ADD MSTORE PUSH2 0x1690 DUP2 PUSH2 0x1657 JUMP JUMPDEST SWAP1 POP SWAP2 SWAP1 POP JUMP JUMPDEST PUSH0 DUP2 MLOAD SWAP1 POP SWAP2 SWAP1 POP JUMP JUMPDEST DUP3 DUP2 DUP4 MCOPY PUSH0 DUP4 DUP4 ADD MSTORE POP POP POP JUMP JUMPDEST PUSH0 PUSH2 0x16B9 DUP3 PUSH2 0x1697 JUMP JUMPDEST PUSH2 0x16C3 DUP2 DUP6 PUSH2 0x15B7 JUMP JUMPDEST SWAP4 POP PUSH2 0x16D3 DUP2 DUP6 PUSH1 0x20 DUP7 ADD PUSH2 0x16A1 JUMP JUMPDEST PUSH2 0x16DC DUP2 PUSH2 0x12DB JUMP JUMPDEST DUP5 ADD SWAP2 POP POP SWAP3 SWAP2 POP POP JUMP JUMPDEST PUSH0 PUSH1 0x40 DUP3 ADD SWAP1 POP PUSH2 0x16FA PUSH0 DUP4 ADD DUP6 PUSH2 0x1171 JUMP JUMPDEST DUP2 DUP2 SUB PUSH1 0x20 DUP4 ADD MSTORE PUSH2 0x170C DUP2 DUP5 PUSH2 0x16AF JUMP JUMPDEST SWAP1 POP SWAP4 SWAP3 POP POP POP JUMP JUMPDEST PUSH32 0x496E73756666696369656E742062616C616E6365000000000000000000000000 PUSH0 DUP3 ADD MSTORE POP JUMP JUMPDEST PUSH0 PUSH2 0x1749 PUSH1 0x14 DUP4 PUSH2 0x15B7 JUMP JUMPDEST SWAP2 POP PUSH2 0x1754 DUP3 PUSH2 0x1715 JUMP JUMPDEST PUSH1 0x20 DUP3 ADD SWAP1 POP SWAP2 SWAP1 POP JUMP JUMPDEST PUSH0 PUSH1 0x20 DUP3 ADD SWAP1 POP DUP2 DUP2 SUB PUSH0 DUP4 ADD MSTORE PUSH2 0x1776 DUP2 PUSH2 0x173D JUMP JUMPDEST SWAP1 POP SWAP2 SWAP1 POP JUMP JUMPDEST PUSH32 0x4E487B7100000000000000000000000000000000000000000000000000000000 PUSH0 MSTORE PUSH1 0x11 PUSH1 0x4 MSTORE PUSH1 0x24 PUSH0 REVERT JUMPDEST PUSH0 PUSH2 0x17B4 DUP3 PUSH2 0x1100 JUMP JUMPDEST SWAP2 POP PUSH2 0x17BF DUP4 PUSH2 0x1100 JUMP JUMPDEST SWAP3 POP DUP3 DUP3 SUB SWAP1 POP DUP2 DUP2 GT ISZERO PUSH2 0x17D7 JUMPI PUSH2 0x17D6 PUSH2 0x177D JUMP JUMPDEST JUMPDEST SWAP3 SWAP2 POP POP JUMP JUMPDEST PUSH0 PUSH2 0x17E7 DUP3 PUSH2 0x1100 JUMP JUMPDEST SWAP2 POP PUSH2 0x17F2 DUP4 PUSH2 0x1100 JUMP JUMPDEST SWAP3 POP DUP3 DUP3 MUL PUSH2 0x1800 DUP2 PUSH2 0x1100 JUMP JUMPDEST SWAP2 POP DUP3 DUP3 DIV DUP5 EQ DUP4 ISZERO OR PUSH2 0x1817 JUMPI PUSH2 0x1816 PUSH2 0x177D JUMP JUMPDEST JUMPDEST POP SWAP3 SWAP2 POP POP JUMP JUMPDEST PUSH32 0x4E487B7100000000000000000000000000000000000000000000000000000000 PUSH0 MSTORE PUSH1 0x12 PUSH1 0x4 MSTORE PUSH1 0x24 PUSH0 REVERT JUMPDEST PUSH0 PUSH2 0x1855 DUP3 PUSH2 0x1100 JUMP JUMPDEST SWAP2 POP PUSH2 0x1860 DUP4 PUSH2 0x1100 JUMP JUMPDEST SWAP3 POP DUP3 PUSH2 0x1870 JUMPI PUSH2 0x186F PUSH2 0x181E JUMP JUMPDEST JUMPDEST DUP3 DUP3 DIV SWAP1 POP SWAP3 SWAP2 POP POP JUMP JUMPDEST PUSH0 PUSH2 0x1885 DUP3 PUSH2 0x1100 JUMP JUMPDEST SWAP2 POP PUSH2 0x1890 DUP4 PUSH2 0x1100 JUMP JUMPDEST SWAP3 POP DUP3 DUP3 ADD SWAP1 POP DUP1 DUP3 GT ISZERO PUSH2 0x18A8 JUMPI PUSH2 0x18A7 PUSH2 0x177D JUMP JUMPDEST JUMPDEST SWAP3 SWAP2 POP POP JUMP INVALID LOG2 PUSH5 0x6970667358 0x22 SLT KECCAK256 PUSH5 0x641CCBD144 0xD9 SWAP8 MOD SAR PUSH21 0x38C3A16148C0EB0660EFA7149E8345B7C9CFDC5CB8 PUSH5 0x736F6C6343 STOP ADDMOD SHR STOP CALLER "
				},
				"gasEstimates": {
					"creation": {
						"codeDepositCost": "1274400",
						"executionCost": "infinite",
						"totalCost": "infinite"
					},
					"external": {
						"balanceOf(address,uint256)": "infinite",
						"claimRentalIncome(uint256,address)": "infinite",
						"distributeRentalIncome(uint256)": "infinite",
						"getFinancialReport(uint256)": "infinite",
						"getUnclaimedRentalIncome(uint256,address)": "infinite",
						"initializePropertyFinancials(uint256,uint256,uint256)": "infinite",
						"owner()": "2536",
						"recordExpense(uint256,uint256,string)": "infinite",
						"renounceOwnership()": "infinite",
						"transferOwnership(address)": "infinite",
						"updateCurrentValuation(uint256,uint256)": "infinite",
						"updateRentalIncome(uint256,uint256)": "infinite",
						"updateTokenBalance(uint256,address,uint256,bool)": "infinite",
						"updateUnclaimedRentalIncome(uint256,address,uint256)": "infinite"
					}
				},
				"methodIdentifiers": {
					"balanceOf(address,uint256)": "00fdd58e",
					"claimRentalIncome(uint256,address)": "3b5bcf8b",
					"distributeRentalIncome(uint256)": "db43919b",
					"getFinancialReport(uint256)": "22b6ed26",
					"getUnclaimedRentalIncome(uint256,address)": "700bc241",
					"initializePropertyFinancials(uint256,uint256,uint256)": "1dd6bf09",
					"owner()": "8da5cb5b",
					"recordExpense(uint256,uint256,string)": "513cac80",
					"renounceOwnership()": "715018a6",
					"transferOwnership(address)": "f2fde38b",
					"updateCurrentValuation(uint256,uint256)": "3bd48e4b",
					"updateRentalIncome(uint256,uint256)": "bf2ea183",
					"updateTokenBalance(uint256,address,uint256,bool)": "526bc60d",
					"updateUnclaimedRentalIncome(uint256,address,uint256)": "66184f50"
				}
			},
			"storageLayout": {
				"storage": [
					{
						"astId": 8,
						"contract": "Contract/FinancialManager.sol:FinancialManager",
						"label": "_owner",
						"offset": 0,
						"slot": "0",
						"type": "t_address"
					},
					{
						"astId": 523,
						"contract": "Contract/FinancialManager.sol:FinancialManager",
						"label": "_propertyFinancials",
						"offset": 0,
						"slot": "1",
						"type": "t_mapping(t_uint256,t_struct(PropertyFinancials)518_storage)"
					},
					{
						"astId": 529,
						"contract": "Contract/FinancialManager.sol:FinancialManager",
						"label": "_unclaimedRentalIncome",
						"offset": 0,
						"slot": "2",
						"type": "t_mapping(t_uint256,t_mapping(t_address,t_uint256))"
					},
					{
						"astId": 535,
						"contract": "Contract/FinancialManager.sol:FinancialManager",
						"label": "_tokenBalances",
						"offset": 0,
						"slot": "3",
						"type": "t_mapping(t_uint256,t_mapping(t_address,t_uint256))"
					}
				],
				"types": {
					"t_address": {
						"encoding": "inplace",
						"label": "address",
						"numberOfBytes": "20"
					},
					"t_array(t_uint256)dyn_storage": {
						"base": "t_uint256",
						"encoding": "dynamic_array",
						"label": "uint256[]",
						"numberOfBytes": "32"
					},
					"t_bool": {
						"encoding": "inplace",
						"label": "bool",
						"numberOfBytes": "1"
					},
					"t_mapping(t_address,t_uint256)": {
						"encoding": "mapping",
						"key": "t_address",
						"label": "mapping(address => uint256)",
						"numberOfBytes": "32",
						"value": "t_uint256"
					},
					"t_mapping(t_uint256,t_mapping(t_address,t_uint256))": {
						"encoding": "mapping",
						"key": "t_uint256",
						"label": "mapping(uint256 => mapping(address => uint256))",
						"numberOfBytes": "32",
						"value": "t_mapping(t_address,t_uint256)"
					},
					"t_mapping(t_uint256,t_struct(PropertyFinancials)518_storage)": {
						"encoding": "mapping",
						"key": "t_uint256",
						"label": "mapping(uint256 => struct FinancialManager.PropertyFinancials)",
						"numberOfBytes": "32",
						"value": "t_struct(PropertyFinancials)518_storage"
					},
					"t_struct(PropertyFinancials)518_storage": {
						"encoding": "inplace",
						"label": "struct FinancialManager.PropertyFinancials",
						"members": [
							{
								"astId": 500,
								"contract": "Contract/FinancialManager.sol:FinancialManager",
								"label": "totalRentalIncome",
								"offset": 0,
								"slot": "0",
								"type": "t_uint256"
							},
							{
								"astId": 502,
								"contract": "Contract/FinancialManager.sol:FinancialManager",
								"label": "rentalIncomePerShare",
								"offset": 0,
								"slot": "1",
								"type": "t_uint256"
							},
							{
								"astId": 504,
								"contract": "Contract/FinancialManager.sol:FinancialManager",
								"label": "lastRentalUpdate",
								"offset": 0,
								"slot": "2",
								"type": "t_uint256"
							},
							{
								"astId": 506,
								"contract": "Contract/FinancialManager.sol:FinancialManager",
								"label": "lastDistributionTimestamp",
								"offset": 0,
								"slot": "3",
								"type": "t_uint256"
							},
							{
								"astId": 508,
								"contract": "Contract/FinancialManager.sol:FinancialManager",
								"label": "isActive",
								"offset": 0,
								"slot": "4",
								"type": "t_bool"
							},
							{
								"astId": 510,
								"contract": "Contract/FinancialManager.sol:FinancialManager",
								"label": "totalExpenses",
								"offset": 0,
								"slot": "5",
								"type": "t_uint256"
							},
							{
								"astId": 513,
								"contract": "Contract/FinancialManager.sol:FinancialManager",
								"label": "monthlyRentalIncome",
								"offset": 0,
								"slot": "6",
								"type": "t_array(t_uint256)dyn_storage"
							},
							{
								"astId": 515,
								"contract": "Contract/FinancialManager.sol:FinancialManager",
								"label": "totalShares",
								"offset": 0,
								"slot": "7",
								"type": "t_uint256"
							},
							{
								"astId": 517,
								"contract": "Contract/FinancialManager.sol:FinancialManager",
								"label": "currentValuation",
								"offset": 0,
								"slot": "8",
								"type": "t_uint256"
							}
						],
						"numberOfBytes": "288"
					},
					"t_uint256": {
						"encoding": "inplace",
						"label": "uint256",
						"numberOfBytes": "32"
					}
				}
			},
			"userdoc": {
				"kind": "user",
				"methods": {},
				"version": 1
			}
		}
	}
}