{
	"Contract/PropertyManager.sol": {
		"PropertyManager": {
			"abi": [
				{
					"inputs": [],
					"stateMutability": "nonpayable",
					"type": "constructor"
				},
				{
					"inputs": [
						{
							"internalType": "address",
							"name": "owner",
							"type": "address"
						}
					],
					"name": "OwnableInvalidOwner",
					"type": "error"
				},
				{
					"inputs": [
						{
							"internalType": "address",
							"name": "account",
							"type": "address"
						}
					],
					"name": "OwnableUnauthorizedAccount",
					"type": "error"
				},
				{
					"anonymous": false,
					"inputs": [
						{
							"indexed": true,
							"internalType": "address",
							"name": "previousOwner",
							"type": "address"
						},
						{
							"indexed": true,
							"internalType": "address",
							"name": "newOwner",
							"type": "address"
						}
					],
					"name": "OwnershipTransferred",
					"type": "event"
				},
				{
					"anonymous": false,
					"inputs": [
						{
							"indexed": true,
							"internalType": "uint256",
							"name": "propertyId",
							"type": "uint256"
						},
						{
							"indexed": false,
							"internalType": "string",
							"name": "name",
							"type": "string"
						},
						{
							"indexed": false,
							"internalType": "string",
							"name": "location",
							"type": "string"
						},
						{
							"indexed": false,
							"internalType": "uint256",
							"name": "totalShares",
							"type": "uint256"
						},
						{
							"indexed": false,
							"internalType": "uint256",
							"name": "pricePerShare",
							"type": "uint256"
						},
						{
							"indexed": false,
							"internalType": "uint256",
							"name": "initialValuation",
							"type": "uint256"
						}
					],
					"name": "PropertyTokenized",
					"type": "event"
				},
				{
					"inputs": [
						{
							"internalType": "uint256",
							"name": "propertyId",
							"type": "uint256"
						},
						{
							"internalType": "uint256",
							"name": "amount",
							"type": "uint256"
						}
					],
					"name": "calculateLiquidationPrice",
					"outputs": [
						{
							"internalType": "uint256",
							"name": "",
							"type": "uint256"
						}
					],
					"stateMutability": "view",
					"type": "function"
				},
				{
					"inputs": [
						{
							"internalType": "uint256",
							"name": "propertyId",
							"type": "uint256"
						},
						{
							"internalType": "uint256",
							"name": "amount",
							"type": "uint256"
						}
					],
					"name": "calculatePurchase",
					"outputs": [
						{
							"internalType": "uint256",
							"name": "",
							"type": "uint256"
						},
						{
							"internalType": "uint256",
							"name": "",
							"type": "uint256"
						}
					],
					"stateMutability": "view",
					"type": "function"
				},
				{
					"inputs": [
						{
							"internalType": "string",
							"name": "name",
							"type": "string"
						},
						{
							"internalType": "string",
							"name": "location",
							"type": "string"
						},
						{
							"internalType": "string",
							"name": "description",
							"type": "string"
						},
						{
							"internalType": "string[]",
							"name": "imageUrls",
							"type": "string[]"
						},
						{
							"internalType": "uint256",
							"name": "totalShares",
							"type": "uint256"
						},
						{
							"internalType": "uint256",
							"name": "pricePerShare",
							"type": "uint256"
						},
						{
							"internalType": "uint256",
							"name": "initialValuation",
							"type": "uint256"
						}
					],
					"name": "createProperty",
					"outputs": [
						{
							"internalType": "uint256",
							"name": "",
							"type": "uint256"
						}
					],
					"stateMutability": "nonpayable",
					"type": "function"
				},
				{
					"inputs": [
						{
							"internalType": "uint256",
							"name": "propertyId",
							"type": "uint256"
						}
					],
					"name": "getPropertyInfo",
					"outputs": [
						{
							"internalType": "string",
							"name": "name",
							"type": "string"
						},
						{
							"internalType": "string",
							"name": "location",
							"type": "string"
						},
						{
							"internalType": "uint256",
							"name": "totalShares",
							"type": "uint256"
						},
						{
							"internalType": "uint256",
							"name": "pricePerShare",
							"type": "uint256"
						},
						{
							"internalType": "bool",
							"name": "isForSale",
							"type": "bool"
						},
						{
							"internalType": "uint256",
							"name": "salePrice",
							"type": "uint256"
						}
					],
					"stateMutability": "view",
					"type": "function"
				},
				{
					"inputs": [],
					"name": "owner",
					"outputs": [
						{
							"internalType": "address",
							"name": "",
							"type": "address"
						}
					],
					"stateMutability": "view",
					"type": "function"
				},
				{
					"inputs": [],
					"name": "renounceOwnership",
					"outputs": [],
					"stateMutability": "nonpayable",
					"type": "function"
				},
				{
					"inputs": [
						{
							"internalType": "address",
							"name": "newOwner",
							"type": "address"
						}
					],
					"name": "transferOwnership",
					"outputs": [],
					"stateMutability": "nonpayable",
					"type": "function"
				},
				{
					"inputs": [
						{
							"internalType": "uint256",
							"name": "propertyId",
							"type": "uint256"
						},
						{
							"internalType": "uint256",
							"name": "amount",
							"type": "uint256"
						}
					],
					"name": "updateAvailableShares",
					"outputs": [],
					"stateMutability": "nonpayable",
					"type": "function"
				},
				{
					"inputs": [
						{
							"internalType": "uint256",
							"name": "propertyId",
							"type": "uint256"
						},
						{
							"internalType": "uint256",
							"name": "newValuation",
							"type": "uint256"
						}
					],
					"name": "updatePropertyValuation",
					"outputs": [],
					"stateMutability": "nonpayable",
					"type": "function"
				}
			],
			"devdoc": {
				"errors": {
					"OwnableInvalidOwner(address)": [
						{
							"details": "The owner is not a valid owner account. (eg. `address(0)`)"
						}
					],
					"OwnableUnauthorizedAccount(address)": [
						{
							"details": "The caller account is not authorized to perform an operation."
						}
					]
				},
				"kind": "dev",
				"methods": {
					"owner()": {
						"details": "Returns the address of the current owner."
					},
					"renounceOwnership()": {
						"details": "Leaves the contract without owner. It will not be possible to call `onlyOwner` functions. Can only be called by the current owner. NOTE: Renouncing ownership will leave the contract without an owner, thereby disabling any functionality that is only available to the owner."
					},
					"transferOwnership(address)": {
						"details": "Transfers ownership of the contract to a new account (`newOwner`). Can only be called by the current owner."
					}
				},
				"version": 1
			},
			"evm": {
				"assembly": "    /* \"Contract/PropertyManager.sol\":178:3723  contract PropertyManager is Ownable {... */\n  mstore(0x40, 0x80)\n    /* \"Contract/PropertyManager.sol\":777:778  1 */\n  0x01\n    /* \"Contract/PropertyManager.sol\":743:778  uint256 private _nextPropertyId = 1 */\n  0x03\n  sstore\n    /* \"Contract/PropertyManager.sol\":1008:1044  constructor() Ownable(msg.sender) {} */\n  callvalue\n  dup1\n  iszero\n  tag_1\n  jumpi\n  0x00\n  dup1\n  revert\ntag_1:\n  pop\n    /* \"Contract/PropertyManager.sol\":1030:1040  msg.sender */\n  caller\n    /* \"@openzeppelin/contracts/access/Ownable.sol\":1297:1298  0 */\n  0x00\n    /* \"@openzeppelin/contracts/access/Ownable.sol\":1273:1299  initialOwner == address(0) */\n  0xffffffffffffffffffffffffffffffffffffffff\n  and\n    /* \"@openzeppelin/contracts/access/Ownable.sol\":1273:1285  initialOwner */\n  dup2\n    /* \"@openzeppelin/contracts/access/Ownable.sol\":1273:1299  initialOwner == address(0) */\n  0xffffffffffffffffffffffffffffffffffffffff\n  and\n  sub\n    /* \"@openzeppelin/contracts/access/Ownable.sol\":1269:1364  if (initialOwner == address(0)) {... */\n  tag_5\n  jumpi\n    /* \"@openzeppelin/contracts/access/Ownable.sol\":1350:1351  0 */\n  0x00\n    /* \"@openzeppelin/contracts/access/Ownable.sol\":1322:1353  OwnableInvalidOwner(address(0)) */\n  mload(0x40)\n  0x1e4fbdf700000000000000000000000000000000000000000000000000000000\n  dup2\n  mstore\n  0x04\n  add\n  tag_6\n  swap2\n  swap1\n  tag_7\n  jump\t// in\ntag_6:\n  mload(0x40)\n  dup1\n  swap2\n  sub\n  swap1\n  revert\n    /* \"@openzeppelin/contracts/access/Ownable.sol\":1269:1364  if (initialOwner == address(0)) {... */\ntag_5:\n    /* \"@openzeppelin/contracts/access/Ownable.sol\":1373:1405  _transferOwnership(initialOwner) */\n  tag_8\n    /* \"@openzeppelin/contracts/access/Ownable.sol\":1392:1404  initialOwner */\n  dup2\n    /* \"@openzeppelin/contracts/access/Ownable.sol\":1373:1391  _transferOwnership */\n  shl(0x20, tag_9)\n    /* \"@openzeppelin/contracts/access/Ownable.sol\":1373:1405  _transferOwnership(initialOwner) */\n  0x20\n  shr\n  jump\t// in\ntag_8:\n    /* \"@openzeppelin/contracts/access/Ownable.sol\":1225:1412  constructor(address initialOwner) {... */\n  pop\n    /* \"Contract/PropertyManager.sol\":178:3723  contract PropertyManager is Ownable {... */\n  jump(tag_11)\n    /* \"@openzeppelin/contracts/access/Ownable.sol\":2912:3099  function _transferOwnership(address newOwner) internal virtual {... */\ntag_9:\n    /* \"@openzeppelin/contracts/access/Ownable.sol\":2985:3001  address oldOwner */\n  0x00\n    /* \"@openzeppelin/contracts/access/Ownable.sol\":3004:3010  _owner */\n  dup1\n  0x00\n  swap1\n  sload\n  swap1\n  0x0100\n  exp\n  swap1\n  div\n  0xffffffffffffffffffffffffffffffffffffffff\n  and\n    /* \"@openzeppelin/contracts/access/Ownable.sol\":2985:3010  address oldOwner = _owner */\n  swap1\n  pop\n    /* \"@openzeppelin/contracts/access/Ownable.sol\":3029:3037  newOwner */\n  dup2\n    /* \"@openzeppelin/contracts/access/Ownable.sol\":3020:3026  _owner */\n  0x00\n  dup1\n    /* \"@openzeppelin/contracts/access/Ownable.sol\":3020:3037  _owner = newOwner */\n  0x0100\n  exp\n  dup2\n  sload\n  dup2\n  0xffffffffffffffffffffffffffffffffffffffff\n  mul\n  not\n  and\n  swap1\n  dup4\n  0xffffffffffffffffffffffffffffffffffffffff\n  and\n  mul\n  or\n  swap1\n  sstore\n  pop\n    /* \"@openzeppelin/contracts/access/Ownable.sol\":3083:3091  newOwner */\n  dup2\n    /* \"@openzeppelin/contracts/access/Ownable.sol\":3052:3092  OwnershipTransferred(oldOwner, newOwner) */\n  0xffffffffffffffffffffffffffffffffffffffff\n  and\n    /* \"@openzeppelin/contracts/access/Ownable.sol\":3073:3081  oldOwner */\n  dup2\n    /* \"@openzeppelin/contracts/access/Ownable.sol\":3052:3092  OwnershipTransferred(oldOwner, newOwner) */\n  0xffffffffffffffffffffffffffffffffffffffff\n  and\n  0x8be0079c531659141344cd1fd0a4f28419497f9722a3daafe3b4186f6b6457e0\n  mload(0x40)\n  mload(0x40)\n  dup1\n  swap2\n  sub\n  swap1\n  log3\n    /* \"@openzeppelin/contracts/access/Ownable.sol\":2975:3099  {... */\n  pop\n    /* \"@openzeppelin/contracts/access/Ownable.sol\":2912:3099  function _transferOwnership(address newOwner) internal virtual {... */\n  pop\n  jump\t// out\n    /* \"#utility.yul\":7:133   */\ntag_13:\n    /* \"#utility.yul\":44:51   */\n  0x00\n    /* \"#utility.yul\":84:126   */\n  0xffffffffffffffffffffffffffffffffffffffff\n    /* \"#utility.yul\":77:82   */\n  dup3\n    /* \"#utility.yul\":73:127   */\n  and\n    /* \"#utility.yul\":62:127   */\n  swap1\n  pop\n    /* \"#utility.yul\":7:133   */\n  swap2\n  swap1\n  pop\n  jump\t// out\n    /* \"#utility.yul\":139:235   */\ntag_14:\n    /* \"#utility.yul\":176:183   */\n  0x00\n    /* \"#utility.yul\":205:229   */\n  tag_19\n    /* \"#utility.yul\":223:228   */\n  dup3\n    /* \"#utility.yul\":205:229   */\n  tag_13\n  jump\t// in\ntag_19:\n    /* \"#utility.yul\":194:229   */\n  swap1\n  pop\n    /* \"#utility.yul\":139:235   */\n  swap2\n  swap1\n  pop\n  jump\t// out\n    /* \"#utility.yul\":241:359   */\ntag_15:\n    /* \"#utility.yul\":328:352   */\n  tag_21\n    /* \"#utility.yul\":346:351   */\n  dup2\n    /* \"#utility.yul\":328:352   */\n  tag_14\n  jump\t// in\ntag_21:\n    /* \"#utility.yul\":323:326   */\n  dup3\n    /* \"#utility.yul\":316:353   */\n  mstore\n    /* \"#utility.yul\":241:359   */\n  pop\n  pop\n  jump\t// out\n    /* \"#utility.yul\":365:587   */\ntag_7:\n    /* \"#utility.yul\":458:462   */\n  0x00\n    /* \"#utility.yul\":496:498   */\n  0x20\n    /* \"#utility.yul\":485:494   */\n  dup3\n    /* \"#utility.yul\":481:499   */\n  add\n    /* \"#utility.yul\":473:499   */\n  swap1\n  pop\n    /* \"#utility.yul\":509:580   */\n  tag_23\n    /* \"#utility.yul\":577:578   */\n  0x00\n    /* \"#utility.yul\":566:575   */\n  dup4\n    /* \"#utility.yul\":562:579   */\n  add\n    /* \"#utility.yul\":553:559   */\n  dup5\n    /* \"#utility.yul\":509:580   */\n  tag_15\n  jump\t// in\ntag_23:\n    /* \"#utility.yul\":365:587   */\n  swap3\n  swap2\n  pop\n  pop\n  jump\t// out\n    /* \"Contract/PropertyManager.sol\":178:3723  contract PropertyManager is Ownable {... */\ntag_11:\n  dataSize(sub_0)\n  dup1\n  dataOffset(sub_0)\n  0x00\n  codecopy\n  0x00\n  return\nstop\n\nsub_0: assembly {\n        /* \"Contract/PropertyManager.sol\":178:3723  contract PropertyManager is Ownable {... */\n      mstore(0x40, 0x80)\n      callvalue\n      dup1\n      iszero\n      tag_1\n      jumpi\n      0x00\n      dup1\n      revert\n    tag_1:\n      pop\n      jumpi(tag_2, lt(calldatasize, 0x04))\n      shr(0xe0, calldataload(0x00))\n      dup1\n      0x715018a6\n      gt\n      tag_12\n      jumpi\n      dup1\n      0x715018a6\n      eq\n      tag_7\n      jumpi\n      dup1\n      0x846814b4\n      eq\n      tag_8\n      jumpi\n      dup1\n      0x8da5cb5b\n      eq\n      tag_9\n      jumpi\n      dup1\n      0x9b8c549a\n      eq\n      tag_10\n      jumpi\n      dup1\n      0xf2fde38b\n      eq\n      tag_11\n      jumpi\n      jump(tag_2)\n    tag_12:\n      dup1\n      0x32b2b934\n      eq\n      tag_3\n      jumpi\n      dup1\n      0x38206125\n      eq\n      tag_4\n      jumpi\n      dup1\n      0x40f0a055\n      eq\n      tag_5\n      jumpi\n      dup1\n      0x416e4f48\n      eq\n      tag_6\n      jumpi\n    tag_2:\n      0x00\n      dup1\n      revert\n        /* \"Contract/PropertyManager.sol\":2223:2535  function calculatePurchase(uint256 propertyId, uint256 amount) public view returns (uint256, uint256) {... */\n    tag_3:\n      tag_13\n      0x04\n      dup1\n      calldatasize\n      sub\n      dup2\n      add\n      swap1\n      tag_14\n      swap2\n      swap1\n      tag_15\n      jump\t// in\n    tag_14:\n      tag_16\n      jump\t// in\n    tag_13:\n      mload(0x40)\n      tag_17\n      swap3\n      swap2\n      swap1\n      tag_18\n      jump\t// in\n    tag_17:\n      mload(0x40)\n      dup1\n      swap2\n      sub\n      swap1\n      return\n        /* \"Contract/PropertyManager.sol\":3552:3720  function updatePropertyValuation(uint256 propertyId, uint256 newValuation) public onlyOwner {... */\n    tag_4:\n      tag_19\n      0x04\n      dup1\n      calldatasize\n      sub\n      dup2\n      add\n      swap1\n      tag_20\n      swap2\n      swap1\n      tag_15\n      jump\t// in\n    tag_20:\n      tag_21\n      jump\t// in\n    tag_19:\n      stop\n        /* \"Contract/PropertyManager.sol\":2991:3544  function getPropertyInfo(uint256 propertyId) public view returns (... */\n    tag_5:\n      tag_22\n      0x04\n      dup1\n      calldatasize\n      sub\n      dup2\n      add\n      swap1\n      tag_23\n      swap2\n      swap1\n      tag_24\n      jump\t// in\n    tag_23:\n      tag_25\n      jump\t// in\n    tag_22:\n      mload(0x40)\n      tag_26\n      swap7\n      swap6\n      swap5\n      swap4\n      swap3\n      swap2\n      swap1\n      tag_27\n      jump\t// in\n    tag_26:\n      mload(0x40)\n      dup1\n      swap2\n      sub\n      swap1\n      return\n        /* \"Contract/PropertyManager.sol\":2543:2717  function updateAvailableShares(uint256 propertyId, uint256 amount) public onlyOwner {... */\n    tag_6:\n      tag_28\n      0x04\n      dup1\n      calldatasize\n      sub\n      dup2\n      add\n      swap1\n      tag_29\n      swap2\n      swap1\n      tag_15\n      jump\t// in\n    tag_29:\n      tag_30\n      jump\t// in\n    tag_28:\n      stop\n        /* \"@openzeppelin/contracts/access/Ownable.sol\":2293:2394  function renounceOwnership() public virtual onlyOwner {... */\n    tag_7:\n      tag_31\n      tag_32\n      jump\t// in\n    tag_31:\n      stop\n        /* \"Contract/PropertyManager.sol\":1052:2215  function createProperty(... */\n    tag_8:\n      tag_33\n      0x04\n      dup1\n      calldatasize\n      sub\n      dup2\n      add\n      swap1\n      tag_34\n      swap2\n      swap1\n      tag_35\n      jump\t// in\n    tag_34:\n      tag_36\n      jump\t// in\n    tag_33:\n      mload(0x40)\n      tag_37\n      swap2\n      swap1\n      tag_38\n      jump\t// in\n    tag_37:\n      mload(0x40)\n      dup1\n      swap2\n      sub\n      swap1\n      return\n        /* \"@openzeppelin/contracts/access/Ownable.sol\":1638:1723  function owner() public view virtual returns (address) {... */\n    tag_9:\n      tag_39\n      tag_40\n      jump\t// in\n    tag_39:\n      mload(0x40)\n      tag_41\n      swap2\n      swap1\n      tag_42\n      jump\t// in\n    tag_41:\n      mload(0x40)\n      dup1\n      swap2\n      sub\n      swap1\n      return\n        /* \"Contract/PropertyManager.sol\":2725:2983  function calculateLiquidationPrice(uint256 propertyId, uint256 amount) public view returns (uint256) {... */\n    tag_10:\n      tag_43\n      0x04\n      dup1\n      calldatasize\n      sub\n      dup2\n      add\n      swap1\n      tag_44\n      swap2\n      swap1\n      tag_15\n      jump\t// in\n    tag_44:\n      tag_45\n      jump\t// in\n    tag_43:\n      mload(0x40)\n      tag_46\n      swap2\n      swap1\n      tag_38\n      jump\t// in\n    tag_46:\n      mload(0x40)\n      dup1\n      swap2\n      sub\n      swap1\n      return\n        /* \"@openzeppelin/contracts/access/Ownable.sol\":2543:2758  function transferOwnership(address newOwner) public virtual onlyOwner {... */\n    tag_11:\n      tag_47\n      0x04\n      dup1\n      calldatasize\n      sub\n      dup2\n      add\n      swap1\n      tag_48\n      swap2\n      swap1\n      tag_49\n      jump\t// in\n    tag_48:\n      tag_50\n      jump\t// in\n    tag_47:\n      stop\n        /* \"Contract/PropertyManager.sol\":2223:2535  function calculatePurchase(uint256 propertyId, uint256 amount) public view returns (uint256, uint256) {... */\n    tag_16:\n        /* \"Contract/PropertyManager.sol\":2307:2314  uint256 */\n      0x00\n        /* \"Contract/PropertyManager.sol\":2316:2323  uint256 */\n      dup1\n        /* \"Contract/PropertyManager.sol\":2336:2369  PropertyInfo storage propertyInfo */\n      0x00\n        /* \"Contract/PropertyManager.sol\":2372:2385  _propertyInfo */\n      0x01\n        /* \"Contract/PropertyManager.sol\":2372:2397  _propertyInfo[propertyId] */\n      0x00\n        /* \"Contract/PropertyManager.sol\":2386:2396  propertyId */\n      dup7\n        /* \"Contract/PropertyManager.sol\":2372:2397  _propertyInfo[propertyId] */\n      dup2\n      mstore\n      0x20\n      add\n      swap1\n      dup2\n      mstore\n      0x20\n      add\n      0x00\n      keccak256\n        /* \"Contract/PropertyManager.sol\":2336:2397  PropertyInfo storage propertyInfo = _propertyInfo[propertyId] */\n      swap1\n      pop\n        /* \"Contract/PropertyManager.sol\":2408:2426  uint256 totalPrice */\n      0x00\n        /* \"Contract/PropertyManager.sol\":2429:2467  amount.mul(propertyInfo.pricePerShare) */\n      tag_52\n        /* \"Contract/PropertyManager.sol\":2440:2452  propertyInfo */\n      dup3\n        /* \"Contract/PropertyManager.sol\":2440:2466  propertyInfo.pricePerShare */\n      0x05\n      add\n      sload\n        /* \"Contract/PropertyManager.sol\":2429:2435  amount */\n      dup7\n        /* \"Contract/PropertyManager.sol\":2429:2439  amount.mul */\n      tag_53\n      swap1\n        /* \"Contract/PropertyManager.sol\":2429:2467  amount.mul(propertyInfo.pricePerShare) */\n      swap2\n      swap1\n      0xffffffff\n      and\n      jump\t// in\n    tag_52:\n        /* \"Contract/PropertyManager.sol\":2408:2467  uint256 totalPrice = amount.mul(propertyInfo.pricePerShare) */\n      swap1\n      pop\n        /* \"Contract/PropertyManager.sol\":2486:2496  totalPrice */\n      dup1\n        /* \"Contract/PropertyManager.sol\":2498:2514  _availableShares */\n      0x02\n        /* \"Contract/PropertyManager.sol\":2498:2526  _availableShares[propertyId] */\n      0x00\n        /* \"Contract/PropertyManager.sol\":2515:2525  propertyId */\n      dup9\n        /* \"Contract/PropertyManager.sol\":2498:2526  _availableShares[propertyId] */\n      dup2\n      mstore\n      0x20\n      add\n      swap1\n      dup2\n      mstore\n      0x20\n      add\n      0x00\n      keccak256\n      sload\n        /* \"Contract/PropertyManager.sol\":2478:2527  return (totalPrice, _availableShares[propertyId]) */\n      swap4\n      pop\n      swap4\n      pop\n      pop\n      pop\n        /* \"Contract/PropertyManager.sol\":2223:2535  function calculatePurchase(uint256 propertyId, uint256 amount) public view returns (uint256, uint256) {... */\n      swap3\n      pop\n      swap3\n      swap1\n      pop\n      jump\t// out\n        /* \"Contract/PropertyManager.sol\":3552:3720  function updatePropertyValuation(uint256 propertyId, uint256 newValuation) public onlyOwner {... */\n    tag_21:\n        /* \"@openzeppelin/contracts/access/Ownable.sol\":1531:1544  _checkOwner() */\n      tag_55\n        /* \"@openzeppelin/contracts/access/Ownable.sol\":1531:1542  _checkOwner */\n      tag_56\n        /* \"@openzeppelin/contracts/access/Ownable.sol\":1531:1544  _checkOwner() */\n      jump\t// in\n    tag_55:\n        /* \"Contract/PropertyManager.sol\":3700:3712  newValuation */\n      dup1\n        /* \"Contract/PropertyManager.sol\":3655:3668  _propertyInfo */\n      0x01\n        /* \"Contract/PropertyManager.sol\":3655:3680  _propertyInfo[propertyId] */\n      0x00\n        /* \"Contract/PropertyManager.sol\":3669:3679  propertyId */\n      dup5\n        /* \"Contract/PropertyManager.sol\":3655:3680  _propertyInfo[propertyId] */\n      dup2\n      mstore\n      0x20\n      add\n      swap1\n      dup2\n      mstore\n      0x20\n      add\n      0x00\n      keccak256\n        /* \"Contract/PropertyManager.sol\":3655:3697  _propertyInfo[propertyId].currentValuation */\n      0x07\n      add\n        /* \"Contract/PropertyManager.sol\":3655:3712  _propertyInfo[propertyId].currentValuation = newValuation */\n      dup2\n      swap1\n      sstore\n      pop\n        /* \"Contract/PropertyManager.sol\":3552:3720  function updatePropertyValuation(uint256 propertyId, uint256 newValuation) public onlyOwner {... */\n      pop\n      pop\n      jump\t// out\n        /* \"Contract/PropertyManager.sol\":2991:3544  function getPropertyInfo(uint256 propertyId) public view returns (... */\n    tag_25:\n        /* \"Contract/PropertyManager.sol\":3067:3085  string memory name */\n      0x60\n        /* \"Contract/PropertyManager.sol\":3096:3118  string memory location */\n      dup1\n        /* \"Contract/PropertyManager.sol\":3129:3148  uint256 totalShares */\n      0x00\n        /* \"Contract/PropertyManager.sol\":3159:3180  uint256 pricePerShare */\n      dup1\n        /* \"Contract/PropertyManager.sol\":3191:3205  bool isForSale */\n      0x00\n        /* \"Contract/PropertyManager.sol\":3216:3233  uint256 salePrice */\n      dup1\n        /* \"Contract/PropertyManager.sol\":3252:3281  PropertyInfo storage property */\n      0x00\n        /* \"Contract/PropertyManager.sol\":3284:3297  _propertyInfo */\n      0x01\n        /* \"Contract/PropertyManager.sol\":3284:3309  _propertyInfo[propertyId] */\n      0x00\n        /* \"Contract/PropertyManager.sol\":3298:3308  propertyId */\n      dup10\n        /* \"Contract/PropertyManager.sol\":3284:3309  _propertyInfo[propertyId] */\n      dup2\n      mstore\n      0x20\n      add\n      swap1\n      dup2\n      mstore\n      0x20\n      add\n      0x00\n      keccak256\n        /* \"Contract/PropertyManager.sol\":3252:3309  PropertyInfo storage property = _propertyInfo[propertyId] */\n      swap1\n      pop\n        /* \"Contract/PropertyManager.sol\":3342:3350  property */\n      dup1\n        /* \"Contract/PropertyManager.sol\":3342:3355  property.name */\n      0x00\n      add\n        /* \"Contract/PropertyManager.sol\":3370:3378  property */\n      dup2\n        /* \"Contract/PropertyManager.sol\":3370:3387  property.location */\n      0x01\n      add\n        /* \"Contract/PropertyManager.sol\":3402:3410  property */\n      dup3\n        /* \"Contract/PropertyManager.sol\":3402:3422  property.totalShares */\n      0x04\n      add\n      sload\n        /* \"Contract/PropertyManager.sol\":3437:3445  property */\n      dup4\n        /* \"Contract/PropertyManager.sol\":3437:3459  property.pricePerShare */\n      0x05\n      add\n      sload\n        /* \"Contract/PropertyManager.sol\":3474:3482  property */\n      dup5\n        /* \"Contract/PropertyManager.sol\":3474:3492  property.isForSale */\n      0x09\n      add\n      0x00\n      swap1\n      sload\n      swap1\n      0x0100\n      exp\n      swap1\n      div\n      0xff\n      and\n        /* \"Contract/PropertyManager.sol\":3507:3515  property */\n      dup6\n        /* \"Contract/PropertyManager.sol\":3507:3525  property.salePrice */\n      0x0a\n      add\n      sload\n        /* \"Contract/PropertyManager.sol\":3320:3536  return (... */\n      dup6\n      dup1\n      sload\n      tag_59\n      swap1\n      tag_60\n      jump\t// in\n    tag_59:\n      dup1\n      0x1f\n      add\n      0x20\n      dup1\n      swap2\n      div\n      mul\n      0x20\n      add\n      mload(0x40)\n      swap1\n      dup2\n      add\n      0x40\n      mstore\n      dup1\n      swap3\n      swap2\n      swap1\n      dup2\n      dup2\n      mstore\n      0x20\n      add\n      dup3\n      dup1\n      sload\n      tag_61\n      swap1\n      tag_60\n      jump\t// in\n    tag_61:\n      dup1\n      iszero\n      tag_62\n      jumpi\n      dup1\n      0x1f\n      lt\n      tag_63\n      jumpi\n      0x0100\n      dup1\n      dup4\n      sload\n      div\n      mul\n      dup4\n      mstore\n      swap2\n      0x20\n      add\n      swap2\n      jump(tag_62)\n    tag_63:\n      dup3\n      add\n      swap2\n      swap1\n      0x00\n      mstore\n      keccak256(0x00, 0x20)\n      swap1\n    tag_64:\n      dup2\n      sload\n      dup2\n      mstore\n      swap1\n      0x01\n      add\n      swap1\n      0x20\n      add\n      dup1\n      dup4\n      gt\n      tag_64\n      jumpi\n      dup3\n      swap1\n      sub\n      0x1f\n      and\n      dup3\n      add\n      swap2\n    tag_62:\n      pop\n      pop\n      pop\n      pop\n      pop\n      swap6\n      pop\n      dup5\n      dup1\n      sload\n      tag_65\n      swap1\n      tag_60\n      jump\t// in\n    tag_65:\n      dup1\n      0x1f\n      add\n      0x20\n      dup1\n      swap2\n      div\n      mul\n      0x20\n      add\n      mload(0x40)\n      swap1\n      dup2\n      add\n      0x40\n      mstore\n      dup1\n      swap3\n      swap2\n      swap1\n      dup2\n      dup2\n      mstore\n      0x20\n      add\n      dup3\n      dup1\n      sload\n      tag_66\n      swap1\n      tag_60\n      jump\t// in\n    tag_66:\n      dup1\n      iszero\n      tag_67\n      jumpi\n      dup1\n      0x1f\n      lt\n      tag_68\n      jumpi\n      0x0100\n      dup1\n      dup4\n      sload\n      div\n      mul\n      dup4\n      mstore\n      swap2\n      0x20\n      add\n      swap2\n      jump(tag_67)\n    tag_68:\n      dup3\n      add\n      swap2\n      swap1\n      0x00\n      mstore\n      keccak256(0x00, 0x20)\n      swap1\n    tag_69:\n      dup2\n      sload\n      dup2\n      mstore\n      swap1\n      0x01\n      add\n      swap1\n      0x20\n      add\n      dup1\n      dup4\n      gt\n      tag_69\n      jumpi\n      dup3\n      swap1\n      sub\n      0x1f\n      and\n      dup3\n      add\n      swap2\n    tag_67:\n      pop\n      pop\n      pop\n      pop\n      pop\n      swap5\n      pop\n      swap7\n      pop\n      swap7\n      pop\n      swap7\n      pop\n      swap7\n      pop\n      swap7\n      pop\n      swap7\n      pop\n      pop\n        /* \"Contract/PropertyManager.sol\":2991:3544  function getPropertyInfo(uint256 propertyId) public view returns (... */\n      swap2\n      swap4\n      swap6\n      pop\n      swap2\n      swap4\n      swap6\n      jump\t// out\n        /* \"Contract/PropertyManager.sol\":2543:2717  function updateAvailableShares(uint256 propertyId, uint256 amount) public onlyOwner {... */\n    tag_30:\n        /* \"@openzeppelin/contracts/access/Ownable.sol\":1531:1544  _checkOwner() */\n      tag_71\n        /* \"@openzeppelin/contracts/access/Ownable.sol\":1531:1542  _checkOwner */\n      tag_56\n        /* \"@openzeppelin/contracts/access/Ownable.sol\":1531:1544  _checkOwner() */\n      jump\t// in\n    tag_71:\n        /* \"Contract/PropertyManager.sol\":2669:2709  _availableShares[propertyId].sub(amount) */\n      tag_73\n        /* \"Contract/PropertyManager.sol\":2702:2708  amount */\n      dup2\n        /* \"Contract/PropertyManager.sol\":2669:2685  _availableShares */\n      0x02\n        /* \"Contract/PropertyManager.sol\":2669:2697  _availableShares[propertyId] */\n      0x00\n        /* \"Contract/PropertyManager.sol\":2686:2696  propertyId */\n      dup6\n        /* \"Contract/PropertyManager.sol\":2669:2697  _availableShares[propertyId] */\n      dup2\n      mstore\n      0x20\n      add\n      swap1\n      dup2\n      mstore\n      0x20\n      add\n      0x00\n      keccak256\n      sload\n        /* \"Contract/PropertyManager.sol\":2669:2701  _availableShares[propertyId].sub */\n      tag_74\n      swap1\n        /* \"Contract/PropertyManager.sol\":2669:2709  _availableShares[propertyId].sub(amount) */\n      swap2\n      swap1\n      0xffffffff\n      and\n      jump\t// in\n    tag_73:\n        /* \"Contract/PropertyManager.sol\":2638:2654  _availableShares */\n      0x02\n        /* \"Contract/PropertyManager.sol\":2638:2666  _availableShares[propertyId] */\n      0x00\n        /* \"Contract/PropertyManager.sol\":2655:2665  propertyId */\n      dup5\n        /* \"Contract/PropertyManager.sol\":2638:2666  _availableShares[propertyId] */\n      dup2\n      mstore\n      0x20\n      add\n      swap1\n      dup2\n      mstore\n      0x20\n      add\n      0x00\n      keccak256\n        /* \"Contract/PropertyManager.sol\":2638:2709  _availableShares[propertyId] = _availableShares[propertyId].sub(amount) */\n      dup2\n      swap1\n      sstore\n      pop\n        /* \"Contract/PropertyManager.sol\":2543:2717  function updateAvailableShares(uint256 propertyId, uint256 amount) public onlyOwner {... */\n      pop\n      pop\n      jump\t// out\n        /* \"@openzeppelin/contracts/access/Ownable.sol\":2293:2394  function renounceOwnership() public virtual onlyOwner {... */\n    tag_32:\n        /* \"@openzeppelin/contracts/access/Ownable.sol\":1531:1544  _checkOwner() */\n      tag_76\n        /* \"@openzeppelin/contracts/access/Ownable.sol\":1531:1542  _checkOwner */\n      tag_56\n        /* \"@openzeppelin/contracts/access/Ownable.sol\":1531:1544  _checkOwner() */\n      jump\t// in\n    tag_76:\n        /* \"@openzeppelin/contracts/access/Ownable.sol\":2357:2387  _transferOwnership(address(0)) */\n      tag_78\n        /* \"@openzeppelin/contracts/access/Ownable.sol\":2384:2385  0 */\n      0x00\n        /* \"@openzeppelin/contracts/access/Ownable.sol\":2357:2375  _transferOwnership */\n      tag_79\n        /* \"@openzeppelin/contracts/access/Ownable.sol\":2357:2387  _transferOwnership(address(0)) */\n      jump\t// in\n    tag_78:\n        /* \"@openzeppelin/contracts/access/Ownable.sol\":2293:2394  function renounceOwnership() public virtual onlyOwner {... */\n      jump\t// out\n        /* \"Contract/PropertyManager.sol\":1052:2215  function createProperty(... */\n    tag_36:\n        /* \"Contract/PropertyManager.sol\":1340:1347  uint256 */\n      0x00\n        /* \"@openzeppelin/contracts/access/Ownable.sol\":1531:1544  _checkOwner() */\n      tag_81\n        /* \"@openzeppelin/contracts/access/Ownable.sol\":1531:1542  _checkOwner */\n      tag_56\n        /* \"@openzeppelin/contracts/access/Ownable.sol\":1531:1544  _checkOwner() */\n      jump\t// in\n    tag_81:\n        /* \"Contract/PropertyManager.sol\":1360:1381  uint256 newPropertyId */\n      0x00\n        /* \"Contract/PropertyManager.sol\":1384:1399  _nextPropertyId */\n      sload(0x03)\n        /* \"Contract/PropertyManager.sol\":1360:1399  uint256 newPropertyId = _nextPropertyId */\n      swap1\n      pop\n        /* \"Contract/PropertyManager.sol\":1443:1887  PropertyInfo({... */\n      mload(0x40)\n      dup1\n      0x0160\n      add\n      0x40\n      mstore\n      dup1\n        /* \"Contract/PropertyManager.sol\":1477:1481  name */\n      dup11\n        /* \"Contract/PropertyManager.sol\":1443:1887  PropertyInfo({... */\n      dup2\n      mstore\n      0x20\n      add\n        /* \"Contract/PropertyManager.sol\":1506:1514  location */\n      dup10\n        /* \"Contract/PropertyManager.sol\":1443:1887  PropertyInfo({... */\n      dup2\n      mstore\n      0x20\n      add\n        /* \"Contract/PropertyManager.sol\":1542:1553  description */\n      dup9\n        /* \"Contract/PropertyManager.sol\":1443:1887  PropertyInfo({... */\n      dup2\n      mstore\n      0x20\n      add\n        /* \"Contract/PropertyManager.sol\":1579:1588  imageUrls */\n      dup8\n        /* \"Contract/PropertyManager.sol\":1443:1887  PropertyInfo({... */\n      dup2\n      mstore\n      0x20\n      add\n        /* \"Contract/PropertyManager.sol\":1616:1627  totalShares */\n      dup7\n        /* \"Contract/PropertyManager.sol\":1443:1887  PropertyInfo({... */\n      dup2\n      mstore\n      0x20\n      add\n        /* \"Contract/PropertyManager.sol\":1657:1670  pricePerShare */\n      dup6\n        /* \"Contract/PropertyManager.sol\":1443:1887  PropertyInfo({... */\n      dup2\n      mstore\n      0x20\n      add\n        /* \"Contract/PropertyManager.sol\":1703:1719  initialValuation */\n      dup5\n        /* \"Contract/PropertyManager.sol\":1443:1887  PropertyInfo({... */\n      dup2\n      mstore\n      0x20\n      add\n        /* \"Contract/PropertyManager.sol\":1752:1768  initialValuation */\n      dup5\n        /* \"Contract/PropertyManager.sol\":1443:1887  PropertyInfo({... */\n      dup2\n      mstore\n      0x20\n      add\n        /* \"Contract/PropertyManager.sol\":1802:1817  block.timestamp */\n      timestamp\n        /* \"Contract/PropertyManager.sol\":1443:1887  PropertyInfo({... */\n      dup2\n      mstore\n      0x20\n      add\n        /* \"Contract/PropertyManager.sol\":1843:1848  false */\n      0x00\n        /* \"Contract/PropertyManager.sol\":1443:1887  PropertyInfo({... */\n      iszero\n      iszero\n      dup2\n      mstore\n      0x20\n      add\n        /* \"Contract/PropertyManager.sol\":1874:1875  0 */\n      0x00\n        /* \"Contract/PropertyManager.sol\":1443:1887  PropertyInfo({... */\n      dup2\n      mstore\n      pop\n        /* \"Contract/PropertyManager.sol\":1412:1425  _propertyInfo */\n      0x01\n        /* \"Contract/PropertyManager.sol\":1412:1440  _propertyInfo[newPropertyId] */\n      0x00\n        /* \"Contract/PropertyManager.sol\":1426:1439  newPropertyId */\n      dup4\n        /* \"Contract/PropertyManager.sol\":1412:1440  _propertyInfo[newPropertyId] */\n      dup2\n      mstore\n      0x20\n      add\n      swap1\n      dup2\n      mstore\n      0x20\n      add\n      0x00\n      keccak256\n        /* \"Contract/PropertyManager.sol\":1412:1887  _propertyInfo[newPropertyId] = PropertyInfo({... */\n      0x00\n      dup3\n      add\n      mload\n      dup2\n      0x00\n      add\n      swap1\n      dup2\n      tag_83\n      swap2\n      swap1\n      tag_84\n      jump\t// in\n    tag_83:\n      pop\n      0x20\n      dup3\n      add\n      mload\n      dup2\n      0x01\n      add\n      swap1\n      dup2\n      tag_85\n      swap2\n      swap1\n      tag_84\n      jump\t// in\n    tag_85:\n      pop\n      0x40\n      dup3\n      add\n      mload\n      dup2\n      0x02\n      add\n      swap1\n      dup2\n      tag_86\n      swap2\n      swap1\n      tag_84\n      jump\t// in\n    tag_86:\n      pop\n      0x60\n      dup3\n      add\n      mload\n      dup2\n      0x03\n      add\n      swap1\n      dup1\n      mload\n      swap1\n      0x20\n      add\n      swap1\n      tag_87\n      swap3\n      swap2\n      swap1\n      tag_88\n      jump\t// in\n    tag_87:\n      pop\n      0x80\n      dup3\n      add\n      mload\n      dup2\n      0x04\n      add\n      sstore\n      0xa0\n      dup3\n      add\n      mload\n      dup2\n      0x05\n      add\n      sstore\n      0xc0\n      dup3\n      add\n      mload\n      dup2\n      0x06\n      add\n      sstore\n      0xe0\n      dup3\n      add\n      mload\n      dup2\n      0x07\n      add\n      sstore\n      0x0100\n      dup3\n      add\n      mload\n      dup2\n      0x08\n      add\n      sstore\n      0x0120\n      dup3\n      add\n      mload\n      dup2\n      0x09\n      add\n      exp(0x0100, 0x00)\n      dup2\n      sload\n      dup2\n      0xff\n      mul\n      not\n      and\n      swap1\n      dup4\n      iszero\n      iszero\n      mul\n      or\n      swap1\n      sstore\n      pop\n      0x0140\n      dup3\n      add\n      mload\n      dup2\n      0x0a\n      add\n      sstore\n      swap1\n      pop\n      pop\n        /* \"Contract/PropertyManager.sol\":1934:1945  totalShares */\n      dup5\n        /* \"Contract/PropertyManager.sol\":1900:1916  _availableShares */\n      0x02\n        /* \"Contract/PropertyManager.sol\":1900:1931  _availableShares[newPropertyId] */\n      0x00\n        /* \"Contract/PropertyManager.sol\":1917:1930  newPropertyId */\n      dup4\n        /* \"Contract/PropertyManager.sol\":1900:1931  _availableShares[newPropertyId] */\n      dup2\n      mstore\n      0x20\n      add\n      swap1\n      dup2\n      mstore\n      0x20\n      add\n      0x00\n      keccak256\n        /* \"Contract/PropertyManager.sol\":1900:1945  _availableShares[newPropertyId] = totalShares */\n      dup2\n      swap1\n      sstore\n      pop\n        /* \"Contract/PropertyManager.sol\":1995:2008  newPropertyId */\n      dup1\n        /* \"Contract/PropertyManager.sol\":1963:2146  PropertyTokenized(... */\n      0xf995299d6b78bab4559102318b5c60fb5ada990cf028f135a648875091233a9b\n        /* \"Contract/PropertyManager.sol\":2023:2027  name */\n      dup11\n        /* \"Contract/PropertyManager.sol\":2042:2050  location */\n      dup11\n        /* \"Contract/PropertyManager.sol\":2065:2076  totalShares */\n      dup9\n        /* \"Contract/PropertyManager.sol\":2091:2104  pricePerShare */\n      dup9\n        /* \"Contract/PropertyManager.sol\":2119:2135  initialValuation */\n      dup9\n        /* \"Contract/PropertyManager.sol\":1963:2146  PropertyTokenized(... */\n      mload(0x40)\n      tag_89\n      swap6\n      swap5\n      swap4\n      swap3\n      swap2\n      swap1\n      tag_90\n      jump\t// in\n    tag_89:\n      mload(0x40)\n      dup1\n      swap2\n      sub\n      swap1\n      log2\n        /* \"Contract/PropertyManager.sol\":2159:2174  _nextPropertyId */\n      0x03\n      0x00\n        /* \"Contract/PropertyManager.sol\":2159:2176  _nextPropertyId++ */\n      dup2\n      sload\n      dup1\n      swap3\n      swap2\n      swap1\n      tag_91\n      swap1\n      tag_92\n      jump\t// in\n    tag_91:\n      swap2\n      swap1\n      pop\n      sstore\n      pop\n        /* \"Contract/PropertyManager.sol\":2194:2207  newPropertyId */\n      dup1\n        /* \"Contract/PropertyManager.sol\":2187:2207  return newPropertyId */\n      swap2\n      pop\n      pop\n        /* \"Contract/PropertyManager.sol\":1052:2215  function createProperty(... */\n      swap8\n      swap7\n      pop\n      pop\n      pop\n      pop\n      pop\n      pop\n      pop\n      jump\t// out\n        /* \"@openzeppelin/contracts/access/Ownable.sol\":1638:1723  function owner() public view virtual returns (address) {... */\n    tag_40:\n        /* \"@openzeppelin/contracts/access/Ownable.sol\":1684:1691  address */\n      0x00\n        /* \"@openzeppelin/contracts/access/Ownable.sol\":1710:1716  _owner */\n      dup1\n      0x00\n      swap1\n      sload\n      swap1\n      0x0100\n      exp\n      swap1\n      div\n      0xffffffffffffffffffffffffffffffffffffffff\n      and\n        /* \"@openzeppelin/contracts/access/Ownable.sol\":1703:1716  return _owner */\n      swap1\n      pop\n        /* \"@openzeppelin/contracts/access/Ownable.sol\":1638:1723  function owner() public view virtual returns (address) {... */\n      swap1\n      jump\t// out\n        /* \"Contract/PropertyManager.sol\":2725:2983  function calculateLiquidationPrice(uint256 propertyId, uint256 amount) public view returns (uint256) {... */\n    tag_45:\n        /* \"Contract/PropertyManager.sol\":2817:2824  uint256 */\n      0x00\n        /* \"Contract/PropertyManager.sol\":2837:2866  PropertyInfo storage property */\n      dup1\n        /* \"Contract/PropertyManager.sol\":2869:2882  _propertyInfo */\n      0x01\n        /* \"Contract/PropertyManager.sol\":2869:2894  _propertyInfo[propertyId] */\n      0x00\n        /* \"Contract/PropertyManager.sol\":2883:2893  propertyId */\n      dup6\n        /* \"Contract/PropertyManager.sol\":2869:2894  _propertyInfo[propertyId] */\n      dup2\n      mstore\n      0x20\n      add\n      swap1\n      dup2\n      mstore\n      0x20\n      add\n      0x00\n      keccak256\n        /* \"Contract/PropertyManager.sol\":2837:2894  PropertyInfo storage property = _propertyInfo[propertyId] */\n      swap1\n      pop\n        /* \"Contract/PropertyManager.sol\":2912:2975  amount.mul(property.currentValuation).div(property.totalShares) */\n      tag_95\n        /* \"Contract/PropertyManager.sol\":2954:2962  property */\n      dup2\n        /* \"Contract/PropertyManager.sol\":2954:2974  property.totalShares */\n      0x04\n      add\n      sload\n        /* \"Contract/PropertyManager.sol\":2912:2949  amount.mul(property.currentValuation) */\n      tag_96\n        /* \"Contract/PropertyManager.sol\":2923:2931  property */\n      dup4\n        /* \"Contract/PropertyManager.sol\":2923:2948  property.currentValuation */\n      0x07\n      add\n      sload\n        /* \"Contract/PropertyManager.sol\":2912:2918  amount */\n      dup7\n        /* \"Contract/PropertyManager.sol\":2912:2922  amount.mul */\n      tag_53\n      swap1\n        /* \"Contract/PropertyManager.sol\":2912:2949  amount.mul(property.currentValuation) */\n      swap2\n      swap1\n      0xffffffff\n      and\n      jump\t// in\n    tag_96:\n        /* \"Contract/PropertyManager.sol\":2912:2953  amount.mul(property.currentValuation).div */\n      tag_97\n      swap1\n        /* \"Contract/PropertyManager.sol\":2912:2975  amount.mul(property.currentValuation).div(property.totalShares) */\n      swap2\n      swap1\n      0xffffffff\n      and\n      jump\t// in\n    tag_95:\n        /* \"Contract/PropertyManager.sol\":2905:2975  return amount.mul(property.currentValuation).div(property.totalShares) */\n      swap2\n      pop\n      pop\n        /* \"Contract/PropertyManager.sol\":2725:2983  function calculateLiquidationPrice(uint256 propertyId, uint256 amount) public view returns (uint256) {... */\n      swap3\n      swap2\n      pop\n      pop\n      jump\t// out\n        /* \"@openzeppelin/contracts/access/Ownable.sol\":2543:2758  function transferOwnership(address newOwner) public virtual onlyOwner {... */\n    tag_50:\n        /* \"@openzeppelin/contracts/access/Ownable.sol\":1531:1544  _checkOwner() */\n      tag_99\n        /* \"@openzeppelin/contracts/access/Ownable.sol\":1531:1542  _checkOwner */\n      tag_56\n        /* \"@openzeppelin/contracts/access/Ownable.sol\":1531:1544  _checkOwner() */\n      jump\t// in\n    tag_99:\n        /* \"@openzeppelin/contracts/access/Ownable.sol\":2647:2648  0 */\n      0x00\n        /* \"@openzeppelin/contracts/access/Ownable.sol\":2627:2649  newOwner == address(0) */\n      0xffffffffffffffffffffffffffffffffffffffff\n      and\n        /* \"@openzeppelin/contracts/access/Ownable.sol\":2627:2635  newOwner */\n      dup2\n        /* \"@openzeppelin/contracts/access/Ownable.sol\":2627:2649  newOwner == address(0) */\n      0xffffffffffffffffffffffffffffffffffffffff\n      and\n      sub\n        /* \"@openzeppelin/contracts/access/Ownable.sol\":2623:2714  if (newOwner == address(0)) {... */\n      tag_101\n      jumpi\n        /* \"@openzeppelin/contracts/access/Ownable.sol\":2700:2701  0 */\n      0x00\n        /* \"@openzeppelin/contracts/access/Ownable.sol\":2672:2703  OwnableInvalidOwner(address(0)) */\n      mload(0x40)\n      0x1e4fbdf700000000000000000000000000000000000000000000000000000000\n      dup2\n      mstore\n      0x04\n      add\n      tag_102\n      swap2\n      swap1\n      tag_42\n      jump\t// in\n    tag_102:\n      mload(0x40)\n      dup1\n      swap2\n      sub\n      swap1\n      revert\n        /* \"@openzeppelin/contracts/access/Ownable.sol\":2623:2714  if (newOwner == address(0)) {... */\n    tag_101:\n        /* \"@openzeppelin/contracts/access/Ownable.sol\":2723:2751  _transferOwnership(newOwner) */\n      tag_103\n        /* \"@openzeppelin/contracts/access/Ownable.sol\":2742:2750  newOwner */\n      dup2\n        /* \"@openzeppelin/contracts/access/Ownable.sol\":2723:2741  _transferOwnership */\n      tag_79\n        /* \"@openzeppelin/contracts/access/Ownable.sol\":2723:2751  _transferOwnership(newOwner) */\n      jump\t// in\n    tag_103:\n        /* \"@openzeppelin/contracts/access/Ownable.sol\":2543:2758  function transferOwnership(address newOwner) public virtual onlyOwner {... */\n      pop\n      jump\t// out\n        /* \"@openzeppelin/contracts/utils/math/SafeMath.sol\":3465:3561  function mul(uint256 a, uint256 b) internal pure returns (uint256) {... */\n    tag_53:\n        /* \"@openzeppelin/contracts/utils/math/SafeMath.sol\":3523:3530  uint256 */\n      0x00\n        /* \"@openzeppelin/contracts/utils/math/SafeMath.sol\":3553:3554  b */\n      dup2\n        /* \"@openzeppelin/contracts/utils/math/SafeMath.sol\":3549:3550  a */\n      dup4\n        /* \"@openzeppelin/contracts/utils/math/SafeMath.sol\":3549:3554  a * b */\n      tag_105\n      swap2\n      swap1\n      tag_106\n      jump\t// in\n    tag_105:\n        /* \"@openzeppelin/contracts/utils/math/SafeMath.sol\":3542:3554  return a * b */\n      swap1\n      pop\n        /* \"@openzeppelin/contracts/utils/math/SafeMath.sol\":3465:3561  function mul(uint256 a, uint256 b) internal pure returns (uint256) {... */\n      swap3\n      swap2\n      pop\n      pop\n      jump\t// out\n        /* \"@openzeppelin/contracts/access/Ownable.sol\":1796:1958  function _checkOwner() internal view virtual {... */\n    tag_56:\n        /* \"@openzeppelin/contracts/access/Ownable.sol\":1866:1878  _msgSender() */\n      tag_108\n        /* \"@openzeppelin/contracts/access/Ownable.sol\":1866:1876  _msgSender */\n      tag_109\n        /* \"@openzeppelin/contracts/access/Ownable.sol\":1866:1878  _msgSender() */\n      jump\t// in\n    tag_108:\n        /* \"@openzeppelin/contracts/access/Ownable.sol\":1855:1878  owner() != _msgSender() */\n      0xffffffffffffffffffffffffffffffffffffffff\n      and\n        /* \"@openzeppelin/contracts/access/Ownable.sol\":1855:1862  owner() */\n      tag_110\n        /* \"@openzeppelin/contracts/access/Ownable.sol\":1855:1860  owner */\n      tag_40\n        /* \"@openzeppelin/contracts/access/Ownable.sol\":1855:1862  owner() */\n      jump\t// in\n    tag_110:\n        /* \"@openzeppelin/contracts/access/Ownable.sol\":1855:1878  owner() != _msgSender() */\n      0xffffffffffffffffffffffffffffffffffffffff\n      and\n      eq\n        /* \"@openzeppelin/contracts/access/Ownable.sol\":1851:1952  if (owner() != _msgSender()) {... */\n      tag_111\n      jumpi\n        /* \"@openzeppelin/contracts/access/Ownable.sol\":1928:1940  _msgSender() */\n      tag_112\n        /* \"@openzeppelin/contracts/access/Ownable.sol\":1928:1938  _msgSender */\n      tag_109\n        /* \"@openzeppelin/contracts/access/Ownable.sol\":1928:1940  _msgSender() */\n      jump\t// in\n    tag_112:\n        /* \"@openzeppelin/contracts/access/Ownable.sol\":1901:1941  OwnableUnauthorizedAccount(_msgSender()) */\n      mload(0x40)\n      0x118cdaa700000000000000000000000000000000000000000000000000000000\n      dup2\n      mstore\n      0x04\n      add\n      tag_113\n      swap2\n      swap1\n      tag_42\n      jump\t// in\n    tag_113:\n      mload(0x40)\n      dup1\n      swap2\n      sub\n      swap1\n      revert\n        /* \"@openzeppelin/contracts/access/Ownable.sol\":1851:1952  if (owner() != _msgSender()) {... */\n    tag_111:\n        /* \"@openzeppelin/contracts/access/Ownable.sol\":1796:1958  function _checkOwner() internal view virtual {... */\n      jump\t// out\n        /* \"@openzeppelin/contracts/utils/math/SafeMath.sol\":3122:3218  function sub(uint256 a, uint256 b) internal pure returns (uint256) {... */\n    tag_74:\n        /* \"@openzeppelin/contracts/utils/math/SafeMath.sol\":3180:3187  uint256 */\n      0x00\n        /* \"@openzeppelin/contracts/utils/math/SafeMath.sol\":3210:3211  b */\n      dup2\n        /* \"@openzeppelin/contracts/utils/math/SafeMath.sol\":3206:3207  a */\n      dup4\n        /* \"@openzeppelin/contracts/utils/math/SafeMath.sol\":3206:3211  a - b */\n      tag_115\n      swap2\n      swap1\n      tag_116\n      jump\t// in\n    tag_115:\n        /* \"@openzeppelin/contracts/utils/math/SafeMath.sol\":3199:3211  return a - b */\n      swap1\n      pop\n        /* \"@openzeppelin/contracts/utils/math/SafeMath.sol\":3122:3218  function sub(uint256 a, uint256 b) internal pure returns (uint256) {... */\n      swap3\n      swap2\n      pop\n      pop\n      jump\t// out\n        /* \"@openzeppelin/contracts/access/Ownable.sol\":2912:3099  function _transferOwnership(address newOwner) internal virtual {... */\n    tag_79:\n        /* \"@openzeppelin/contracts/access/Ownable.sol\":2985:3001  address oldOwner */\n      0x00\n        /* \"@openzeppelin/contracts/access/Ownable.sol\":3004:3010  _owner */\n      dup1\n      0x00\n      swap1\n      sload\n      swap1\n      0x0100\n      exp\n      swap1\n      div\n      0xffffffffffffffffffffffffffffffffffffffff\n      and\n        /* \"@openzeppelin/contracts/access/Ownable.sol\":2985:3010  address oldOwner = _owner */\n      swap1\n      pop\n        /* \"@openzeppelin/contracts/access/Ownable.sol\":3029:3037  newOwner */\n      dup2\n        /* \"@openzeppelin/contracts/access/Ownable.sol\":3020:3026  _owner */\n      0x00\n      dup1\n        /* \"@openzeppelin/contracts/access/Ownable.sol\":3020:3037  _owner = newOwner */\n      0x0100\n      exp\n      dup2\n      sload\n      dup2\n      0xffffffffffffffffffffffffffffffffffffffff\n      mul\n      not\n      and\n      swap1\n      dup4\n      0xffffffffffffffffffffffffffffffffffffffff\n      and\n      mul\n      or\n      swap1\n      sstore\n      pop\n        /* \"@openzeppelin/contracts/access/Ownable.sol\":3083:3091  newOwner */\n      dup2\n        /* \"@openzeppelin/contracts/access/Ownable.sol\":3052:3092  OwnershipTransferred(oldOwner, newOwner) */\n      0xffffffffffffffffffffffffffffffffffffffff\n      and\n        /* \"@openzeppelin/contracts/access/Ownable.sol\":3073:3081  oldOwner */\n      dup2\n        /* \"@openzeppelin/contracts/access/Ownable.sol\":3052:3092  OwnershipTransferred(oldOwner, newOwner) */\n      0xffffffffffffffffffffffffffffffffffffffff\n      and\n      0x8be0079c531659141344cd1fd0a4f28419497f9722a3daafe3b4186f6b6457e0\n      mload(0x40)\n      mload(0x40)\n      dup1\n      swap2\n      sub\n      swap1\n      log3\n        /* \"@openzeppelin/contracts/access/Ownable.sol\":2975:3099  {... */\n      pop\n        /* \"@openzeppelin/contracts/access/Ownable.sol\":2912:3099  function _transferOwnership(address newOwner) internal virtual {... */\n      pop\n      jump\t// out\n        /* \"@openzeppelin/contracts/utils/math/SafeMath.sol\":3850:3946  function div(uint256 a, uint256 b) internal pure returns (uint256) {... */\n    tag_97:\n        /* \"@openzeppelin/contracts/utils/math/SafeMath.sol\":3908:3915  uint256 */\n      0x00\n        /* \"@openzeppelin/contracts/utils/math/SafeMath.sol\":3938:3939  b */\n      dup2\n        /* \"@openzeppelin/contracts/utils/math/SafeMath.sol\":3934:3935  a */\n      dup4\n        /* \"@openzeppelin/contracts/utils/math/SafeMath.sol\":3934:3939  a / b */\n      tag_119\n      swap2\n      swap1\n      tag_120\n      jump\t// in\n    tag_119:\n        /* \"@openzeppelin/contracts/utils/math/SafeMath.sol\":3927:3939  return a / b */\n      swap1\n      pop\n        /* \"@openzeppelin/contracts/utils/math/SafeMath.sol\":3850:3946  function div(uint256 a, uint256 b) internal pure returns (uint256) {... */\n      swap3\n      swap2\n      pop\n      pop\n      jump\t// out\n        /* \"@openzeppelin/contracts/utils/Context.sol\":656:752  function _msgSender() internal view virtual returns (address) {... */\n    tag_109:\n        /* \"@openzeppelin/contracts/utils/Context.sol\":709:716  address */\n      0x00\n        /* \"@openzeppelin/contracts/utils/Context.sol\":735:745  msg.sender */\n      caller\n        /* \"@openzeppelin/contracts/utils/Context.sol\":728:745  return msg.sender */\n      swap1\n      pop\n        /* \"@openzeppelin/contracts/utils/Context.sol\":656:752  function _msgSender() internal view virtual returns (address) {... */\n      swap1\n      jump\t// out\n    tag_88:\n      dup3\n      dup1\n      sload\n      dup3\n      dup3\n      sstore\n      swap1\n      0x00\n      mstore\n      keccak256(0x00, 0x20)\n      swap1\n      dup2\n      add\n      swap3\n      dup3\n      iszero\n      tag_122\n      jumpi\n      swap2\n      0x20\n      mul\n      dup3\n      add\n    tag_123:\n      dup3\n      dup2\n      gt\n      iszero\n      tag_124\n      jumpi\n      dup3\n      mload\n      dup3\n      swap1\n      dup2\n      tag_125\n      swap2\n      swap1\n      tag_84\n      jump\t// in\n    tag_125:\n      pop\n      swap2\n      0x20\n      add\n      swap2\n      swap1\n      0x01\n      add\n      swap1\n      jump(tag_123)\n    tag_124:\n    tag_122:\n      pop\n      swap1\n      pop\n      tag_126\n      swap2\n      swap1\n      tag_127\n      jump\t// in\n    tag_126:\n      pop\n      swap1\n      jump\t// out\n    tag_127:\n    tag_128:\n      dup1\n      dup3\n      gt\n      iszero\n      tag_129\n      jumpi\n      0x00\n      dup2\n      dup2\n      tag_130\n      swap2\n      swap1\n      tag_131\n      jump\t// in\n    tag_130:\n      pop\n      0x01\n      add\n      jump(tag_128)\n    tag_129:\n      pop\n      swap1\n      jump\t// out\n    tag_131:\n      pop\n      dup1\n      sload\n      tag_132\n      swap1\n      tag_60\n      jump\t// in\n    tag_132:\n      0x00\n      dup3\n      sstore\n      dup1\n      0x1f\n      lt\n      tag_134\n      jumpi\n      pop\n      jump(tag_133)\n    tag_134:\n      0x1f\n      add\n      0x20\n      swap1\n      div\n      swap1\n      0x00\n      mstore\n      keccak256(0x00, 0x20)\n      swap1\n      dup2\n      add\n      swap1\n      tag_135\n      swap2\n      swap1\n      tag_136\n      jump\t// in\n    tag_135:\n    tag_133:\n      pop\n      jump\t// out\n    tag_136:\n    tag_137:\n      dup1\n      dup3\n      gt\n      iszero\n      tag_138\n      jumpi\n      0x00\n      dup2\n      0x00\n      swap1\n      sstore\n      pop\n      0x01\n      add\n      jump(tag_137)\n    tag_138:\n      pop\n      swap1\n      jump\t// out\n        /* \"#utility.yul\":7:82   */\n    tag_139:\n        /* \"#utility.yul\":40:46   */\n      0x00\n        /* \"#utility.yul\":73:75   */\n      0x40\n        /* \"#utility.yul\":67:76   */\n      mload\n        /* \"#utility.yul\":57:76   */\n      swap1\n      pop\n        /* \"#utility.yul\":7:82   */\n      swap1\n      jump\t// out\n        /* \"#utility.yul\":88:205   */\n    tag_140:\n        /* \"#utility.yul\":197:198   */\n      0x00\n        /* \"#utility.yul\":194:195   */\n      dup1\n        /* \"#utility.yul\":187:199   */\n      revert\n        /* \"#utility.yul\":211:328   */\n    tag_141:\n        /* \"#utility.yul\":320:321   */\n      0x00\n        /* \"#utility.yul\":317:318   */\n      dup1\n        /* \"#utility.yul\":310:322   */\n      revert\n        /* \"#utility.yul\":334:411   */\n    tag_142:\n        /* \"#utility.yul\":371:378   */\n      0x00\n        /* \"#utility.yul\":400:405   */\n      dup2\n        /* \"#utility.yul\":389:405   */\n      swap1\n      pop\n        /* \"#utility.yul\":334:411   */\n      swap2\n      swap1\n      pop\n      jump\t// out\n        /* \"#utility.yul\":417:539   */\n    tag_143:\n        /* \"#utility.yul\":490:514   */\n      tag_195\n        /* \"#utility.yul\":508:513   */\n      dup2\n        /* \"#utility.yul\":490:514   */\n      tag_142\n      jump\t// in\n    tag_195:\n        /* \"#utility.yul\":483:488   */\n      dup2\n        /* \"#utility.yul\":480:515   */\n      eq\n        /* \"#utility.yul\":470:533   */\n      tag_196\n      jumpi\n        /* \"#utility.yul\":529:530   */\n      0x00\n        /* \"#utility.yul\":526:527   */\n      dup1\n        /* \"#utility.yul\":519:531   */\n      revert\n        /* \"#utility.yul\":470:533   */\n    tag_196:\n        /* \"#utility.yul\":417:539   */\n      pop\n      jump\t// out\n        /* \"#utility.yul\":545:684   */\n    tag_144:\n        /* \"#utility.yul\":591:596   */\n      0x00\n        /* \"#utility.yul\":629:635   */\n      dup2\n        /* \"#utility.yul\":616:636   */\n      calldataload\n        /* \"#utility.yul\":607:636   */\n      swap1\n      pop\n        /* \"#utility.yul\":645:678   */\n      tag_198\n        /* \"#utility.yul\":672:677   */\n      dup2\n        /* \"#utility.yul\":645:678   */\n      tag_143\n      jump\t// in\n    tag_198:\n        /* \"#utility.yul\":545:684   */\n      swap3\n      swap2\n      pop\n      pop\n      jump\t// out\n        /* \"#utility.yul\":690:1164   */\n    tag_15:\n        /* \"#utility.yul\":758:764   */\n      0x00\n        /* \"#utility.yul\":766:772   */\n      dup1\n        /* \"#utility.yul\":815:817   */\n      0x40\n        /* \"#utility.yul\":803:812   */\n      dup4\n        /* \"#utility.yul\":794:801   */\n      dup6\n        /* \"#utility.yul\":790:813   */\n      sub\n        /* \"#utility.yul\":786:818   */\n      slt\n        /* \"#utility.yul\":783:902   */\n      iszero\n      tag_200\n      jumpi\n        /* \"#utility.yul\":821:900   */\n      tag_201\n      tag_140\n      jump\t// in\n    tag_201:\n        /* \"#utility.yul\":783:902   */\n    tag_200:\n        /* \"#utility.yul\":941:942   */\n      0x00\n        /* \"#utility.yul\":966:1019   */\n      tag_202\n        /* \"#utility.yul\":1011:1018   */\n      dup6\n        /* \"#utility.yul\":1002:1008   */\n      dup3\n        /* \"#utility.yul\":991:1000   */\n      dup7\n        /* \"#utility.yul\":987:1009   */\n      add\n        /* \"#utility.yul\":966:1019   */\n      tag_144\n      jump\t// in\n    tag_202:\n        /* \"#utility.yul\":956:1019   */\n      swap3\n      pop\n        /* \"#utility.yul\":912:1029   */\n      pop\n        /* \"#utility.yul\":1068:1070   */\n      0x20\n        /* \"#utility.yul\":1094:1147   */\n      tag_203\n        /* \"#utility.yul\":1139:1146   */\n      dup6\n        /* \"#utility.yul\":1130:1136   */\n      dup3\n        /* \"#utility.yul\":1119:1128   */\n      dup7\n        /* \"#utility.yul\":1115:1137   */\n      add\n        /* \"#utility.yul\":1094:1147   */\n      tag_144\n      jump\t// in\n    tag_203:\n        /* \"#utility.yul\":1084:1147   */\n      swap2\n      pop\n        /* \"#utility.yul\":1039:1157   */\n      pop\n        /* \"#utility.yul\":690:1164   */\n      swap3\n      pop\n      swap3\n      swap1\n      pop\n      jump\t// out\n        /* \"#utility.yul\":1170:1288   */\n    tag_145:\n        /* \"#utility.yul\":1257:1281   */\n      tag_205\n        /* \"#utility.yul\":1275:1280   */\n      dup2\n        /* \"#utility.yul\":1257:1281   */\n      tag_142\n      jump\t// in\n    tag_205:\n        /* \"#utility.yul\":1252:1255   */\n      dup3\n        /* \"#utility.yul\":1245:1282   */\n      mstore\n        /* \"#utility.yul\":1170:1288   */\n      pop\n      pop\n      jump\t// out\n        /* \"#utility.yul\":1294:1626   */\n    tag_18:\n        /* \"#utility.yul\":1415:1419   */\n      0x00\n        /* \"#utility.yul\":1453:1455   */\n      0x40\n        /* \"#utility.yul\":1442:1451   */\n      dup3\n        /* \"#utility.yul\":1438:1456   */\n      add\n        /* \"#utility.yul\":1430:1456   */\n      swap1\n      pop\n        /* \"#utility.yul\":1466:1537   */\n      tag_207\n        /* \"#utility.yul\":1534:1535   */\n      0x00\n        /* \"#utility.yul\":1523:1532   */\n      dup4\n        /* \"#utility.yul\":1519:1536   */\n      add\n        /* \"#utility.yul\":1510:1516   */\n      dup6\n        /* \"#utility.yul\":1466:1537   */\n      tag_145\n      jump\t// in\n    tag_207:\n        /* \"#utility.yul\":1547:1619   */\n      tag_208\n        /* \"#utility.yul\":1615:1617   */\n      0x20\n        /* \"#utility.yul\":1604:1613   */\n      dup4\n        /* \"#utility.yul\":1600:1618   */\n      add\n        /* \"#utility.yul\":1591:1597   */\n      dup5\n        /* \"#utility.yul\":1547:1619   */\n      tag_145\n      jump\t// in\n    tag_208:\n        /* \"#utility.yul\":1294:1626   */\n      swap4\n      swap3\n      pop\n      pop\n      pop\n      jump\t// out\n        /* \"#utility.yul\":1632:1961   */\n    tag_24:\n        /* \"#utility.yul\":1691:1697   */\n      0x00\n        /* \"#utility.yul\":1740:1742   */\n      0x20\n        /* \"#utility.yul\":1728:1737   */\n      dup3\n        /* \"#utility.yul\":1719:1726   */\n      dup5\n        /* \"#utility.yul\":1715:1738   */\n      sub\n        /* \"#utility.yul\":1711:1743   */\n      slt\n        /* \"#utility.yul\":1708:1827   */\n      iszero\n      tag_210\n      jumpi\n        /* \"#utility.yul\":1746:1825   */\n      tag_211\n      tag_140\n      jump\t// in\n    tag_211:\n        /* \"#utility.yul\":1708:1827   */\n    tag_210:\n        /* \"#utility.yul\":1866:1867   */\n      0x00\n        /* \"#utility.yul\":1891:1944   */\n      tag_212\n        /* \"#utility.yul\":1936:1943   */\n      dup5\n        /* \"#utility.yul\":1927:1933   */\n      dup3\n        /* \"#utility.yul\":1916:1925   */\n      dup6\n        /* \"#utility.yul\":1912:1934   */\n      add\n        /* \"#utility.yul\":1891:1944   */\n      tag_144\n      jump\t// in\n    tag_212:\n        /* \"#utility.yul\":1881:1944   */\n      swap2\n      pop\n        /* \"#utility.yul\":1837:1954   */\n      pop\n        /* \"#utility.yul\":1632:1961   */\n      swap3\n      swap2\n      pop\n      pop\n      jump\t// out\n        /* \"#utility.yul\":1967:2066   */\n    tag_146:\n        /* \"#utility.yul\":2019:2025   */\n      0x00\n        /* \"#utility.yul\":2053:2058   */\n      dup2\n        /* \"#utility.yul\":2047:2059   */\n      mload\n        /* \"#utility.yul\":2037:2059   */\n      swap1\n      pop\n        /* \"#utility.yul\":1967:2066   */\n      swap2\n      swap1\n      pop\n      jump\t// out\n        /* \"#utility.yul\":2072:2241   */\n    tag_147:\n        /* \"#utility.yul\":2156:2167   */\n      0x00\n        /* \"#utility.yul\":2190:2196   */\n      dup3\n        /* \"#utility.yul\":2185:2188   */\n      dup3\n        /* \"#utility.yul\":2178:2197   */\n      mstore\n        /* \"#utility.yul\":2230:2234   */\n      0x20\n        /* \"#utility.yul\":2225:2228   */\n      dup3\n        /* \"#utility.yul\":2221:2235   */\n      add\n        /* \"#utility.yul\":2206:2235   */\n      swap1\n      pop\n        /* \"#utility.yul\":2072:2241   */\n      swap3\n      swap2\n      pop\n      pop\n      jump\t// out\n        /* \"#utility.yul\":2247:2386   */\n    tag_148:\n        /* \"#utility.yul\":2336:2342   */\n      dup3\n        /* \"#utility.yul\":2331:2334   */\n      dup2\n        /* \"#utility.yul\":2326:2329   */\n      dup4\n        /* \"#utility.yul\":2320:2343   */\n      mcopy\n        /* \"#utility.yul\":2377:2378   */\n      0x00\n        /* \"#utility.yul\":2368:2374   */\n      dup4\n        /* \"#utility.yul\":2363:2366   */\n      dup4\n        /* \"#utility.yul\":2359:2375   */\n      add\n        /* \"#utility.yul\":2352:2379   */\n      mstore\n        /* \"#utility.yul\":2247:2386   */\n      pop\n      pop\n      pop\n      jump\t// out\n        /* \"#utility.yul\":2392:2494   */\n    tag_149:\n        /* \"#utility.yul\":2433:2439   */\n      0x00\n        /* \"#utility.yul\":2484:2486   */\n      0x1f\n        /* \"#utility.yul\":2480:2487   */\n      not\n        /* \"#utility.yul\":2475:2477   */\n      0x1f\n        /* \"#utility.yul\":2468:2473   */\n      dup4\n        /* \"#utility.yul\":2464:2478   */\n      add\n        /* \"#utility.yul\":2460:2488   */\n      and\n        /* \"#utility.yul\":2450:2488   */\n      swap1\n      pop\n        /* \"#utility.yul\":2392:2494   */\n      swap2\n      swap1\n      pop\n      jump\t// out\n        /* \"#utility.yul\":2500:2877   */\n    tag_150:\n        /* \"#utility.yul\":2588:2591   */\n      0x00\n        /* \"#utility.yul\":2616:2655   */\n      tag_218\n        /* \"#utility.yul\":2649:2654   */\n      dup3\n        /* \"#utility.yul\":2616:2655   */\n      tag_146\n      jump\t// in\n    tag_218:\n        /* \"#utility.yul\":2671:2742   */\n      tag_219\n        /* \"#utility.yul\":2735:2741   */\n      dup2\n        /* \"#utility.yul\":2730:2733   */\n      dup6\n        /* \"#utility.yul\":2671:2742   */\n      tag_147\n      jump\t// in\n    tag_219:\n        /* \"#utility.yul\":2664:2742   */\n      swap4\n      pop\n        /* \"#utility.yul\":2751:2816   */\n      tag_220\n        /* \"#utility.yul\":2809:2815   */\n      dup2\n        /* \"#utility.yul\":2804:2807   */\n      dup6\n        /* \"#utility.yul\":2797:2801   */\n      0x20\n        /* \"#utility.yul\":2790:2795   */\n      dup7\n        /* \"#utility.yul\":2786:2802   */\n      add\n        /* \"#utility.yul\":2751:2816   */\n      tag_148\n      jump\t// in\n    tag_220:\n        /* \"#utility.yul\":2841:2870   */\n      tag_221\n        /* \"#utility.yul\":2863:2869   */\n      dup2\n        /* \"#utility.yul\":2841:2870   */\n      tag_149\n      jump\t// in\n    tag_221:\n        /* \"#utility.yul\":2836:2839   */\n      dup5\n        /* \"#utility.yul\":2832:2871   */\n      add\n        /* \"#utility.yul\":2825:2871   */\n      swap2\n      pop\n        /* \"#utility.yul\":2592:2877   */\n      pop\n        /* \"#utility.yul\":2500:2877   */\n      swap3\n      swap2\n      pop\n      pop\n      jump\t// out\n        /* \"#utility.yul\":2883:2973   */\n    tag_151:\n        /* \"#utility.yul\":2917:2924   */\n      0x00\n        /* \"#utility.yul\":2960:2965   */\n      dup2\n        /* \"#utility.yul\":2953:2966   */\n      iszero\n        /* \"#utility.yul\":2946:2967   */\n      iszero\n        /* \"#utility.yul\":2935:2967   */\n      swap1\n      pop\n        /* \"#utility.yul\":2883:2973   */\n      swap2\n      swap1\n      pop\n      jump\t// out\n        /* \"#utility.yul\":2979:3088   */\n    tag_152:\n        /* \"#utility.yul\":3060:3081   */\n      tag_224\n        /* \"#utility.yul\":3075:3080   */\n      dup2\n        /* \"#utility.yul\":3060:3081   */\n      tag_151\n      jump\t// in\n    tag_224:\n        /* \"#utility.yul\":3055:3058   */\n      dup3\n        /* \"#utility.yul\":3048:3082   */\n      mstore\n        /* \"#utility.yul\":2979:3088   */\n      pop\n      pop\n      jump\t// out\n        /* \"#utility.yul\":3094:4039   */\n    tag_27:\n        /* \"#utility.yul\":3361:3365   */\n      0x00\n        /* \"#utility.yul\":3399:3402   */\n      0xc0\n        /* \"#utility.yul\":3388:3397   */\n      dup3\n        /* \"#utility.yul\":3384:3403   */\n      add\n        /* \"#utility.yul\":3376:3403   */\n      swap1\n      pop\n        /* \"#utility.yul\":3449:3458   */\n      dup2\n        /* \"#utility.yul\":3443:3447   */\n      dup2\n        /* \"#utility.yul\":3439:3459   */\n      sub\n        /* \"#utility.yul\":3435:3436   */\n      0x00\n        /* \"#utility.yul\":3424:3433   */\n      dup4\n        /* \"#utility.yul\":3420:3437   */\n      add\n        /* \"#utility.yul\":3413:3460   */\n      mstore\n        /* \"#utility.yul\":3477:3555   */\n      tag_226\n        /* \"#utility.yul\":3550:3554   */\n      dup2\n        /* \"#utility.yul\":3541:3547   */\n      dup10\n        /* \"#utility.yul\":3477:3555   */\n      tag_150\n      jump\t// in\n    tag_226:\n        /* \"#utility.yul\":3469:3555   */\n      swap1\n      pop\n        /* \"#utility.yul\":3602:3611   */\n      dup2\n        /* \"#utility.yul\":3596:3600   */\n      dup2\n        /* \"#utility.yul\":3592:3612   */\n      sub\n        /* \"#utility.yul\":3587:3589   */\n      0x20\n        /* \"#utility.yul\":3576:3585   */\n      dup4\n        /* \"#utility.yul\":3572:3590   */\n      add\n        /* \"#utility.yul\":3565:3613   */\n      mstore\n        /* \"#utility.yul\":3630:3708   */\n      tag_227\n        /* \"#utility.yul\":3703:3707   */\n      dup2\n        /* \"#utility.yul\":3694:3700   */\n      dup9\n        /* \"#utility.yul\":3630:3708   */\n      tag_150\n      jump\t// in\n    tag_227:\n        /* \"#utility.yul\":3622:3708   */\n      swap1\n      pop\n        /* \"#utility.yul\":3718:3790   */\n      tag_228\n        /* \"#utility.yul\":3786:3788   */\n      0x40\n        /* \"#utility.yul\":3775:3784   */\n      dup4\n        /* \"#utility.yul\":3771:3789   */\n      add\n        /* \"#utility.yul\":3762:3768   */\n      dup8\n        /* \"#utility.yul\":3718:3790   */\n      tag_145\n      jump\t// in\n    tag_228:\n        /* \"#utility.yul\":3800:3872   */\n      tag_229\n        /* \"#utility.yul\":3868:3870   */\n      0x60\n        /* \"#utility.yul\":3857:3866   */\n      dup4\n        /* \"#utility.yul\":3853:3871   */\n      add\n        /* \"#utility.yul\":3844:3850   */\n      dup7\n        /* \"#utility.yul\":3800:3872   */\n      tag_145\n      jump\t// in\n    tag_229:\n        /* \"#utility.yul\":3882:3949   */\n      tag_230\n        /* \"#utility.yul\":3944:3947   */\n      0x80\n        /* \"#utility.yul\":3933:3942   */\n      dup4\n        /* \"#utility.yul\":3929:3948   */\n      add\n        /* \"#utility.yul\":3920:3926   */\n      dup6\n        /* \"#utility.yul\":3882:3949   */\n      tag_152\n      jump\t// in\n    tag_230:\n        /* \"#utility.yul\":3959:4032   */\n      tag_231\n        /* \"#utility.yul\":4027:4030   */\n      0xa0\n        /* \"#utility.yul\":4016:4025   */\n      dup4\n        /* \"#utility.yul\":4012:4031   */\n      add\n        /* \"#utility.yul\":4003:4009   */\n      dup5\n        /* \"#utility.yul\":3959:4032   */\n      tag_145\n      jump\t// in\n    tag_231:\n        /* \"#utility.yul\":3094:4039   */\n      swap8\n      swap7\n      pop\n      pop\n      pop\n      pop\n      pop\n      pop\n      pop\n      jump\t// out\n        /* \"#utility.yul\":4045:4162   */\n    tag_153:\n        /* \"#utility.yul\":4154:4155   */\n      0x00\n        /* \"#utility.yul\":4151:4152   */\n      dup1\n        /* \"#utility.yul\":4144:4156   */\n      revert\n        /* \"#utility.yul\":4168:4285   */\n    tag_154:\n        /* \"#utility.yul\":4277:4278   */\n      0x00\n        /* \"#utility.yul\":4274:4275   */\n      dup1\n        /* \"#utility.yul\":4267:4279   */\n      revert\n        /* \"#utility.yul\":4291:4471   */\n    tag_155:\n        /* \"#utility.yul\":4339:4416   */\n      0x4e487b7100000000000000000000000000000000000000000000000000000000\n        /* \"#utility.yul\":4336:4337   */\n      0x00\n        /* \"#utility.yul\":4329:4417   */\n      mstore\n        /* \"#utility.yul\":4436:4440   */\n      0x41\n        /* \"#utility.yul\":4433:4434   */\n      0x04\n        /* \"#utility.yul\":4426:4441   */\n      mstore\n        /* \"#utility.yul\":4460:4464   */\n      0x24\n        /* \"#utility.yul\":4457:4458   */\n      0x00\n        /* \"#utility.yul\":4450:4465   */\n      revert\n        /* \"#utility.yul\":4477:4758   */\n    tag_156:\n        /* \"#utility.yul\":4560:4587   */\n      tag_236\n        /* \"#utility.yul\":4582:4586   */\n      dup3\n        /* \"#utility.yul\":4560:4587   */\n      tag_149\n      jump\t// in\n    tag_236:\n        /* \"#utility.yul\":4552:4558   */\n      dup2\n        /* \"#utility.yul\":4548:4588   */\n      add\n        /* \"#utility.yul\":4690:4696   */\n      dup2\n        /* \"#utility.yul\":4678:4688   */\n      dup2\n        /* \"#utility.yul\":4675:4697   */\n      lt\n        /* \"#utility.yul\":4654:4672   */\n      0xffffffffffffffff\n        /* \"#utility.yul\":4642:4652   */\n      dup3\n        /* \"#utility.yul\":4639:4673   */\n      gt\n        /* \"#utility.yul\":4636:4698   */\n      or\n        /* \"#utility.yul\":4633:4721   */\n      iszero\n      tag_237\n      jumpi\n        /* \"#utility.yul\":4701:4719   */\n      tag_238\n      tag_155\n      jump\t// in\n    tag_238:\n        /* \"#utility.yul\":4633:4721   */\n    tag_237:\n        /* \"#utility.yul\":4741:4751   */\n      dup1\n        /* \"#utility.yul\":4737:4739   */\n      0x40\n        /* \"#utility.yul\":4730:4752   */\n      mstore\n        /* \"#utility.yul\":4520:4758   */\n      pop\n        /* \"#utility.yul\":4477:4758   */\n      pop\n      pop\n      jump\t// out\n        /* \"#utility.yul\":4764:4893   */\n    tag_157:\n        /* \"#utility.yul\":4798:4804   */\n      0x00\n        /* \"#utility.yul\":4825:4845   */\n      tag_240\n      tag_139\n      jump\t// in\n    tag_240:\n        /* \"#utility.yul\":4815:4845   */\n      swap1\n      pop\n        /* \"#utility.yul\":4854:4887   */\n      tag_241\n        /* \"#utility.yul\":4882:4886   */\n      dup3\n        /* \"#utility.yul\":4874:4880   */\n      dup3\n        /* \"#utility.yul\":4854:4887   */\n      tag_156\n      jump\t// in\n    tag_241:\n        /* \"#utility.yul\":4764:4893   */\n      swap2\n      swap1\n      pop\n      jump\t// out\n        /* \"#utility.yul\":4899:5207   */\n    tag_158:\n        /* \"#utility.yul\":4961:4965   */\n      0x00\n        /* \"#utility.yul\":5051:5069   */\n      0xffffffffffffffff\n        /* \"#utility.yul\":5043:5049   */\n      dup3\n        /* \"#utility.yul\":5040:5070   */\n      gt\n        /* \"#utility.yul\":5037:5093   */\n      iszero\n      tag_243\n      jumpi\n        /* \"#utility.yul\":5073:5091   */\n      tag_244\n      tag_155\n      jump\t// in\n    tag_244:\n        /* \"#utility.yul\":5037:5093   */\n    tag_243:\n        /* \"#utility.yul\":5111:5140   */\n      tag_245\n        /* \"#utility.yul\":5133:5139   */\n      dup3\n        /* \"#utility.yul\":5111:5140   */\n      tag_149\n      jump\t// in\n    tag_245:\n        /* \"#utility.yul\":5103:5140   */\n      swap1\n      pop\n        /* \"#utility.yul\":5195:5199   */\n      0x20\n        /* \"#utility.yul\":5189:5193   */\n      dup2\n        /* \"#utility.yul\":5185:5200   */\n      add\n        /* \"#utility.yul\":5177:5200   */\n      swap1\n      pop\n        /* \"#utility.yul\":4899:5207   */\n      swap2\n      swap1\n      pop\n      jump\t// out\n        /* \"#utility.yul\":5213:5361   */\n    tag_159:\n        /* \"#utility.yul\":5311:5317   */\n      dup3\n        /* \"#utility.yul\":5306:5309   */\n      dup2\n        /* \"#utility.yul\":5301:5304   */\n      dup4\n        /* \"#utility.yul\":5288:5318   */\n      calldatacopy\n        /* \"#utility.yul\":5352:5353   */\n      0x00\n        /* \"#utility.yul\":5343:5349   */\n      dup4\n        /* \"#utility.yul\":5338:5341   */\n      dup4\n        /* \"#utility.yul\":5334:5350   */\n      add\n        /* \"#utility.yul\":5327:5354   */\n      mstore\n        /* \"#utility.yul\":5213:5361   */\n      pop\n      pop\n      pop\n      jump\t// out\n        /* \"#utility.yul\":5367:5792   */\n    tag_160:\n        /* \"#utility.yul\":5445:5450   */\n      0x00\n        /* \"#utility.yul\":5470:5536   */\n      tag_248\n        /* \"#utility.yul\":5486:5535   */\n      tag_249\n        /* \"#utility.yul\":5528:5534   */\n      dup5\n        /* \"#utility.yul\":5486:5535   */\n      tag_158\n      jump\t// in\n    tag_249:\n        /* \"#utility.yul\":5470:5536   */\n      tag_157\n      jump\t// in\n    tag_248:\n        /* \"#utility.yul\":5461:5536   */\n      swap1\n      pop\n        /* \"#utility.yul\":5559:5565   */\n      dup3\n        /* \"#utility.yul\":5552:5557   */\n      dup2\n        /* \"#utility.yul\":5545:5566   */\n      mstore\n        /* \"#utility.yul\":5597:5601   */\n      0x20\n        /* \"#utility.yul\":5590:5595   */\n      dup2\n        /* \"#utility.yul\":5586:5602   */\n      add\n        /* \"#utility.yul\":5635:5638   */\n      dup5\n        /* \"#utility.yul\":5626:5632   */\n      dup5\n        /* \"#utility.yul\":5621:5624   */\n      dup5\n        /* \"#utility.yul\":5617:5633   */\n      add\n        /* \"#utility.yul\":5614:5639   */\n      gt\n        /* \"#utility.yul\":5611:5723   */\n      iszero\n      tag_250\n      jumpi\n        /* \"#utility.yul\":5642:5721   */\n      tag_251\n      tag_154\n      jump\t// in\n    tag_251:\n        /* \"#utility.yul\":5611:5723   */\n    tag_250:\n        /* \"#utility.yul\":5732:5786   */\n      tag_252\n        /* \"#utility.yul\":5779:5785   */\n      dup5\n        /* \"#utility.yul\":5774:5777   */\n      dup3\n        /* \"#utility.yul\":5769:5772   */\n      dup6\n        /* \"#utility.yul\":5732:5786   */\n      tag_159\n      jump\t// in\n    tag_252:\n        /* \"#utility.yul\":5451:5792   */\n      pop\n        /* \"#utility.yul\":5367:5792   */\n      swap4\n      swap3\n      pop\n      pop\n      pop\n      jump\t// out\n        /* \"#utility.yul\":5812:6152   */\n    tag_161:\n        /* \"#utility.yul\":5868:5873   */\n      0x00\n        /* \"#utility.yul\":5917:5920   */\n      dup3\n        /* \"#utility.yul\":5910:5914   */\n      0x1f\n        /* \"#utility.yul\":5902:5908   */\n      dup4\n        /* \"#utility.yul\":5898:5915   */\n      add\n        /* \"#utility.yul\":5894:5921   */\n      slt\n        /* \"#utility.yul\":5884:6006   */\n      tag_254\n      jumpi\n        /* \"#utility.yul\":5925:6004   */\n      tag_255\n      tag_153\n      jump\t// in\n    tag_255:\n        /* \"#utility.yul\":5884:6006   */\n    tag_254:\n        /* \"#utility.yul\":6042:6048   */\n      dup2\n        /* \"#utility.yul\":6029:6049   */\n      calldataload\n        /* \"#utility.yul\":6067:6146   */\n      tag_256\n        /* \"#utility.yul\":6142:6145   */\n      dup5\n        /* \"#utility.yul\":6134:6140   */\n      dup3\n        /* \"#utility.yul\":6127:6131   */\n      0x20\n        /* \"#utility.yul\":6119:6125   */\n      dup7\n        /* \"#utility.yul\":6115:6132   */\n      add\n        /* \"#utility.yul\":6067:6146   */\n      tag_160\n      jump\t// in\n    tag_256:\n        /* \"#utility.yul\":6058:6146   */\n      swap2\n      pop\n        /* \"#utility.yul\":5874:6152   */\n      pop\n        /* \"#utility.yul\":5812:6152   */\n      swap3\n      swap2\n      pop\n      pop\n      jump\t// out\n        /* \"#utility.yul\":6158:6479   */\n    tag_162:\n        /* \"#utility.yul\":6245:6249   */\n      0x00\n        /* \"#utility.yul\":6335:6353   */\n      0xffffffffffffffff\n        /* \"#utility.yul\":6327:6333   */\n      dup3\n        /* \"#utility.yul\":6324:6354   */\n      gt\n        /* \"#utility.yul\":6321:6377   */\n      iszero\n      tag_258\n      jumpi\n        /* \"#utility.yul\":6357:6375   */\n      tag_259\n      tag_155\n      jump\t// in\n    tag_259:\n        /* \"#utility.yul\":6321:6377   */\n    tag_258:\n        /* \"#utility.yul\":6407:6411   */\n      0x20\n        /* \"#utility.yul\":6399:6405   */\n      dup3\n        /* \"#utility.yul\":6395:6412   */\n      mul\n        /* \"#utility.yul\":6387:6412   */\n      swap1\n      pop\n        /* \"#utility.yul\":6467:6471   */\n      0x20\n        /* \"#utility.yul\":6461:6465   */\n      dup2\n        /* \"#utility.yul\":6457:6472   */\n      add\n        /* \"#utility.yul\":6449:6472   */\n      swap1\n      pop\n        /* \"#utility.yul\":6158:6479   */\n      swap2\n      swap1\n      pop\n      jump\t// out\n        /* \"#utility.yul\":6485:6602   */\n    tag_163:\n        /* \"#utility.yul\":6594:6595   */\n      0x00\n        /* \"#utility.yul\":6591:6592   */\n      dup1\n        /* \"#utility.yul\":6584:6596   */\n      revert\n        /* \"#utility.yul\":6624:7569   */\n    tag_164:\n        /* \"#utility.yul\":6730:6735   */\n      0x00\n        /* \"#utility.yul\":6755:6846   */\n      tag_262\n        /* \"#utility.yul\":6771:6845   */\n      tag_263\n        /* \"#utility.yul\":6838:6844   */\n      dup5\n        /* \"#utility.yul\":6771:6845   */\n      tag_162\n      jump\t// in\n    tag_263:\n        /* \"#utility.yul\":6755:6846   */\n      tag_157\n      jump\t// in\n    tag_262:\n        /* \"#utility.yul\":6746:6846   */\n      swap1\n      pop\n        /* \"#utility.yul\":6866:6871   */\n      dup1\n        /* \"#utility.yul\":6895:6901   */\n      dup4\n        /* \"#utility.yul\":6888:6893   */\n      dup3\n        /* \"#utility.yul\":6881:6902   */\n      mstore\n        /* \"#utility.yul\":6929:6933   */\n      0x20\n        /* \"#utility.yul\":6922:6927   */\n      dup3\n        /* \"#utility.yul\":6918:6934   */\n      add\n        /* \"#utility.yul\":6911:6934   */\n      swap1\n      pop\n        /* \"#utility.yul\":6982:6986   */\n      0x20\n        /* \"#utility.yul\":6974:6980   */\n      dup5\n        /* \"#utility.yul\":6970:6987   */\n      mul\n        /* \"#utility.yul\":6962:6968   */\n      dup4\n        /* \"#utility.yul\":6958:6988   */\n      add\n        /* \"#utility.yul\":7011:7014   */\n      dup6\n        /* \"#utility.yul\":7003:7009   */\n      dup2\n        /* \"#utility.yul\":7000:7015   */\n      gt\n        /* \"#utility.yul\":6997:7119   */\n      iszero\n      tag_264\n      jumpi\n        /* \"#utility.yul\":7030:7109   */\n      tag_265\n      tag_163\n      jump\t// in\n    tag_265:\n        /* \"#utility.yul\":6997:7119   */\n    tag_264:\n        /* \"#utility.yul\":7145:7151   */\n      dup4\n        /* \"#utility.yul\":7128:7563   */\n    tag_266:\n        /* \"#utility.yul\":7162:7168   */\n      dup2\n        /* \"#utility.yul\":7157:7160   */\n      dup2\n        /* \"#utility.yul\":7154:7169   */\n      lt\n        /* \"#utility.yul\":7128:7563   */\n      iszero\n      tag_268\n      jumpi\n        /* \"#utility.yul\":7251:7254   */\n      dup1\n        /* \"#utility.yul\":7238:7255   */\n      calldataload\n        /* \"#utility.yul\":7287:7305   */\n      0xffffffffffffffff\n        /* \"#utility.yul\":7274:7285   */\n      dup2\n        /* \"#utility.yul\":7271:7306   */\n      gt\n        /* \"#utility.yul\":7268:7390   */\n      iszero\n      tag_269\n      jumpi\n        /* \"#utility.yul\":7309:7388   */\n      tag_270\n      tag_153\n      jump\t// in\n    tag_270:\n        /* \"#utility.yul\":7268:7390   */\n    tag_269:\n        /* \"#utility.yul\":7433:7444   */\n      dup1\n        /* \"#utility.yul\":7425:7431   */\n      dup7\n        /* \"#utility.yul\":7421:7445   */\n      add\n        /* \"#utility.yul\":7471:7518   */\n      tag_271\n        /* \"#utility.yul\":7514:7517   */\n      dup10\n        /* \"#utility.yul\":7502:7512   */\n      dup3\n        /* \"#utility.yul\":7471:7518   */\n      tag_161\n      jump\t// in\n    tag_271:\n        /* \"#utility.yul\":7466:7469   */\n      dup6\n        /* \"#utility.yul\":7459:7519   */\n      mstore\n        /* \"#utility.yul\":7548:7552   */\n      0x20\n        /* \"#utility.yul\":7543:7546   */\n      dup6\n        /* \"#utility.yul\":7539:7553   */\n      add\n        /* \"#utility.yul\":7532:7553   */\n      swap5\n      pop\n        /* \"#utility.yul\":7204:7563   */\n      pop\n      pop\n        /* \"#utility.yul\":7188:7192   */\n      0x20\n        /* \"#utility.yul\":7183:7186   */\n      dup2\n        /* \"#utility.yul\":7179:7193   */\n      add\n        /* \"#utility.yul\":7172:7193   */\n      swap1\n      pop\n        /* \"#utility.yul\":7128:7563   */\n      jump(tag_266)\n    tag_268:\n        /* \"#utility.yul\":7132:7153   */\n      pop\n        /* \"#utility.yul\":6736:7569   */\n      pop\n      pop\n        /* \"#utility.yul\":6624:7569   */\n      swap4\n      swap3\n      pop\n      pop\n      pop\n      jump\t// out\n        /* \"#utility.yul\":7591:7981   */\n    tag_165:\n        /* \"#utility.yul\":7672:7677   */\n      0x00\n        /* \"#utility.yul\":7721:7724   */\n      dup3\n        /* \"#utility.yul\":7714:7718   */\n      0x1f\n        /* \"#utility.yul\":7706:7712   */\n      dup4\n        /* \"#utility.yul\":7702:7719   */\n      add\n        /* \"#utility.yul\":7698:7725   */\n      slt\n        /* \"#utility.yul\":7688:7810   */\n      tag_273\n      jumpi\n        /* \"#utility.yul\":7729:7808   */\n      tag_274\n      tag_153\n      jump\t// in\n    tag_274:\n        /* \"#utility.yul\":7688:7810   */\n    tag_273:\n        /* \"#utility.yul\":7846:7852   */\n      dup2\n        /* \"#utility.yul\":7833:7853   */\n      calldataload\n        /* \"#utility.yul\":7871:7975   */\n      tag_275\n        /* \"#utility.yul\":7971:7974   */\n      dup5\n        /* \"#utility.yul\":7963:7969   */\n      dup3\n        /* \"#utility.yul\":7956:7960   */\n      0x20\n        /* \"#utility.yul\":7948:7954   */\n      dup7\n        /* \"#utility.yul\":7944:7961   */\n      add\n        /* \"#utility.yul\":7871:7975   */\n      tag_164\n      jump\t// in\n    tag_275:\n        /* \"#utility.yul\":7862:7975   */\n      swap2\n      pop\n        /* \"#utility.yul\":7678:7981   */\n      pop\n        /* \"#utility.yul\":7591:7981   */\n      swap3\n      swap2\n      pop\n      pop\n      jump\t// out\n        /* \"#utility.yul\":7987:9960   */\n    tag_35:\n        /* \"#utility.yul\":8165:8171   */\n      0x00\n        /* \"#utility.yul\":8173:8179   */\n      dup1\n        /* \"#utility.yul\":8181:8187   */\n      0x00\n        /* \"#utility.yul\":8189:8195   */\n      dup1\n        /* \"#utility.yul\":8197:8203   */\n      0x00\n        /* \"#utility.yul\":8205:8211   */\n      dup1\n        /* \"#utility.yul\":8213:8219   */\n      0x00\n        /* \"#utility.yul\":8262:8265   */\n      0xe0\n        /* \"#utility.yul\":8250:8259   */\n      dup9\n        /* \"#utility.yul\":8241:8248   */\n      dup11\n        /* \"#utility.yul\":8237:8260   */\n      sub\n        /* \"#utility.yul\":8233:8266   */\n      slt\n        /* \"#utility.yul\":8230:8350   */\n      iszero\n      tag_277\n      jumpi\n        /* \"#utility.yul\":8269:8348   */\n      tag_278\n      tag_140\n      jump\t// in\n    tag_278:\n        /* \"#utility.yul\":8230:8350   */\n    tag_277:\n        /* \"#utility.yul\":8417:8418   */\n      0x00\n        /* \"#utility.yul\":8406:8415   */\n      dup9\n        /* \"#utility.yul\":8402:8419   */\n      add\n        /* \"#utility.yul\":8389:8420   */\n      calldataload\n        /* \"#utility.yul\":8447:8465   */\n      0xffffffffffffffff\n        /* \"#utility.yul\":8439:8445   */\n      dup2\n        /* \"#utility.yul\":8436:8466   */\n      gt\n        /* \"#utility.yul\":8433:8550   */\n      iszero\n      tag_279\n      jumpi\n        /* \"#utility.yul\":8469:8548   */\n      tag_280\n      tag_141\n      jump\t// in\n    tag_280:\n        /* \"#utility.yul\":8433:8550   */\n    tag_279:\n        /* \"#utility.yul\":8574:8637   */\n      tag_281\n        /* \"#utility.yul\":8629:8636   */\n      dup11\n        /* \"#utility.yul\":8620:8626   */\n      dup3\n        /* \"#utility.yul\":8609:8618   */\n      dup12\n        /* \"#utility.yul\":8605:8627   */\n      add\n        /* \"#utility.yul\":8574:8637   */\n      tag_161\n      jump\t// in\n    tag_281:\n        /* \"#utility.yul\":8564:8637   */\n      swap8\n      pop\n        /* \"#utility.yul\":8360:8647   */\n      pop\n        /* \"#utility.yul\":8714:8716   */\n      0x20\n        /* \"#utility.yul\":8703:8712   */\n      dup9\n        /* \"#utility.yul\":8699:8717   */\n      add\n        /* \"#utility.yul\":8686:8718   */\n      calldataload\n        /* \"#utility.yul\":8745:8763   */\n      0xffffffffffffffff\n        /* \"#utility.yul\":8737:8743   */\n      dup2\n        /* \"#utility.yul\":8734:8764   */\n      gt\n        /* \"#utility.yul\":8731:8848   */\n      iszero\n      tag_282\n      jumpi\n        /* \"#utility.yul\":8767:8846   */\n      tag_283\n      tag_141\n      jump\t// in\n    tag_283:\n        /* \"#utility.yul\":8731:8848   */\n    tag_282:\n        /* \"#utility.yul\":8872:8935   */\n      tag_284\n        /* \"#utility.yul\":8927:8934   */\n      dup11\n        /* \"#utility.yul\":8918:8924   */\n      dup3\n        /* \"#utility.yul\":8907:8916   */\n      dup12\n        /* \"#utility.yul\":8903:8925   */\n      add\n        /* \"#utility.yul\":8872:8935   */\n      tag_161\n      jump\t// in\n    tag_284:\n        /* \"#utility.yul\":8862:8935   */\n      swap7\n      pop\n        /* \"#utility.yul\":8657:8945   */\n      pop\n        /* \"#utility.yul\":9012:9014   */\n      0x40\n        /* \"#utility.yul\":9001:9010   */\n      dup9\n        /* \"#utility.yul\":8997:9015   */\n      add\n        /* \"#utility.yul\":8984:9016   */\n      calldataload\n        /* \"#utility.yul\":9043:9061   */\n      0xffffffffffffffff\n        /* \"#utility.yul\":9035:9041   */\n      dup2\n        /* \"#utility.yul\":9032:9062   */\n      gt\n        /* \"#utility.yul\":9029:9146   */\n      iszero\n      tag_285\n      jumpi\n        /* \"#utility.yul\":9065:9144   */\n      tag_286\n      tag_141\n      jump\t// in\n    tag_286:\n        /* \"#utility.yul\":9029:9146   */\n    tag_285:\n        /* \"#utility.yul\":9170:9233   */\n      tag_287\n        /* \"#utility.yul\":9225:9232   */\n      dup11\n        /* \"#utility.yul\":9216:9222   */\n      dup3\n        /* \"#utility.yul\":9205:9214   */\n      dup12\n        /* \"#utility.yul\":9201:9223   */\n      add\n        /* \"#utility.yul\":9170:9233   */\n      tag_161\n      jump\t// in\n    tag_287:\n        /* \"#utility.yul\":9160:9233   */\n      swap6\n      pop\n        /* \"#utility.yul\":8955:9243   */\n      pop\n        /* \"#utility.yul\":9310:9312   */\n      0x60\n        /* \"#utility.yul\":9299:9308   */\n      dup9\n        /* \"#utility.yul\":9295:9313   */\n      add\n        /* \"#utility.yul\":9282:9314   */\n      calldataload\n        /* \"#utility.yul\":9341:9359   */\n      0xffffffffffffffff\n        /* \"#utility.yul\":9333:9339   */\n      dup2\n        /* \"#utility.yul\":9330:9360   */\n      gt\n        /* \"#utility.yul\":9327:9444   */\n      iszero\n      tag_288\n      jumpi\n        /* \"#utility.yul\":9363:9442   */\n      tag_289\n      tag_141\n      jump\t// in\n    tag_289:\n        /* \"#utility.yul\":9327:9444   */\n    tag_288:\n        /* \"#utility.yul\":9468:9556   */\n      tag_290\n        /* \"#utility.yul\":9548:9555   */\n      dup11\n        /* \"#utility.yul\":9539:9545   */\n      dup3\n        /* \"#utility.yul\":9528:9537   */\n      dup12\n        /* \"#utility.yul\":9524:9546   */\n      add\n        /* \"#utility.yul\":9468:9556   */\n      tag_165\n      jump\t// in\n    tag_290:\n        /* \"#utility.yul\":9458:9556   */\n      swap5\n      pop\n        /* \"#utility.yul\":9253:9566   */\n      pop\n        /* \"#utility.yul\":9605:9608   */\n      0x80\n        /* \"#utility.yul\":9632:9685   */\n      tag_291\n        /* \"#utility.yul\":9677:9684   */\n      dup11\n        /* \"#utility.yul\":9668:9674   */\n      dup3\n        /* \"#utility.yul\":9657:9666   */\n      dup12\n        /* \"#utility.yul\":9653:9675   */\n      add\n        /* \"#utility.yul\":9632:9685   */\n      tag_144\n      jump\t// in\n    tag_291:\n        /* \"#utility.yul\":9622:9685   */\n      swap4\n      pop\n        /* \"#utility.yul\":9576:9695   */\n      pop\n        /* \"#utility.yul\":9734:9737   */\n      0xa0\n        /* \"#utility.yul\":9761:9814   */\n      tag_292\n        /* \"#utility.yul\":9806:9813   */\n      dup11\n        /* \"#utility.yul\":9797:9803   */\n      dup3\n        /* \"#utility.yul\":9786:9795   */\n      dup12\n        /* \"#utility.yul\":9782:9804   */\n      add\n        /* \"#utility.yul\":9761:9814   */\n      tag_144\n      jump\t// in\n    tag_292:\n        /* \"#utility.yul\":9751:9814   */\n      swap3\n      pop\n        /* \"#utility.yul\":9705:9824   */\n      pop\n        /* \"#utility.yul\":9863:9866   */\n      0xc0\n        /* \"#utility.yul\":9890:9943   */\n      tag_293\n        /* \"#utility.yul\":9935:9942   */\n      dup11\n        /* \"#utility.yul\":9926:9932   */\n      dup3\n        /* \"#utility.yul\":9915:9924   */\n      dup12\n        /* \"#utility.yul\":9911:9933   */\n      add\n        /* \"#utility.yul\":9890:9943   */\n      tag_144\n      jump\t// in\n    tag_293:\n        /* \"#utility.yul\":9880:9943   */\n      swap2\n      pop\n        /* \"#utility.yul\":9834:9953   */\n      pop\n        /* \"#utility.yul\":7987:9960   */\n      swap3\n      swap6\n      swap9\n      swap2\n      swap5\n      swap8\n      pop\n      swap3\n      swap6\n      pop\n      jump\t// out\n        /* \"#utility.yul\":9966:10188   */\n    tag_38:\n        /* \"#utility.yul\":10059:10063   */\n      0x00\n        /* \"#utility.yul\":10097:10099   */\n      0x20\n        /* \"#utility.yul\":10086:10095   */\n      dup3\n        /* \"#utility.yul\":10082:10100   */\n      add\n        /* \"#utility.yul\":10074:10100   */\n      swap1\n      pop\n        /* \"#utility.yul\":10110:10181   */\n      tag_295\n        /* \"#utility.yul\":10178:10179   */\n      0x00\n        /* \"#utility.yul\":10167:10176   */\n      dup4\n        /* \"#utility.yul\":10163:10180   */\n      add\n        /* \"#utility.yul\":10154:10160   */\n      dup5\n        /* \"#utility.yul\":10110:10181   */\n      tag_145\n      jump\t// in\n    tag_295:\n        /* \"#utility.yul\":9966:10188   */\n      swap3\n      swap2\n      pop\n      pop\n      jump\t// out\n        /* \"#utility.yul\":10194:10320   */\n    tag_166:\n        /* \"#utility.yul\":10231:10238   */\n      0x00\n        /* \"#utility.yul\":10271:10313   */\n      0xffffffffffffffffffffffffffffffffffffffff\n        /* \"#utility.yul\":10264:10269   */\n      dup3\n        /* \"#utility.yul\":10260:10314   */\n      and\n        /* \"#utility.yul\":10249:10314   */\n      swap1\n      pop\n        /* \"#utility.yul\":10194:10320   */\n      swap2\n      swap1\n      pop\n      jump\t// out\n        /* \"#utility.yul\":10326:10422   */\n    tag_167:\n        /* \"#utility.yul\":10363:10370   */\n      0x00\n        /* \"#utility.yul\":10392:10416   */\n      tag_298\n        /* \"#utility.yul\":10410:10415   */\n      dup3\n        /* \"#utility.yul\":10392:10416   */\n      tag_166\n      jump\t// in\n    tag_298:\n        /* \"#utility.yul\":10381:10416   */\n      swap1\n      pop\n        /* \"#utility.yul\":10326:10422   */\n      swap2\n      swap1\n      pop\n      jump\t// out\n        /* \"#utility.yul\":10428:10546   */\n    tag_168:\n        /* \"#utility.yul\":10515:10539   */\n      tag_300\n        /* \"#utility.yul\":10533:10538   */\n      dup2\n        /* \"#utility.yul\":10515:10539   */\n      tag_167\n      jump\t// in\n    tag_300:\n        /* \"#utility.yul\":10510:10513   */\n      dup3\n        /* \"#utility.yul\":10503:10540   */\n      mstore\n        /* \"#utility.yul\":10428:10546   */\n      pop\n      pop\n      jump\t// out\n        /* \"#utility.yul\":10552:10774   */\n    tag_42:\n        /* \"#utility.yul\":10645:10649   */\n      0x00\n        /* \"#utility.yul\":10683:10685   */\n      0x20\n        /* \"#utility.yul\":10672:10681   */\n      dup3\n        /* \"#utility.yul\":10668:10686   */\n      add\n        /* \"#utility.yul\":10660:10686   */\n      swap1\n      pop\n        /* \"#utility.yul\":10696:10767   */\n      tag_302\n        /* \"#utility.yul\":10764:10765   */\n      0x00\n        /* \"#utility.yul\":10753:10762   */\n      dup4\n        /* \"#utility.yul\":10749:10766   */\n      add\n        /* \"#utility.yul\":10740:10746   */\n      dup5\n        /* \"#utility.yul\":10696:10767   */\n      tag_168\n      jump\t// in\n    tag_302:\n        /* \"#utility.yul\":10552:10774   */\n      swap3\n      swap2\n      pop\n      pop\n      jump\t// out\n        /* \"#utility.yul\":10780:10902   */\n    tag_169:\n        /* \"#utility.yul\":10853:10877   */\n      tag_304\n        /* \"#utility.yul\":10871:10876   */\n      dup2\n        /* \"#utility.yul\":10853:10877   */\n      tag_167\n      jump\t// in\n    tag_304:\n        /* \"#utility.yul\":10846:10851   */\n      dup2\n        /* \"#utility.yul\":10843:10878   */\n      eq\n        /* \"#utility.yul\":10833:10896   */\n      tag_305\n      jumpi\n        /* \"#utility.yul\":10892:10893   */\n      0x00\n        /* \"#utility.yul\":10889:10890   */\n      dup1\n        /* \"#utility.yul\":10882:10894   */\n      revert\n        /* \"#utility.yul\":10833:10896   */\n    tag_305:\n        /* \"#utility.yul\":10780:10902   */\n      pop\n      jump\t// out\n        /* \"#utility.yul\":10908:11047   */\n    tag_170:\n        /* \"#utility.yul\":10954:10959   */\n      0x00\n        /* \"#utility.yul\":10992:10998   */\n      dup2\n        /* \"#utility.yul\":10979:10999   */\n      calldataload\n        /* \"#utility.yul\":10970:10999   */\n      swap1\n      pop\n        /* \"#utility.yul\":11008:11041   */\n      tag_307\n        /* \"#utility.yul\":11035:11040   */\n      dup2\n        /* \"#utility.yul\":11008:11041   */\n      tag_169\n      jump\t// in\n    tag_307:\n        /* \"#utility.yul\":10908:11047   */\n      swap3\n      swap2\n      pop\n      pop\n      jump\t// out\n        /* \"#utility.yul\":11053:11382   */\n    tag_49:\n        /* \"#utility.yul\":11112:11118   */\n      0x00\n        /* \"#utility.yul\":11161:11163   */\n      0x20\n        /* \"#utility.yul\":11149:11158   */\n      dup3\n        /* \"#utility.yul\":11140:11147   */\n      dup5\n        /* \"#utility.yul\":11136:11159   */\n      sub\n        /* \"#utility.yul\":11132:11164   */\n      slt\n        /* \"#utility.yul\":11129:11248   */\n      iszero\n      tag_309\n      jumpi\n        /* \"#utility.yul\":11167:11246   */\n      tag_310\n      tag_140\n      jump\t// in\n    tag_310:\n        /* \"#utility.yul\":11129:11248   */\n    tag_309:\n        /* \"#utility.yul\":11287:11288   */\n      0x00\n        /* \"#utility.yul\":11312:11365   */\n      tag_311\n        /* \"#utility.yul\":11357:11364   */\n      dup5\n        /* \"#utility.yul\":11348:11354   */\n      dup3\n        /* \"#utility.yul\":11337:11346   */\n      dup6\n        /* \"#utility.yul\":11333:11355   */\n      add\n        /* \"#utility.yul\":11312:11365   */\n      tag_170\n      jump\t// in\n    tag_311:\n        /* \"#utility.yul\":11302:11365   */\n      swap2\n      pop\n        /* \"#utility.yul\":11258:11375   */\n      pop\n        /* \"#utility.yul\":11053:11382   */\n      swap3\n      swap2\n      pop\n      pop\n      jump\t// out\n        /* \"#utility.yul\":11388:11568   */\n    tag_171:\n        /* \"#utility.yul\":11436:11513   */\n      0x4e487b7100000000000000000000000000000000000000000000000000000000\n        /* \"#utility.yul\":11433:11434   */\n      0x00\n        /* \"#utility.yul\":11426:11514   */\n      mstore\n        /* \"#utility.yul\":11533:11537   */\n      0x22\n        /* \"#utility.yul\":11530:11531   */\n      0x04\n        /* \"#utility.yul\":11523:11538   */\n      mstore\n        /* \"#utility.yul\":11557:11561   */\n      0x24\n        /* \"#utility.yul\":11554:11555   */\n      0x00\n        /* \"#utility.yul\":11547:11562   */\n      revert\n        /* \"#utility.yul\":11574:11894   */\n    tag_60:\n        /* \"#utility.yul\":11618:11624   */\n      0x00\n        /* \"#utility.yul\":11655:11656   */\n      0x02\n        /* \"#utility.yul\":11649:11653   */\n      dup3\n        /* \"#utility.yul\":11645:11657   */\n      div\n        /* \"#utility.yul\":11635:11657   */\n      swap1\n      pop\n        /* \"#utility.yul\":11702:11703   */\n      0x01\n        /* \"#utility.yul\":11696:11700   */\n      dup3\n        /* \"#utility.yul\":11692:11704   */\n      and\n        /* \"#utility.yul\":11723:11741   */\n      dup1\n        /* \"#utility.yul\":11713:11794   */\n      tag_314\n      jumpi\n        /* \"#utility.yul\":11779:11783   */\n      0x7f\n        /* \"#utility.yul\":11771:11777   */\n      dup3\n        /* \"#utility.yul\":11767:11784   */\n      and\n        /* \"#utility.yul\":11757:11784   */\n      swap2\n      pop\n        /* \"#utility.yul\":11713:11794   */\n    tag_314:\n        /* \"#utility.yul\":11841:11843   */\n      0x20\n        /* \"#utility.yul\":11833:11839   */\n      dup3\n        /* \"#utility.yul\":11830:11844   */\n      lt\n        /* \"#utility.yul\":11810:11828   */\n      dup2\n        /* \"#utility.yul\":11807:11845   */\n      sub\n        /* \"#utility.yul\":11804:11888   */\n      tag_315\n      jumpi\n        /* \"#utility.yul\":11860:11878   */\n      tag_316\n      tag_171\n      jump\t// in\n    tag_316:\n        /* \"#utility.yul\":11804:11888   */\n    tag_315:\n        /* \"#utility.yul\":11625:11894   */\n      pop\n        /* \"#utility.yul\":11574:11894   */\n      swap2\n      swap1\n      pop\n      jump\t// out\n        /* \"#utility.yul\":11900:12041   */\n    tag_172:\n        /* \"#utility.yul\":11949:11953   */\n      0x00\n        /* \"#utility.yul\":11972:11975   */\n      dup2\n        /* \"#utility.yul\":11964:11975   */\n      swap1\n      pop\n        /* \"#utility.yul\":11995:11998   */\n      dup2\n        /* \"#utility.yul\":11992:11993   */\n      0x00\n        /* \"#utility.yul\":11985:11999   */\n      mstore\n        /* \"#utility.yul\":12029:12033   */\n      0x20\n        /* \"#utility.yul\":12026:12027   */\n      0x00\n        /* \"#utility.yul\":12016:12034   */\n      keccak256\n        /* \"#utility.yul\":12008:12034   */\n      swap1\n      pop\n        /* \"#utility.yul\":11900:12041   */\n      swap2\n      swap1\n      pop\n      jump\t// out\n        /* \"#utility.yul\":12047:12140   */\n    tag_173:\n        /* \"#utility.yul\":12084:12090   */\n      0x00\n        /* \"#utility.yul\":12131:12133   */\n      0x20\n        /* \"#utility.yul\":12126:12128   */\n      0x1f\n        /* \"#utility.yul\":12119:12124   */\n      dup4\n        /* \"#utility.yul\":12115:12129   */\n      add\n        /* \"#utility.yul\":12111:12134   */\n      div\n        /* \"#utility.yul\":12101:12134   */\n      swap1\n      pop\n        /* \"#utility.yul\":12047:12140   */\n      swap2\n      swap1\n      pop\n      jump\t// out\n        /* \"#utility.yul\":12146:12253   */\n    tag_174:\n        /* \"#utility.yul\":12190:12198   */\n      0x00\n        /* \"#utility.yul\":12240:12245   */\n      dup3\n        /* \"#utility.yul\":12234:12238   */\n      dup3\n        /* \"#utility.yul\":12230:12246   */\n      shl\n        /* \"#utility.yul\":12209:12246   */\n      swap1\n      pop\n        /* \"#utility.yul\":12146:12253   */\n      swap3\n      swap2\n      pop\n      pop\n      jump\t// out\n        /* \"#utility.yul\":12259:12652   */\n    tag_175:\n        /* \"#utility.yul\":12328:12334   */\n      0x00\n        /* \"#utility.yul\":12378:12379   */\n      0x08\n        /* \"#utility.yul\":12366:12376   */\n      dup4\n        /* \"#utility.yul\":12362:12380   */\n      mul\n        /* \"#utility.yul\":12401:12498   */\n      tag_321\n        /* \"#utility.yul\":12431:12497   */\n      0xffffffffffffffffffffffffffffffffffffffffffffffffffffffffffffffff\n        /* \"#utility.yul\":12420:12429   */\n      dup3\n        /* \"#utility.yul\":12401:12498   */\n      tag_174\n      jump\t// in\n    tag_321:\n        /* \"#utility.yul\":12519:12558   */\n      tag_322\n        /* \"#utility.yul\":12549:12557   */\n      dup7\n        /* \"#utility.yul\":12538:12547   */\n      dup4\n        /* \"#utility.yul\":12519:12558   */\n      tag_174\n      jump\t// in\n    tag_322:\n        /* \"#utility.yul\":12507:12558   */\n      swap6\n      pop\n        /* \"#utility.yul\":12591:12595   */\n      dup1\n        /* \"#utility.yul\":12587:12596   */\n      not\n        /* \"#utility.yul\":12580:12585   */\n      dup5\n        /* \"#utility.yul\":12576:12597   */\n      and\n        /* \"#utility.yul\":12567:12597   */\n      swap4\n      pop\n        /* \"#utility.yul\":12640:12644   */\n      dup1\n        /* \"#utility.yul\":12630:12638   */\n      dup7\n        /* \"#utility.yul\":12626:12645   */\n      and\n        /* \"#utility.yul\":12619:12624   */\n      dup5\n        /* \"#utility.yul\":12616:12646   */\n      or\n        /* \"#utility.yul\":12606:12646   */\n      swap3\n      pop\n        /* \"#utility.yul\":12335:12652   */\n      pop\n      pop\n        /* \"#utility.yul\":12259:12652   */\n      swap4\n      swap3\n      pop\n      pop\n      pop\n      jump\t// out\n        /* \"#utility.yul\":12658:12718   */\n    tag_176:\n        /* \"#utility.yul\":12686:12689   */\n      0x00\n        /* \"#utility.yul\":12707:12712   */\n      dup2\n        /* \"#utility.yul\":12700:12712   */\n      swap1\n      pop\n        /* \"#utility.yul\":12658:12718   */\n      swap2\n      swap1\n      pop\n      jump\t// out\n        /* \"#utility.yul\":12724:12866   */\n    tag_177:\n        /* \"#utility.yul\":12774:12783   */\n      0x00\n        /* \"#utility.yul\":12807:12860   */\n      tag_325\n        /* \"#utility.yul\":12825:12859   */\n      tag_326\n        /* \"#utility.yul\":12834:12858   */\n      tag_327\n        /* \"#utility.yul\":12852:12857   */\n      dup5\n        /* \"#utility.yul\":12834:12858   */\n      tag_142\n      jump\t// in\n    tag_327:\n        /* \"#utility.yul\":12825:12859   */\n      tag_176\n      jump\t// in\n    tag_326:\n        /* \"#utility.yul\":12807:12860   */\n      tag_142\n      jump\t// in\n    tag_325:\n        /* \"#utility.yul\":12794:12860   */\n      swap1\n      pop\n        /* \"#utility.yul\":12724:12866   */\n      swap2\n      swap1\n      pop\n      jump\t// out\n        /* \"#utility.yul\":12872:12947   */\n    tag_178:\n        /* \"#utility.yul\":12915:12918   */\n      0x00\n        /* \"#utility.yul\":12936:12941   */\n      dup2\n        /* \"#utility.yul\":12929:12941   */\n      swap1\n      pop\n        /* \"#utility.yul\":12872:12947   */\n      swap2\n      swap1\n      pop\n      jump\t// out\n        /* \"#utility.yul\":12953:13222   */\n    tag_179:\n        /* \"#utility.yul\":13063:13102   */\n      tag_330\n        /* \"#utility.yul\":13094:13101   */\n      dup4\n        /* \"#utility.yul\":13063:13102   */\n      tag_177\n      jump\t// in\n    tag_330:\n        /* \"#utility.yul\":13124:13215   */\n      tag_331\n        /* \"#utility.yul\":13173:13214   */\n      tag_332\n        /* \"#utility.yul\":13197:13213   */\n      dup3\n        /* \"#utility.yul\":13173:13214   */\n      tag_178\n      jump\t// in\n    tag_332:\n        /* \"#utility.yul\":13165:13171   */\n      dup5\n        /* \"#utility.yul\":13158:13162   */\n      dup5\n        /* \"#utility.yul\":13152:13163   */\n      sload\n        /* \"#utility.yul\":13124:13215   */\n      tag_175\n      jump\t// in\n    tag_331:\n        /* \"#utility.yul\":13118:13122   */\n      dup3\n        /* \"#utility.yul\":13111:13216   */\n      sstore\n        /* \"#utility.yul\":13029:13222   */\n      pop\n        /* \"#utility.yul\":12953:13222   */\n      pop\n      pop\n      pop\n      jump\t// out\n        /* \"#utility.yul\":13228:13301   */\n    tag_180:\n        /* \"#utility.yul\":13273:13276   */\n      0x00\n        /* \"#utility.yul\":13228:13301   */\n      swap1\n      jump\t// out\n        /* \"#utility.yul\":13307:13496   */\n    tag_181:\n        /* \"#utility.yul\":13384:13416   */\n      tag_335\n      tag_180\n      jump\t// in\n    tag_335:\n        /* \"#utility.yul\":13425:13490   */\n      tag_336\n        /* \"#utility.yul\":13483:13489   */\n      dup2\n        /* \"#utility.yul\":13475:13481   */\n      dup5\n        /* \"#utility.yul\":13469:13473   */\n      dup5\n        /* \"#utility.yul\":13425:13490   */\n      tag_179\n      jump\t// in\n    tag_336:\n        /* \"#utility.yul\":13360:13496   */\n      pop\n        /* \"#utility.yul\":13307:13496   */\n      pop\n      pop\n      jump\t// out\n        /* \"#utility.yul\":13502:13688   */\n    tag_182:\n        /* \"#utility.yul\":13562:13682   */\n    tag_338:\n        /* \"#utility.yul\":13579:13582   */\n      dup2\n        /* \"#utility.yul\":13572:13577   */\n      dup2\n        /* \"#utility.yul\":13569:13583   */\n      lt\n        /* \"#utility.yul\":13562:13682   */\n      iszero\n      tag_340\n      jumpi\n        /* \"#utility.yul\":13633:13672   */\n      tag_341\n        /* \"#utility.yul\":13670:13671   */\n      0x00\n        /* \"#utility.yul\":13663:13668   */\n      dup3\n        /* \"#utility.yul\":13633:13672   */\n      tag_181\n      jump\t// in\n    tag_341:\n        /* \"#utility.yul\":13606:13607   */\n      0x01\n        /* \"#utility.yul\":13599:13604   */\n      dup2\n        /* \"#utility.yul\":13595:13608   */\n      add\n        /* \"#utility.yul\":13586:13608   */\n      swap1\n      pop\n        /* \"#utility.yul\":13562:13682   */\n      jump(tag_338)\n    tag_340:\n        /* \"#utility.yul\":13502:13688   */\n      pop\n      pop\n      jump\t// out\n        /* \"#utility.yul\":13694:14237   */\n    tag_183:\n        /* \"#utility.yul\":13795:13797   */\n      0x1f\n        /* \"#utility.yul\":13790:13793   */\n      dup3\n        /* \"#utility.yul\":13787:13798   */\n      gt\n        /* \"#utility.yul\":13784:14230   */\n      iszero\n      tag_343\n      jumpi\n        /* \"#utility.yul\":13829:13867   */\n      tag_344\n        /* \"#utility.yul\":13861:13866   */\n      dup2\n        /* \"#utility.yul\":13829:13867   */\n      tag_172\n      jump\t// in\n    tag_344:\n        /* \"#utility.yul\":13913:13942   */\n      tag_345\n        /* \"#utility.yul\":13931:13941   */\n      dup5\n        /* \"#utility.yul\":13913:13942   */\n      tag_173\n      jump\t// in\n    tag_345:\n        /* \"#utility.yul\":13903:13911   */\n      dup2\n        /* \"#utility.yul\":13899:13943   */\n      add\n        /* \"#utility.yul\":14096:14098   */\n      0x20\n        /* \"#utility.yul\":14084:14094   */\n      dup6\n        /* \"#utility.yul\":14081:14099   */\n      lt\n        /* \"#utility.yul\":14078:14127   */\n      iszero\n      tag_346\n      jumpi\n        /* \"#utility.yul\":14117:14125   */\n      dup2\n        /* \"#utility.yul\":14102:14125   */\n      swap1\n      pop\n        /* \"#utility.yul\":14078:14127   */\n    tag_346:\n        /* \"#utility.yul\":14140:14220   */\n      tag_347\n        /* \"#utility.yul\":14196:14218   */\n      tag_348\n        /* \"#utility.yul\":14214:14217   */\n      dup6\n        /* \"#utility.yul\":14196:14218   */\n      tag_173\n      jump\t// in\n    tag_348:\n        /* \"#utility.yul\":14186:14194   */\n      dup4\n        /* \"#utility.yul\":14182:14219   */\n      add\n        /* \"#utility.yul\":14169:14180   */\n      dup3\n        /* \"#utility.yul\":14140:14220   */\n      tag_182\n      jump\t// in\n    tag_347:\n        /* \"#utility.yul\":13799:14230   */\n      pop\n      pop\n        /* \"#utility.yul\":13784:14230   */\n    tag_343:\n        /* \"#utility.yul\":13694:14237   */\n      pop\n      pop\n      pop\n      jump\t// out\n        /* \"#utility.yul\":14243:14360   */\n    tag_184:\n        /* \"#utility.yul\":14297:14305   */\n      0x00\n        /* \"#utility.yul\":14347:14352   */\n      dup3\n        /* \"#utility.yul\":14341:14345   */\n      dup3\n        /* \"#utility.yul\":14337:14353   */\n      shr\n        /* \"#utility.yul\":14316:14353   */\n      swap1\n      pop\n        /* \"#utility.yul\":14243:14360   */\n      swap3\n      swap2\n      pop\n      pop\n      jump\t// out\n        /* \"#utility.yul\":14366:14535   */\n    tag_185:\n        /* \"#utility.yul\":14410:14416   */\n      0x00\n        /* \"#utility.yul\":14443:14494   */\n      tag_351\n        /* \"#utility.yul\":14491:14492   */\n      0x00\n        /* \"#utility.yul\":14487:14493   */\n      not\n        /* \"#utility.yul\":14479:14484   */\n      dup5\n        /* \"#utility.yul\":14476:14477   */\n      0x08\n        /* \"#utility.yul\":14472:14485   */\n      mul\n        /* \"#utility.yul\":14443:14494   */\n      tag_184\n      jump\t// in\n    tag_351:\n        /* \"#utility.yul\":14439:14495   */\n      not\n        /* \"#utility.yul\":14524:14528   */\n      dup1\n        /* \"#utility.yul\":14518:14522   */\n      dup4\n        /* \"#utility.yul\":14514:14529   */\n      and\n        /* \"#utility.yul\":14504:14529   */\n      swap2\n      pop\n        /* \"#utility.yul\":14417:14535   */\n      pop\n        /* \"#utility.yul\":14366:14535   */\n      swap3\n      swap2\n      pop\n      pop\n      jump\t// out\n        /* \"#utility.yul\":14540:14835   */\n    tag_186:\n        /* \"#utility.yul\":14616:14620   */\n      0x00\n        /* \"#utility.yul\":14762:14791   */\n      tag_353\n        /* \"#utility.yul\":14787:14790   */\n      dup4\n        /* \"#utility.yul\":14781:14785   */\n      dup4\n        /* \"#utility.yul\":14762:14791   */\n      tag_185\n      jump\t// in\n    tag_353:\n        /* \"#utility.yul\":14754:14791   */\n      swap2\n      pop\n        /* \"#utility.yul\":14824:14827   */\n      dup3\n        /* \"#utility.yul\":14821:14822   */\n      0x02\n        /* \"#utility.yul\":14817:14828   */\n      mul\n        /* \"#utility.yul\":14811:14815   */\n      dup3\n        /* \"#utility.yul\":14808:14829   */\n      or\n        /* \"#utility.yul\":14800:14829   */\n      swap1\n      pop\n        /* \"#utility.yul\":14540:14835   */\n      swap3\n      swap2\n      pop\n      pop\n      jump\t// out\n        /* \"#utility.yul\":14840:16235   */\n    tag_84:\n        /* \"#utility.yul\":14957:14994   */\n      tag_355\n        /* \"#utility.yul\":14990:14993   */\n      dup3\n        /* \"#utility.yul\":14957:14994   */\n      tag_146\n      jump\t// in\n    tag_355:\n        /* \"#utility.yul\":15059:15077   */\n      0xffffffffffffffff\n        /* \"#utility.yul\":15051:15057   */\n      dup2\n        /* \"#utility.yul\":15048:15078   */\n      gt\n        /* \"#utility.yul\":15045:15101   */\n      iszero\n      tag_356\n      jumpi\n        /* \"#utility.yul\":15081:15099   */\n      tag_357\n      tag_155\n      jump\t// in\n    tag_357:\n        /* \"#utility.yul\":15045:15101   */\n    tag_356:\n        /* \"#utility.yul\":15125:15163   */\n      tag_358\n        /* \"#utility.yul\":15157:15161   */\n      dup3\n        /* \"#utility.yul\":15151:15162   */\n      sload\n        /* \"#utility.yul\":15125:15163   */\n      tag_60\n      jump\t// in\n    tag_358:\n        /* \"#utility.yul\":15210:15277   */\n      tag_359\n        /* \"#utility.yul\":15270:15276   */\n      dup3\n        /* \"#utility.yul\":15262:15268   */\n      dup3\n        /* \"#utility.yul\":15256:15260   */\n      dup6\n        /* \"#utility.yul\":15210:15277   */\n      tag_183\n      jump\t// in\n    tag_359:\n        /* \"#utility.yul\":15304:15305   */\n      0x00\n        /* \"#utility.yul\":15328:15332   */\n      0x20\n        /* \"#utility.yul\":15315:15332   */\n      swap1\n      pop\n        /* \"#utility.yul\":15360:15362   */\n      0x1f\n        /* \"#utility.yul\":15352:15358   */\n      dup4\n        /* \"#utility.yul\":15349:15363   */\n      gt\n        /* \"#utility.yul\":15377:15378   */\n      0x01\n        /* \"#utility.yul\":15372:15990   */\n      dup2\n      eq\n      tag_361\n      jumpi\n        /* \"#utility.yul\":16034:16035   */\n      0x00\n        /* \"#utility.yul\":16051:16057   */\n      dup5\n        /* \"#utility.yul\":16048:16125   */\n      iszero\n      tag_362\n      jumpi\n        /* \"#utility.yul\":16100:16109   */\n      dup3\n        /* \"#utility.yul\":16095:16098   */\n      dup8\n        /* \"#utility.yul\":16091:16110   */\n      add\n        /* \"#utility.yul\":16085:16111   */\n      mload\n        /* \"#utility.yul\":16076:16111   */\n      swap1\n      pop\n        /* \"#utility.yul\":16048:16125   */\n    tag_362:\n        /* \"#utility.yul\":16151:16218   */\n      tag_363\n        /* \"#utility.yul\":16211:16217   */\n      dup6\n        /* \"#utility.yul\":16204:16209   */\n      dup3\n        /* \"#utility.yul\":16151:16218   */\n      tag_186\n      jump\t// in\n    tag_363:\n        /* \"#utility.yul\":16145:16149   */\n      dup7\n        /* \"#utility.yul\":16138:16219   */\n      sstore\n        /* \"#utility.yul\":16007:16229   */\n      pop\n        /* \"#utility.yul\":15342:16229   */\n      jump(tag_360)\n        /* \"#utility.yul\":15372:15990   */\n    tag_361:\n        /* \"#utility.yul\":15424:15428   */\n      0x1f\n        /* \"#utility.yul\":15420:15429   */\n      not\n        /* \"#utility.yul\":15412:15418   */\n      dup5\n        /* \"#utility.yul\":15408:15430   */\n      and\n        /* \"#utility.yul\":15458:15495   */\n      tag_364\n        /* \"#utility.yul\":15490:15494   */\n      dup7\n        /* \"#utility.yul\":15458:15495   */\n      tag_172\n      jump\t// in\n    tag_364:\n        /* \"#utility.yul\":15517:15518   */\n      0x00\n        /* \"#utility.yul\":15531:15739   */\n    tag_365:\n        /* \"#utility.yul\":15545:15552   */\n      dup3\n        /* \"#utility.yul\":15542:15543   */\n      dup2\n        /* \"#utility.yul\":15539:15553   */\n      lt\n        /* \"#utility.yul\":15531:15739   */\n      iszero\n      tag_367\n      jumpi\n        /* \"#utility.yul\":15624:15633   */\n      dup5\n        /* \"#utility.yul\":15619:15622   */\n      dup10\n        /* \"#utility.yul\":15615:15634   */\n      add\n        /* \"#utility.yul\":15609:15635   */\n      mload\n        /* \"#utility.yul\":15601:15607   */\n      dup3\n        /* \"#utility.yul\":15594:15636   */\n      sstore\n        /* \"#utility.yul\":15675:15676   */\n      0x01\n        /* \"#utility.yul\":15667:15673   */\n      dup3\n        /* \"#utility.yul\":15663:15677   */\n      add\n        /* \"#utility.yul\":15653:15677   */\n      swap2\n      pop\n        /* \"#utility.yul\":15722:15724   */\n      0x20\n        /* \"#utility.yul\":15711:15720   */\n      dup6\n        /* \"#utility.yul\":15707:15725   */\n      add\n        /* \"#utility.yul\":15694:15725   */\n      swap5\n      pop\n        /* \"#utility.yul\":15568:15572   */\n      0x20\n        /* \"#utility.yul\":15565:15566   */\n      dup2\n        /* \"#utility.yul\":15561:15573   */\n      add\n        /* \"#utility.yul\":15556:15573   */\n      swap1\n      pop\n        /* \"#utility.yul\":15531:15739   */\n      jump(tag_365)\n    tag_367:\n        /* \"#utility.yul\":15767:15773   */\n      dup7\n        /* \"#utility.yul\":15758:15765   */\n      dup4\n        /* \"#utility.yul\":15755:15774   */\n      lt\n        /* \"#utility.yul\":15752:15931   */\n      iszero\n      tag_368\n      jumpi\n        /* \"#utility.yul\":15825:15834   */\n      dup5\n        /* \"#utility.yul\":15820:15823   */\n      dup10\n        /* \"#utility.yul\":15816:15835   */\n      add\n        /* \"#utility.yul\":15810:15836   */\n      mload\n        /* \"#utility.yul\":15868:15916   */\n      tag_369\n        /* \"#utility.yul\":15910:15914   */\n      0x1f\n        /* \"#utility.yul\":15902:15908   */\n      dup10\n        /* \"#utility.yul\":15898:15915   */\n      and\n        /* \"#utility.yul\":15887:15896   */\n      dup3\n        /* \"#utility.yul\":15868:15916   */\n      tag_185\n      jump\t// in\n    tag_369:\n        /* \"#utility.yul\":15860:15866   */\n      dup4\n        /* \"#utility.yul\":15853:15917   */\n      sstore\n        /* \"#utility.yul\":15775:15931   */\n      pop\n        /* \"#utility.yul\":15752:15931   */\n    tag_368:\n        /* \"#utility.yul\":15977:15978   */\n      0x01\n        /* \"#utility.yul\":15973:15974   */\n      0x02\n        /* \"#utility.yul\":15965:15971   */\n      dup9\n        /* \"#utility.yul\":15961:15975   */\n      mul\n        /* \"#utility.yul\":15957:15979   */\n      add\n        /* \"#utility.yul\":15951:15955   */\n      dup9\n        /* \"#utility.yul\":15944:15980   */\n      sstore\n        /* \"#utility.yul\":15379:15990   */\n      pop\n      pop\n      pop\n        /* \"#utility.yul\":15342:16229   */\n    tag_360:\n      pop\n        /* \"#utility.yul\":14932:16235   */\n      pop\n      pop\n      pop\n        /* \"#utility.yul\":14840:16235   */\n      pop\n      pop\n      jump\t// out\n        /* \"#utility.yul\":16241:17087   */\n    tag_90:\n        /* \"#utility.yul\":16486:16490   */\n      0x00\n        /* \"#utility.yul\":16524:16527   */\n      0xa0\n        /* \"#utility.yul\":16513:16522   */\n      dup3\n        /* \"#utility.yul\":16509:16528   */\n      add\n        /* \"#utility.yul\":16501:16528   */\n      swap1\n      pop\n        /* \"#utility.yul\":16574:16583   */\n      dup2\n        /* \"#utility.yul\":16568:16572   */\n      dup2\n        /* \"#utility.yul\":16564:16584   */\n      sub\n        /* \"#utility.yul\":16560:16561   */\n      0x00\n        /* \"#utility.yul\":16549:16558   */\n      dup4\n        /* \"#utility.yul\":16545:16562   */\n      add\n        /* \"#utility.yul\":16538:16585   */\n      mstore\n        /* \"#utility.yul\":16602:16680   */\n      tag_371\n        /* \"#utility.yul\":16675:16679   */\n      dup2\n        /* \"#utility.yul\":16666:16672   */\n      dup9\n        /* \"#utility.yul\":16602:16680   */\n      tag_150\n      jump\t// in\n    tag_371:\n        /* \"#utility.yul\":16594:16680   */\n      swap1\n      pop\n        /* \"#utility.yul\":16727:16736   */\n      dup2\n        /* \"#utility.yul\":16721:16725   */\n      dup2\n        /* \"#utility.yul\":16717:16737   */\n      sub\n        /* \"#utility.yul\":16712:16714   */\n      0x20\n        /* \"#utility.yul\":16701:16710   */\n      dup4\n        /* \"#utility.yul\":16697:16715   */\n      add\n        /* \"#utility.yul\":16690:16738   */\n      mstore\n        /* \"#utility.yul\":16755:16833   */\n      tag_372\n        /* \"#utility.yul\":16828:16832   */\n      dup2\n        /* \"#utility.yul\":16819:16825   */\n      dup8\n        /* \"#utility.yul\":16755:16833   */\n      tag_150\n      jump\t// in\n    tag_372:\n        /* \"#utility.yul\":16747:16833   */\n      swap1\n      pop\n        /* \"#utility.yul\":16843:16915   */\n      tag_373\n        /* \"#utility.yul\":16911:16913   */\n      0x40\n        /* \"#utility.yul\":16900:16909   */\n      dup4\n        /* \"#utility.yul\":16896:16914   */\n      add\n        /* \"#utility.yul\":16887:16893   */\n      dup7\n        /* \"#utility.yul\":16843:16915   */\n      tag_145\n      jump\t// in\n    tag_373:\n        /* \"#utility.yul\":16925:16997   */\n      tag_374\n        /* \"#utility.yul\":16993:16995   */\n      0x60\n        /* \"#utility.yul\":16982:16991   */\n      dup4\n        /* \"#utility.yul\":16978:16996   */\n      add\n        /* \"#utility.yul\":16969:16975   */\n      dup6\n        /* \"#utility.yul\":16925:16997   */\n      tag_145\n      jump\t// in\n    tag_374:\n        /* \"#utility.yul\":17007:17080   */\n      tag_375\n        /* \"#utility.yul\":17075:17078   */\n      0x80\n        /* \"#utility.yul\":17064:17073   */\n      dup4\n        /* \"#utility.yul\":17060:17079   */\n      add\n        /* \"#utility.yul\":17051:17057   */\n      dup5\n        /* \"#utility.yul\":17007:17080   */\n      tag_145\n      jump\t// in\n    tag_375:\n        /* \"#utility.yul\":16241:17087   */\n      swap7\n      swap6\n      pop\n      pop\n      pop\n      pop\n      pop\n      pop\n      jump\t// out\n        /* \"#utility.yul\":17093:17273   */\n    tag_187:\n        /* \"#utility.yul\":17141:17218   */\n      0x4e487b7100000000000000000000000000000000000000000000000000000000\n        /* \"#utility.yul\":17138:17139   */\n      0x00\n        /* \"#utility.yul\":17131:17219   */\n      mstore\n        /* \"#utility.yul\":17238:17242   */\n      0x11\n        /* \"#utility.yul\":17235:17236   */\n      0x04\n        /* \"#utility.yul\":17228:17243   */\n      mstore\n        /* \"#utility.yul\":17262:17266   */\n      0x24\n        /* \"#utility.yul\":17259:17260   */\n      0x00\n        /* \"#utility.yul\":17252:17267   */\n      revert\n        /* \"#utility.yul\":17279:17512   */\n    tag_92:\n        /* \"#utility.yul\":17318:17321   */\n      0x00\n        /* \"#utility.yul\":17341:17365   */\n      tag_378\n        /* \"#utility.yul\":17359:17364   */\n      dup3\n        /* \"#utility.yul\":17341:17365   */\n      tag_142\n      jump\t// in\n    tag_378:\n        /* \"#utility.yul\":17332:17365   */\n      swap2\n      pop\n        /* \"#utility.yul\":17387:17453   */\n      0xffffffffffffffffffffffffffffffffffffffffffffffffffffffffffffffff\n        /* \"#utility.yul\":17380:17385   */\n      dup3\n        /* \"#utility.yul\":17377:17454   */\n      sub\n        /* \"#utility.yul\":17374:17477   */\n      tag_379\n      jumpi\n        /* \"#utility.yul\":17457:17475   */\n      tag_380\n      tag_187\n      jump\t// in\n    tag_380:\n        /* \"#utility.yul\":17374:17477   */\n    tag_379:\n        /* \"#utility.yul\":17504:17505   */\n      0x01\n        /* \"#utility.yul\":17497:17502   */\n      dup3\n        /* \"#utility.yul\":17493:17506   */\n      add\n        /* \"#utility.yul\":17486:17506   */\n      swap1\n      pop\n        /* \"#utility.yul\":17279:17512   */\n      swap2\n      swap1\n      pop\n      jump\t// out\n        /* \"#utility.yul\":17518:17928   */\n    tag_106:\n        /* \"#utility.yul\":17558:17565   */\n      0x00\n        /* \"#utility.yul\":17581:17601   */\n      tag_382\n        /* \"#utility.yul\":17599:17600   */\n      dup3\n        /* \"#utility.yul\":17581:17601   */\n      tag_142\n      jump\t// in\n    tag_382:\n        /* \"#utility.yul\":17576:17601   */\n      swap2\n      pop\n        /* \"#utility.yul\":17615:17635   */\n      tag_383\n        /* \"#utility.yul\":17633:17634   */\n      dup4\n        /* \"#utility.yul\":17615:17635   */\n      tag_142\n      jump\t// in\n    tag_383:\n        /* \"#utility.yul\":17610:17635   */\n      swap3\n      pop\n        /* \"#utility.yul\":17670:17671   */\n      dup3\n        /* \"#utility.yul\":17667:17668   */\n      dup3\n        /* \"#utility.yul\":17663:17672   */\n      mul\n        /* \"#utility.yul\":17692:17722   */\n      tag_384\n        /* \"#utility.yul\":17710:17721   */\n      dup2\n        /* \"#utility.yul\":17692:17722   */\n      tag_142\n      jump\t// in\n    tag_384:\n        /* \"#utility.yul\":17681:17722   */\n      swap2\n      pop\n        /* \"#utility.yul\":17871:17872   */\n      dup3\n        /* \"#utility.yul\":17862:17869   */\n      dup3\n        /* \"#utility.yul\":17858:17873   */\n      div\n        /* \"#utility.yul\":17855:17856   */\n      dup5\n        /* \"#utility.yul\":17852:17874   */\n      eq\n        /* \"#utility.yul\":17832:17833   */\n      dup4\n        /* \"#utility.yul\":17825:17834   */\n      iszero\n        /* \"#utility.yul\":17805:17888   */\n      or\n        /* \"#utility.yul\":17782:17921   */\n      tag_385\n      jumpi\n        /* \"#utility.yul\":17901:17919   */\n      tag_386\n      tag_187\n      jump\t// in\n    tag_386:\n        /* \"#utility.yul\":17782:17921   */\n    tag_385:\n        /* \"#utility.yul\":17566:17928   */\n      pop\n        /* \"#utility.yul\":17518:17928   */\n      swap3\n      swap2\n      pop\n      pop\n      jump\t// out\n        /* \"#utility.yul\":17934:18128   */\n    tag_116:\n        /* \"#utility.yul\":17974:17978   */\n      0x00\n        /* \"#utility.yul\":17994:18014   */\n      tag_388\n        /* \"#utility.yul\":18012:18013   */\n      dup3\n        /* \"#utility.yul\":17994:18014   */\n      tag_142\n      jump\t// in\n    tag_388:\n        /* \"#utility.yul\":17989:18014   */\n      swap2\n      pop\n        /* \"#utility.yul\":18028:18048   */\n      tag_389\n        /* \"#utility.yul\":18046:18047   */\n      dup4\n        /* \"#utility.yul\":18028:18048   */\n      tag_142\n      jump\t// in\n    tag_389:\n        /* \"#utility.yul\":18023:18048   */\n      swap3\n      pop\n        /* \"#utility.yul\":18072:18073   */\n      dup3\n        /* \"#utility.yul\":18069:18070   */\n      dup3\n        /* \"#utility.yul\":18065:18074   */\n      sub\n        /* \"#utility.yul\":18057:18074   */\n      swap1\n      pop\n        /* \"#utility.yul\":18096:18097   */\n      dup2\n        /* \"#utility.yul\":18090:18094   */\n      dup2\n        /* \"#utility.yul\":18087:18098   */\n      gt\n        /* \"#utility.yul\":18084:18121   */\n      iszero\n      tag_390\n      jumpi\n        /* \"#utility.yul\":18101:18119   */\n      tag_391\n      tag_187\n      jump\t// in\n    tag_391:\n        /* \"#utility.yul\":18084:18121   */\n    tag_390:\n        /* \"#utility.yul\":17934:18128   */\n      swap3\n      swap2\n      pop\n      pop\n      jump\t// out\n        /* \"#utility.yul\":18134:18314   */\n    tag_188:\n        /* \"#utility.yul\":18182:18259   */\n      0x4e487b7100000000000000000000000000000000000000000000000000000000\n        /* \"#utility.yul\":18179:18180   */\n      0x00\n        /* \"#utility.yul\":18172:18260   */\n      mstore\n        /* \"#utility.yul\":18279:18283   */\n      0x12\n        /* \"#utility.yul\":18276:18277   */\n      0x04\n        /* \"#utility.yul\":18269:18284   */\n      mstore\n        /* \"#utility.yul\":18303:18307   */\n      0x24\n        /* \"#utility.yul\":18300:18301   */\n      0x00\n        /* \"#utility.yul\":18293:18308   */\n      revert\n        /* \"#utility.yul\":18320:18505   */\n    tag_120:\n        /* \"#utility.yul\":18360:18361   */\n      0x00\n        /* \"#utility.yul\":18377:18397   */\n      tag_394\n        /* \"#utility.yul\":18395:18396   */\n      dup3\n        /* \"#utility.yul\":18377:18397   */\n      tag_142\n      jump\t// in\n    tag_394:\n        /* \"#utility.yul\":18372:18397   */\n      swap2\n      pop\n        /* \"#utility.yul\":18411:18431   */\n      tag_395\n        /* \"#utility.yul\":18429:18430   */\n      dup4\n        /* \"#utility.yul\":18411:18431   */\n      tag_142\n      jump\t// in\n    tag_395:\n        /* \"#utility.yul\":18406:18431   */\n      swap3\n      pop\n        /* \"#utility.yul\":18450:18451   */\n      dup3\n        /* \"#utility.yul\":18440:18475   */\n      tag_396\n      jumpi\n        /* \"#utility.yul\":18455:18473   */\n      tag_397\n      tag_188\n      jump\t// in\n    tag_397:\n        /* \"#utility.yul\":18440:18475   */\n    tag_396:\n        /* \"#utility.yul\":18497:18498   */\n      dup3\n        /* \"#utility.yul\":18494:18495   */\n      dup3\n        /* \"#utility.yul\":18490:18499   */\n      div\n        /* \"#utility.yul\":18485:18499   */\n      swap1\n      pop\n        /* \"#utility.yul\":18320:18505   */\n      swap3\n      swap2\n      pop\n      pop\n      jump\t// out\n\n    auxdata: 0xa26469706673582212201f0d00146afa3ebeb2ab8a04eb231fc052b9b9d1011e87f87cdd25d23067a07e64736f6c634300081a0033\n}\n",
				"bytecode": {
					"linkReferences": {},
					"object": "60806040526001600355348015610014575f80fd5b50335f73ffffffffffffffffffffffffffffffffffffffff168173ffffffffffffffffffffffffffffffffffffffff1603610086575f6040517f1e4fbdf700000000000000000000000000000000000000000000000000000000815260040161007d919061019b565b60405180910390fd5b6100958161009b60201b60201c565b506101b4565b5f805f9054906101000a900473ffffffffffffffffffffffffffffffffffffffff169050815f806101000a81548173ffffffffffffffffffffffffffffffffffffffff021916908373ffffffffffffffffffffffffffffffffffffffff1602179055508173ffffffffffffffffffffffffffffffffffffffff168173ffffffffffffffffffffffffffffffffffffffff167f8be0079c531659141344cd1fd0a4f28419497f9722a3daafe3b4186f6b6457e060405160405180910390a35050565b5f73ffffffffffffffffffffffffffffffffffffffff82169050919050565b5f6101858261015c565b9050919050565b6101958161017b565b82525050565b5f6020820190506101ae5f83018461018c565b92915050565b61136c806101c15f395ff3fe608060405234801561000f575f80fd5b5060043610610091575f3560e01c8063715018a611610064578063715018a614610133578063846814b41461013d5780638da5cb5b1461016d5780639b8c549a1461018b578063f2fde38b146101bb57610091565b806332b2b9341461009557806338206125146100c657806340f0a055146100e2578063416e4f4814610117575b5f80fd5b6100af60048036038101906100aa9190610952565b6101d7565b6040516100bd92919061099f565b60405180910390f35b6100e060048036038101906100db9190610952565b610227565b005b6100fc60048036038101906100f791906109c6565b61024c565b60405161010e96959493929190610a7b565b60405180910390f35b610131600480360381019061012c9190610952565b6103b8565b005b61013b6103fd565b005b61015760048036038101906101529190610cf6565b610410565b6040516101649190610e03565b60405180910390f35b6101756105b8565b6040516101829190610e5b565b60405180910390f35b6101a560048036038101906101a09190610952565b6105df565b6040516101b29190610e03565b60405180910390f35b6101d560048036038101906101d09190610e9e565b61062a565b005b5f805f60015f8681526020019081526020015f2090505f6102058260050154866106ae90919063ffffffff16565b90508060025f8881526020019081526020015f20549350935050509250929050565b61022f6106c3565b8060015f8481526020019081526020015f20600701819055505050565b6060805f805f805f60015f8981526020019081526020015f209050805f018160010182600401548360050154846009015f9054906101000a900460ff1685600a015485805461029a90610ef6565b80601f01602080910402602001604051908101604052809291908181526020018280546102c690610ef6565b80156103115780601f106102e857610100808354040283529160200191610311565b820191905f5260205f20905b8154815290600101906020018083116102f457829003601f168201915b5050505050955084805461032490610ef6565b80601f016020809104026020016040519081016040528092919081815260200182805461035090610ef6565b801561039b5780601f106103725761010080835404028352916020019161039b565b820191905f5260205f20905b81548152906001019060200180831161037e57829003601f168201915b505050505094509650965096509650965096505091939550919395565b6103c06106c3565b6103e48160025f8581526020019081526020015f205461074a90919063ffffffff16565b60025f8481526020019081526020015f20819055505050565b6104056106c3565b61040e5f61075f565b565b5f6104196106c3565b5f60035490506040518061016001604052808a81526020018981526020018881526020018781526020018681526020018581526020018481526020018481526020014281526020015f151581526020015f81525060015f8381526020019081526020015f205f820151815f01908161049191906110c3565b5060208201518160010190816104a791906110c3565b5060408201518160020190816104bd91906110c3565b5060608201518160030190805190602001906104da92919061083c565b506080820151816004015560a0820151816005015560c0820151816006015560e082015181600701556101008201518160080155610120820151816009015f6101000a81548160ff02191690831515021790555061014082015181600a01559050508460025f8381526020019081526020015f2081905550807ff995299d6b78bab4559102318b5c60fb5ada990cf028f135a648875091233a9b8a8a88888860405161058a959493929190611192565b60405180910390a260035f8154809291906105a49061121e565b919050555080915050979650505050505050565b5f805f9054906101000a900473ffffffffffffffffffffffffffffffffffffffff16905090565b5f8060015f8581526020019081526020015f20905061062181600401546106138360070154866106ae90919063ffffffff16565b61082090919063ffffffff16565b91505092915050565b6106326106c3565b5f73ffffffffffffffffffffffffffffffffffffffff168173ffffffffffffffffffffffffffffffffffffffff16036106a2575f6040517f1e4fbdf70000000000000000000000000000000000000000000000000000000081526004016106999190610e5b565b60405180910390fd5b6106ab8161075f565b50565b5f81836106bb9190611265565b905092915050565b6106cb610835565b73ffffffffffffffffffffffffffffffffffffffff166106e96105b8565b73ffffffffffffffffffffffffffffffffffffffff16146107485761070c610835565b6040517f118cdaa700000000000000000000000000000000000000000000000000000000815260040161073f9190610e5b565b60405180910390fd5b565b5f818361075791906112a6565b905092915050565b5f805f9054906101000a900473ffffffffffffffffffffffffffffffffffffffff169050815f806101000a81548173ffffffffffffffffffffffffffffffffffffffff021916908373ffffffffffffffffffffffffffffffffffffffff1602179055508173ffffffffffffffffffffffffffffffffffffffff168173ffffffffffffffffffffffffffffffffffffffff167f8be0079c531659141344cd1fd0a4f28419497f9722a3daafe3b4186f6b6457e060405160405180910390a35050565b5f818361082d9190611306565b905092915050565b5f33905090565b828054828255905f5260205f20908101928215610882579160200282015b8281111561088157825182908161087191906110c3565b509160200191906001019061085a565b5b50905061088f9190610893565b5090565b5b808211156108b2575f81816108a991906108b6565b50600101610894565b5090565b5080546108c290610ef6565b5f825580601f106108d357506108f0565b601f0160209004905f5260205f20908101906108ef91906108f3565b5b50565b5b8082111561090a575f815f9055506001016108f4565b5090565b5f604051905090565b5f80fd5b5f80fd5b5f819050919050565b6109318161091f565b811461093b575f80fd5b50565b5f8135905061094c81610928565b92915050565b5f806040838503121561096857610967610917565b5b5f6109758582860161093e565b92505060206109868582860161093e565b9150509250929050565b6109998161091f565b82525050565b5f6040820190506109b25f830185610990565b6109bf6020830184610990565b9392505050565b5f602082840312156109db576109da610917565b5b5f6109e88482850161093e565b91505092915050565b5f81519050919050565b5f82825260208201905092915050565b8281835e5f83830152505050565b5f601f19601f8301169050919050565b5f610a33826109f1565b610a3d81856109fb565b9350610a4d818560208601610a0b565b610a5681610a19565b840191505092915050565b5f8115159050919050565b610a7581610a61565b82525050565b5f60c0820190508181035f830152610a938189610a29565b90508181036020830152610aa78188610a29565b9050610ab66040830187610990565b610ac36060830186610990565b610ad06080830185610a6c565b610add60a0830184610990565b979650505050505050565b5f80fd5b5f80fd5b7f4e487b71000000000000000000000000000000000000000000000000000000005f52604160045260245ffd5b610b2682610a19565b810181811067ffffffffffffffff82111715610b4557610b44610af0565b5b80604052505050565b5f610b5761090e565b9050610b638282610b1d565b919050565b5f67ffffffffffffffff821115610b8257610b81610af0565b5b610b8b82610a19565b9050602081019050919050565b828183375f83830152505050565b5f610bb8610bb384610b68565b610b4e565b905082815260208101848484011115610bd457610bd3610aec565b5b610bdf848285610b98565b509392505050565b5f82601f830112610bfb57610bfa610ae8565b5b8135610c0b848260208601610ba6565b91505092915050565b5f67ffffffffffffffff821115610c2e57610c2d610af0565b5b602082029050602081019050919050565b5f80fd5b5f610c55610c5084610c14565b610b4e565b90508083825260208201905060208402830185811115610c7857610c77610c3f565b5b835b81811015610cbf57803567ffffffffffffffff811115610c9d57610c9c610ae8565b5b808601610caa8982610be7565b85526020850194505050602081019050610c7a565b5050509392505050565b5f82601f830112610cdd57610cdc610ae8565b5b8135610ced848260208601610c43565b91505092915050565b5f805f805f805f60e0888a031215610d1157610d10610917565b5b5f88013567ffffffffffffffff811115610d2e57610d2d61091b565b5b610d3a8a828b01610be7565b975050602088013567ffffffffffffffff811115610d5b57610d5a61091b565b5b610d678a828b01610be7565b965050604088013567ffffffffffffffff811115610d8857610d8761091b565b5b610d948a828b01610be7565b955050606088013567ffffffffffffffff811115610db557610db461091b565b5b610dc18a828b01610cc9565b9450506080610dd28a828b0161093e565b93505060a0610de38a828b0161093e565b92505060c0610df48a828b0161093e565b91505092959891949750929550565b5f602082019050610e165f830184610990565b92915050565b5f73ffffffffffffffffffffffffffffffffffffffff82169050919050565b5f610e4582610e1c565b9050919050565b610e5581610e3b565b82525050565b5f602082019050610e6e5f830184610e4c565b92915050565b610e7d81610e3b565b8114610e87575f80fd5b50565b5f81359050610e9881610e74565b92915050565b5f60208284031215610eb357610eb2610917565b5b5f610ec084828501610e8a565b91505092915050565b7f4e487b71000000000000000000000000000000000000000000000000000000005f52602260045260245ffd5b5f6002820490506001821680610f0d57607f821691505b602082108103610f2057610f1f610ec9565b5b50919050565b5f819050815f5260205f209050919050565b5f6020601f8301049050919050565b5f82821b905092915050565b5f60088302610f827fffffffffffffffffffffffffffffffffffffffffffffffffffffffffffffffff82610f47565b610f8c8683610f47565b95508019841693508086168417925050509392505050565b5f819050919050565b5f610fc7610fc2610fbd8461091f565b610fa4565b61091f565b9050919050565b5f819050919050565b610fe083610fad565b610ff4610fec82610fce565b848454610f53565b825550505050565b5f90565b611008610ffc565b611013818484610fd7565b505050565b5b818110156110365761102b5f82611000565b600181019050611019565b5050565b601f82111561107b5761104c81610f26565b61105584610f38565b81016020851015611064578190505b61107861107085610f38565b830182611018565b50505b505050565b5f82821c905092915050565b5f61109b5f1984600802611080565b1980831691505092915050565b5f6110b3838361108c565b9150826002028217905092915050565b6110cc826109f1565b67ffffffffffffffff8111156110e5576110e4610af0565b5b6110ef8254610ef6565b6110fa82828561103a565b5f60209050601f83116001811461112b575f8415611119578287015190505b61112385826110a8565b86555061118a565b601f19841661113986610f26565b5f5b828110156111605784890151825560018201915060208501945060208101905061113b565b8683101561117d5784890151611179601f89168261108c565b8355505b6001600288020188555050505b505050505050565b5f60a0820190508181035f8301526111aa8188610a29565b905081810360208301526111be8187610a29565b90506111cd6040830186610990565b6111da6060830185610990565b6111e76080830184610990565b9695505050505050565b7f4e487b71000000000000000000000000000000000000000000000000000000005f52601160045260245ffd5b5f6112288261091f565b91507fffffffffffffffffffffffffffffffffffffffffffffffffffffffffffffffff820361125a576112596111f1565b5b600182019050919050565b5f61126f8261091f565b915061127a8361091f565b92508282026112888161091f565b9150828204841483151761129f5761129e6111f1565b5b5092915050565b5f6112b08261091f565b91506112bb8361091f565b92508282039050818111156112d3576112d26111f1565b5b92915050565b7f4e487b71000000000000000000000000000000000000000000000000000000005f52601260045260245ffd5b5f6113108261091f565b915061131b8361091f565b92508261132b5761132a6112d9565b5b82820490509291505056fea26469706673582212201f0d00146afa3ebeb2ab8a04eb231fc052b9b9d1011e87f87cdd25d23067a07e64736f6c634300081a0033",
					"opcodes": "PUSH1 0x80 PUSH1 0x40 MSTORE PUSH1 0x1 PUSH1 0x3 SSTORE CALLVALUE DUP1 ISZERO PUSH2 0x14 JUMPI PUSH0 DUP1 REVERT JUMPDEST POP CALLER PUSH0 PUSH20 0xFFFFFFFFFFFFFFFFFFFFFFFFFFFFFFFFFFFFFFFF AND DUP2 PUSH20 0xFFFFFFFFFFFFFFFFFFFFFFFFFFFFFFFFFFFFFFFF AND SUB PUSH2 0x86 JUMPI PUSH0 PUSH1 0x40 MLOAD PUSH32 0x1E4FBDF700000000000000000000000000000000000000000000000000000000 DUP2 MSTORE PUSH1 0x4 ADD PUSH2 0x7D SWAP2 SWAP1 PUSH2 0x19B JUMP JUMPDEST PUSH1 0x40 MLOAD DUP1 SWAP2 SUB SWAP1 REVERT JUMPDEST PUSH2 0x95 DUP2 PUSH2 0x9B PUSH1 0x20 SHL PUSH1 0x20 SHR JUMP JUMPDEST POP PUSH2 0x1B4 JUMP JUMPDEST PUSH0 DUP1 PUSH0 SWAP1 SLOAD SWAP1 PUSH2 0x100 EXP SWAP1 DIV PUSH20 0xFFFFFFFFFFFFFFFFFFFFFFFFFFFFFFFFFFFFFFFF AND SWAP1 POP DUP2 PUSH0 DUP1 PUSH2 0x100 EXP DUP2 SLOAD DUP2 PUSH20 0xFFFFFFFFFFFFFFFFFFFFFFFFFFFFFFFFFFFFFFFF MUL NOT AND SWAP1 DUP4 PUSH20 0xFFFFFFFFFFFFFFFFFFFFFFFFFFFFFFFFFFFFFFFF AND MUL OR SWAP1 SSTORE POP DUP2 PUSH20 0xFFFFFFFFFFFFFFFFFFFFFFFFFFFFFFFFFFFFFFFF AND DUP2 PUSH20 0xFFFFFFFFFFFFFFFFFFFFFFFFFFFFFFFFFFFFFFFF AND PUSH32 0x8BE0079C531659141344CD1FD0A4F28419497F9722A3DAAFE3B4186F6B6457E0 PUSH1 0x40 MLOAD PUSH1 0x40 MLOAD DUP1 SWAP2 SUB SWAP1 LOG3 POP POP JUMP JUMPDEST PUSH0 PUSH20 0xFFFFFFFFFFFFFFFFFFFFFFFFFFFFFFFFFFFFFFFF DUP3 AND SWAP1 POP SWAP2 SWAP1 POP JUMP JUMPDEST PUSH0 PUSH2 0x185 DUP3 PUSH2 0x15C JUMP JUMPDEST SWAP1 POP SWAP2 SWAP1 POP JUMP JUMPDEST PUSH2 0x195 DUP2 PUSH2 0x17B JUMP JUMPDEST DUP3 MSTORE POP POP JUMP JUMPDEST PUSH0 PUSH1 0x20 DUP3 ADD SWAP1 POP PUSH2 0x1AE PUSH0 DUP4 ADD DUP5 PUSH2 0x18C JUMP JUMPDEST SWAP3 SWAP2 POP POP JUMP JUMPDEST PUSH2 0x136C DUP1 PUSH2 0x1C1 PUSH0 CODECOPY PUSH0 RETURN INVALID PUSH1 0x80 PUSH1 0x40 MSTORE CALLVALUE DUP1 ISZERO PUSH2 0xF JUMPI PUSH0 DUP1 REVERT JUMPDEST POP PUSH1 0x4 CALLDATASIZE LT PUSH2 0x91 JUMPI PUSH0 CALLDATALOAD PUSH1 0xE0 SHR DUP1 PUSH4 0x715018A6 GT PUSH2 0x64 JUMPI DUP1 PUSH4 0x715018A6 EQ PUSH2 0x133 JUMPI DUP1 PUSH4 0x846814B4 EQ PUSH2 0x13D JUMPI DUP1 PUSH4 0x8DA5CB5B EQ PUSH2 0x16D JUMPI DUP1 PUSH4 0x9B8C549A EQ PUSH2 0x18B JUMPI DUP1 PUSH4 0xF2FDE38B EQ PUSH2 0x1BB JUMPI PUSH2 0x91 JUMP JUMPDEST DUP1 PUSH4 0x32B2B934 EQ PUSH2 0x95 JUMPI DUP1 PUSH4 0x38206125 EQ PUSH2 0xC6 JUMPI DUP1 PUSH4 0x40F0A055 EQ PUSH2 0xE2 JUMPI DUP1 PUSH4 0x416E4F48 EQ PUSH2 0x117 JUMPI JUMPDEST PUSH0 DUP1 REVERT JUMPDEST PUSH2 0xAF PUSH1 0x4 DUP1 CALLDATASIZE SUB DUP2 ADD SWAP1 PUSH2 0xAA SWAP2 SWAP1 PUSH2 0x952 JUMP JUMPDEST PUSH2 0x1D7 JUMP JUMPDEST PUSH1 0x40 MLOAD PUSH2 0xBD SWAP3 SWAP2 SWAP1 PUSH2 0x99F JUMP JUMPDEST PUSH1 0x40 MLOAD DUP1 SWAP2 SUB SWAP1 RETURN JUMPDEST PUSH2 0xE0 PUSH1 0x4 DUP1 CALLDATASIZE SUB DUP2 ADD SWAP1 PUSH2 0xDB SWAP2 SWAP1 PUSH2 0x952 JUMP JUMPDEST PUSH2 0x227 JUMP JUMPDEST STOP JUMPDEST PUSH2 0xFC PUSH1 0x4 DUP1 CALLDATASIZE SUB DUP2 ADD SWAP1 PUSH2 0xF7 SWAP2 SWAP1 PUSH2 0x9C6 JUMP JUMPDEST PUSH2 0x24C JUMP JUMPDEST PUSH1 0x40 MLOAD PUSH2 0x10E SWAP7 SWAP6 SWAP5 SWAP4 SWAP3 SWAP2 SWAP1 PUSH2 0xA7B JUMP JUMPDEST PUSH1 0x40 MLOAD DUP1 SWAP2 SUB SWAP1 RETURN JUMPDEST PUSH2 0x131 PUSH1 0x4 DUP1 CALLDATASIZE SUB DUP2 ADD SWAP1 PUSH2 0x12C SWAP2 SWAP1 PUSH2 0x952 JUMP JUMPDEST PUSH2 0x3B8 JUMP JUMPDEST STOP JUMPDEST PUSH2 0x13B PUSH2 0x3FD JUMP JUMPDEST STOP JUMPDEST PUSH2 0x157 PUSH1 0x4 DUP1 CALLDATASIZE SUB DUP2 ADD SWAP1 PUSH2 0x152 SWAP2 SWAP1 PUSH2 0xCF6 JUMP JUMPDEST PUSH2 0x410 JUMP JUMPDEST PUSH1 0x40 MLOAD PUSH2 0x164 SWAP2 SWAP1 PUSH2 0xE03 JUMP JUMPDEST PUSH1 0x40 MLOAD DUP1 SWAP2 SUB SWAP1 RETURN JUMPDEST PUSH2 0x175 PUSH2 0x5B8 JUMP JUMPDEST PUSH1 0x40 MLOAD PUSH2 0x182 SWAP2 SWAP1 PUSH2 0xE5B JUMP JUMPDEST PUSH1 0x40 MLOAD DUP1 SWAP2 SUB SWAP1 RETURN JUMPDEST PUSH2 0x1A5 PUSH1 0x4 DUP1 CALLDATASIZE SUB DUP2 ADD SWAP1 PUSH2 0x1A0 SWAP2 SWAP1 PUSH2 0x952 JUMP JUMPDEST PUSH2 0x5DF JUMP JUMPDEST PUSH1 0x40 MLOAD PUSH2 0x1B2 SWAP2 SWAP1 PUSH2 0xE03 JUMP JUMPDEST PUSH1 0x40 MLOAD DUP1 SWAP2 SUB SWAP1 RETURN JUMPDEST PUSH2 0x1D5 PUSH1 0x4 DUP1 CALLDATASIZE SUB DUP2 ADD SWAP1 PUSH2 0x1D0 SWAP2 SWAP1 PUSH2 0xE9E JUMP JUMPDEST PUSH2 0x62A JUMP JUMPDEST STOP JUMPDEST PUSH0 DUP1 PUSH0 PUSH1 0x1 PUSH0 DUP7 DUP2 MSTORE PUSH1 0x20 ADD SWAP1 DUP2 MSTORE PUSH1 0x20 ADD PUSH0 KECCAK256 SWAP1 POP PUSH0 PUSH2 0x205 DUP3 PUSH1 0x5 ADD SLOAD DUP7 PUSH2 0x6AE SWAP1 SWAP2 SWAP1 PUSH4 0xFFFFFFFF AND JUMP JUMPDEST SWAP1 POP DUP1 PUSH1 0x2 PUSH0 DUP9 DUP2 MSTORE PUSH1 0x20 ADD SWAP1 DUP2 MSTORE PUSH1 0x20 ADD PUSH0 KECCAK256 SLOAD SWAP4 POP SWAP4 POP POP POP SWAP3 POP SWAP3 SWAP1 POP JUMP JUMPDEST PUSH2 0x22F PUSH2 0x6C3 JUMP JUMPDEST DUP1 PUSH1 0x1 PUSH0 DUP5 DUP2 MSTORE PUSH1 0x20 ADD SWAP1 DUP2 MSTORE PUSH1 0x20 ADD PUSH0 KECCAK256 PUSH1 0x7 ADD DUP2 SWAP1 SSTORE POP POP POP JUMP JUMPDEST PUSH1 0x60 DUP1 PUSH0 DUP1 PUSH0 DUP1 PUSH0 PUSH1 0x1 PUSH0 DUP10 DUP2 MSTORE PUSH1 0x20 ADD SWAP1 DUP2 MSTORE PUSH1 0x20 ADD PUSH0 KECCAK256 SWAP1 POP DUP1 PUSH0 ADD DUP2 PUSH1 0x1 ADD DUP3 PUSH1 0x4 ADD SLOAD DUP4 PUSH1 0x5 ADD SLOAD DUP5 PUSH1 0x9 ADD PUSH0 SWAP1 SLOAD SWAP1 PUSH2 0x100 EXP SWAP1 DIV PUSH1 0xFF AND DUP6 PUSH1 0xA ADD SLOAD DUP6 DUP1 SLOAD PUSH2 0x29A SWAP1 PUSH2 0xEF6 JUMP JUMPDEST DUP1 PUSH1 0x1F ADD PUSH1 0x20 DUP1 SWAP2 DIV MUL PUSH1 0x20 ADD PUSH1 0x40 MLOAD SWAP1 DUP2 ADD PUSH1 0x40 MSTORE DUP1 SWAP3 SWAP2 SWAP1 DUP2 DUP2 MSTORE PUSH1 0x20 ADD DUP3 DUP1 SLOAD PUSH2 0x2C6 SWAP1 PUSH2 0xEF6 JUMP JUMPDEST DUP1 ISZERO PUSH2 0x311 JUMPI DUP1 PUSH1 0x1F LT PUSH2 0x2E8 JUMPI PUSH2 0x100 DUP1 DUP4 SLOAD DIV MUL DUP4 MSTORE SWAP2 PUSH1 0x20 ADD SWAP2 PUSH2 0x311 JUMP JUMPDEST DUP3 ADD SWAP2 SWAP1 PUSH0 MSTORE PUSH1 0x20 PUSH0 KECCAK256 SWAP1 JUMPDEST DUP2 SLOAD DUP2 MSTORE SWAP1 PUSH1 0x1 ADD SWAP1 PUSH1 0x20 ADD DUP1 DUP4 GT PUSH2 0x2F4 JUMPI DUP3 SWAP1 SUB PUSH1 0x1F AND DUP3 ADD SWAP2 JUMPDEST POP POP POP POP POP SWAP6 POP DUP5 DUP1 SLOAD PUSH2 0x324 SWAP1 PUSH2 0xEF6 JUMP JUMPDEST DUP1 PUSH1 0x1F ADD PUSH1 0x20 DUP1 SWAP2 DIV MUL PUSH1 0x20 ADD PUSH1 0x40 MLOAD SWAP1 DUP2 ADD PUSH1 0x40 MSTORE DUP1 SWAP3 SWAP2 SWAP1 DUP2 DUP2 MSTORE PUSH1 0x20 ADD DUP3 DUP1 SLOAD PUSH2 0x350 SWAP1 PUSH2 0xEF6 JUMP JUMPDEST DUP1 ISZERO PUSH2 0x39B JUMPI DUP1 PUSH1 0x1F LT PUSH2 0x372 JUMPI PUSH2 0x100 DUP1 DUP4 SLOAD DIV MUL DUP4 MSTORE SWAP2 PUSH1 0x20 ADD SWAP2 PUSH2 0x39B JUMP JUMPDEST DUP3 ADD SWAP2 SWAP1 PUSH0 MSTORE PUSH1 0x20 PUSH0 KECCAK256 SWAP1 JUMPDEST DUP2 SLOAD DUP2 MSTORE SWAP1 PUSH1 0x1 ADD SWAP1 PUSH1 0x20 ADD DUP1 DUP4 GT PUSH2 0x37E JUMPI DUP3 SWAP1 SUB PUSH1 0x1F AND DUP3 ADD SWAP2 JUMPDEST POP POP POP POP POP SWAP5 POP SWAP7 POP SWAP7 POP SWAP7 POP SWAP7 POP SWAP7 POP SWAP7 POP POP SWAP2 SWAP4 SWAP6 POP SWAP2 SWAP4 SWAP6 JUMP JUMPDEST PUSH2 0x3C0 PUSH2 0x6C3 JUMP JUMPDEST PUSH2 0x3E4 DUP2 PUSH1 0x2 PUSH0 DUP6 DUP2 MSTORE PUSH1 0x20 ADD SWAP1 DUP2 MSTORE PUSH1 0x20 ADD PUSH0 KECCAK256 SLOAD PUSH2 0x74A SWAP1 SWAP2 SWAP1 PUSH4 0xFFFFFFFF AND JUMP JUMPDEST PUSH1 0x2 PUSH0 DUP5 DUP2 MSTORE PUSH1 0x20 ADD SWAP1 DUP2 MSTORE PUSH1 0x20 ADD PUSH0 KECCAK256 DUP2 SWAP1 SSTORE POP POP POP JUMP JUMPDEST PUSH2 0x405 PUSH2 0x6C3 JUMP JUMPDEST PUSH2 0x40E PUSH0 PUSH2 0x75F JUMP JUMPDEST JUMP JUMPDEST PUSH0 PUSH2 0x419 PUSH2 0x6C3 JUMP JUMPDEST PUSH0 PUSH1 0x3 SLOAD SWAP1 POP PUSH1 0x40 MLOAD DUP1 PUSH2 0x160 ADD PUSH1 0x40 MSTORE DUP1 DUP11 DUP2 MSTORE PUSH1 0x20 ADD DUP10 DUP2 MSTORE PUSH1 0x20 ADD DUP9 DUP2 MSTORE PUSH1 0x20 ADD DUP8 DUP2 MSTORE PUSH1 0x20 ADD DUP7 DUP2 MSTORE PUSH1 0x20 ADD DUP6 DUP2 MSTORE PUSH1 0x20 ADD DUP5 DUP2 MSTORE PUSH1 0x20 ADD DUP5 DUP2 MSTORE PUSH1 0x20 ADD TIMESTAMP DUP2 MSTORE PUSH1 0x20 ADD PUSH0 ISZERO ISZERO DUP2 MSTORE PUSH1 0x20 ADD PUSH0 DUP2 MSTORE POP PUSH1 0x1 PUSH0 DUP4 DUP2 MSTORE PUSH1 0x20 ADD SWAP1 DUP2 MSTORE PUSH1 0x20 ADD PUSH0 KECCAK256 PUSH0 DUP3 ADD MLOAD DUP2 PUSH0 ADD SWAP1 DUP2 PUSH2 0x491 SWAP2 SWAP1 PUSH2 0x10C3 JUMP JUMPDEST POP PUSH1 0x20 DUP3 ADD MLOAD DUP2 PUSH1 0x1 ADD SWAP1 DUP2 PUSH2 0x4A7 SWAP2 SWAP1 PUSH2 0x10C3 JUMP JUMPDEST POP PUSH1 0x40 DUP3 ADD MLOAD DUP2 PUSH1 0x2 ADD SWAP1 DUP2 PUSH2 0x4BD SWAP2 SWAP1 PUSH2 0x10C3 JUMP JUMPDEST POP PUSH1 0x60 DUP3 ADD MLOAD DUP2 PUSH1 0x3 ADD SWAP1 DUP1 MLOAD SWAP1 PUSH1 0x20 ADD SWAP1 PUSH2 0x4DA SWAP3 SWAP2 SWAP1 PUSH2 0x83C JUMP JUMPDEST POP PUSH1 0x80 DUP3 ADD MLOAD DUP2 PUSH1 0x4 ADD SSTORE PUSH1 0xA0 DUP3 ADD MLOAD DUP2 PUSH1 0x5 ADD SSTORE PUSH1 0xC0 DUP3 ADD MLOAD DUP2 PUSH1 0x6 ADD SSTORE PUSH1 0xE0 DUP3 ADD MLOAD DUP2 PUSH1 0x7 ADD SSTORE PUSH2 0x100 DUP3 ADD MLOAD DUP2 PUSH1 0x8 ADD SSTORE PUSH2 0x120 DUP3 ADD MLOAD DUP2 PUSH1 0x9 ADD PUSH0 PUSH2 0x100 EXP DUP2 SLOAD DUP2 PUSH1 0xFF MUL NOT AND SWAP1 DUP4 ISZERO ISZERO MUL OR SWAP1 SSTORE POP PUSH2 0x140 DUP3 ADD MLOAD DUP2 PUSH1 0xA ADD SSTORE SWAP1 POP POP DUP5 PUSH1 0x2 PUSH0 DUP4 DUP2 MSTORE PUSH1 0x20 ADD SWAP1 DUP2 MSTORE PUSH1 0x20 ADD PUSH0 KECCAK256 DUP2 SWAP1 SSTORE POP DUP1 PUSH32 0xF995299D6B78BAB4559102318B5C60FB5ADA990CF028F135A648875091233A9B DUP11 DUP11 DUP9 DUP9 DUP9 PUSH1 0x40 MLOAD PUSH2 0x58A SWAP6 SWAP5 SWAP4 SWAP3 SWAP2 SWAP1 PUSH2 0x1192 JUMP JUMPDEST PUSH1 0x40 MLOAD DUP1 SWAP2 SUB SWAP1 LOG2 PUSH1 0x3 PUSH0 DUP2 SLOAD DUP1 SWAP3 SWAP2 SWAP1 PUSH2 0x5A4 SWAP1 PUSH2 0x121E JUMP JUMPDEST SWAP2 SWAP1 POP SSTORE POP DUP1 SWAP2 POP POP SWAP8 SWAP7 POP POP POP POP POP POP POP JUMP JUMPDEST PUSH0 DUP1 PUSH0 SWAP1 SLOAD SWAP1 PUSH2 0x100 EXP SWAP1 DIV PUSH20 0xFFFFFFFFFFFFFFFFFFFFFFFFFFFFFFFFFFFFFFFF AND SWAP1 POP SWAP1 JUMP JUMPDEST PUSH0 DUP1 PUSH1 0x1 PUSH0 DUP6 DUP2 MSTORE PUSH1 0x20 ADD SWAP1 DUP2 MSTORE PUSH1 0x20 ADD PUSH0 KECCAK256 SWAP1 POP PUSH2 0x621 DUP2 PUSH1 0x4 ADD SLOAD PUSH2 0x613 DUP4 PUSH1 0x7 ADD SLOAD DUP7 PUSH2 0x6AE SWAP1 SWAP2 SWAP1 PUSH4 0xFFFFFFFF AND JUMP JUMPDEST PUSH2 0x820 SWAP1 SWAP2 SWAP1 PUSH4 0xFFFFFFFF AND JUMP JUMPDEST SWAP2 POP POP SWAP3 SWAP2 POP POP JUMP JUMPDEST PUSH2 0x632 PUSH2 0x6C3 JUMP JUMPDEST PUSH0 PUSH20 0xFFFFFFFFFFFFFFFFFFFFFFFFFFFFFFFFFFFFFFFF AND DUP2 PUSH20 0xFFFFFFFFFFFFFFFFFFFFFFFFFFFFFFFFFFFFFFFF AND SUB PUSH2 0x6A2 JUMPI PUSH0 PUSH1 0x40 MLOAD PUSH32 0x1E4FBDF700000000000000000000000000000000000000000000000000000000 DUP2 MSTORE PUSH1 0x4 ADD PUSH2 0x699 SWAP2 SWAP1 PUSH2 0xE5B JUMP JUMPDEST PUSH1 0x40 MLOAD DUP1 SWAP2 SUB SWAP1 REVERT JUMPDEST PUSH2 0x6AB DUP2 PUSH2 0x75F JUMP JUMPDEST POP JUMP JUMPDEST PUSH0 DUP2 DUP4 PUSH2 0x6BB SWAP2 SWAP1 PUSH2 0x1265 JUMP JUMPDEST SWAP1 POP SWAP3 SWAP2 POP POP JUMP JUMPDEST PUSH2 0x6CB PUSH2 0x835 JUMP JUMPDEST PUSH20 0xFFFFFFFFFFFFFFFFFFFFFFFFFFFFFFFFFFFFFFFF AND PUSH2 0x6E9 PUSH2 0x5B8 JUMP JUMPDEST PUSH20 0xFFFFFFFFFFFFFFFFFFFFFFFFFFFFFFFFFFFFFFFF AND EQ PUSH2 0x748 JUMPI PUSH2 0x70C PUSH2 0x835 JUMP JUMPDEST PUSH1 0x40 MLOAD PUSH32 0x118CDAA700000000000000000000000000000000000000000000000000000000 DUP2 MSTORE PUSH1 0x4 ADD PUSH2 0x73F SWAP2 SWAP1 PUSH2 0xE5B JUMP JUMPDEST PUSH1 0x40 MLOAD DUP1 SWAP2 SUB SWAP1 REVERT JUMPDEST JUMP JUMPDEST PUSH0 DUP2 DUP4 PUSH2 0x757 SWAP2 SWAP1 PUSH2 0x12A6 JUMP JUMPDEST SWAP1 POP SWAP3 SWAP2 POP POP JUMP JUMPDEST PUSH0 DUP1 PUSH0 SWAP1 SLOAD SWAP1 PUSH2 0x100 EXP SWAP1 DIV PUSH20 0xFFFFFFFFFFFFFFFFFFFFFFFFFFFFFFFFFFFFFFFF AND SWAP1 POP DUP2 PUSH0 DUP1 PUSH2 0x100 EXP DUP2 SLOAD DUP2 PUSH20 0xFFFFFFFFFFFFFFFFFFFFFFFFFFFFFFFFFFFFFFFF MUL NOT AND SWAP1 DUP4 PUSH20 0xFFFFFFFFFFFFFFFFFFFFFFFFFFFFFFFFFFFFFFFF AND MUL OR SWAP1 SSTORE POP DUP2 PUSH20 0xFFFFFFFFFFFFFFFFFFFFFFFFFFFFFFFFFFFFFFFF AND DUP2 PUSH20 0xFFFFFFFFFFFFFFFFFFFFFFFFFFFFFFFFFFFFFFFF AND PUSH32 0x8BE0079C531659141344CD1FD0A4F28419497F9722A3DAAFE3B4186F6B6457E0 PUSH1 0x40 MLOAD PUSH1 0x40 MLOAD DUP1 SWAP2 SUB SWAP1 LOG3 POP POP JUMP JUMPDEST PUSH0 DUP2 DUP4 PUSH2 0x82D SWAP2 SWAP1 PUSH2 0x1306 JUMP JUMPDEST SWAP1 POP SWAP3 SWAP2 POP POP JUMP JUMPDEST PUSH0 CALLER SWAP1 POP SWAP1 JUMP JUMPDEST DUP3 DUP1 SLOAD DUP3 DUP3 SSTORE SWAP1 PUSH0 MSTORE PUSH1 0x20 PUSH0 KECCAK256 SWAP1 DUP2 ADD SWAP3 DUP3 ISZERO PUSH2 0x882 JUMPI SWAP2 PUSH1 0x20 MUL DUP3 ADD JUMPDEST DUP3 DUP2 GT ISZERO PUSH2 0x881 JUMPI DUP3 MLOAD DUP3 SWAP1 DUP2 PUSH2 0x871 SWAP2 SWAP1 PUSH2 0x10C3 JUMP JUMPDEST POP SWAP2 PUSH1 0x20 ADD SWAP2 SWAP1 PUSH1 0x1 ADD SWAP1 PUSH2 0x85A JUMP JUMPDEST JUMPDEST POP SWAP1 POP PUSH2 0x88F SWAP2 SWAP1 PUSH2 0x893 JUMP JUMPDEST POP SWAP1 JUMP JUMPDEST JUMPDEST DUP1 DUP3 GT ISZERO PUSH2 0x8B2 JUMPI PUSH0 DUP2 DUP2 PUSH2 0x8A9 SWAP2 SWAP1 PUSH2 0x8B6 JUMP JUMPDEST POP PUSH1 0x1 ADD PUSH2 0x894 JUMP JUMPDEST POP SWAP1 JUMP JUMPDEST POP DUP1 SLOAD PUSH2 0x8C2 SWAP1 PUSH2 0xEF6 JUMP JUMPDEST PUSH0 DUP3 SSTORE DUP1 PUSH1 0x1F LT PUSH2 0x8D3 JUMPI POP PUSH2 0x8F0 JUMP JUMPDEST PUSH1 0x1F ADD PUSH1 0x20 SWAP1 DIV SWAP1 PUSH0 MSTORE PUSH1 0x20 PUSH0 KECCAK256 SWAP1 DUP2 ADD SWAP1 PUSH2 0x8EF SWAP2 SWAP1 PUSH2 0x8F3 JUMP JUMPDEST JUMPDEST POP JUMP JUMPDEST JUMPDEST DUP1 DUP3 GT ISZERO PUSH2 0x90A JUMPI PUSH0 DUP2 PUSH0 SWAP1 SSTORE POP PUSH1 0x1 ADD PUSH2 0x8F4 JUMP JUMPDEST POP SWAP1 JUMP JUMPDEST PUSH0 PUSH1 0x40 MLOAD SWAP1 POP SWAP1 JUMP JUMPDEST PUSH0 DUP1 REVERT JUMPDEST PUSH0 DUP1 REVERT JUMPDEST PUSH0 DUP2 SWAP1 POP SWAP2 SWAP1 POP JUMP JUMPDEST PUSH2 0x931 DUP2 PUSH2 0x91F JUMP JUMPDEST DUP2 EQ PUSH2 0x93B JUMPI PUSH0 DUP1 REVERT JUMPDEST POP JUMP JUMPDEST PUSH0 DUP2 CALLDATALOAD SWAP1 POP PUSH2 0x94C DUP2 PUSH2 0x928 JUMP JUMPDEST SWAP3 SWAP2 POP POP JUMP JUMPDEST PUSH0 DUP1 PUSH1 0x40 DUP4 DUP6 SUB SLT ISZERO PUSH2 0x968 JUMPI PUSH2 0x967 PUSH2 0x917 JUMP JUMPDEST JUMPDEST PUSH0 PUSH2 0x975 DUP6 DUP3 DUP7 ADD PUSH2 0x93E JUMP JUMPDEST SWAP3 POP POP PUSH1 0x20 PUSH2 0x986 DUP6 DUP3 DUP7 ADD PUSH2 0x93E JUMP JUMPDEST SWAP2 POP POP SWAP3 POP SWAP3 SWAP1 POP JUMP JUMPDEST PUSH2 0x999 DUP2 PUSH2 0x91F JUMP JUMPDEST DUP3 MSTORE POP POP JUMP JUMPDEST PUSH0 PUSH1 0x40 DUP3 ADD SWAP1 POP PUSH2 0x9B2 PUSH0 DUP4 ADD DUP6 PUSH2 0x990 JUMP JUMPDEST PUSH2 0x9BF PUSH1 0x20 DUP4 ADD DUP5 PUSH2 0x990 JUMP JUMPDEST SWAP4 SWAP3 POP POP POP JUMP JUMPDEST PUSH0 PUSH1 0x20 DUP3 DUP5 SUB SLT ISZERO PUSH2 0x9DB JUMPI PUSH2 0x9DA PUSH2 0x917 JUMP JUMPDEST JUMPDEST PUSH0 PUSH2 0x9E8 DUP5 DUP3 DUP6 ADD PUSH2 0x93E JUMP JUMPDEST SWAP2 POP POP SWAP3 SWAP2 POP POP JUMP JUMPDEST PUSH0 DUP2 MLOAD SWAP1 POP SWAP2 SWAP1 POP JUMP JUMPDEST PUSH0 DUP3 DUP3 MSTORE PUSH1 0x20 DUP3 ADD SWAP1 POP SWAP3 SWAP2 POP POP JUMP JUMPDEST DUP3 DUP2 DUP4 MCOPY PUSH0 DUP4 DUP4 ADD MSTORE POP POP POP JUMP JUMPDEST PUSH0 PUSH1 0x1F NOT PUSH1 0x1F DUP4 ADD AND SWAP1 POP SWAP2 SWAP1 POP JUMP JUMPDEST PUSH0 PUSH2 0xA33 DUP3 PUSH2 0x9F1 JUMP JUMPDEST PUSH2 0xA3D DUP2 DUP6 PUSH2 0x9FB JUMP JUMPDEST SWAP4 POP PUSH2 0xA4D DUP2 DUP6 PUSH1 0x20 DUP7 ADD PUSH2 0xA0B JUMP JUMPDEST PUSH2 0xA56 DUP2 PUSH2 0xA19 JUMP JUMPDEST DUP5 ADD SWAP2 POP POP SWAP3 SWAP2 POP POP JUMP JUMPDEST PUSH0 DUP2 ISZERO ISZERO SWAP1 POP SWAP2 SWAP1 POP JUMP JUMPDEST PUSH2 0xA75 DUP2 PUSH2 0xA61 JUMP JUMPDEST DUP3 MSTORE POP POP JUMP JUMPDEST PUSH0 PUSH1 0xC0 DUP3 ADD SWAP1 POP DUP2 DUP2 SUB PUSH0 DUP4 ADD MSTORE PUSH2 0xA93 DUP2 DUP10 PUSH2 0xA29 JUMP JUMPDEST SWAP1 POP DUP2 DUP2 SUB PUSH1 0x20 DUP4 ADD MSTORE PUSH2 0xAA7 DUP2 DUP9 PUSH2 0xA29 JUMP JUMPDEST SWAP1 POP PUSH2 0xAB6 PUSH1 0x40 DUP4 ADD DUP8 PUSH2 0x990 JUMP JUMPDEST PUSH2 0xAC3 PUSH1 0x60 DUP4 ADD DUP7 PUSH2 0x990 JUMP JUMPDEST PUSH2 0xAD0 PUSH1 0x80 DUP4 ADD DUP6 PUSH2 0xA6C JUMP JUMPDEST PUSH2 0xADD PUSH1 0xA0 DUP4 ADD DUP5 PUSH2 0x990 JUMP JUMPDEST SWAP8 SWAP7 POP POP POP POP POP POP POP JUMP JUMPDEST PUSH0 DUP1 REVERT JUMPDEST PUSH0 DUP1 REVERT JUMPDEST PUSH32 0x4E487B7100000000000000000000000000000000000000000000000000000000 PUSH0 MSTORE PUSH1 0x41 PUSH1 0x4 MSTORE PUSH1 0x24 PUSH0 REVERT JUMPDEST PUSH2 0xB26 DUP3 PUSH2 0xA19 JUMP JUMPDEST DUP2 ADD DUP2 DUP2 LT PUSH8 0xFFFFFFFFFFFFFFFF DUP3 GT OR ISZERO PUSH2 0xB45 JUMPI PUSH2 0xB44 PUSH2 0xAF0 JUMP JUMPDEST JUMPDEST DUP1 PUSH1 0x40 MSTORE POP POP POP JUMP JUMPDEST PUSH0 PUSH2 0xB57 PUSH2 0x90E JUMP JUMPDEST SWAP1 POP PUSH2 0xB63 DUP3 DUP3 PUSH2 0xB1D JUMP JUMPDEST SWAP2 SWAP1 POP JUMP JUMPDEST PUSH0 PUSH8 0xFFFFFFFFFFFFFFFF DUP3 GT ISZERO PUSH2 0xB82 JUMPI PUSH2 0xB81 PUSH2 0xAF0 JUMP JUMPDEST JUMPDEST PUSH2 0xB8B DUP3 PUSH2 0xA19 JUMP JUMPDEST SWAP1 POP PUSH1 0x20 DUP2 ADD SWAP1 POP SWAP2 SWAP1 POP JUMP JUMPDEST DUP3 DUP2 DUP4 CALLDATACOPY PUSH0 DUP4 DUP4 ADD MSTORE POP POP POP JUMP JUMPDEST PUSH0 PUSH2 0xBB8 PUSH2 0xBB3 DUP5 PUSH2 0xB68 JUMP JUMPDEST PUSH2 0xB4E JUMP JUMPDEST SWAP1 POP DUP3 DUP2 MSTORE PUSH1 0x20 DUP2 ADD DUP5 DUP5 DUP5 ADD GT ISZERO PUSH2 0xBD4 JUMPI PUSH2 0xBD3 PUSH2 0xAEC JUMP JUMPDEST JUMPDEST PUSH2 0xBDF DUP5 DUP3 DUP6 PUSH2 0xB98 JUMP JUMPDEST POP SWAP4 SWAP3 POP POP POP JUMP JUMPDEST PUSH0 DUP3 PUSH1 0x1F DUP4 ADD SLT PUSH2 0xBFB JUMPI PUSH2 0xBFA PUSH2 0xAE8 JUMP JUMPDEST JUMPDEST DUP2 CALLDATALOAD PUSH2 0xC0B DUP5 DUP3 PUSH1 0x20 DUP7 ADD PUSH2 0xBA6 JUMP JUMPDEST SWAP2 POP POP SWAP3 SWAP2 POP POP JUMP JUMPDEST PUSH0 PUSH8 0xFFFFFFFFFFFFFFFF DUP3 GT ISZERO PUSH2 0xC2E JUMPI PUSH2 0xC2D PUSH2 0xAF0 JUMP JUMPDEST JUMPDEST PUSH1 0x20 DUP3 MUL SWAP1 POP PUSH1 0x20 DUP2 ADD SWAP1 POP SWAP2 SWAP1 POP JUMP JUMPDEST PUSH0 DUP1 REVERT JUMPDEST PUSH0 PUSH2 0xC55 PUSH2 0xC50 DUP5 PUSH2 0xC14 JUMP JUMPDEST PUSH2 0xB4E JUMP JUMPDEST SWAP1 POP DUP1 DUP4 DUP3 MSTORE PUSH1 0x20 DUP3 ADD SWAP1 POP PUSH1 0x20 DUP5 MUL DUP4 ADD DUP6 DUP2 GT ISZERO PUSH2 0xC78 JUMPI PUSH2 0xC77 PUSH2 0xC3F JUMP JUMPDEST JUMPDEST DUP4 JUMPDEST DUP2 DUP2 LT ISZERO PUSH2 0xCBF JUMPI DUP1 CALLDATALOAD PUSH8 0xFFFFFFFFFFFFFFFF DUP2 GT ISZERO PUSH2 0xC9D JUMPI PUSH2 0xC9C PUSH2 0xAE8 JUMP JUMPDEST JUMPDEST DUP1 DUP7 ADD PUSH2 0xCAA DUP10 DUP3 PUSH2 0xBE7 JUMP JUMPDEST DUP6 MSTORE PUSH1 0x20 DUP6 ADD SWAP5 POP POP POP PUSH1 0x20 DUP2 ADD SWAP1 POP PUSH2 0xC7A JUMP JUMPDEST POP POP POP SWAP4 SWAP3 POP POP POP JUMP JUMPDEST PUSH0 DUP3 PUSH1 0x1F DUP4 ADD SLT PUSH2 0xCDD JUMPI PUSH2 0xCDC PUSH2 0xAE8 JUMP JUMPDEST JUMPDEST DUP2 CALLDATALOAD PUSH2 0xCED DUP5 DUP3 PUSH1 0x20 DUP7 ADD PUSH2 0xC43 JUMP JUMPDEST SWAP2 POP POP SWAP3 SWAP2 POP POP JUMP JUMPDEST PUSH0 DUP1 PUSH0 DUP1 PUSH0 DUP1 PUSH0 PUSH1 0xE0 DUP9 DUP11 SUB SLT ISZERO PUSH2 0xD11 JUMPI PUSH2 0xD10 PUSH2 0x917 JUMP JUMPDEST JUMPDEST PUSH0 DUP9 ADD CALLDATALOAD PUSH8 0xFFFFFFFFFFFFFFFF DUP2 GT ISZERO PUSH2 0xD2E JUMPI PUSH2 0xD2D PUSH2 0x91B JUMP JUMPDEST JUMPDEST PUSH2 0xD3A DUP11 DUP3 DUP12 ADD PUSH2 0xBE7 JUMP JUMPDEST SWAP8 POP POP PUSH1 0x20 DUP9 ADD CALLDATALOAD PUSH8 0xFFFFFFFFFFFFFFFF DUP2 GT ISZERO PUSH2 0xD5B JUMPI PUSH2 0xD5A PUSH2 0x91B JUMP JUMPDEST JUMPDEST PUSH2 0xD67 DUP11 DUP3 DUP12 ADD PUSH2 0xBE7 JUMP JUMPDEST SWAP7 POP POP PUSH1 0x40 DUP9 ADD CALLDATALOAD PUSH8 0xFFFFFFFFFFFFFFFF DUP2 GT ISZERO PUSH2 0xD88 JUMPI PUSH2 0xD87 PUSH2 0x91B JUMP JUMPDEST JUMPDEST PUSH2 0xD94 DUP11 DUP3 DUP12 ADD PUSH2 0xBE7 JUMP JUMPDEST SWAP6 POP POP PUSH1 0x60 DUP9 ADD CALLDATALOAD PUSH8 0xFFFFFFFFFFFFFFFF DUP2 GT ISZERO PUSH2 0xDB5 JUMPI PUSH2 0xDB4 PUSH2 0x91B JUMP JUMPDEST JUMPDEST PUSH2 0xDC1 DUP11 DUP3 DUP12 ADD PUSH2 0xCC9 JUMP JUMPDEST SWAP5 POP POP PUSH1 0x80 PUSH2 0xDD2 DUP11 DUP3 DUP12 ADD PUSH2 0x93E JUMP JUMPDEST SWAP4 POP POP PUSH1 0xA0 PUSH2 0xDE3 DUP11 DUP3 DUP12 ADD PUSH2 0x93E JUMP JUMPDEST SWAP3 POP POP PUSH1 0xC0 PUSH2 0xDF4 DUP11 DUP3 DUP12 ADD PUSH2 0x93E JUMP JUMPDEST SWAP2 POP POP SWAP3 SWAP6 SWAP9 SWAP2 SWAP5 SWAP8 POP SWAP3 SWAP6 POP JUMP JUMPDEST PUSH0 PUSH1 0x20 DUP3 ADD SWAP1 POP PUSH2 0xE16 PUSH0 DUP4 ADD DUP5 PUSH2 0x990 JUMP JUMPDEST SWAP3 SWAP2 POP POP JUMP JUMPDEST PUSH0 PUSH20 0xFFFFFFFFFFFFFFFFFFFFFFFFFFFFFFFFFFFFFFFF DUP3 AND SWAP1 POP SWAP2 SWAP1 POP JUMP JUMPDEST PUSH0 PUSH2 0xE45 DUP3 PUSH2 0xE1C JUMP JUMPDEST SWAP1 POP SWAP2 SWAP1 POP JUMP JUMPDEST PUSH2 0xE55 DUP2 PUSH2 0xE3B JUMP JUMPDEST DUP3 MSTORE POP POP JUMP JUMPDEST PUSH0 PUSH1 0x20 DUP3 ADD SWAP1 POP PUSH2 0xE6E PUSH0 DUP4 ADD DUP5 PUSH2 0xE4C JUMP JUMPDEST SWAP3 SWAP2 POP POP JUMP JUMPDEST PUSH2 0xE7D DUP2 PUSH2 0xE3B JUMP JUMPDEST DUP2 EQ PUSH2 0xE87 JUMPI PUSH0 DUP1 REVERT JUMPDEST POP JUMP JUMPDEST PUSH0 DUP2 CALLDATALOAD SWAP1 POP PUSH2 0xE98 DUP2 PUSH2 0xE74 JUMP JUMPDEST SWAP3 SWAP2 POP POP JUMP JUMPDEST PUSH0 PUSH1 0x20 DUP3 DUP5 SUB SLT ISZERO PUSH2 0xEB3 JUMPI PUSH2 0xEB2 PUSH2 0x917 JUMP JUMPDEST JUMPDEST PUSH0 PUSH2 0xEC0 DUP5 DUP3 DUP6 ADD PUSH2 0xE8A JUMP JUMPDEST SWAP2 POP POP SWAP3 SWAP2 POP POP JUMP JUMPDEST PUSH32 0x4E487B7100000000000000000000000000000000000000000000000000000000 PUSH0 MSTORE PUSH1 0x22 PUSH1 0x4 MSTORE PUSH1 0x24 PUSH0 REVERT JUMPDEST PUSH0 PUSH1 0x2 DUP3 DIV SWAP1 POP PUSH1 0x1 DUP3 AND DUP1 PUSH2 0xF0D JUMPI PUSH1 0x7F DUP3 AND SWAP2 POP JUMPDEST PUSH1 0x20 DUP3 LT DUP2 SUB PUSH2 0xF20 JUMPI PUSH2 0xF1F PUSH2 0xEC9 JUMP JUMPDEST JUMPDEST POP SWAP2 SWAP1 POP JUMP JUMPDEST PUSH0 DUP2 SWAP1 POP DUP2 PUSH0 MSTORE PUSH1 0x20 PUSH0 KECCAK256 SWAP1 POP SWAP2 SWAP1 POP JUMP JUMPDEST PUSH0 PUSH1 0x20 PUSH1 0x1F DUP4 ADD DIV SWAP1 POP SWAP2 SWAP1 POP JUMP JUMPDEST PUSH0 DUP3 DUP3 SHL SWAP1 POP SWAP3 SWAP2 POP POP JUMP JUMPDEST PUSH0 PUSH1 0x8 DUP4 MUL PUSH2 0xF82 PUSH32 0xFFFFFFFFFFFFFFFFFFFFFFFFFFFFFFFFFFFFFFFFFFFFFFFFFFFFFFFFFFFFFFFF DUP3 PUSH2 0xF47 JUMP JUMPDEST PUSH2 0xF8C DUP7 DUP4 PUSH2 0xF47 JUMP JUMPDEST SWAP6 POP DUP1 NOT DUP5 AND SWAP4 POP DUP1 DUP7 AND DUP5 OR SWAP3 POP POP POP SWAP4 SWAP3 POP POP POP JUMP JUMPDEST PUSH0 DUP2 SWAP1 POP SWAP2 SWAP1 POP JUMP JUMPDEST PUSH0 PUSH2 0xFC7 PUSH2 0xFC2 PUSH2 0xFBD DUP5 PUSH2 0x91F JUMP JUMPDEST PUSH2 0xFA4 JUMP JUMPDEST PUSH2 0x91F JUMP JUMPDEST SWAP1 POP SWAP2 SWAP1 POP JUMP JUMPDEST PUSH0 DUP2 SWAP1 POP SWAP2 SWAP1 POP JUMP JUMPDEST PUSH2 0xFE0 DUP4 PUSH2 0xFAD JUMP JUMPDEST PUSH2 0xFF4 PUSH2 0xFEC DUP3 PUSH2 0xFCE JUMP JUMPDEST DUP5 DUP5 SLOAD PUSH2 0xF53 JUMP JUMPDEST DUP3 SSTORE POP POP POP POP JUMP JUMPDEST PUSH0 SWAP1 JUMP JUMPDEST PUSH2 0x1008 PUSH2 0xFFC JUMP JUMPDEST PUSH2 0x1013 DUP2 DUP5 DUP5 PUSH2 0xFD7 JUMP JUMPDEST POP POP POP JUMP JUMPDEST JUMPDEST DUP2 DUP2 LT ISZERO PUSH2 0x1036 JUMPI PUSH2 0x102B PUSH0 DUP3 PUSH2 0x1000 JUMP JUMPDEST PUSH1 0x1 DUP2 ADD SWAP1 POP PUSH2 0x1019 JUMP JUMPDEST POP POP JUMP JUMPDEST PUSH1 0x1F DUP3 GT ISZERO PUSH2 0x107B JUMPI PUSH2 0x104C DUP2 PUSH2 0xF26 JUMP JUMPDEST PUSH2 0x1055 DUP5 PUSH2 0xF38 JUMP JUMPDEST DUP2 ADD PUSH1 0x20 DUP6 LT ISZERO PUSH2 0x1064 JUMPI DUP2 SWAP1 POP JUMPDEST PUSH2 0x1078 PUSH2 0x1070 DUP6 PUSH2 0xF38 JUMP JUMPDEST DUP4 ADD DUP3 PUSH2 0x1018 JUMP JUMPDEST POP POP JUMPDEST POP POP POP JUMP JUMPDEST PUSH0 DUP3 DUP3 SHR SWAP1 POP SWAP3 SWAP2 POP POP JUMP JUMPDEST PUSH0 PUSH2 0x109B PUSH0 NOT DUP5 PUSH1 0x8 MUL PUSH2 0x1080 JUMP JUMPDEST NOT DUP1 DUP4 AND SWAP2 POP POP SWAP3 SWAP2 POP POP JUMP JUMPDEST PUSH0 PUSH2 0x10B3 DUP4 DUP4 PUSH2 0x108C JUMP JUMPDEST SWAP2 POP DUP3 PUSH1 0x2 MUL DUP3 OR SWAP1 POP SWAP3 SWAP2 POP POP JUMP JUMPDEST PUSH2 0x10CC DUP3 PUSH2 0x9F1 JUMP JUMPDEST PUSH8 0xFFFFFFFFFFFFFFFF DUP2 GT ISZERO PUSH2 0x10E5 JUMPI PUSH2 0x10E4 PUSH2 0xAF0 JUMP JUMPDEST JUMPDEST PUSH2 0x10EF DUP3 SLOAD PUSH2 0xEF6 JUMP JUMPDEST PUSH2 0x10FA DUP3 DUP3 DUP6 PUSH2 0x103A JUMP JUMPDEST PUSH0 PUSH1 0x20 SWAP1 POP PUSH1 0x1F DUP4 GT PUSH1 0x1 DUP2 EQ PUSH2 0x112B JUMPI PUSH0 DUP5 ISZERO PUSH2 0x1119 JUMPI DUP3 DUP8 ADD MLOAD SWAP1 POP JUMPDEST PUSH2 0x1123 DUP6 DUP3 PUSH2 0x10A8 JUMP JUMPDEST DUP7 SSTORE POP PUSH2 0x118A JUMP JUMPDEST PUSH1 0x1F NOT DUP5 AND PUSH2 0x1139 DUP7 PUSH2 0xF26 JUMP JUMPDEST PUSH0 JUMPDEST DUP3 DUP2 LT ISZERO PUSH2 0x1160 JUMPI DUP5 DUP10 ADD MLOAD DUP3 SSTORE PUSH1 0x1 DUP3 ADD SWAP2 POP PUSH1 0x20 DUP6 ADD SWAP5 POP PUSH1 0x20 DUP2 ADD SWAP1 POP PUSH2 0x113B JUMP JUMPDEST DUP7 DUP4 LT ISZERO PUSH2 0x117D JUMPI DUP5 DUP10 ADD MLOAD PUSH2 0x1179 PUSH1 0x1F DUP10 AND DUP3 PUSH2 0x108C JUMP JUMPDEST DUP4 SSTORE POP JUMPDEST PUSH1 0x1 PUSH1 0x2 DUP9 MUL ADD DUP9 SSTORE POP POP POP JUMPDEST POP POP POP POP POP POP JUMP JUMPDEST PUSH0 PUSH1 0xA0 DUP3 ADD SWAP1 POP DUP2 DUP2 SUB PUSH0 DUP4 ADD MSTORE PUSH2 0x11AA DUP2 DUP9 PUSH2 0xA29 JUMP JUMPDEST SWAP1 POP DUP2 DUP2 SUB PUSH1 0x20 DUP4 ADD MSTORE PUSH2 0x11BE DUP2 DUP8 PUSH2 0xA29 JUMP JUMPDEST SWAP1 POP PUSH2 0x11CD PUSH1 0x40 DUP4 ADD DUP7 PUSH2 0x990 JUMP JUMPDEST PUSH2 0x11DA PUSH1 0x60 DUP4 ADD DUP6 PUSH2 0x990 JUMP JUMPDEST PUSH2 0x11E7 PUSH1 0x80 DUP4 ADD DUP5 PUSH2 0x990 JUMP JUMPDEST SWAP7 SWAP6 POP POP POP POP POP POP JUMP JUMPDEST PUSH32 0x4E487B7100000000000000000000000000000000000000000000000000000000 PUSH0 MSTORE PUSH1 0x11 PUSH1 0x4 MSTORE PUSH1 0x24 PUSH0 REVERT JUMPDEST PUSH0 PUSH2 0x1228 DUP3 PUSH2 0x91F JUMP JUMPDEST SWAP2 POP PUSH32 0xFFFFFFFFFFFFFFFFFFFFFFFFFFFFFFFFFFFFFFFFFFFFFFFFFFFFFFFFFFFFFFFF DUP3 SUB PUSH2 0x125A JUMPI PUSH2 0x1259 PUSH2 0x11F1 JUMP JUMPDEST JUMPDEST PUSH1 0x1 DUP3 ADD SWAP1 POP SWAP2 SWAP1 POP JUMP JUMPDEST PUSH0 PUSH2 0x126F DUP3 PUSH2 0x91F JUMP JUMPDEST SWAP2 POP PUSH2 0x127A DUP4 PUSH2 0x91F JUMP JUMPDEST SWAP3 POP DUP3 DUP3 MUL PUSH2 0x1288 DUP2 PUSH2 0x91F JUMP JUMPDEST SWAP2 POP DUP3 DUP3 DIV DUP5 EQ DUP4 ISZERO OR PUSH2 0x129F JUMPI PUSH2 0x129E PUSH2 0x11F1 JUMP JUMPDEST JUMPDEST POP SWAP3 SWAP2 POP POP JUMP JUMPDEST PUSH0 PUSH2 0x12B0 DUP3 PUSH2 0x91F JUMP JUMPDEST SWAP2 POP PUSH2 0x12BB DUP4 PUSH2 0x91F JUMP JUMPDEST SWAP3 POP DUP3 DUP3 SUB SWAP1 POP DUP2 DUP2 GT ISZERO PUSH2 0x12D3 JUMPI PUSH2 0x12D2 PUSH2 0x11F1 JUMP JUMPDEST JUMPDEST SWAP3 SWAP2 POP POP JUMP JUMPDEST PUSH32 0x4E487B7100000000000000000000000000000000000000000000000000000000 PUSH0 MSTORE PUSH1 0x12 PUSH1 0x4 MSTORE PUSH1 0x24 PUSH0 REVERT JUMPDEST PUSH0 PUSH2 0x1310 DUP3 PUSH2 0x91F JUMP JUMPDEST SWAP2 POP PUSH2 0x131B DUP4 PUSH2 0x91F JUMP JUMPDEST SWAP3 POP DUP3 PUSH2 0x132B JUMPI PUSH2 0x132A PUSH2 0x12D9 JUMP JUMPDEST JUMPDEST DUP3 DUP3 DIV SWAP1 POP SWAP3 SWAP2 POP POP JUMP INVALID LOG2 PUSH5 0x6970667358 0x22 SLT KECCAK256 0x1F 0xD STOP EQ PUSH11 0xFA3EBEB2AB8A04EB231FC0 MSTORE 0xB9 0xB9 0xD1 ADD 0x1E DUP8 0xF8 PUSH29 0xDD25D23067A07E64736F6C634300081A00330000000000000000000000 "
				},
				"gasEstimates": {
					"creation": {
						"codeDepositCost": "994400",
						"executionCost": "infinite",
						"totalCost": "infinite"
					},
					"external": {
						"calculateLiquidationPrice(uint256,uint256)": "infinite",
						"calculatePurchase(uint256,uint256)": "infinite",
						"createProperty(string,string,string,string[],uint256,uint256,uint256)": "infinite",
						"getPropertyInfo(uint256)": "infinite",
						"owner()": "2559",
						"renounceOwnership()": "infinite",
						"transferOwnership(address)": "infinite",
						"updateAvailableShares(uint256,uint256)": "infinite",
						"updatePropertyValuation(uint256,uint256)": "infinite"
					}
				},
				"methodIdentifiers": {
					"calculateLiquidationPrice(uint256,uint256)": "9b8c549a",
					"calculatePurchase(uint256,uint256)": "32b2b934",
					"createProperty(string,string,string,string[],uint256,uint256,uint256)": "846814b4",
					"getPropertyInfo(uint256)": "40f0a055",
					"owner()": "8da5cb5b",
					"renounceOwnership()": "715018a6",
					"transferOwnership(address)": "f2fde38b",
					"updateAvailableShares(uint256,uint256)": "416e4f48",
					"updatePropertyValuation(uint256,uint256)": "38206125"
				}
			},
			"storageLayout": {
				"storage": [
					{
						"astId": 8,
						"contract": "Contract/PropertyManager.sol:PropertyManager",
						"label": "_owner",
						"offset": 0,
						"slot": "0",
						"type": "t_address"
					},
					{
						"astId": 527,
						"contract": "Contract/PropertyManager.sol:PropertyManager",
						"label": "_propertyInfo",
						"offset": 0,
						"slot": "1",
						"type": "t_mapping(t_uint256,t_struct(PropertyInfo)522_storage)"
					},
					{
						"astId": 531,
						"contract": "Contract/PropertyManager.sol:PropertyManager",
						"label": "_availableShares",
						"offset": 0,
						"slot": "2",
						"type": "t_mapping(t_uint256,t_uint256)"
					},
					{
						"astId": 534,
						"contract": "Contract/PropertyManager.sol:PropertyManager",
						"label": "_nextPropertyId",
						"offset": 0,
						"slot": "3",
						"type": "t_uint256"
					}
				],
				"types": {
					"t_address": {
						"encoding": "inplace",
						"label": "address",
						"numberOfBytes": "20"
					},
					"t_array(t_string_storage)dyn_storage": {
						"base": "t_string_storage",
						"encoding": "dynamic_array",
						"label": "string[]",
						"numberOfBytes": "32"
					},
					"t_bool": {
						"encoding": "inplace",
						"label": "bool",
						"numberOfBytes": "1"
					},
					"t_mapping(t_uint256,t_struct(PropertyInfo)522_storage)": {
						"encoding": "mapping",
						"key": "t_uint256",
						"label": "mapping(uint256 => struct PropertyManager.PropertyInfo)",
						"numberOfBytes": "32",
						"value": "t_struct(PropertyInfo)522_storage"
					},
					"t_mapping(t_uint256,t_uint256)": {
						"encoding": "mapping",
						"key": "t_uint256",
						"label": "mapping(uint256 => uint256)",
						"numberOfBytes": "32",
						"value": "t_uint256"
					},
					"t_string_storage": {
						"encoding": "bytes",
						"label": "string",
						"numberOfBytes": "32"
					},
					"t_struct(PropertyInfo)522_storage": {
						"encoding": "inplace",
						"label": "struct PropertyManager.PropertyInfo",
						"members": [
							{
								"astId": 500,
								"contract": "Contract/PropertyManager.sol:PropertyManager",
								"label": "name",
								"offset": 0,
								"slot": "0",
								"type": "t_string_storage"
							},
							{
								"astId": 502,
								"contract": "Contract/PropertyManager.sol:PropertyManager",
								"label": "location",
								"offset": 0,
								"slot": "1",
								"type": "t_string_storage"
							},
							{
								"astId": 504,
								"contract": "Contract/PropertyManager.sol:PropertyManager",
								"label": "description",
								"offset": 0,
								"slot": "2",
								"type": "t_string_storage"
							},
							{
								"astId": 507,
								"contract": "Contract/PropertyManager.sol:PropertyManager",
								"label": "imageUrls",
								"offset": 0,
								"slot": "3",
								"type": "t_array(t_string_storage)dyn_storage"
							},
							{
								"astId": 509,
								"contract": "Contract/PropertyManager.sol:PropertyManager",
								"label": "totalShares",
								"offset": 0,
								"slot": "4",
								"type": "t_uint256"
							},
							{
								"astId": 511,
								"contract": "Contract/PropertyManager.sol:PropertyManager",
								"label": "pricePerShare",
								"offset": 0,
								"slot": "5",
								"type": "t_uint256"
							},
							{
								"astId": 513,
								"contract": "Contract/PropertyManager.sol:PropertyManager",
								"label": "initialValuation",
								"offset": 0,
								"slot": "6",
								"type": "t_uint256"
							},
							{
								"astId": 515,
								"contract": "Contract/PropertyManager.sol:PropertyManager",
								"label": "currentValuation",
								"offset": 0,
								"slot": "7",
								"type": "t_uint256"
							},
							{
								"astId": 517,
								"contract": "Contract/PropertyManager.sol:PropertyManager",
								"label": "creationTimestamp",
								"offset": 0,
								"slot": "8",
								"type": "t_uint256"
							},
							{
								"astId": 519,
								"contract": "Contract/PropertyManager.sol:PropertyManager",
								"label": "isForSale",
								"offset": 0,
								"slot": "9",
								"type": "t_bool"
							},
							{
								"astId": 521,
								"contract": "Contract/PropertyManager.sol:PropertyManager",
								"label": "salePrice",
								"offset": 0,
								"slot": "10",
								"type": "t_uint256"
							}
						],
						"numberOfBytes": "352"
					},
					"t_uint256": {
						"encoding": "inplace",
						"label": "uint256",
						"numberOfBytes": "32"
					}
				}
			},
			"userdoc": {
				"kind": "user",
				"methods": {},
				"version": 1
			}
		}
	}
}