{
	"Contract/KYCManager.sol": {
		"KYCManager": {
			"abi": [
				{
					"inputs": [],
					"stateMutability": "nonpayable",
					"type": "constructor"
				},
				{
					"inputs": [
						{
							"internalType": "address",
							"name": "owner",
							"type": "address"
						}
					],
					"name": "OwnableInvalidOwner",
					"type": "error"
				},
				{
					"inputs": [
						{
							"internalType": "address",
							"name": "account",
							"type": "address"
						}
					],
					"name": "OwnableUnauthorizedAccount",
					"type": "error"
				},
				{
					"anonymous": false,
					"inputs": [
						{
							"indexed": true,
							"internalType": "address",
							"name": "user",
							"type": "address"
						},
						{
							"indexed": false,
							"internalType": "string",
							"name": "name",
							"type": "string"
						},
						{
							"indexed": false,
							"internalType": "string",
							"name": "nationality",
							"type": "string"
						}
					],
					"name": "KYCSubmitted",
					"type": "event"
				},
				{
					"anonymous": false,
					"inputs": [
						{
							"indexed": true,
							"internalType": "address",
							"name": "user",
							"type": "address"
						},
						{
							"indexed": false,
							"internalType": "bool",
							"name": "isVerified",
							"type": "bool"
						}
					],
					"name": "KYCVerified",
					"type": "event"
				},
				{
					"anonymous": false,
					"inputs": [
						{
							"indexed": true,
							"internalType": "address",
							"name": "previousOwner",
							"type": "address"
						},
						{
							"indexed": true,
							"internalType": "address",
							"name": "newOwner",
							"type": "address"
						}
					],
					"name": "OwnershipTransferred",
					"type": "event"
				},
				{
					"inputs": [
						{
							"internalType": "address",
							"name": "user",
							"type": "address"
						}
					],
					"name": "isUserVerified",
					"outputs": [
						{
							"internalType": "bool",
							"name": "",
							"type": "bool"
						}
					],
					"stateMutability": "view",
					"type": "function"
				},
				{
					"inputs": [],
					"name": "owner",
					"outputs": [
						{
							"internalType": "address",
							"name": "",
							"type": "address"
						}
					],
					"stateMutability": "view",
					"type": "function"
				},
				{
					"inputs": [],
					"name": "renounceOwnership",
					"outputs": [],
					"stateMutability": "nonpayable",
					"type": "function"
				},
				{
					"inputs": [
						{
							"internalType": "string",
							"name": "name",
							"type": "string"
						},
						{
							"internalType": "string",
							"name": "email",
							"type": "string"
						},
						{
							"internalType": "string",
							"name": "nationality",
							"type": "string"
						},
						{
							"internalType": "string",
							"name": "idNumber",
							"type": "string"
						},
						{
							"internalType": "string",
							"name": "idImage",
							"type": "string"
						}
					],
					"name": "submitKYC",
					"outputs": [],
					"stateMutability": "nonpayable",
					"type": "function"
				},
				{
					"inputs": [
						{
							"internalType": "address",
							"name": "newOwner",
							"type": "address"
						}
					],
					"name": "transferOwnership",
					"outputs": [],
					"stateMutability": "nonpayable",
					"type": "function"
				},
				{
					"inputs": [
						{
							"internalType": "address",
							"name": "user",
							"type": "address"
						},
						{
							"internalType": "bool",
							"name": "status",
							"type": "bool"
						}
					],
					"name": "verifyKYC",
					"outputs": [],
					"stateMutability": "nonpayable",
					"type": "function"
				}
			],
			"devdoc": {
				"errors": {
					"OwnableInvalidOwner(address)": [
						{
							"details": "The owner is not a valid owner account. (eg. `address(0)`)"
						}
					],
					"OwnableUnauthorizedAccount(address)": [
						{
							"details": "The caller account is not authorized to perform an operation."
						}
					]
				},
				"kind": "dev",
				"methods": {
					"owner()": {
						"details": "Returns the address of the current owner."
					},
					"renounceOwnership()": {
						"details": "Leaves the contract without owner. It will not be possible to call `onlyOwner` functions. Can only be called by the current owner. NOTE: Renouncing ownership will leave the contract without an owner, thereby disabling any functionality that is only available to the owner."
					},
					"transferOwnership(address)": {
						"details": "Transfers ownership of the contract to a new account (`newOwner`). Can only be called by the current owner."
					}
				},
				"version": 1
			},
			"evm": {
				"assembly": "    /* \"Contract/KYCManager.sol\":112:1784  contract KYCManager is Ownable {... */\n  mstore(0x40, 0x80)\n    /* \"Contract/KYCManager.sol\":512:548  constructor() Ownable(msg.sender) {} */\n  callvalue\n  dup1\n  iszero\n  tag_1\n  jumpi\n  revert(0x00, 0x00)\ntag_1:\n  pop\n    /* \"Contract/KYCManager.sol\":534:544  msg.sender */\n  caller\n    /* \"@openzeppelin/contracts/access/Ownable.sol\":1297:1298  0 */\n  0x00\n    /* \"@openzeppelin/contracts/access/Ownable.sol\":1273:1299  initialOwner == address(0) */\n  0xffffffffffffffffffffffffffffffffffffffff\n  and\n    /* \"@openzeppelin/contracts/access/Ownable.sol\":1273:1285  initialOwner */\n  dup2\n    /* \"@openzeppelin/contracts/access/Ownable.sol\":1273:1299  initialOwner == address(0) */\n  0xffffffffffffffffffffffffffffffffffffffff\n  and\n  sub\n    /* \"@openzeppelin/contracts/access/Ownable.sol\":1269:1364  if (initialOwner == address(0)) {... */\n  tag_5\n  jumpi\n    /* \"@openzeppelin/contracts/access/Ownable.sol\":1350:1351  0 */\n  0x00\n    /* \"@openzeppelin/contracts/access/Ownable.sol\":1322:1353  OwnableInvalidOwner(address(0)) */\n  mload(0x40)\n  0x1e4fbdf700000000000000000000000000000000000000000000000000000000\n  dup2\n  mstore\n  0x04\n  add\n  tag_6\n  swap2\n  swap1\n  tag_7\n  jump\t// in\ntag_6:\n  mload(0x40)\n  dup1\n  swap2\n  sub\n  swap1\n  revert\n    /* \"@openzeppelin/contracts/access/Ownable.sol\":1269:1364  if (initialOwner == address(0)) {... */\ntag_5:\n    /* \"@openzeppelin/contracts/access/Ownable.sol\":1373:1405  _transferOwnership(initialOwner) */\n  tag_8\n    /* \"@openzeppelin/contracts/access/Ownable.sol\":1392:1404  initialOwner */\n  dup2\n    /* \"@openzeppelin/contracts/access/Ownable.sol\":1373:1391  _transferOwnership */\n  shl(0x20, tag_9)\n    /* \"@openzeppelin/contracts/access/Ownable.sol\":1373:1405  _transferOwnership(initialOwner) */\n  0x20\n  shr\n  jump\t// in\ntag_8:\n    /* \"@openzeppelin/contracts/access/Ownable.sol\":1225:1412  constructor(address initialOwner) {... */\n  pop\n    /* \"Contract/KYCManager.sol\":112:1784  contract KYCManager is Ownable {... */\n  jump(tag_11)\n    /* \"@openzeppelin/contracts/access/Ownable.sol\":2912:3099  function _transferOwnership(address newOwner) internal virtual {... */\ntag_9:\n    /* \"@openzeppelin/contracts/access/Ownable.sol\":2985:3001  address oldOwner */\n  0x00\n    /* \"@openzeppelin/contracts/access/Ownable.sol\":3004:3010  _owner */\n  0x00\n  0x00\n  swap1\n  sload\n  swap1\n  0x0100\n  exp\n  swap1\n  div\n  0xffffffffffffffffffffffffffffffffffffffff\n  and\n    /* \"@openzeppelin/contracts/access/Ownable.sol\":2985:3010  address oldOwner = _owner */\n  swap1\n  pop\n    /* \"@openzeppelin/contracts/access/Ownable.sol\":3029:3037  newOwner */\n  dup2\n    /* \"@openzeppelin/contracts/access/Ownable.sol\":3020:3026  _owner */\n  0x00\n  0x00\n    /* \"@openzeppelin/contracts/access/Ownable.sol\":3020:3037  _owner = newOwner */\n  0x0100\n  exp\n  dup2\n  sload\n  dup2\n  0xffffffffffffffffffffffffffffffffffffffff\n  mul\n  not\n  and\n  swap1\n  dup4\n  0xffffffffffffffffffffffffffffffffffffffff\n  and\n  mul\n  or\n  swap1\n  sstore\n  pop\n    /* \"@openzeppelin/contracts/access/Ownable.sol\":3083:3091  newOwner */\n  dup2\n    /* \"@openzeppelin/contracts/access/Ownable.sol\":3052:3092  OwnershipTransferred(oldOwner, newOwner) */\n  0xffffffffffffffffffffffffffffffffffffffff\n  and\n    /* \"@openzeppelin/contracts/access/Ownable.sol\":3073:3081  oldOwner */\n  dup2\n    /* \"@openzeppelin/contracts/access/Ownable.sol\":3052:3092  OwnershipTransferred(oldOwner, newOwner) */\n  0xffffffffffffffffffffffffffffffffffffffff\n  and\n  0x8be0079c531659141344cd1fd0a4f28419497f9722a3daafe3b4186f6b6457e0\n  mload(0x40)\n  mload(0x40)\n  dup1\n  swap2\n  sub\n  swap1\n  log3\n    /* \"@openzeppelin/contracts/access/Ownable.sol\":2975:3099  {... */\n  pop\n    /* \"@openzeppelin/contracts/access/Ownable.sol\":2912:3099  function _transferOwnership(address newOwner) internal virtual {... */\n  pop\n  jump\t// out\n    /* \"#utility.yul\":7:133   */\ntag_13:\n    /* \"#utility.yul\":44:51   */\n  0x00\n    /* \"#utility.yul\":84:126   */\n  0xffffffffffffffffffffffffffffffffffffffff\n    /* \"#utility.yul\":77:82   */\n  dup3\n    /* \"#utility.yul\":73:127   */\n  and\n    /* \"#utility.yul\":62:127   */\n  swap1\n  pop\n    /* \"#utility.yul\":7:133   */\n  swap2\n  swap1\n  pop\n  jump\t// out\n    /* \"#utility.yul\":139:235   */\ntag_14:\n    /* \"#utility.yul\":176:183   */\n  0x00\n    /* \"#utility.yul\":205:229   */\n  tag_19\n    /* \"#utility.yul\":223:228   */\n  dup3\n    /* \"#utility.yul\":205:229   */\n  tag_13\n  jump\t// in\ntag_19:\n    /* \"#utility.yul\":194:229   */\n  swap1\n  pop\n    /* \"#utility.yul\":139:235   */\n  swap2\n  swap1\n  pop\n  jump\t// out\n    /* \"#utility.yul\":241:359   */\ntag_15:\n    /* \"#utility.yul\":328:352   */\n  tag_21\n    /* \"#utility.yul\":346:351   */\n  dup2\n    /* \"#utility.yul\":328:352   */\n  tag_14\n  jump\t// in\ntag_21:\n    /* \"#utility.yul\":323:326   */\n  dup3\n    /* \"#utility.yul\":316:353   */\n  mstore\n    /* \"#utility.yul\":241:359   */\n  pop\n  pop\n  jump\t// out\n    /* \"#utility.yul\":365:587   */\ntag_7:\n    /* \"#utility.yul\":458:462   */\n  0x00\n    /* \"#utility.yul\":496:498   */\n  0x20\n    /* \"#utility.yul\":485:494   */\n  dup3\n    /* \"#utility.yul\":481:499   */\n  add\n    /* \"#utility.yul\":473:499   */\n  swap1\n  pop\n    /* \"#utility.yul\":509:580   */\n  tag_23\n    /* \"#utility.yul\":577:578   */\n  0x00\n    /* \"#utility.yul\":566:575   */\n  dup4\n    /* \"#utility.yul\":562:579   */\n  add\n    /* \"#utility.yul\":553:559   */\n  dup5\n    /* \"#utility.yul\":509:580   */\n  tag_15\n  jump\t// in\ntag_23:\n    /* \"#utility.yul\":365:587   */\n  swap3\n  swap2\n  pop\n  pop\n  jump\t// out\n    /* \"Contract/KYCManager.sol\":112:1784  contract KYCManager is Ownable {... */\ntag_11:\n  dataSize(sub_0)\n  dup1\n  dataOffset(sub_0)\n  0x00\n  codecopy\n  0x00\n  return\nstop\n\nsub_0: assembly {\n        /* \"Contract/KYCManager.sol\":112:1784  contract KYCManager is Ownable {... */\n      mstore(0x40, 0x80)\n      callvalue\n      dup1\n      iszero\n      tag_1\n      jumpi\n      revert(0x00, 0x00)\n    tag_1:\n      pop\n      jumpi(tag_2, lt(calldatasize, 0x04))\n      shr(0xe0, calldataload(0x00))\n      dup1\n      0x474adb8f\n      eq\n      tag_3\n      jumpi\n      dup1\n      0x715018a6\n      eq\n      tag_4\n      jumpi\n      dup1\n      0x8da5cb5b\n      eq\n      tag_5\n      jumpi\n      dup1\n      0xa9fabbd2\n      eq\n      tag_6\n      jumpi\n      dup1\n      0xace417e0\n      eq\n      tag_7\n      jumpi\n      dup1\n      0xf2fde38b\n      eq\n      tag_8\n      jumpi\n    tag_2:\n      revert(0x00, 0x00)\n        /* \"Contract/KYCManager.sol\":1386:1662  function verifyKYC(address user, bool status) public onlyOwner {... */\n    tag_3:\n      tag_9\n      0x04\n      dup1\n      calldatasize\n      sub\n      dup2\n      add\n      swap1\n      tag_10\n      swap2\n      swap1\n      tag_11\n      jump\t// in\n    tag_10:\n      tag_12\n      jump\t// in\n    tag_9:\n      stop\n        /* \"@openzeppelin/contracts/access/Ownable.sol\":2293:2394  function renounceOwnership() public virtual onlyOwner {... */\n    tag_4:\n      tag_13\n      tag_14\n      jump\t// in\n    tag_13:\n      stop\n        /* \"@openzeppelin/contracts/access/Ownable.sol\":1638:1723  function owner() public view virtual returns (address) {... */\n    tag_5:\n      tag_15\n      tag_16\n      jump\t// in\n    tag_15:\n      mload(0x40)\n      tag_17\n      swap2\n      swap1\n      tag_18\n      jump\t// in\n    tag_17:\n      mload(0x40)\n      dup1\n      swap2\n      sub\n      swap1\n      return\n        /* \"Contract/KYCManager.sol\":554:1375  function submitKYC(... */\n    tag_6:\n      tag_19\n      0x04\n      dup1\n      calldatasize\n      sub\n      dup2\n      add\n      swap1\n      tag_20\n      swap2\n      swap1\n      tag_21\n      jump\t// in\n    tag_20:\n      tag_22\n      jump\t// in\n    tag_19:\n      stop\n        /* \"Contract/KYCManager.sol\":1668:1782  function isUserVerified(address user) public view returns (bool) {... */\n    tag_7:\n      tag_23\n      0x04\n      dup1\n      calldatasize\n      sub\n      dup2\n      add\n      swap1\n      tag_24\n      swap2\n      swap1\n      tag_25\n      jump\t// in\n    tag_24:\n      tag_26\n      jump\t// in\n    tag_23:\n      mload(0x40)\n      tag_27\n      swap2\n      swap1\n      tag_28\n      jump\t// in\n    tag_27:\n      mload(0x40)\n      dup1\n      swap2\n      sub\n      swap1\n      return\n        /* \"@openzeppelin/contracts/access/Ownable.sol\":2543:2758  function transferOwnership(address newOwner) public virtual onlyOwner {... */\n    tag_8:\n      tag_29\n      0x04\n      dup1\n      calldatasize\n      sub\n      dup2\n      add\n      swap1\n      tag_30\n      swap2\n      swap1\n      tag_25\n      jump\t// in\n    tag_30:\n      tag_31\n      jump\t// in\n    tag_29:\n      stop\n        /* \"Contract/KYCManager.sol\":1386:1662  function verifyKYC(address user, bool status) public onlyOwner {... */\n    tag_12:\n        /* \"@openzeppelin/contracts/access/Ownable.sol\":1531:1544  _checkOwner() */\n      tag_33\n        /* \"@openzeppelin/contracts/access/Ownable.sol\":1531:1542  _checkOwner */\n      tag_34\n        /* \"@openzeppelin/contracts/access/Ownable.sol\":1531:1544  _checkOwner() */\n      jump\t// in\n    tag_33:\n        /* \"Contract/KYCManager.sol\":1516:1517  0 */\n      0x00\n        /* \"Contract/KYCManager.sol\":1486:1494  _userKYC */\n      0x01\n        /* \"Contract/KYCManager.sol\":1486:1500  _userKYC[user] */\n      0x00\n        /* \"Contract/KYCManager.sol\":1495:1499  user */\n      dup5\n        /* \"Contract/KYCManager.sol\":1486:1500  _userKYC[user] */\n      0xffffffffffffffffffffffffffffffffffffffff\n      and\n      0xffffffffffffffffffffffffffffffffffffffff\n      and\n      dup2\n      mstore\n      0x20\n      add\n      swap1\n      dup2\n      mstore\n      0x20\n      add\n      0x00\n      keccak256\n        /* \"Contract/KYCManager.sol\":1486:1505  _userKYC[user].name */\n      0x00\n      add\n        /* \"Contract/KYCManager.sol\":1480:1513  bytes(_userKYC[user].name).length */\n      dup1\n      sload\n      tag_36\n      swap1\n      tag_37\n      jump\t// in\n    tag_36:\n      swap1\n      pop\n        /* \"Contract/KYCManager.sol\":1480:1517  bytes(_userKYC[user].name).length > 0 */\n      gt\n        /* \"Contract/KYCManager.sol\":1459:1569  require(... */\n      tag_38\n      jumpi\n      mload(0x40)\n      0x08c379a000000000000000000000000000000000000000000000000000000000\n      dup2\n      mstore\n      0x04\n      add\n      tag_39\n      swap1\n      tag_40\n      jump\t// in\n    tag_39:\n      mload(0x40)\n      dup1\n      swap2\n      sub\n      swap1\n      revert\n    tag_38:\n        /* \"Contract/KYCManager.sol\":1608:1614  status */\n      dup1\n        /* \"Contract/KYCManager.sol\":1580:1588  _userKYC */\n      0x01\n        /* \"Contract/KYCManager.sol\":1580:1594  _userKYC[user] */\n      0x00\n        /* \"Contract/KYCManager.sol\":1589:1593  user */\n      dup5\n        /* \"Contract/KYCManager.sol\":1580:1594  _userKYC[user] */\n      0xffffffffffffffffffffffffffffffffffffffff\n      and\n      0xffffffffffffffffffffffffffffffffffffffff\n      and\n      dup2\n      mstore\n      0x20\n      add\n      swap1\n      dup2\n      mstore\n      0x20\n      add\n      0x00\n      keccak256\n        /* \"Contract/KYCManager.sol\":1580:1605  _userKYC[user].isVerified */\n      0x05\n      add\n      0x00\n        /* \"Contract/KYCManager.sol\":1580:1614  _userKYC[user].isVerified = status */\n      0x0100\n      exp\n      dup2\n      sload\n      dup2\n      0xff\n      mul\n      not\n      and\n      swap1\n      dup4\n      iszero\n      iszero\n      mul\n      or\n      swap1\n      sstore\n      pop\n        /* \"Contract/KYCManager.sol\":1642:1646  user */\n      dup2\n        /* \"Contract/KYCManager.sol\":1630:1655  KYCVerified(user, status) */\n      0xffffffffffffffffffffffffffffffffffffffff\n      and\n      0x7a02eb9b107b2ab713e88c3cd7ac538e5c21b689d0f1b1f22367578b28fc5d09\n        /* \"Contract/KYCManager.sol\":1648:1654  status */\n      dup3\n        /* \"Contract/KYCManager.sol\":1630:1655  KYCVerified(user, status) */\n      mload(0x40)\n      tag_41\n      swap2\n      swap1\n      tag_28\n      jump\t// in\n    tag_41:\n      mload(0x40)\n      dup1\n      swap2\n      sub\n      swap1\n      log2\n        /* \"Contract/KYCManager.sol\":1386:1662  function verifyKYC(address user, bool status) public onlyOwner {... */\n      pop\n      pop\n      jump\t// out\n        /* \"@openzeppelin/contracts/access/Ownable.sol\":2293:2394  function renounceOwnership() public virtual onlyOwner {... */\n    tag_14:\n        /* \"@openzeppelin/contracts/access/Ownable.sol\":1531:1544  _checkOwner() */\n      tag_43\n        /* \"@openzeppelin/contracts/access/Ownable.sol\":1531:1542  _checkOwner */\n      tag_34\n        /* \"@openzeppelin/contracts/access/Ownable.sol\":1531:1544  _checkOwner() */\n      jump\t// in\n    tag_43:\n        /* \"@openzeppelin/contracts/access/Ownable.sol\":2357:2387  _transferOwnership(address(0)) */\n      tag_45\n        /* \"@openzeppelin/contracts/access/Ownable.sol\":2384:2385  0 */\n      0x00\n        /* \"@openzeppelin/contracts/access/Ownable.sol\":2357:2375  _transferOwnership */\n      tag_46\n        /* \"@openzeppelin/contracts/access/Ownable.sol\":2357:2387  _transferOwnership(address(0)) */\n      jump\t// in\n    tag_45:\n        /* \"@openzeppelin/contracts/access/Ownable.sol\":2293:2394  function renounceOwnership() public virtual onlyOwner {... */\n      jump\t// out\n        /* \"@openzeppelin/contracts/access/Ownable.sol\":1638:1723  function owner() public view virtual returns (address) {... */\n    tag_16:\n        /* \"@openzeppelin/contracts/access/Ownable.sol\":1684:1691  address */\n      0x00\n        /* \"@openzeppelin/contracts/access/Ownable.sol\":1710:1716  _owner */\n      0x00\n      0x00\n      swap1\n      sload\n      swap1\n      0x0100\n      exp\n      swap1\n      div\n      0xffffffffffffffffffffffffffffffffffffffff\n      and\n        /* \"@openzeppelin/contracts/access/Ownable.sol\":1703:1716  return _owner */\n      swap1\n      pop\n        /* \"@openzeppelin/contracts/access/Ownable.sol\":1638:1723  function owner() public view virtual returns (address) {... */\n      swap1\n      jump\t// out\n        /* \"Contract/KYCManager.sol\":554:1375  function submitKYC(... */\n    tag_22:\n        /* \"Contract/KYCManager.sol\":781:782  0 */\n      0x00\n        /* \"Contract/KYCManager.sol\":766:770  name */\n      dup6\n        /* \"Contract/KYCManager.sol\":760:778  bytes(name).length */\n      mload\n        /* \"Contract/KYCManager.sol\":760:782  bytes(name).length > 0 */\n      gt\n        /* \"Contract/KYCManager.sol\":752:803  require(bytes(name).length > 0, \"Name is required\") */\n      tag_49\n      jumpi\n      mload(0x40)\n      0x08c379a000000000000000000000000000000000000000000000000000000000\n      dup2\n      mstore\n      0x04\n      add\n      tag_50\n      swap1\n      tag_51\n      jump\t// in\n    tag_50:\n      mload(0x40)\n      dup1\n      swap2\n      sub\n      swap1\n      revert\n    tag_49:\n        /* \"Contract/KYCManager.sol\":843:844  0 */\n      0x00\n        /* \"Contract/KYCManager.sol\":827:832  email */\n      dup5\n        /* \"Contract/KYCManager.sol\":821:840  bytes(email).length */\n      mload\n        /* \"Contract/KYCManager.sol\":821:844  bytes(email).length > 0 */\n      gt\n        /* \"Contract/KYCManager.sol\":813:866  require(bytes(email).length > 0, \"Email is required\") */\n      tag_52\n      jumpi\n      mload(0x40)\n      0x08c379a000000000000000000000000000000000000000000000000000000000\n      dup2\n      mstore\n      0x04\n      add\n      tag_53\n      swap1\n      tag_54\n      jump\t// in\n    tag_53:\n      mload(0x40)\n      dup1\n      swap2\n      sub\n      swap1\n      revert\n    tag_52:\n        /* \"Contract/KYCManager.sol\":912:913  0 */\n      0x00\n        /* \"Contract/KYCManager.sol\":890:901  nationality */\n      dup4\n        /* \"Contract/KYCManager.sol\":884:909  bytes(nationality).length */\n      mload\n        /* \"Contract/KYCManager.sol\":884:913  bytes(nationality).length > 0 */\n      gt\n        /* \"Contract/KYCManager.sol\":876:941  require(bytes(nationality).length > 0, \"Nationality is required\") */\n      tag_55\n      jumpi\n      mload(0x40)\n      0x08c379a000000000000000000000000000000000000000000000000000000000\n      dup2\n      mstore\n      0x04\n      add\n      tag_56\n      swap1\n      tag_57\n      jump\t// in\n    tag_56:\n      mload(0x40)\n      dup1\n      swap2\n      sub\n      swap1\n      revert\n    tag_55:\n        /* \"Contract/KYCManager.sol\":984:985  0 */\n      0x00\n        /* \"Contract/KYCManager.sol\":965:973  idNumber */\n      dup3\n        /* \"Contract/KYCManager.sol\":959:981  bytes(idNumber).length */\n      mload\n        /* \"Contract/KYCManager.sol\":959:985  bytes(idNumber).length > 0 */\n      gt\n        /* \"Contract/KYCManager.sol\":951:1011  require(bytes(idNumber).length > 0, \"ID Number is required\") */\n      tag_58\n      jumpi\n      mload(0x40)\n      0x08c379a000000000000000000000000000000000000000000000000000000000\n      dup2\n      mstore\n      0x04\n      add\n      tag_59\n      swap1\n      tag_60\n      jump\t// in\n    tag_59:\n      mload(0x40)\n      dup1\n      swap2\n      sub\n      swap1\n      revert\n    tag_58:\n        /* \"Contract/KYCManager.sol\":1053:1054  0 */\n      0x00\n        /* \"Contract/KYCManager.sol\":1035:1042  idImage */\n      dup2\n        /* \"Contract/KYCManager.sol\":1029:1050  bytes(idImage).length */\n      mload\n        /* \"Contract/KYCManager.sol\":1029:1054  bytes(idImage).length > 0 */\n      gt\n        /* \"Contract/KYCManager.sol\":1021:1079  require(bytes(idImage).length > 0, \"ID Image is required\") */\n      tag_61\n      jumpi\n      mload(0x40)\n      0x08c379a000000000000000000000000000000000000000000000000000000000\n      dup2\n      mstore\n      0x04\n      add\n      tag_62\n      swap1\n      tag_63\n      jump\t// in\n    tag_62:\n      mload(0x40)\n      dup1\n      swap2\n      sub\n      swap1\n      revert\n    tag_61:\n        /* \"Contract/KYCManager.sol\":1113:1309  KYC({... */\n      mload(0x40)\n      dup1\n      0xc0\n      add\n      0x40\n      mstore\n      dup1\n        /* \"Contract/KYCManager.sol\":1137:1141  name */\n      dup7\n        /* \"Contract/KYCManager.sol\":1113:1309  KYC({... */\n      dup2\n      mstore\n      0x20\n      add\n        /* \"Contract/KYCManager.sol\":1162:1167  email */\n      dup6\n        /* \"Contract/KYCManager.sol\":1113:1309  KYC({... */\n      dup2\n      mstore\n      0x20\n      add\n        /* \"Contract/KYCManager.sol\":1194:1205  nationality */\n      dup5\n        /* \"Contract/KYCManager.sol\":1113:1309  KYC({... */\n      dup2\n      mstore\n      0x20\n      add\n        /* \"Contract/KYCManager.sol\":1229:1237  idNumber */\n      dup4\n        /* \"Contract/KYCManager.sol\":1113:1309  KYC({... */\n      dup2\n      mstore\n      0x20\n      add\n        /* \"Contract/KYCManager.sol\":1260:1267  idImage */\n      dup3\n        /* \"Contract/KYCManager.sol\":1113:1309  KYC({... */\n      dup2\n      mstore\n      0x20\n      add\n        /* \"Contract/KYCManager.sol\":1293:1298  false */\n      0x00\n        /* \"Contract/KYCManager.sol\":1113:1309  KYC({... */\n      iszero\n      iszero\n      dup2\n      mstore\n      pop\n        /* \"Contract/KYCManager.sol\":1090:1098  _userKYC */\n      0x01\n        /* \"Contract/KYCManager.sol\":1090:1110  _userKYC[msg.sender] */\n      0x00\n        /* \"Contract/KYCManager.sol\":1099:1109  msg.sender */\n      caller\n        /* \"Contract/KYCManager.sol\":1090:1110  _userKYC[msg.sender] */\n      0xffffffffffffffffffffffffffffffffffffffff\n      and\n      0xffffffffffffffffffffffffffffffffffffffff\n      and\n      dup2\n      mstore\n      0x20\n      add\n      swap1\n      dup2\n      mstore\n      0x20\n      add\n      0x00\n      keccak256\n        /* \"Contract/KYCManager.sol\":1090:1309  _userKYC[msg.sender] = KYC({... */\n      0x00\n      dup3\n      add\n      mload\n      dup2\n      0x00\n      add\n      swap1\n      dup2\n      tag_64\n      swap2\n      swap1\n      tag_65\n      jump\t// in\n    tag_64:\n      pop\n      0x20\n      dup3\n      add\n      mload\n      dup2\n      0x01\n      add\n      swap1\n      dup2\n      tag_66\n      swap2\n      swap1\n      tag_65\n      jump\t// in\n    tag_66:\n      pop\n      0x40\n      dup3\n      add\n      mload\n      dup2\n      0x02\n      add\n      swap1\n      dup2\n      tag_67\n      swap2\n      swap1\n      tag_65\n      jump\t// in\n    tag_67:\n      pop\n      0x60\n      dup3\n      add\n      mload\n      dup2\n      0x03\n      add\n      swap1\n      dup2\n      tag_68\n      swap2\n      swap1\n      tag_65\n      jump\t// in\n    tag_68:\n      pop\n      0x80\n      dup3\n      add\n      mload\n      dup2\n      0x04\n      add\n      swap1\n      dup2\n      tag_69\n      swap2\n      swap1\n      tag_65\n      jump\t// in\n    tag_69:\n      pop\n      0xa0\n      dup3\n      add\n      mload\n      dup2\n      0x05\n      add\n      exp(0x0100, 0x00)\n      dup2\n      sload\n      dup2\n      0xff\n      mul\n      not\n      and\n      swap1\n      dup4\n      iszero\n      iszero\n      mul\n      or\n      swap1\n      sstore\n      pop\n      swap1\n      pop\n      pop\n        /* \"Contract/KYCManager.sol\":1338:1348  msg.sender */\n      caller\n        /* \"Contract/KYCManager.sol\":1325:1368  KYCSubmitted(msg.sender, name, nationality) */\n      0xffffffffffffffffffffffffffffffffffffffff\n      and\n      0x74aeb3a73c6cebe2ddfb681c384e0117cc8dd5e93900b3b1507dee33c2603841\n        /* \"Contract/KYCManager.sol\":1350:1354  name */\n      dup7\n        /* \"Contract/KYCManager.sol\":1356:1367  nationality */\n      dup6\n        /* \"Contract/KYCManager.sol\":1325:1368  KYCSubmitted(msg.sender, name, nationality) */\n      mload(0x40)\n      tag_70\n      swap3\n      swap2\n      swap1\n      tag_71\n      jump\t// in\n    tag_70:\n      mload(0x40)\n      dup1\n      swap2\n      sub\n      swap1\n      log2\n        /* \"Contract/KYCManager.sol\":554:1375  function submitKYC(... */\n      pop\n      pop\n      pop\n      pop\n      pop\n      jump\t// out\n        /* \"Contract/KYCManager.sol\":1668:1782  function isUserVerified(address user) public view returns (bool) {... */\n    tag_26:\n        /* \"Contract/KYCManager.sol\":1727:1731  bool */\n      0x00\n        /* \"Contract/KYCManager.sol\":1750:1758  _userKYC */\n      0x01\n        /* \"Contract/KYCManager.sol\":1750:1764  _userKYC[user] */\n      0x00\n        /* \"Contract/KYCManager.sol\":1759:1763  user */\n      dup4\n        /* \"Contract/KYCManager.sol\":1750:1764  _userKYC[user] */\n      0xffffffffffffffffffffffffffffffffffffffff\n      and\n      0xffffffffffffffffffffffffffffffffffffffff\n      and\n      dup2\n      mstore\n      0x20\n      add\n      swap1\n      dup2\n      mstore\n      0x20\n      add\n      0x00\n      keccak256\n        /* \"Contract/KYCManager.sol\":1750:1775  _userKYC[user].isVerified */\n      0x05\n      add\n      0x00\n      swap1\n      sload\n      swap1\n      0x0100\n      exp\n      swap1\n      div\n      0xff\n      and\n        /* \"Contract/KYCManager.sol\":1743:1775  return _userKYC[user].isVerified */\n      swap1\n      pop\n        /* \"Contract/KYCManager.sol\":1668:1782  function isUserVerified(address user) public view returns (bool) {... */\n      swap2\n      swap1\n      pop\n      jump\t// out\n        /* \"@openzeppelin/contracts/access/Ownable.sol\":2543:2758  function transferOwnership(address newOwner) public virtual onlyOwner {... */\n    tag_31:\n        /* \"@openzeppelin/contracts/access/Ownable.sol\":1531:1544  _checkOwner() */\n      tag_74\n        /* \"@openzeppelin/contracts/access/Ownable.sol\":1531:1542  _checkOwner */\n      tag_34\n        /* \"@openzeppelin/contracts/access/Ownable.sol\":1531:1544  _checkOwner() */\n      jump\t// in\n    tag_74:\n        /* \"@openzeppelin/contracts/access/Ownable.sol\":2647:2648  0 */\n      0x00\n        /* \"@openzeppelin/contracts/access/Ownable.sol\":2627:2649  newOwner == address(0) */\n      0xffffffffffffffffffffffffffffffffffffffff\n      and\n        /* \"@openzeppelin/contracts/access/Ownable.sol\":2627:2635  newOwner */\n      dup2\n        /* \"@openzeppelin/contracts/access/Ownable.sol\":2627:2649  newOwner == address(0) */\n      0xffffffffffffffffffffffffffffffffffffffff\n      and\n      sub\n        /* \"@openzeppelin/contracts/access/Ownable.sol\":2623:2714  if (newOwner == address(0)) {... */\n      tag_76\n      jumpi\n        /* \"@openzeppelin/contracts/access/Ownable.sol\":2700:2701  0 */\n      0x00\n        /* \"@openzeppelin/contracts/access/Ownable.sol\":2672:2703  OwnableInvalidOwner(address(0)) */\n      mload(0x40)\n      0x1e4fbdf700000000000000000000000000000000000000000000000000000000\n      dup2\n      mstore\n      0x04\n      add\n      tag_77\n      swap2\n      swap1\n      tag_18\n      jump\t// in\n    tag_77:\n      mload(0x40)\n      dup1\n      swap2\n      sub\n      swap1\n      revert\n        /* \"@openzeppelin/contracts/access/Ownable.sol\":2623:2714  if (newOwner == address(0)) {... */\n    tag_76:\n        /* \"@openzeppelin/contracts/access/Ownable.sol\":2723:2751  _transferOwnership(newOwner) */\n      tag_78\n        /* \"@openzeppelin/contracts/access/Ownable.sol\":2742:2750  newOwner */\n      dup2\n        /* \"@openzeppelin/contracts/access/Ownable.sol\":2723:2741  _transferOwnership */\n      tag_46\n        /* \"@openzeppelin/contracts/access/Ownable.sol\":2723:2751  _transferOwnership(newOwner) */\n      jump\t// in\n    tag_78:\n        /* \"@openzeppelin/contracts/access/Ownable.sol\":2543:2758  function transferOwnership(address newOwner) public virtual onlyOwner {... */\n      pop\n      jump\t// out\n        /* \"@openzeppelin/contracts/access/Ownable.sol\":1796:1958  function _checkOwner() internal view virtual {... */\n    tag_34:\n        /* \"@openzeppelin/contracts/access/Ownable.sol\":1866:1878  _msgSender() */\n      tag_80\n        /* \"@openzeppelin/contracts/access/Ownable.sol\":1866:1876  _msgSender */\n      tag_81\n        /* \"@openzeppelin/contracts/access/Ownable.sol\":1866:1878  _msgSender() */\n      jump\t// in\n    tag_80:\n        /* \"@openzeppelin/contracts/access/Ownable.sol\":1855:1878  owner() != _msgSender() */\n      0xffffffffffffffffffffffffffffffffffffffff\n      and\n        /* \"@openzeppelin/contracts/access/Ownable.sol\":1855:1862  owner() */\n      tag_82\n        /* \"@openzeppelin/contracts/access/Ownable.sol\":1855:1860  owner */\n      tag_16\n        /* \"@openzeppelin/contracts/access/Ownable.sol\":1855:1862  owner() */\n      jump\t// in\n    tag_82:\n        /* \"@openzeppelin/contracts/access/Ownable.sol\":1855:1878  owner() != _msgSender() */\n      0xffffffffffffffffffffffffffffffffffffffff\n      and\n      eq\n        /* \"@openzeppelin/contracts/access/Ownable.sol\":1851:1952  if (owner() != _msgSender()) {... */\n      tag_83\n      jumpi\n        /* \"@openzeppelin/contracts/access/Ownable.sol\":1928:1940  _msgSender() */\n      tag_84\n        /* \"@openzeppelin/contracts/access/Ownable.sol\":1928:1938  _msgSender */\n      tag_81\n        /* \"@openzeppelin/contracts/access/Ownable.sol\":1928:1940  _msgSender() */\n      jump\t// in\n    tag_84:\n        /* \"@openzeppelin/contracts/access/Ownable.sol\":1901:1941  OwnableUnauthorizedAccount(_msgSender()) */\n      mload(0x40)\n      0x118cdaa700000000000000000000000000000000000000000000000000000000\n      dup2\n      mstore\n      0x04\n      add\n      tag_85\n      swap2\n      swap1\n      tag_18\n      jump\t// in\n    tag_85:\n      mload(0x40)\n      dup1\n      swap2\n      sub\n      swap1\n      revert\n        /* \"@openzeppelin/contracts/access/Ownable.sol\":1851:1952  if (owner() != _msgSender()) {... */\n    tag_83:\n        /* \"@openzeppelin/contracts/access/Ownable.sol\":1796:1958  function _checkOwner() internal view virtual {... */\n      jump\t// out\n        /* \"@openzeppelin/contracts/access/Ownable.sol\":2912:3099  function _transferOwnership(address newOwner) internal virtual {... */\n    tag_46:\n        /* \"@openzeppelin/contracts/access/Ownable.sol\":2985:3001  address oldOwner */\n      0x00\n        /* \"@openzeppelin/contracts/access/Ownable.sol\":3004:3010  _owner */\n      0x00\n      0x00\n      swap1\n      sload\n      swap1\n      0x0100\n      exp\n      swap1\n      div\n      0xffffffffffffffffffffffffffffffffffffffff\n      and\n        /* \"@openzeppelin/contracts/access/Ownable.sol\":2985:3010  address oldOwner = _owner */\n      swap1\n      pop\n        /* \"@openzeppelin/contracts/access/Ownable.sol\":3029:3037  newOwner */\n      dup2\n        /* \"@openzeppelin/contracts/access/Ownable.sol\":3020:3026  _owner */\n      0x00\n      0x00\n        /* \"@openzeppelin/contracts/access/Ownable.sol\":3020:3037  _owner = newOwner */\n      0x0100\n      exp\n      dup2\n      sload\n      dup2\n      0xffffffffffffffffffffffffffffffffffffffff\n      mul\n      not\n      and\n      swap1\n      dup4\n      0xffffffffffffffffffffffffffffffffffffffff\n      and\n      mul\n      or\n      swap1\n      sstore\n      pop\n        /* \"@openzeppelin/contracts/access/Ownable.sol\":3083:3091  newOwner */\n      dup2\n        /* \"@openzeppelin/contracts/access/Ownable.sol\":3052:3092  OwnershipTransferred(oldOwner, newOwner) */\n      0xffffffffffffffffffffffffffffffffffffffff\n      and\n        /* \"@openzeppelin/contracts/access/Ownable.sol\":3073:3081  oldOwner */\n      dup2\n        /* \"@openzeppelin/contracts/access/Ownable.sol\":3052:3092  OwnershipTransferred(oldOwner, newOwner) */\n      0xffffffffffffffffffffffffffffffffffffffff\n      and\n      0x8be0079c531659141344cd1fd0a4f28419497f9722a3daafe3b4186f6b6457e0\n      mload(0x40)\n      mload(0x40)\n      dup1\n      swap2\n      sub\n      swap1\n      log3\n        /* \"@openzeppelin/contracts/access/Ownable.sol\":2975:3099  {... */\n      pop\n        /* \"@openzeppelin/contracts/access/Ownable.sol\":2912:3099  function _transferOwnership(address newOwner) internal virtual {... */\n      pop\n      jump\t// out\n        /* \"@openzeppelin/contracts/utils/Context.sol\":656:752  function _msgSender() internal view virtual returns (address) {... */\n    tag_81:\n        /* \"@openzeppelin/contracts/utils/Context.sol\":709:716  address */\n      0x00\n        /* \"@openzeppelin/contracts/utils/Context.sol\":735:745  msg.sender */\n      caller\n        /* \"@openzeppelin/contracts/utils/Context.sol\":728:745  return msg.sender */\n      swap1\n      pop\n        /* \"@openzeppelin/contracts/utils/Context.sol\":656:752  function _msgSender() internal view virtual returns (address) {... */\n      swap1\n      jump\t// out\n        /* \"#utility.yul\":7:82   */\n    tag_88:\n        /* \"#utility.yul\":40:46   */\n      0x00\n        /* \"#utility.yul\":73:75   */\n      0x40\n        /* \"#utility.yul\":67:76   */\n      mload\n        /* \"#utility.yul\":57:76   */\n      swap1\n      pop\n        /* \"#utility.yul\":7:82   */\n      swap1\n      jump\t// out\n        /* \"#utility.yul\":88:205   */\n    tag_89:\n        /* \"#utility.yul\":197:198   */\n      0x00\n        /* \"#utility.yul\":194:195   */\n      0x00\n        /* \"#utility.yul\":187:199   */\n      revert\n        /* \"#utility.yul\":211:328   */\n    tag_90:\n        /* \"#utility.yul\":320:321   */\n      0x00\n        /* \"#utility.yul\":317:318   */\n      0x00\n        /* \"#utility.yul\":310:322   */\n      revert\n        /* \"#utility.yul\":334:460   */\n    tag_91:\n        /* \"#utility.yul\":371:378   */\n      0x00\n        /* \"#utility.yul\":411:453   */\n      0xffffffffffffffffffffffffffffffffffffffff\n        /* \"#utility.yul\":404:409   */\n      dup3\n        /* \"#utility.yul\":400:454   */\n      and\n        /* \"#utility.yul\":389:454   */\n      swap1\n      pop\n        /* \"#utility.yul\":334:460   */\n      swap2\n      swap1\n      pop\n      jump\t// out\n        /* \"#utility.yul\":466:562   */\n    tag_92:\n        /* \"#utility.yul\":503:510   */\n      0x00\n        /* \"#utility.yul\":532:556   */\n      tag_149\n        /* \"#utility.yul\":550:555   */\n      dup3\n        /* \"#utility.yul\":532:556   */\n      tag_91\n      jump\t// in\n    tag_149:\n        /* \"#utility.yul\":521:556   */\n      swap1\n      pop\n        /* \"#utility.yul\":466:562   */\n      swap2\n      swap1\n      pop\n      jump\t// out\n        /* \"#utility.yul\":568:690   */\n    tag_93:\n        /* \"#utility.yul\":641:665   */\n      tag_151\n        /* \"#utility.yul\":659:664   */\n      dup2\n        /* \"#utility.yul\":641:665   */\n      tag_92\n      jump\t// in\n    tag_151:\n        /* \"#utility.yul\":634:639   */\n      dup2\n        /* \"#utility.yul\":631:666   */\n      eq\n        /* \"#utility.yul\":621:684   */\n      tag_152\n      jumpi\n        /* \"#utility.yul\":680:681   */\n      0x00\n        /* \"#utility.yul\":677:678   */\n      0x00\n        /* \"#utility.yul\":670:682   */\n      revert\n        /* \"#utility.yul\":621:684   */\n    tag_152:\n        /* \"#utility.yul\":568:690   */\n      pop\n      jump\t// out\n        /* \"#utility.yul\":696:835   */\n    tag_94:\n        /* \"#utility.yul\":742:747   */\n      0x00\n        /* \"#utility.yul\":780:786   */\n      dup2\n        /* \"#utility.yul\":767:787   */\n      calldataload\n        /* \"#utility.yul\":758:787   */\n      swap1\n      pop\n        /* \"#utility.yul\":796:829   */\n      tag_154\n        /* \"#utility.yul\":823:828   */\n      dup2\n        /* \"#utility.yul\":796:829   */\n      tag_93\n      jump\t// in\n    tag_154:\n        /* \"#utility.yul\":696:835   */\n      swap3\n      swap2\n      pop\n      pop\n      jump\t// out\n        /* \"#utility.yul\":841:931   */\n    tag_95:\n        /* \"#utility.yul\":875:882   */\n      0x00\n        /* \"#utility.yul\":918:923   */\n      dup2\n        /* \"#utility.yul\":911:924   */\n      iszero\n        /* \"#utility.yul\":904:925   */\n      iszero\n        /* \"#utility.yul\":893:925   */\n      swap1\n      pop\n        /* \"#utility.yul\":841:931   */\n      swap2\n      swap1\n      pop\n      jump\t// out\n        /* \"#utility.yul\":937:1053   */\n    tag_96:\n        /* \"#utility.yul\":1007:1028   */\n      tag_157\n        /* \"#utility.yul\":1022:1027   */\n      dup2\n        /* \"#utility.yul\":1007:1028   */\n      tag_95\n      jump\t// in\n    tag_157:\n        /* \"#utility.yul\":1000:1005   */\n      dup2\n        /* \"#utility.yul\":997:1029   */\n      eq\n        /* \"#utility.yul\":987:1047   */\n      tag_158\n      jumpi\n        /* \"#utility.yul\":1043:1044   */\n      0x00\n        /* \"#utility.yul\":1040:1041   */\n      0x00\n        /* \"#utility.yul\":1033:1045   */\n      revert\n        /* \"#utility.yul\":987:1047   */\n    tag_158:\n        /* \"#utility.yul\":937:1053   */\n      pop\n      jump\t// out\n        /* \"#utility.yul\":1059:1192   */\n    tag_97:\n        /* \"#utility.yul\":1102:1107   */\n      0x00\n        /* \"#utility.yul\":1140:1146   */\n      dup2\n        /* \"#utility.yul\":1127:1147   */\n      calldataload\n        /* \"#utility.yul\":1118:1147   */\n      swap1\n      pop\n        /* \"#utility.yul\":1156:1186   */\n      tag_160\n        /* \"#utility.yul\":1180:1185   */\n      dup2\n        /* \"#utility.yul\":1156:1186   */\n      tag_96\n      jump\t// in\n    tag_160:\n        /* \"#utility.yul\":1059:1192   */\n      swap3\n      swap2\n      pop\n      pop\n      jump\t// out\n        /* \"#utility.yul\":1198:1666   */\n    tag_11:\n        /* \"#utility.yul\":1263:1269   */\n      0x00\n        /* \"#utility.yul\":1271:1277   */\n      0x00\n        /* \"#utility.yul\":1320:1322   */\n      0x40\n        /* \"#utility.yul\":1308:1317   */\n      dup4\n        /* \"#utility.yul\":1299:1306   */\n      dup6\n        /* \"#utility.yul\":1295:1318   */\n      sub\n        /* \"#utility.yul\":1291:1323   */\n      slt\n        /* \"#utility.yul\":1288:1407   */\n      iszero\n      tag_162\n      jumpi\n        /* \"#utility.yul\":1326:1405   */\n      tag_163\n      tag_89\n      jump\t// in\n    tag_163:\n        /* \"#utility.yul\":1288:1407   */\n    tag_162:\n        /* \"#utility.yul\":1446:1447   */\n      0x00\n        /* \"#utility.yul\":1471:1524   */\n      tag_164\n        /* \"#utility.yul\":1516:1523   */\n      dup6\n        /* \"#utility.yul\":1507:1513   */\n      dup3\n        /* \"#utility.yul\":1496:1505   */\n      dup7\n        /* \"#utility.yul\":1492:1514   */\n      add\n        /* \"#utility.yul\":1471:1524   */\n      tag_94\n      jump\t// in\n    tag_164:\n        /* \"#utility.yul\":1461:1524   */\n      swap3\n      pop\n        /* \"#utility.yul\":1417:1534   */\n      pop\n        /* \"#utility.yul\":1573:1575   */\n      0x20\n        /* \"#utility.yul\":1599:1649   */\n      tag_165\n        /* \"#utility.yul\":1641:1648   */\n      dup6\n        /* \"#utility.yul\":1632:1638   */\n      dup3\n        /* \"#utility.yul\":1621:1630   */\n      dup7\n        /* \"#utility.yul\":1617:1639   */\n      add\n        /* \"#utility.yul\":1599:1649   */\n      tag_97\n      jump\t// in\n    tag_165:\n        /* \"#utility.yul\":1589:1649   */\n      swap2\n      pop\n        /* \"#utility.yul\":1544:1659   */\n      pop\n        /* \"#utility.yul\":1198:1666   */\n      swap3\n      pop\n      swap3\n      swap1\n      pop\n      jump\t// out\n        /* \"#utility.yul\":1672:1790   */\n    tag_98:\n        /* \"#utility.yul\":1759:1783   */\n      tag_167\n        /* \"#utility.yul\":1777:1782   */\n      dup2\n        /* \"#utility.yul\":1759:1783   */\n      tag_92\n      jump\t// in\n    tag_167:\n        /* \"#utility.yul\":1754:1757   */\n      dup3\n        /* \"#utility.yul\":1747:1784   */\n      mstore\n        /* \"#utility.yul\":1672:1790   */\n      pop\n      pop\n      jump\t// out\n        /* \"#utility.yul\":1796:2018   */\n    tag_18:\n        /* \"#utility.yul\":1889:1893   */\n      0x00\n        /* \"#utility.yul\":1927:1929   */\n      0x20\n        /* \"#utility.yul\":1916:1925   */\n      dup3\n        /* \"#utility.yul\":1912:1930   */\n      add\n        /* \"#utility.yul\":1904:1930   */\n      swap1\n      pop\n        /* \"#utility.yul\":1940:2011   */\n      tag_169\n        /* \"#utility.yul\":2008:2009   */\n      0x00\n        /* \"#utility.yul\":1997:2006   */\n      dup4\n        /* \"#utility.yul\":1993:2010   */\n      add\n        /* \"#utility.yul\":1984:1990   */\n      dup5\n        /* \"#utility.yul\":1940:2011   */\n      tag_98\n      jump\t// in\n    tag_169:\n        /* \"#utility.yul\":1796:2018   */\n      swap3\n      swap2\n      pop\n      pop\n      jump\t// out\n        /* \"#utility.yul\":2024:2141   */\n    tag_99:\n        /* \"#utility.yul\":2133:2134   */\n      0x00\n        /* \"#utility.yul\":2130:2131   */\n      0x00\n        /* \"#utility.yul\":2123:2135   */\n      revert\n        /* \"#utility.yul\":2147:2264   */\n    tag_100:\n        /* \"#utility.yul\":2256:2257   */\n      0x00\n        /* \"#utility.yul\":2253:2254   */\n      0x00\n        /* \"#utility.yul\":2246:2258   */\n      revert\n        /* \"#utility.yul\":2270:2372   */\n    tag_101:\n        /* \"#utility.yul\":2311:2317   */\n      0x00\n        /* \"#utility.yul\":2362:2364   */\n      0x1f\n        /* \"#utility.yul\":2358:2365   */\n      not\n        /* \"#utility.yul\":2353:2355   */\n      0x1f\n        /* \"#utility.yul\":2346:2351   */\n      dup4\n        /* \"#utility.yul\":2342:2356   */\n      add\n        /* \"#utility.yul\":2338:2366   */\n      and\n        /* \"#utility.yul\":2328:2366   */\n      swap1\n      pop\n        /* \"#utility.yul\":2270:2372   */\n      swap2\n      swap1\n      pop\n      jump\t// out\n        /* \"#utility.yul\":2378:2558   */\n    tag_102:\n        /* \"#utility.yul\":2426:2503   */\n      0x4e487b7100000000000000000000000000000000000000000000000000000000\n        /* \"#utility.yul\":2423:2424   */\n      0x00\n        /* \"#utility.yul\":2416:2504   */\n      mstore\n        /* \"#utility.yul\":2523:2527   */\n      0x41\n        /* \"#utility.yul\":2520:2521   */\n      0x04\n        /* \"#utility.yul\":2513:2528   */\n      mstore\n        /* \"#utility.yul\":2547:2551   */\n      0x24\n        /* \"#utility.yul\":2544:2545   */\n      0x00\n        /* \"#utility.yul\":2537:2552   */\n      revert\n        /* \"#utility.yul\":2564:2845   */\n    tag_103:\n        /* \"#utility.yul\":2647:2674   */\n      tag_175\n        /* \"#utility.yul\":2669:2673   */\n      dup3\n        /* \"#utility.yul\":2647:2674   */\n      tag_101\n      jump\t// in\n    tag_175:\n        /* \"#utility.yul\":2639:2645   */\n      dup2\n        /* \"#utility.yul\":2635:2675   */\n      add\n        /* \"#utility.yul\":2777:2783   */\n      dup2\n        /* \"#utility.yul\":2765:2775   */\n      dup2\n        /* \"#utility.yul\":2762:2784   */\n      lt\n        /* \"#utility.yul\":2741:2759   */\n      0xffffffffffffffff\n        /* \"#utility.yul\":2729:2739   */\n      dup3\n        /* \"#utility.yul\":2726:2760   */\n      gt\n        /* \"#utility.yul\":2723:2785   */\n      or\n        /* \"#utility.yul\":2720:2808   */\n      iszero\n      tag_176\n      jumpi\n        /* \"#utility.yul\":2788:2806   */\n      tag_177\n      tag_102\n      jump\t// in\n    tag_177:\n        /* \"#utility.yul\":2720:2808   */\n    tag_176:\n        /* \"#utility.yul\":2828:2838   */\n      dup1\n        /* \"#utility.yul\":2824:2826   */\n      0x40\n        /* \"#utility.yul\":2817:2839   */\n      mstore\n        /* \"#utility.yul\":2607:2845   */\n      pop\n        /* \"#utility.yul\":2564:2845   */\n      pop\n      pop\n      jump\t// out\n        /* \"#utility.yul\":2851:2980   */\n    tag_104:\n        /* \"#utility.yul\":2885:2891   */\n      0x00\n        /* \"#utility.yul\":2912:2932   */\n      tag_179\n      tag_88\n      jump\t// in\n    tag_179:\n        /* \"#utility.yul\":2902:2932   */\n      swap1\n      pop\n        /* \"#utility.yul\":2941:2974   */\n      tag_180\n        /* \"#utility.yul\":2969:2973   */\n      dup3\n        /* \"#utility.yul\":2961:2967   */\n      dup3\n        /* \"#utility.yul\":2941:2974   */\n      tag_103\n      jump\t// in\n    tag_180:\n        /* \"#utility.yul\":2851:2980   */\n      swap2\n      swap1\n      pop\n      jump\t// out\n        /* \"#utility.yul\":2986:3294   */\n    tag_105:\n        /* \"#utility.yul\":3048:3052   */\n      0x00\n        /* \"#utility.yul\":3138:3156   */\n      0xffffffffffffffff\n        /* \"#utility.yul\":3130:3136   */\n      dup3\n        /* \"#utility.yul\":3127:3157   */\n      gt\n        /* \"#utility.yul\":3124:3180   */\n      iszero\n      tag_182\n      jumpi\n        /* \"#utility.yul\":3160:3178   */\n      tag_183\n      tag_102\n      jump\t// in\n    tag_183:\n        /* \"#utility.yul\":3124:3180   */\n    tag_182:\n        /* \"#utility.yul\":3198:3227   */\n      tag_184\n        /* \"#utility.yul\":3220:3226   */\n      dup3\n        /* \"#utility.yul\":3198:3227   */\n      tag_101\n      jump\t// in\n    tag_184:\n        /* \"#utility.yul\":3190:3227   */\n      swap1\n      pop\n        /* \"#utility.yul\":3282:3286   */\n      0x20\n        /* \"#utility.yul\":3276:3280   */\n      dup2\n        /* \"#utility.yul\":3272:3287   */\n      add\n        /* \"#utility.yul\":3264:3287   */\n      swap1\n      pop\n        /* \"#utility.yul\":2986:3294   */\n      swap2\n      swap1\n      pop\n      jump\t// out\n        /* \"#utility.yul\":3300:3448   */\n    tag_106:\n        /* \"#utility.yul\":3398:3404   */\n      dup3\n        /* \"#utility.yul\":3393:3396   */\n      dup2\n        /* \"#utility.yul\":3388:3391   */\n      dup4\n        /* \"#utility.yul\":3375:3405   */\n      calldatacopy\n        /* \"#utility.yul\":3439:3440   */\n      0x00\n        /* \"#utility.yul\":3430:3436   */\n      dup4\n        /* \"#utility.yul\":3425:3428   */\n      dup4\n        /* \"#utility.yul\":3421:3437   */\n      add\n        /* \"#utility.yul\":3414:3441   */\n      mstore\n        /* \"#utility.yul\":3300:3448   */\n      pop\n      pop\n      pop\n      jump\t// out\n        /* \"#utility.yul\":3454:3879   */\n    tag_107:\n        /* \"#utility.yul\":3532:3537   */\n      0x00\n        /* \"#utility.yul\":3557:3623   */\n      tag_187\n        /* \"#utility.yul\":3573:3622   */\n      tag_188\n        /* \"#utility.yul\":3615:3621   */\n      dup5\n        /* \"#utility.yul\":3573:3622   */\n      tag_105\n      jump\t// in\n    tag_188:\n        /* \"#utility.yul\":3557:3623   */\n      tag_104\n      jump\t// in\n    tag_187:\n        /* \"#utility.yul\":3548:3623   */\n      swap1\n      pop\n        /* \"#utility.yul\":3646:3652   */\n      dup3\n        /* \"#utility.yul\":3639:3644   */\n      dup2\n        /* \"#utility.yul\":3632:3653   */\n      mstore\n        /* \"#utility.yul\":3684:3688   */\n      0x20\n        /* \"#utility.yul\":3677:3682   */\n      dup2\n        /* \"#utility.yul\":3673:3689   */\n      add\n        /* \"#utility.yul\":3722:3725   */\n      dup5\n        /* \"#utility.yul\":3713:3719   */\n      dup5\n        /* \"#utility.yul\":3708:3711   */\n      dup5\n        /* \"#utility.yul\":3704:3720   */\n      add\n        /* \"#utility.yul\":3701:3726   */\n      gt\n        /* \"#utility.yul\":3698:3810   */\n      iszero\n      tag_189\n      jumpi\n        /* \"#utility.yul\":3729:3808   */\n      tag_190\n      tag_100\n      jump\t// in\n    tag_190:\n        /* \"#utility.yul\":3698:3810   */\n    tag_189:\n        /* \"#utility.yul\":3819:3873   */\n      tag_191\n        /* \"#utility.yul\":3866:3872   */\n      dup5\n        /* \"#utility.yul\":3861:3864   */\n      dup3\n        /* \"#utility.yul\":3856:3859   */\n      dup6\n        /* \"#utility.yul\":3819:3873   */\n      tag_106\n      jump\t// in\n    tag_191:\n        /* \"#utility.yul\":3538:3879   */\n      pop\n        /* \"#utility.yul\":3454:3879   */\n      swap4\n      swap3\n      pop\n      pop\n      pop\n      jump\t// out\n        /* \"#utility.yul\":3899:4239   */\n    tag_108:\n        /* \"#utility.yul\":3955:3960   */\n      0x00\n        /* \"#utility.yul\":4004:4007   */\n      dup3\n        /* \"#utility.yul\":3997:4001   */\n      0x1f\n        /* \"#utility.yul\":3989:3995   */\n      dup4\n        /* \"#utility.yul\":3985:4002   */\n      add\n        /* \"#utility.yul\":3981:4008   */\n      slt\n        /* \"#utility.yul\":3971:4093   */\n      tag_193\n      jumpi\n        /* \"#utility.yul\":4012:4091   */\n      tag_194\n      tag_99\n      jump\t// in\n    tag_194:\n        /* \"#utility.yul\":3971:4093   */\n    tag_193:\n        /* \"#utility.yul\":4129:4135   */\n      dup2\n        /* \"#utility.yul\":4116:4136   */\n      calldataload\n        /* \"#utility.yul\":4154:4233   */\n      tag_195\n        /* \"#utility.yul\":4229:4232   */\n      dup5\n        /* \"#utility.yul\":4221:4227   */\n      dup3\n        /* \"#utility.yul\":4214:4218   */\n      0x20\n        /* \"#utility.yul\":4206:4212   */\n      dup7\n        /* \"#utility.yul\":4202:4219   */\n      add\n        /* \"#utility.yul\":4154:4233   */\n      tag_107\n      jump\t// in\n    tag_195:\n        /* \"#utility.yul\":4145:4233   */\n      swap2\n      pop\n        /* \"#utility.yul\":3961:4239   */\n      pop\n        /* \"#utility.yul\":3899:4239   */\n      swap3\n      swap2\n      pop\n      pop\n      jump\t// out\n        /* \"#utility.yul\":4245:6056   */\n    tag_21:\n        /* \"#utility.yul\":4390:4396   */\n      0x00\n        /* \"#utility.yul\":4398:4404   */\n      0x00\n        /* \"#utility.yul\":4406:4412   */\n      0x00\n        /* \"#utility.yul\":4414:4420   */\n      0x00\n        /* \"#utility.yul\":4422:4428   */\n      0x00\n        /* \"#utility.yul\":4471:4474   */\n      0xa0\n        /* \"#utility.yul\":4459:4468   */\n      dup7\n        /* \"#utility.yul\":4450:4457   */\n      dup9\n        /* \"#utility.yul\":4446:4469   */\n      sub\n        /* \"#utility.yul\":4442:4475   */\n      slt\n        /* \"#utility.yul\":4439:4559   */\n      iszero\n      tag_197\n      jumpi\n        /* \"#utility.yul\":4478:4557   */\n      tag_198\n      tag_89\n      jump\t// in\n    tag_198:\n        /* \"#utility.yul\":4439:4559   */\n    tag_197:\n        /* \"#utility.yul\":4626:4627   */\n      0x00\n        /* \"#utility.yul\":4615:4624   */\n      dup7\n        /* \"#utility.yul\":4611:4628   */\n      add\n        /* \"#utility.yul\":4598:4629   */\n      calldataload\n        /* \"#utility.yul\":4656:4674   */\n      0xffffffffffffffff\n        /* \"#utility.yul\":4648:4654   */\n      dup2\n        /* \"#utility.yul\":4645:4675   */\n      gt\n        /* \"#utility.yul\":4642:4759   */\n      iszero\n      tag_199\n      jumpi\n        /* \"#utility.yul\":4678:4757   */\n      tag_200\n      tag_90\n      jump\t// in\n    tag_200:\n        /* \"#utility.yul\":4642:4759   */\n    tag_199:\n        /* \"#utility.yul\":4783:4846   */\n      tag_201\n        /* \"#utility.yul\":4838:4845   */\n      dup9\n        /* \"#utility.yul\":4829:4835   */\n      dup3\n        /* \"#utility.yul\":4818:4827   */\n      dup10\n        /* \"#utility.yul\":4814:4836   */\n      add\n        /* \"#utility.yul\":4783:4846   */\n      tag_108\n      jump\t// in\n    tag_201:\n        /* \"#utility.yul\":4773:4846   */\n      swap6\n      pop\n        /* \"#utility.yul\":4569:4856   */\n      pop\n        /* \"#utility.yul\":4923:4925   */\n      0x20\n        /* \"#utility.yul\":4912:4921   */\n      dup7\n        /* \"#utility.yul\":4908:4926   */\n      add\n        /* \"#utility.yul\":4895:4927   */\n      calldataload\n        /* \"#utility.yul\":4954:4972   */\n      0xffffffffffffffff\n        /* \"#utility.yul\":4946:4952   */\n      dup2\n        /* \"#utility.yul\":4943:4973   */\n      gt\n        /* \"#utility.yul\":4940:5057   */\n      iszero\n      tag_202\n      jumpi\n        /* \"#utility.yul\":4976:5055   */\n      tag_203\n      tag_90\n      jump\t// in\n    tag_203:\n        /* \"#utility.yul\":4940:5057   */\n    tag_202:\n        /* \"#utility.yul\":5081:5144   */\n      tag_204\n        /* \"#utility.yul\":5136:5143   */\n      dup9\n        /* \"#utility.yul\":5127:5133   */\n      dup3\n        /* \"#utility.yul\":5116:5125   */\n      dup10\n        /* \"#utility.yul\":5112:5134   */\n      add\n        /* \"#utility.yul\":5081:5144   */\n      tag_108\n      jump\t// in\n    tag_204:\n        /* \"#utility.yul\":5071:5144   */\n      swap5\n      pop\n        /* \"#utility.yul\":4866:5154   */\n      pop\n        /* \"#utility.yul\":5221:5223   */\n      0x40\n        /* \"#utility.yul\":5210:5219   */\n      dup7\n        /* \"#utility.yul\":5206:5224   */\n      add\n        /* \"#utility.yul\":5193:5225   */\n      calldataload\n        /* \"#utility.yul\":5252:5270   */\n      0xffffffffffffffff\n        /* \"#utility.yul\":5244:5250   */\n      dup2\n        /* \"#utility.yul\":5241:5271   */\n      gt\n        /* \"#utility.yul\":5238:5355   */\n      iszero\n      tag_205\n      jumpi\n        /* \"#utility.yul\":5274:5353   */\n      tag_206\n      tag_90\n      jump\t// in\n    tag_206:\n        /* \"#utility.yul\":5238:5355   */\n    tag_205:\n        /* \"#utility.yul\":5379:5442   */\n      tag_207\n        /* \"#utility.yul\":5434:5441   */\n      dup9\n        /* \"#utility.yul\":5425:5431   */\n      dup3\n        /* \"#utility.yul\":5414:5423   */\n      dup10\n        /* \"#utility.yul\":5410:5432   */\n      add\n        /* \"#utility.yul\":5379:5442   */\n      tag_108\n      jump\t// in\n    tag_207:\n        /* \"#utility.yul\":5369:5442   */\n      swap4\n      pop\n        /* \"#utility.yul\":5164:5452   */\n      pop\n        /* \"#utility.yul\":5519:5521   */\n      0x60\n        /* \"#utility.yul\":5508:5517   */\n      dup7\n        /* \"#utility.yul\":5504:5522   */\n      add\n        /* \"#utility.yul\":5491:5523   */\n      calldataload\n        /* \"#utility.yul\":5550:5568   */\n      0xffffffffffffffff\n        /* \"#utility.yul\":5542:5548   */\n      dup2\n        /* \"#utility.yul\":5539:5569   */\n      gt\n        /* \"#utility.yul\":5536:5653   */\n      iszero\n      tag_208\n      jumpi\n        /* \"#utility.yul\":5572:5651   */\n      tag_209\n      tag_90\n      jump\t// in\n    tag_209:\n        /* \"#utility.yul\":5536:5653   */\n    tag_208:\n        /* \"#utility.yul\":5677:5740   */\n      tag_210\n        /* \"#utility.yul\":5732:5739   */\n      dup9\n        /* \"#utility.yul\":5723:5729   */\n      dup3\n        /* \"#utility.yul\":5712:5721   */\n      dup10\n        /* \"#utility.yul\":5708:5730   */\n      add\n        /* \"#utility.yul\":5677:5740   */\n      tag_108\n      jump\t// in\n    tag_210:\n        /* \"#utility.yul\":5667:5740   */\n      swap3\n      pop\n        /* \"#utility.yul\":5462:5750   */\n      pop\n        /* \"#utility.yul\":5817:5820   */\n      0x80\n        /* \"#utility.yul\":5806:5815   */\n      dup7\n        /* \"#utility.yul\":5802:5821   */\n      add\n        /* \"#utility.yul\":5789:5822   */\n      calldataload\n        /* \"#utility.yul\":5849:5867   */\n      0xffffffffffffffff\n        /* \"#utility.yul\":5841:5847   */\n      dup2\n        /* \"#utility.yul\":5838:5868   */\n      gt\n        /* \"#utility.yul\":5835:5952   */\n      iszero\n      tag_211\n      jumpi\n        /* \"#utility.yul\":5871:5950   */\n      tag_212\n      tag_90\n      jump\t// in\n    tag_212:\n        /* \"#utility.yul\":5835:5952   */\n    tag_211:\n        /* \"#utility.yul\":5976:6039   */\n      tag_213\n        /* \"#utility.yul\":6031:6038   */\n      dup9\n        /* \"#utility.yul\":6022:6028   */\n      dup3\n        /* \"#utility.yul\":6011:6020   */\n      dup10\n        /* \"#utility.yul\":6007:6029   */\n      add\n        /* \"#utility.yul\":5976:6039   */\n      tag_108\n      jump\t// in\n    tag_213:\n        /* \"#utility.yul\":5966:6039   */\n      swap2\n      pop\n        /* \"#utility.yul\":5760:6049   */\n      pop\n        /* \"#utility.yul\":4245:6056   */\n      swap3\n      swap6\n      pop\n      swap3\n      swap6\n      swap1\n      swap4\n      pop\n      jump\t// out\n        /* \"#utility.yul\":6062:6391   */\n    tag_25:\n        /* \"#utility.yul\":6121:6127   */\n      0x00\n        /* \"#utility.yul\":6170:6172   */\n      0x20\n        /* \"#utility.yul\":6158:6167   */\n      dup3\n        /* \"#utility.yul\":6149:6156   */\n      dup5\n        /* \"#utility.yul\":6145:6168   */\n      sub\n        /* \"#utility.yul\":6141:6173   */\n      slt\n        /* \"#utility.yul\":6138:6257   */\n      iszero\n      tag_215\n      jumpi\n        /* \"#utility.yul\":6176:6255   */\n      tag_216\n      tag_89\n      jump\t// in\n    tag_216:\n        /* \"#utility.yul\":6138:6257   */\n    tag_215:\n        /* \"#utility.yul\":6296:6297   */\n      0x00\n        /* \"#utility.yul\":6321:6374   */\n      tag_217\n        /* \"#utility.yul\":6366:6373   */\n      dup5\n        /* \"#utility.yul\":6357:6363   */\n      dup3\n        /* \"#utility.yul\":6346:6355   */\n      dup6\n        /* \"#utility.yul\":6342:6364   */\n      add\n        /* \"#utility.yul\":6321:6374   */\n      tag_94\n      jump\t// in\n    tag_217:\n        /* \"#utility.yul\":6311:6374   */\n      swap2\n      pop\n        /* \"#utility.yul\":6267:6384   */\n      pop\n        /* \"#utility.yul\":6062:6391   */\n      swap3\n      swap2\n      pop\n      pop\n      jump\t// out\n        /* \"#utility.yul\":6397:6506   */\n    tag_109:\n        /* \"#utility.yul\":6478:6499   */\n      tag_219\n        /* \"#utility.yul\":6493:6498   */\n      dup2\n        /* \"#utility.yul\":6478:6499   */\n      tag_95\n      jump\t// in\n    tag_219:\n        /* \"#utility.yul\":6473:6476   */\n      dup3\n        /* \"#utility.yul\":6466:6500   */\n      mstore\n        /* \"#utility.yul\":6397:6506   */\n      pop\n      pop\n      jump\t// out\n        /* \"#utility.yul\":6512:6722   */\n    tag_28:\n        /* \"#utility.yul\":6599:6603   */\n      0x00\n        /* \"#utility.yul\":6637:6639   */\n      0x20\n        /* \"#utility.yul\":6626:6635   */\n      dup3\n        /* \"#utility.yul\":6622:6640   */\n      add\n        /* \"#utility.yul\":6614:6640   */\n      swap1\n      pop\n        /* \"#utility.yul\":6650:6715   */\n      tag_221\n        /* \"#utility.yul\":6712:6713   */\n      0x00\n        /* \"#utility.yul\":6701:6710   */\n      dup4\n        /* \"#utility.yul\":6697:6714   */\n      add\n        /* \"#utility.yul\":6688:6694   */\n      dup5\n        /* \"#utility.yul\":6650:6715   */\n      tag_109\n      jump\t// in\n    tag_221:\n        /* \"#utility.yul\":6512:6722   */\n      swap3\n      swap2\n      pop\n      pop\n      jump\t// out\n        /* \"#utility.yul\":6728:6908   */\n    tag_110:\n        /* \"#utility.yul\":6776:6853   */\n      0x4e487b7100000000000000000000000000000000000000000000000000000000\n        /* \"#utility.yul\":6773:6774   */\n      0x00\n        /* \"#utility.yul\":6766:6854   */\n      mstore\n        /* \"#utility.yul\":6873:6877   */\n      0x22\n        /* \"#utility.yul\":6870:6871   */\n      0x04\n        /* \"#utility.yul\":6863:6878   */\n      mstore\n        /* \"#utility.yul\":6897:6901   */\n      0x24\n        /* \"#utility.yul\":6894:6895   */\n      0x00\n        /* \"#utility.yul\":6887:6902   */\n      revert\n        /* \"#utility.yul\":6914:7234   */\n    tag_37:\n        /* \"#utility.yul\":6958:6964   */\n      0x00\n        /* \"#utility.yul\":6995:6996   */\n      0x02\n        /* \"#utility.yul\":6989:6993   */\n      dup3\n        /* \"#utility.yul\":6985:6997   */\n      div\n        /* \"#utility.yul\":6975:6997   */\n      swap1\n      pop\n        /* \"#utility.yul\":7042:7043   */\n      0x01\n        /* \"#utility.yul\":7036:7040   */\n      dup3\n        /* \"#utility.yul\":7032:7044   */\n      and\n        /* \"#utility.yul\":7063:7081   */\n      dup1\n        /* \"#utility.yul\":7053:7134   */\n      tag_224\n      jumpi\n        /* \"#utility.yul\":7119:7123   */\n      0x7f\n        /* \"#utility.yul\":7111:7117   */\n      dup3\n        /* \"#utility.yul\":7107:7124   */\n      and\n        /* \"#utility.yul\":7097:7124   */\n      swap2\n      pop\n        /* \"#utility.yul\":7053:7134   */\n    tag_224:\n        /* \"#utility.yul\":7181:7183   */\n      0x20\n        /* \"#utility.yul\":7173:7179   */\n      dup3\n        /* \"#utility.yul\":7170:7184   */\n      lt\n        /* \"#utility.yul\":7150:7168   */\n      dup2\n        /* \"#utility.yul\":7147:7185   */\n      sub\n        /* \"#utility.yul\":7144:7228   */\n      tag_225\n      jumpi\n        /* \"#utility.yul\":7200:7218   */\n      tag_226\n      tag_110\n      jump\t// in\n    tag_226:\n        /* \"#utility.yul\":7144:7228   */\n    tag_225:\n        /* \"#utility.yul\":6965:7234   */\n      pop\n        /* \"#utility.yul\":6914:7234   */\n      swap2\n      swap1\n      pop\n      jump\t// out\n        /* \"#utility.yul\":7240:7409   */\n    tag_111:\n        /* \"#utility.yul\":7324:7335   */\n      0x00\n        /* \"#utility.yul\":7358:7364   */\n      dup3\n        /* \"#utility.yul\":7353:7356   */\n      dup3\n        /* \"#utility.yul\":7346:7365   */\n      mstore\n        /* \"#utility.yul\":7398:7402   */\n      0x20\n        /* \"#utility.yul\":7393:7396   */\n      dup3\n        /* \"#utility.yul\":7389:7403   */\n      add\n        /* \"#utility.yul\":7374:7403   */\n      swap1\n      pop\n        /* \"#utility.yul\":7240:7409   */\n      swap3\n      swap2\n      pop\n      pop\n      jump\t// out\n        /* \"#utility.yul\":7415:7591   */\n    tag_112:\n        /* \"#utility.yul\":7555:7583   */\n      0x5573657220686173206e6f74207375626d6974746564204b5943000000000000\n        /* \"#utility.yul\":7551:7552   */\n      0x00\n        /* \"#utility.yul\":7543:7549   */\n      dup3\n        /* \"#utility.yul\":7539:7553   */\n      add\n        /* \"#utility.yul\":7532:7584   */\n      mstore\n        /* \"#utility.yul\":7415:7591   */\n      pop\n      jump\t// out\n        /* \"#utility.yul\":7597:7963   */\n    tag_113:\n        /* \"#utility.yul\":7739:7742   */\n      0x00\n        /* \"#utility.yul\":7760:7827   */\n      tag_230\n        /* \"#utility.yul\":7824:7826   */\n      0x1a\n        /* \"#utility.yul\":7819:7822   */\n      dup4\n        /* \"#utility.yul\":7760:7827   */\n      tag_111\n      jump\t// in\n    tag_230:\n        /* \"#utility.yul\":7753:7827   */\n      swap2\n      pop\n        /* \"#utility.yul\":7836:7929   */\n      tag_231\n        /* \"#utility.yul\":7925:7928   */\n      dup3\n        /* \"#utility.yul\":7836:7929   */\n      tag_112\n      jump\t// in\n    tag_231:\n        /* \"#utility.yul\":7954:7956   */\n      0x20\n        /* \"#utility.yul\":7949:7952   */\n      dup3\n        /* \"#utility.yul\":7945:7957   */\n      add\n        /* \"#utility.yul\":7938:7957   */\n      swap1\n      pop\n        /* \"#utility.yul\":7597:7963   */\n      swap2\n      swap1\n      pop\n      jump\t// out\n        /* \"#utility.yul\":7969:8388   */\n    tag_40:\n        /* \"#utility.yul\":8135:8139   */\n      0x00\n        /* \"#utility.yul\":8173:8175   */\n      0x20\n        /* \"#utility.yul\":8162:8171   */\n      dup3\n        /* \"#utility.yul\":8158:8176   */\n      add\n        /* \"#utility.yul\":8150:8176   */\n      swap1\n      pop\n        /* \"#utility.yul\":8222:8231   */\n      dup2\n        /* \"#utility.yul\":8216:8220   */\n      dup2\n        /* \"#utility.yul\":8212:8232   */\n      sub\n        /* \"#utility.yul\":8208:8209   */\n      0x00\n        /* \"#utility.yul\":8197:8206   */\n      dup4\n        /* \"#utility.yul\":8193:8210   */\n      add\n        /* \"#utility.yul\":8186:8233   */\n      mstore\n        /* \"#utility.yul\":8250:8381   */\n      tag_233\n        /* \"#utility.yul\":8376:8380   */\n      dup2\n        /* \"#utility.yul\":8250:8381   */\n      tag_113\n      jump\t// in\n    tag_233:\n        /* \"#utility.yul\":8242:8381   */\n      swap1\n      pop\n        /* \"#utility.yul\":7969:8388   */\n      swap2\n      swap1\n      pop\n      jump\t// out\n        /* \"#utility.yul\":8394:8560   */\n    tag_114:\n        /* \"#utility.yul\":8534:8552   */\n      0x4e616d6520697320726571756972656400000000000000000000000000000000\n        /* \"#utility.yul\":8530:8531   */\n      0x00\n        /* \"#utility.yul\":8522:8528   */\n      dup3\n        /* \"#utility.yul\":8518:8532   */\n      add\n        /* \"#utility.yul\":8511:8553   */\n      mstore\n        /* \"#utility.yul\":8394:8560   */\n      pop\n      jump\t// out\n        /* \"#utility.yul\":8566:8932   */\n    tag_115:\n        /* \"#utility.yul\":8708:8711   */\n      0x00\n        /* \"#utility.yul\":8729:8796   */\n      tag_236\n        /* \"#utility.yul\":8793:8795   */\n      0x10\n        /* \"#utility.yul\":8788:8791   */\n      dup4\n        /* \"#utility.yul\":8729:8796   */\n      tag_111\n      jump\t// in\n    tag_236:\n        /* \"#utility.yul\":8722:8796   */\n      swap2\n      pop\n        /* \"#utility.yul\":8805:8898   */\n      tag_237\n        /* \"#utility.yul\":8894:8897   */\n      dup3\n        /* \"#utility.yul\":8805:8898   */\n      tag_114\n      jump\t// in\n    tag_237:\n        /* \"#utility.yul\":8923:8925   */\n      0x20\n        /* \"#utility.yul\":8918:8921   */\n      dup3\n        /* \"#utility.yul\":8914:8926   */\n      add\n        /* \"#utility.yul\":8907:8926   */\n      swap1\n      pop\n        /* \"#utility.yul\":8566:8932   */\n      swap2\n      swap1\n      pop\n      jump\t// out\n        /* \"#utility.yul\":8938:9357   */\n    tag_51:\n        /* \"#utility.yul\":9104:9108   */\n      0x00\n        /* \"#utility.yul\":9142:9144   */\n      0x20\n        /* \"#utility.yul\":9131:9140   */\n      dup3\n        /* \"#utility.yul\":9127:9145   */\n      add\n        /* \"#utility.yul\":9119:9145   */\n      swap1\n      pop\n        /* \"#utility.yul\":9191:9200   */\n      dup2\n        /* \"#utility.yul\":9185:9189   */\n      dup2\n        /* \"#utility.yul\":9181:9201   */\n      sub\n        /* \"#utility.yul\":9177:9178   */\n      0x00\n        /* \"#utility.yul\":9166:9175   */\n      dup4\n        /* \"#utility.yul\":9162:9179   */\n      add\n        /* \"#utility.yul\":9155:9202   */\n      mstore\n        /* \"#utility.yul\":9219:9350   */\n      tag_239\n        /* \"#utility.yul\":9345:9349   */\n      dup2\n        /* \"#utility.yul\":9219:9350   */\n      tag_115\n      jump\t// in\n    tag_239:\n        /* \"#utility.yul\":9211:9350   */\n      swap1\n      pop\n        /* \"#utility.yul\":8938:9357   */\n      swap2\n      swap1\n      pop\n      jump\t// out\n        /* \"#utility.yul\":9363:9530   */\n    tag_116:\n        /* \"#utility.yul\":9503:9522   */\n      0x456d61696c206973207265717569726564000000000000000000000000000000\n        /* \"#utility.yul\":9499:9500   */\n      0x00\n        /* \"#utility.yul\":9491:9497   */\n      dup3\n        /* \"#utility.yul\":9487:9501   */\n      add\n        /* \"#utility.yul\":9480:9523   */\n      mstore\n        /* \"#utility.yul\":9363:9530   */\n      pop\n      jump\t// out\n        /* \"#utility.yul\":9536:9902   */\n    tag_117:\n        /* \"#utility.yul\":9678:9681   */\n      0x00\n        /* \"#utility.yul\":9699:9766   */\n      tag_242\n        /* \"#utility.yul\":9763:9765   */\n      0x11\n        /* \"#utility.yul\":9758:9761   */\n      dup4\n        /* \"#utility.yul\":9699:9766   */\n      tag_111\n      jump\t// in\n    tag_242:\n        /* \"#utility.yul\":9692:9766   */\n      swap2\n      pop\n        /* \"#utility.yul\":9775:9868   */\n      tag_243\n        /* \"#utility.yul\":9864:9867   */\n      dup3\n        /* \"#utility.yul\":9775:9868   */\n      tag_116\n      jump\t// in\n    tag_243:\n        /* \"#utility.yul\":9893:9895   */\n      0x20\n        /* \"#utility.yul\":9888:9891   */\n      dup3\n        /* \"#utility.yul\":9884:9896   */\n      add\n        /* \"#utility.yul\":9877:9896   */\n      swap1\n      pop\n        /* \"#utility.yul\":9536:9902   */\n      swap2\n      swap1\n      pop\n      jump\t// out\n        /* \"#utility.yul\":9908:10327   */\n    tag_54:\n        /* \"#utility.yul\":10074:10078   */\n      0x00\n        /* \"#utility.yul\":10112:10114   */\n      0x20\n        /* \"#utility.yul\":10101:10110   */\n      dup3\n        /* \"#utility.yul\":10097:10115   */\n      add\n        /* \"#utility.yul\":10089:10115   */\n      swap1\n      pop\n        /* \"#utility.yul\":10161:10170   */\n      dup2\n        /* \"#utility.yul\":10155:10159   */\n      dup2\n        /* \"#utility.yul\":10151:10171   */\n      sub\n        /* \"#utility.yul\":10147:10148   */\n      0x00\n        /* \"#utility.yul\":10136:10145   */\n      dup4\n        /* \"#utility.yul\":10132:10149   */\n      add\n        /* \"#utility.yul\":10125:10172   */\n      mstore\n        /* \"#utility.yul\":10189:10320   */\n      tag_245\n        /* \"#utility.yul\":10315:10319   */\n      dup2\n        /* \"#utility.yul\":10189:10320   */\n      tag_117\n      jump\t// in\n    tag_245:\n        /* \"#utility.yul\":10181:10320   */\n      swap1\n      pop\n        /* \"#utility.yul\":9908:10327   */\n      swap2\n      swap1\n      pop\n      jump\t// out\n        /* \"#utility.yul\":10333:10506   */\n    tag_118:\n        /* \"#utility.yul\":10473:10498   */\n      0x4e6174696f6e616c697479206973207265717569726564000000000000000000\n        /* \"#utility.yul\":10469:10470   */\n      0x00\n        /* \"#utility.yul\":10461:10467   */\n      dup3\n        /* \"#utility.yul\":10457:10471   */\n      add\n        /* \"#utility.yul\":10450:10499   */\n      mstore\n        /* \"#utility.yul\":10333:10506   */\n      pop\n      jump\t// out\n        /* \"#utility.yul\":10512:10878   */\n    tag_119:\n        /* \"#utility.yul\":10654:10657   */\n      0x00\n        /* \"#utility.yul\":10675:10742   */\n      tag_248\n        /* \"#utility.yul\":10739:10741   */\n      0x17\n        /* \"#utility.yul\":10734:10737   */\n      dup4\n        /* \"#utility.yul\":10675:10742   */\n      tag_111\n      jump\t// in\n    tag_248:\n        /* \"#utility.yul\":10668:10742   */\n      swap2\n      pop\n        /* \"#utility.yul\":10751:10844   */\n      tag_249\n        /* \"#utility.yul\":10840:10843   */\n      dup3\n        /* \"#utility.yul\":10751:10844   */\n      tag_118\n      jump\t// in\n    tag_249:\n        /* \"#utility.yul\":10869:10871   */\n      0x20\n        /* \"#utility.yul\":10864:10867   */\n      dup3\n        /* \"#utility.yul\":10860:10872   */\n      add\n        /* \"#utility.yul\":10853:10872   */\n      swap1\n      pop\n        /* \"#utility.yul\":10512:10878   */\n      swap2\n      swap1\n      pop\n      jump\t// out\n        /* \"#utility.yul\":10884:11303   */\n    tag_57:\n        /* \"#utility.yul\":11050:11054   */\n      0x00\n        /* \"#utility.yul\":11088:11090   */\n      0x20\n        /* \"#utility.yul\":11077:11086   */\n      dup3\n        /* \"#utility.yul\":11073:11091   */\n      add\n        /* \"#utility.yul\":11065:11091   */\n      swap1\n      pop\n        /* \"#utility.yul\":11137:11146   */\n      dup2\n        /* \"#utility.yul\":11131:11135   */\n      dup2\n        /* \"#utility.yul\":11127:11147   */\n      sub\n        /* \"#utility.yul\":11123:11124   */\n      0x00\n        /* \"#utility.yul\":11112:11121   */\n      dup4\n        /* \"#utility.yul\":11108:11125   */\n      add\n        /* \"#utility.yul\":11101:11148   */\n      mstore\n        /* \"#utility.yul\":11165:11296   */\n      tag_251\n        /* \"#utility.yul\":11291:11295   */\n      dup2\n        /* \"#utility.yul\":11165:11296   */\n      tag_119\n      jump\t// in\n    tag_251:\n        /* \"#utility.yul\":11157:11296   */\n      swap1\n      pop\n        /* \"#utility.yul\":10884:11303   */\n      swap2\n      swap1\n      pop\n      jump\t// out\n        /* \"#utility.yul\":11309:11480   */\n    tag_120:\n        /* \"#utility.yul\":11449:11472   */\n      0x4944204e756d6265722069732072657175697265640000000000000000000000\n        /* \"#utility.yul\":11445:11446   */\n      0x00\n        /* \"#utility.yul\":11437:11443   */\n      dup3\n        /* \"#utility.yul\":11433:11447   */\n      add\n        /* \"#utility.yul\":11426:11473   */\n      mstore\n        /* \"#utility.yul\":11309:11480   */\n      pop\n      jump\t// out\n        /* \"#utility.yul\":11486:11852   */\n    tag_121:\n        /* \"#utility.yul\":11628:11631   */\n      0x00\n        /* \"#utility.yul\":11649:11716   */\n      tag_254\n        /* \"#utility.yul\":11713:11715   */\n      0x15\n        /* \"#utility.yul\":11708:11711   */\n      dup4\n        /* \"#utility.yul\":11649:11716   */\n      tag_111\n      jump\t// in\n    tag_254:\n        /* \"#utility.yul\":11642:11716   */\n      swap2\n      pop\n        /* \"#utility.yul\":11725:11818   */\n      tag_255\n        /* \"#utility.yul\":11814:11817   */\n      dup3\n        /* \"#utility.yul\":11725:11818   */\n      tag_120\n      jump\t// in\n    tag_255:\n        /* \"#utility.yul\":11843:11845   */\n      0x20\n        /* \"#utility.yul\":11838:11841   */\n      dup3\n        /* \"#utility.yul\":11834:11846   */\n      add\n        /* \"#utility.yul\":11827:11846   */\n      swap1\n      pop\n        /* \"#utility.yul\":11486:11852   */\n      swap2\n      swap1\n      pop\n      jump\t// out\n        /* \"#utility.yul\":11858:12277   */\n    tag_60:\n        /* \"#utility.yul\":12024:12028   */\n      0x00\n        /* \"#utility.yul\":12062:12064   */\n      0x20\n        /* \"#utility.yul\":12051:12060   */\n      dup3\n        /* \"#utility.yul\":12047:12065   */\n      add\n        /* \"#utility.yul\":12039:12065   */\n      swap1\n      pop\n        /* \"#utility.yul\":12111:12120   */\n      dup2\n        /* \"#utility.yul\":12105:12109   */\n      dup2\n        /* \"#utility.yul\":12101:12121   */\n      sub\n        /* \"#utility.yul\":12097:12098   */\n      0x00\n        /* \"#utility.yul\":12086:12095   */\n      dup4\n        /* \"#utility.yul\":12082:12099   */\n      add\n        /* \"#utility.yul\":12075:12122   */\n      mstore\n        /* \"#utility.yul\":12139:12270   */\n      tag_257\n        /* \"#utility.yul\":12265:12269   */\n      dup2\n        /* \"#utility.yul\":12139:12270   */\n      tag_121\n      jump\t// in\n    tag_257:\n        /* \"#utility.yul\":12131:12270   */\n      swap1\n      pop\n        /* \"#utility.yul\":11858:12277   */\n      swap2\n      swap1\n      pop\n      jump\t// out\n        /* \"#utility.yul\":12283:12453   */\n    tag_122:\n        /* \"#utility.yul\":12423:12445   */\n      0x494420496d616765206973207265717569726564000000000000000000000000\n        /* \"#utility.yul\":12419:12420   */\n      0x00\n        /* \"#utility.yul\":12411:12417   */\n      dup3\n        /* \"#utility.yul\":12407:12421   */\n      add\n        /* \"#utility.yul\":12400:12446   */\n      mstore\n        /* \"#utility.yul\":12283:12453   */\n      pop\n      jump\t// out\n        /* \"#utility.yul\":12459:12825   */\n    tag_123:\n        /* \"#utility.yul\":12601:12604   */\n      0x00\n        /* \"#utility.yul\":12622:12689   */\n      tag_260\n        /* \"#utility.yul\":12686:12688   */\n      0x14\n        /* \"#utility.yul\":12681:12684   */\n      dup4\n        /* \"#utility.yul\":12622:12689   */\n      tag_111\n      jump\t// in\n    tag_260:\n        /* \"#utility.yul\":12615:12689   */\n      swap2\n      pop\n        /* \"#utility.yul\":12698:12791   */\n      tag_261\n        /* \"#utility.yul\":12787:12790   */\n      dup3\n        /* \"#utility.yul\":12698:12791   */\n      tag_122\n      jump\t// in\n    tag_261:\n        /* \"#utility.yul\":12816:12818   */\n      0x20\n        /* \"#utility.yul\":12811:12814   */\n      dup3\n        /* \"#utility.yul\":12807:12819   */\n      add\n        /* \"#utility.yul\":12800:12819   */\n      swap1\n      pop\n        /* \"#utility.yul\":12459:12825   */\n      swap2\n      swap1\n      pop\n      jump\t// out\n        /* \"#utility.yul\":12831:13250   */\n    tag_63:\n        /* \"#utility.yul\":12997:13001   */\n      0x00\n        /* \"#utility.yul\":13035:13037   */\n      0x20\n        /* \"#utility.yul\":13024:13033   */\n      dup3\n        /* \"#utility.yul\":13020:13038   */\n      add\n        /* \"#utility.yul\":13012:13038   */\n      swap1\n      pop\n        /* \"#utility.yul\":13084:13093   */\n      dup2\n        /* \"#utility.yul\":13078:13082   */\n      dup2\n        /* \"#utility.yul\":13074:13094   */\n      sub\n        /* \"#utility.yul\":13070:13071   */\n      0x00\n        /* \"#utility.yul\":13059:13068   */\n      dup4\n        /* \"#utility.yul\":13055:13072   */\n      add\n        /* \"#utility.yul\":13048:13095   */\n      mstore\n        /* \"#utility.yul\":13112:13243   */\n      tag_263\n        /* \"#utility.yul\":13238:13242   */\n      dup2\n        /* \"#utility.yul\":13112:13243   */\n      tag_123\n      jump\t// in\n    tag_263:\n        /* \"#utility.yul\":13104:13243   */\n      swap1\n      pop\n        /* \"#utility.yul\":12831:13250   */\n      swap2\n      swap1\n      pop\n      jump\t// out\n        /* \"#utility.yul\":13256:13355   */\n    tag_124:\n        /* \"#utility.yul\":13308:13314   */\n      0x00\n        /* \"#utility.yul\":13342:13347   */\n      dup2\n        /* \"#utility.yul\":13336:13348   */\n      mload\n        /* \"#utility.yul\":13326:13348   */\n      swap1\n      pop\n        /* \"#utility.yul\":13256:13355   */\n      swap2\n      swap1\n      pop\n      jump\t// out\n        /* \"#utility.yul\":13361:13502   */\n    tag_125:\n        /* \"#utility.yul\":13410:13414   */\n      0x00\n        /* \"#utility.yul\":13433:13436   */\n      dup2\n        /* \"#utility.yul\":13425:13436   */\n      swap1\n      pop\n        /* \"#utility.yul\":13456:13459   */\n      dup2\n        /* \"#utility.yul\":13453:13454   */\n      0x00\n        /* \"#utility.yul\":13446:13460   */\n      mstore\n        /* \"#utility.yul\":13490:13494   */\n      0x20\n        /* \"#utility.yul\":13487:13488   */\n      0x00\n        /* \"#utility.yul\":13477:13495   */\n      keccak256\n        /* \"#utility.yul\":13469:13495   */\n      swap1\n      pop\n        /* \"#utility.yul\":13361:13502   */\n      swap2\n      swap1\n      pop\n      jump\t// out\n        /* \"#utility.yul\":13508:13601   */\n    tag_126:\n        /* \"#utility.yul\":13545:13551   */\n      0x00\n        /* \"#utility.yul\":13592:13594   */\n      0x20\n        /* \"#utility.yul\":13587:13589   */\n      0x1f\n        /* \"#utility.yul\":13580:13585   */\n      dup4\n        /* \"#utility.yul\":13576:13590   */\n      add\n        /* \"#utility.yul\":13572:13595   */\n      div\n        /* \"#utility.yul\":13562:13595   */\n      swap1\n      pop\n        /* \"#utility.yul\":13508:13601   */\n      swap2\n      swap1\n      pop\n      jump\t// out\n        /* \"#utility.yul\":13607:13714   */\n    tag_127:\n        /* \"#utility.yul\":13651:13659   */\n      0x00\n        /* \"#utility.yul\":13701:13706   */\n      dup3\n        /* \"#utility.yul\":13695:13699   */\n      dup3\n        /* \"#utility.yul\":13691:13707   */\n      shl\n        /* \"#utility.yul\":13670:13707   */\n      swap1\n      pop\n        /* \"#utility.yul\":13607:13714   */\n      swap3\n      swap2\n      pop\n      pop\n      jump\t// out\n        /* \"#utility.yul\":13720:14113   */\n    tag_128:\n        /* \"#utility.yul\":13789:13795   */\n      0x00\n        /* \"#utility.yul\":13839:13840   */\n      0x08\n        /* \"#utility.yul\":13827:13837   */\n      dup4\n        /* \"#utility.yul\":13823:13841   */\n      mul\n        /* \"#utility.yul\":13862:13959   */\n      tag_269\n        /* \"#utility.yul\":13892:13958   */\n      0xffffffffffffffffffffffffffffffffffffffffffffffffffffffffffffffff\n        /* \"#utility.yul\":13881:13890   */\n      dup3\n        /* \"#utility.yul\":13862:13959   */\n      tag_127\n      jump\t// in\n    tag_269:\n        /* \"#utility.yul\":13980:14019   */\n      tag_270\n        /* \"#utility.yul\":14010:14018   */\n      dup7\n        /* \"#utility.yul\":13999:14008   */\n      dup4\n        /* \"#utility.yul\":13980:14019   */\n      tag_127\n      jump\t// in\n    tag_270:\n        /* \"#utility.yul\":13968:14019   */\n      swap6\n      pop\n        /* \"#utility.yul\":14052:14056   */\n      dup1\n        /* \"#utility.yul\":14048:14057   */\n      not\n        /* \"#utility.yul\":14041:14046   */\n      dup5\n        /* \"#utility.yul\":14037:14058   */\n      and\n        /* \"#utility.yul\":14028:14058   */\n      swap4\n      pop\n        /* \"#utility.yul\":14101:14105   */\n      dup1\n        /* \"#utility.yul\":14091:14099   */\n      dup7\n        /* \"#utility.yul\":14087:14106   */\n      and\n        /* \"#utility.yul\":14080:14085   */\n      dup5\n        /* \"#utility.yul\":14077:14107   */\n      or\n        /* \"#utility.yul\":14067:14107   */\n      swap3\n      pop\n        /* \"#utility.yul\":13796:14113   */\n      pop\n      pop\n        /* \"#utility.yul\":13720:14113   */\n      swap4\n      swap3\n      pop\n      pop\n      pop\n      jump\t// out\n        /* \"#utility.yul\":14119:14196   */\n    tag_129:\n        /* \"#utility.yul\":14156:14163   */\n      0x00\n        /* \"#utility.yul\":14185:14190   */\n      dup2\n        /* \"#utility.yul\":14174:14190   */\n      swap1\n      pop\n        /* \"#utility.yul\":14119:14196   */\n      swap2\n      swap1\n      pop\n      jump\t// out\n        /* \"#utility.yul\":14202:14262   */\n    tag_130:\n        /* \"#utility.yul\":14230:14233   */\n      0x00\n        /* \"#utility.yul\":14251:14256   */\n      dup2\n        /* \"#utility.yul\":14244:14256   */\n      swap1\n      pop\n        /* \"#utility.yul\":14202:14262   */\n      swap2\n      swap1\n      pop\n      jump\t// out\n        /* \"#utility.yul\":14268:14410   */\n    tag_131:\n        /* \"#utility.yul\":14318:14327   */\n      0x00\n        /* \"#utility.yul\":14351:14404   */\n      tag_274\n        /* \"#utility.yul\":14369:14403   */\n      tag_275\n        /* \"#utility.yul\":14378:14402   */\n      tag_276\n        /* \"#utility.yul\":14396:14401   */\n      dup5\n        /* \"#utility.yul\":14378:14402   */\n      tag_129\n      jump\t// in\n    tag_276:\n        /* \"#utility.yul\":14369:14403   */\n      tag_130\n      jump\t// in\n    tag_275:\n        /* \"#utility.yul\":14351:14404   */\n      tag_129\n      jump\t// in\n    tag_274:\n        /* \"#utility.yul\":14338:14404   */\n      swap1\n      pop\n        /* \"#utility.yul\":14268:14410   */\n      swap2\n      swap1\n      pop\n      jump\t// out\n        /* \"#utility.yul\":14416:14491   */\n    tag_132:\n        /* \"#utility.yul\":14459:14462   */\n      0x00\n        /* \"#utility.yul\":14480:14485   */\n      dup2\n        /* \"#utility.yul\":14473:14485   */\n      swap1\n      pop\n        /* \"#utility.yul\":14416:14491   */\n      swap2\n      swap1\n      pop\n      jump\t// out\n        /* \"#utility.yul\":14497:14766   */\n    tag_133:\n        /* \"#utility.yul\":14607:14646   */\n      tag_279\n        /* \"#utility.yul\":14638:14645   */\n      dup4\n        /* \"#utility.yul\":14607:14646   */\n      tag_131\n      jump\t// in\n    tag_279:\n        /* \"#utility.yul\":14668:14759   */\n      tag_280\n        /* \"#utility.yul\":14717:14758   */\n      tag_281\n        /* \"#utility.yul\":14741:14757   */\n      dup3\n        /* \"#utility.yul\":14717:14758   */\n      tag_132\n      jump\t// in\n    tag_281:\n        /* \"#utility.yul\":14709:14715   */\n      dup5\n        /* \"#utility.yul\":14702:14706   */\n      dup5\n        /* \"#utility.yul\":14696:14707   */\n      sload\n        /* \"#utility.yul\":14668:14759   */\n      tag_128\n      jump\t// in\n    tag_280:\n        /* \"#utility.yul\":14662:14666   */\n      dup3\n        /* \"#utility.yul\":14655:14760   */\n      sstore\n        /* \"#utility.yul\":14573:14766   */\n      pop\n        /* \"#utility.yul\":14497:14766   */\n      pop\n      pop\n      pop\n      jump\t// out\n        /* \"#utility.yul\":14772:14845   */\n    tag_134:\n        /* \"#utility.yul\":14817:14820   */\n      0x00\n        /* \"#utility.yul\":14838:14839   */\n      0x00\n        /* \"#utility.yul\":14831:14839   */\n      swap1\n      pop\n        /* \"#utility.yul\":14772:14845   */\n      swap1\n      jump\t// out\n        /* \"#utility.yul\":14851:15040   */\n    tag_135:\n        /* \"#utility.yul\":14928:14960   */\n      tag_284\n      tag_134\n      jump\t// in\n    tag_284:\n        /* \"#utility.yul\":14969:15034   */\n      tag_285\n        /* \"#utility.yul\":15027:15033   */\n      dup2\n        /* \"#utility.yul\":15019:15025   */\n      dup5\n        /* \"#utility.yul\":15013:15017   */\n      dup5\n        /* \"#utility.yul\":14969:15034   */\n      tag_133\n      jump\t// in\n    tag_285:\n        /* \"#utility.yul\":14904:15040   */\n      pop\n        /* \"#utility.yul\":14851:15040   */\n      pop\n      pop\n      jump\t// out\n        /* \"#utility.yul\":15046:15232   */\n    tag_136:\n        /* \"#utility.yul\":15106:15226   */\n    tag_287:\n        /* \"#utility.yul\":15123:15126   */\n      dup2\n        /* \"#utility.yul\":15116:15121   */\n      dup2\n        /* \"#utility.yul\":15113:15127   */\n      lt\n        /* \"#utility.yul\":15106:15226   */\n      iszero\n      tag_289\n      jumpi\n        /* \"#utility.yul\":15177:15216   */\n      tag_290\n        /* \"#utility.yul\":15214:15215   */\n      0x00\n        /* \"#utility.yul\":15207:15212   */\n      dup3\n        /* \"#utility.yul\":15177:15216   */\n      tag_135\n      jump\t// in\n    tag_290:\n        /* \"#utility.yul\":15150:15151   */\n      0x01\n        /* \"#utility.yul\":15143:15148   */\n      dup2\n        /* \"#utility.yul\":15139:15152   */\n      add\n        /* \"#utility.yul\":15130:15152   */\n      swap1\n      pop\n        /* \"#utility.yul\":15106:15226   */\n      jump(tag_287)\n    tag_289:\n        /* \"#utility.yul\":15046:15232   */\n      pop\n      pop\n      jump\t// out\n        /* \"#utility.yul\":15238:15781   */\n    tag_137:\n        /* \"#utility.yul\":15339:15341   */\n      0x1f\n        /* \"#utility.yul\":15334:15337   */\n      dup3\n        /* \"#utility.yul\":15331:15342   */\n      gt\n        /* \"#utility.yul\":15328:15774   */\n      iszero\n      tag_292\n      jumpi\n        /* \"#utility.yul\":15373:15411   */\n      tag_293\n        /* \"#utility.yul\":15405:15410   */\n      dup2\n        /* \"#utility.yul\":15373:15411   */\n      tag_125\n      jump\t// in\n    tag_293:\n        /* \"#utility.yul\":15457:15486   */\n      tag_294\n        /* \"#utility.yul\":15475:15485   */\n      dup5\n        /* \"#utility.yul\":15457:15486   */\n      tag_126\n      jump\t// in\n    tag_294:\n        /* \"#utility.yul\":15447:15455   */\n      dup2\n        /* \"#utility.yul\":15443:15487   */\n      add\n        /* \"#utility.yul\":15640:15642   */\n      0x20\n        /* \"#utility.yul\":15628:15638   */\n      dup6\n        /* \"#utility.yul\":15625:15643   */\n      lt\n        /* \"#utility.yul\":15622:15671   */\n      iszero\n      tag_295\n      jumpi\n        /* \"#utility.yul\":15661:15669   */\n      dup2\n        /* \"#utility.yul\":15646:15669   */\n      swap1\n      pop\n        /* \"#utility.yul\":15622:15671   */\n    tag_295:\n        /* \"#utility.yul\":15684:15764   */\n      tag_296\n        /* \"#utility.yul\":15740:15762   */\n      tag_297\n        /* \"#utility.yul\":15758:15761   */\n      dup6\n        /* \"#utility.yul\":15740:15762   */\n      tag_126\n      jump\t// in\n    tag_297:\n        /* \"#utility.yul\":15730:15738   */\n      dup4\n        /* \"#utility.yul\":15726:15763   */\n      add\n        /* \"#utility.yul\":15713:15724   */\n      dup3\n        /* \"#utility.yul\":15684:15764   */\n      tag_136\n      jump\t// in\n    tag_296:\n        /* \"#utility.yul\":15343:15774   */\n      pop\n      pop\n        /* \"#utility.yul\":15328:15774   */\n    tag_292:\n        /* \"#utility.yul\":15238:15781   */\n      pop\n      pop\n      pop\n      jump\t// out\n        /* \"#utility.yul\":15787:15904   */\n    tag_138:\n        /* \"#utility.yul\":15841:15849   */\n      0x00\n        /* \"#utility.yul\":15891:15896   */\n      dup3\n        /* \"#utility.yul\":15885:15889   */\n      dup3\n        /* \"#utility.yul\":15881:15897   */\n      shr\n        /* \"#utility.yul\":15860:15897   */\n      swap1\n      pop\n        /* \"#utility.yul\":15787:15904   */\n      swap3\n      swap2\n      pop\n      pop\n      jump\t// out\n        /* \"#utility.yul\":15910:16079   */\n    tag_139:\n        /* \"#utility.yul\":15954:15960   */\n      0x00\n        /* \"#utility.yul\":15987:16038   */\n      tag_300\n        /* \"#utility.yul\":16035:16036   */\n      0x00\n        /* \"#utility.yul\":16031:16037   */\n      not\n        /* \"#utility.yul\":16023:16028   */\n      dup5\n        /* \"#utility.yul\":16020:16021   */\n      0x08\n        /* \"#utility.yul\":16016:16029   */\n      mul\n        /* \"#utility.yul\":15987:16038   */\n      tag_138\n      jump\t// in\n    tag_300:\n        /* \"#utility.yul\":15983:16039   */\n      not\n        /* \"#utility.yul\":16068:16072   */\n      dup1\n        /* \"#utility.yul\":16062:16066   */\n      dup4\n        /* \"#utility.yul\":16058:16073   */\n      and\n        /* \"#utility.yul\":16048:16073   */\n      swap2\n      pop\n        /* \"#utility.yul\":15961:16079   */\n      pop\n        /* \"#utility.yul\":15910:16079   */\n      swap3\n      swap2\n      pop\n      pop\n      jump\t// out\n        /* \"#utility.yul\":16084:16379   */\n    tag_140:\n        /* \"#utility.yul\":16160:16164   */\n      0x00\n        /* \"#utility.yul\":16306:16335   */\n      tag_302\n        /* \"#utility.yul\":16331:16334   */\n      dup4\n        /* \"#utility.yul\":16325:16329   */\n      dup4\n        /* \"#utility.yul\":16306:16335   */\n      tag_139\n      jump\t// in\n    tag_302:\n        /* \"#utility.yul\":16298:16335   */\n      swap2\n      pop\n        /* \"#utility.yul\":16368:16371   */\n      dup3\n        /* \"#utility.yul\":16365:16366   */\n      0x02\n        /* \"#utility.yul\":16361:16372   */\n      mul\n        /* \"#utility.yul\":16355:16359   */\n      dup3\n        /* \"#utility.yul\":16352:16373   */\n      or\n        /* \"#utility.yul\":16344:16373   */\n      swap1\n      pop\n        /* \"#utility.yul\":16084:16379   */\n      swap3\n      swap2\n      pop\n      pop\n      jump\t// out\n        /* \"#utility.yul\":16384:17779   */\n    tag_65:\n        /* \"#utility.yul\":16501:16538   */\n      tag_304\n        /* \"#utility.yul\":16534:16537   */\n      dup3\n        /* \"#utility.yul\":16501:16538   */\n      tag_124\n      jump\t// in\n    tag_304:\n        /* \"#utility.yul\":16603:16621   */\n      0xffffffffffffffff\n        /* \"#utility.yul\":16595:16601   */\n      dup2\n        /* \"#utility.yul\":16592:16622   */\n      gt\n        /* \"#utility.yul\":16589:16645   */\n      iszero\n      tag_305\n      jumpi\n        /* \"#utility.yul\":16625:16643   */\n      tag_306\n      tag_102\n      jump\t// in\n    tag_306:\n        /* \"#utility.yul\":16589:16645   */\n    tag_305:\n        /* \"#utility.yul\":16669:16707   */\n      tag_307\n        /* \"#utility.yul\":16701:16705   */\n      dup3\n        /* \"#utility.yul\":16695:16706   */\n      sload\n        /* \"#utility.yul\":16669:16707   */\n      tag_37\n      jump\t// in\n    tag_307:\n        /* \"#utility.yul\":16754:16821   */\n      tag_308\n        /* \"#utility.yul\":16814:16820   */\n      dup3\n        /* \"#utility.yul\":16806:16812   */\n      dup3\n        /* \"#utility.yul\":16800:16804   */\n      dup6\n        /* \"#utility.yul\":16754:16821   */\n      tag_137\n      jump\t// in\n    tag_308:\n        /* \"#utility.yul\":16848:16849   */\n      0x00\n        /* \"#utility.yul\":16872:16876   */\n      0x20\n        /* \"#utility.yul\":16859:16876   */\n      swap1\n      pop\n        /* \"#utility.yul\":16904:16906   */\n      0x1f\n        /* \"#utility.yul\":16896:16902   */\n      dup4\n        /* \"#utility.yul\":16893:16907   */\n      gt\n        /* \"#utility.yul\":16921:16922   */\n      0x01\n        /* \"#utility.yul\":16916:17534   */\n      dup2\n      eq\n      tag_310\n      jumpi\n        /* \"#utility.yul\":17578:17579   */\n      0x00\n        /* \"#utility.yul\":17595:17601   */\n      dup5\n        /* \"#utility.yul\":17592:17669   */\n      iszero\n      tag_311\n      jumpi\n        /* \"#utility.yul\":17644:17653   */\n      dup3\n        /* \"#utility.yul\":17639:17642   */\n      dup8\n        /* \"#utility.yul\":17635:17654   */\n      add\n        /* \"#utility.yul\":17629:17655   */\n      mload\n        /* \"#utility.yul\":17620:17655   */\n      swap1\n      pop\n        /* \"#utility.yul\":17592:17669   */\n    tag_311:\n        /* \"#utility.yul\":17695:17762   */\n      tag_312\n        /* \"#utility.yul\":17755:17761   */\n      dup6\n        /* \"#utility.yul\":17748:17753   */\n      dup3\n        /* \"#utility.yul\":17695:17762   */\n      tag_140\n      jump\t// in\n    tag_312:\n        /* \"#utility.yul\":17689:17693   */\n      dup7\n        /* \"#utility.yul\":17682:17763   */\n      sstore\n        /* \"#utility.yul\":17551:17773   */\n      pop\n        /* \"#utility.yul\":16886:17773   */\n      jump(tag_309)\n        /* \"#utility.yul\":16916:17534   */\n    tag_310:\n        /* \"#utility.yul\":16968:16972   */\n      0x1f\n        /* \"#utility.yul\":16964:16973   */\n      not\n        /* \"#utility.yul\":16956:16962   */\n      dup5\n        /* \"#utility.yul\":16952:16974   */\n      and\n        /* \"#utility.yul\":17002:17039   */\n      tag_313\n        /* \"#utility.yul\":17034:17038   */\n      dup7\n        /* \"#utility.yul\":17002:17039   */\n      tag_125\n      jump\t// in\n    tag_313:\n        /* \"#utility.yul\":17061:17062   */\n      0x00\n        /* \"#utility.yul\":17075:17283   */\n    tag_314:\n        /* \"#utility.yul\":17089:17096   */\n      dup3\n        /* \"#utility.yul\":17086:17087   */\n      dup2\n        /* \"#utility.yul\":17083:17097   */\n      lt\n        /* \"#utility.yul\":17075:17283   */\n      iszero\n      tag_316\n      jumpi\n        /* \"#utility.yul\":17168:17177   */\n      dup5\n        /* \"#utility.yul\":17163:17166   */\n      dup10\n        /* \"#utility.yul\":17159:17178   */\n      add\n        /* \"#utility.yul\":17153:17179   */\n      mload\n        /* \"#utility.yul\":17145:17151   */\n      dup3\n        /* \"#utility.yul\":17138:17180   */\n      sstore\n        /* \"#utility.yul\":17219:17220   */\n      0x01\n        /* \"#utility.yul\":17211:17217   */\n      dup3\n        /* \"#utility.yul\":17207:17221   */\n      add\n        /* \"#utility.yul\":17197:17221   */\n      swap2\n      pop\n        /* \"#utility.yul\":17266:17268   */\n      0x20\n        /* \"#utility.yul\":17255:17264   */\n      dup6\n        /* \"#utility.yul\":17251:17269   */\n      add\n        /* \"#utility.yul\":17238:17269   */\n      swap5\n      pop\n        /* \"#utility.yul\":17112:17116   */\n      0x20\n        /* \"#utility.yul\":17109:17110   */\n      dup2\n        /* \"#utility.yul\":17105:17117   */\n      add\n        /* \"#utility.yul\":17100:17117   */\n      swap1\n      pop\n        /* \"#utility.yul\":17075:17283   */\n      jump(tag_314)\n    tag_316:\n        /* \"#utility.yul\":17311:17317   */\n      dup7\n        /* \"#utility.yul\":17302:17309   */\n      dup4\n        /* \"#utility.yul\":17299:17318   */\n      lt\n        /* \"#utility.yul\":17296:17475   */\n      iszero\n      tag_317\n      jumpi\n        /* \"#utility.yul\":17369:17378   */\n      dup5\n        /* \"#utility.yul\":17364:17367   */\n      dup10\n        /* \"#utility.yul\":17360:17379   */\n      add\n        /* \"#utility.yul\":17354:17380   */\n      mload\n        /* \"#utility.yul\":17412:17460   */\n      tag_318\n        /* \"#utility.yul\":17454:17458   */\n      0x1f\n        /* \"#utility.yul\":17446:17452   */\n      dup10\n        /* \"#utility.yul\":17442:17459   */\n      and\n        /* \"#utility.yul\":17431:17440   */\n      dup3\n        /* \"#utility.yul\":17412:17460   */\n      tag_139\n      jump\t// in\n    tag_318:\n        /* \"#utility.yul\":17404:17410   */\n      dup4\n        /* \"#utility.yul\":17397:17461   */\n      sstore\n        /* \"#utility.yul\":17319:17475   */\n      pop\n        /* \"#utility.yul\":17296:17475   */\n    tag_317:\n        /* \"#utility.yul\":17521:17522   */\n      0x01\n        /* \"#utility.yul\":17517:17518   */\n      0x02\n        /* \"#utility.yul\":17509:17515   */\n      dup9\n        /* \"#utility.yul\":17505:17519   */\n      mul\n        /* \"#utility.yul\":17501:17523   */\n      add\n        /* \"#utility.yul\":17495:17499   */\n      dup9\n        /* \"#utility.yul\":17488:17524   */\n      sstore\n        /* \"#utility.yul\":16923:17534   */\n      pop\n      pop\n      pop\n        /* \"#utility.yul\":16886:17773   */\n    tag_309:\n      pop\n        /* \"#utility.yul\":16476:17779   */\n      pop\n      pop\n      pop\n        /* \"#utility.yul\":16384:17779   */\n      pop\n      pop\n      jump\t// out\n        /* \"#utility.yul\":17785:17924   */\n    tag_141:\n        /* \"#utility.yul\":17874:17880   */\n      dup3\n        /* \"#utility.yul\":17869:17872   */\n      dup2\n        /* \"#utility.yul\":17864:17867   */\n      dup4\n        /* \"#utility.yul\":17858:17881   */\n      mcopy\n        /* \"#utility.yul\":17915:17916   */\n      0x00\n        /* \"#utility.yul\":17906:17912   */\n      dup4\n        /* \"#utility.yul\":17901:17904   */\n      dup4\n        /* \"#utility.yul\":17897:17913   */\n      add\n        /* \"#utility.yul\":17890:17917   */\n      mstore\n        /* \"#utility.yul\":17785:17924   */\n      pop\n      pop\n      pop\n      jump\t// out\n        /* \"#utility.yul\":17930:18307   */\n    tag_142:\n        /* \"#utility.yul\":18018:18021   */\n      0x00\n        /* \"#utility.yul\":18046:18085   */\n      tag_321\n        /* \"#utility.yul\":18079:18084   */\n      dup3\n        /* \"#utility.yul\":18046:18085   */\n      tag_124\n      jump\t// in\n    tag_321:\n        /* \"#utility.yul\":18101:18172   */\n      tag_322\n        /* \"#utility.yul\":18165:18171   */\n      dup2\n        /* \"#utility.yul\":18160:18163   */\n      dup6\n        /* \"#utility.yul\":18101:18172   */\n      tag_111\n      jump\t// in\n    tag_322:\n        /* \"#utility.yul\":18094:18172   */\n      swap4\n      pop\n        /* \"#utility.yul\":18181:18246   */\n      tag_323\n        /* \"#utility.yul\":18239:18245   */\n      dup2\n        /* \"#utility.yul\":18234:18237   */\n      dup6\n        /* \"#utility.yul\":18227:18231   */\n      0x20\n        /* \"#utility.yul\":18220:18225   */\n      dup7\n        /* \"#utility.yul\":18216:18232   */\n      add\n        /* \"#utility.yul\":18181:18246   */\n      tag_141\n      jump\t// in\n    tag_323:\n        /* \"#utility.yul\":18271:18300   */\n      tag_324\n        /* \"#utility.yul\":18293:18299   */\n      dup2\n        /* \"#utility.yul\":18271:18300   */\n      tag_101\n      jump\t// in\n    tag_324:\n        /* \"#utility.yul\":18266:18269   */\n      dup5\n        /* \"#utility.yul\":18262:18301   */\n      add\n        /* \"#utility.yul\":18255:18301   */\n      swap2\n      pop\n        /* \"#utility.yul\":18022:18307   */\n      pop\n        /* \"#utility.yul\":17930:18307   */\n      swap3\n      swap2\n      pop\n      pop\n      jump\t// out\n        /* \"#utility.yul\":18313:18827   */\n    tag_71:\n        /* \"#utility.yul\":18474:18478   */\n      0x00\n        /* \"#utility.yul\":18512:18514   */\n      0x40\n        /* \"#utility.yul\":18501:18510   */\n      dup3\n        /* \"#utility.yul\":18497:18515   */\n      add\n        /* \"#utility.yul\":18489:18515   */\n      swap1\n      pop\n        /* \"#utility.yul\":18561:18570   */\n      dup2\n        /* \"#utility.yul\":18555:18559   */\n      dup2\n        /* \"#utility.yul\":18551:18571   */\n      sub\n        /* \"#utility.yul\":18547:18548   */\n      0x00\n        /* \"#utility.yul\":18536:18545   */\n      dup4\n        /* \"#utility.yul\":18532:18549   */\n      add\n        /* \"#utility.yul\":18525:18572   */\n      mstore\n        /* \"#utility.yul\":18589:18667   */\n      tag_326\n        /* \"#utility.yul\":18662:18666   */\n      dup2\n        /* \"#utility.yul\":18653:18659   */\n      dup6\n        /* \"#utility.yul\":18589:18667   */\n      tag_142\n      jump\t// in\n    tag_326:\n        /* \"#utility.yul\":18581:18667   */\n      swap1\n      pop\n        /* \"#utility.yul\":18714:18723   */\n      dup2\n        /* \"#utility.yul\":18708:18712   */\n      dup2\n        /* \"#utility.yul\":18704:18724   */\n      sub\n        /* \"#utility.yul\":18699:18701   */\n      0x20\n        /* \"#utility.yul\":18688:18697   */\n      dup4\n        /* \"#utility.yul\":18684:18702   */\n      add\n        /* \"#utility.yul\":18677:18725   */\n      mstore\n        /* \"#utility.yul\":18742:18820   */\n      tag_327\n        /* \"#utility.yul\":18815:18819   */\n      dup2\n        /* \"#utility.yul\":18806:18812   */\n      dup5\n        /* \"#utility.yul\":18742:18820   */\n      tag_142\n      jump\t// in\n    tag_327:\n        /* \"#utility.yul\":18734:18820   */\n      swap1\n      pop\n        /* \"#utility.yul\":18313:18827   */\n      swap4\n      swap3\n      pop\n      pop\n      pop\n      jump\t// out\n\n    auxdata: 0xa264697066735822122047a7fde91b3d17edcc57c8eff72a538735cbe3a0943d67cab35c07a567727f7364736f6c634300081e0033\n}\n",
				"bytecode": {
					"linkReferences": {},
					"object": "608060405234801561000f575f5ffd5b50335f73ffffffffffffffffffffffffffffffffffffffff168173ffffffffffffffffffffffffffffffffffffffff1603610081575f6040517f1e4fbdf70000000000000000000000000000000000000000000000000000000081526004016100789190610196565b60405180910390fd5b6100908161009660201b60201c565b506101af565b5f5f5f9054906101000a900473ffffffffffffffffffffffffffffffffffffffff169050815f5f6101000a81548173ffffffffffffffffffffffffffffffffffffffff021916908373ffffffffffffffffffffffffffffffffffffffff1602179055508173ffffffffffffffffffffffffffffffffffffffff168173ffffffffffffffffffffffffffffffffffffffff167f8be0079c531659141344cd1fd0a4f28419497f9722a3daafe3b4186f6b6457e060405160405180910390a35050565b5f73ffffffffffffffffffffffffffffffffffffffff82169050919050565b5f61018082610157565b9050919050565b61019081610176565b82525050565b5f6020820190506101a95f830184610187565b92915050565b6110f8806101bc5f395ff3fe608060405234801561000f575f5ffd5b5060043610610060575f3560e01c8063474adb8f14610064578063715018a6146100805780638da5cb5b1461008a578063a9fabbd2146100a8578063ace417e0146100c4578063f2fde38b146100f4575b5f5ffd5b61007e600480360381019061007991906107f0565b610110565b005b61008861024e565b005b610092610261565b60405161009f919061083d565b60405180910390f35b6100c260048036038101906100bd9190610992565b610288565b005b6100de60048036038101906100d99190610a95565b610528565b6040516100eb9190610acf565b60405180910390f35b61010e60048036038101906101099190610a95565b61057d565b005b610118610601565b5f60015f8473ffffffffffffffffffffffffffffffffffffffff1673ffffffffffffffffffffffffffffffffffffffff1681526020019081526020015f205f01805461016390610b15565b9050116101a5576040517f08c379a000000000000000000000000000000000000000000000000000000000815260040161019c90610b9f565b60405180910390fd5b8060015f8473ffffffffffffffffffffffffffffffffffffffff1673ffffffffffffffffffffffffffffffffffffffff1681526020019081526020015f206005015f6101000a81548160ff0219169083151502179055508173ffffffffffffffffffffffffffffffffffffffff167f7a02eb9b107b2ab713e88c3cd7ac538e5c21b689d0f1b1f22367578b28fc5d09826040516102429190610acf565b60405180910390a25050565b610256610601565b61025f5f610688565b565b5f5f5f9054906101000a900473ffffffffffffffffffffffffffffffffffffffff16905090565b5f8551116102cb576040517f08c379a00000000000000000000000000000000000000000000000000000000081526004016102c290610c07565b60405180910390fd5b5f84511161030e576040517f08c379a000000000000000000000000000000000000000000000000000000000815260040161030590610c6f565b60405180910390fd5b5f835111610351576040517f08c379a000000000000000000000000000000000000000000000000000000000815260040161034890610cd7565b60405180910390fd5b5f825111610394576040517f08c379a000000000000000000000000000000000000000000000000000000000815260040161038b90610d3f565b60405180910390fd5b5f8151116103d7576040517f08c379a00000000000000000000000000000000000000000000000000000000081526004016103ce90610da7565b60405180910390fd5b6040518060c001604052808681526020018581526020018481526020018381526020018281526020015f151581525060015f3373ffffffffffffffffffffffffffffffffffffffff1673ffffffffffffffffffffffffffffffffffffffff1681526020019081526020015f205f820151815f0190816104569190610f78565b50602082015181600101908161046c9190610f78565b5060408201518160020190816104829190610f78565b5060608201518160030190816104989190610f78565b5060808201518160040190816104ae9190610f78565b5060a0820151816005015f6101000a81548160ff0219169083151502179055509050503373ffffffffffffffffffffffffffffffffffffffff167f74aeb3a73c6cebe2ddfb681c384e0117cc8dd5e93900b3b1507dee33c2603841868560405161051992919061108d565b60405180910390a25050505050565b5f60015f8373ffffffffffffffffffffffffffffffffffffffff1673ffffffffffffffffffffffffffffffffffffffff1681526020019081526020015f206005015f9054906101000a900460ff169050919050565b610585610601565b5f73ffffffffffffffffffffffffffffffffffffffff168173ffffffffffffffffffffffffffffffffffffffff16036105f5575f6040517f1e4fbdf70000000000000000000000000000000000000000000000000000000081526004016105ec919061083d565b60405180910390fd5b6105fe81610688565b50565b610609610749565b73ffffffffffffffffffffffffffffffffffffffff16610627610261565b73ffffffffffffffffffffffffffffffffffffffff16146106865761064a610749565b6040517f118cdaa700000000000000000000000000000000000000000000000000000000815260040161067d919061083d565b60405180910390fd5b565b5f5f5f9054906101000a900473ffffffffffffffffffffffffffffffffffffffff169050815f5f6101000a81548173ffffffffffffffffffffffffffffffffffffffff021916908373ffffffffffffffffffffffffffffffffffffffff1602179055508173ffffffffffffffffffffffffffffffffffffffff168173ffffffffffffffffffffffffffffffffffffffff167f8be0079c531659141344cd1fd0a4f28419497f9722a3daafe3b4186f6b6457e060405160405180910390a35050565b5f33905090565b5f604051905090565b5f5ffd5b5f5ffd5b5f73ffffffffffffffffffffffffffffffffffffffff82169050919050565b5f61078a82610761565b9050919050565b61079a81610780565b81146107a4575f5ffd5b50565b5f813590506107b581610791565b92915050565b5f8115159050919050565b6107cf816107bb565b81146107d9575f5ffd5b50565b5f813590506107ea816107c6565b92915050565b5f5f6040838503121561080657610805610759565b5b5f610813858286016107a7565b9250506020610824858286016107dc565b9150509250929050565b61083781610780565b82525050565b5f6020820190506108505f83018461082e565b92915050565b5f5ffd5b5f5ffd5b5f601f19601f8301169050919050565b7f4e487b71000000000000000000000000000000000000000000000000000000005f52604160045260245ffd5b6108a48261085e565b810181811067ffffffffffffffff821117156108c3576108c261086e565b5b80604052505050565b5f6108d5610750565b90506108e1828261089b565b919050565b5f67ffffffffffffffff821115610900576108ff61086e565b5b6109098261085e565b9050602081019050919050565b828183375f83830152505050565b5f610936610931846108e6565b6108cc565b9050828152602081018484840111156109525761095161085a565b5b61095d848285610916565b509392505050565b5f82601f83011261097957610978610856565b5b8135610989848260208601610924565b91505092915050565b5f5f5f5f5f60a086880312156109ab576109aa610759565b5b5f86013567ffffffffffffffff8111156109c8576109c761075d565b5b6109d488828901610965565b955050602086013567ffffffffffffffff8111156109f5576109f461075d565b5b610a0188828901610965565b945050604086013567ffffffffffffffff811115610a2257610a2161075d565b5b610a2e88828901610965565b935050606086013567ffffffffffffffff811115610a4f57610a4e61075d565b5b610a5b88828901610965565b925050608086013567ffffffffffffffff811115610a7c57610a7b61075d565b5b610a8888828901610965565b9150509295509295909350565b5f60208284031215610aaa57610aa9610759565b5b5f610ab7848285016107a7565b91505092915050565b610ac9816107bb565b82525050565b5f602082019050610ae25f830184610ac0565b92915050565b7f4e487b71000000000000000000000000000000000000000000000000000000005f52602260045260245ffd5b5f6002820490506001821680610b2c57607f821691505b602082108103610b3f57610b3e610ae8565b5b50919050565b5f82825260208201905092915050565b7f5573657220686173206e6f74207375626d6974746564204b59430000000000005f82015250565b5f610b89601a83610b45565b9150610b9482610b55565b602082019050919050565b5f6020820190508181035f830152610bb681610b7d565b9050919050565b7f4e616d65206973207265717569726564000000000000000000000000000000005f82015250565b5f610bf1601083610b45565b9150610bfc82610bbd565b602082019050919050565b5f6020820190508181035f830152610c1e81610be5565b9050919050565b7f456d61696c2069732072657175697265640000000000000000000000000000005f82015250565b5f610c59601183610b45565b9150610c6482610c25565b602082019050919050565b5f6020820190508181035f830152610c8681610c4d565b9050919050565b7f4e6174696f6e616c6974792069732072657175697265640000000000000000005f82015250565b5f610cc1601783610b45565b9150610ccc82610c8d565b602082019050919050565b5f6020820190508181035f830152610cee81610cb5565b9050919050565b7f4944204e756d62657220697320726571756972656400000000000000000000005f82015250565b5f610d29601583610b45565b9150610d3482610cf5565b602082019050919050565b5f6020820190508181035f830152610d5681610d1d565b9050919050565b7f494420496d6167652069732072657175697265640000000000000000000000005f82015250565b5f610d91601483610b45565b9150610d9c82610d5d565b602082019050919050565b5f6020820190508181035f830152610dbe81610d85565b9050919050565b5f81519050919050565b5f819050815f5260205f209050919050565b5f6020601f8301049050919050565b5f82821b905092915050565b5f60088302610e2b7fffffffffffffffffffffffffffffffffffffffffffffffffffffffffffffffff82610df0565b610e358683610df0565b95508019841693508086168417925050509392505050565b5f819050919050565b5f819050919050565b5f610e79610e74610e6f84610e4d565b610e56565b610e4d565b9050919050565b5f819050919050565b610e9283610e5f565b610ea6610e9e82610e80565b848454610dfc565b825550505050565b5f5f905090565b610ebd610eae565b610ec8818484610e89565b505050565b5b81811015610eeb57610ee05f82610eb5565b600181019050610ece565b5050565b601f821115610f3057610f0181610dcf565b610f0a84610de1565b81016020851015610f19578190505b610f2d610f2585610de1565b830182610ecd565b50505b505050565b5f82821c905092915050565b5f610f505f1984600802610f35565b1980831691505092915050565b5f610f688383610f41565b9150826002028217905092915050565b610f8182610dc5565b67ffffffffffffffff811115610f9a57610f9961086e565b5b610fa48254610b15565b610faf828285610eef565b5f60209050601f831160018114610fe0575f8415610fce578287015190505b610fd88582610f5d565b86555061103f565b601f198416610fee86610dcf565b5f5b8281101561101557848901518255600182019150602085019450602081019050610ff0565b86831015611032578489015161102e601f891682610f41565b8355505b6001600288020188555050505b505050505050565b8281835e5f83830152505050565b5f61105f82610dc5565b6110698185610b45565b9350611079818560208601611047565b6110828161085e565b840191505092915050565b5f6040820190508181035f8301526110a58185611055565b905081810360208301526110b98184611055565b9050939250505056fea264697066735822122047a7fde91b3d17edcc57c8eff72a538735cbe3a0943d67cab35c07a567727f7364736f6c634300081e0033",
					"opcodes": "PUSH1 0x80 PUSH1 0x40 MSTORE CALLVALUE DUP1 ISZERO PUSH2 0xF JUMPI PUSH0 PUSH0 REVERT JUMPDEST POP CALLER PUSH0 PUSH20 0xFFFFFFFFFFFFFFFFFFFFFFFFFFFFFFFFFFFFFFFF AND DUP2 PUSH20 0xFFFFFFFFFFFFFFFFFFFFFFFFFFFFFFFFFFFFFFFF AND SUB PUSH2 0x81 JUMPI PUSH0 PUSH1 0x40 MLOAD PUSH32 0x1E4FBDF700000000000000000000000000000000000000000000000000000000 DUP2 MSTORE PUSH1 0x4 ADD PUSH2 0x78 SWAP2 SWAP1 PUSH2 0x196 JUMP JUMPDEST PUSH1 0x40 MLOAD DUP1 SWAP2 SUB SWAP1 REVERT JUMPDEST PUSH2 0x90 DUP2 PUSH2 0x96 PUSH1 0x20 SHL PUSH1 0x20 SHR JUMP JUMPDEST POP PUSH2 0x1AF JUMP JUMPDEST PUSH0 PUSH0 PUSH0 SWAP1 SLOAD SWAP1 PUSH2 0x100 EXP SWAP1 DIV PUSH20 0xFFFFFFFFFFFFFFFFFFFFFFFFFFFFFFFFFFFFFFFF AND SWAP1 POP DUP2 PUSH0 PUSH0 PUSH2 0x100 EXP DUP2 SLOAD DUP2 PUSH20 0xFFFFFFFFFFFFFFFFFFFFFFFFFFFFFFFFFFFFFFFF MUL NOT AND SWAP1 DUP4 PUSH20 0xFFFFFFFFFFFFFFFFFFFFFFFFFFFFFFFFFFFFFFFF AND MUL OR SWAP1 SSTORE POP DUP2 PUSH20 0xFFFFFFFFFFFFFFFFFFFFFFFFFFFFFFFFFFFFFFFF AND DUP2 PUSH20 0xFFFFFFFFFFFFFFFFFFFFFFFFFFFFFFFFFFFFFFFF AND PUSH32 0x8BE0079C531659141344CD1FD0A4F28419497F9722A3DAAFE3B4186F6B6457E0 PUSH1 0x40 MLOAD PUSH1 0x40 MLOAD DUP1 SWAP2 SUB SWAP1 LOG3 POP POP JUMP JUMPDEST PUSH0 PUSH20 0xFFFFFFFFFFFFFFFFFFFFFFFFFFFFFFFFFFFFFFFF DUP3 AND SWAP1 POP SWAP2 SWAP1 POP JUMP JUMPDEST PUSH0 PUSH2 0x180 DUP3 PUSH2 0x157 JUMP JUMPDEST SWAP1 POP SWAP2 SWAP1 POP JUMP JUMPDEST PUSH2 0x190 DUP2 PUSH2 0x176 JUMP JUMPDEST DUP3 MSTORE POP POP JUMP JUMPDEST PUSH0 PUSH1 0x20 DUP3 ADD SWAP1 POP PUSH2 0x1A9 PUSH0 DUP4 ADD DUP5 PUSH2 0x187 JUMP JUMPDEST SWAP3 SWAP2 POP POP JUMP JUMPDEST PUSH2 0x10F8 DUP1 PUSH2 0x1BC PUSH0 CODECOPY PUSH0 RETURN INVALID PUSH1 0x80 PUSH1 0x40 MSTORE CALLVALUE DUP1 ISZERO PUSH2 0xF JUMPI PUSH0 PUSH0 REVERT JUMPDEST POP PUSH1 0x4 CALLDATASIZE LT PUSH2 0x60 JUMPI PUSH0 CALLDATALOAD PUSH1 0xE0 SHR DUP1 PUSH4 0x474ADB8F EQ PUSH2 0x64 JUMPI DUP1 PUSH4 0x715018A6 EQ PUSH2 0x80 JUMPI DUP1 PUSH4 0x8DA5CB5B EQ PUSH2 0x8A JUMPI DUP1 PUSH4 0xA9FABBD2 EQ PUSH2 0xA8 JUMPI DUP1 PUSH4 0xACE417E0 EQ PUSH2 0xC4 JUMPI DUP1 PUSH4 0xF2FDE38B EQ PUSH2 0xF4 JUMPI JUMPDEST PUSH0 PUSH0 REVERT JUMPDEST PUSH2 0x7E PUSH1 0x4 DUP1 CALLDATASIZE SUB DUP2 ADD SWAP1 PUSH2 0x79 SWAP2 SWAP1 PUSH2 0x7F0 JUMP JUMPDEST PUSH2 0x110 JUMP JUMPDEST STOP JUMPDEST PUSH2 0x88 PUSH2 0x24E JUMP JUMPDEST STOP JUMPDEST PUSH2 0x92 PUSH2 0x261 JUMP JUMPDEST PUSH1 0x40 MLOAD PUSH2 0x9F SWAP2 SWAP1 PUSH2 0x83D JUMP JUMPDEST PUSH1 0x40 MLOAD DUP1 SWAP2 SUB SWAP1 RETURN JUMPDEST PUSH2 0xC2 PUSH1 0x4 DUP1 CALLDATASIZE SUB DUP2 ADD SWAP1 PUSH2 0xBD SWAP2 SWAP1 PUSH2 0x992 JUMP JUMPDEST PUSH2 0x288 JUMP JUMPDEST STOP JUMPDEST PUSH2 0xDE PUSH1 0x4 DUP1 CALLDATASIZE SUB DUP2 ADD SWAP1 PUSH2 0xD9 SWAP2 SWAP1 PUSH2 0xA95 JUMP JUMPDEST PUSH2 0x528 JUMP JUMPDEST PUSH1 0x40 MLOAD PUSH2 0xEB SWAP2 SWAP1 PUSH2 0xACF JUMP JUMPDEST PUSH1 0x40 MLOAD DUP1 SWAP2 SUB SWAP1 RETURN JUMPDEST PUSH2 0x10E PUSH1 0x4 DUP1 CALLDATASIZE SUB DUP2 ADD SWAP1 PUSH2 0x109 SWAP2 SWAP1 PUSH2 0xA95 JUMP JUMPDEST PUSH2 0x57D JUMP JUMPDEST STOP JUMPDEST PUSH2 0x118 PUSH2 0x601 JUMP JUMPDEST PUSH0 PUSH1 0x1 PUSH0 DUP5 PUSH20 0xFFFFFFFFFFFFFFFFFFFFFFFFFFFFFFFFFFFFFFFF AND PUSH20 0xFFFFFFFFFFFFFFFFFFFFFFFFFFFFFFFFFFFFFFFF AND DUP2 MSTORE PUSH1 0x20 ADD SWAP1 DUP2 MSTORE PUSH1 0x20 ADD PUSH0 KECCAK256 PUSH0 ADD DUP1 SLOAD PUSH2 0x163 SWAP1 PUSH2 0xB15 JUMP JUMPDEST SWAP1 POP GT PUSH2 0x1A5 JUMPI PUSH1 0x40 MLOAD PUSH32 0x8C379A000000000000000000000000000000000000000000000000000000000 DUP2 MSTORE PUSH1 0x4 ADD PUSH2 0x19C SWAP1 PUSH2 0xB9F JUMP JUMPDEST PUSH1 0x40 MLOAD DUP1 SWAP2 SUB SWAP1 REVERT JUMPDEST DUP1 PUSH1 0x1 PUSH0 DUP5 PUSH20 0xFFFFFFFFFFFFFFFFFFFFFFFFFFFFFFFFFFFFFFFF AND PUSH20 0xFFFFFFFFFFFFFFFFFFFFFFFFFFFFFFFFFFFFFFFF AND DUP2 MSTORE PUSH1 0x20 ADD SWAP1 DUP2 MSTORE PUSH1 0x20 ADD PUSH0 KECCAK256 PUSH1 0x5 ADD PUSH0 PUSH2 0x100 EXP DUP2 SLOAD DUP2 PUSH1 0xFF MUL NOT AND SWAP1 DUP4 ISZERO ISZERO MUL OR SWAP1 SSTORE POP DUP2 PUSH20 0xFFFFFFFFFFFFFFFFFFFFFFFFFFFFFFFFFFFFFFFF AND PUSH32 0x7A02EB9B107B2AB713E88C3CD7AC538E5C21B689D0F1B1F22367578B28FC5D09 DUP3 PUSH1 0x40 MLOAD PUSH2 0x242 SWAP2 SWAP1 PUSH2 0xACF JUMP JUMPDEST PUSH1 0x40 MLOAD DUP1 SWAP2 SUB SWAP1 LOG2 POP POP JUMP JUMPDEST PUSH2 0x256 PUSH2 0x601 JUMP JUMPDEST PUSH2 0x25F PUSH0 PUSH2 0x688 JUMP JUMPDEST JUMP JUMPDEST PUSH0 PUSH0 PUSH0 SWAP1 SLOAD SWAP1 PUSH2 0x100 EXP SWAP1 DIV PUSH20 0xFFFFFFFFFFFFFFFFFFFFFFFFFFFFFFFFFFFFFFFF AND SWAP1 POP SWAP1 JUMP JUMPDEST PUSH0 DUP6 MLOAD GT PUSH2 0x2CB JUMPI PUSH1 0x40 MLOAD PUSH32 0x8C379A000000000000000000000000000000000000000000000000000000000 DUP2 MSTORE PUSH1 0x4 ADD PUSH2 0x2C2 SWAP1 PUSH2 0xC07 JUMP JUMPDEST PUSH1 0x40 MLOAD DUP1 SWAP2 SUB SWAP1 REVERT JUMPDEST PUSH0 DUP5 MLOAD GT PUSH2 0x30E JUMPI PUSH1 0x40 MLOAD PUSH32 0x8C379A000000000000000000000000000000000000000000000000000000000 DUP2 MSTORE PUSH1 0x4 ADD PUSH2 0x305 SWAP1 PUSH2 0xC6F JUMP JUMPDEST PUSH1 0x40 MLOAD DUP1 SWAP2 SUB SWAP1 REVERT JUMPDEST PUSH0 DUP4 MLOAD GT PUSH2 0x351 JUMPI PUSH1 0x40 MLOAD PUSH32 0x8C379A000000000000000000000000000000000000000000000000000000000 DUP2 MSTORE PUSH1 0x4 ADD PUSH2 0x348 SWAP1 PUSH2 0xCD7 JUMP JUMPDEST PUSH1 0x40 MLOAD DUP1 SWAP2 SUB SWAP1 REVERT JUMPDEST PUSH0 DUP3 MLOAD GT PUSH2 0x394 JUMPI PUSH1 0x40 MLOAD PUSH32 0x8C379A000000000000000000000000000000000000000000000000000000000 DUP2 MSTORE PUSH1 0x4 ADD PUSH2 0x38B SWAP1 PUSH2 0xD3F JUMP JUMPDEST PUSH1 0x40 MLOAD DUP1 SWAP2 SUB SWAP1 REVERT JUMPDEST PUSH0 DUP2 MLOAD GT PUSH2 0x3D7 JUMPI PUSH1 0x40 MLOAD PUSH32 0x8C379A000000000000000000000000000000000000000000000000000000000 DUP2 MSTORE PUSH1 0x4 ADD PUSH2 0x3CE SWAP1 PUSH2 0xDA7 JUMP JUMPDEST PUSH1 0x40 MLOAD DUP1 SWAP2 SUB SWAP1 REVERT JUMPDEST PUSH1 0x40 MLOAD DUP1 PUSH1 0xC0 ADD PUSH1 0x40 MSTORE DUP1 DUP7 DUP2 MSTORE PUSH1 0x20 ADD DUP6 DUP2 MSTORE PUSH1 0x20 ADD DUP5 DUP2 MSTORE PUSH1 0x20 ADD DUP4 DUP2 MSTORE PUSH1 0x20 ADD DUP3 DUP2 MSTORE PUSH1 0x20 ADD PUSH0 ISZERO ISZERO DUP2 MSTORE POP PUSH1 0x1 PUSH0 CALLER PUSH20 0xFFFFFFFFFFFFFFFFFFFFFFFFFFFFFFFFFFFFFFFF AND PUSH20 0xFFFFFFFFFFFFFFFFFFFFFFFFFFFFFFFFFFFFFFFF AND DUP2 MSTORE PUSH1 0x20 ADD SWAP1 DUP2 MSTORE PUSH1 0x20 ADD PUSH0 KECCAK256 PUSH0 DUP3 ADD MLOAD DUP2 PUSH0 ADD SWAP1 DUP2 PUSH2 0x456 SWAP2 SWAP1 PUSH2 0xF78 JUMP JUMPDEST POP PUSH1 0x20 DUP3 ADD MLOAD DUP2 PUSH1 0x1 ADD SWAP1 DUP2 PUSH2 0x46C SWAP2 SWAP1 PUSH2 0xF78 JUMP JUMPDEST POP PUSH1 0x40 DUP3 ADD MLOAD DUP2 PUSH1 0x2 ADD SWAP1 DUP2 PUSH2 0x482 SWAP2 SWAP1 PUSH2 0xF78 JUMP JUMPDEST POP PUSH1 0x60 DUP3 ADD MLOAD DUP2 PUSH1 0x3 ADD SWAP1 DUP2 PUSH2 0x498 SWAP2 SWAP1 PUSH2 0xF78 JUMP JUMPDEST POP PUSH1 0x80 DUP3 ADD MLOAD DUP2 PUSH1 0x4 ADD SWAP1 DUP2 PUSH2 0x4AE SWAP2 SWAP1 PUSH2 0xF78 JUMP JUMPDEST POP PUSH1 0xA0 DUP3 ADD MLOAD DUP2 PUSH1 0x5 ADD PUSH0 PUSH2 0x100 EXP DUP2 SLOAD DUP2 PUSH1 0xFF MUL NOT AND SWAP1 DUP4 ISZERO ISZERO MUL OR SWAP1 SSTORE POP SWAP1 POP POP CALLER PUSH20 0xFFFFFFFFFFFFFFFFFFFFFFFFFFFFFFFFFFFFFFFF AND PUSH32 0x74AEB3A73C6CEBE2DDFB681C384E0117CC8DD5E93900B3B1507DEE33C2603841 DUP7 DUP6 PUSH1 0x40 MLOAD PUSH2 0x519 SWAP3 SWAP2 SWAP1 PUSH2 0x108D JUMP JUMPDEST PUSH1 0x40 MLOAD DUP1 SWAP2 SUB SWAP1 LOG2 POP POP POP POP POP JUMP JUMPDEST PUSH0 PUSH1 0x1 PUSH0 DUP4 PUSH20 0xFFFFFFFFFFFFFFFFFFFFFFFFFFFFFFFFFFFFFFFF AND PUSH20 0xFFFFFFFFFFFFFFFFFFFFFFFFFFFFFFFFFFFFFFFF AND DUP2 MSTORE PUSH1 0x20 ADD SWAP1 DUP2 MSTORE PUSH1 0x20 ADD PUSH0 KECCAK256 PUSH1 0x5 ADD PUSH0 SWAP1 SLOAD SWAP1 PUSH2 0x100 EXP SWAP1 DIV PUSH1 0xFF AND SWAP1 POP SWAP2 SWAP1 POP JUMP JUMPDEST PUSH2 0x585 PUSH2 0x601 JUMP JUMPDEST PUSH0 PUSH20 0xFFFFFFFFFFFFFFFFFFFFFFFFFFFFFFFFFFFFFFFF AND DUP2 PUSH20 0xFFFFFFFFFFFFFFFFFFFFFFFFFFFFFFFFFFFFFFFF AND SUB PUSH2 0x5F5 JUMPI PUSH0 PUSH1 0x40 MLOAD PUSH32 0x1E4FBDF700000000000000000000000000000000000000000000000000000000 DUP2 MSTORE PUSH1 0x4 ADD PUSH2 0x5EC SWAP2 SWAP1 PUSH2 0x83D JUMP JUMPDEST PUSH1 0x40 MLOAD DUP1 SWAP2 SUB SWAP1 REVERT JUMPDEST PUSH2 0x5FE DUP2 PUSH2 0x688 JUMP JUMPDEST POP JUMP JUMPDEST PUSH2 0x609 PUSH2 0x749 JUMP JUMPDEST PUSH20 0xFFFFFFFFFFFFFFFFFFFFFFFFFFFFFFFFFFFFFFFF AND PUSH2 0x627 PUSH2 0x261 JUMP JUMPDEST PUSH20 0xFFFFFFFFFFFFFFFFFFFFFFFFFFFFFFFFFFFFFFFF AND EQ PUSH2 0x686 JUMPI PUSH2 0x64A PUSH2 0x749 JUMP JUMPDEST PUSH1 0x40 MLOAD PUSH32 0x118CDAA700000000000000000000000000000000000000000000000000000000 DUP2 MSTORE PUSH1 0x4 ADD PUSH2 0x67D SWAP2 SWAP1 PUSH2 0x83D JUMP JUMPDEST PUSH1 0x40 MLOAD DUP1 SWAP2 SUB SWAP1 REVERT JUMPDEST JUMP JUMPDEST PUSH0 PUSH0 PUSH0 SWAP1 SLOAD SWAP1 PUSH2 0x100 EXP SWAP1 DIV PUSH20 0xFFFFFFFFFFFFFFFFFFFFFFFFFFFFFFFFFFFFFFFF AND SWAP1 POP DUP2 PUSH0 PUSH0 PUSH2 0x100 EXP DUP2 SLOAD DUP2 PUSH20 0xFFFFFFFFFFFFFFFFFFFFFFFFFFFFFFFFFFFFFFFF MUL NOT AND SWAP1 DUP4 PUSH20 0xFFFFFFFFFFFFFFFFFFFFFFFFFFFFFFFFFFFFFFFF AND MUL OR SWAP1 SSTORE POP DUP2 PUSH20 0xFFFFFFFFFFFFFFFFFFFFFFFFFFFFFFFFFFFFFFFF AND DUP2 PUSH20 0xFFFFFFFFFFFFFFFFFFFFFFFFFFFFFFFFFFFFFFFF AND PUSH32 0x8BE0079C531659141344CD1FD0A4F28419497F9722A3DAAFE3B4186F6B6457E0 PUSH1 0x40 MLOAD PUSH1 0x40 MLOAD DUP1 SWAP2 SUB SWAP1 LOG3 POP POP JUMP JUMPDEST PUSH0 CALLER SWAP1 POP SWAP1 JUMP JUMPDEST PUSH0 PUSH1 0x40 MLOAD SWAP1 POP SWAP1 JUMP JUMPDEST PUSH0 PUSH0 REVERT JUMPDEST PUSH0 PUSH0 REVERT JUMPDEST PUSH0 PUSH20 0xFFFFFFFFFFFFFFFFFFFFFFFFFFFFFFFFFFFFFFFF DUP3 AND SWAP1 POP SWAP2 SWAP1 POP JUMP JUMPDEST PUSH0 PUSH2 0x78A DUP3 PUSH2 0x761 JUMP JUMPDEST SWAP1 POP SWAP2 SWAP1 POP JUMP JUMPDEST PUSH2 0x79A DUP2 PUSH2 0x780 JUMP JUMPDEST DUP2 EQ PUSH2 0x7A4 JUMPI PUSH0 PUSH0 REVERT JUMPDEST POP JUMP JUMPDEST PUSH0 DUP2 CALLDATALOAD SWAP1 POP PUSH2 0x7B5 DUP2 PUSH2 0x791 JUMP JUMPDEST SWAP3 SWAP2 POP POP JUMP JUMPDEST PUSH0 DUP2 ISZERO ISZERO SWAP1 POP SWAP2 SWAP1 POP JUMP JUMPDEST PUSH2 0x7CF DUP2 PUSH2 0x7BB JUMP JUMPDEST DUP2 EQ PUSH2 0x7D9 JUMPI PUSH0 PUSH0 REVERT JUMPDEST POP JUMP JUMPDEST PUSH0 DUP2 CALLDATALOAD SWAP1 POP PUSH2 0x7EA DUP2 PUSH2 0x7C6 JUMP JUMPDEST SWAP3 SWAP2 POP POP JUMP JUMPDEST PUSH0 PUSH0 PUSH1 0x40 DUP4 DUP6 SUB SLT ISZERO PUSH2 0x806 JUMPI PUSH2 0x805 PUSH2 0x759 JUMP JUMPDEST JUMPDEST PUSH0 PUSH2 0x813 DUP6 DUP3 DUP7 ADD PUSH2 0x7A7 JUMP JUMPDEST SWAP3 POP POP PUSH1 0x20 PUSH2 0x824 DUP6 DUP3 DUP7 ADD PUSH2 0x7DC JUMP JUMPDEST SWAP2 POP POP SWAP3 POP SWAP3 SWAP1 POP JUMP JUMPDEST PUSH2 0x837 DUP2 PUSH2 0x780 JUMP JUMPDEST DUP3 MSTORE POP POP JUMP JUMPDEST PUSH0 PUSH1 0x20 DUP3 ADD SWAP1 POP PUSH2 0x850 PUSH0 DUP4 ADD DUP5 PUSH2 0x82E JUMP JUMPDEST SWAP3 SWAP2 POP POP JUMP JUMPDEST PUSH0 PUSH0 REVERT JUMPDEST PUSH0 PUSH0 REVERT JUMPDEST PUSH0 PUSH1 0x1F NOT PUSH1 0x1F DUP4 ADD AND SWAP1 POP SWAP2 SWAP1 POP JUMP JUMPDEST PUSH32 0x4E487B7100000000000000000000000000000000000000000000000000000000 PUSH0 MSTORE PUSH1 0x41 PUSH1 0x4 MSTORE PUSH1 0x24 PUSH0 REVERT JUMPDEST PUSH2 0x8A4 DUP3 PUSH2 0x85E JUMP JUMPDEST DUP2 ADD DUP2 DUP2 LT PUSH8 0xFFFFFFFFFFFFFFFF DUP3 GT OR ISZERO PUSH2 0x8C3 JUMPI PUSH2 0x8C2 PUSH2 0x86E JUMP JUMPDEST JUMPDEST DUP1 PUSH1 0x40 MSTORE POP POP POP JUMP JUMPDEST PUSH0 PUSH2 0x8D5 PUSH2 0x750 JUMP JUMPDEST SWAP1 POP PUSH2 0x8E1 DUP3 DUP3 PUSH2 0x89B JUMP JUMPDEST SWAP2 SWAP1 POP JUMP JUMPDEST PUSH0 PUSH8 0xFFFFFFFFFFFFFFFF DUP3 GT ISZERO PUSH2 0x900 JUMPI PUSH2 0x8FF PUSH2 0x86E JUMP JUMPDEST JUMPDEST PUSH2 0x909 DUP3 PUSH2 0x85E JUMP JUMPDEST SWAP1 POP PUSH1 0x20 DUP2 ADD SWAP1 POP SWAP2 SWAP1 POP JUMP JUMPDEST DUP3 DUP2 DUP4 CALLDATACOPY PUSH0 DUP4 DUP4 ADD MSTORE POP POP POP JUMP JUMPDEST PUSH0 PUSH2 0x936 PUSH2 0x931 DUP5 PUSH2 0x8E6 JUMP JUMPDEST PUSH2 0x8CC JUMP JUMPDEST SWAP1 POP DUP3 DUP2 MSTORE PUSH1 0x20 DUP2 ADD DUP5 DUP5 DUP5 ADD GT ISZERO PUSH2 0x952 JUMPI PUSH2 0x951 PUSH2 0x85A JUMP JUMPDEST JUMPDEST PUSH2 0x95D DUP5 DUP3 DUP6 PUSH2 0x916 JUMP JUMPDEST POP SWAP4 SWAP3 POP POP POP JUMP JUMPDEST PUSH0 DUP3 PUSH1 0x1F DUP4 ADD SLT PUSH2 0x979 JUMPI PUSH2 0x978 PUSH2 0x856 JUMP JUMPDEST JUMPDEST DUP2 CALLDATALOAD PUSH2 0x989 DUP5 DUP3 PUSH1 0x20 DUP7 ADD PUSH2 0x924 JUMP JUMPDEST SWAP2 POP POP SWAP3 SWAP2 POP POP JUMP JUMPDEST PUSH0 PUSH0 PUSH0 PUSH0 PUSH0 PUSH1 0xA0 DUP7 DUP9 SUB SLT ISZERO PUSH2 0x9AB JUMPI PUSH2 0x9AA PUSH2 0x759 JUMP JUMPDEST JUMPDEST PUSH0 DUP7 ADD CALLDATALOAD PUSH8 0xFFFFFFFFFFFFFFFF DUP2 GT ISZERO PUSH2 0x9C8 JUMPI PUSH2 0x9C7 PUSH2 0x75D JUMP JUMPDEST JUMPDEST PUSH2 0x9D4 DUP9 DUP3 DUP10 ADD PUSH2 0x965 JUMP JUMPDEST SWAP6 POP POP PUSH1 0x20 DUP7 ADD CALLDATALOAD PUSH8 0xFFFFFFFFFFFFFFFF DUP2 GT ISZERO PUSH2 0x9F5 JUMPI PUSH2 0x9F4 PUSH2 0x75D JUMP JUMPDEST JUMPDEST PUSH2 0xA01 DUP9 DUP3 DUP10 ADD PUSH2 0x965 JUMP JUMPDEST SWAP5 POP POP PUSH1 0x40 DUP7 ADD CALLDATALOAD PUSH8 0xFFFFFFFFFFFFFFFF DUP2 GT ISZERO PUSH2 0xA22 JUMPI PUSH2 0xA21 PUSH2 0x75D JUMP JUMPDEST JUMPDEST PUSH2 0xA2E DUP9 DUP3 DUP10 ADD PUSH2 0x965 JUMP JUMPDEST SWAP4 POP POP PUSH1 0x60 DUP7 ADD CALLDATALOAD PUSH8 0xFFFFFFFFFFFFFFFF DUP2 GT ISZERO PUSH2 0xA4F JUMPI PUSH2 0xA4E PUSH2 0x75D JUMP JUMPDEST JUMPDEST PUSH2 0xA5B DUP9 DUP3 DUP10 ADD PUSH2 0x965 JUMP JUMPDEST SWAP3 POP POP PUSH1 0x80 DUP7 ADD CALLDATALOAD PUSH8 0xFFFFFFFFFFFFFFFF DUP2 GT ISZERO PUSH2 0xA7C JUMPI PUSH2 0xA7B PUSH2 0x75D JUMP JUMPDEST JUMPDEST PUSH2 0xA88 DUP9 DUP3 DUP10 ADD PUSH2 0x965 JUMP JUMPDEST SWAP2 POP POP SWAP3 SWAP6 POP SWAP3 SWAP6 SWAP1 SWAP4 POP JUMP JUMPDEST PUSH0 PUSH1 0x20 DUP3 DUP5 SUB SLT ISZERO PUSH2 0xAAA JUMPI PUSH2 0xAA9 PUSH2 0x759 JUMP JUMPDEST JUMPDEST PUSH0 PUSH2 0xAB7 DUP5 DUP3 DUP6 ADD PUSH2 0x7A7 JUMP JUMPDEST SWAP2 POP POP SWAP3 SWAP2 POP POP JUMP JUMPDEST PUSH2 0xAC9 DUP2 PUSH2 0x7BB JUMP JUMPDEST DUP3 MSTORE POP POP JUMP JUMPDEST PUSH0 PUSH1 0x20 DUP3 ADD SWAP1 POP PUSH2 0xAE2 PUSH0 DUP4 ADD DUP5 PUSH2 0xAC0 JUMP JUMPDEST SWAP3 SWAP2 POP POP JUMP JUMPDEST PUSH32 0x4E487B7100000000000000000000000000000000000000000000000000000000 PUSH0 MSTORE PUSH1 0x22 PUSH1 0x4 MSTORE PUSH1 0x24 PUSH0 REVERT JUMPDEST PUSH0 PUSH1 0x2 DUP3 DIV SWAP1 POP PUSH1 0x1 DUP3 AND DUP1 PUSH2 0xB2C JUMPI PUSH1 0x7F DUP3 AND SWAP2 POP JUMPDEST PUSH1 0x20 DUP3 LT DUP2 SUB PUSH2 0xB3F JUMPI PUSH2 0xB3E PUSH2 0xAE8 JUMP JUMPDEST JUMPDEST POP SWAP2 SWAP1 POP JUMP JUMPDEST PUSH0 DUP3 DUP3 MSTORE PUSH1 0x20 DUP3 ADD SWAP1 POP SWAP3 SWAP2 POP POP JUMP JUMPDEST PUSH32 0x5573657220686173206E6F74207375626D6974746564204B5943000000000000 PUSH0 DUP3 ADD MSTORE POP JUMP JUMPDEST PUSH0 PUSH2 0xB89 PUSH1 0x1A DUP4 PUSH2 0xB45 JUMP JUMPDEST SWAP2 POP PUSH2 0xB94 DUP3 PUSH2 0xB55 JUMP JUMPDEST PUSH1 0x20 DUP3 ADD SWAP1 POP SWAP2 SWAP1 POP JUMP JUMPDEST PUSH0 PUSH1 0x20 DUP3 ADD SWAP1 POP DUP2 DUP2 SUB PUSH0 DUP4 ADD MSTORE PUSH2 0xBB6 DUP2 PUSH2 0xB7D JUMP JUMPDEST SWAP1 POP SWAP2 SWAP1 POP JUMP JUMPDEST PUSH32 0x4E616D6520697320726571756972656400000000000000000000000000000000 PUSH0 DUP3 ADD MSTORE POP JUMP JUMPDEST PUSH0 PUSH2 0xBF1 PUSH1 0x10 DUP4 PUSH2 0xB45 JUMP JUMPDEST SWAP2 POP PUSH2 0xBFC DUP3 PUSH2 0xBBD JUMP JUMPDEST PUSH1 0x20 DUP3 ADD SWAP1 POP SWAP2 SWAP1 POP JUMP JUMPDEST PUSH0 PUSH1 0x20 DUP3 ADD SWAP1 POP DUP2 DUP2 SUB PUSH0 DUP4 ADD MSTORE PUSH2 0xC1E DUP2 PUSH2 0xBE5 JUMP JUMPDEST SWAP1 POP SWAP2 SWAP1 POP JUMP JUMPDEST PUSH32 0x456D61696C206973207265717569726564000000000000000000000000000000 PUSH0 DUP3 ADD MSTORE POP JUMP JUMPDEST PUSH0 PUSH2 0xC59 PUSH1 0x11 DUP4 PUSH2 0xB45 JUMP JUMPDEST SWAP2 POP PUSH2 0xC64 DUP3 PUSH2 0xC25 JUMP JUMPDEST PUSH1 0x20 DUP3 ADD SWAP1 POP SWAP2 SWAP1 POP JUMP JUMPDEST PUSH0 PUSH1 0x20 DUP3 ADD SWAP1 POP DUP2 DUP2 SUB PUSH0 DUP4 ADD MSTORE PUSH2 0xC86 DUP2 PUSH2 0xC4D JUMP JUMPDEST SWAP1 POP SWAP2 SWAP1 POP JUMP JUMPDEST PUSH32 0x4E6174696F6E616C697479206973207265717569726564000000000000000000 PUSH0 DUP3 ADD MSTORE POP JUMP JUMPDEST PUSH0 PUSH2 0xCC1 PUSH1 0x17 DUP4 PUSH2 0xB45 JUMP JUMPDEST SWAP2 POP PUSH2 0xCCC DUP3 PUSH2 0xC8D JUMP JUMPDEST PUSH1 0x20 DUP3 ADD SWAP1 POP SWAP2 SWAP1 POP JUMP JUMPDEST PUSH0 PUSH1 0x20 DUP3 ADD SWAP1 POP DUP2 DUP2 SUB PUSH0 DUP4 ADD MSTORE PUSH2 0xCEE DUP2 PUSH2 0xCB5 JUMP JUMPDEST SWAP1 POP SWAP2 SWAP1 POP JUMP JUMPDEST PUSH32 0x4944204E756D6265722069732072657175697265640000000000000000000000 PUSH0 DUP3 ADD MSTORE POP JUMP JUMPDEST PUSH0 PUSH2 0xD29 PUSH1 0x15 DUP4 PUSH2 0xB45 JUMP JUMPDEST SWAP2 POP PUSH2 0xD34 DUP3 PUSH2 0xCF5 JUMP JUMPDEST PUSH1 0x20 DUP3 ADD SWAP1 POP SWAP2 SWAP1 POP JUMP JUMPDEST PUSH0 PUSH1 0x20 DUP3 ADD SWAP1 POP DUP2 DUP2 SUB PUSH0 DUP4 ADD MSTORE PUSH2 0xD56 DUP2 PUSH2 0xD1D JUMP JUMPDEST SWAP1 POP SWAP2 SWAP1 POP JUMP JUMPDEST PUSH32 0x494420496D616765206973207265717569726564000000000000000000000000 PUSH0 DUP3 ADD MSTORE POP JUMP JUMPDEST PUSH0 PUSH2 0xD91 PUSH1 0x14 DUP4 PUSH2 0xB45 JUMP JUMPDEST SWAP2 POP PUSH2 0xD9C DUP3 PUSH2 0xD5D JUMP JUMPDEST PUSH1 0x20 DUP3 ADD SWAP1 POP SWAP2 SWAP1 POP JUMP JUMPDEST PUSH0 PUSH1 0x20 DUP3 ADD SWAP1 POP DUP2 DUP2 SUB PUSH0 DUP4 ADD MSTORE PUSH2 0xDBE DUP2 PUSH2 0xD85 JUMP JUMPDEST SWAP1 POP SWAP2 SWAP1 POP JUMP JUMPDEST PUSH0 DUP2 MLOAD SWAP1 POP SWAP2 SWAP1 POP JUMP JUMPDEST PUSH0 DUP2 SWAP1 POP DUP2 PUSH0 MSTORE PUSH1 0x20 PUSH0 KECCAK256 SWAP1 POP SWAP2 SWAP1 POP JUMP JUMPDEST PUSH0 PUSH1 0x20 PUSH1 0x1F DUP4 ADD DIV SWAP1 POP SWAP2 SWAP1 POP JUMP JUMPDEST PUSH0 DUP3 DUP3 SHL SWAP1 POP SWAP3 SWAP2 POP POP JUMP JUMPDEST PUSH0 PUSH1 0x8 DUP4 MUL PUSH2 0xE2B PUSH32 0xFFFFFFFFFFFFFFFFFFFFFFFFFFFFFFFFFFFFFFFFFFFFFFFFFFFFFFFFFFFFFFFF DUP3 PUSH2 0xDF0 JUMP JUMPDEST PUSH2 0xE35 DUP7 DUP4 PUSH2 0xDF0 JUMP JUMPDEST SWAP6 POP DUP1 NOT DUP5 AND SWAP4 POP DUP1 DUP7 AND DUP5 OR SWAP3 POP POP POP SWAP4 SWAP3 POP POP POP JUMP JUMPDEST PUSH0 DUP2 SWAP1 POP SWAP2 SWAP1 POP JUMP JUMPDEST PUSH0 DUP2 SWAP1 POP SWAP2 SWAP1 POP JUMP JUMPDEST PUSH0 PUSH2 0xE79 PUSH2 0xE74 PUSH2 0xE6F DUP5 PUSH2 0xE4D JUMP JUMPDEST PUSH2 0xE56 JUMP JUMPDEST PUSH2 0xE4D JUMP JUMPDEST SWAP1 POP SWAP2 SWAP1 POP JUMP JUMPDEST PUSH0 DUP2 SWAP1 POP SWAP2 SWAP1 POP JUMP JUMPDEST PUSH2 0xE92 DUP4 PUSH2 0xE5F JUMP JUMPDEST PUSH2 0xEA6 PUSH2 0xE9E DUP3 PUSH2 0xE80 JUMP JUMPDEST DUP5 DUP5 SLOAD PUSH2 0xDFC JUMP JUMPDEST DUP3 SSTORE POP POP POP POP JUMP JUMPDEST PUSH0 PUSH0 SWAP1 POP SWAP1 JUMP JUMPDEST PUSH2 0xEBD PUSH2 0xEAE JUMP JUMPDEST PUSH2 0xEC8 DUP2 DUP5 DUP5 PUSH2 0xE89 JUMP JUMPDEST POP POP POP JUMP JUMPDEST JUMPDEST DUP2 DUP2 LT ISZERO PUSH2 0xEEB JUMPI PUSH2 0xEE0 PUSH0 DUP3 PUSH2 0xEB5 JUMP JUMPDEST PUSH1 0x1 DUP2 ADD SWAP1 POP PUSH2 0xECE JUMP JUMPDEST POP POP JUMP JUMPDEST PUSH1 0x1F DUP3 GT ISZERO PUSH2 0xF30 JUMPI PUSH2 0xF01 DUP2 PUSH2 0xDCF JUMP JUMPDEST PUSH2 0xF0A DUP5 PUSH2 0xDE1 JUMP JUMPDEST DUP2 ADD PUSH1 0x20 DUP6 LT ISZERO PUSH2 0xF19 JUMPI DUP2 SWAP1 POP JUMPDEST PUSH2 0xF2D PUSH2 0xF25 DUP6 PUSH2 0xDE1 JUMP JUMPDEST DUP4 ADD DUP3 PUSH2 0xECD JUMP JUMPDEST POP POP JUMPDEST POP POP POP JUMP JUMPDEST PUSH0 DUP3 DUP3 SHR SWAP1 POP SWAP3 SWAP2 POP POP JUMP JUMPDEST PUSH0 PUSH2 0xF50 PUSH0 NOT DUP5 PUSH1 0x8 MUL PUSH2 0xF35 JUMP JUMPDEST NOT DUP1 DUP4 AND SWAP2 POP POP SWAP3 SWAP2 POP POP JUMP JUMPDEST PUSH0 PUSH2 0xF68 DUP4 DUP4 PUSH2 0xF41 JUMP JUMPDEST SWAP2 POP DUP3 PUSH1 0x2 MUL DUP3 OR SWAP1 POP SWAP3 SWAP2 POP POP JUMP JUMPDEST PUSH2 0xF81 DUP3 PUSH2 0xDC5 JUMP JUMPDEST PUSH8 0xFFFFFFFFFFFFFFFF DUP2 GT ISZERO PUSH2 0xF9A JUMPI PUSH2 0xF99 PUSH2 0x86E JUMP JUMPDEST JUMPDEST PUSH2 0xFA4 DUP3 SLOAD PUSH2 0xB15 JUMP JUMPDEST PUSH2 0xFAF DUP3 DUP3 DUP6 PUSH2 0xEEF JUMP JUMPDEST PUSH0 PUSH1 0x20 SWAP1 POP PUSH1 0x1F DUP4 GT PUSH1 0x1 DUP2 EQ PUSH2 0xFE0 JUMPI PUSH0 DUP5 ISZERO PUSH2 0xFCE JUMPI DUP3 DUP8 ADD MLOAD SWAP1 POP JUMPDEST PUSH2 0xFD8 DUP6 DUP3 PUSH2 0xF5D JUMP JUMPDEST DUP7 SSTORE POP PUSH2 0x103F JUMP JUMPDEST PUSH1 0x1F NOT DUP5 AND PUSH2 0xFEE DUP7 PUSH2 0xDCF JUMP JUMPDEST PUSH0 JUMPDEST DUP3 DUP2 LT ISZERO PUSH2 0x1015 JUMPI DUP5 DUP10 ADD MLOAD DUP3 SSTORE PUSH1 0x1 DUP3 ADD SWAP2 POP PUSH1 0x20 DUP6 ADD SWAP5 POP PUSH1 0x20 DUP2 ADD SWAP1 POP PUSH2 0xFF0 JUMP JUMPDEST DUP7 DUP4 LT ISZERO PUSH2 0x1032 JUMPI DUP5 DUP10 ADD MLOAD PUSH2 0x102E PUSH1 0x1F DUP10 AND DUP3 PUSH2 0xF41 JUMP JUMPDEST DUP4 SSTORE POP JUMPDEST PUSH1 0x1 PUSH1 0x2 DUP9 MUL ADD DUP9 SSTORE POP POP POP JUMPDEST POP POP POP POP POP POP JUMP JUMPDEST DUP3 DUP2 DUP4 MCOPY PUSH0 DUP4 DUP4 ADD MSTORE POP POP POP JUMP JUMPDEST PUSH0 PUSH2 0x105F DUP3 PUSH2 0xDC5 JUMP JUMPDEST PUSH2 0x1069 DUP2 DUP6 PUSH2 0xB45 JUMP JUMPDEST SWAP4 POP PUSH2 0x1079 DUP2 DUP6 PUSH1 0x20 DUP7 ADD PUSH2 0x1047 JUMP JUMPDEST PUSH2 0x1082 DUP2 PUSH2 0x85E JUMP JUMPDEST DUP5 ADD SWAP2 POP POP SWAP3 SWAP2 POP POP JUMP JUMPDEST PUSH0 PUSH1 0x40 DUP3 ADD SWAP1 POP DUP2 DUP2 SUB PUSH0 DUP4 ADD MSTORE PUSH2 0x10A5 DUP2 DUP6 PUSH2 0x1055 JUMP JUMPDEST SWAP1 POP DUP2 DUP2 SUB PUSH1 0x20 DUP4 ADD MSTORE PUSH2 0x10B9 DUP2 DUP5 PUSH2 0x1055 JUMP JUMPDEST SWAP1 POP SWAP4 SWAP3 POP POP POP JUMP INVALID LOG2 PUSH5 0x6970667358 0x22 SLT KECCAK256 SELFBALANCE 0xA7 REVERT 0xE9 SHL RETURNDATASIZE OR 0xED 0xCC JUMPI 0xC8 0xEF 0xF7 0x2A MSTORE8 DUP8 CALLDATALOAD 0xCB CALLF 0xA094 RETURNDATASIZE PUSH8 0xCAB35C07A567727F PUSH20 0x64736F6C634300081E0033000000000000000000 "
				},
				"gasEstimates": {
					"creation": {
						"codeDepositCost": "868800",
						"executionCost": "infinite",
						"totalCost": "infinite"
					},
					"external": {
						"isUserVerified(address)": "2942",
						"owner()": "2536",
						"renounceOwnership()": "infinite",
						"submitKYC(string,string,string,string,string)": "infinite",
						"transferOwnership(address)": "infinite",
						"verifyKYC(address,bool)": "infinite"
					}
				},
				"methodIdentifiers": {
					"isUserVerified(address)": "ace417e0",
					"owner()": "8da5cb5b",
					"renounceOwnership()": "715018a6",
					"submitKYC(string,string,string,string,string)": "a9fabbd2",
					"transferOwnership(address)": "f2fde38b",
					"verifyKYC(address,bool)": "474adb8f"
				}
			},
			"storageLayout": {
				"storage": [
					{
						"astId": 8,
						"contract": "Contract/KYCManager.sol:KYCManager",
						"label": "_owner",
						"offset": 0,
						"slot": "0",
						"type": "t_address"
					},
					{
						"astId": 200,
						"contract": "Contract/KYCManager.sol:KYCManager",
						"label": "_userKYC",
						"offset": 0,
						"slot": "1",
						"type": "t_mapping(t_address,t_struct(KYC)195_storage)"
					}
				],
				"types": {
					"t_address": {
						"encoding": "inplace",
						"label": "address",
						"numberOfBytes": "20"
					},
					"t_bool": {
						"encoding": "inplace",
						"label": "bool",
						"numberOfBytes": "1"
					},
					"t_mapping(t_address,t_struct(KYC)195_storage)": {
						"encoding": "mapping",
						"key": "t_address",
						"label": "mapping(address => struct KYCManager.KYC)",
						"numberOfBytes": "32",
						"value": "t_struct(KYC)195_storage"
					},
					"t_string_storage": {
						"encoding": "bytes",
						"label": "string",
						"numberOfBytes": "32"
					},
					"t_struct(KYC)195_storage": {
						"encoding": "inplace",
						"label": "struct KYCManager.KYC",
						"members": [
							{
								"astId": 184,
								"contract": "Contract/KYCManager.sol:KYCManager",
								"label": "name",
								"offset": 0,
								"slot": "0",
								"type": "t_string_storage"
							},
							{
								"astId": 186,
								"contract": "Contract/KYCManager.sol:KYCManager",
								"label": "email",
								"offset": 0,
								"slot": "1",
								"type": "t_string_storage"
							},
							{
								"astId": 188,
								"contract": "Contract/KYCManager.sol:KYCManager",
								"label": "nationality",
								"offset": 0,
								"slot": "2",
								"type": "t_string_storage"
							},
							{
								"astId": 190,
								"contract": "Contract/KYCManager.sol:KYCManager",
								"label": "idNumber",
								"offset": 0,
								"slot": "3",
								"type": "t_string_storage"
							},
							{
								"astId": 192,
								"contract": "Contract/KYCManager.sol:KYCManager",
								"label": "idImage",
								"offset": 0,
								"slot": "4",
								"type": "t_string_storage"
							},
							{
								"astId": 194,
								"contract": "Contract/KYCManager.sol:KYCManager",
								"label": "isVerified",
								"offset": 0,
								"slot": "5",
								"type": "t_bool"
							}
						],
						"numberOfBytes": "192"
					}
				}
			},
			"userdoc": {
				"kind": "user",
				"methods": {},
				"version": 1
			}
		}
	}
}